{"abi":[{"type":"function","name":"inc","inputs":[],"outputs":[],"stateMutability":"nonpayable"},{"type":"function","name":"incBy","inputs":[{"name":"by","type":"uint256","internalType":"uint256"}],"outputs":[],"stateMutability":"nonpayable"},{"type":"function","name":"x","inputs":[],"outputs":[{"name":"","type":"uint256","internalType":"uint256"}],"stateMutability":"view"},{"type":"event","name":"Increment","inputs":[{"name":"by","type":"uint256","indexed":false,"internalType":"uint256"}],"anonymous":false}],"bytecode":{"object":"0x6080604052348015600e575f5ffd5b506101f98061001c5f395ff3fe608060405234801561000f575f5ffd5b506004361061003f575f3560e01c80630c55699c14610043578063371303c01461005d57806370119d0614610067575b5f5ffd5b61004b5f5481565b60405190815260200160405180910390f35b61006561007a565b005b610065610075366004610147565b6100b0565b5f8054908061008883610172565b9091555050604051600181525f5160206101a45f395f51905f529060200160405180910390a1565b5f811161010f5760405162461bcd60e51b815260206004820152602360248201527f696e6342793a20696e6372656d656e742073686f756c6420626520706f73697460448201526269766560e81b606482015260840160405180910390fd5b805f5f82825461011f919061018a565b90915550506040518181525f5160206101a45f395f51905f529060200160405180910390a150565b5f60208284031215610157575f5ffd5b5035919050565b634e487b7160e01b5f52601160045260245ffd5b5f600182016101835761018361015e565b5060010190565b8082018082111561019d5761019d61015e565b9291505056fe51af157c2eee40f68107a47a49c32fbbeb0a3c9e5cd37aa56e88e6be92368a81a2646970667358221220af0b8c983b0c1ea5e93eeb95e56513fa2eb2813f4cc563773fd8c82ab71025a064736f6c634300081e0033","linkReferences":{}},"methodIdentifiers":{"inc()":"371303c0","incBy(uint256)":"70119d06","x()":"0c55699c"},"id":0}