{"abi":[{"type":"constructor","inputs":[{"name":"initialOwner","type":"address","internalType":"address"},{"name":"_retryTokenAddress","type":"address","internalType":"address"}],"stateMutability":"nonpayable"},{"type":"receive","stateMutability":"payable"},{"type":"function","name":"ENTRY_FEE","inputs":[],"outputs":[{"name":"","type":"uint256","internalType":"uint256"}],"stateMutability":"view"},{"type":"function","name":"MAX_RETRIES","inputs":[],"outputs":[{"name":"","type":"uint256","internalType":"uint256"}],"stateMutability":"view"},{"type":"function","name":"RETRY_COST","inputs":[],"outputs":[{"name":"","type":"uint256","internalType":"uint256"}],"stateMutability":"view"},{"type":"function","name":"balances","inputs":[{"name":"","type":"address","internalType":"address"}],"outputs":[{"name":"","type":"uint256","internalType":"uint256"}],"stateMutability":"view"},{"type":"function","name":"committedAt","inputs":[{"name":"","type":"uint256","internalType":"uint256"},{"name":"","type":"address","internalType":"address"}],"outputs":[{"name":"","type":"uint256","internalType":"uint256"}],"stateMutability":"view"},{"type":"function","name":"committedGuesses","inputs":[{"name":"","type":"uint256","internalType":"uint256"},{"name":"","type":"address","internalType":"address"}],"outputs":[{"name":"","type":"bytes32","internalType":"bytes32"}],"stateMutability":"view"},{"type":"function","name":"currentRiddleId","inputs":[],"outputs":[{"name":"","type":"uint256","internalType":"uint256"}],"stateMutability":"view"},{"type":"function","name":"deposit","inputs":[],"outputs":[],"stateMutability":"payable"},{"type":"function","name":"enterGame","inputs":[{"name":"_riddleId","type":"uint256","internalType":"uint256"}],"outputs":[],"stateMutability":"nonpayable"},{"type":"function","name":"entryFeeToken","inputs":[],"outputs":[{"name":"","type":"address","internalType":"contract IERC20"}],"stateMutability":"view"},{"type":"function","name":"ethPrizePool","inputs":[],"outputs":[{"name":"","type":"uint256","internalType":"uint256"}],"stateMutability":"view"},{"type":"function","name":"fundTokenPrizePool","inputs":[{"name":"_amount","type":"uint256","internalType":"uint256"}],"outputs":[],"stateMutability":"nonpayable"},{"type":"function","name":"getCurrentPrizePool","inputs":[],"outputs":[{"name":"","type":"uint256","internalType":"uint256"}],"stateMutability":"view"},{"type":"function","name":"getPrizeToken","inputs":[],"outputs":[{"name":"","type":"address","internalType":"address"}],"stateMutability":"view"},{"type":"function","name":"getRetryCount","inputs":[{"name":"player","type":"address","internalType":"address"}],"outputs":[{"name":"","type":"uint256","internalType":"uint256"}],"stateMutability":"view"},{"type":"function","name":"getWinnerList","inputs":[{"name":"_riddleId","type":"uint256","internalType":"uint256"}],"outputs":[{"name":"","type":"address[]","internalType":"address[]"}],"stateMutability":"view"},{"type":"function","name":"hasClaimed","inputs":[{"name":"","type":"uint256","internalType":"uint256"},{"name":"","type":"address","internalType":"address"}],"outputs":[{"name":"","type":"bool","internalType":"bool"}],"stateMutability":"view"},{"type":"function","name":"hasParticipated","inputs":[{"name":"","type":"uint256","internalType":"uint256"},{"name":"","type":"address","internalType":"address"}],"outputs":[{"name":"","type":"bool","internalType":"bool"}],"stateMutability":"view"},{"type":"function","name":"hasPlayerEntered","inputs":[{"name":"player","type":"address","internalType":"address"}],"outputs":[{"name":"","type":"bool","internalType":"bool"}],"stateMutability":"view"},{"type":"function","name":"hasReceivedRemainder","inputs":[{"name":"","type":"uint256","internalType":"uint256"},{"name":"","type":"address","internalType":"address"}],"outputs":[{"name":"","type":"bool","internalType":"bool"}],"stateMutability":"view"},{"type":"function","name":"hasRevealed","inputs":[{"name":"","type":"uint256","internalType":"uint256"},{"name":"","type":"address","internalType":"address"}],"outputs":[{"name":"","type":"bool","internalType":"bool"}],"stateMutability":"view"},{"type":"function","name":"isPaidOut","inputs":[{"name":"","type":"uint256","internalType":"uint256"}],"outputs":[{"name":"","type":"bool","internalType":"bool"}],"stateMutability":"view"},{"type":"function","name":"isWinner","inputs":[{"name":"","type":"uint256","internalType":"uint256"},{"name":"","type":"address","internalType":"address"}],"outputs":[{"name":"","type":"bool","internalType":"bool"}],"stateMutability":"view"},{"type":"function","name":"owner","inputs":[],"outputs":[{"name":"","type":"address","internalType":"address"}],"stateMutability":"view"},{"type":"function","name":"ownerWithdraw","inputs":[{"name":"_amount","type":"uint256","internalType":"uint256"}],"outputs":[],"stateMutability":"nonpayable"},{"type":"function","name":"ownerWithdrawTokens","inputs":[{"name":"_amount","type":"uint256","internalType":"uint256"}],"outputs":[],"stateMutability":"nonpayable"},{"type":"function","name":"paidWinnersCount","inputs":[{"name":"","type":"uint256","internalType":"uint256"}],"outputs":[{"name":"","type":"uint256","internalType":"uint256"}],"stateMutability":"view"},{"type":"function","name":"payout","inputs":[{"name":"_riddleId","type":"uint256","internalType":"uint256"},{"name":"_winnersBatch","type":"address[]","internalType":"address[]"}],"outputs":[],"stateMutability":"nonpayable"},{"type":"function","name":"purchaseRetry","inputs":[{"name":"_riddleId","type":"uint256","internalType":"uint256"}],"outputs":[],"stateMutability":"nonpayable"},{"type":"function","name":"renounceOwnership","inputs":[],"outputs":[],"stateMutability":"nonpayable"},{"type":"function","name":"retries","inputs":[{"name":"","type":"address","internalType":"address"}],"outputs":[{"name":"","type":"uint256","internalType":"uint256"}],"stateMutability":"view"},{"type":"function","name":"retryToken","inputs":[],"outputs":[{"name":"","type":"address","internalType":"contract IERC20"}],"stateMutability":"view"},{"type":"function","name":"revealDelay","inputs":[],"outputs":[{"name":"","type":"uint256","internalType":"uint256"}],"stateMutability":"view"},{"type":"function","name":"revealGuess","inputs":[{"name":"_riddleId","type":"uint256","internalType":"uint256"},{"name":"_guess","type":"string","internalType":"string"}],"outputs":[],"stateMutability":"nonpayable"},{"type":"function","name":"revealedGuessHash","inputs":[{"name":"","type":"uint256","internalType":"uint256"},{"name":"","type":"address","internalType":"address"}],"outputs":[{"name":"","type":"bytes32","internalType":"bytes32"}],"stateMutability":"view"},{"type":"function","name":"riddleConfigs","inputs":[{"name":"","type":"uint256","internalType":"uint256"}],"outputs":[{"name":"prizeAmount","type":"uint256","internalType":"uint256"},{"name":"prizeType","type":"uint8","internalType":"enum Vaultis.PrizeType"},{"name":"prizeToken","type":"address","internalType":"contract IERC20"}],"stateMutability":"view"},{"type":"function","name":"setRevealDelay","inputs":[{"name":"_newRevealDelay","type":"uint256","internalType":"uint256"}],"outputs":[],"stateMutability":"nonpayable"},{"type":"function","name":"setRiddle","inputs":[{"name":"_riddleId","type":"uint256","internalType":"uint256"},{"name":"_answerHash","type":"bytes32","internalType":"bytes32"},{"name":"_prizeType","type":"uint8","internalType":"enum Vaultis.PrizeType"},{"name":"_prizeTokenAddress","type":"address","internalType":"address"},{"name":"_prizeAmount","type":"uint256","internalType":"uint256"},{"name":"_entryFeeTokenAddress","type":"address","internalType":"address"}],"outputs":[],"stateMutability":"nonpayable"},{"type":"function","name":"solveRiddleAndClaim","inputs":[{"name":"_answer","type":"string","internalType":"string"}],"outputs":[],"stateMutability":"nonpayable"},{"type":"function","name":"submitGuess","inputs":[{"name":"_riddleId","type":"uint256","internalType":"uint256"},{"name":"_guessHash","type":"bytes32","internalType":"bytes32"}],"outputs":[],"stateMutability":"nonpayable"},{"type":"function","name":"tokenPrizePool","inputs":[],"outputs":[{"name":"","type":"uint256","internalType":"uint256"}],"stateMutability":"view"},{"type":"function","name":"totalPrizeDistributed","inputs":[{"name":"","type":"uint256","internalType":"uint256"}],"outputs":[{"name":"","type":"uint256","internalType":"uint256"}],"stateMutability":"view"},{"type":"function","name":"totalWinnersCount","inputs":[{"name":"","type":"uint256","internalType":"uint256"}],"outputs":[{"name":"","type":"uint256","internalType":"uint256"}],"stateMutability":"view"},{"type":"function","name":"transferOwnership","inputs":[{"name":"newOwner","type":"address","internalType":"address"}],"outputs":[],"stateMutability":"nonpayable"},{"type":"function","name":"winners","inputs":[{"name":"","type":"uint256","internalType":"uint256"},{"name":"","type":"uint256","internalType":"uint256"}],"outputs":[{"name":"","type":"address","internalType":"address"}],"stateMutability":"view"},{"type":"function","name":"withdraw","inputs":[{"name":"_amount","type":"uint256","internalType":"uint256"}],"outputs":[],"stateMutability":"nonpayable"},{"type":"event","name":"Deposit","inputs":[{"name":"user","type":"address","indexed":true,"internalType":"address"},{"name":"amount","type":"uint256","indexed":false,"internalType":"uint256"}],"anonymous":false},{"type":"event","name":"EntryFeeCollected","inputs":[{"name":"player","type":"address","indexed":true,"internalType":"address"},{"name":"token","type":"address","indexed":true,"internalType":"address"},{"name":"amount","type":"uint256","indexed":false,"internalType":"uint256"},{"name":"riddleId","type":"uint256","indexed":true,"internalType":"uint256"}],"anonymous":false},{"type":"event","name":"EthReceived","inputs":[{"name":"sender","type":"address","indexed":true,"internalType":"address"},{"name":"amount","type":"uint256","indexed":false,"internalType":"uint256"}],"anonymous":false},{"type":"event","name":"GuessEvaluated","inputs":[{"name":"riddleId","type":"uint256","indexed":true,"internalType":"uint256"},{"name":"player","type":"address","indexed":true,"internalType":"address"},{"name":"timestamp","type":"uint256","indexed":false,"internalType":"uint256"},{"name":"isWinner","type":"bool","indexed":false,"internalType":"bool"}],"anonymous":false},{"type":"event","name":"GuessRevealed","inputs":[{"name":"player","type":"address","indexed":true,"internalType":"address"},{"name":"riddleId","type":"uint256","indexed":true,"internalType":"uint256"},{"name":"revealedHash","type":"bytes32","indexed":false,"internalType":"bytes32"}],"anonymous":false},{"type":"event","name":"GuessSubmitted","inputs":[{"name":"player","type":"address","indexed":true,"internalType":"address"},{"name":"riddleId","type":"uint256","indexed":true,"internalType":"uint256"},{"name":"guessHash","type":"bytes32","indexed":false,"internalType":"bytes32"}],"anonymous":false},{"type":"event","name":"OwnerWithdrawTokens","inputs":[{"name":"amount","type":"uint256","indexed":false,"internalType":"uint256"}],"anonymous":false},{"type":"event","name":"OwnerWithdrawal","inputs":[{"name":"owner","type":"address","indexed":true,"internalType":"address"},{"name":"amount","type":"uint256","indexed":false,"internalType":"uint256"}],"anonymous":false},{"type":"event","name":"OwnershipTransferred","inputs":[{"name":"previousOwner","type":"address","indexed":true,"internalType":"address"},{"name":"newOwner","type":"address","indexed":true,"internalType":"address"}],"anonymous":false},{"type":"event","name":"PayoutExecuted","inputs":[{"name":"riddleId","type":"uint256","indexed":true,"internalType":"uint256"},{"name":"winners","type":"address[]","indexed":false,"internalType":"address[]"},{"name":"totalAmount","type":"uint256","indexed":false,"internalType":"uint256"}],"anonymous":false},{"type":"event","name":"PlayerEntered","inputs":[{"name":"player","type":"address","indexed":true,"internalType":"address"},{"name":"riddleId","type":"uint256","indexed":true,"internalType":"uint256"}],"anonymous":false},{"type":"event","name":"PrizeDistributed","inputs":[{"name":"winner","type":"address","indexed":true,"internalType":"address"},{"name":"amount","type":"uint256","indexed":false,"internalType":"uint256"},{"name":"prizeType","type":"uint8","indexed":false,"internalType":"enum Vaultis.PrizeType"}],"anonymous":false},{"type":"event","name":"PrizeFunded","inputs":[{"name":"funder","type":"address","indexed":true,"internalType":"address"},{"name":"amount","type":"uint256","indexed":false,"internalType":"uint256"},{"name":"prizeType","type":"uint8","indexed":false,"internalType":"enum Vaultis.PrizeType"}],"anonymous":false},{"type":"event","name":"RetryPurchased","inputs":[{"name":"player","type":"address","indexed":true,"internalType":"address"},{"name":"riddleId","type":"uint256","indexed":true,"internalType":"uint256"},{"name":"cost","type":"uint256","indexed":false,"internalType":"uint256"},{"name":"newRetryCount","type":"uint256","indexed":false,"internalType":"uint256"}],"anonymous":false},{"type":"event","name":"RiddleInitialized","inputs":[{"name":"riddleId","type":"uint256","indexed":true,"internalType":"uint256"},{"name":"answerHash","type":"bytes32","indexed":false,"internalType":"bytes32"},{"name":"prizeType","type":"uint8","indexed":false,"internalType":"uint8"},{"name":"prizeTokenAddress","type":"address","indexed":false,"internalType":"address"},{"name":"prizeAmount","type":"uint256","indexed":false,"internalType":"uint256"},{"name":"entryFeeTokenAddress","type":"address","indexed":false,"internalType":"address"}],"anonymous":false},{"type":"event","name":"WinnerFound","inputs":[{"name":"winner","type":"address","indexed":true,"internalType":"address"},{"name":"riddleId","type":"uint256","indexed":true,"internalType":"uint256"}],"anonymous":false},{"type":"event","name":"Withdrawal","inputs":[{"name":"user","type":"address","indexed":true,"internalType":"address"},{"name":"amount","type":"uint256","indexed":false,"internalType":"uint256"}],"anonymous":false},{"type":"error","name":"OwnableInvalidOwner","inputs":[{"name":"owner","type":"address","internalType":"address"}]},{"type":"error","name":"OwnableUnauthorizedAccount","inputs":[{"name":"account","type":"address","internalType":"address"}]},{"type":"error","name":"ReentrancyGuardReentrantCall","inputs":[]},{"type":"error","name":"SafeERC20FailedOperation","inputs":[{"name":"token","type":"address","internalType":"address"}]}],"bytecode":{"object":"0x6080806040523461019c576040816138ba803803809161001f828561024c565b83398101031261019c5761003e602061003783610283565b9201610283565b6001600160a01b03909116908115610239575f80546001600160a01b031981168417825560405193916001600160a01b03909116907f8be0079c531659141344cd1fd0a4f28419497f9722a3daafe3b4186f6b6457e09080a3600180556001600160a01b0381169182156101ec57503b156101a8576040516318160ddd60e01b8152602081600481855afa9081610175575b506101405760405162461bcd60e51b815260206004820152603760248201527f496e76616c6964204552432d323020746f6b656e20666f722072657472793a2060448201527f746f74616c537570706c792063616c6c206661696c65640000000000000000006064820152608490fd5b600680546001600160a01b0319908116909155610e106011556008805490911691909117905560405161362290816102988239f35b6020813d6020116101a0575b8161018e6020938361024c565b8101031261019c57516100d0565b5f80fd5b3d9150610181565b606460405162461bcd60e51b815260206004820152602060248201527f526574727920746f6b656e20686173206e6f20636f6e747261637420636f64656044820152fd5b62461bcd60e51b815260206004820152602260248201527f526574727920746f6b656e20616464726573732063616e6e6f74206265207a65604482015261726f60f01b6064820152608490fd5b631e4fbdf760e01b5f525f60045260245ffd5b601f909101601f19168101906001600160401b0382119082101761026f57604052565b634e487b7160e01b5f52604160045260245ffd5b51906001600160a01b038216820361019c5756fe60808060405260043610156100ae575b50361561001a575f80fd5b341561005d5761002c346004546130da565b6004556040513481527f85177f287940f2f05425a4029951af0e047a7f9c4eaa9a6e6917bcd869f8669560203392a2005b60405162461bcd60e51b8152602060048201526024808201527f45544820616d6f756e74206d7573742062652067726561746572207468616e206044820152637a65726f60e01b6064820152608490fd5b5f3560e01c9081630b0705c814612e9a575080630efc886514612e4a57806312b5afc114612b5c57806316b5551d14612b13578063188240cd14612acf578063219fc38514612aa757806327e235e314612a6f5780632e1a7d4d1461290b57806333f707d11461278157806343d6582b1461246957806346ebbdb01461244e57806348b06e87146122d657806353236d74146122b957806355e93ede14612297578063569eaf611461226857806357aa0ea21461224657806360972120146120e0578063680719bb14612097578063715018a6146120405780637a11e94114611cd15780637b14976314611ca9578063873f6f9e14611c605780638da5cb5b14611c3957806394c9d9bc14611bf057806395664a3d14611bd357806398e18549146110aa578063a34398a214611b8a578063a68c25d814611b69578063a6dbce2414611b18578063b7173e7714611ad4578063bdd415af14611a8b578063c06a5fc514611a47578063c310e24214611a2a578063c7cd6959146119f3578063c8e728f9146111c6578063d0e30db01461110c578063d56c52ed146110e2578063dbbd3245146110aa578063dc663b5314610da1578063e4d33ee3146109cc578063ecdc6c23146109af578063f2fde38b1461092a578063f6d361cc14610908578063f7c7e144146108de578063f9f82e9c146102e25763fab16017146102b4575f61000f565b346102de5760203660031901126102de576004355f526018602052602060405f2054604051908152f35b5f80fd5b346102de5760c03660031901126102de5760043560243560443560028110156102de576064356001600160a01b03811692908381036102de5760a4356001600160a01b0381169160843591908382036102de5761033d61327c565b610348881515612ff6565b60035488111561088a5761035d831515613201565b600186036108275786156107c7573b15610783576040516318160ddd60e01b81526020816004818a5afa9081610754575b506103ee5760405162461bcd60e51b815260206004820152602d60248201527f496e76616c6964204552432d323020746f6b656e3a20746f74616c537570706c60448201526c1e4818d85b1b0819985a5b1959609a1b6064820152608490fd5b82156106d1573b15610680576040516318160ddd60e01b8152602081600481865afa9081610651575b506104875760405162461bcd60e51b815260206004820152603b60248201527f496e76616c6964204552432d323020746f6b656e20666f7220656e747279206660448201527f65653a20746f74616c537570706c792063616c6c206661696c656400000000006064820152608490fd5b600680546001600160a01b031916831790556004546105f557600554610597578560035582601255604051946060860186811067ffffffffffffffff82111761058357604052818652602086019585875260016040820191838352895f52600760205260405f209051815501965195600287101561056f577f05227007ca99c4e41f51fb024dcb2065e16bd026db353ce7f322e5cdb4fb2e9d9760a09760ff9384835491610100600160a81b03905160081b169216906affffffffffffffffffffff60a81b1617179055604051958652166020850152604084015260608301526080820152a2005b634e487b7160e01b5f52602160045260245ffd5b634e487b7160e01b5f52604160045260245ffd5b60405162461bcd60e51b815260206004820152603060248201527f4d75737420776974686472617720746f6b656e207072697a6520706f6f6c206260448201526f65666f7265206e657720726964646c6560801b6064820152608490fd5b60405162461bcd60e51b815260206004820152602e60248201527f4d75737420776974686472617720455448207072697a6520706f6f6c2062656660448201526d6f7265206e657720726964646c6560901b6064820152608490fd5b6020813d602011610678575b8161066a60209383612f7f565b810103126102de5751610417565b3d915061065d565b60405162461bcd60e51b8152602060048201526024808201527f456e7472792066656520746f6b656e20686173206e6f20636f6e747261637420604482015263636f646560e01b6064820152608490fd5b60405162461bcd60e51b815260206004820152604f60248201527f456e7472792066656520746f6b656e20616464726573732063616e6e6f74206260448201527f65207a65726f20696620656e7472792066656520616d6f756e7420697320677260648201526e6561746572207468616e207a65726f60881b608482015260a490fd5b6020813d60201161077b575b8161076d60209383612f7f565b810103126102de575161038e565b3d9150610760565b606460405162461bcd60e51b815260206004820152602060248201527f5072697a6520746f6b656e20686173206e6f20636f6e747261637420636f64656044820152fd5b60405162461bcd60e51b815260206004820152603260248201527f5072697a6520746f6b656e20616464726573732063616e6e6f74206265207a65604482015271726f20666f72204552433230207072697a6560701b6064820152608490fd5b5085156103ee5760405162461bcd60e51b815260206004820152602e60248201527f5072697a6520746f6b656e2061646472657373206d757374206265207a65726f60448201526d20666f7220455448207072697a6560901b6064820152608490fd5b60405162461bcd60e51b815260206004820152602660248201527f526964646c65204944206d7573742062652067726561746572207468616e20636044820152651d5c9c995b9d60d21b6064820152608490fd5b346102de5760203660031901126102de576004355f526019602052602060405f2054604051908152f35b346102de575f3660031901126102de576020604051670de0b6b3a76400008152f35b346102de5760203660031901126102de57610943612fd3565b61094b61327c565b6001600160a01b0316801561099c575f80546001600160a01b03198116831782556001600160a01b0316907f8be0079c531659141344cd1fd0a4f28419497f9722a3daafe3b4186f6b6457e09080a3005b631e4fbdf760e01b5f525f60045260245ffd5b346102de575f3660031901126102de576020600354604051908152f35b346102de5760403660031901126102de576004356024356109eb61325c565b6109f6821515612ff6565b610a036003548314613042565b8015610d5c575f82815260096020908152604080832033845290915290205460ff1615610cfa575f828152600d60209081526040808320338452909152902054601254901515908203610bbb57505f82815260146020908152604080832033845290915290205460ff1615610b0b575b60405142815260016020820152827f6dbad7911810fc45c016aff41534b7adcd5477454a9b5be0d995a93518cde67560403393a35b5f828152600d6020908152604080832033808552908352818420859055858452600e83528184208185528352928190204290555192835290917fc5009e6865ae04f58da43f80d7eb9718a2f25a7ccfeb22a8ca0031e77b86b50a9190a360018055005b815f52601360205260405f2080546801000000000000000081101561058357610b3991600182018155612f56565b81546001600160a01b0360039290921b91821b1916339182901b179091555f838152601460209081526040808320938352928152828220805460ff1916600117905584825260189052208054610b8e906131df565b905581337fb5d93c368c4bd18876654db9fd5dcef5a3583ccde4d81659e7f309f36c8449055f80a3610a73565b6040514281525f6020820152837f6dbad7911810fc45c016aff41534b7adcd5477454a9b5be0d995a93518cde67560403393a315610aa857335f52600b60205260405f205415610c9857335f52600b60205260405f2080548015610c84575f190190555f828152600d6020908152604080832033808552908352818420849055858452600e83528184208185528352818420849055858452600f83528184208185528352818420849055858452601083528184209084529091529020805460ff19169055610aa8565b634e487b7160e01b5f52601160045260245ffd5b60405162461bcd60e51b815260206004820152603460248201527f5661756c7469733a204e6f207265747269657320617661696c61626c6520746f6044820152731039bab136b4ba1030903732bb9033bab2b9b99760611b6064820152608490fd5b60405162461bcd60e51b815260206004820152603460248201527f5661756c7469733a20506c6179657220686173206e6f7420706172746963697060448201527330ba32b21034b7103a3434b9903934b23236329760611b6064820152608490fd5b60405162461bcd60e51b815260206004820152601960248201527f477565737320686173682063616e6e6f74206265207a65726f000000000000006044820152606490fd5b346102de5760203660031901126102de5760043567ffffffffffffffff81116102de57366023820112156102de57806004013567ffffffffffffffff81116102de5736602482840101116102de57610df761325c565b60035491610e06831515613123565b5f838152600960209081526040808320338452909152902054610e2b9060ff1661308e565b5f838152600a6020908152604080832033845290915290205460ff16611073575f83815260106020908152604080832033845290915290205460ff161561102f575f83815260146020908152604080832033845290915290205460ff1615610fd357825f52600f60205260405f2060018060a01b0333165f5260205260405f205491610ed7602060405183819460248484019701873781015f838201520301601f198101835282612f7f565b51902003610f78575f52600a60205260405f2060018060a01b0333165f5260205260405f20600160ff198254161790556003545f526007602052610f3760405f20600181549101549060ff60018060a01b038360081c16921690336132df565b600380545f908152600f6020908152604080832033808552908352818420849055935483526010825280832093835292905220805460ff1916905560018055005b60405162461bcd60e51b815260206004820152602d60248201527f52657665616c656420677565737320646f6573206e6f74206d6174636820707260448201526c37bb34b232b21030b739bbb2b960991b6064820152608490fd5b60405162461bcd60e51b815260206004820152602e60248201527f4e6f74206120726567697374657265642077696e6e657220666f72207468652060448201526d63757272656e7420726964646c6560901b6064820152608490fd5b606460405162461bcd60e51b815260206004820152602060248201527f4d7573742072657665616c206775657373206265666f726520736f6c76696e676044820152fd5b60405162461bcd60e51b815260206004820152600f60248201526e105b1c9958591e4818db185a5b5959608a1b6044820152606490fd5b346102de5760203660031901126102de576001600160a01b036110cb612fd3565b165f52600b602052602060405f2054604051908152f35b346102de5760203660031901126102de576004355f526015602052602060405f2054604051908152f35b5f3660031901126102de5761111f61325c565b341561117057335f52600260205260405f2061113c3482546130da565b90556040513481527fe1fffcc4923d04b559f4d29a8bfc6cda04eb5b0d3c460751c2402c5c5cc9109c60203392a260018055005b60405162461bcd60e51b815260206004820152602860248201527f4465706f73697420616d6f756e74206d7573742062652067726561746572207460448201526768616e207a65726f60c01b6064820152608490fd5b346102de5760403660031901126102de5760043560243567ffffffffffffffff81116102de57366023820112156102de5780600401359067ffffffffffffffff8211610583578160051b90604051926112226020840185612f7f565b835260246020840192820101903682116102de57602401915b8183106119d35750505061124d61327c565b61125561325c565b8115611982576003548211611933578051156118ee57815f52601760205260ff60405f20541661189957815f52600760205260405f20915f925b82518410156113485760018401808511610c84575b835181101561133d576001600160a01b036112bf86866131ed565b51166001600160a01b036112d383876131ed565b5116146112e2576001016112a4565b60405162461bcd60e51b815260206004820152602d60248201527f4475706c69636174652077696e6e6572206164647265737320696e206261746360448201526c1a081b9bdd08185b1b1bddd959609a1b6064820152608490fd5b50926001019261128f565b82825f52601860205260405f2054928315611846578254848106949004801580159061183d575b156117e4575f915f935f5b81518110156114b7576001600160a01b0361139582846131ed565b5116835f52601460205260405f2060018060a01b0382165f5260205260ff60405f2054168061148e575b6113cd575b5060010161137a565b946113da909691966131df565b94849089151580611465575b80611446575b611405575b506113fe906001926130da565b95906113c4565b600186019150818611610c84575f8581526016602090815260408083206001600160a01b03909416835292905220805460ff191660011790556113fe6113f1565b50845f5260196020528961145e8860405f20546130da565b11156113ec565b50845f52601660205260405f2060018060a01b0382165f5260205260ff60405f205416156113e6565b50835f52600a60205260405f2060018060a01b0382165f5260205260ff60405f205416156113bf565b50929490941561178f5760010160ff815416600281101561056f578061171a575083600454106116b8575b5f92855f5b8251811015611631576001600160a01b0361150282856131ed565b5116825f52601460205260405f2060018060a01b0382165f5260205260ff60405f20541680611608575b61153a575b506001016114e7565b825f97929752600a60205260405f2060018060a01b0382165f5260205260405f20600160ff19825416179055825f52601960205260405f2061157c81546131df565b90558590835f52601660205260405f2060018060a01b0382165f5260205260ff60405f2054166115ef575b916115e36115e892600194865f52601560205260405f206115c98382546130da565b905588549160ff878060a01b038460081c169316916132df565b6131df565b9590611531565b919250506001850190818611610c8457889291906115a7565b50825f52600a60205260405f2060018060a01b0382165f5260205260ff60405f2054161561152c565b507f71bff4125b8839ee2141d2a57795388253eea7ed158075d305576a2fb63647e261166d829388604051928392604084526040840190612f1a565b9060208301520390a2805f52601960205260405f2054815f52601860205260405f20541461169c575b60018055005b5f52601760205260405f20600160ff1982541617905580611696565b60405162461bcd60e51b815260206004820152603460248201527f496e73756666696369656e7420455448207072697a6520706f6f6c2062616c616044820152730dcc6ca40ccdee440e0c2f2deeae840c4c2e8c6d60631b6064820152608490fd5b6001036114e2578360055410156114e25760405162461bcd60e51b815260206004820152603660248201527f496e73756666696369656e74204552433230207072697a6520706f6f6c2062616044820152750d8c2dcc6ca40ccdee440e0c2f2deeae840c4c2e8c6d60531b6064820152608490fd5b60405162461bcd60e51b815260206004820152602760248201527f4e6f206e65772077696e6e65727320696e207468697320626174636820746f206044820152661c185e481bdd5d60ca1b6064820152608490fd5b60405162461bcd60e51b815260206004820152602b60248201527f5065722d77696e6e657220616d6f756e74206d7573742062652067726561746560448201526a72207468616e207a65726f60a81b6064820152608490fd5b5084151561136f565b60405162461bcd60e51b815260206004820152602560248201527f4e6f2077696e6e657273207265676973746572656420666f72207468697320726044820152646964646c6560d81b6064820152608490fd5b60405162461bcd60e51b815260206004820152602760248201527f5061796f757420616c726561647920657865637574656420666f72207468697360448201526620726964646c6560c81b6064820152608490fd5b60405162461bcd60e51b815260206004820152601d60248201527f57696e6e6572732061727261792063616e6e6f7420626520656d7074790000006044820152606490fd5b60405162461bcd60e51b815260206004820152602160248201527f526964646c65204944206d7573742062652063757272656e74206f72207061736044820152601d60fa1b6064820152608490fd5b60405162461bcd60e51b815260206004820152602360248201527f526964646c65204944206d7573742062652067726561746572207468616e207a60448201526265726f60e81b6064820152608490fd5b82356001600160a01b03811681036102de5781526020928301920161123b565b346102de575f3660031901126102de576003545f526007602052602060018060a01b03600160405f20015460081c16604051908152f35b346102de575f3660031901126102de576020600554604051908152f35b346102de5760403660031901126102de57611a60612fbd565b6004355f52600e60205260405f209060018060a01b03165f52602052602060405f2054604051908152f35b346102de5760403660031901126102de57611aa4612fbd565b6004355f52601460205260405f209060018060a01b03165f52602052602060ff60405f2054166040519015158152f35b346102de5760403660031901126102de57611aed612fbd565b6004355f52600d60205260405f209060018060a01b03165f52602052602060405f2054604051908152f35b346102de5760203660031901126102de576004355f526007602052606060405f2060018154910154604051918252611b566020830160ff8316612fe9565b60081c6001600160a01b03166040820152f35b346102de5760203660031901126102de57611b8261327c565b600435601155005b346102de5760403660031901126102de57611ba3612fbd565b6004355f52600960205260405f209060018060a01b03165f52602052602060ff60405f2054166040519015158152f35b346102de575f3660031901126102de576020600454604051908152f35b346102de5760403660031901126102de57611c09612fbd565b6004355f52601660205260405f209060018060a01b03165f52602052602060ff60405f2054166040519015158152f35b346102de575f3660031901126102de575f546040516001600160a01b039091168152602090f35b346102de5760403660031901126102de57611c79612fbd565b6004355f52600a60205260405f209060018060a01b03165f52602052602060ff60405f2054166040519015158152f35b346102de575f3660031901126102de576006546040516001600160a01b039091168152602090f35b346102de5760203660031901126102de57600435611ced61325c565b611cfa6003548214613042565b5f81815260096020908152604080832033845290915290205460ff1615611fef576008546001600160a01b031615611fb457335f52600b602052600360405f20541015611f7957335f52600c6020528060405f205403611f58575b6008546040516370a0823160e01b8152306004820152906001600160a01b0316602082602481845afa918215611f17575f92611f22575b50611dd090604051906323b872dd60e01b602083015233602483015230604483015267016345785d8a0000606483015260648252611dcb608483612f7f565b613594565b6008546040516370a0823160e01b815230600482015290602090829060249082906001600160a01b03165afa908115611f17575f91611edd575b5067016345785d8a000091611e1e916130e7565b03611e8857335f52600b60205260405f20611e3981546131df565b9055335f52600b60205260405f20546040519067016345785d8a0000825260208201527f98afd9c8b4874dc0b797b810a6a8488429aea97e225fc6e70d948f77660fbee760403392a360018055005b60405162461bcd60e51b815260206004820152602760248201527f526574727920636f7374206d69736d617463682028464f54206e6f7420737570604482015266706f727465642960c81b6064820152608490fd5b90506020813d602011611f0f575b81611ef860209383612f7f565b810103126102de575167016345785d8a0000611e0a565b3d9150611eeb565b6040513d5f823e3d90fd5b9091506020813d602011611f50575b81611f3e60209383612f7f565b810103126102de575190611dd0611d8c565b3d9150611f31565b335f52600b6020525f6040812055335f52600c6020528060405f2055611d55565b60405162461bcd60e51b815260206004820152601360248201527213585e081c995d1c9a595cc81c995858da1959606a1b6044820152606490fd5b60405162461bcd60e51b815260206004820152601360248201527214995d1c9e481d1bdad95b881b9bdd081cd95d606a1b6044820152606490fd5b60405162461bcd60e51b8152602060048201526024808201527f4d75737420706172746963697061746520696e2074686520726964646c6520666044820152631a5c9cdd60e21b6064820152608490fd5b346102de575f3660031901126102de5761205861327c565b5f80546001600160a01b0319811682556001600160a01b03167f8be0079c531659141344cd1fd0a4f28419497f9722a3daafe3b4186f6b6457e08280a3005b346102de5760203660031901126102de576120b0612fd3565b6003545f52600960205260405f209060018060a01b03165f52602052602060ff60405f2054166040519015158152f35b346102de5760203660031901126102de576004356120fc61327c565b61210461325c565b80156121db5760055481811061219657816121897f560c2b6d9212838c63f631c64ebc9d7364da90f9af3fdec847c0725dd18330c8936020936003545f526007855261216e82600160405f20019261216960018060a01b03855460081c161515613162565b6130e7565b600555545f546001600160a01b039081169160081c166132a2565b604051908152a160018055005b60405162461bcd60e51b815260206004820152601d60248201527f496e73756666696369656e7420746f6b656e207072697a6520706f6f6c0000006044820152606490fd5b60405162461bcd60e51b815260206004820152603760248201527f4f776e657220746f6b656e207769746864726177616c20616d6f756e74206d7560448201527f73742062652067726561746572207468616e207a65726f0000000000000000006064820152608490fd5b346102de575f3660031901126102de57602060405167016345785d8a00008152f35b346102de5760203660031901126102de576004355f526017602052602060ff60405f2054166040519015158152f35b346102de575f3660031901126102de5760206122b16131a4565b604051908152f35b346102de575f3660031901126102de576020601154604051908152f35b346102de5760203660031901126102de576004356122f261327c565b6122fa61325c565b801561240a576003545f526007602052600160405f20015460ff8116600281101561056f576001036123bb576123739060081c6001600160a01b0316612341811515613162565b6040516323b872dd60e01b60208201523360248201523060448201526064808201859052815290611dcb608483612f7f565b61237f816005546130da565b600555604051908152600160208201527f4708e702157b1eb6cd00a772e6a623599ac7dc0bad76e8c624fdef050b434f0960403392a260018055005b60405162461bcd60e51b815260206004820152602160248201527f43757272656e7420726964646c65207072697a65206973206e6f7420455243326044820152600360fc1b6064820152608490fd5b606460405162461bcd60e51b815260206004820152602060248201527f416d6f756e74206d7573742062652067726561746572207468616e207a65726f6044820152fd5b346102de575f3660031901126102de57602060405160038152f35b346102de5760203660031901126102de5760043561248561325c565b5f81815260096020908152604080832033845290915290205460ff16612730576124bd6003546124b6818414613042565b1515613123565b335f52600c6020528060405f20540361270f575b6006546001600160a01b031680156126ca576040516370a0823160e01b8152306004820152602081602481855afa908115611f17575f91612698575b506125506040516323b872dd60e01b6020820152336024820152306044820152670de0b6b3a764000060648201526064815261254a608482612f7f565b83613594565b6040516370a0823160e01b815230600482015290602082602481865afa8015611f17575f90612664575b61258492506130e7565b90670de0b6b3a764000082036126105782916040519081527f1f8e0e31739d887c754fcf7403fe1bdf6641ef33578b9d08631a7d5e6e9b8fb760203392a45f8181526009602090815260408083203380855292528220805460ff19166001179055907fc16481c9484122696a660b57df0bf6839645c6b620cb1704ac2437de13be92259080a360018055005b60405162461bcd60e51b815260206004820152602660248201527f456e74727920666565206d69736d617463682028464f54206e6f7420737570706044820152656f727465642960d01b6064820152608490fd5b506020823d602011612690575b8161267e60209383612f7f565b810103126102de57612584915161257a565b3d9150612671565b90506020813d6020116126c2575b816126b360209383612f7f565b810103126102de57518361250d565b3d91506126a6565b60405162461bcd60e51b815260206004820152601760248201527f456e7472792066656520746f6b656e206e6f74207365740000000000000000006044820152606490fd5b335f52600b6020525f6040812055335f52600c6020528060405f20556124d1565b60405162461bcd60e51b815260206004820152602360248201527f416c72656164792070617274696369706174656420696e207468697320726964604482015262646c6560e81b6064820152608490fd5b346102de5760203660031901126102de5760043561279d61327c565b6127a561325c565b80156128ac5760045481811061286757816127bf916130e7565b6004555f8080808460018060a01b0382541662030d40f16127de6130f4565b5015612822575f546040519182526001600160a01b0316907fa919fadcfa556a012bab31b15f596ea7ccd397adbf10e15f176db9055ab361c490602090a260018055005b60405162461bcd60e51b815260206004820152601760248201527f4f776e6572207769746864726177616c206661696c65640000000000000000006044820152606490fd5b60405162461bcd60e51b815260206004820152601b60248201527f496e73756666696369656e7420455448207072697a6520706f6f6c00000000006044820152606490fd5b60405162461bcd60e51b815260206004820152603160248201527f4f776e6572207769746864726177616c20616d6f756e74206d7573742062652060448201527067726561746572207468616e207a65726f60781b6064820152608490fd5b346102de5760203660031901126102de5760043561292761325c565b8015612a1657335f5260026020528060405f2054106129da57335f52600260205260405f206129578282546130e7565b90555f80808084335af16129696130f4565b50156129a1576040519081527f7fcf532c15f0a6db0bd6d0e038bea71d30d808c7d98cb3bf7268a95bf5081b6560203392a260018055005b60405162461bcd60e51b815260206004820152601160248201527015da5d1a191c985dd85b0819985a5b1959607a1b6044820152606490fd5b60405162461bcd60e51b8152602060048201526014602482015273496e73756666696369656e742062616c616e636560601b6044820152606490fd5b60405162461bcd60e51b815260206004820152602b60248201527f5769746864726177616c20616d6f756e74206d7573742062652067726561746560448201526a72207468616e207a65726f60a81b6064820152608490fd5b346102de5760203660031901126102de576001600160a01b03612a90612fd3565b165f526002602052602060405f2054604051908152f35b346102de575f3660031901126102de576008546040516001600160a01b039091168152602090f35b346102de5760403660031901126102de57612ae8612fbd565b6004355f52600f60205260405f209060018060a01b03165f52602052602060405f2054604051908152f35b346102de5760403660031901126102de57612b2c612fbd565b6004355f52601060205260405f209060018060a01b03165f52602052602060ff60405f2054166040519015158152f35b346102de5760403660031901126102de5760043560243567ffffffffffffffff81116102de57366023820112156102de57806004013590612b9c82612fa1565b91612baa6040519384612f7f565b808352602083019136602483830101116102de57815f92602460209301853784010152612bd561325c565b612be0831515612ff6565b612bed6003548414613042565b5f838152600960209081526040808320338452909152902054612c129060ff1661308e565b5f838152600d6020908152604080832033845290915290205415612e10575f83815260106020908152604080832033845290915290205460ff16612dd8575f838152600e60209081526040808320338452909152902054601154612c75916130da565b4210612da057612ca46020604051809382820195518091875e81015f838201520301601f198101835282612f7f565b5190205f828152600d602090815260408083203384529091529020548103612d5b575f828152600f6020908152604080832033808552908352818420859055858452601083528184208185528352818420805460ff19166001179055858452600d83528184208185528352818420849055858452600e83528184208185528352818420939093555192835290917f59d3b853b3060eb254d2f04ecf2d2fba8ec34ae94835cd01eedead529314f5249190a360018055005b60405162461bcd60e51b815260206004820152601c60248201527f52657665616c20646f6573206e6f74206d6174636820636f6d6d6974000000006044820152606490fd5b60405162461bcd60e51b815260206004820152601060248201526f52657665616c20746f6f206561726c7960801b6044820152606490fd5b60405162461bcd60e51b815260206004820152601060248201526f105b1c9958591e481c995d99585b195960821b6044820152606490fd5b60405162461bcd60e51b81526020600482015260126024820152714e6f20636f6d6d697474656420677565737360701b6044820152606490fd5b346102de5760403660031901126102de576024356004355f52601360205260405f2080548210156102de57602091612e8191612f56565b905460405160039290921b1c6001600160a01b03168152f35b346102de5760203660031901126102de576004355f52601360205260405f20805480835260208301915f5260205f20905f5b818110612efb57612ef785612ee381870382612f7f565b604051918291602083526020830190612f1a565b0390f35b82546001600160a01b0316845260209093019260019283019201612ecc565b90602080835192838152019201905f5b818110612f375750505090565b82516001600160a01b0316845260209384019390920191600101612f2a565b8054821015612f6b575f5260205f2001905f90565b634e487b7160e01b5f52603260045260245ffd5b90601f8019910116810190811067ffffffffffffffff82111761058357604052565b67ffffffffffffffff811161058357601f01601f191660200190565b602435906001600160a01b03821682036102de57565b600435906001600160a01b03821682036102de57565b90600282101561056f5752565b15612ffd57565b60405162461bcd60e51b815260206004820152601860248201527f526964646c652049442063616e6e6f74206265207a65726f00000000000000006044820152606490fd5b1561304957565b60405162461bcd60e51b815260206004820152601860248201527f4e6f74207468652061637469766520726964646c6520494400000000000000006044820152606490fd5b1561309557565b60405162461bcd60e51b815260206004820152601960248201527f4d75737420656e746572207468652067616d65206669727374000000000000006044820152606490fd5b91908201809211610c8457565b91908203918211610c8457565b3d1561311e573d9061310582612fa1565b916131136040519384612f7f565b82523d5f602084013e565b606090565b1561312a57565b60405162461bcd60e51b815260206004820152601060248201526f4e6f2061637469766520726964646c6560801b6044820152606490fd5b1561316957565b60405162461bcd60e51b8152602060048201526013602482015272141c9a5e99481d1bdad95b881b9bdd081cd95d606a1b6044820152606490fd5b6003545f52600760205260ff600160405f20015416600281101561056f57806131ce575060045490565b6001146131d9575f90565b60055490565b5f198114610c845760010190565b8051821015612f6b5760209160051b010190565b1561320857565b60405162461bcd60e51b815260206004820152602660248201527f5072697a6520616d6f756e74206d7573742062652067726561746572207468616044820152656e207a65726f60d01b6064820152608490fd5b60026001541461326d576002600155565b633ee5aeb560e01b5f5260045ffd5b5f546001600160a01b0316330361328f57565b63118cdaa760e01b5f523360045260245ffd5b60405163a9059cbb60e01b60208201526001600160a01b0390921660248301526044808301939093529181526132dd91611dcb606483612f7f565b565b6001600160a01b03811693919291841561354f576132fe841515613201565b600283101561056f5782613459575060045490838210613408578347106133b9575f80858194936133308284966130e7565b6004555af161333d6130f4565b501561337e577fff43c2705b2225c1c9d9d58f088ab64d4fc767737dee523bed37f15fb0c6c3de9161337b6040925b83519283526020830190612fe9565ba2565b60405162461bcd60e51b8152602060048201526013602482015272115512081d1c985b9cd9995c8819985a5b1959606a1b6044820152606490fd5b60405162461bcd60e51b815260206004820152602160248201527f496e73756666696369656e7420636f6e7472616374204554482062616c616e636044820152606560f81b6064820152608490fd5b60405162461bcd60e51b815260206004820152602360248201527f496e73756666696369656e7420455448207072697a6520706f6f6c2062616c616044820152626e636560e81b6064820152608490fd5b9060018314613492575b50507fff43c2705b2225c1c9d9d58f088ab64d4fc767737dee523bed37f15fb0c6c3de9161337b60409261336c565b9092906134a96001600160a01b0385161515613162565b600554928284106134fc576134f28361337b937fff43c2705b2225c1c9d9d58f088ab64d4fc767737dee523bed37f15fb0c6c3de976134ea836040996130e7565b6005556132a2565b9250819350613463565b60405162461bcd60e51b815260206004820152602560248201527f496e73756666696369656e74204552433230207072697a6520706f6f6c2062616044820152646c616e636560d81b6064820152608490fd5b60405162461bcd60e51b815260206004820152601d60248201527f57696e6e657220616464726573732063616e6e6f74206265207a65726f0000006044820152606490fd5b905f602091828151910182855af115611f17575f513d6135e357506001600160a01b0381163b155b6135c35750565b635274afe760e01b5f9081526001600160a01b0391909116600452602490fd5b600114156135bc56fea26469706673582212208086e42ffd5a13e887a75b7e8815be220184c98add5fc7035939fc8447bbc54564736f6c634300081e0033","linkReferences":{}},"methodIdentifiers":{"ENTRY_FEE()":"f6d361cc","MAX_RETRIES()":"46ebbdb0","RETRY_COST()":"57aa0ea2","balances(address)":"27e235e3","committedAt(uint256,address)":"c06a5fc5","committedGuesses(uint256,address)":"b7173e77","currentRiddleId()":"ecdc6c23","deposit()":"d0e30db0","enterGame(uint256)":"43d6582b","entryFeeToken()":"7b149763","ethPrizePool()":"95664a3d","fundTokenPrizePool(uint256)":"48b06e87","getCurrentPrizePool()":"55e93ede","getPrizeToken()":"c7cd6959","getRetryCount(address)":"98e18549","getWinnerList(uint256)":"0b0705c8","hasClaimed(uint256,address)":"873f6f9e","hasParticipated(uint256,address)":"a34398a2","hasPlayerEntered(address)":"680719bb","hasReceivedRemainder(uint256,address)":"94c9d9bc","hasRevealed(uint256,address)":"16b5551d","isPaidOut(uint256)":"569eaf61","isWinner(uint256,address)":"bdd415af","owner()":"8da5cb5b","ownerWithdraw(uint256)":"33f707d1","ownerWithdrawTokens(uint256)":"60972120","paidWinnersCount(uint256)":"f7c7e144","payout(uint256,address[])":"c8e728f9","purchaseRetry(uint256)":"7a11e941","renounceOwnership()":"715018a6","retries(address)":"dbbd3245","retryToken()":"219fc385","revealDelay()":"53236d74","revealGuess(uint256,string)":"12b5afc1","revealedGuessHash(uint256,address)":"188240cd","riddleConfigs(uint256)":"a6dbce24","setRevealDelay(uint256)":"a68c25d8","setRiddle(uint256,bytes32,uint8,address,uint256,address)":"f9f82e9c","solveRiddleAndClaim(string)":"dc663b53","submitGuess(uint256,bytes32)":"e4d33ee3","tokenPrizePool()":"c310e242","totalPrizeDistributed(uint256)":"d56c52ed","totalWinnersCount(uint256)":"fab16017","transferOwnership(address)":"f2fde38b","winners(uint256,uint256)":"0efc8865","withdraw(uint256)":"2e1a7d4d"},"id":5}