{"abi":[{"type":"constructor","inputs":[{"name":"initialOwner","type":"address","internalType":"address"}],"stateMutability":"nonpayable"},{"type":"receive","stateMutability":"payable"},{"type":"function","name":"balances","inputs":[{"name":"","type":"address","internalType":"address"}],"outputs":[{"name":"","type":"uint256","internalType":"uint256"}],"stateMutability":"view"},{"type":"function","name":"currentRiddleId","inputs":[],"outputs":[{"name":"","type":"uint256","internalType":"uint256"}],"stateMutability":"view"},{"type":"function","name":"deposit","inputs":[],"outputs":[],"stateMutability":"payable"},{"type":"function","name":"ethPrizePool","inputs":[],"outputs":[{"name":"","type":"uint256","internalType":"uint256"}],"stateMutability":"view"},{"type":"function","name":"fundTokenPrizePool","inputs":[{"name":"_amount","type":"uint256","internalType":"uint256"}],"outputs":[],"stateMutability":"nonpayable"},{"type":"function","name":"getAnswerHash","inputs":[],"outputs":[{"name":"","type":"bytes32","internalType":"bytes32"}],"stateMutability":"view"},{"type":"function","name":"getPrizeToken","inputs":[],"outputs":[{"name":"","type":"address","internalType":"address"}],"stateMutability":"view"},{"type":"function","name":"hasParticipated","inputs":[{"name":"","type":"uint256","internalType":"uint256"},{"name":"","type":"address","internalType":"address"}],"outputs":[{"name":"","type":"bool","internalType":"bool"}],"stateMutability":"view"},{"type":"function","name":"owner","inputs":[],"outputs":[{"name":"","type":"address","internalType":"address"}],"stateMutability":"view"},{"type":"function","name":"ownerWithdraw","inputs":[{"name":"_amount","type":"uint256","internalType":"uint256"}],"outputs":[],"stateMutability":"nonpayable"},{"type":"function","name":"prizeAmount","inputs":[],"outputs":[{"name":"","type":"uint256","internalType":"uint256"}],"stateMutability":"view"},{"type":"function","name":"prizeToken","inputs":[],"outputs":[{"name":"","type":"address","internalType":"contract IERC20"}],"stateMutability":"view"},{"type":"function","name":"prizeType","inputs":[],"outputs":[{"name":"","type":"uint8","internalType":"enum Vaultis.PrizeType"}],"stateMutability":"view"},{"type":"function","name":"renounceOwnership","inputs":[],"outputs":[],"stateMutability":"nonpayable"},{"type":"function","name":"setRiddle","inputs":[{"name":"_riddleId","type":"uint256","internalType":"uint256"},{"name":"_answerHash","type":"bytes32","internalType":"bytes32"},{"name":"_prizeType","type":"uint8","internalType":"enum Vaultis.PrizeType"},{"name":"_prizeTokenAddress","type":"address","internalType":"address"},{"name":"_prizeAmount","type":"uint256","internalType":"uint256"}],"outputs":[],"stateMutability":"nonpayable"},{"type":"function","name":"solveRiddleAndClaim","inputs":[{"name":"_answer","type":"string","internalType":"string"}],"outputs":[],"stateMutability":"nonpayable"},{"type":"function","name":"tokenPrizePool","inputs":[],"outputs":[{"name":"","type":"uint256","internalType":"uint256"}],"stateMutability":"view"},{"type":"function","name":"transferOwnership","inputs":[{"name":"newOwner","type":"address","internalType":"address"}],"outputs":[],"stateMutability":"nonpayable"},{"type":"function","name":"withdraw","inputs":[{"name":"_amount","type":"uint256","internalType":"uint256"}],"outputs":[],"stateMutability":"nonpayable"},{"type":"event","name":"Deposit","inputs":[{"name":"user","type":"address","indexed":true,"internalType":"address"},{"name":"amount","type":"uint256","indexed":false,"internalType":"uint256"}],"anonymous":false},{"type":"event","name":"EthReceived","inputs":[{"name":"sender","type":"address","indexed":true,"internalType":"address"},{"name":"amount","type":"uint256","indexed":false,"internalType":"uint256"}],"anonymous":false},{"type":"event","name":"OwnerWithdrawal","inputs":[{"name":"owner","type":"address","indexed":true,"internalType":"address"},{"name":"amount","type":"uint256","indexed":false,"internalType":"uint256"}],"anonymous":false},{"type":"event","name":"OwnershipTransferred","inputs":[{"name":"previousOwner","type":"address","indexed":true,"internalType":"address"},{"name":"newOwner","type":"address","indexed":true,"internalType":"address"}],"anonymous":false},{"type":"event","name":"PrizeDistributed","inputs":[{"name":"winner","type":"address","indexed":true,"internalType":"address"},{"name":"amount","type":"uint256","indexed":false,"internalType":"uint256"},{"name":"prizeType","type":"uint8","indexed":false,"internalType":"enum Vaultis.PrizeType"}],"anonymous":false},{"type":"event","name":"PrizeFunded","inputs":[{"name":"funder","type":"address","indexed":true,"internalType":"address"},{"name":"amount","type":"uint256","indexed":false,"internalType":"uint256"},{"name":"prizeType","type":"uint8","indexed":false,"internalType":"enum Vaultis.PrizeType"}],"anonymous":false},{"type":"event","name":"RiddleSet","inputs":[{"name":"riddleId","type":"uint256","indexed":true,"internalType":"uint256"},{"name":"answerHash","type":"bytes32","indexed":false,"internalType":"bytes32"},{"name":"prizeType","type":"uint8","indexed":false,"internalType":"enum Vaultis.PrizeType"},{"name":"prizeTokenAddress","type":"address","indexed":false,"internalType":"address"},{"name":"prizeAmount","type":"uint256","indexed":false,"internalType":"uint256"}],"anonymous":false},{"type":"event","name":"Withdrawal","inputs":[{"name":"user","type":"address","indexed":true,"internalType":"address"},{"name":"amount","type":"uint256","indexed":false,"internalType":"uint256"}],"anonymous":false},{"type":"error","name":"OwnableInvalidOwner","inputs":[{"name":"owner","type":"address","internalType":"address"}]},{"type":"error","name":"OwnableUnauthorizedAccount","inputs":[{"name":"account","type":"address","internalType":"address"}]},{"type":"error","name":"ReentrancyGuardReentrantCall","inputs":[]},{"type":"error","name":"SafeERC20FailedOperation","inputs":[{"name":"token","type":"address","internalType":"address"}]}],"bytecode":{"object":"0x608060405234801561000f575f5ffd5b506040516130d83803806130d8833981810160405281019061003191906101de565b805f73ffffffffffffffffffffffffffffffffffffffff168173ffffffffffffffffffffffffffffffffffffffff16036100a2575f6040517f1e4fbdf70000000000000000000000000000000000000000000000000000000081526004016100999190610218565b60405180910390fd5b6100b1816100bf60201b60201c565b506001808190555050610231565b5f5f5f9054906101000a900473ffffffffffffffffffffffffffffffffffffffff169050815f5f6101000a81548173ffffffffffffffffffffffffffffffffffffffff021916908373ffffffffffffffffffffffffffffffffffffffff1602179055508173ffffffffffffffffffffffffffffffffffffffff168173ffffffffffffffffffffffffffffffffffffffff167f8be0079c531659141344cd1fd0a4f28419497f9722a3daafe3b4186f6b6457e060405160405180910390a35050565b5f5ffd5b5f73ffffffffffffffffffffffffffffffffffffffff82169050919050565b5f6101ad82610184565b9050919050565b6101bd816101a3565b81146101c7575f5ffd5b50565b5f815190506101d8816101b4565b92915050565b5f602082840312156101f3576101f2610180565b5b5f610200848285016101ca565b91505092915050565b610212816101a3565b82525050565b5f60208201905061022b5f830184610209565b92915050565b612e9a8061023e5f395ff3fe608060405260043610610117575f3560e01c8063a34398a21161009f578063dc663b5311610063578063dc663b5314610400578063ec8a7ee714610428578063ecdc6c2314610450578063f2fde38b1461047a578063fcdf8e89146104a2576101c6565b8063a34398a21461033c578063c310e24214610378578063c7cd6959146103a2578063d0e30db0146103cc578063d0ef024a146103d6576101c6565b8063715018a6116100e6578063715018a61461027e578063785fa627146102945780638da5cb5b146102be57806395664a3d146102e85780639acc80a214610312576101c6565b806327e235e3146101ca5780632e1a7d4d1461020657806333f707d11461022e57806348b06e8714610256576101c6565b366101c6575f341161015e576040517f08c379a000000000000000000000000000000000000000000000000000000000815260040161015590611bb6565b60405180910390fd5b3460045f82825461016f9190611c0a565b925050819055503373ffffffffffffffffffffffffffffffffffffffff167f85177f287940f2f05425a4029951af0e047a7f9c4eaa9a6e6917bcd869f86695346040516101bc9190611c4c565b60405180910390a2005b5f5ffd5b3480156101d5575f5ffd5b506101f060048036038101906101eb9190611cc7565b6104cc565b6040516101fd9190611c4c565b60405180910390f35b348015610211575f5ffd5b5061022c60048036038101906102279190611d1c565b6104e1565b005b348015610239575f5ffd5b50610254600480360381019061024f9190611d1c565b610700565b005b348015610261575f5ffd5b5061027c60048036038101906102779190611d1c565b6108ab565b005b348015610289575f5ffd5b50610292610ac2565b005b34801561029f575f5ffd5b506102a8610ad5565b6040516102b59190611c4c565b60405180910390f35b3480156102c9575f5ffd5b506102d2610adb565b6040516102df9190611d56565b60405180910390f35b3480156102f3575f5ffd5b506102fc610b02565b6040516103099190611c4c565b60405180910390f35b34801561031d575f5ffd5b50610326610b08565b6040516103339190611d87565b60405180910390f35b348015610347575f5ffd5b50610362600480360381019061035d9190611da0565b610b11565b60405161036f9190611df8565b60405180910390f35b348015610383575f5ffd5b5061038c610b3b565b6040516103999190611c4c565b60405180910390f35b3480156103ad575f5ffd5b506103b6610b41565b6040516103c39190611d56565b60405180910390f35b6103d4610b69565b005b3480156103e1575f5ffd5b506103ea610d5f565b6040516103f79190611e6c565b60405180910390f35b34801561040b575f5ffd5b5061042660048036038101906104219190611ee6565b610d84565b005b348015610433575f5ffd5b5061044e60048036038101906104499190611f7e565b610f55565b005b34801561045b575f5ffd5b50610464611344565b6040516104719190611c4c565b60405180910390f35b348015610485575f5ffd5b506104a0600480360381019061049b9190611cc7565b61134a565b005b3480156104ad575f5ffd5b506104b66113ce565b6040516104c39190612068565b60405180910390f35b6002602052805f5260405f205f915090505481565b6104e96113e0565b5f811161052b576040517f08c379a0000000000000000000000000000000000000000000000000000000008152600401610522906120f1565b60405180910390fd5b8060025f3373ffffffffffffffffffffffffffffffffffffffff1673ffffffffffffffffffffffffffffffffffffffff1681526020019081526020015f205410156105ab576040517f08c379a00000000000000000000000000000000000000000000000000000000081526004016105a290612159565b60405180910390fd5b8060025f3373ffffffffffffffffffffffffffffffffffffffff1673ffffffffffffffffffffffffffffffffffffffff1681526020019081526020015f205f8282546105f79190612177565b925050819055505f3373ffffffffffffffffffffffffffffffffffffffff1682604051610623906121d7565b5f6040518083038185875af1925050503d805f811461065d576040519150601f19603f3d011682016040523d82523d5f602084013e610662565b606091505b50509050806106a6576040517f08c379a000000000000000000000000000000000000000000000000000000000815260040161069d90612235565b60405180910390fd5b3373ffffffffffffffffffffffffffffffffffffffff167f7fcf532c15f0a6db0bd6d0e038bea71d30d808c7d98cb3bf7268a95bf5081b65836040516106ec9190611c4c565b60405180910390a2506106fd611426565b50565b61070861142f565b6107106113e0565b5f8111610752576040517f08c379a0000000000000000000000000000000000000000000000000000000008152600401610749906122c3565b60405180910390fd5b80471015610795576040517f08c379a000000000000000000000000000000000000000000000000000000000815260040161078c9061232b565b60405180910390fd5b5f61079e610adb565b73ffffffffffffffffffffffffffffffffffffffff168262030d40906040516107c6906121d7565b5f60405180830381858888f193505050503d805f8114610801576040519150601f19603f3d011682016040523d82523d5f602084013e610806565b606091505b505090508061084a576040517f08c379a000000000000000000000000000000000000000000000000000000000815260040161084190612393565b60405180910390fd5b610852610adb565b73ffffffffffffffffffffffffffffffffffffffff167fa919fadcfa556a012bab31b15f596ea7ccd397adbf10e15f176db9055ab361c4836040516108979190611c4c565b60405180910390a2506108a8611426565b50565b6108b361142f565b6108bb6113e0565b5f81116108fd576040517f08c379a00000000000000000000000000000000000000000000000000000000081526004016108f4906123fb565b60405180910390fd5b6001808111156109105761090f611ff5565b5b60085f9054906101000a900460ff16600181111561093157610930611ff5565b5b14610971576040517f08c379a000000000000000000000000000000000000000000000000000000000815260040161096890612489565b60405180910390fd5b5f73ffffffffffffffffffffffffffffffffffffffff1660055f9054906101000a900473ffffffffffffffffffffffffffffffffffffffff1673ffffffffffffffffffffffffffffffffffffffff1603610a00576040517f08c379a00000000000000000000000000000000000000000000000000000000081526004016109f7906124f1565b60405180910390fd5b610a4e33308360055f9054906101000a900473ffffffffffffffffffffffffffffffffffffffff1673ffffffffffffffffffffffffffffffffffffffff166114b6909392919063ffffffff16565b8060065f828254610a5f9190611c0a565b925050819055503373ffffffffffffffffffffffffffffffffffffffff167f4708e702157b1eb6cd00a772e6a623599ac7dc0bad76e8c624fdef050b434f09826001604051610aaf92919061250f565b60405180910390a2610abf611426565b50565b610aca61142f565b610ad35f611538565b565b60075481565b5f5f5f9054906101000a900473ffffffffffffffffffffffffffffffffffffffff16905090565b60045481565b5f600a54905090565b6009602052815f5260405f20602052805f5260405f205f915091509054906101000a900460ff1681565b60065481565b5f60055f9054906101000a900473ffffffffffffffffffffffffffffffffffffffff16905090565b610b716113e0565b5f3411610bb3576040517f08c379a0000000000000000000000000000000000000000000000000000000008152600401610baa906125a6565b60405180910390fd5b60095f60035481526020019081526020015f205f3373ffffffffffffffffffffffffffffffffffffffff1673ffffffffffffffffffffffffffffffffffffffff1681526020019081526020015f205f9054906101000a900460ff1615610c4e576040517f08c379a0000000000000000000000000000000000000000000000000000000008152600401610c4590612634565b60405180910390fd5b3460025f3373ffffffffffffffffffffffffffffffffffffffff1673ffffffffffffffffffffffffffffffffffffffff1681526020019081526020015f205f828254610c9a9190611c0a565b92505081905550600160095f60035481526020019081526020015f205f3373ffffffffffffffffffffffffffffffffffffffff1673ffffffffffffffffffffffffffffffffffffffff1681526020019081526020015f205f6101000a81548160ff0219169083151502179055503373ffffffffffffffffffffffffffffffffffffffff167fe1fffcc4923d04b559f4d29a8bfc6cda04eb5b0d3c460751c2402c5c5cc9109c34604051610d4d9190611c4c565b60405180910390a2610d5d611426565b565b60055f9054906101000a900473ffffffffffffffffffffffffffffffffffffffff1681565b610d8c6113e0565b5f60035411610dd0576040517f08c379a0000000000000000000000000000000000000000000000000000000008152600401610dc79061269c565b60405180910390fd5b60095f60035481526020019081526020015f205f3373ffffffffffffffffffffffffffffffffffffffff1673ffffffffffffffffffffffffffffffffffffffff1681526020019081526020015f205f9054906101000a900460ff1615610e6b576040517f08c379a0000000000000000000000000000000000000000000000000000000008152600401610e6290612634565b60405180910390fd5b600a548282604051602001610e819291906126f6565b6040516020818303038152906040528051906020012014610ed7576040517f08c379a0000000000000000000000000000000000000000000000000000000008152600401610ece90612758565b60405180910390fd5b600160095f60035481526020019081526020015f205f3373ffffffffffffffffffffffffffffffffffffffff1673ffffffffffffffffffffffffffffffffffffffff1681526020019081526020015f205f6101000a81548160ff021916908315150217905550610f49336007546115f9565b610f51611426565b5050565b610f5d61142f565b5f8511610f9f576040517f08c379a0000000000000000000000000000000000000000000000000000000008152600401610f96906127c0565b60405180910390fd5b6003548511610fe3576040517f08c379a0000000000000000000000000000000000000000000000000000000008152600401610fda9061284e565b60405180910390fd5b5f8111611025576040517f08c379a000000000000000000000000000000000000000000000000000000000815260040161101c906128dc565b60405180910390fd5b60018081111561103857611037611ff5565b5b83600181111561104b5761104a611ff5565b5b03611204575f73ffffffffffffffffffffffffffffffffffffffff168273ffffffffffffffffffffffffffffffffffffffff16036110be576040517f08c379a00000000000000000000000000000000000000000000000000000000081526004016110b59061296a565b60405180910390fd5b5f8273ffffffffffffffffffffffffffffffffffffffff163b11611117576040517f08c379a000000000000000000000000000000000000000000000000000000000815260040161110e906129d2565b60405180910390fd5b8173ffffffffffffffffffffffffffffffffffffffff166318160ddd6040518163ffffffff1660e01b8152600401602060405180830381865afa92505050801561117f57506040513d601f19601f8201168201806040525081019061117c9190612a04565b60015b6111be576040517f08c379a00000000000000000000000000000000000000000000000000000000081526004016111b590612a9f565b60405180910390fd5b508160055f6101000a81548173ffffffffffffffffffffffffffffffffffffffff021916908373ffffffffffffffffffffffffffffffffffffffff1602179055506112b3565b5f73ffffffffffffffffffffffffffffffffffffffff168273ffffffffffffffffffffffffffffffffffffffff1614611272576040517f08c379a000000000000000000000000000000000000000000000000000000000815260040161126990612b2d565b60405180910390fd5b5f60055f6101000a81548173ffffffffffffffffffffffffffffffffffffffff021916908373ffffffffffffffffffffffffffffffffffffffff1602179055505b8460038190555083600a819055508260085f6101000a81548160ff021916908360018111156112e5576112e4611ff5565b5b0217905550806007819055505f6004819055505f600681905550847f561736c7b0f78dbf7fff40b2f20427c4c56eb12ae7e94a8dac6a3a7925ae37fd858585856040516113359493929190612b4b565b60405180910390a25050505050565b60035481565b61135261142f565b5f73ffffffffffffffffffffffffffffffffffffffff168173ffffffffffffffffffffffffffffffffffffffff16036113c2575f6040517f1e4fbdf70000000000000000000000000000000000000000000000000000000081526004016113b99190611d56565b60405180910390fd5b6113cb81611538565b50565b60085f9054906101000a900460ff1681565b60026001540361141c576040517f3ee5aeb500000000000000000000000000000000000000000000000000000000815260040160405180910390fd5b6002600181905550565b60018081905550565b611437611a15565b73ffffffffffffffffffffffffffffffffffffffff16611455610adb565b73ffffffffffffffffffffffffffffffffffffffff16146114b457611478611a15565b6040517f118cdaa70000000000000000000000000000000000000000000000000000000081526004016114ab9190611d56565b60405180910390fd5b565b611532848573ffffffffffffffffffffffffffffffffffffffff166323b872dd8686866040516024016114eb93929190612b8e565b604051602081830303815290604052915060e01b6020820180517bffffffffffffffffffffffffffffffffffffffffffffffffffffffff8381831617835250505050611a1c565b50505050565b5f5f5f9054906101000a900473ffffffffffffffffffffffffffffffffffffffff169050815f5f6101000a81548173ffffffffffffffffffffffffffffffffffffffff021916908373ffffffffffffffffffffffffffffffffffffffff1602179055508173ffffffffffffffffffffffffffffffffffffffff168173ffffffffffffffffffffffffffffffffffffffff167f8be0079c531659141344cd1fd0a4f28419497f9722a3daafe3b4186f6b6457e060405160405180910390a35050565b6116016113e0565b5f73ffffffffffffffffffffffffffffffffffffffff168273ffffffffffffffffffffffffffffffffffffffff160361166f576040517f08c379a000000000000000000000000000000000000000000000000000000000815260040161166690612c0d565b60405180910390fd5b5f81116116b1576040517f08c379a00000000000000000000000000000000000000000000000000000000081526004016116a8906128dc565b60405180910390fd5b5f60018111156116c4576116c3611ff5565b5b60085f9054906101000a900460ff1660018111156116e5576116e4611ff5565b5b036118385780600454101561172f576040517f08c379a000000000000000000000000000000000000000000000000000000000815260040161172690612c9b565b60405180910390fd5b80471015611772576040517f08c379a000000000000000000000000000000000000000000000000000000000815260040161176990612d29565b60405180910390fd5b8060045f8282546117839190612177565b925050819055505f8273ffffffffffffffffffffffffffffffffffffffff16826040516117af906121d7565b5f6040518083038185875af1925050503d805f81146117e9576040519150601f19603f3d011682016040523d82523d5f602084013e6117ee565b606091505b5050905080611832576040517f08c379a000000000000000000000000000000000000000000000000000000000815260040161182990612d91565b60405180910390fd5b506119ab565b60018081111561184b5761184a611ff5565b5b60085f9054906101000a900460ff16600181111561186c5761186b611ff5565b5b036119aa575f73ffffffffffffffffffffffffffffffffffffffff1660055f9054906101000a900473ffffffffffffffffffffffffffffffffffffffff1673ffffffffffffffffffffffffffffffffffffffff1603611900576040517f08c379a00000000000000000000000000000000000000000000000000000000081526004016118f7906124f1565b60405180910390fd5b806006541015611945576040517f08c379a000000000000000000000000000000000000000000000000000000000815260040161193c90612e1f565b60405180910390fd5b8060065f8282546119569190612177565b925050819055506119a9828260055f9054906101000a900473ffffffffffffffffffffffffffffffffffffffff1673ffffffffffffffffffffffffffffffffffffffff16611ab79092919063ffffffff16565b5b5b8173ffffffffffffffffffffffffffffffffffffffff167fff43c2705b2225c1c9d9d58f088ab64d4fc767737dee523bed37f15fb0c6c3de8260085f9054906101000a900460ff16604051611a0192919061250f565b60405180910390a2611a11611426565b5050565b5f33905090565b5f5f60205f8451602086015f885af180611a3b576040513d5f823e3d81fd5b3d92505f519150505f8214611a54576001811415611a6f565b5f8473ffffffffffffffffffffffffffffffffffffffff163b145b15611ab157836040517f5274afe7000000000000000000000000000000000000000000000000000000008152600401611aa89190611d56565b60405180910390fd5b50505050565b611b31838473ffffffffffffffffffffffffffffffffffffffff1663a9059cbb8585604051602401611aea929190612e3d565b604051602081830303815290604052915060e01b6020820180517bffffffffffffffffffffffffffffffffffffffffffffffffffffffff8381831617835250505050611a1c565b505050565b5f82825260208201905092915050565b7f45544820616d6f756e74206d7573742062652067726561746572207468616e205f8201527f7a65726f00000000000000000000000000000000000000000000000000000000602082015250565b5f611ba0602483611b36565b9150611bab82611b46565b604082019050919050565b5f6020820190508181035f830152611bcd81611b94565b9050919050565b5f819050919050565b7f4e487b71000000000000000000000000000000000000000000000000000000005f52601160045260245ffd5b5f611c1482611bd4565b9150611c1f83611bd4565b9250828201905080821115611c3757611c36611bdd565b5b92915050565b611c4681611bd4565b82525050565b5f602082019050611c5f5f830184611c3d565b92915050565b5f5ffd5b5f5ffd5b5f73ffffffffffffffffffffffffffffffffffffffff82169050919050565b5f611c9682611c6d565b9050919050565b611ca681611c8c565b8114611cb0575f5ffd5b50565b5f81359050611cc181611c9d565b92915050565b5f60208284031215611cdc57611cdb611c65565b5b5f611ce984828501611cb3565b91505092915050565b611cfb81611bd4565b8114611d05575f5ffd5b50565b5f81359050611d1681611cf2565b92915050565b5f60208284031215611d3157611d30611c65565b5b5f611d3e84828501611d08565b91505092915050565b611d5081611c8c565b82525050565b5f602082019050611d695f830184611d47565b92915050565b5f819050919050565b611d8181611d6f565b82525050565b5f602082019050611d9a5f830184611d78565b92915050565b5f5f60408385031215611db657611db5611c65565b5b5f611dc385828601611d08565b9250506020611dd485828601611cb3565b9150509250929050565b5f8115159050919050565b611df281611dde565b82525050565b5f602082019050611e0b5f830184611de9565b92915050565b5f819050919050565b5f611e34611e2f611e2a84611c6d565b611e11565b611c6d565b9050919050565b5f611e4582611e1a565b9050919050565b5f611e5682611e3b565b9050919050565b611e6681611e4c565b82525050565b5f602082019050611e7f5f830184611e5d565b92915050565b5f5ffd5b5f5ffd5b5f5ffd5b5f5f83601f840112611ea657611ea5611e85565b5b8235905067ffffffffffffffff811115611ec357611ec2611e89565b5b602083019150836001820283011115611edf57611ede611e8d565b5b9250929050565b5f5f60208385031215611efc57611efb611c65565b5b5f83013567ffffffffffffffff811115611f1957611f18611c69565b5b611f2585828601611e91565b92509250509250929050565b611f3a81611d6f565b8114611f44575f5ffd5b50565b5f81359050611f5581611f31565b92915050565b60028110611f67575f5ffd5b50565b5f81359050611f7881611f5b565b92915050565b5f5f5f5f5f60a08688031215611f9757611f96611c65565b5b5f611fa488828901611d08565b9550506020611fb588828901611f47565b9450506040611fc688828901611f6a565b9350506060611fd788828901611cb3565b9250506080611fe888828901611d08565b9150509295509295909350565b7f4e487b71000000000000000000000000000000000000000000000000000000005f52602160045260245ffd5b6002811061203357612032611ff5565b5b50565b5f81905061204382612022565b919050565b5f61205282612036565b9050919050565b61206281612048565b82525050565b5f60208201905061207b5f830184612059565b92915050565b7f5769746864726177616c20616d6f756e74206d757374206265206772656174655f8201527f72207468616e207a65726f000000000000000000000000000000000000000000602082015250565b5f6120db602b83611b36565b91506120e682612081565b604082019050919050565b5f6020820190508181035f830152612108816120cf565b9050919050565b7f496e73756666696369656e742062616c616e63650000000000000000000000005f82015250565b5f612143601483611b36565b915061214e8261210f565b602082019050919050565b5f6020820190508181035f83015261217081612137565b9050919050565b5f61218182611bd4565b915061218c83611bd4565b92508282039050818111156121a4576121a3611bdd565b5b92915050565b5f81905092915050565b50565b5f6121c25f836121aa565b91506121cd826121b4565b5f82019050919050565b5f6121e1826121b7565b9150819050919050565b7f5769746864726177616c206661696c65640000000000000000000000000000005f82015250565b5f61221f601183611b36565b915061222a826121eb565b602082019050919050565b5f6020820190508181035f83015261224c81612213565b9050919050565b7f4f776e6572207769746864726177616c20616d6f756e74206d757374206265205f8201527f67726561746572207468616e207a65726f000000000000000000000000000000602082015250565b5f6122ad603183611b36565b91506122b882612253565b604082019050919050565b5f6020820190508181035f8301526122da816122a1565b9050919050565b7f496e73756666696369656e7420636f6e74726163742062616c616e63650000005f82015250565b5f612315601d83611b36565b9150612320826122e1565b602082019050919050565b5f6020820190508181035f83015261234281612309565b9050919050565b7f4f776e6572207769746864726177616c206661696c65640000000000000000005f82015250565b5f61237d601783611b36565b915061238882612349565b602082019050919050565b5f6020820190508181035f8301526123aa81612371565b9050919050565b7f416d6f756e74206d7573742062652067726561746572207468616e207a65726f5f82015250565b5f6123e5602083611b36565b91506123f0826123b1565b602082019050919050565b5f6020820190508181035f830152612412816123d9565b9050919050565b7f43757272656e7420726964646c65207072697a65206973206e6f7420455243325f8201527f3000000000000000000000000000000000000000000000000000000000000000602082015250565b5f612473602183611b36565b915061247e82612419565b604082019050919050565b5f6020820190508181035f8301526124a081612467565b9050919050565b7f5072697a6520746f6b656e206e6f7420736574000000000000000000000000005f82015250565b5f6124db601383611b36565b91506124e6826124a7565b602082019050919050565b5f6020820190508181035f830152612508816124cf565b9050919050565b5f6040820190506125225f830185611c3d565b61252f6020830184612059565b9392505050565b7f4465706f73697420616d6f756e74206d757374206265206772656174657220745f8201527f68616e207a65726f000000000000000000000000000000000000000000000000602082015250565b5f612590602883611b36565b915061259b82612536565b604082019050919050565b5f6020820190508181035f8301526125bd81612584565b9050919050565b7f416c72656164792070617274696369706174656420696e2074686973207269645f8201527f646c650000000000000000000000000000000000000000000000000000000000602082015250565b5f61261e602383611b36565b9150612629826125c4565b604082019050919050565b5f6020820190508181035f83015261264b81612612565b9050919050565b7f4e6f2061637469766520726964646c65000000000000000000000000000000005f82015250565b5f612686601083611b36565b915061269182612652565b602082019050919050565b5f6020820190508181035f8301526126b38161267a565b9050919050565b5f81905092915050565b828183375f83830152505050565b5f6126dd83856126ba565b93506126ea8385846126c4565b82840190509392505050565b5f6127028284866126d2565b91508190509392505050565b7f496e636f727265637420616e73776572000000000000000000000000000000005f82015250565b5f612742601083611b36565b915061274d8261270e565b602082019050919050565b5f6020820190508181035f83015261276f81612736565b9050919050565b7f526964646c652049442063616e6e6f74206265207a65726f00000000000000005f82015250565b5f6127aa601883611b36565b91506127b582612776565b602082019050919050565b5f6020820190508181035f8301526127d78161279e565b9050919050565b7f526964646c65204944206d7573742062652067726561746572207468616e20635f8201527f757272656e740000000000000000000000000000000000000000000000000000602082015250565b5f612838602683611b36565b9150612843826127de565b604082019050919050565b5f6020820190508181035f8301526128658161282c565b9050919050565b7f5072697a6520616d6f756e74206d7573742062652067726561746572207468615f8201527f6e207a65726f0000000000000000000000000000000000000000000000000000602082015250565b5f6128c6602683611b36565b91506128d18261286c565b604082019050919050565b5f6020820190508181035f8301526128f3816128ba565b9050919050565b7f5072697a6520746f6b656e20616464726573732063616e6e6f74206265207a655f8201527f726f20666f72204552433230207072697a650000000000000000000000000000602082015250565b5f612954603283611b36565b915061295f826128fa565b604082019050919050565b5f6020820190508181035f83015261298181612948565b9050919050565b7f5072697a6520746f6b656e20686173206e6f20636f6e747261637420636f64655f82015250565b5f6129bc602083611b36565b91506129c782612988565b602082019050919050565b5f6020820190508181035f8301526129e9816129b0565b9050919050565b5f815190506129fe81611cf2565b92915050565b5f60208284031215612a1957612a18611c65565b5b5f612a26848285016129f0565b91505092915050565b7f496e76616c6964204552432d323020746f6b656e3a20746f74616c537570706c5f8201527f792063616c6c206661696c656400000000000000000000000000000000000000602082015250565b5f612a89602d83611b36565b9150612a9482612a2f565b604082019050919050565b5f6020820190508181035f830152612ab681612a7d565b9050919050565b7f5072697a6520746f6b656e2061646472657373206d757374206265207a65726f5f8201527f20666f7220455448207072697a65000000000000000000000000000000000000602082015250565b5f612b17602e83611b36565b9150612b2282612abd565b604082019050919050565b5f6020820190508181035f830152612b4481612b0b565b9050919050565b5f608082019050612b5e5f830187611d78565b612b6b6020830186612059565b612b786040830185611d47565b612b856060830184611c3d565b95945050505050565b5f606082019050612ba15f830186611d47565b612bae6020830185611d47565b612bbb6040830184611c3d565b949350505050565b7f57696e6e657220616464726573732063616e6e6f74206265207a65726f0000005f82015250565b5f612bf7601d83611b36565b9150612c0282612bc3565b602082019050919050565b5f6020820190508181035f830152612c2481612beb565b9050919050565b7f496e73756666696369656e7420455448207072697a6520706f6f6c2062616c615f8201527f6e63650000000000000000000000000000000000000000000000000000000000602082015250565b5f612c85602383611b36565b9150612c9082612c2b565b604082019050919050565b5f6020820190508181035f830152612cb281612c79565b9050919050565b7f496e73756666696369656e7420636f6e7472616374204554482062616c616e635f8201527f6500000000000000000000000000000000000000000000000000000000000000602082015250565b5f612d13602183611b36565b9150612d1e82612cb9565b604082019050919050565b5f6020820190508181035f830152612d4081612d07565b9050919050565b7f455448207472616e73666572206661696c6564000000000000000000000000005f82015250565b5f612d7b601383611b36565b9150612d8682612d47565b602082019050919050565b5f6020820190508181035f830152612da881612d6f565b9050919050565b7f496e73756666696369656e74204552433230207072697a6520706f6f6c2062615f8201527f6c616e6365000000000000000000000000000000000000000000000000000000602082015250565b5f612e09602583611b36565b9150612e1482612daf565b604082019050919050565b5f6020820190508181035f830152612e3681612dfd565b9050919050565b5f604082019050612e505f830185611d47565b612e5d6020830184611c3d565b939250505056fea2646970667358221220bde88539a28e75f01d33c9453630ef8f31bcc1515d01450e697d2c7d9adb147664736f6c634300081e0033","linkReferences":{}},"methodIdentifiers":{"balances(address)":"27e235e3","currentRiddleId()":"ecdc6c23","deposit()":"d0e30db0","ethPrizePool()":"95664a3d","fundTokenPrizePool(uint256)":"48b06e87","getAnswerHash()":"9acc80a2","getPrizeToken()":"c7cd6959","hasParticipated(uint256,address)":"a34398a2","owner()":"8da5cb5b","ownerWithdraw(uint256)":"33f707d1","prizeAmount()":"785fa627","prizeToken()":"d0ef024a","prizeType()":"fcdf8e89","renounceOwnership()":"715018a6","setRiddle(uint256,bytes32,uint8,address,uint256)":"ec8a7ee7","solveRiddleAndClaim(string)":"dc663b53","tokenPrizePool()":"c310e242","transferOwnership(address)":"f2fde38b","withdraw(uint256)":"2e1a7d4d"},"id":3}