{"abi":[{"type":"constructor","inputs":[{"name":"initialOwner","type":"address","internalType":"address"}],"stateMutability":"nonpayable"},{"type":"receive","stateMutability":"payable"},{"type":"function","name":"balances","inputs":[{"name":"","type":"address","internalType":"address"}],"outputs":[{"name":"","type":"uint256","internalType":"uint256"}],"stateMutability":"view"},{"type":"function","name":"currentRiddleId","inputs":[],"outputs":[{"name":"","type":"uint256","internalType":"uint256"}],"stateMutability":"view"},{"type":"function","name":"deposit","inputs":[],"outputs":[],"stateMutability":"payable"},{"type":"function","name":"enterGame","inputs":[{"name":"_riddleId","type":"uint256","internalType":"uint256"}],"outputs":[],"stateMutability":"nonpayable"},{"type":"function","name":"ethPrizePool","inputs":[],"outputs":[{"name":"","type":"uint256","internalType":"uint256"}],"stateMutability":"view"},{"type":"function","name":"fundTokenPrizePool","inputs":[{"name":"_amount","type":"uint256","internalType":"uint256"}],"outputs":[],"stateMutability":"nonpayable"},{"type":"function","name":"getPrizeToken","inputs":[],"outputs":[{"name":"","type":"address","internalType":"address"}],"stateMutability":"view"},{"type":"function","name":"hasClaimed","inputs":[{"name":"","type":"uint256","internalType":"uint256"},{"name":"","type":"address","internalType":"address"}],"outputs":[{"name":"","type":"bool","internalType":"bool"}],"stateMutability":"view"},{"type":"function","name":"hasParticipated","inputs":[{"name":"","type":"uint256","internalType":"uint256"},{"name":"","type":"address","internalType":"address"}],"outputs":[{"name":"","type":"bool","internalType":"bool"}],"stateMutability":"view"},{"type":"function","name":"owner","inputs":[],"outputs":[{"name":"","type":"address","internalType":"address"}],"stateMutability":"view"},{"type":"function","name":"ownerWithdraw","inputs":[{"name":"_amount","type":"uint256","internalType":"uint256"}],"outputs":[],"stateMutability":"nonpayable"},{"type":"function","name":"prizeAmount","inputs":[],"outputs":[{"name":"","type":"uint256","internalType":"uint256"}],"stateMutability":"view"},{"type":"function","name":"prizeToken","inputs":[],"outputs":[{"name":"","type":"address","internalType":"contract IERC20"}],"stateMutability":"view"},{"type":"function","name":"prizeType","inputs":[],"outputs":[{"name":"","type":"uint8","internalType":"enum Vaultis.PrizeType"}],"stateMutability":"view"},{"type":"function","name":"renounceOwnership","inputs":[],"outputs":[],"stateMutability":"nonpayable"},{"type":"function","name":"setRiddle","inputs":[{"name":"_riddleId","type":"uint256","internalType":"uint256"},{"name":"_answerHash","type":"bytes32","internalType":"bytes32"},{"name":"_prizeType","type":"uint8","internalType":"enum Vaultis.PrizeType"},{"name":"_prizeTokenAddress","type":"address","internalType":"address"},{"name":"_prizeAmount","type":"uint256","internalType":"uint256"}],"outputs":[],"stateMutability":"nonpayable"},{"type":"function","name":"solveRiddleAndClaim","inputs":[{"name":"_answer","type":"string","internalType":"string"}],"outputs":[],"stateMutability":"nonpayable"},{"type":"function","name":"tokenPrizePool","inputs":[],"outputs":[{"name":"","type":"uint256","internalType":"uint256"}],"stateMutability":"view"},{"type":"function","name":"transferOwnership","inputs":[{"name":"newOwner","type":"address","internalType":"address"}],"outputs":[],"stateMutability":"nonpayable"},{"type":"function","name":"withdraw","inputs":[{"name":"_amount","type":"uint256","internalType":"uint256"}],"outputs":[],"stateMutability":"nonpayable"},{"type":"event","name":"Deposit","inputs":[{"name":"user","type":"address","indexed":true,"internalType":"address"},{"name":"amount","type":"uint256","indexed":false,"internalType":"uint256"}],"anonymous":false},{"type":"event","name":"EthReceived","inputs":[{"name":"sender","type":"address","indexed":true,"internalType":"address"},{"name":"amount","type":"uint256","indexed":false,"internalType":"uint256"}],"anonymous":false},{"type":"event","name":"OwnerWithdrawal","inputs":[{"name":"owner","type":"address","indexed":true,"internalType":"address"},{"name":"amount","type":"uint256","indexed":false,"internalType":"uint256"}],"anonymous":false},{"type":"event","name":"OwnershipTransferred","inputs":[{"name":"previousOwner","type":"address","indexed":true,"internalType":"address"},{"name":"newOwner","type":"address","indexed":true,"internalType":"address"}],"anonymous":false},{"type":"event","name":"PrizeDistributed","inputs":[{"name":"winner","type":"address","indexed":true,"internalType":"address"},{"name":"amount","type":"uint256","indexed":false,"internalType":"uint256"},{"name":"prizeType","type":"uint8","indexed":false,"internalType":"enum Vaultis.PrizeType"}],"anonymous":false},{"type":"event","name":"PrizeFunded","inputs":[{"name":"funder","type":"address","indexed":true,"internalType":"address"},{"name":"amount","type":"uint256","indexed":false,"internalType":"uint256"},{"name":"prizeType","type":"uint8","indexed":false,"internalType":"enum Vaultis.PrizeType"}],"anonymous":false},{"type":"event","name":"RiddleSet","inputs":[{"name":"riddleId","type":"uint256","indexed":true,"internalType":"uint256"},{"name":"answerHash","type":"bytes32","indexed":false,"internalType":"bytes32"},{"name":"prizeType","type":"uint8","indexed":false,"internalType":"enum Vaultis.PrizeType"},{"name":"prizeTokenAddress","type":"address","indexed":false,"internalType":"address"},{"name":"prizeAmount","type":"uint256","indexed":false,"internalType":"uint256"}],"anonymous":false},{"type":"event","name":"Withdrawal","inputs":[{"name":"user","type":"address","indexed":true,"internalType":"address"},{"name":"amount","type":"uint256","indexed":false,"internalType":"uint256"}],"anonymous":false},{"type":"error","name":"OwnableInvalidOwner","inputs":[{"name":"owner","type":"address","internalType":"address"}]},{"type":"error","name":"OwnableUnauthorizedAccount","inputs":[{"name":"account","type":"address","internalType":"address"}]},{"type":"error","name":"ReentrancyGuardReentrantCall","inputs":[]},{"type":"error","name":"SafeERC20FailedOperation","inputs":[{"name":"token","type":"address","internalType":"address"}]}],"bytecode":{"object":"0x608060405234801561000f575f5ffd5b50604051613398380380613398833981810160405281019061003191906101de565b805f73ffffffffffffffffffffffffffffffffffffffff168173ffffffffffffffffffffffffffffffffffffffff16036100a2575f6040517f1e4fbdf70000000000000000000000000000000000000000000000000000000081526004016100999190610218565b60405180910390fd5b6100b1816100bf60201b60201c565b506001808190555050610231565b5f5f5f9054906101000a900473ffffffffffffffffffffffffffffffffffffffff169050815f5f6101000a81548173ffffffffffffffffffffffffffffffffffffffff021916908373ffffffffffffffffffffffffffffffffffffffff1602179055508173ffffffffffffffffffffffffffffffffffffffff168173ffffffffffffffffffffffffffffffffffffffff167f8be0079c531659141344cd1fd0a4f28419497f9722a3daafe3b4186f6b6457e060405160405180910390a35050565b5f5ffd5b5f73ffffffffffffffffffffffffffffffffffffffff82169050919050565b5f6101ad82610184565b9050919050565b6101bd816101a3565b81146101c7575f5ffd5b50565b5f815190506101d8816101b4565b92915050565b5f602082840312156101f3576101f2610180565b5b5f610200848285016101ca565b91505092915050565b610212816101a3565b82525050565b5f60208201905061022b5f830184610209565b92915050565b61315a8061023e5f395ff3fe608060405260043610610122575f3560e01c8063a34398a21161009f578063dc663b5311610063578063dc663b5314610445578063ec8a7ee71461046d578063ecdc6c2314610495578063f2fde38b146104bf578063fcdf8e89146104e7576101d1565b8063a34398a214610381578063c310e242146103bd578063c7cd6959146103e7578063d0e30db014610411578063d0ef024a1461041b576101d1565b8063715018a6116100e6578063715018a6146102b1578063785fa627146102c7578063873f6f9e146102f15780638da5cb5b1461032d57806395664a3d14610357576101d1565b806327e235e3146101d55780632e1a7d4d1461021157806333f707d11461023957806343d6582b1461026157806348b06e8714610289576101d1565b366101d1575f3411610169576040517f08c379a000000000000000000000000000000000000000000000000000000000815260040161016090611d57565b60405180910390fd5b3460045f82825461017a9190611dab565b925050819055503373ffffffffffffffffffffffffffffffffffffffff167f85177f287940f2f05425a4029951af0e047a7f9c4eaa9a6e6917bcd869f86695346040516101c79190611ded565b60405180910390a2005b5f5ffd5b3480156101e0575f5ffd5b506101fb60048036038101906101f69190611e68565b610511565b6040516102089190611ded565b60405180910390f35b34801561021c575f5ffd5b5061023760048036038101906102329190611ebd565b610526565b005b348015610244575f5ffd5b5061025f600480360381019061025a9190611ebd565b610745565b005b34801561026c575f5ffd5b5061028760048036038101906102829190611ebd565b61090a565b005b348015610294575f5ffd5b506102af60048036038101906102aa9190611ebd565b610aa2565b005b3480156102bc575f5ffd5b506102c5610cb9565b005b3480156102d2575f5ffd5b506102db610ccc565b6040516102e89190611ded565b60405180910390f35b3480156102fc575f5ffd5b5061031760048036038101906103129190611ee8565b610cd2565b6040516103249190611f40565b60405180910390f35b348015610338575f5ffd5b50610341610cfc565b60405161034e9190611f68565b60405180910390f35b348015610362575f5ffd5b5061036b610d23565b6040516103789190611ded565b60405180910390f35b34801561038c575f5ffd5b506103a760048036038101906103a29190611ee8565b610d29565b6040516103b49190611f40565b60405180910390f35b3480156103c8575f5ffd5b506103d1610d53565b6040516103de9190611ded565b60405180910390f35b3480156103f2575f5ffd5b506103fb610d59565b6040516104089190611f68565b60405180910390f35b610419610d81565b005b348015610426575f5ffd5b5061042f610e76565b60405161043c9190611fdc565b60405180910390f35b348015610450575f5ffd5b5061046b60048036038101906104669190612056565b610e9b565b005b348015610478575f5ffd5b50610493600480360381019061048e91906120f7565b611106565b005b3480156104a0575f5ffd5b506104a96114f5565b6040516104b69190611ded565b60405180910390f35b3480156104ca575f5ffd5b506104e560048036038101906104e09190611e68565b6114fb565b005b3480156104f2575f5ffd5b506104fb61157f565b60405161050891906121e1565b60405180910390f35b6002602052805f5260405f205f915090505481565b61052e611591565b5f8111610570576040517f08c379a00000000000000000000000000000000000000000000000000000000081526004016105679061226a565b60405180910390fd5b8060025f3373ffffffffffffffffffffffffffffffffffffffff1673ffffffffffffffffffffffffffffffffffffffff1681526020019081526020015f205410156105f0576040517f08c379a00000000000000000000000000000000000000000000000000000000081526004016105e7906122d2565b60405180910390fd5b8060025f3373ffffffffffffffffffffffffffffffffffffffff1673ffffffffffffffffffffffffffffffffffffffff1681526020019081526020015f205f82825461063c91906122f0565b925050819055505f3373ffffffffffffffffffffffffffffffffffffffff168260405161066890612350565b5f6040518083038185875af1925050503d805f81146106a2576040519150601f19603f3d011682016040523d82523d5f602084013e6106a7565b606091505b50509050806106eb576040517f08c379a00000000000000000000000000000000000000000000000000000000081526004016106e2906123ae565b60405180910390fd5b3373ffffffffffffffffffffffffffffffffffffffff167f7fcf532c15f0a6db0bd6d0e038bea71d30d808c7d98cb3bf7268a95bf5081b65836040516107319190611ded565b60405180910390a2506107426115d7565b50565b61074d6115e0565b610755611591565b5f8111610797576040517f08c379a000000000000000000000000000000000000000000000000000000000815260040161078e9061243c565b60405180910390fd5b8060045410156107dc576040517f08c379a00000000000000000000000000000000000000000000000000000000081526004016107d3906124a4565b60405180910390fd5b5f6107e5610cfc565b73ffffffffffffffffffffffffffffffffffffffff168262030d409060405161080d90612350565b5f60405180830381858888f193505050503d805f8114610848576040519150601f19603f3d011682016040523d82523d5f602084013e61084d565b606091505b5050905080610891576040517f08c379a00000000000000000000000000000000000000000000000000000000081526004016108889061250c565b60405180910390fd5b8160045f8282546108a291906122f0565b925050819055506108b1610cfc565b73ffffffffffffffffffffffffffffffffffffffff167fa919fadcfa556a012bab31b15f596ea7ccd397adbf10e15f176db9055ab361c4836040516108f69190611ded565b60405180910390a2506109076115d7565b50565b610912611591565b6003548114610956576040517f08c379a000000000000000000000000000000000000000000000000000000000815260040161094d90612574565b60405180910390fd5b5f6003541161099a576040517f08c379a0000000000000000000000000000000000000000000000000000000008152600401610991906125dc565b60405180910390fd5b60095f8281526020019081526020015f205f3373ffffffffffffffffffffffffffffffffffffffff1673ffffffffffffffffffffffffffffffffffffffff1681526020019081526020015f205f9054906101000a900460ff1615610a33576040517f08c379a0000000000000000000000000000000000000000000000000000000008152600401610a2a9061266a565b60405180910390fd5b600160095f8381526020019081526020015f205f3373ffffffffffffffffffffffffffffffffffffffff1673ffffffffffffffffffffffffffffffffffffffff1681526020019081526020015f205f6101000a81548160ff021916908315150217905550610a9f6115d7565b50565b610aaa6115e0565b610ab2611591565b5f8111610af4576040517f08c379a0000000000000000000000000000000000000000000000000000000008152600401610aeb906126d2565b60405180910390fd5b600180811115610b0757610b0661216e565b5b60085f9054906101000a900460ff166001811115610b2857610b2761216e565b5b14610b68576040517f08c379a0000000000000000000000000000000000000000000000000000000008152600401610b5f90612760565b60405180910390fd5b5f73ffffffffffffffffffffffffffffffffffffffff1660055f9054906101000a900473ffffffffffffffffffffffffffffffffffffffff1673ffffffffffffffffffffffffffffffffffffffff1603610bf7576040517f08c379a0000000000000000000000000000000000000000000000000000000008152600401610bee906127c8565b60405180910390fd5b610c4533308360055f9054906101000a900473ffffffffffffffffffffffffffffffffffffffff1673ffffffffffffffffffffffffffffffffffffffff16611667909392919063ffffffff16565b8060065f828254610c569190611dab565b925050819055503373ffffffffffffffffffffffffffffffffffffffff167f4708e702157b1eb6cd00a772e6a623599ac7dc0bad76e8c624fdef050b434f09826001604051610ca69291906127e6565b60405180910390a2610cb66115d7565b50565b610cc16115e0565b610cca5f6116e9565b565b60075481565b600a602052815f5260405f20602052805f5260405f205f915091509054906101000a900460ff1681565b5f5f5f9054906101000a900473ffffffffffffffffffffffffffffffffffffffff16905090565b60045481565b6009602052815f5260405f20602052805f5260405f205f915091509054906101000a900460ff1681565b60065481565b5f60055f9054906101000a900473ffffffffffffffffffffffffffffffffffffffff16905090565b610d89611591565b5f3411610dcb576040517f08c379a0000000000000000000000000000000000000000000000000000000008152600401610dc29061287d565b60405180910390fd5b3460025f3373ffffffffffffffffffffffffffffffffffffffff1673ffffffffffffffffffffffffffffffffffffffff1681526020019081526020015f205f828254610e179190611dab565b925050819055503373ffffffffffffffffffffffffffffffffffffffff167fe1fffcc4923d04b559f4d29a8bfc6cda04eb5b0d3c460751c2402c5c5cc9109c34604051610e649190611ded565b60405180910390a2610e746115d7565b565b60055f9054906101000a900473ffffffffffffffffffffffffffffffffffffffff1681565b610ea3611591565b5f60035411610ee7576040517f08c379a0000000000000000000000000000000000000000000000000000000008152600401610ede906125dc565b60405180910390fd5b60095f60035481526020019081526020015f205f3373ffffffffffffffffffffffffffffffffffffffff1673ffffffffffffffffffffffffffffffffffffffff1681526020019081526020015f205f9054906101000a900460ff16610f81576040517f08c379a0000000000000000000000000000000000000000000000000000000008152600401610f78906128e5565b60405180910390fd5b600a5f60035481526020019081526020015f205f3373ffffffffffffffffffffffffffffffffffffffff1673ffffffffffffffffffffffffffffffffffffffff1681526020019081526020015f205f9054906101000a900460ff161561101c576040517f08c379a00000000000000000000000000000000000000000000000000000000081526004016110139061294d565b60405180910390fd5b600b5482826040516020016110329291906129a7565b6040516020818303038152906040528051906020012014611088576040517f08c379a000000000000000000000000000000000000000000000000000000000815260040161107f90612a09565b60405180910390fd5b6001600a5f60035481526020019081526020015f205f3373ffffffffffffffffffffffffffffffffffffffff1673ffffffffffffffffffffffffffffffffffffffff1681526020019081526020015f205f6101000a81548160ff0219169083151502179055506110fa336007546117aa565b6111026115d7565b5050565b61110e6115e0565b5f8511611150576040517f08c379a000000000000000000000000000000000000000000000000000000000815260040161114790612a71565b60405180910390fd5b6003548511611194576040517f08c379a000000000000000000000000000000000000000000000000000000000815260040161118b90612aff565b60405180910390fd5b5f81116111d6576040517f08c379a00000000000000000000000000000000000000000000000000000000081526004016111cd90612b8d565b60405180910390fd5b6001808111156111e9576111e861216e565b5b8360018111156111fc576111fb61216e565b5b036113b5575f73ffffffffffffffffffffffffffffffffffffffff168273ffffffffffffffffffffffffffffffffffffffff160361126f576040517f08c379a000000000000000000000000000000000000000000000000000000000815260040161126690612c1b565b60405180910390fd5b5f8273ffffffffffffffffffffffffffffffffffffffff163b116112c8576040517f08c379a00000000000000000000000000000000000000000000000000000000081526004016112bf90612c83565b60405180910390fd5b8173ffffffffffffffffffffffffffffffffffffffff166318160ddd6040518163ffffffff1660e01b8152600401602060405180830381865afa92505050801561133057506040513d601f19601f8201168201806040525081019061132d9190612cb5565b60015b61136f576040517f08c379a000000000000000000000000000000000000000000000000000000000815260040161136690612d50565b60405180910390fd5b508160055f6101000a81548173ffffffffffffffffffffffffffffffffffffffff021916908373ffffffffffffffffffffffffffffffffffffffff160217905550611464565b5f73ffffffffffffffffffffffffffffffffffffffff168273ffffffffffffffffffffffffffffffffffffffff1614611423576040517f08c379a000000000000000000000000000000000000000000000000000000000815260040161141a90612dde565b60405180910390fd5b5f60055f6101000a81548173ffffffffffffffffffffffffffffffffffffffff021916908373ffffffffffffffffffffffffffffffffffffffff1602179055505b8460038190555083600b819055508260085f6101000a81548160ff021916908360018111156114965761149561216e565b5b0217905550806007819055505f6004819055505f600681905550847f561736c7b0f78dbf7fff40b2f20427c4c56eb12ae7e94a8dac6a3a7925ae37fd858585856040516114e69493929190612e0b565b60405180910390a25050505050565b60035481565b6115036115e0565b5f73ffffffffffffffffffffffffffffffffffffffff168173ffffffffffffffffffffffffffffffffffffffff1603611573575f6040517f1e4fbdf700000000000000000000000000000000000000000000000000000000815260040161156a9190611f68565b60405180910390fd5b61157c816116e9565b50565b60085f9054906101000a900460ff1681565b6002600154036115cd576040517f3ee5aeb500000000000000000000000000000000000000000000000000000000815260040160405180910390fd5b6002600181905550565b60018081905550565b6115e8611bb6565b73ffffffffffffffffffffffffffffffffffffffff16611606610cfc565b73ffffffffffffffffffffffffffffffffffffffff161461166557611629611bb6565b6040517f118cdaa700000000000000000000000000000000000000000000000000000000815260040161165c9190611f68565b60405180910390fd5b565b6116e3848573ffffffffffffffffffffffffffffffffffffffff166323b872dd86868660405160240161169c93929190612e4e565b604051602081830303815290604052915060e01b6020820180517bffffffffffffffffffffffffffffffffffffffffffffffffffffffff8381831617835250505050611bbd565b50505050565b5f5f5f9054906101000a900473ffffffffffffffffffffffffffffffffffffffff169050815f5f6101000a81548173ffffffffffffffffffffffffffffffffffffffff021916908373ffffffffffffffffffffffffffffffffffffffff1602179055508173ffffffffffffffffffffffffffffffffffffffff168173ffffffffffffffffffffffffffffffffffffffff167f8be0079c531659141344cd1fd0a4f28419497f9722a3daafe3b4186f6b6457e060405160405180910390a35050565b5f73ffffffffffffffffffffffffffffffffffffffff168273ffffffffffffffffffffffffffffffffffffffff1603611818576040517f08c379a000000000000000000000000000000000000000000000000000000000815260040161180f90612ecd565b60405180910390fd5b5f811161185a576040517f08c379a000000000000000000000000000000000000000000000000000000000815260040161185190612b8d565b60405180910390fd5b5f600181111561186d5761186c61216e565b5b60085f9054906101000a900460ff16600181111561188e5761188d61216e565b5b036119e1578060045410156118d8576040517f08c379a00000000000000000000000000000000000000000000000000000000081526004016118cf90612f5b565b60405180910390fd5b8047101561191b576040517f08c379a000000000000000000000000000000000000000000000000000000000815260040161191290612fe9565b60405180910390fd5b8060045f82825461192c91906122f0565b925050819055505f8273ffffffffffffffffffffffffffffffffffffffff168260405161195890612350565b5f6040518083038185875af1925050503d805f8114611992576040519150601f19603f3d011682016040523d82523d5f602084013e611997565b606091505b50509050806119db576040517f08c379a00000000000000000000000000000000000000000000000000000000081526004016119d290613051565b60405180910390fd5b50611b54565b6001808111156119f4576119f361216e565b5b60085f9054906101000a900460ff166001811115611a1557611a1461216e565b5b03611b53575f73ffffffffffffffffffffffffffffffffffffffff1660055f9054906101000a900473ffffffffffffffffffffffffffffffffffffffff1673ffffffffffffffffffffffffffffffffffffffff1603611aa9576040517f08c379a0000000000000000000000000000000000000000000000000000000008152600401611aa0906127c8565b60405180910390fd5b806006541015611aee576040517f08c379a0000000000000000000000000000000000000000000000000000000008152600401611ae5906130df565b60405180910390fd5b8060065f828254611aff91906122f0565b92505081905550611b52828260055f9054906101000a900473ffffffffffffffffffffffffffffffffffffffff1673ffffffffffffffffffffffffffffffffffffffff16611c589092919063ffffffff16565b5b5b8173ffffffffffffffffffffffffffffffffffffffff167fff43c2705b2225c1c9d9d58f088ab64d4fc767737dee523bed37f15fb0c6c3de8260085f9054906101000a900460ff16604051611baa9291906127e6565b60405180910390a25050565b5f33905090565b5f5f60205f8451602086015f885af180611bdc576040513d5f823e3d81fd5b3d92505f519150505f8214611bf5576001811415611c10565b5f8473ffffffffffffffffffffffffffffffffffffffff163b145b15611c5257836040517f5274afe7000000000000000000000000000000000000000000000000000000008152600401611c499190611f68565b60405180910390fd5b50505050565b611cd2838473ffffffffffffffffffffffffffffffffffffffff1663a9059cbb8585604051602401611c8b9291906130fd565b604051602081830303815290604052915060e01b6020820180517bffffffffffffffffffffffffffffffffffffffffffffffffffffffff8381831617835250505050611bbd565b505050565b5f82825260208201905092915050565b7f45544820616d6f756e74206d7573742062652067726561746572207468616e205f8201527f7a65726f00000000000000000000000000000000000000000000000000000000602082015250565b5f611d41602483611cd7565b9150611d4c82611ce7565b604082019050919050565b5f6020820190508181035f830152611d6e81611d35565b9050919050565b5f819050919050565b7f4e487b71000000000000000000000000000000000000000000000000000000005f52601160045260245ffd5b5f611db582611d75565b9150611dc083611d75565b9250828201905080821115611dd857611dd7611d7e565b5b92915050565b611de781611d75565b82525050565b5f602082019050611e005f830184611dde565b92915050565b5f5ffd5b5f5ffd5b5f73ffffffffffffffffffffffffffffffffffffffff82169050919050565b5f611e3782611e0e565b9050919050565b611e4781611e2d565b8114611e51575f5ffd5b50565b5f81359050611e6281611e3e565b92915050565b5f60208284031215611e7d57611e7c611e06565b5b5f611e8a84828501611e54565b91505092915050565b611e9c81611d75565b8114611ea6575f5ffd5b50565b5f81359050611eb781611e93565b92915050565b5f60208284031215611ed257611ed1611e06565b5b5f611edf84828501611ea9565b91505092915050565b5f5f60408385031215611efe57611efd611e06565b5b5f611f0b85828601611ea9565b9250506020611f1c85828601611e54565b9150509250929050565b5f8115159050919050565b611f3a81611f26565b82525050565b5f602082019050611f535f830184611f31565b92915050565b611f6281611e2d565b82525050565b5f602082019050611f7b5f830184611f59565b92915050565b5f819050919050565b5f611fa4611f9f611f9a84611e0e565b611f81565b611e0e565b9050919050565b5f611fb582611f8a565b9050919050565b5f611fc682611fab565b9050919050565b611fd681611fbc565b82525050565b5f602082019050611fef5f830184611fcd565b92915050565b5f5ffd5b5f5ffd5b5f5ffd5b5f5f83601f84011261201657612015611ff5565b5b8235905067ffffffffffffffff81111561203357612032611ff9565b5b60208301915083600182028301111561204f5761204e611ffd565b5b9250929050565b5f5f6020838503121561206c5761206b611e06565b5b5f83013567ffffffffffffffff81111561208957612088611e0a565b5b61209585828601612001565b92509250509250929050565b5f819050919050565b6120b3816120a1565b81146120bd575f5ffd5b50565b5f813590506120ce816120aa565b92915050565b600281106120e0575f5ffd5b50565b5f813590506120f1816120d4565b92915050565b5f5f5f5f5f60a086880312156121105761210f611e06565b5b5f61211d88828901611ea9565b955050602061212e888289016120c0565b945050604061213f888289016120e3565b935050606061215088828901611e54565b925050608061216188828901611ea9565b9150509295509295909350565b7f4e487b71000000000000000000000000000000000000000000000000000000005f52602160045260245ffd5b600281106121ac576121ab61216e565b5b50565b5f8190506121bc8261219b565b919050565b5f6121cb826121af565b9050919050565b6121db816121c1565b82525050565b5f6020820190506121f45f8301846121d2565b92915050565b7f5769746864726177616c20616d6f756e74206d757374206265206772656174655f8201527f72207468616e207a65726f000000000000000000000000000000000000000000602082015250565b5f612254602b83611cd7565b915061225f826121fa565b604082019050919050565b5f6020820190508181035f83015261228181612248565b9050919050565b7f496e73756666696369656e742062616c616e63650000000000000000000000005f82015250565b5f6122bc601483611cd7565b91506122c782612288565b602082019050919050565b5f6020820190508181035f8301526122e9816122b0565b9050919050565b5f6122fa82611d75565b915061230583611d75565b925082820390508181111561231d5761231c611d7e565b5b92915050565b5f81905092915050565b50565b5f61233b5f83612323565b91506123468261232d565b5f82019050919050565b5f61235a82612330565b9150819050919050565b7f5769746864726177616c206661696c65640000000000000000000000000000005f82015250565b5f612398601183611cd7565b91506123a382612364565b602082019050919050565b5f6020820190508181035f8301526123c58161238c565b9050919050565b7f4f776e6572207769746864726177616c20616d6f756e74206d757374206265205f8201527f67726561746572207468616e207a65726f000000000000000000000000000000602082015250565b5f612426603183611cd7565b9150612431826123cc565b604082019050919050565b5f6020820190508181035f8301526124538161241a565b9050919050565b7f496e73756666696369656e7420455448207072697a6520706f6f6c00000000005f82015250565b5f61248e601b83611cd7565b91506124998261245a565b602082019050919050565b5f6020820190508181035f8301526124bb81612482565b9050919050565b7f4f776e6572207769746864726177616c206661696c65640000000000000000005f82015250565b5f6124f6601783611cd7565b9150612501826124c2565b602082019050919050565b5f6020820190508181035f830152612523816124ea565b9050919050565b7f4e6f74207468652061637469766520726964646c6520494400000000000000005f82015250565b5f61255e601883611cd7565b91506125698261252a565b602082019050919050565b5f6020820190508181035f83015261258b81612552565b9050919050565b7f4e6f2061637469766520726964646c65000000000000000000000000000000005f82015250565b5f6125c6601083611cd7565b91506125d182612592565b602082019050919050565b5f6020820190508181035f8301526125f3816125ba565b9050919050565b7f416c72656164792070617274696369706174656420696e2074686973207269645f8201527f646c650000000000000000000000000000000000000000000000000000000000602082015250565b5f612654602383611cd7565b915061265f826125fa565b604082019050919050565b5f6020820190508181035f83015261268181612648565b9050919050565b7f416d6f756e74206d7573742062652067726561746572207468616e207a65726f5f82015250565b5f6126bc602083611cd7565b91506126c782612688565b602082019050919050565b5f6020820190508181035f8301526126e9816126b0565b9050919050565b7f43757272656e7420726964646c65207072697a65206973206e6f7420455243325f8201527f3000000000000000000000000000000000000000000000000000000000000000602082015250565b5f61274a602183611cd7565b9150612755826126f0565b604082019050919050565b5f6020820190508181035f8301526127778161273e565b9050919050565b7f5072697a6520746f6b656e206e6f7420736574000000000000000000000000005f82015250565b5f6127b2601383611cd7565b91506127bd8261277e565b602082019050919050565b5f6020820190508181035f8301526127df816127a6565b9050919050565b5f6040820190506127f95f830185611dde565b61280660208301846121d2565b9392505050565b7f4465706f73697420616d6f756e74206d757374206265206772656174657220745f8201527f68616e207a65726f000000000000000000000000000000000000000000000000602082015250565b5f612867602883611cd7565b91506128728261280d565b604082019050919050565b5f6020820190508181035f8301526128948161285b565b9050919050565b7f4d75737420656e746572207468652067616d65206669727374000000000000005f82015250565b5f6128cf601983611cd7565b91506128da8261289b565b602082019050919050565b5f6020820190508181035f8301526128fc816128c3565b9050919050565b7f416c726561647920636c61696d656400000000000000000000000000000000005f82015250565b5f612937600f83611cd7565b915061294282612903565b602082019050919050565b5f6020820190508181035f8301526129648161292b565b9050919050565b5f81905092915050565b828183375f83830152505050565b5f61298e838561296b565b935061299b838584612975565b82840190509392505050565b5f6129b3828486612983565b91508190509392505050565b7f496e636f727265637420616e73776572000000000000000000000000000000005f82015250565b5f6129f3601083611cd7565b91506129fe826129bf565b602082019050919050565b5f6020820190508181035f830152612a20816129e7565b9050919050565b7f526964646c652049442063616e6e6f74206265207a65726f00000000000000005f82015250565b5f612a5b601883611cd7565b9150612a6682612a27565b602082019050919050565b5f6020820190508181035f830152612a8881612a4f565b9050919050565b7f526964646c65204944206d7573742062652067726561746572207468616e20635f8201527f757272656e740000000000000000000000000000000000000000000000000000602082015250565b5f612ae9602683611cd7565b9150612af482612a8f565b604082019050919050565b5f6020820190508181035f830152612b1681612add565b9050919050565b7f5072697a6520616d6f756e74206d7573742062652067726561746572207468615f8201527f6e207a65726f0000000000000000000000000000000000000000000000000000602082015250565b5f612b77602683611cd7565b9150612b8282612b1d565b604082019050919050565b5f6020820190508181035f830152612ba481612b6b565b9050919050565b7f5072697a6520746f6b656e20616464726573732063616e6e6f74206265207a655f8201527f726f20666f72204552433230207072697a650000000000000000000000000000602082015250565b5f612c05603283611cd7565b9150612c1082612bab565b604082019050919050565b5f6020820190508181035f830152612c3281612bf9565b9050919050565b7f5072697a6520746f6b656e20686173206e6f20636f6e747261637420636f64655f82015250565b5f612c6d602083611cd7565b9150612c7882612c39565b602082019050919050565b5f6020820190508181035f830152612c9a81612c61565b9050919050565b5f81519050612caf81611e93565b92915050565b5f60208284031215612cca57612cc9611e06565b5b5f612cd784828501612ca1565b91505092915050565b7f496e76616c6964204552432d323020746f6b656e3a20746f74616c537570706c5f8201527f792063616c6c206661696c656400000000000000000000000000000000000000602082015250565b5f612d3a602d83611cd7565b9150612d4582612ce0565b604082019050919050565b5f6020820190508181035f830152612d6781612d2e565b9050919050565b7f5072697a6520746f6b656e2061646472657373206d757374206265207a65726f5f8201527f20666f7220455448207072697a65000000000000000000000000000000000000602082015250565b5f612dc8602e83611cd7565b9150612dd382612d6e565b604082019050919050565b5f6020820190508181035f830152612df581612dbc565b9050919050565b612e05816120a1565b82525050565b5f608082019050612e1e5f830187612dfc565b612e2b60208301866121d2565b612e386040830185611f59565b612e456060830184611dde565b95945050505050565b5f606082019050612e615f830186611f59565b612e6e6020830185611f59565b612e7b6040830184611dde565b949350505050565b7f57696e6e657220616464726573732063616e6e6f74206265207a65726f0000005f82015250565b5f612eb7601d83611cd7565b9150612ec282612e83565b602082019050919050565b5f6020820190508181035f830152612ee481612eab565b9050919050565b7f496e73756666696369656e7420455448207072697a6520706f6f6c2062616c615f8201527f6e63650000000000000000000000000000000000000000000000000000000000602082015250565b5f612f45602383611cd7565b9150612f5082612eeb565b604082019050919050565b5f6020820190508181035f830152612f7281612f39565b9050919050565b7f496e73756666696369656e7420636f6e7472616374204554482062616c616e635f8201527f6500000000000000000000000000000000000000000000000000000000000000602082015250565b5f612fd3602183611cd7565b9150612fde82612f79565b604082019050919050565b5f6020820190508181035f83015261300081612fc7565b9050919050565b7f455448207472616e73666572206661696c6564000000000000000000000000005f82015250565b5f61303b601383611cd7565b915061304682613007565b602082019050919050565b5f6020820190508181035f8301526130688161302f565b9050919050565b7f496e73756666696369656e74204552433230207072697a6520706f6f6c2062615f8201527f6c616e6365000000000000000000000000000000000000000000000000000000602082015250565b5f6130c9602583611cd7565b91506130d48261306f565b604082019050919050565b5f6020820190508181035f8301526130f6816130bd565b9050919050565b5f6040820190506131105f830185611f59565b61311d6020830184611dde565b939250505056fea2646970667358221220a5322a8788da3f0c79614324c4a222361dca8ac377c237eef2bb2422f05a2eb064736f6c634300081e0033","linkReferences":{}},"methodIdentifiers":{"balances(address)":"27e235e3","currentRiddleId()":"ecdc6c23","deposit()":"d0e30db0","enterGame(uint256)":"43d6582b","ethPrizePool()":"95664a3d","fundTokenPrizePool(uint256)":"48b06e87","getPrizeToken()":"c7cd6959","hasClaimed(uint256,address)":"873f6f9e","hasParticipated(uint256,address)":"a34398a2","owner()":"8da5cb5b","ownerWithdraw(uint256)":"33f707d1","prizeAmount()":"785fa627","prizeToken()":"d0ef024a","prizeType()":"fcdf8e89","renounceOwnership()":"715018a6","setRiddle(uint256,bytes32,uint8,address,uint256)":"ec8a7ee7","solveRiddleAndClaim(string)":"dc663b53","tokenPrizePool()":"c310e242","transferOwnership(address)":"f2fde38b","withdraw(uint256)":"2e1a7d4d"},"id":1}