{"abi":[{"type":"constructor","inputs":[{"name":"initialOwner","type":"address","internalType":"address"},{"name":"_retryTokenAddress","type":"address","internalType":"address"}],"stateMutability":"nonpayable"},{"type":"receive","stateMutability":"payable"},{"type":"function","name":"ENTRY_FEE","inputs":[],"outputs":[{"name":"","type":"uint256","internalType":"uint256"}],"stateMutability":"view"},{"type":"function","name":"MAX_RETRIES","inputs":[],"outputs":[{"name":"","type":"uint256","internalType":"uint256"}],"stateMutability":"view"},{"type":"function","name":"RETRY_COST","inputs":[],"outputs":[{"name":"","type":"uint256","internalType":"uint256"}],"stateMutability":"view"},{"type":"function","name":"balances","inputs":[{"name":"","type":"address","internalType":"address"}],"outputs":[{"name":"","type":"uint256","internalType":"uint256"}],"stateMutability":"view"},{"type":"function","name":"committedAt","inputs":[{"name":"","type":"uint256","internalType":"uint256"},{"name":"","type":"address","internalType":"address"}],"outputs":[{"name":"","type":"uint256","internalType":"uint256"}],"stateMutability":"view"},{"type":"function","name":"committedGuesses","inputs":[{"name":"","type":"uint256","internalType":"uint256"},{"name":"","type":"address","internalType":"address"}],"outputs":[{"name":"","type":"bytes32","internalType":"bytes32"}],"stateMutability":"view"},{"type":"function","name":"currentRiddleId","inputs":[],"outputs":[{"name":"","type":"uint256","internalType":"uint256"}],"stateMutability":"view"},{"type":"function","name":"deposit","inputs":[],"outputs":[],"stateMutability":"payable"},{"type":"function","name":"enterGame","inputs":[{"name":"_riddleId","type":"uint256","internalType":"uint256"}],"outputs":[],"stateMutability":"nonpayable"},{"type":"function","name":"entryFeeToken","inputs":[],"outputs":[{"name":"","type":"address","internalType":"contract IERC20"}],"stateMutability":"view"},{"type":"function","name":"ethPrizePool","inputs":[],"outputs":[{"name":"","type":"uint256","internalType":"uint256"}],"stateMutability":"view"},{"type":"function","name":"fundTokenPrizePool","inputs":[{"name":"_amount","type":"uint256","internalType":"uint256"}],"outputs":[],"stateMutability":"nonpayable"},{"type":"function","name":"getPrizeToken","inputs":[],"outputs":[{"name":"","type":"address","internalType":"address"}],"stateMutability":"view"},{"type":"function","name":"hasClaimed","inputs":[{"name":"","type":"uint256","internalType":"uint256"},{"name":"","type":"address","internalType":"address"}],"outputs":[{"name":"","type":"bool","internalType":"bool"}],"stateMutability":"view"},{"type":"function","name":"hasParticipated","inputs":[{"name":"","type":"uint256","internalType":"uint256"},{"name":"","type":"address","internalType":"address"}],"outputs":[{"name":"","type":"bool","internalType":"bool"}],"stateMutability":"view"},{"type":"function","name":"hasRevealed","inputs":[{"name":"","type":"uint256","internalType":"uint256"},{"name":"","type":"address","internalType":"address"}],"outputs":[{"name":"","type":"bool","internalType":"bool"}],"stateMutability":"view"},{"type":"function","name":"isWinner","inputs":[{"name":"","type":"uint256","internalType":"uint256"},{"name":"","type":"address","internalType":"address"}],"outputs":[{"name":"","type":"bool","internalType":"bool"}],"stateMutability":"view"},{"type":"function","name":"owner","inputs":[],"outputs":[{"name":"","type":"address","internalType":"address"}],"stateMutability":"view"},{"type":"function","name":"ownerWithdraw","inputs":[{"name":"_amount","type":"uint256","internalType":"uint256"}],"outputs":[],"stateMutability":"nonpayable"},{"type":"function","name":"ownerWithdrawTokens","inputs":[{"name":"_amount","type":"uint256","internalType":"uint256"}],"outputs":[],"stateMutability":"nonpayable"},{"type":"function","name":"payout","inputs":[{"name":"_riddleId","type":"uint256","internalType":"uint256"},{"name":"_winners","type":"address[]","internalType":"address[]"}],"outputs":[],"stateMutability":"nonpayable"},{"type":"function","name":"prizeAmount","inputs":[],"outputs":[{"name":"","type":"uint256","internalType":"uint256"}],"stateMutability":"view"},{"type":"function","name":"prizeToken","inputs":[],"outputs":[{"name":"","type":"address","internalType":"contract IERC20"}],"stateMutability":"view"},{"type":"function","name":"prizeType","inputs":[],"outputs":[{"name":"","type":"uint8","internalType":"enum Vaultis.PrizeType"}],"stateMutability":"view"},{"type":"function","name":"purchaseRetry","inputs":[{"name":"_riddleId","type":"uint256","internalType":"uint256"}],"outputs":[],"stateMutability":"nonpayable"},{"type":"function","name":"renounceOwnership","inputs":[],"outputs":[],"stateMutability":"nonpayable"},{"type":"function","name":"retries","inputs":[{"name":"","type":"address","internalType":"address"}],"outputs":[{"name":"","type":"uint256","internalType":"uint256"}],"stateMutability":"view"},{"type":"function","name":"retryToken","inputs":[],"outputs":[{"name":"","type":"address","internalType":"contract IERC20"}],"stateMutability":"view"},{"type":"function","name":"revealDelay","inputs":[],"outputs":[{"name":"","type":"uint256","internalType":"uint256"}],"stateMutability":"view"},{"type":"function","name":"revealGuess","inputs":[{"name":"_riddleId","type":"uint256","internalType":"uint256"},{"name":"_guess","type":"string","internalType":"string"}],"outputs":[],"stateMutability":"nonpayable"},{"type":"function","name":"revealedGuessHash","inputs":[{"name":"","type":"uint256","internalType":"uint256"},{"name":"","type":"address","internalType":"address"}],"outputs":[{"name":"","type":"bytes32","internalType":"bytes32"}],"stateMutability":"view"},{"type":"function","name":"setRevealDelay","inputs":[{"name":"_newRevealDelay","type":"uint256","internalType":"uint256"}],"outputs":[],"stateMutability":"nonpayable"},{"type":"function","name":"setRiddle","inputs":[{"name":"_riddleId","type":"uint256","internalType":"uint256"},{"name":"_answerHash","type":"bytes32","internalType":"bytes32"},{"name":"_prizeType","type":"uint8","internalType":"enum Vaultis.PrizeType"},{"name":"_prizeTokenAddress","type":"address","internalType":"address"},{"name":"_prizeAmount","type":"uint256","internalType":"uint256"},{"name":"_entryFeeTokenAddress","type":"address","internalType":"address"}],"outputs":[],"stateMutability":"nonpayable"},{"type":"function","name":"solveRiddleAndClaim","inputs":[{"name":"_answer","type":"string","internalType":"string"}],"outputs":[],"stateMutability":"nonpayable"},{"type":"function","name":"submitGuess","inputs":[{"name":"_riddleId","type":"uint256","internalType":"uint256"},{"name":"_guessHash","type":"bytes32","internalType":"bytes32"}],"outputs":[],"stateMutability":"nonpayable"},{"type":"function","name":"tokenPrizePool","inputs":[],"outputs":[{"name":"","type":"uint256","internalType":"uint256"}],"stateMutability":"view"},{"type":"function","name":"transferOwnership","inputs":[{"name":"newOwner","type":"address","internalType":"address"}],"outputs":[],"stateMutability":"nonpayable"},{"type":"function","name":"winners","inputs":[{"name":"","type":"uint256","internalType":"uint256"},{"name":"","type":"uint256","internalType":"uint256"}],"outputs":[{"name":"","type":"address","internalType":"address"}],"stateMutability":"view"},{"type":"function","name":"withdraw","inputs":[{"name":"_amount","type":"uint256","internalType":"uint256"}],"outputs":[],"stateMutability":"nonpayable"},{"type":"event","name":"Deposit","inputs":[{"name":"user","type":"address","indexed":true,"internalType":"address"},{"name":"amount","type":"uint256","indexed":false,"internalType":"uint256"}],"anonymous":false},{"type":"event","name":"EntryFeeCollected","inputs":[{"name":"player","type":"address","indexed":true,"internalType":"address"},{"name":"token","type":"address","indexed":true,"internalType":"address"},{"name":"amount","type":"uint256","indexed":false,"internalType":"uint256"},{"name":"riddleId","type":"uint256","indexed":true,"internalType":"uint256"}],"anonymous":false},{"type":"event","name":"EthReceived","inputs":[{"name":"sender","type":"address","indexed":true,"internalType":"address"},{"name":"amount","type":"uint256","indexed":false,"internalType":"uint256"}],"anonymous":false},{"type":"event","name":"GuessEvaluated","inputs":[{"name":"riddleId","type":"uint256","indexed":true,"internalType":"uint256"},{"name":"player","type":"address","indexed":true,"internalType":"address"},{"name":"timestamp","type":"uint256","indexed":false,"internalType":"uint256"},{"name":"isWinner","type":"bool","indexed":false,"internalType":"bool"}],"anonymous":false},{"type":"event","name":"GuessRevealed","inputs":[{"name":"player","type":"address","indexed":true,"internalType":"address"},{"name":"riddleId","type":"uint256","indexed":true,"internalType":"uint256"},{"name":"revealedHash","type":"bytes32","indexed":false,"internalType":"bytes32"}],"anonymous":false},{"type":"event","name":"GuessSubmitted","inputs":[{"name":"player","type":"address","indexed":true,"internalType":"address"},{"name":"riddleId","type":"uint256","indexed":true,"internalType":"uint256"},{"name":"guessHash","type":"bytes32","indexed":false,"internalType":"bytes32"}],"anonymous":false},{"type":"event","name":"OwnerWithdrawTokens","inputs":[{"name":"amount","type":"uint256","indexed":false,"internalType":"uint256"}],"anonymous":false},{"type":"event","name":"OwnerWithdrawal","inputs":[{"name":"owner","type":"address","indexed":true,"internalType":"address"},{"name":"amount","type":"uint256","indexed":false,"internalType":"uint256"}],"anonymous":false},{"type":"event","name":"OwnershipTransferred","inputs":[{"name":"previousOwner","type":"address","indexed":true,"internalType":"address"},{"name":"newOwner","type":"address","indexed":true,"internalType":"address"}],"anonymous":false},{"type":"event","name":"PlayerEntered","inputs":[{"name":"player","type":"address","indexed":true,"internalType":"address"},{"name":"riddleId","type":"uint256","indexed":true,"internalType":"uint256"}],"anonymous":false},{"type":"event","name":"PrizeDistributed","inputs":[{"name":"winner","type":"address","indexed":true,"internalType":"address"},{"name":"amount","type":"uint256","indexed":false,"internalType":"uint256"},{"name":"prizeType","type":"uint8","indexed":false,"internalType":"enum Vaultis.PrizeType"}],"anonymous":false},{"type":"event","name":"PrizeFunded","inputs":[{"name":"funder","type":"address","indexed":true,"internalType":"address"},{"name":"amount","type":"uint256","indexed":false,"internalType":"uint256"},{"name":"prizeType","type":"uint8","indexed":false,"internalType":"enum Vaultis.PrizeType"}],"anonymous":false},{"type":"event","name":"RetryPurchased","inputs":[{"name":"player","type":"address","indexed":true,"internalType":"address"},{"name":"riddleId","type":"uint256","indexed":true,"internalType":"uint256"},{"name":"cost","type":"uint256","indexed":false,"internalType":"uint256"},{"name":"newRetryCount","type":"uint256","indexed":false,"internalType":"uint256"}],"anonymous":false},{"type":"event","name":"RiddleInitialized","inputs":[{"name":"riddleId","type":"uint256","indexed":true,"internalType":"uint256"},{"name":"answerHash","type":"bytes32","indexed":false,"internalType":"bytes32"},{"name":"prizeType","type":"uint8","indexed":false,"internalType":"uint8"},{"name":"prizeTokenAddress","type":"address","indexed":false,"internalType":"address"},{"name":"prizeAmount","type":"uint256","indexed":false,"internalType":"uint256"},{"name":"entryFeeTokenAddress","type":"address","indexed":false,"internalType":"address"}],"anonymous":false},{"type":"event","name":"WinnerFound","inputs":[{"name":"winner","type":"address","indexed":true,"internalType":"address"},{"name":"riddleId","type":"uint256","indexed":true,"internalType":"uint256"}],"anonymous":false},{"type":"event","name":"Withdrawal","inputs":[{"name":"user","type":"address","indexed":true,"internalType":"address"},{"name":"amount","type":"uint256","indexed":false,"internalType":"uint256"}],"anonymous":false},{"type":"error","name":"OwnableInvalidOwner","inputs":[{"name":"owner","type":"address","internalType":"address"}]},{"type":"error","name":"OwnableUnauthorizedAccount","inputs":[{"name":"account","type":"address","internalType":"address"}]},{"type":"error","name":"ReentrancyGuardReentrantCall","inputs":[]},{"type":"error","name":"SafeERC20FailedOperation","inputs":[{"name":"token","type":"address","internalType":"address"}]}],"bytecode":{"object":"0x608060405234801561000f575f5ffd5b506040516168c43803806168c4833981810160405281019061003191906103d7565b815f73ffffffffffffffffffffffffffffffffffffffff168173ffffffffffffffffffffffffffffffffffffffff16036100a2575f6040517f1e4fbdf70000000000000000000000000000000000000000000000000000000081526004016100999190610424565b60405180910390fd5b6100b1816102b860201b60201c565b50600180819055505f73ffffffffffffffffffffffffffffffffffffffff168173ffffffffffffffffffffffffffffffffffffffff1603610127576040517f08c379a000000000000000000000000000000000000000000000000000000000815260040161011e906104bd565b60405180910390fd5b5f8173ffffffffffffffffffffffffffffffffffffffff163b11610180576040517f08c379a000000000000000000000000000000000000000000000000000000000815260040161017790610525565b60405180910390fd5b8073ffffffffffffffffffffffffffffffffffffffff166318160ddd6040518163ffffffff1660e01b8152600401602060405180830381865afa9250505080156101e857506040513d601f19601f820116820180604052508101906101e59190610576565b60015b610227576040517f08c379a000000000000000000000000000000000000000000000000000000000815260040161021e90610611565b60405180910390fd5b505f60085f6101000a81548173ffffffffffffffffffffffffffffffffffffffff021916908373ffffffffffffffffffffffffffffffffffffffff160217905550610e106012819055508060095f6101000a81548173ffffffffffffffffffffffffffffffffffffffff021916908373ffffffffffffffffffffffffffffffffffffffff160217905550505061062f565b5f5f5f9054906101000a900473ffffffffffffffffffffffffffffffffffffffff169050815f5f6101000a81548173ffffffffffffffffffffffffffffffffffffffff021916908373ffffffffffffffffffffffffffffffffffffffff1602179055508173ffffffffffffffffffffffffffffffffffffffff168173ffffffffffffffffffffffffffffffffffffffff167f8be0079c531659141344cd1fd0a4f28419497f9722a3daafe3b4186f6b6457e060405160405180910390a35050565b5f5ffd5b5f73ffffffffffffffffffffffffffffffffffffffff82169050919050565b5f6103a68261037d565b9050919050565b6103b68161039c565b81146103c0575f5ffd5b50565b5f815190506103d1816103ad565b92915050565b5f5f604083850312156103ed576103ec610379565b5b5f6103fa858286016103c3565b925050602061040b858286016103c3565b9150509250929050565b61041e8161039c565b82525050565b5f6020820190506104375f830184610415565b92915050565b5f82825260208201905092915050565b7f526574727920746f6b656e20616464726573732063616e6e6f74206265207a655f8201527f726f000000000000000000000000000000000000000000000000000000000000602082015250565b5f6104a760228361043d565b91506104b28261044d565b604082019050919050565b5f6020820190508181035f8301526104d48161049b565b9050919050565b7f526574727920746f6b656e20686173206e6f20636f6e747261637420636f64655f82015250565b5f61050f60208361043d565b915061051a826104db565b602082019050919050565b5f6020820190508181035f83015261053c81610503565b9050919050565b5f819050919050565b61055581610543565b811461055f575f5ffd5b50565b5f815190506105708161054c565b92915050565b5f6020828403121561058b5761058a610379565b5b5f61059884828501610562565b91505092915050565b7f496e76616c6964204552432d323020746f6b656e20666f722072657472793a205f8201527f746f74616c537570706c792063616c6c206661696c6564000000000000000000602082015250565b5f6105fb60378361043d565b9150610606826105a1565b604082019050919050565b5f6020820190508181035f830152610628816105ef565b9050919050565b6162888061063c5f395ff3fe608060405260043610610233575f3560e01c80638da5cb5b1161012d578063d0e30db0116100aa578063ecdc6c231161006e578063ecdc6c23146108e4578063f2fde38b1461090e578063f6d361cc14610936578063f9f82e9c14610960578063fcdf8e8914610988576102e2565b8063d0e30db014610824578063d0ef024a1461082e578063dbbd324514610858578063dc663b5314610894578063e4d33ee3146108bc576102e2565b8063bdd415af116100f1578063bdd415af14610730578063c06a5fc51461076c578063c310e242146107a8578063c7cd6959146107d2578063c8e728f9146107fc576102e2565b80638da5cb5b1461063c57806395664a3d14610666578063a34398a214610690578063a68c25d8146106cc578063b7173e77146106f4576102e2565b806346ebbdb0116101bb578063715018a61161017f578063715018a61461056e578063785fa627146105845780637a11e941146105ae5780637b149763146105d6578063873f6f9e14610600576102e2565b806346ebbdb0146104a057806348b06e87146104ca57806353236d74146104f257806357aa0ea21461051c5780636097212014610546576102e2565b8063219fc38511610202578063219fc385146103c257806327e235e3146103ec5780632e1a7d4d1461042857806333f707d11461045057806343d6582b14610478576102e2565b80630efc8865146102e657806312b5afc11461032257806316b5551d1461034a578063188240cd14610386576102e2565b366102e2575f341161027a576040517f08c379a000000000000000000000000000000000000000000000000000000000815260040161027190613fa4565b60405180910390fd5b3460045f82825461028b9190613ff8565b925050819055503373ffffffffffffffffffffffffffffffffffffffff167f85177f287940f2f05425a4029951af0e047a7f9c4eaa9a6e6917bcd869f86695346040516102d8919061403a565b60405180910390a2005b5f5ffd5b3480156102f1575f5ffd5b5061030c6004803603810190610307919061408e565b6109b2565b604051610319919061410b565b60405180910390f35b34801561032d575f5ffd5b5061034860048036038101906103439190614260565b6109fa565b005b348015610355575f5ffd5b50610370600480360381019061036b91906142e4565b610f52565b60405161037d919061433c565b60405180910390f35b348015610391575f5ffd5b506103ac60048036038101906103a791906142e4565b610f7c565b6040516103b9919061436d565b60405180910390f35b3480156103cd575f5ffd5b506103d6610f9c565b6040516103e391906143e1565b60405180910390f35b3480156103f7575f5ffd5b50610412600480360381019061040d91906143fa565b610fc1565b60405161041f919061403a565b60405180910390f35b348015610433575f5ffd5b5061044e60048036038101906104499190614425565b610fd6565b005b34801561045b575f5ffd5b5061047660048036038101906104719190614425565b6111f5565b005b348015610483575f5ffd5b5061049e60048036038101906104999190614425565b6113ba565b005b3480156104ab575f5ffd5b506104b46118ec565b6040516104c1919061403a565b60405180910390f35b3480156104d5575f5ffd5b506104f060048036038101906104eb9190614425565b6118f1565b005b3480156104fd575f5ffd5b50610506611b09565b604051610513919061403a565b60405180910390f35b348015610527575f5ffd5b50610530611b0f565b60405161053d919061403a565b60405180910390f35b348015610551575f5ffd5b5061056c60048036038101906105679190614425565b611b1b565b005b348015610579575f5ffd5b50610582611cee565b005b34801561058f575f5ffd5b50610598611d01565b6040516105a5919061403a565b60405180910390f35b3480156105b9575f5ffd5b506105d460048036038101906105cf9190614425565b611d07565b005b3480156105e1575f5ffd5b506105ea61229b565b6040516105f791906143e1565b60405180910390f35b34801561060b575f5ffd5b50610626600480360381019061062191906142e4565b6122c0565b604051610633919061433c565b60405180910390f35b348015610647575f5ffd5b506106506122ea565b60405161065d919061410b565b60405180910390f35b348015610671575f5ffd5b5061067a612311565b604051610687919061403a565b60405180910390f35b34801561069b575f5ffd5b506106b660048036038101906106b191906142e4565b612317565b6040516106c3919061433c565b60405180910390f35b3480156106d7575f5ffd5b506106f260048036038101906106ed9190614425565b612341565b005b3480156106ff575f5ffd5b5061071a600480360381019061071591906142e4565b612353565b604051610727919061436d565b60405180910390f35b34801561073b575f5ffd5b50610756600480360381019061075191906142e4565b612373565b604051610763919061433c565b60405180910390f35b348015610777575f5ffd5b50610792600480360381019061078d91906142e4565b61239d565b60405161079f919061403a565b60405180910390f35b3480156107b3575f5ffd5b506107bc6123bd565b6040516107c9919061403a565b60405180910390f35b3480156107dd575f5ffd5b506107e66123c3565b6040516107f3919061410b565b60405180910390f35b348015610807575f5ffd5b50610822600480360381019061081d9190614514565b6123eb565b005b61082c6123f7565b005b348015610839575f5ffd5b506108426124ec565b60405161084f91906143e1565b60405180910390f35b348015610863575f5ffd5b5061087e600480360381019061087991906143fa565b612511565b60405161088b919061403a565b60405180910390f35b34801561089f575f5ffd5b506108ba60048036038101906108b591906145c7565b612526565b005b3480156108c7575f5ffd5b506108e260048036038101906108dd919061463c565b612931565b005b3480156108ef575f5ffd5b506108f8613040565b604051610905919061403a565b60405180910390f35b348015610919575f5ffd5b50610934600480360381019061092f91906143fa565b613046565b005b348015610941575f5ffd5b5061094a6130ca565b604051610957919061403a565b60405180910390f35b34801561096b575f5ffd5b506109866004803603810190610981919061469d565b6130d6565b005b348015610993575f5ffd5b5061099c6137c8565b6040516109a99190614799565b60405180910390f35b6014602052815f5260405f2081815481106109cb575f80fd5b905f5260205f20015f915091509054906101000a900473ffffffffffffffffffffffffffffffffffffffff1681565b610a026137db565b5f8211610a44576040517f08c379a0000000000000000000000000000000000000000000000000000000008152600401610a3b906147fc565b60405180910390fd5b6003548214610a88576040517f08c379a0000000000000000000000000000000000000000000000000000000008152600401610a7f90614864565b60405180910390fd5b600a5f8381526020019081526020015f205f3373ffffffffffffffffffffffffffffffffffffffff1673ffffffffffffffffffffffffffffffffffffffff1681526020019081526020015f205f9054906101000a900460ff16610b20576040517f08c379a0000000000000000000000000000000000000000000000000000000008152600401610b17906148cc565b60405180910390fd5b5f5f1b600e5f8481526020019081526020015f205f3373ffffffffffffffffffffffffffffffffffffffff1673ffffffffffffffffffffffffffffffffffffffff1681526020019081526020015f205403610bb0576040517f08c379a0000000000000000000000000000000000000000000000000000000008152600401610ba790614934565b60405180910390fd5b60115f8381526020019081526020015f205f3373ffffffffffffffffffffffffffffffffffffffff1673ffffffffffffffffffffffffffffffffffffffff1681526020019081526020015f205f9054906101000a900460ff1615610c49576040517f08c379a0000000000000000000000000000000000000000000000000000000008152600401610c409061499c565b60405180910390fd5b601254600f5f8481526020019081526020015f205f3373ffffffffffffffffffffffffffffffffffffffff1673ffffffffffffffffffffffffffffffffffffffff1681526020019081526020015f2054610ca39190613ff8565b421015610ce5576040517f08c379a0000000000000000000000000000000000000000000000000000000008152600401610cdc90614a04565b60405180910390fd5b5f81604051602001610cf79190614a74565b604051602081830303815290604052805190602001209050600e5f8481526020019081526020015f205f3373ffffffffffffffffffffffffffffffffffffffff1673ffffffffffffffffffffffffffffffffffffffff1681526020019081526020015f20548114610d9d576040517f08c379a0000000000000000000000000000000000000000000000000000000008152600401610d9490614ad4565b60405180910390fd5b8060105f8581526020019081526020015f205f3373ffffffffffffffffffffffffffffffffffffffff1673ffffffffffffffffffffffffffffffffffffffff1681526020019081526020015f2081905550600160115f8581526020019081526020015f205f3373ffffffffffffffffffffffffffffffffffffffff1673ffffffffffffffffffffffffffffffffffffffff1681526020019081526020015f205f6101000a81548160ff0219169083151502179055505f5f1b600e5f8581526020019081526020015f205f3373ffffffffffffffffffffffffffffffffffffffff1673ffffffffffffffffffffffffffffffffffffffff1681526020019081526020015f20819055505f600f5f8581526020019081526020015f205f3373ffffffffffffffffffffffffffffffffffffffff1673ffffffffffffffffffffffffffffffffffffffff1681526020019081526020015f2081905550823373ffffffffffffffffffffffffffffffffffffffff167f59d3b853b3060eb254d2f04ecf2d2fba8ec34ae94835cd01eedead529314f52483604051610f3d919061436d565b60405180910390a350610f4e613821565b5050565b6011602052815f5260405f20602052805f5260405f205f915091509054906101000a900460ff1681565b6010602052815f5260405f20602052805f5260405f205f91509150505481565b60095f9054906101000a900473ffffffffffffffffffffffffffffffffffffffff1681565b6002602052805f5260405f205f915090505481565b610fde6137db565b5f8111611020576040517f08c379a000000000000000000000000000000000000000000000000000000000815260040161101790614b62565b60405180910390fd5b8060025f3373ffffffffffffffffffffffffffffffffffffffff1673ffffffffffffffffffffffffffffffffffffffff1681526020019081526020015f205410156110a0576040517f08c379a000000000000000000000000000000000000000000000000000000000815260040161109790614bca565b60405180910390fd5b8060025f3373ffffffffffffffffffffffffffffffffffffffff1673ffffffffffffffffffffffffffffffffffffffff1681526020019081526020015f205f8282546110ec9190614be8565b925050819055505f3373ffffffffffffffffffffffffffffffffffffffff168260405161111890614c48565b5f6040518083038185875af1925050503d805f8114611152576040519150601f19603f3d011682016040523d82523d5f602084013e611157565b606091505b505090508061119b576040517f08c379a000000000000000000000000000000000000000000000000000000000815260040161119290614ca6565b60405180910390fd5b3373ffffffffffffffffffffffffffffffffffffffff167f7fcf532c15f0a6db0bd6d0e038bea71d30d808c7d98cb3bf7268a95bf5081b65836040516111e1919061403a565b60405180910390a2506111f2613821565b50565b6111fd61382a565b6112056137db565b5f8111611247576040517f08c379a000000000000000000000000000000000000000000000000000000000815260040161123e90614d34565b60405180910390fd5b80600454101561128c576040517f08c379a000000000000000000000000000000000000000000000000000000000815260040161128390614d9c565b60405180910390fd5b8060045f82825461129d9190614be8565b925050819055505f6112ad6122ea565b73ffffffffffffffffffffffffffffffffffffffff168262030d40906040516112d590614c48565b5f60405180830381858888f193505050503d805f8114611310576040519150601f19603f3d011682016040523d82523d5f602084013e611315565b606091505b5050905080611359576040517f08c379a000000000000000000000000000000000000000000000000000000000815260040161135090614e04565b60405180910390fd5b6113616122ea565b73ffffffffffffffffffffffffffffffffffffffff167fa919fadcfa556a012bab31b15f596ea7ccd397adbf10e15f176db9055ab361c4836040516113a6919061403a565b60405180910390a2506113b7613821565b50565b6113c26137db565b600a5f8281526020019081526020015f205f3373ffffffffffffffffffffffffffffffffffffffff1673ffffffffffffffffffffffffffffffffffffffff1681526020019081526020015f205f9054906101000a900460ff161561145b576040517f08c379a000000000000000000000000000000000000000000000000000000000815260040161145290614e92565b60405180910390fd5b600354811461149f576040517f08c379a000000000000000000000000000000000000000000000000000000000815260040161149690614864565b60405180910390fd5b5f600354116114e3576040517f08c379a00000000000000000000000000000000000000000000000000000000081526004016114da90614efa565b60405180910390fd5b80600d5f3373ffffffffffffffffffffffffffffffffffffffff1673ffffffffffffffffffffffffffffffffffffffff1681526020019081526020015f2054146115ac575f600c5f3373ffffffffffffffffffffffffffffffffffffffff1673ffffffffffffffffffffffffffffffffffffffff1681526020019081526020015f208190555080600d5f3373ffffffffffffffffffffffffffffffffffffffff1673ffffffffffffffffffffffffffffffffffffffff1681526020019081526020015f20819055505b5f670de0b6b3a76400001115611839575f60085f9054906101000a900473ffffffffffffffffffffffffffffffffffffffff1690505f73ffffffffffffffffffffffffffffffffffffffff168173ffffffffffffffffffffffffffffffffffffffff160361164f576040517f08c379a000000000000000000000000000000000000000000000000000000000815260040161164690614f62565b60405180910390fd5b5f8173ffffffffffffffffffffffffffffffffffffffff166370a08231306040518263ffffffff1660e01b8152600401611689919061410b565b602060405180830381865afa1580156116a4573d5f5f3e3d5ffd5b505050506040513d601f19601f820116820180604052508101906116c89190614f94565b90506116ff3330670de0b6b3a76400008573ffffffffffffffffffffffffffffffffffffffff166138b1909392919063ffffffff16565b5f818373ffffffffffffffffffffffffffffffffffffffff166370a08231306040518263ffffffff1660e01b815260040161173a919061410b565b602060405180830381865afa158015611755573d5f5f3e3d5ffd5b505050506040513d601f19601f820116820180604052508101906117799190614f94565b6117839190614be8565b9050670de0b6b3a764000081146117cf576040517f08c379a00000000000000000000000000000000000000000000000000000000081526004016117c69061502f565b60405180910390fd5b838373ffffffffffffffffffffffffffffffffffffffff163373ffffffffffffffffffffffffffffffffffffffff167f1f8e0e31739d887c754fcf7403fe1bdf6641ef33578b9d08631a7d5e6e9b8fb78460405161182d919061403a565b60405180910390a45050505b6001600a5f8381526020019081526020015f205f3373ffffffffffffffffffffffffffffffffffffffff1673ffffffffffffffffffffffffffffffffffffffff1681526020019081526020015f205f6101000a81548160ff021916908315150217905550803373ffffffffffffffffffffffffffffffffffffffff167fc16481c9484122696a660b57df0bf6839645c6b620cb1704ac2437de13be922560405160405180910390a36118e9613821565b50565b600381565b6118f961382a565b6119016137db565b5f8111611943576040517f08c379a000000000000000000000000000000000000000000000000000000000815260040161193a90615097565b60405180910390fd5b60018081111561195657611955614726565b5b600960149054906101000a900460ff16600181111561197857611977614726565b5b146119b8576040517f08c379a00000000000000000000000000000000000000000000000000000000081526004016119af90615125565b60405180910390fd5b5f73ffffffffffffffffffffffffffffffffffffffff1660055f9054906101000a900473ffffffffffffffffffffffffffffffffffffffff1673ffffffffffffffffffffffffffffffffffffffff1603611a47576040517f08c379a0000000000000000000000000000000000000000000000000000000008152600401611a3e9061518d565b60405180910390fd5b611a9533308360055f9054906101000a900473ffffffffffffffffffffffffffffffffffffffff1673ffffffffffffffffffffffffffffffffffffffff166138b1909392919063ffffffff16565b8060065f828254611aa69190613ff8565b925050819055503373ffffffffffffffffffffffffffffffffffffffff167f4708e702157b1eb6cd00a772e6a623599ac7dc0bad76e8c624fdef050b434f09826001604051611af69291906151ab565b60405180910390a2611b06613821565b50565b60125481565b67016345785d8a000081565b611b2361382a565b611b2b6137db565b5f8111611b6d576040517f08c379a0000000000000000000000000000000000000000000000000000000008152600401611b6490615242565b60405180910390fd5b806006541015611bb2576040517f08c379a0000000000000000000000000000000000000000000000000000000008152600401611ba9906152aa565b60405180910390fd5b5f73ffffffffffffffffffffffffffffffffffffffff1660055f9054906101000a900473ffffffffffffffffffffffffffffffffffffffff1673ffffffffffffffffffffffffffffffffffffffff1603611c41576040517f08c379a0000000000000000000000000000000000000000000000000000000008152600401611c389061518d565b60405180910390fd5b8060065f828254611c529190614be8565b92505081905550611cac611c646122ea565b8260055f9054906101000a900473ffffffffffffffffffffffffffffffffffffffff1673ffffffffffffffffffffffffffffffffffffffff166139339092919063ffffffff16565b7f560c2b6d9212838c63f631c64ebc9d7364da90f9af3fdec847c0725dd18330c881604051611cdb919061403a565b60405180910390a1611ceb613821565b50565b611cf661382a565b611cff5f6139b2565b565b60075481565b611d0f6137db565b6003548114611d53576040517f08c379a0000000000000000000000000000000000000000000000000000000008152600401611d4a90614864565b60405180910390fd5b600a5f8281526020019081526020015f205f3373ffffffffffffffffffffffffffffffffffffffff1673ffffffffffffffffffffffffffffffffffffffff1681526020019081526020015f205f9054906101000a900460ff16611deb576040517f08c379a0000000000000000000000000000000000000000000000000000000008152600401611de290615338565b60405180910390fd5b5f73ffffffffffffffffffffffffffffffffffffffff1660095f9054906101000a900473ffffffffffffffffffffffffffffffffffffffff1673ffffffffffffffffffffffffffffffffffffffff1603611e7a576040517f08c379a0000000000000000000000000000000000000000000000000000000008152600401611e71906153a0565b60405180910390fd5b6003600c5f3373ffffffffffffffffffffffffffffffffffffffff1673ffffffffffffffffffffffffffffffffffffffff1681526020019081526020015f205410611efa576040517f08c379a0000000000000000000000000000000000000000000000000000000008152600401611ef190615408565b60405180910390fd5b80600d5f3373ffffffffffffffffffffffffffffffffffffffff1673ffffffffffffffffffffffffffffffffffffffff1681526020019081526020015f205414611fc3575f600c5f3373ffffffffffffffffffffffffffffffffffffffff1673ffffffffffffffffffffffffffffffffffffffff1681526020019081526020015f208190555080600d5f3373ffffffffffffffffffffffffffffffffffffffff1673ffffffffffffffffffffffffffffffffffffffff1681526020019081526020015f20819055505b5f60095f9054906101000a900473ffffffffffffffffffffffffffffffffffffffff1673ffffffffffffffffffffffffffffffffffffffff166370a08231306040518263ffffffff1660e01b815260040161201e919061410b565b602060405180830381865afa158015612039573d5f5f3e3d5ffd5b505050506040513d601f19601f8201168201806040525081019061205d9190614f94565b90506120b5333067016345785d8a000060095f9054906101000a900473ffffffffffffffffffffffffffffffffffffffff1673ffffffffffffffffffffffffffffffffffffffff166138b1909392919063ffffffff16565b5f8160095f9054906101000a900473ffffffffffffffffffffffffffffffffffffffff1673ffffffffffffffffffffffffffffffffffffffff166370a08231306040518263ffffffff1660e01b8152600401612111919061410b565b602060405180830381865afa15801561212c573d5f5f3e3d5ffd5b505050506040513d601f19601f820116820180604052508101906121509190614f94565b61215a9190614be8565b905067016345785d8a000081146121a6576040517f08c379a000000000000000000000000000000000000000000000000000000000815260040161219d90615496565b60405180910390fd5b600c5f3373ffffffffffffffffffffffffffffffffffffffff1673ffffffffffffffffffffffffffffffffffffffff1681526020019081526020015f205f8154809291906121f3906154b4565b9190505550823373ffffffffffffffffffffffffffffffffffffffff167f98afd9c8b4874dc0b797b810a6a8488429aea97e225fc6e70d948f77660fbee767016345785d8a0000600c5f3373ffffffffffffffffffffffffffffffffffffffff1673ffffffffffffffffffffffffffffffffffffffff1681526020019081526020015f20546040516122869291906154fb565b60405180910390a35050612298613821565b50565b60085f9054906101000a900473ffffffffffffffffffffffffffffffffffffffff1681565b600b602052815f5260405f20602052805f5260405f205f915091509054906101000a900460ff1681565b5f5f5f9054906101000a900473ffffffffffffffffffffffffffffffffffffffff16905090565b60045481565b600a602052815f5260405f20602052805f5260405f205f915091509054906101000a900460ff1681565b61234961382a565b8060128190555050565b600e602052815f5260405f20602052805f5260405f205f91509150505481565b6015602052815f5260405f20602052805f5260405f205f915091509054906101000a900460ff1681565b600f602052815f5260405f20602052805f5260405f205f91509150505481565b60065481565b5f60055f9054906101000a900473ffffffffffffffffffffffffffffffffffffffff16905090565b6123f361382a565b5050565b6123ff6137db565b5f3411612441576040517f08c379a000000000000000000000000000000000000000000000000000000000815260040161243890615592565b60405180910390fd5b3460025f3373ffffffffffffffffffffffffffffffffffffffff1673ffffffffffffffffffffffffffffffffffffffff1681526020019081526020015f205f82825461248d9190613ff8565b925050819055503373ffffffffffffffffffffffffffffffffffffffff167fe1fffcc4923d04b559f4d29a8bfc6cda04eb5b0d3c460751c2402c5c5cc9109c346040516124da919061403a565b60405180910390a26124ea613821565b565b60055f9054906101000a900473ffffffffffffffffffffffffffffffffffffffff1681565b600c602052805f5260405f205f915090505481565b61252e6137db565b5f60035411612572576040517f08c379a000000000000000000000000000000000000000000000000000000000815260040161256990614efa565b60405180910390fd5b600a5f60035481526020019081526020015f205f3373ffffffffffffffffffffffffffffffffffffffff1673ffffffffffffffffffffffffffffffffffffffff1681526020019081526020015f205f9054906101000a900460ff1661260c576040517f08c379a0000000000000000000000000000000000000000000000000000000008152600401612603906148cc565b60405180910390fd5b600b5f60035481526020019081526020015f205f3373ffffffffffffffffffffffffffffffffffffffff1673ffffffffffffffffffffffffffffffffffffffff1681526020019081526020015f205f9054906101000a900460ff16156126a7576040517f08c379a000000000000000000000000000000000000000000000000000000000815260040161269e906155fa565b60405180910390fd5b60115f60035481526020019081526020015f205f3373ffffffffffffffffffffffffffffffffffffffff1673ffffffffffffffffffffffffffffffffffffffff1681526020019081526020015f205f9054906101000a900460ff16612741576040517f08c379a000000000000000000000000000000000000000000000000000000000815260040161273890615662565b60405180910390fd5b81816040516020016127549291906156a4565b6040516020818303038152906040528051906020012060105f60035481526020019081526020015f205f3373ffffffffffffffffffffffffffffffffffffffff1673ffffffffffffffffffffffffffffffffffffffff1681526020019081526020015f2054146127f9576040517f08c379a00000000000000000000000000000000000000000000000000000000081526004016127f09061572c565b60405180910390fd5b6001600b5f60035481526020019081526020015f205f3373ffffffffffffffffffffffffffffffffffffffff1673ffffffffffffffffffffffffffffffffffffffff1681526020019081526020015f205f6101000a81548160ff02191690831515021790555061286b33600754613a73565b5f5f1b60105f60035481526020019081526020015f205f3373ffffffffffffffffffffffffffffffffffffffff1673ffffffffffffffffffffffffffffffffffffffff1681526020019081526020015f20819055505f60115f60035481526020019081526020015f205f3373ffffffffffffffffffffffffffffffffffffffff1673ffffffffffffffffffffffffffffffffffffffff1681526020019081526020015f205f6101000a81548160ff02191690831515021790555061292d613821565b5050565b6129396137db565b5f821161297b576040517f08c379a0000000000000000000000000000000000000000000000000000000008152600401612972906147fc565b60405180910390fd5b60035482146129bf576040517f08c379a00000000000000000000000000000000000000000000000000000000081526004016129b690614864565b60405180910390fd5b5f5f1b8103612a03576040517f08c379a00000000000000000000000000000000000000000000000000000000081526004016129fa90615794565b60405180910390fd5b600a5f8381526020019081526020015f205f3373ffffffffffffffffffffffffffffffffffffffff1673ffffffffffffffffffffffffffffffffffffffff1681526020019081526020015f205f9054906101000a900460ff16612a9b576040517f08c379a0000000000000000000000000000000000000000000000000000000008152600401612a92906148cc565b60405180910390fd5b5f5f1b600e5f8481526020019081526020015f205f3373ffffffffffffffffffffffffffffffffffffffff1673ffffffffffffffffffffffffffffffffffffffff1681526020019081526020015f205414612d1c575f600c5f3373ffffffffffffffffffffffffffffffffffffffff1673ffffffffffffffffffffffffffffffffffffffff1681526020019081526020015f205411612b6f576040517f08c379a0000000000000000000000000000000000000000000000000000000008152600401612b66906157fc565b60405180910390fd5b600c5f3373ffffffffffffffffffffffffffffffffffffffff1673ffffffffffffffffffffffffffffffffffffffff1681526020019081526020015f205f815480929190612bbc9061581a565b91905055505f5f1b600e5f8481526020019081526020015f205f3373ffffffffffffffffffffffffffffffffffffffff1673ffffffffffffffffffffffffffffffffffffffff1681526020019081526020015f20819055505f600f5f8481526020019081526020015f205f3373ffffffffffffffffffffffffffffffffffffffff1673ffffffffffffffffffffffffffffffffffffffff1681526020019081526020015f20819055505f5f1b60105f8481526020019081526020015f205f3373ffffffffffffffffffffffffffffffffffffffff1673ffffffffffffffffffffffffffffffffffffffff1681526020019081526020015f20819055505f60115f8481526020019081526020015f205f3373ffffffffffffffffffffffffffffffffffffffff1673ffffffffffffffffffffffffffffffffffffffff1681526020019081526020015f205f6101000a81548160ff0219169083151502179055505b6013548103612ef15760155f8381526020019081526020015f205f3373ffffffffffffffffffffffffffffffffffffffff1673ffffffffffffffffffffffffffffffffffffffff1681526020019081526020015f205f9054906101000a900460ff16612e9a5760145f8381526020019081526020015f2033908060018154018082558091505060019003905f5260205f20015f9091909190916101000a81548173ffffffffffffffffffffffffffffffffffffffff021916908373ffffffffffffffffffffffffffffffffffffffff160217905550600160155f8481526020019081526020015f205f3373ffffffffffffffffffffffffffffffffffffffff1673ffffffffffffffffffffffffffffffffffffffff1681526020019081526020015f205f6101000a81548160ff021916908315150217905550813373ffffffffffffffffffffffffffffffffffffffff167fb5d93c368c4bd18876654db9fd5dcef5a3583ccde4d81659e7f309f36c84490560405160405180910390a35b3373ffffffffffffffffffffffffffffffffffffffff16827f6dbad7911810fc45c016aff41534b7adcd5477454a9b5be0d995a93518cde675426001604051612ee4929190615841565b60405180910390a3612f43565b3373ffffffffffffffffffffffffffffffffffffffff16827f6dbad7911810fc45c016aff41534b7adcd5477454a9b5be0d995a93518cde675425f604051612f3a929190615841565b60405180910390a35b80600e5f8481526020019081526020015f205f3373ffffffffffffffffffffffffffffffffffffffff1673ffffffffffffffffffffffffffffffffffffffff1681526020019081526020015f208190555042600f5f8481526020019081526020015f205f3373ffffffffffffffffffffffffffffffffffffffff1673ffffffffffffffffffffffffffffffffffffffff1681526020019081526020015f2081905550813373ffffffffffffffffffffffffffffffffffffffff167fc5009e6865ae04f58da43f80d7eb9718a2f25a7ccfeb22a8ca0031e77b86b50a8360405161302c919061436d565b60405180910390a361303c613821565b5050565b60035481565b61304e61382a565b5f73ffffffffffffffffffffffffffffffffffffffff168173ffffffffffffffffffffffffffffffffffffffff16036130be575f6040517f1e4fbdf70000000000000000000000000000000000000000000000000000000081526004016130b5919061410b565b60405180910390fd5b6130c7816139b2565b50565b670de0b6b3a764000081565b6130de61382a565b5f8611613120576040517f08c379a0000000000000000000000000000000000000000000000000000000008152600401613117906147fc565b60405180910390fd5b6003548611613164576040517f08c379a000000000000000000000000000000000000000000000000000000000815260040161315b906158d8565b60405180910390fd5b5f82116131a6576040517f08c379a000000000000000000000000000000000000000000000000000000000815260040161319d90615966565b60405180910390fd5b6001808111156131b9576131b8614726565b5b8460018111156131cc576131cb614726565b5b03613385575f73ffffffffffffffffffffffffffffffffffffffff168373ffffffffffffffffffffffffffffffffffffffff160361323f576040517f08c379a0000000000000000000000000000000000000000000000000000000008152600401613236906159f4565b60405180910390fd5b5f8373ffffffffffffffffffffffffffffffffffffffff163b11613298576040517f08c379a000000000000000000000000000000000000000000000000000000000815260040161328f90615a5c565b60405180910390fd5b8273ffffffffffffffffffffffffffffffffffffffff166318160ddd6040518163ffffffff1660e01b8152600401602060405180830381865afa92505050801561330057506040513d601f19601f820116820180604052508101906132fd9190614f94565b60015b61333f576040517f08c379a000000000000000000000000000000000000000000000000000000000815260040161333690615aea565b60405180910390fd5b508260055f6101000a81548173ffffffffffffffffffffffffffffffffffffffff021916908373ffffffffffffffffffffffffffffffffffffffff160217905550613434565b5f73ffffffffffffffffffffffffffffffffffffffff168373ffffffffffffffffffffffffffffffffffffffff16146133f3576040517f08c379a00000000000000000000000000000000000000000000000000000000081526004016133ea90615b78565b60405180910390fd5b5f60055f6101000a81548173ffffffffffffffffffffffffffffffffffffffff021916908373ffffffffffffffffffffffffffffffffffffffff1602179055505b5f670de0b6b3a764000011156135f8575f73ffffffffffffffffffffffffffffffffffffffff168173ffffffffffffffffffffffffffffffffffffffff16036134b2576040517f08c379a00000000000000000000000000000000000000000000000000000000081526004016134a990615c2c565b60405180910390fd5b5f8173ffffffffffffffffffffffffffffffffffffffff163b1161350b576040517f08c379a000000000000000000000000000000000000000000000000000000000815260040161350290615cba565b60405180910390fd5b8073ffffffffffffffffffffffffffffffffffffffff166318160ddd6040518163ffffffff1660e01b8152600401602060405180830381865afa92505050801561357357506040513d601f19601f820116820180604052508101906135709190614f94565b60015b6135b2576040517f08c379a00000000000000000000000000000000000000000000000000000000081526004016135a990615d48565b60405180910390fd5b508060085f6101000a81548173ffffffffffffffffffffffffffffffffffffffff021916908373ffffffffffffffffffffffffffffffffffffffff1602179055506136a7565b5f73ffffffffffffffffffffffffffffffffffffffff168173ffffffffffffffffffffffffffffffffffffffff1614613666576040517f08c379a000000000000000000000000000000000000000000000000000000000815260040161365d90615dd6565b60405180910390fd5b5f60085f6101000a81548173ffffffffffffffffffffffffffffffffffffffff021916908373ffffffffffffffffffffffffffffffffffffffff1602179055505b5f600454146136eb576040517f08c379a00000000000000000000000000000000000000000000000000000000081526004016136e290615e64565b60405180910390fd5b5f6006541461372f576040517f08c379a000000000000000000000000000000000000000000000000000000000815260040161372690615ef2565b60405180910390fd5b856003819055508460138190555083600960146101000a81548160ff0219169083600181111561376257613761614726565b5b021790555081600781905550857f05227007ca99c4e41f51fb024dcb2065e16bd026db353ce7f322e5cdb4fb2e9d868660018111156137a4576137a3614726565b5b8686866040516137b8959493929190615f2b565b60405180910390a2505050505050565b600960149054906101000a900460ff1681565b600260015403613817576040517f3ee5aeb500000000000000000000000000000000000000000000000000000000815260040160405180910390fd5b6002600181905550565b60018081905550565b613832613e82565b73ffffffffffffffffffffffffffffffffffffffff166138506122ea565b73ffffffffffffffffffffffffffffffffffffffff16146138af57613873613e82565b6040517f118cdaa70000000000000000000000000000000000000000000000000000000081526004016138a6919061410b565b60405180910390fd5b565b61392d848573ffffffffffffffffffffffffffffffffffffffff166323b872dd8686866040516024016138e693929190615f7c565b604051602081830303815290604052915060e01b6020820180517bffffffffffffffffffffffffffffffffffffffffffffffffffffffff8381831617835250505050613e89565b50505050565b6139ad838473ffffffffffffffffffffffffffffffffffffffff1663a9059cbb8585604051602401613966929190615fb1565b604051602081830303815290604052915060e01b6020820180517bffffffffffffffffffffffffffffffffffffffffffffffffffffffff8381831617835250505050613e89565b505050565b5f5f5f9054906101000a900473ffffffffffffffffffffffffffffffffffffffff169050815f5f6101000a81548173ffffffffffffffffffffffffffffffffffffffff021916908373ffffffffffffffffffffffffffffffffffffffff1602179055508173ffffffffffffffffffffffffffffffffffffffff168173ffffffffffffffffffffffffffffffffffffffff167f8be0079c531659141344cd1fd0a4f28419497f9722a3daafe3b4186f6b6457e060405160405180910390a35050565b5f73ffffffffffffffffffffffffffffffffffffffff168273ffffffffffffffffffffffffffffffffffffffff1603613ae1576040517f08c379a0000000000000000000000000000000000000000000000000000000008152600401613ad890616022565b60405180910390fd5b5f8111613b23576040517f08c379a0000000000000000000000000000000000000000000000000000000008152600401613b1a90615966565b60405180910390fd5b5f6001811115613b3657613b35614726565b5b600960149054906101000a900460ff166001811115613b5857613b57614726565b5b03613cab57806004541015613ba2576040517f08c379a0000000000000000000000000000000000000000000000000000000008152600401613b99906160b0565b60405180910390fd5b80471015613be5576040517f08c379a0000000000000000000000000000000000000000000000000000000008152600401613bdc9061613e565b60405180910390fd5b8060045f828254613bf69190614be8565b925050819055505f8273ffffffffffffffffffffffffffffffffffffffff1682604051613c2290614c48565b5f6040518083038185875af1925050503d805f8114613c5c576040519150601f19603f3d011682016040523d82523d5f602084013e613c61565b606091505b5050905080613ca5576040517f08c379a0000000000000000000000000000000000000000000000000000000008152600401613c9c906161a6565b60405180910390fd5b50613e1f565b600180811115613cbe57613cbd614726565b5b600960149054906101000a900460ff166001811115613ce057613cdf614726565b5b03613e1e575f73ffffffffffffffffffffffffffffffffffffffff1660055f9054906101000a900473ffffffffffffffffffffffffffffffffffffffff1673ffffffffffffffffffffffffffffffffffffffff1603613d74576040517f08c379a0000000000000000000000000000000000000000000000000000000008152600401613d6b9061518d565b60405180910390fd5b806006541015613db9576040517f08c379a0000000000000000000000000000000000000000000000000000000008152600401613db090616234565b60405180910390fd5b8060065f828254613dca9190614be8565b92505081905550613e1d828260055f9054906101000a900473ffffffffffffffffffffffffffffffffffffffff1673ffffffffffffffffffffffffffffffffffffffff166139339092919063ffffffff16565b5b5b8173ffffffffffffffffffffffffffffffffffffffff167fff43c2705b2225c1c9d9d58f088ab64d4fc767737dee523bed37f15fb0c6c3de82600960149054906101000a900460ff16604051613e769291906151ab565b60405180910390a25050565b5f33905090565b5f5f60205f8451602086015f885af180613ea8576040513d5f823e3d81fd5b3d92505f519150505f8214613ec1576001811415613edc565b5f8473ffffffffffffffffffffffffffffffffffffffff163b145b15613f1e57836040517f5274afe7000000000000000000000000000000000000000000000000000000008152600401613f15919061410b565b60405180910390fd5b50505050565b5f82825260208201905092915050565b7f45544820616d6f756e74206d7573742062652067726561746572207468616e205f8201527f7a65726f00000000000000000000000000000000000000000000000000000000602082015250565b5f613f8e602483613f24565b9150613f9982613f34565b604082019050919050565b5f6020820190508181035f830152613fbb81613f82565b9050919050565b5f819050919050565b7f4e487b71000000000000000000000000000000000000000000000000000000005f52601160045260245ffd5b5f61400282613fc2565b915061400d83613fc2565b925082820190508082111561402557614024613fcb565b5b92915050565b61403481613fc2565b82525050565b5f60208201905061404d5f83018461402b565b92915050565b5f604051905090565b5f5ffd5b5f5ffd5b61406d81613fc2565b8114614077575f5ffd5b50565b5f8135905061408881614064565b92915050565b5f5f604083850312156140a4576140a361405c565b5b5f6140b18582860161407a565b92505060206140c28582860161407a565b9150509250929050565b5f73ffffffffffffffffffffffffffffffffffffffff82169050919050565b5f6140f5826140cc565b9050919050565b614105816140eb565b82525050565b5f60208201905061411e5f8301846140fc565b92915050565b5f5ffd5b5f5ffd5b5f601f19601f8301169050919050565b7f4e487b71000000000000000000000000000000000000000000000000000000005f52604160045260245ffd5b6141728261412c565b810181811067ffffffffffffffff821117156141915761419061413c565b5b80604052505050565b5f6141a3614053565b90506141af8282614169565b919050565b5f67ffffffffffffffff8211156141ce576141cd61413c565b5b6141d78261412c565b9050602081019050919050565b828183375f83830152505050565b5f6142046141ff846141b4565b61419a565b9050828152602081018484840111156142205761421f614128565b5b61422b8482856141e4565b509392505050565b5f82601f83011261424757614246614124565b5b81356142578482602086016141f2565b91505092915050565b5f5f604083850312156142765761427561405c565b5b5f6142838582860161407a565b925050602083013567ffffffffffffffff8111156142a4576142a3614060565b5b6142b085828601614233565b9150509250929050565b6142c3816140eb565b81146142cd575f5ffd5b50565b5f813590506142de816142ba565b92915050565b5f5f604083850312156142fa576142f961405c565b5b5f6143078582860161407a565b9250506020614318858286016142d0565b9150509250929050565b5f8115159050919050565b61433681614322565b82525050565b5f60208201905061434f5f83018461432d565b92915050565b5f819050919050565b61436781614355565b82525050565b5f6020820190506143805f83018461435e565b92915050565b5f819050919050565b5f6143a96143a461439f846140cc565b614386565b6140cc565b9050919050565b5f6143ba8261438f565b9050919050565b5f6143cb826143b0565b9050919050565b6143db816143c1565b82525050565b5f6020820190506143f45f8301846143d2565b92915050565b5f6020828403121561440f5761440e61405c565b5b5f61441c848285016142d0565b91505092915050565b5f6020828403121561443a5761443961405c565b5b5f6144478482850161407a565b91505092915050565b5f67ffffffffffffffff82111561446a5761446961413c565b5b602082029050602081019050919050565b5f5ffd5b5f61449161448c84614450565b61419a565b905080838252602082019050602084028301858111156144b4576144b361447b565b5b835b818110156144dd57806144c988826142d0565b8452602084019350506020810190506144b6565b5050509392505050565b5f82601f8301126144fb576144fa614124565b5b813561450b84826020860161447f565b91505092915050565b5f5f6040838503121561452a5761452961405c565b5b5f6145378582860161407a565b925050602083013567ffffffffffffffff81111561455857614557614060565b5b614564858286016144e7565b9150509250929050565b5f5ffd5b5f5f83601f84011261458757614586614124565b5b8235905067ffffffffffffffff8111156145a4576145a361456e565b5b6020830191508360018202830111156145c0576145bf61447b565b5b9250929050565b5f5f602083850312156145dd576145dc61405c565b5b5f83013567ffffffffffffffff8111156145fa576145f9614060565b5b61460685828601614572565b92509250509250929050565b61461b81614355565b8114614625575f5ffd5b50565b5f8135905061463681614612565b92915050565b5f5f604083850312156146525761465161405c565b5b5f61465f8582860161407a565b925050602061467085828601614628565b9150509250929050565b60028110614686575f5ffd5b50565b5f813590506146978161467a565b92915050565b5f5f5f5f5f5f60c087890312156146b7576146b661405c565b5b5f6146c489828a0161407a565b96505060206146d589828a01614628565b95505060406146e689828a01614689565b94505060606146f789828a016142d0565b935050608061470889828a0161407a565b92505060a061471989828a016142d0565b9150509295509295509295565b7f4e487b71000000000000000000000000000000000000000000000000000000005f52602160045260245ffd5b6002811061476457614763614726565b5b50565b5f81905061477482614753565b919050565b5f61478382614767565b9050919050565b61479381614779565b82525050565b5f6020820190506147ac5f83018461478a565b92915050565b7f526964646c652049442063616e6e6f74206265207a65726f00000000000000005f82015250565b5f6147e6601883613f24565b91506147f1826147b2565b602082019050919050565b5f6020820190508181035f830152614813816147da565b9050919050565b7f4e6f74207468652061637469766520726964646c6520494400000000000000005f82015250565b5f61484e601883613f24565b91506148598261481a565b602082019050919050565b5f6020820190508181035f83015261487b81614842565b9050919050565b7f4d75737420656e746572207468652067616d65206669727374000000000000005f82015250565b5f6148b6601983613f24565b91506148c182614882565b602082019050919050565b5f6020820190508181035f8301526148e3816148aa565b9050919050565b7f4e6f20636f6d6d697474656420677565737300000000000000000000000000005f82015250565b5f61491e601283613f24565b9150614929826148ea565b602082019050919050565b5f6020820190508181035f83015261494b81614912565b9050919050565b7f416c72656164792072657665616c6564000000000000000000000000000000005f82015250565b5f614986601083613f24565b915061499182614952565b602082019050919050565b5f6020820190508181035f8301526149b38161497a565b9050919050565b7f52657665616c20746f6f206561726c79000000000000000000000000000000005f82015250565b5f6149ee601083613f24565b91506149f9826149ba565b602082019050919050565b5f6020820190508181035f830152614a1b816149e2565b9050919050565b5f81519050919050565b5f81905092915050565b8281835e5f83830152505050565b5f614a4e82614a22565b614a588185614a2c565b9350614a68818560208601614a36565b80840191505092915050565b5f614a7f8284614a44565b915081905092915050565b7f52657665616c20646f6573206e6f74206d6174636820636f6d6d6974000000005f82015250565b5f614abe601c83613f24565b9150614ac982614a8a565b602082019050919050565b5f6020820190508181035f830152614aeb81614ab2565b9050919050565b7f5769746864726177616c20616d6f756e74206d757374206265206772656174655f8201527f72207468616e207a65726f000000000000000000000000000000000000000000602082015250565b5f614b4c602b83613f24565b9150614b5782614af2565b604082019050919050565b5f6020820190508181035f830152614b7981614b40565b9050919050565b7f496e73756666696369656e742062616c616e63650000000000000000000000005f82015250565b5f614bb4601483613f24565b9150614bbf82614b80565b602082019050919050565b5f6020820190508181035f830152614be181614ba8565b9050919050565b5f614bf282613fc2565b9150614bfd83613fc2565b9250828203905081811115614c1557614c14613fcb565b5b92915050565b5f81905092915050565b50565b5f614c335f83614c1b565b9150614c3e82614c25565b5f82019050919050565b5f614c5282614c28565b9150819050919050565b7f5769746864726177616c206661696c65640000000000000000000000000000005f82015250565b5f614c90601183613f24565b9150614c9b82614c5c565b602082019050919050565b5f6020820190508181035f830152614cbd81614c84565b9050919050565b7f4f776e6572207769746864726177616c20616d6f756e74206d757374206265205f8201527f67726561746572207468616e207a65726f000000000000000000000000000000602082015250565b5f614d1e603183613f24565b9150614d2982614cc4565b604082019050919050565b5f6020820190508181035f830152614d4b81614d12565b9050919050565b7f496e73756666696369656e7420455448207072697a6520706f6f6c00000000005f82015250565b5f614d86601b83613f24565b9150614d9182614d52565b602082019050919050565b5f6020820190508181035f830152614db381614d7a565b9050919050565b7f4f776e6572207769746864726177616c206661696c65640000000000000000005f82015250565b5f614dee601783613f24565b9150614df982614dba565b602082019050919050565b5f6020820190508181035f830152614e1b81614de2565b9050919050565b7f416c72656164792070617274696369706174656420696e2074686973207269645f8201527f646c650000000000000000000000000000000000000000000000000000000000602082015250565b5f614e7c602383613f24565b9150614e8782614e22565b604082019050919050565b5f6020820190508181035f830152614ea981614e70565b9050919050565b7f4e6f2061637469766520726964646c65000000000000000000000000000000005f82015250565b5f614ee4601083613f24565b9150614eef82614eb0565b602082019050919050565b5f6020820190508181035f830152614f1181614ed8565b9050919050565b7f456e7472792066656520746f6b656e206e6f74207365740000000000000000005f82015250565b5f614f4c601783613f24565b9150614f5782614f18565b602082019050919050565b5f6020820190508181035f830152614f7981614f40565b9050919050565b5f81519050614f8e81614064565b92915050565b5f60208284031215614fa957614fa861405c565b5b5f614fb684828501614f80565b91505092915050565b7f456e74727920666565206d69736d617463682028464f54206e6f7420737570705f8201527f6f72746564290000000000000000000000000000000000000000000000000000602082015250565b5f615019602683613f24565b915061502482614fbf565b604082019050919050565b5f6020820190508181035f8301526150468161500d565b9050919050565b7f416d6f756e74206d7573742062652067726561746572207468616e207a65726f5f82015250565b5f615081602083613f24565b915061508c8261504d565b602082019050919050565b5f6020820190508181035f8301526150ae81615075565b9050919050565b7f43757272656e7420726964646c65207072697a65206973206e6f7420455243325f8201527f3000000000000000000000000000000000000000000000000000000000000000602082015250565b5f61510f602183613f24565b915061511a826150b5565b604082019050919050565b5f6020820190508181035f83015261513c81615103565b9050919050565b7f5072697a6520746f6b656e206e6f7420736574000000000000000000000000005f82015250565b5f615177601383613f24565b915061518282615143565b602082019050919050565b5f6020820190508181035f8301526151a48161516b565b9050919050565b5f6040820190506151be5f83018561402b565b6151cb602083018461478a565b9392505050565b7f4f776e657220746f6b656e207769746864726177616c20616d6f756e74206d755f8201527f73742062652067726561746572207468616e207a65726f000000000000000000602082015250565b5f61522c603783613f24565b9150615237826151d2565b604082019050919050565b5f6020820190508181035f83015261525981615220565b9050919050565b7f496e73756666696369656e7420746f6b656e207072697a6520706f6f6c0000005f82015250565b5f615294601d83613f24565b915061529f82615260565b602082019050919050565b5f6020820190508181035f8301526152c181615288565b9050919050565b7f4d75737420706172746963697061746520696e2074686520726964646c6520665f8201527f6972737400000000000000000000000000000000000000000000000000000000602082015250565b5f615322602483613f24565b915061532d826152c8565b604082019050919050565b5f6020820190508181035f83015261534f81615316565b9050919050565b7f526574727920746f6b656e206e6f7420736574000000000000000000000000005f82015250565b5f61538a601383613f24565b915061539582615356565b602082019050919050565b5f6020820190508181035f8301526153b78161537e565b9050919050565b7f4d617820726574726965732072656163686564000000000000000000000000005f82015250565b5f6153f2601383613f24565b91506153fd826153be565b602082019050919050565b5f6020820190508181035f83015261541f816153e6565b9050919050565b7f526574727920636f7374206d69736d617463682028464f54206e6f74207375705f8201527f706f727465642900000000000000000000000000000000000000000000000000602082015250565b5f615480602783613f24565b915061548b82615426565b604082019050919050565b5f6020820190508181035f8301526154ad81615474565b9050919050565b5f6154be82613fc2565b91507fffffffffffffffffffffffffffffffffffffffffffffffffffffffffffffffff82036154f0576154ef613fcb565b5b600182019050919050565b5f60408201905061550e5f83018561402b565b61551b602083018461402b565b9392505050565b7f4465706f73697420616d6f756e74206d757374206265206772656174657220745f8201527f68616e207a65726f000000000000000000000000000000000000000000000000602082015250565b5f61557c602883613f24565b915061558782615522565b604082019050919050565b5f6020820190508181035f8301526155a981615570565b9050919050565b7f416c726561647920636c61696d656400000000000000000000000000000000005f82015250565b5f6155e4600f83613f24565b91506155ef826155b0565b602082019050919050565b5f6020820190508181035f830152615611816155d8565b9050919050565b7f4d7573742072657665616c206775657373206265666f726520736f6c76696e675f82015250565b5f61564c602083613f24565b915061565782615618565b602082019050919050565b5f6020820190508181035f83015261567981615640565b9050919050565b5f61568b8385614a2c565b93506156988385846141e4565b82840190509392505050565b5f6156b0828486615680565b91508190509392505050565b7f52657665616c656420677565737320646f6573206e6f74206d617463682070725f8201527f6f766964656420616e7377657200000000000000000000000000000000000000602082015250565b5f615716602d83613f24565b9150615721826156bc565b604082019050919050565b5f6020820190508181035f8301526157438161570a565b9050919050565b7f477565737320686173682063616e6e6f74206265207a65726f000000000000005f82015250565b5f61577e601983613f24565b91506157898261574a565b602082019050919050565b5f6020820190508181035f8301526157ab81615772565b9050919050565b7f4e6f207265747269657320617661696c61626c650000000000000000000000005f82015250565b5f6157e6601483613f24565b91506157f1826157b2565b602082019050919050565b5f6020820190508181035f830152615813816157da565b9050919050565b5f61582482613fc2565b91505f820361583657615835613fcb565b5b600182039050919050565b5f6040820190506158545f83018561402b565b615861602083018461432d565b9392505050565b7f526964646c65204944206d7573742062652067726561746572207468616e20635f8201527f757272656e740000000000000000000000000000000000000000000000000000602082015250565b5f6158c2602683613f24565b91506158cd82615868565b604082019050919050565b5f6020820190508181035f8301526158ef816158b6565b9050919050565b7f5072697a6520616d6f756e74206d7573742062652067726561746572207468615f8201527f6e207a65726f0000000000000000000000000000000000000000000000000000602082015250565b5f615950602683613f24565b915061595b826158f6565b604082019050919050565b5f6020820190508181035f83015261597d81615944565b9050919050565b7f5072697a6520746f6b656e20616464726573732063616e6e6f74206265207a655f8201527f726f20666f72204552433230207072697a650000000000000000000000000000602082015250565b5f6159de603283613f24565b91506159e982615984565b604082019050919050565b5f6020820190508181035f830152615a0b816159d2565b9050919050565b7f5072697a6520746f6b656e20686173206e6f20636f6e747261637420636f64655f82015250565b5f615a46602083613f24565b9150615a5182615a12565b602082019050919050565b5f6020820190508181035f830152615a7381615a3a565b9050919050565b7f496e76616c6964204552432d323020746f6b656e3a20746f74616c537570706c5f8201527f792063616c6c206661696c656400000000000000000000000000000000000000602082015250565b5f615ad4602d83613f24565b9150615adf82615a7a565b604082019050919050565b5f6020820190508181035f830152615b0181615ac8565b9050919050565b7f5072697a6520746f6b656e2061646472657373206d757374206265207a65726f5f8201527f20666f7220455448207072697a65000000000000000000000000000000000000602082015250565b5f615b62602e83613f24565b9150615b6d82615b08565b604082019050919050565b5f6020820190508181035f830152615b8f81615b56565b9050919050565b7f456e7472792066656520746f6b656e20616464726573732063616e6e6f7420625f8201527f65207a65726f20696620656e7472792066656520616d6f756e7420697320677260208201527f6561746572207468616e207a65726f0000000000000000000000000000000000604082015250565b5f615c16604f83613f24565b9150615c2182615b96565b606082019050919050565b5f6020820190508181035f830152615c4381615c0a565b9050919050565b7f456e7472792066656520746f6b656e20686173206e6f20636f6e7472616374205f8201527f636f646500000000000000000000000000000000000000000000000000000000602082015250565b5f615ca4602483613f24565b9150615caf82615c4a565b604082019050919050565b5f6020820190508181035f830152615cd181615c98565b9050919050565b7f496e76616c6964204552432d323020746f6b656e20666f7220656e74727920665f8201527f65653a20746f74616c537570706c792063616c6c206661696c65640000000000602082015250565b5f615d32603b83613f24565b9150615d3d82615cd8565b604082019050919050565b5f6020820190508181035f830152615d5f81615d26565b9050919050565b7f456e7472792066656520746f6b656e2061646472657373206d757374206265205f8201527f7a65726f20696620656e7472792066656520616d6f756e74206973207a65726f602082015250565b5f615dc0604083613f24565b9150615dcb82615d66565b604082019050919050565b5f6020820190508181035f830152615ded81615db4565b9050919050565b7f4d75737420776974686472617720455448207072697a6520706f6f6c206265665f8201527f6f7265206e657720726964646c65000000000000000000000000000000000000602082015250565b5f615e4e602e83613f24565b9150615e5982615df4565b604082019050919050565b5f6020820190508181035f830152615e7b81615e42565b9050919050565b7f4d75737420776974686472617720746f6b656e207072697a6520706f6f6c20625f8201527f65666f7265206e657720726964646c6500000000000000000000000000000000602082015250565b5f615edc603083613f24565b9150615ee782615e82565b604082019050919050565b5f6020820190508181035f830152615f0981615ed0565b9050919050565b5f60ff82169050919050565b615f2581615f10565b82525050565b5f60a082019050615f3e5f83018861435e565b615f4b6020830187615f1c565b615f5860408301866140fc565b615f65606083018561402b565b615f7260808301846140fc565b9695505050505050565b5f606082019050615f8f5f8301866140fc565b615f9c60208301856140fc565b615fa9604083018461402b565b949350505050565b5f604082019050615fc45f8301856140fc565b615fd1602083018461402b565b9392505050565b7f57696e6e657220616464726573732063616e6e6f74206265207a65726f0000005f82015250565b5f61600c601d83613f24565b915061601782615fd8565b602082019050919050565b5f6020820190508181035f83015261603981616000565b9050919050565b7f496e73756666696369656e7420455448207072697a6520706f6f6c2062616c615f8201527f6e63650000000000000000000000000000000000000000000000000000000000602082015250565b5f61609a602383613f24565b91506160a582616040565b604082019050919050565b5f6020820190508181035f8301526160c78161608e565b9050919050565b7f496e73756666696369656e7420636f6e7472616374204554482062616c616e635f8201527f6500000000000000000000000000000000000000000000000000000000000000602082015250565b5f616128602183613f24565b9150616133826160ce565b604082019050919050565b5f6020820190508181035f8301526161558161611c565b9050919050565b7f455448207472616e73666572206661696c6564000000000000000000000000005f82015250565b5f616190601383613f24565b915061619b8261615c565b602082019050919050565b5f6020820190508181035f8301526161bd81616184565b9050919050565b7f496e73756666696369656e74204552433230207072697a6520706f6f6c2062615f8201527f6c616e6365000000000000000000000000000000000000000000000000000000602082015250565b5f61621e602583613f24565b9150616229826161c4565b604082019050919050565b5f6020820190508181035f83015261624b81616212565b905091905056fea2646970667358221220a1cb86569f3c71f9176153f2d1401d1bc8fd4dddb38c7e2b657dd480d9b4a4b464736f6c634300081e0033","linkReferences":{}},"methodIdentifiers":{"ENTRY_FEE()":"f6d361cc","MAX_RETRIES()":"46ebbdb0","RETRY_COST()":"57aa0ea2","balances(address)":"27e235e3","committedAt(uint256,address)":"c06a5fc5","committedGuesses(uint256,address)":"b7173e77","currentRiddleId()":"ecdc6c23","deposit()":"d0e30db0","enterGame(uint256)":"43d6582b","entryFeeToken()":"7b149763","ethPrizePool()":"95664a3d","fundTokenPrizePool(uint256)":"48b06e87","getPrizeToken()":"c7cd6959","hasClaimed(uint256,address)":"873f6f9e","hasParticipated(uint256,address)":"a34398a2","hasRevealed(uint256,address)":"16b5551d","isWinner(uint256,address)":"bdd415af","owner()":"8da5cb5b","ownerWithdraw(uint256)":"33f707d1","ownerWithdrawTokens(uint256)":"60972120","payout(uint256,address[])":"c8e728f9","prizeAmount()":"785fa627","prizeToken()":"d0ef024a","prizeType()":"fcdf8e89","purchaseRetry(uint256)":"7a11e941","renounceOwnership()":"715018a6","retries(address)":"dbbd3245","retryToken()":"219fc385","revealDelay()":"53236d74","revealGuess(uint256,string)":"12b5afc1","revealedGuessHash(uint256,address)":"188240cd","setRevealDelay(uint256)":"a68c25d8","setRiddle(uint256,bytes32,uint8,address,uint256,address)":"f9f82e9c","solveRiddleAndClaim(string)":"dc663b53","submitGuess(uint256,bytes32)":"e4d33ee3","tokenPrizePool()":"c310e242","transferOwnership(address)":"f2fde38b","winners(uint256,uint256)":"0efc8865","withdraw(uint256)":"2e1a7d4d"},"id":2}