{"abi":[{"type":"constructor","inputs":[{"name":"initialOwner","type":"address","internalType":"address"}],"stateMutability":"nonpayable"},{"type":"receive","stateMutability":"payable"},{"type":"function","name":"ENTRY_FEE","inputs":[],"outputs":[{"name":"","type":"uint256","internalType":"uint256"}],"stateMutability":"view"},{"type":"function","name":"balances","inputs":[{"name":"","type":"address","internalType":"address"}],"outputs":[{"name":"","type":"uint256","internalType":"uint256"}],"stateMutability":"view"},{"type":"function","name":"committedAt","inputs":[{"name":"","type":"uint256","internalType":"uint256"},{"name":"","type":"address","internalType":"address"}],"outputs":[{"name":"","type":"uint256","internalType":"uint256"}],"stateMutability":"view"},{"type":"function","name":"committedGuesses","inputs":[{"name":"","type":"uint256","internalType":"uint256"},{"name":"","type":"address","internalType":"address"}],"outputs":[{"name":"","type":"bytes32","internalType":"bytes32"}],"stateMutability":"view"},{"type":"function","name":"currentRiddleId","inputs":[],"outputs":[{"name":"","type":"uint256","internalType":"uint256"}],"stateMutability":"view"},{"type":"function","name":"deposit","inputs":[],"outputs":[],"stateMutability":"payable"},{"type":"function","name":"enterGame","inputs":[{"name":"_riddleId","type":"uint256","internalType":"uint256"}],"outputs":[],"stateMutability":"nonpayable"},{"type":"function","name":"entryFeeToken","inputs":[],"outputs":[{"name":"","type":"address","internalType":"contract IERC20"}],"stateMutability":"view"},{"type":"function","name":"ethPrizePool","inputs":[],"outputs":[{"name":"","type":"uint256","internalType":"uint256"}],"stateMutability":"view"},{"type":"function","name":"fundTokenPrizePool","inputs":[{"name":"_amount","type":"uint256","internalType":"uint256"}],"outputs":[],"stateMutability":"nonpayable"},{"type":"function","name":"getPrizeToken","inputs":[],"outputs":[{"name":"","type":"address","internalType":"address"}],"stateMutability":"view"},{"type":"function","name":"hasClaimed","inputs":[{"name":"","type":"uint256","internalType":"uint256"},{"name":"","type":"address","internalType":"address"}],"outputs":[{"name":"","type":"bool","internalType":"bool"}],"stateMutability":"view"},{"type":"function","name":"hasParticipated","inputs":[{"name":"","type":"uint256","internalType":"uint256"},{"name":"","type":"address","internalType":"address"}],"outputs":[{"name":"","type":"bool","internalType":"bool"}],"stateMutability":"view"},{"type":"function","name":"hasRevealed","inputs":[{"name":"","type":"uint256","internalType":"uint256"},{"name":"","type":"address","internalType":"address"}],"outputs":[{"name":"","type":"bool","internalType":"bool"}],"stateMutability":"view"},{"type":"function","name":"owner","inputs":[],"outputs":[{"name":"","type":"address","internalType":"address"}],"stateMutability":"view"},{"type":"function","name":"ownerWithdraw","inputs":[{"name":"_amount","type":"uint256","internalType":"uint256"}],"outputs":[],"stateMutability":"nonpayable"},{"type":"function","name":"ownerWithdrawTokens","inputs":[{"name":"_amount","type":"uint256","internalType":"uint256"}],"outputs":[],"stateMutability":"nonpayable"},{"type":"function","name":"prizeAmount","inputs":[],"outputs":[{"name":"","type":"uint256","internalType":"uint256"}],"stateMutability":"view"},{"type":"function","name":"prizeToken","inputs":[],"outputs":[{"name":"","type":"address","internalType":"contract IERC20"}],"stateMutability":"view"},{"type":"function","name":"prizeType","inputs":[],"outputs":[{"name":"","type":"uint8","internalType":"enum Vaultis.PrizeType"}],"stateMutability":"view"},{"type":"function","name":"renounceOwnership","inputs":[],"outputs":[],"stateMutability":"nonpayable"},{"type":"function","name":"revealDelay","inputs":[],"outputs":[{"name":"","type":"uint256","internalType":"uint256"}],"stateMutability":"view"},{"type":"function","name":"revealGuess","inputs":[{"name":"_riddleId","type":"uint256","internalType":"uint256"},{"name":"_guess","type":"string","internalType":"string"}],"outputs":[],"stateMutability":"nonpayable"},{"type":"function","name":"revealedGuessHash","inputs":[{"name":"","type":"uint256","internalType":"uint256"},{"name":"","type":"address","internalType":"address"}],"outputs":[{"name":"","type":"bytes32","internalType":"bytes32"}],"stateMutability":"view"},{"type":"function","name":"setRevealDelay","inputs":[{"name":"_newRevealDelay","type":"uint256","internalType":"uint256"}],"outputs":[],"stateMutability":"nonpayable"},{"type":"function","name":"setRiddle","inputs":[{"name":"_riddleId","type":"uint256","internalType":"uint256"},{"name":"_answerHash","type":"bytes32","internalType":"bytes32"},{"name":"_prizeType","type":"uint8","internalType":"enum Vaultis.PrizeType"},{"name":"_prizeTokenAddress","type":"address","internalType":"address"},{"name":"_prizeAmount","type":"uint256","internalType":"uint256"},{"name":"_entryFeeTokenAddress","type":"address","internalType":"address"}],"outputs":[],"stateMutability":"nonpayable"},{"type":"function","name":"solveRiddleAndClaim","inputs":[{"name":"_answer","type":"string","internalType":"string"}],"outputs":[],"stateMutability":"nonpayable"},{"type":"function","name":"submitGuess","inputs":[{"name":"_riddleId","type":"uint256","internalType":"uint256"},{"name":"_guessHash","type":"bytes32","internalType":"bytes32"}],"outputs":[],"stateMutability":"nonpayable"},{"type":"function","name":"tokenPrizePool","inputs":[],"outputs":[{"name":"","type":"uint256","internalType":"uint256"}],"stateMutability":"view"},{"type":"function","name":"transferOwnership","inputs":[{"name":"newOwner","type":"address","internalType":"address"}],"outputs":[],"stateMutability":"nonpayable"},{"type":"function","name":"withdraw","inputs":[{"name":"_amount","type":"uint256","internalType":"uint256"}],"outputs":[],"stateMutability":"nonpayable"},{"type":"event","name":"Deposit","inputs":[{"name":"user","type":"address","indexed":true,"internalType":"address"},{"name":"amount","type":"uint256","indexed":false,"internalType":"uint256"}],"anonymous":false},{"type":"event","name":"EntryFeeCollected","inputs":[{"name":"player","type":"address","indexed":true,"internalType":"address"},{"name":"token","type":"address","indexed":true,"internalType":"address"},{"name":"amount","type":"uint256","indexed":false,"internalType":"uint256"},{"name":"riddleId","type":"uint256","indexed":true,"internalType":"uint256"}],"anonymous":false},{"type":"event","name":"EthReceived","inputs":[{"name":"sender","type":"address","indexed":true,"internalType":"address"},{"name":"amount","type":"uint256","indexed":false,"internalType":"uint256"}],"anonymous":false},{"type":"event","name":"GuessRevealed","inputs":[{"name":"player","type":"address","indexed":true,"internalType":"address"},{"name":"riddleId","type":"uint256","indexed":true,"internalType":"uint256"},{"name":"revealedHash","type":"bytes32","indexed":false,"internalType":"bytes32"}],"anonymous":false},{"type":"event","name":"GuessSubmitted","inputs":[{"name":"player","type":"address","indexed":true,"internalType":"address"},{"name":"riddleId","type":"uint256","indexed":true,"internalType":"uint256"},{"name":"guessHash","type":"bytes32","indexed":false,"internalType":"bytes32"}],"anonymous":false},{"type":"event","name":"OwnerWithdrawTokens","inputs":[{"name":"amount","type":"uint256","indexed":false,"internalType":"uint256"}],"anonymous":false},{"type":"event","name":"OwnerWithdrawal","inputs":[{"name":"owner","type":"address","indexed":true,"internalType":"address"},{"name":"amount","type":"uint256","indexed":false,"internalType":"uint256"}],"anonymous":false},{"type":"event","name":"OwnershipTransferred","inputs":[{"name":"previousOwner","type":"address","indexed":true,"internalType":"address"},{"name":"newOwner","type":"address","indexed":true,"internalType":"address"}],"anonymous":false},{"type":"event","name":"PlayerEntered","inputs":[{"name":"player","type":"address","indexed":true,"internalType":"address"},{"name":"riddleId","type":"uint256","indexed":true,"internalType":"uint256"}],"anonymous":false},{"type":"event","name":"PrizeDistributed","inputs":[{"name":"winner","type":"address","indexed":true,"internalType":"address"},{"name":"amount","type":"uint256","indexed":false,"internalType":"uint256"},{"name":"prizeType","type":"uint8","indexed":false,"internalType":"enum Vaultis.PrizeType"}],"anonymous":false},{"type":"event","name":"PrizeFunded","inputs":[{"name":"funder","type":"address","indexed":true,"internalType":"address"},{"name":"amount","type":"uint256","indexed":false,"internalType":"uint256"},{"name":"prizeType","type":"uint8","indexed":false,"internalType":"enum Vaultis.PrizeType"}],"anonymous":false},{"type":"event","name":"RiddleInitialized","inputs":[{"name":"riddleId","type":"uint256","indexed":true,"internalType":"uint256"},{"name":"answerHash","type":"bytes32","indexed":false,"internalType":"bytes32"},{"name":"prizeType","type":"uint8","indexed":false,"internalType":"uint8"},{"name":"prizeTokenAddress","type":"address","indexed":false,"internalType":"address"},{"name":"prizeAmount","type":"uint256","indexed":false,"internalType":"uint256"},{"name":"entryFeeTokenAddress","type":"address","indexed":false,"internalType":"address"}],"anonymous":false},{"type":"event","name":"Withdrawal","inputs":[{"name":"user","type":"address","indexed":true,"internalType":"address"},{"name":"amount","type":"uint256","indexed":false,"internalType":"uint256"}],"anonymous":false},{"type":"error","name":"OwnableInvalidOwner","inputs":[{"name":"owner","type":"address","internalType":"address"}]},{"type":"error","name":"OwnableUnauthorizedAccount","inputs":[{"name":"account","type":"address","internalType":"address"}]},{"type":"error","name":"ReentrancyGuardReentrantCall","inputs":[]},{"type":"error","name":"SafeERC20FailedOperation","inputs":[{"name":"token","type":"address","internalType":"address"}]}],"bytecode":{"object":"0x608060405234801561000f575f5ffd5b5060405161541d38038061541d83398181016040528101906100319190610227565b805f73ffffffffffffffffffffffffffffffffffffffff168173ffffffffffffffffffffffffffffffffffffffff16036100a2575f6040517f1e4fbdf70000000000000000000000000000000000000000000000000000000081526004016100999190610261565b60405180910390fd5b6100b18161010860201b60201c565b50600180819055505f60085f6101000a81548173ffffffffffffffffffffffffffffffffffffffff021916908373ffffffffffffffffffffffffffffffffffffffff160217905550610e10600f819055505061027a565b5f5f5f9054906101000a900473ffffffffffffffffffffffffffffffffffffffff169050815f5f6101000a81548173ffffffffffffffffffffffffffffffffffffffff021916908373ffffffffffffffffffffffffffffffffffffffff1602179055508173ffffffffffffffffffffffffffffffffffffffff168173ffffffffffffffffffffffffffffffffffffffff167f8be0079c531659141344cd1fd0a4f28419497f9722a3daafe3b4186f6b6457e060405160405180910390a35050565b5f5ffd5b5f73ffffffffffffffffffffffffffffffffffffffff82169050919050565b5f6101f6826101cd565b9050919050565b610206816101ec565b8114610210575f5ffd5b50565b5f81519050610221816101fd565b92915050565b5f6020828403121561023c5761023b6101c9565b5b5f61024984828501610213565b91505092915050565b61025b816101ec565b82525050565b5f6020820190506102745f830184610252565b92915050565b615196806102875f395ff3fe6080604052600436106101db575f3560e01c806395664a3d11610101578063d0ef024a11610094578063f2fde38b11610063578063f2fde38b14610734578063f6d361cc1461075c578063f9f82e9c14610786578063fcdf8e89146107ae5761028a565b8063d0ef024a14610690578063dc663b53146106ba578063e4d33ee3146106e2578063ecdc6c231461070a5761028a565b8063c06a5fc5116100d0578063c06a5fc5146105f6578063c310e24214610632578063c7cd69591461065c578063d0e30db0146106865761028a565b806395664a3d1461052c578063a34398a214610556578063a68c25d814610592578063b7173e77146105ba5761028a565b806348b06e8711610179578063785fa62711610148578063785fa627146104725780637b1497631461049c578063873f6f9e146104c65780638da5cb5b146105025761028a565b806348b06e87146103e257806353236d741461040a5780636097212014610434578063715018a61461045c5761028a565b806327e235e3116101b557806327e235e31461032e5780632e1a7d4d1461036a57806333f707d11461039257806343d6582b146103ba5761028a565b806312b5afc11461028e57806316b5551d146102b6578063188240cd146102f25761028a565b3661028a575f3411610222576040517f08c379a00000000000000000000000000000000000000000000000000000000081526004016102199061328c565b60405180910390fd5b3460045f82825461023391906132e0565b925050819055503373ffffffffffffffffffffffffffffffffffffffff167f85177f287940f2f05425a4029951af0e047a7f9c4eaa9a6e6917bcd869f86695346040516102809190613322565b60405180910390a2005b5f5ffd5b348015610299575f5ffd5b506102b460048036038101906102af91906134b2565b6107d8565b005b3480156102c1575f5ffd5b506102dc60048036038101906102d79190613566565b610d30565b6040516102e991906135be565b60405180910390f35b3480156102fd575f5ffd5b5061031860048036038101906103139190613566565b610d5a565b60405161032591906135ef565b60405180910390f35b348015610339575f5ffd5b50610354600480360381019061034f9190613608565b610d7a565b6040516103619190613322565b60405180910390f35b348015610375575f5ffd5b50610390600480360381019061038b9190613633565b610d8f565b005b34801561039d575f5ffd5b506103b860048036038101906103b39190613633565b610fae565b005b3480156103c5575f5ffd5b506103e060048036038101906103db9190613633565b611173565b005b3480156103ed575f5ffd5b5061040860048036038101906104039190613633565b6115dc565b005b348015610415575f5ffd5b5061041e6117f4565b60405161042b9190613322565b60405180910390f35b34801561043f575f5ffd5b5061045a60048036038101906104559190613633565b6117fa565b005b348015610467575f5ffd5b506104706119cd565b005b34801561047d575f5ffd5b506104866119e0565b6040516104939190613322565b60405180910390f35b3480156104a7575f5ffd5b506104b06119e6565b6040516104bd91906136b9565b60405180910390f35b3480156104d1575f5ffd5b506104ec60048036038101906104e79190613566565b611a0b565b6040516104f991906135be565b60405180910390f35b34801561050d575f5ffd5b50610516611a35565b60405161052391906136e1565b60405180910390f35b348015610537575f5ffd5b50610540611a5c565b60405161054d9190613322565b60405180910390f35b348015610561575f5ffd5b5061057c60048036038101906105779190613566565b611a62565b60405161058991906135be565b60405180910390f35b34801561059d575f5ffd5b506105b860048036038101906105b39190613633565b611a8c565b005b3480156105c5575f5ffd5b506105e060048036038101906105db9190613566565b611a9e565b6040516105ed91906135ef565b60405180910390f35b348015610601575f5ffd5b5061061c60048036038101906106179190613566565b611abe565b6040516106299190613322565b60405180910390f35b34801561063d575f5ffd5b50610646611ade565b6040516106539190613322565b60405180910390f35b348015610667575f5ffd5b50610670611ae4565b60405161067d91906136e1565b60405180910390f35b61068e611b0c565b005b34801561069b575f5ffd5b506106a4611c01565b6040516106b191906136b9565b60405180910390f35b3480156106c5575f5ffd5b506106e060048036038101906106db9190613757565b611c26565b005b3480156106ed575f5ffd5b50610708600480360381019061070391906137cc565b612031565b005b348015610715575f5ffd5b5061071e612328565b60405161072b9190613322565b60405180910390f35b34801561073f575f5ffd5b5061075a60048036038101906107559190613608565b61232e565b005b348015610767575f5ffd5b506107706123b2565b60405161077d9190613322565b60405180910390f35b348015610791575f5ffd5b506107ac60048036038101906107a7919061382d565b6123be565b005b3480156107b9575f5ffd5b506107c2612ab0565b6040516107cf9190613929565b60405180910390f35b6107e0612ac3565b5f8211610822576040517f08c379a00000000000000000000000000000000000000000000000000000000081526004016108199061398c565b60405180910390fd5b6003548214610866576040517f08c379a000000000000000000000000000000000000000000000000000000000815260040161085d906139f4565b60405180910390fd5b60095f8381526020019081526020015f205f3373ffffffffffffffffffffffffffffffffffffffff1673ffffffffffffffffffffffffffffffffffffffff1681526020019081526020015f205f9054906101000a900460ff166108fe576040517f08c379a00000000000000000000000000000000000000000000000000000000081526004016108f590613a5c565b60405180910390fd5b5f5f1b600b5f8481526020019081526020015f205f3373ffffffffffffffffffffffffffffffffffffffff1673ffffffffffffffffffffffffffffffffffffffff1681526020019081526020015f20540361098e576040517f08c379a000000000000000000000000000000000000000000000000000000000815260040161098590613ac4565b60405180910390fd5b600e5f8381526020019081526020015f205f3373ffffffffffffffffffffffffffffffffffffffff1673ffffffffffffffffffffffffffffffffffffffff1681526020019081526020015f205f9054906101000a900460ff1615610a27576040517f08c379a0000000000000000000000000000000000000000000000000000000008152600401610a1e90613b2c565b60405180910390fd5b600f54600c5f8481526020019081526020015f205f3373ffffffffffffffffffffffffffffffffffffffff1673ffffffffffffffffffffffffffffffffffffffff1681526020019081526020015f2054610a8191906132e0565b421015610ac3576040517f08c379a0000000000000000000000000000000000000000000000000000000008152600401610aba90613b94565b60405180910390fd5b5f81604051602001610ad59190613c04565b604051602081830303815290604052805190602001209050600b5f8481526020019081526020015f205f3373ffffffffffffffffffffffffffffffffffffffff1673ffffffffffffffffffffffffffffffffffffffff1681526020019081526020015f20548114610b7b576040517f08c379a0000000000000000000000000000000000000000000000000000000008152600401610b7290613c64565b60405180910390fd5b80600d5f8581526020019081526020015f205f3373ffffffffffffffffffffffffffffffffffffffff1673ffffffffffffffffffffffffffffffffffffffff1681526020019081526020015f20819055506001600e5f8581526020019081526020015f205f3373ffffffffffffffffffffffffffffffffffffffff1673ffffffffffffffffffffffffffffffffffffffff1681526020019081526020015f205f6101000a81548160ff0219169083151502179055505f5f1b600b5f8581526020019081526020015f205f3373ffffffffffffffffffffffffffffffffffffffff1673ffffffffffffffffffffffffffffffffffffffff1681526020019081526020015f20819055505f600c5f8581526020019081526020015f205f3373ffffffffffffffffffffffffffffffffffffffff1673ffffffffffffffffffffffffffffffffffffffff1681526020019081526020015f2081905550823373ffffffffffffffffffffffffffffffffffffffff167f59d3b853b3060eb254d2f04ecf2d2fba8ec34ae94835cd01eedead529314f52483604051610d1b91906135ef565b60405180910390a350610d2c612b09565b5050565b600e602052815f5260405f20602052805f5260405f205f915091509054906101000a900460ff1681565b600d602052815f5260405f20602052805f5260405f205f91509150505481565b6002602052805f5260405f205f915090505481565b610d97612ac3565b5f8111610dd9576040517f08c379a0000000000000000000000000000000000000000000000000000000008152600401610dd090613cf2565b60405180910390fd5b8060025f3373ffffffffffffffffffffffffffffffffffffffff1673ffffffffffffffffffffffffffffffffffffffff1681526020019081526020015f20541015610e59576040517f08c379a0000000000000000000000000000000000000000000000000000000008152600401610e5090613d5a565b60405180910390fd5b8060025f3373ffffffffffffffffffffffffffffffffffffffff1673ffffffffffffffffffffffffffffffffffffffff1681526020019081526020015f205f828254610ea59190613d78565b925050819055505f3373ffffffffffffffffffffffffffffffffffffffff1682604051610ed190613dd8565b5f6040518083038185875af1925050503d805f8114610f0b576040519150601f19603f3d011682016040523d82523d5f602084013e610f10565b606091505b5050905080610f54576040517f08c379a0000000000000000000000000000000000000000000000000000000008152600401610f4b90613e36565b60405180910390fd5b3373ffffffffffffffffffffffffffffffffffffffff167f7fcf532c15f0a6db0bd6d0e038bea71d30d808c7d98cb3bf7268a95bf5081b6583604051610f9a9190613322565b60405180910390a250610fab612b09565b50565b610fb6612b12565b610fbe612ac3565b5f8111611000576040517f08c379a0000000000000000000000000000000000000000000000000000000008152600401610ff790613ec4565b60405180910390fd5b806004541015611045576040517f08c379a000000000000000000000000000000000000000000000000000000000815260040161103c90613f2c565b60405180910390fd5b8060045f8282546110569190613d78565b925050819055505f611066611a35565b73ffffffffffffffffffffffffffffffffffffffff168262030d409060405161108e90613dd8565b5f60405180830381858888f193505050503d805f81146110c9576040519150601f19603f3d011682016040523d82523d5f602084013e6110ce565b606091505b5050905080611112576040517f08c379a000000000000000000000000000000000000000000000000000000000815260040161110990613f94565b60405180910390fd5b61111a611a35565b73ffffffffffffffffffffffffffffffffffffffff167fa919fadcfa556a012bab31b15f596ea7ccd397adbf10e15f176db9055ab361c48360405161115f9190613322565b60405180910390a250611170612b09565b50565b61117b612ac3565b60095f8281526020019081526020015f205f3373ffffffffffffffffffffffffffffffffffffffff1673ffffffffffffffffffffffffffffffffffffffff1681526020019081526020015f205f9054906101000a900460ff1615611214576040517f08c379a000000000000000000000000000000000000000000000000000000000815260040161120b90614022565b60405180910390fd5b6003548114611258576040517f08c379a000000000000000000000000000000000000000000000000000000000815260040161124f906139f4565b60405180910390fd5b5f6003541161129c576040517f08c379a00000000000000000000000000000000000000000000000000000000081526004016112939061408a565b60405180910390fd5b5f670de0b6b3a76400001115611529575f60085f9054906101000a900473ffffffffffffffffffffffffffffffffffffffff1690505f73ffffffffffffffffffffffffffffffffffffffff168173ffffffffffffffffffffffffffffffffffffffff160361133f576040517f08c379a0000000000000000000000000000000000000000000000000000000008152600401611336906140f2565b60405180910390fd5b5f8173ffffffffffffffffffffffffffffffffffffffff166370a08231306040518263ffffffff1660e01b815260040161137991906136e1565b602060405180830381865afa158015611394573d5f5f3e3d5ffd5b505050506040513d601f19601f820116820180604052508101906113b89190614124565b90506113ef3330670de0b6b3a76400008573ffffffffffffffffffffffffffffffffffffffff16612b99909392919063ffffffff16565b5f818373ffffffffffffffffffffffffffffffffffffffff166370a08231306040518263ffffffff1660e01b815260040161142a91906136e1565b602060405180830381865afa158015611445573d5f5f3e3d5ffd5b505050506040513d601f19601f820116820180604052508101906114699190614124565b6114739190613d78565b9050670de0b6b3a764000081146114bf576040517f08c379a00000000000000000000000000000000000000000000000000000000081526004016114b6906141bf565b60405180910390fd5b838373ffffffffffffffffffffffffffffffffffffffff163373ffffffffffffffffffffffffffffffffffffffff167f1f8e0e31739d887c754fcf7403fe1bdf6641ef33578b9d08631a7d5e6e9b8fb78460405161151d9190613322565b60405180910390a45050505b600160095f8381526020019081526020015f205f3373ffffffffffffffffffffffffffffffffffffffff1673ffffffffffffffffffffffffffffffffffffffff1681526020019081526020015f205f6101000a81548160ff021916908315150217905550803373ffffffffffffffffffffffffffffffffffffffff167fc16481c9484122696a660b57df0bf6839645c6b620cb1704ac2437de13be922560405160405180910390a36115d9612b09565b50565b6115e4612b12565b6115ec612ac3565b5f811161162e576040517f08c379a000000000000000000000000000000000000000000000000000000000815260040161162590614227565b60405180910390fd5b600180811115611641576116406138b6565b5b600860149054906101000a900460ff166001811115611663576116626138b6565b5b146116a3576040517f08c379a000000000000000000000000000000000000000000000000000000000815260040161169a906142b5565b60405180910390fd5b5f73ffffffffffffffffffffffffffffffffffffffff1660055f9054906101000a900473ffffffffffffffffffffffffffffffffffffffff1673ffffffffffffffffffffffffffffffffffffffff1603611732576040517f08c379a00000000000000000000000000000000000000000000000000000000081526004016117299061431d565b60405180910390fd5b61178033308360055f9054906101000a900473ffffffffffffffffffffffffffffffffffffffff1673ffffffffffffffffffffffffffffffffffffffff16612b99909392919063ffffffff16565b8060065f82825461179191906132e0565b925050819055503373ffffffffffffffffffffffffffffffffffffffff167f4708e702157b1eb6cd00a772e6a623599ac7dc0bad76e8c624fdef050b434f098260016040516117e192919061433b565b60405180910390a26117f1612b09565b50565b600f5481565b611802612b12565b61180a612ac3565b5f811161184c576040517f08c379a0000000000000000000000000000000000000000000000000000000008152600401611843906143d2565b60405180910390fd5b806006541015611891576040517f08c379a00000000000000000000000000000000000000000000000000000000081526004016118889061443a565b60405180910390fd5b5f73ffffffffffffffffffffffffffffffffffffffff1660055f9054906101000a900473ffffffffffffffffffffffffffffffffffffffff1673ffffffffffffffffffffffffffffffffffffffff1603611920576040517f08c379a00000000000000000000000000000000000000000000000000000000081526004016119179061431d565b60405180910390fd5b8060065f8282546119319190613d78565b9250508190555061198b611943611a35565b8260055f9054906101000a900473ffffffffffffffffffffffffffffffffffffffff1673ffffffffffffffffffffffffffffffffffffffff16612c1b9092919063ffffffff16565b7f560c2b6d9212838c63f631c64ebc9d7364da90f9af3fdec847c0725dd18330c8816040516119ba9190613322565b60405180910390a16119ca612b09565b50565b6119d5612b12565b6119de5f612c9a565b565b60075481565b60085f9054906101000a900473ffffffffffffffffffffffffffffffffffffffff1681565b600a602052815f5260405f20602052805f5260405f205f915091509054906101000a900460ff1681565b5f5f5f9054906101000a900473ffffffffffffffffffffffffffffffffffffffff16905090565b60045481565b6009602052815f5260405f20602052805f5260405f205f915091509054906101000a900460ff1681565b611a94612b12565b80600f8190555050565b600b602052815f5260405f20602052805f5260405f205f91509150505481565b600c602052815f5260405f20602052805f5260405f205f91509150505481565b60065481565b5f60055f9054906101000a900473ffffffffffffffffffffffffffffffffffffffff16905090565b611b14612ac3565b5f3411611b56576040517f08c379a0000000000000000000000000000000000000000000000000000000008152600401611b4d906144c8565b60405180910390fd5b3460025f3373ffffffffffffffffffffffffffffffffffffffff1673ffffffffffffffffffffffffffffffffffffffff1681526020019081526020015f205f828254611ba291906132e0565b925050819055503373ffffffffffffffffffffffffffffffffffffffff167fe1fffcc4923d04b559f4d29a8bfc6cda04eb5b0d3c460751c2402c5c5cc9109c34604051611bef9190613322565b60405180910390a2611bff612b09565b565b60055f9054906101000a900473ffffffffffffffffffffffffffffffffffffffff1681565b611c2e612ac3565b5f60035411611c72576040517f08c379a0000000000000000000000000000000000000000000000000000000008152600401611c699061408a565b60405180910390fd5b60095f60035481526020019081526020015f205f3373ffffffffffffffffffffffffffffffffffffffff1673ffffffffffffffffffffffffffffffffffffffff1681526020019081526020015f205f9054906101000a900460ff16611d0c576040517f08c379a0000000000000000000000000000000000000000000000000000000008152600401611d0390613a5c565b60405180910390fd5b600a5f60035481526020019081526020015f205f3373ffffffffffffffffffffffffffffffffffffffff1673ffffffffffffffffffffffffffffffffffffffff1681526020019081526020015f205f9054906101000a900460ff1615611da7576040517f08c379a0000000000000000000000000000000000000000000000000000000008152600401611d9e90614530565b60405180910390fd5b600e5f60035481526020019081526020015f205f3373ffffffffffffffffffffffffffffffffffffffff1673ffffffffffffffffffffffffffffffffffffffff1681526020019081526020015f205f9054906101000a900460ff16611e41576040517f08c379a0000000000000000000000000000000000000000000000000000000008152600401611e3890614598565b60405180910390fd5b8181604051602001611e549291906145da565b60405160208183030381529060405280519060200120600d5f60035481526020019081526020015f205f3373ffffffffffffffffffffffffffffffffffffffff1673ffffffffffffffffffffffffffffffffffffffff1681526020019081526020015f205414611ef9576040517f08c379a0000000000000000000000000000000000000000000000000000000008152600401611ef090614662565b60405180910390fd5b6001600a5f60035481526020019081526020015f205f3373ffffffffffffffffffffffffffffffffffffffff1673ffffffffffffffffffffffffffffffffffffffff1681526020019081526020015f205f6101000a81548160ff021916908315150217905550611f6b33600754612d5b565b5f5f1b600d5f60035481526020019081526020015f205f3373ffffffffffffffffffffffffffffffffffffffff1673ffffffffffffffffffffffffffffffffffffffff1681526020019081526020015f20819055505f600e5f60035481526020019081526020015f205f3373ffffffffffffffffffffffffffffffffffffffff1673ffffffffffffffffffffffffffffffffffffffff1681526020019081526020015f205f6101000a81548160ff02191690831515021790555061202d612b09565b5050565b612039612ac3565b5f821161207b576040517f08c379a00000000000000000000000000000000000000000000000000000000081526004016120729061398c565b60405180910390fd5b60035482146120bf576040517f08c379a00000000000000000000000000000000000000000000000000000000081526004016120b6906139f4565b60405180910390fd5b5f5f1b8103612103576040517f08c379a00000000000000000000000000000000000000000000000000000000081526004016120fa906146ca565b60405180910390fd5b60095f8381526020019081526020015f205f3373ffffffffffffffffffffffffffffffffffffffff1673ffffffffffffffffffffffffffffffffffffffff1681526020019081526020015f205f9054906101000a900460ff1661219b576040517f08c379a000000000000000000000000000000000000000000000000000000000815260040161219290613a5c565b60405180910390fd5b5f5f1b600b5f8481526020019081526020015f205f3373ffffffffffffffffffffffffffffffffffffffff1673ffffffffffffffffffffffffffffffffffffffff1681526020019081526020015f20541461222b576040517f08c379a000000000000000000000000000000000000000000000000000000000815260040161222290614758565b60405180910390fd5b80600b5f8481526020019081526020015f205f3373ffffffffffffffffffffffffffffffffffffffff1673ffffffffffffffffffffffffffffffffffffffff1681526020019081526020015f208190555042600c5f8481526020019081526020015f205f3373ffffffffffffffffffffffffffffffffffffffff1673ffffffffffffffffffffffffffffffffffffffff1681526020019081526020015f2081905550813373ffffffffffffffffffffffffffffffffffffffff167fc5009e6865ae04f58da43f80d7eb9718a2f25a7ccfeb22a8ca0031e77b86b50a8360405161231491906135ef565b60405180910390a3612324612b09565b5050565b60035481565b612336612b12565b5f73ffffffffffffffffffffffffffffffffffffffff168173ffffffffffffffffffffffffffffffffffffffff16036123a6575f6040517f1e4fbdf700000000000000000000000000000000000000000000000000000000815260040161239d91906136e1565b60405180910390fd5b6123af81612c9a565b50565b670de0b6b3a764000081565b6123c6612b12565b5f8611612408576040517f08c379a00000000000000000000000000000000000000000000000000000000081526004016123ff9061398c565b60405180910390fd5b600354861161244c576040517f08c379a0000000000000000000000000000000000000000000000000000000008152600401612443906147e6565b60405180910390fd5b5f821161248e576040517f08c379a000000000000000000000000000000000000000000000000000000000815260040161248590614874565b60405180910390fd5b6001808111156124a1576124a06138b6565b5b8460018111156124b4576124b36138b6565b5b0361266d575f73ffffffffffffffffffffffffffffffffffffffff168373ffffffffffffffffffffffffffffffffffffffff1603612527576040517f08c379a000000000000000000000000000000000000000000000000000000000815260040161251e90614902565b60405180910390fd5b5f8373ffffffffffffffffffffffffffffffffffffffff163b11612580576040517f08c379a00000000000000000000000000000000000000000000000000000000081526004016125779061496a565b60405180910390fd5b8273ffffffffffffffffffffffffffffffffffffffff166318160ddd6040518163ffffffff1660e01b8152600401602060405180830381865afa9250505080156125e857506040513d601f19601f820116820180604052508101906125e59190614124565b60015b612627576040517f08c379a000000000000000000000000000000000000000000000000000000000815260040161261e906149f8565b60405180910390fd5b508260055f6101000a81548173ffffffffffffffffffffffffffffffffffffffff021916908373ffffffffffffffffffffffffffffffffffffffff16021790555061271c565b5f73ffffffffffffffffffffffffffffffffffffffff168373ffffffffffffffffffffffffffffffffffffffff16146126db576040517f08c379a00000000000000000000000000000000000000000000000000000000081526004016126d290614a86565b60405180910390fd5b5f60055f6101000a81548173ffffffffffffffffffffffffffffffffffffffff021916908373ffffffffffffffffffffffffffffffffffffffff1602179055505b5f670de0b6b3a764000011156128e0575f73ffffffffffffffffffffffffffffffffffffffff168173ffffffffffffffffffffffffffffffffffffffff160361279a576040517f08c379a000000000000000000000000000000000000000000000000000000000815260040161279190614b3a565b60405180910390fd5b5f8173ffffffffffffffffffffffffffffffffffffffff163b116127f3576040517f08c379a00000000000000000000000000000000000000000000000000000000081526004016127ea90614bc8565b60405180910390fd5b8073ffffffffffffffffffffffffffffffffffffffff166318160ddd6040518163ffffffff1660e01b8152600401602060405180830381865afa92505050801561285b57506040513d601f19601f820116820180604052508101906128589190614124565b60015b61289a576040517f08c379a000000000000000000000000000000000000000000000000000000000815260040161289190614c56565b60405180910390fd5b508060085f6101000a81548173ffffffffffffffffffffffffffffffffffffffff021916908373ffffffffffffffffffffffffffffffffffffffff16021790555061298f565b5f73ffffffffffffffffffffffffffffffffffffffff168173ffffffffffffffffffffffffffffffffffffffff161461294e576040517f08c379a000000000000000000000000000000000000000000000000000000000815260040161294590614ce4565b60405180910390fd5b5f60085f6101000a81548173ffffffffffffffffffffffffffffffffffffffff021916908373ffffffffffffffffffffffffffffffffffffffff1602179055505b5f600454146129d3576040517f08c379a00000000000000000000000000000000000000000000000000000000081526004016129ca90614d72565b60405180910390fd5b5f60065414612a17576040517f08c379a0000000000000000000000000000000000000000000000000000000008152600401612a0e90614e00565b60405180910390fd5b856003819055508460108190555083600860146101000a81548160ff02191690836001811115612a4a57612a496138b6565b5b021790555081600781905550857f05227007ca99c4e41f51fb024dcb2065e16bd026db353ce7f322e5cdb4fb2e9d86866001811115612a8c57612a8b6138b6565b5b868686604051612aa0959493929190614e39565b60405180910390a2505050505050565b600860149054906101000a900460ff1681565b600260015403612aff576040517f3ee5aeb500000000000000000000000000000000000000000000000000000000815260040160405180910390fd5b6002600181905550565b60018081905550565b612b1a61316a565b73ffffffffffffffffffffffffffffffffffffffff16612b38611a35565b73ffffffffffffffffffffffffffffffffffffffff1614612b9757612b5b61316a565b6040517f118cdaa7000000000000000000000000000000000000000000000000000000008152600401612b8e91906136e1565b60405180910390fd5b565b612c15848573ffffffffffffffffffffffffffffffffffffffff166323b872dd868686604051602401612bce93929190614e8a565b604051602081830303815290604052915060e01b6020820180517bffffffffffffffffffffffffffffffffffffffffffffffffffffffff8381831617835250505050613171565b50505050565b612c95838473ffffffffffffffffffffffffffffffffffffffff1663a9059cbb8585604051602401612c4e929190614ebf565b604051602081830303815290604052915060e01b6020820180517bffffffffffffffffffffffffffffffffffffffffffffffffffffffff8381831617835250505050613171565b505050565b5f5f5f9054906101000a900473ffffffffffffffffffffffffffffffffffffffff169050815f5f6101000a81548173ffffffffffffffffffffffffffffffffffffffff021916908373ffffffffffffffffffffffffffffffffffffffff1602179055508173ffffffffffffffffffffffffffffffffffffffff168173ffffffffffffffffffffffffffffffffffffffff167f8be0079c531659141344cd1fd0a4f28419497f9722a3daafe3b4186f6b6457e060405160405180910390a35050565b5f73ffffffffffffffffffffffffffffffffffffffff168273ffffffffffffffffffffffffffffffffffffffff1603612dc9576040517f08c379a0000000000000000000000000000000000000000000000000000000008152600401612dc090614f30565b60405180910390fd5b5f8111612e0b576040517f08c379a0000000000000000000000000000000000000000000000000000000008152600401612e0290614874565b60405180910390fd5b5f6001811115612e1e57612e1d6138b6565b5b600860149054906101000a900460ff166001811115612e4057612e3f6138b6565b5b03612f9357806004541015612e8a576040517f08c379a0000000000000000000000000000000000000000000000000000000008152600401612e8190614fbe565b60405180910390fd5b80471015612ecd576040517f08c379a0000000000000000000000000000000000000000000000000000000008152600401612ec49061504c565b60405180910390fd5b8060045f828254612ede9190613d78565b925050819055505f8273ffffffffffffffffffffffffffffffffffffffff1682604051612f0a90613dd8565b5f6040518083038185875af1925050503d805f8114612f44576040519150601f19603f3d011682016040523d82523d5f602084013e612f49565b606091505b5050905080612f8d576040517f08c379a0000000000000000000000000000000000000000000000000000000008152600401612f84906150b4565b60405180910390fd5b50613107565b600180811115612fa657612fa56138b6565b5b600860149054906101000a900460ff166001811115612fc857612fc76138b6565b5b03613106575f73ffffffffffffffffffffffffffffffffffffffff1660055f9054906101000a900473ffffffffffffffffffffffffffffffffffffffff1673ffffffffffffffffffffffffffffffffffffffff160361305c576040517f08c379a00000000000000000000000000000000000000000000000000000000081526004016130539061431d565b60405180910390fd5b8060065410156130a1576040517f08c379a000000000000000000000000000000000000000000000000000000000815260040161309890615142565b60405180910390fd5b8060065f8282546130b29190613d78565b92505081905550613105828260055f9054906101000a900473ffffffffffffffffffffffffffffffffffffffff1673ffffffffffffffffffffffffffffffffffffffff16612c1b9092919063ffffffff16565b5b5b8173ffffffffffffffffffffffffffffffffffffffff167fff43c2705b2225c1c9d9d58f088ab64d4fc767737dee523bed37f15fb0c6c3de82600860149054906101000a900460ff1660405161315e92919061433b565b60405180910390a25050565b5f33905090565b5f5f60205f8451602086015f885af180613190576040513d5f823e3d81fd5b3d92505f519150505f82146131a95760018114156131c4565b5f8473ffffffffffffffffffffffffffffffffffffffff163b145b1561320657836040517f5274afe70000000000000000000000000000000000000000000000000000000081526004016131fd91906136e1565b60405180910390fd5b50505050565b5f82825260208201905092915050565b7f45544820616d6f756e74206d7573742062652067726561746572207468616e205f8201527f7a65726f00000000000000000000000000000000000000000000000000000000602082015250565b5f61327660248361320c565b91506132818261321c565b604082019050919050565b5f6020820190508181035f8301526132a38161326a565b9050919050565b5f819050919050565b7f4e487b71000000000000000000000000000000000000000000000000000000005f52601160045260245ffd5b5f6132ea826132aa565b91506132f5836132aa565b925082820190508082111561330d5761330c6132b3565b5b92915050565b61331c816132aa565b82525050565b5f6020820190506133355f830184613313565b92915050565b5f604051905090565b5f5ffd5b5f5ffd5b613355816132aa565b811461335f575f5ffd5b50565b5f813590506133708161334c565b92915050565b5f5ffd5b5f5ffd5b5f601f19601f8301169050919050565b7f4e487b71000000000000000000000000000000000000000000000000000000005f52604160045260245ffd5b6133c48261337e565b810181811067ffffffffffffffff821117156133e3576133e261338e565b5b80604052505050565b5f6133f561333b565b905061340182826133bb565b919050565b5f67ffffffffffffffff8211156134205761341f61338e565b5b6134298261337e565b9050602081019050919050565b828183375f83830152505050565b5f61345661345184613406565b6133ec565b9050828152602081018484840111156134725761347161337a565b5b61347d848285613436565b509392505050565b5f82601f83011261349957613498613376565b5b81356134a9848260208601613444565b91505092915050565b5f5f604083850312156134c8576134c7613344565b5b5f6134d585828601613362565b925050602083013567ffffffffffffffff8111156134f6576134f5613348565b5b61350285828601613485565b9150509250929050565b5f73ffffffffffffffffffffffffffffffffffffffff82169050919050565b5f6135358261350c565b9050919050565b6135458161352b565b811461354f575f5ffd5b50565b5f813590506135608161353c565b92915050565b5f5f6040838503121561357c5761357b613344565b5b5f61358985828601613362565b925050602061359a85828601613552565b9150509250929050565b5f8115159050919050565b6135b8816135a4565b82525050565b5f6020820190506135d15f8301846135af565b92915050565b5f819050919050565b6135e9816135d7565b82525050565b5f6020820190506136025f8301846135e0565b92915050565b5f6020828403121561361d5761361c613344565b5b5f61362a84828501613552565b91505092915050565b5f6020828403121561364857613647613344565b5b5f61365584828501613362565b91505092915050565b5f819050919050565b5f61368161367c6136778461350c565b61365e565b61350c565b9050919050565b5f61369282613667565b9050919050565b5f6136a382613688565b9050919050565b6136b381613699565b82525050565b5f6020820190506136cc5f8301846136aa565b92915050565b6136db8161352b565b82525050565b5f6020820190506136f45f8301846136d2565b92915050565b5f5ffd5b5f5ffd5b5f5f83601f84011261371757613716613376565b5b8235905067ffffffffffffffff811115613734576137336136fa565b5b6020830191508360018202830111156137505761374f6136fe565b5b9250929050565b5f5f6020838503121561376d5761376c613344565b5b5f83013567ffffffffffffffff81111561378a57613789613348565b5b61379685828601613702565b92509250509250929050565b6137ab816135d7565b81146137b5575f5ffd5b50565b5f813590506137c6816137a2565b92915050565b5f5f604083850312156137e2576137e1613344565b5b5f6137ef85828601613362565b9250506020613800858286016137b8565b9150509250929050565b60028110613816575f5ffd5b50565b5f813590506138278161380a565b92915050565b5f5f5f5f5f5f60c0878903121561384757613846613344565b5b5f61385489828a01613362565b965050602061386589828a016137b8565b955050604061387689828a01613819565b945050606061388789828a01613552565b935050608061389889828a01613362565b92505060a06138a989828a01613552565b9150509295509295509295565b7f4e487b71000000000000000000000000000000000000000000000000000000005f52602160045260245ffd5b600281106138f4576138f36138b6565b5b50565b5f819050613904826138e3565b919050565b5f613913826138f7565b9050919050565b61392381613909565b82525050565b5f60208201905061393c5f83018461391a565b92915050565b7f526964646c652049442063616e6e6f74206265207a65726f00000000000000005f82015250565b5f61397660188361320c565b915061398182613942565b602082019050919050565b5f6020820190508181035f8301526139a38161396a565b9050919050565b7f4e6f74207468652061637469766520726964646c6520494400000000000000005f82015250565b5f6139de60188361320c565b91506139e9826139aa565b602082019050919050565b5f6020820190508181035f830152613a0b816139d2565b9050919050565b7f4d75737420656e746572207468652067616d65206669727374000000000000005f82015250565b5f613a4660198361320c565b9150613a5182613a12565b602082019050919050565b5f6020820190508181035f830152613a7381613a3a565b9050919050565b7f4e6f20636f6d6d697474656420677565737300000000000000000000000000005f82015250565b5f613aae60128361320c565b9150613ab982613a7a565b602082019050919050565b5f6020820190508181035f830152613adb81613aa2565b9050919050565b7f416c72656164792072657665616c6564000000000000000000000000000000005f82015250565b5f613b1660108361320c565b9150613b2182613ae2565b602082019050919050565b5f6020820190508181035f830152613b4381613b0a565b9050919050565b7f52657665616c20746f6f206561726c79000000000000000000000000000000005f82015250565b5f613b7e60108361320c565b9150613b8982613b4a565b602082019050919050565b5f6020820190508181035f830152613bab81613b72565b9050919050565b5f81519050919050565b5f81905092915050565b8281835e5f83830152505050565b5f613bde82613bb2565b613be88185613bbc565b9350613bf8818560208601613bc6565b80840191505092915050565b5f613c0f8284613bd4565b915081905092915050565b7f52657665616c20646f6573206e6f74206d6174636820636f6d6d6974000000005f82015250565b5f613c4e601c8361320c565b9150613c5982613c1a565b602082019050919050565b5f6020820190508181035f830152613c7b81613c42565b9050919050565b7f5769746864726177616c20616d6f756e74206d757374206265206772656174655f8201527f72207468616e207a65726f000000000000000000000000000000000000000000602082015250565b5f613cdc602b8361320c565b9150613ce782613c82565b604082019050919050565b5f6020820190508181035f830152613d0981613cd0565b9050919050565b7f496e73756666696369656e742062616c616e63650000000000000000000000005f82015250565b5f613d4460148361320c565b9150613d4f82613d10565b602082019050919050565b5f6020820190508181035f830152613d7181613d38565b9050919050565b5f613d82826132aa565b9150613d8d836132aa565b9250828203905081811115613da557613da46132b3565b5b92915050565b5f81905092915050565b50565b5f613dc35f83613dab565b9150613dce82613db5565b5f82019050919050565b5f613de282613db8565b9150819050919050565b7f5769746864726177616c206661696c65640000000000000000000000000000005f82015250565b5f613e2060118361320c565b9150613e2b82613dec565b602082019050919050565b5f6020820190508181035f830152613e4d81613e14565b9050919050565b7f4f776e6572207769746864726177616c20616d6f756e74206d757374206265205f8201527f67726561746572207468616e207a65726f000000000000000000000000000000602082015250565b5f613eae60318361320c565b9150613eb982613e54565b604082019050919050565b5f6020820190508181035f830152613edb81613ea2565b9050919050565b7f496e73756666696369656e7420455448207072697a6520706f6f6c00000000005f82015250565b5f613f16601b8361320c565b9150613f2182613ee2565b602082019050919050565b5f6020820190508181035f830152613f4381613f0a565b9050919050565b7f4f776e6572207769746864726177616c206661696c65640000000000000000005f82015250565b5f613f7e60178361320c565b9150613f8982613f4a565b602082019050919050565b5f6020820190508181035f830152613fab81613f72565b9050919050565b7f416c72656164792070617274696369706174656420696e2074686973207269645f8201527f646c650000000000000000000000000000000000000000000000000000000000602082015250565b5f61400c60238361320c565b915061401782613fb2565b604082019050919050565b5f6020820190508181035f83015261403981614000565b9050919050565b7f4e6f2061637469766520726964646c65000000000000000000000000000000005f82015250565b5f61407460108361320c565b915061407f82614040565b602082019050919050565b5f6020820190508181035f8301526140a181614068565b9050919050565b7f456e7472792066656520746f6b656e206e6f74207365740000000000000000005f82015250565b5f6140dc60178361320c565b91506140e7826140a8565b602082019050919050565b5f6020820190508181035f830152614109816140d0565b9050919050565b5f8151905061411e8161334c565b92915050565b5f6020828403121561413957614138613344565b5b5f61414684828501614110565b91505092915050565b7f456e74727920666565206d69736d617463682028464f54206e6f7420737570705f8201527f6f72746564290000000000000000000000000000000000000000000000000000602082015250565b5f6141a960268361320c565b91506141b48261414f565b604082019050919050565b5f6020820190508181035f8301526141d68161419d565b9050919050565b7f416d6f756e74206d7573742062652067726561746572207468616e207a65726f5f82015250565b5f61421160208361320c565b915061421c826141dd565b602082019050919050565b5f6020820190508181035f83015261423e81614205565b9050919050565b7f43757272656e7420726964646c65207072697a65206973206e6f7420455243325f8201527f3000000000000000000000000000000000000000000000000000000000000000602082015250565b5f61429f60218361320c565b91506142aa82614245565b604082019050919050565b5f6020820190508181035f8301526142cc81614293565b9050919050565b7f5072697a6520746f6b656e206e6f7420736574000000000000000000000000005f82015250565b5f61430760138361320c565b9150614312826142d3565b602082019050919050565b5f6020820190508181035f830152614334816142fb565b9050919050565b5f60408201905061434e5f830185613313565b61435b602083018461391a565b9392505050565b7f4f776e657220746f6b656e207769746864726177616c20616d6f756e74206d755f8201527f73742062652067726561746572207468616e207a65726f000000000000000000602082015250565b5f6143bc60378361320c565b91506143c782614362565b604082019050919050565b5f6020820190508181035f8301526143e9816143b0565b9050919050565b7f496e73756666696369656e7420746f6b656e207072697a6520706f6f6c0000005f82015250565b5f614424601d8361320c565b915061442f826143f0565b602082019050919050565b5f6020820190508181035f83015261445181614418565b9050919050565b7f4465706f73697420616d6f756e74206d757374206265206772656174657220745f8201527f68616e207a65726f000000000000000000000000000000000000000000000000602082015250565b5f6144b260288361320c565b91506144bd82614458565b604082019050919050565b5f6020820190508181035f8301526144df816144a6565b9050919050565b7f416c726561647920636c61696d656400000000000000000000000000000000005f82015250565b5f61451a600f8361320c565b9150614525826144e6565b602082019050919050565b5f6020820190508181035f8301526145478161450e565b9050919050565b7f4d7573742072657665616c206775657373206265666f726520736f6c76696e675f82015250565b5f61458260208361320c565b915061458d8261454e565b602082019050919050565b5f6020820190508181035f8301526145af81614576565b9050919050565b5f6145c18385613bbc565b93506145ce838584613436565b82840190509392505050565b5f6145e68284866145b6565b91508190509392505050565b7f52657665616c656420677565737320646f6573206e6f74206d617463682070725f8201527f6f766964656420616e7377657200000000000000000000000000000000000000602082015250565b5f61464c602d8361320c565b9150614657826145f2565b604082019050919050565b5f6020820190508181035f83015261467981614640565b9050919050565b7f477565737320686173682063616e6e6f74206265207a65726f000000000000005f82015250565b5f6146b460198361320c565b91506146bf82614680565b602082019050919050565b5f6020820190508181035f8301526146e1816146a8565b9050919050565b7f416c7265616479207375626d6974746564206120677565737320666f722074685f8201527f697320726964646c650000000000000000000000000000000000000000000000602082015250565b5f61474260298361320c565b915061474d826146e8565b604082019050919050565b5f6020820190508181035f83015261476f81614736565b9050919050565b7f526964646c65204944206d7573742062652067726561746572207468616e20635f8201527f757272656e740000000000000000000000000000000000000000000000000000602082015250565b5f6147d060268361320c565b91506147db82614776565b604082019050919050565b5f6020820190508181035f8301526147fd816147c4565b9050919050565b7f5072697a6520616d6f756e74206d7573742062652067726561746572207468615f8201527f6e207a65726f0000000000000000000000000000000000000000000000000000602082015250565b5f61485e60268361320c565b915061486982614804565b604082019050919050565b5f6020820190508181035f83015261488b81614852565b9050919050565b7f5072697a6520746f6b656e20616464726573732063616e6e6f74206265207a655f8201527f726f20666f72204552433230207072697a650000000000000000000000000000602082015250565b5f6148ec60328361320c565b91506148f782614892565b604082019050919050565b5f6020820190508181035f830152614919816148e0565b9050919050565b7f5072697a6520746f6b656e20686173206e6f20636f6e747261637420636f64655f82015250565b5f61495460208361320c565b915061495f82614920565b602082019050919050565b5f6020820190508181035f83015261498181614948565b9050919050565b7f496e76616c6964204552432d323020746f6b656e3a20746f74616c537570706c5f8201527f792063616c6c206661696c656400000000000000000000000000000000000000602082015250565b5f6149e2602d8361320c565b91506149ed82614988565b604082019050919050565b5f6020820190508181035f830152614a0f816149d6565b9050919050565b7f5072697a6520746f6b656e2061646472657373206d757374206265207a65726f5f8201527f20666f7220455448207072697a65000000000000000000000000000000000000602082015250565b5f614a70602e8361320c565b9150614a7b82614a16565b604082019050919050565b5f6020820190508181035f830152614a9d81614a64565b9050919050565b7f456e7472792066656520746f6b656e20616464726573732063616e6e6f7420625f8201527f65207a65726f20696620656e7472792066656520616d6f756e7420697320677260208201527f6561746572207468616e207a65726f0000000000000000000000000000000000604082015250565b5f614b24604f8361320c565b9150614b2f82614aa4565b606082019050919050565b5f6020820190508181035f830152614b5181614b18565b9050919050565b7f456e7472792066656520746f6b656e20686173206e6f20636f6e7472616374205f8201527f636f646500000000000000000000000000000000000000000000000000000000602082015250565b5f614bb260248361320c565b9150614bbd82614b58565b604082019050919050565b5f6020820190508181035f830152614bdf81614ba6565b9050919050565b7f496e76616c6964204552432d323020746f6b656e20666f7220656e74727920665f8201527f65653a20746f74616c537570706c792063616c6c206661696c65640000000000602082015250565b5f614c40603b8361320c565b9150614c4b82614be6565b604082019050919050565b5f6020820190508181035f830152614c6d81614c34565b9050919050565b7f456e7472792066656520746f6b656e2061646472657373206d757374206265205f8201527f7a65726f20696620656e7472792066656520616d6f756e74206973207a65726f602082015250565b5f614cce60408361320c565b9150614cd982614c74565b604082019050919050565b5f6020820190508181035f830152614cfb81614cc2565b9050919050565b7f4d75737420776974686472617720455448207072697a6520706f6f6c206265665f8201527f6f7265206e657720726964646c65000000000000000000000000000000000000602082015250565b5f614d5c602e8361320c565b9150614d6782614d02565b604082019050919050565b5f6020820190508181035f830152614d8981614d50565b9050919050565b7f4d75737420776974686472617720746f6b656e207072697a6520706f6f6c20625f8201527f65666f7265206e657720726964646c6500000000000000000000000000000000602082015250565b5f614dea60308361320c565b9150614df582614d90565b604082019050919050565b5f6020820190508181035f830152614e1781614dde565b9050919050565b5f60ff82169050919050565b614e3381614e1e565b82525050565b5f60a082019050614e4c5f8301886135e0565b614e596020830187614e2a565b614e6660408301866136d2565b614e736060830185613313565b614e8060808301846136d2565b9695505050505050565b5f606082019050614e9d5f8301866136d2565b614eaa60208301856136d2565b614eb76040830184613313565b949350505050565b5f604082019050614ed25f8301856136d2565b614edf6020830184613313565b9392505050565b7f57696e6e657220616464726573732063616e6e6f74206265207a65726f0000005f82015250565b5f614f1a601d8361320c565b9150614f2582614ee6565b602082019050919050565b5f6020820190508181035f830152614f4781614f0e565b9050919050565b7f496e73756666696369656e7420455448207072697a6520706f6f6c2062616c615f8201527f6e63650000000000000000000000000000000000000000000000000000000000602082015250565b5f614fa860238361320c565b9150614fb382614f4e565b604082019050919050565b5f6020820190508181035f830152614fd581614f9c565b9050919050565b7f496e73756666696369656e7420636f6e7472616374204554482062616c616e635f8201527f6500000000000000000000000000000000000000000000000000000000000000602082015250565b5f61503660218361320c565b915061504182614fdc565b604082019050919050565b5f6020820190508181035f8301526150638161502a565b9050919050565b7f455448207472616e73666572206661696c6564000000000000000000000000005f82015250565b5f61509e60138361320c565b91506150a98261506a565b602082019050919050565b5f6020820190508181035f8301526150cb81615092565b9050919050565b7f496e73756666696369656e74204552433230207072697a6520706f6f6c2062615f8201527f6c616e6365000000000000000000000000000000000000000000000000000000602082015250565b5f61512c60258361320c565b9150615137826150d2565b604082019050919050565b5f6020820190508181035f83015261515981615120565b905091905056fea26469706673582212208a8281ccc15fba722a8d43a562a177eca095a0eb818d7a8503376290fe4f5f4064736f6c634300081e0033","linkReferences":{}},"methodIdentifiers":{"ENTRY_FEE()":"f6d361cc","balances(address)":"27e235e3","committedAt(uint256,address)":"c06a5fc5","committedGuesses(uint256,address)":"b7173e77","currentRiddleId()":"ecdc6c23","deposit()":"d0e30db0","enterGame(uint256)":"43d6582b","entryFeeToken()":"7b149763","ethPrizePool()":"95664a3d","fundTokenPrizePool(uint256)":"48b06e87","getPrizeToken()":"c7cd6959","hasClaimed(uint256,address)":"873f6f9e","hasParticipated(uint256,address)":"a34398a2","hasRevealed(uint256,address)":"16b5551d","owner()":"8da5cb5b","ownerWithdraw(uint256)":"33f707d1","ownerWithdrawTokens(uint256)":"60972120","prizeAmount()":"785fa627","prizeToken()":"d0ef024a","prizeType()":"fcdf8e89","renounceOwnership()":"715018a6","revealDelay()":"53236d74","revealGuess(uint256,string)":"12b5afc1","revealedGuessHash(uint256,address)":"188240cd","setRevealDelay(uint256)":"a68c25d8","setRiddle(uint256,bytes32,uint8,address,uint256,address)":"f9f82e9c","solveRiddleAndClaim(string)":"dc663b53","submitGuess(uint256,bytes32)":"e4d33ee3","tokenPrizePool()":"c310e242","transferOwnership(address)":"f2fde38b","withdraw(uint256)":"2e1a7d4d"},"id":2}