{"abi":[{"type":"constructor","inputs":[{"name":"initialOwner","type":"address","internalType":"address"}],"stateMutability":"nonpayable"},{"type":"function","name":"balances","inputs":[{"name":"","type":"address","internalType":"address"}],"outputs":[{"name":"","type":"uint256","internalType":"uint256"}],"stateMutability":"view"},{"type":"function","name":"currentRiddleId","inputs":[],"outputs":[{"name":"","type":"uint256","internalType":"uint256"}],"stateMutability":"view"},{"type":"function","name":"deposit","inputs":[],"outputs":[],"stateMutability":"payable"},{"type":"function","name":"getAnswerHash","inputs":[],"outputs":[{"name":"","type":"bytes32","internalType":"bytes32"}],"stateMutability":"view"},{"type":"function","name":"getPrizeToken","inputs":[],"outputs":[{"name":"","type":"address","internalType":"address"}],"stateMutability":"view"},{"type":"function","name":"hasParticipated","inputs":[{"name":"","type":"uint256","internalType":"uint256"},{"name":"","type":"address","internalType":"address"}],"outputs":[{"name":"","type":"bool","internalType":"bool"}],"stateMutability":"view"},{"type":"function","name":"owner","inputs":[],"outputs":[{"name":"","type":"address","internalType":"address"}],"stateMutability":"view"},{"type":"function","name":"ownerWithdraw","inputs":[{"name":"_amount","type":"uint256","internalType":"uint256"}],"outputs":[],"stateMutability":"nonpayable"},{"type":"function","name":"prizePool","inputs":[],"outputs":[{"name":"","type":"uint256","internalType":"uint256"}],"stateMutability":"view"},{"type":"function","name":"prizeToken","inputs":[],"outputs":[{"name":"","type":"address","internalType":"contract IERC20"}],"stateMutability":"view"},{"type":"function","name":"renounceOwnership","inputs":[],"outputs":[],"stateMutability":"nonpayable"},{"type":"function","name":"setRiddle","inputs":[{"name":"_riddleId","type":"uint256","internalType":"uint256"},{"name":"_answerHash","type":"bytes32","internalType":"bytes32"},{"name":"_prizeToken","type":"address","internalType":"contract IERC20"}],"outputs":[],"stateMutability":"nonpayable"},{"type":"function","name":"transferOwnership","inputs":[{"name":"newOwner","type":"address","internalType":"address"}],"outputs":[],"stateMutability":"nonpayable"},{"type":"function","name":"withdraw","inputs":[{"name":"_amount","type":"uint256","internalType":"uint256"}],"outputs":[],"stateMutability":"nonpayable"},{"type":"event","name":"Deposit","inputs":[{"name":"user","type":"address","indexed":true,"internalType":"address"},{"name":"amount","type":"uint256","indexed":false,"internalType":"uint256"}],"anonymous":false},{"type":"event","name":"OwnerWithdrawal","inputs":[{"name":"owner","type":"address","indexed":true,"internalType":"address"},{"name":"amount","type":"uint256","indexed":false,"internalType":"uint256"}],"anonymous":false},{"type":"event","name":"OwnershipTransferred","inputs":[{"name":"previousOwner","type":"address","indexed":true,"internalType":"address"},{"name":"newOwner","type":"address","indexed":true,"internalType":"address"}],"anonymous":false},{"type":"event","name":"RiddleSet","inputs":[{"name":"riddleId","type":"uint256","indexed":true,"internalType":"uint256"},{"name":"answerHash","type":"bytes32","indexed":false,"internalType":"bytes32"},{"name":"prizeToken","type":"address","indexed":false,"internalType":"contract IERC20"}],"anonymous":false},{"type":"event","name":"Withdrawal","inputs":[{"name":"user","type":"address","indexed":true,"internalType":"address"},{"name":"amount","type":"uint256","indexed":false,"internalType":"uint256"}],"anonymous":false},{"type":"error","name":"OwnableInvalidOwner","inputs":[{"name":"owner","type":"address","internalType":"address"}]},{"type":"error","name":"OwnableUnauthorizedAccount","inputs":[{"name":"account","type":"address","internalType":"address"}]},{"type":"error","name":"ReentrancyGuardReentrantCall","inputs":[]}],"bytecode":{"object":"0x608060405234801561000f575f5ffd5b50604051611960380380611960833981810160405281019061003191906101de565b805f73ffffffffffffffffffffffffffffffffffffffff168173ffffffffffffffffffffffffffffffffffffffff16036100a2575f6040517f1e4fbdf70000000000000000000000000000000000000000000000000000000081526004016100999190610218565b60405180910390fd5b6100b1816100bf60201b60201c565b506001808190555050610231565b5f5f5f9054906101000a900473ffffffffffffffffffffffffffffffffffffffff169050815f5f6101000a81548173ffffffffffffffffffffffffffffffffffffffff021916908373ffffffffffffffffffffffffffffffffffffffff1602179055508173ffffffffffffffffffffffffffffffffffffffff168173ffffffffffffffffffffffffffffffffffffffff167f8be0079c531659141344cd1fd0a4f28419497f9722a3daafe3b4186f6b6457e060405160405180910390a35050565b5f5ffd5b5f73ffffffffffffffffffffffffffffffffffffffff82169050919050565b5f6101ad82610184565b9050919050565b6101bd816101a3565b81146101c7575f5ffd5b50565b5f815190506101d8816101b4565b92915050565b5f602082840312156101f3576101f2610180565b5b5f610200848285016101ca565b91505092915050565b610212816101a3565b82525050565b5f60208201905061022b5f830184610209565b92915050565b6117228061023e5f395ff3fe6080604052600436106100dc575f3560e01c80639acc80a21161007e578063d0e30db011610058578063d0e30db01461028e578063d0ef024a14610298578063ecdc6c23146102c2578063f2fde38b146102ec576100dc565b80639acc80a2146101fe578063a34398a214610228578063c7cd695914610264576100dc565b8063715018a6116100ba578063715018a61461016c578063719ce73e1461018257806384b97e8b146101ac5780638da5cb5b146101d4576100dc565b806327e235e3146100e05780632e1a7d4d1461011c57806333f707d114610144575b5f5ffd5b3480156100eb575f5ffd5b5061010660048036038101906101019190610de1565b610314565b6040516101139190610e24565b60405180910390f35b348015610127575f5ffd5b50610142600480360381019061013d9190610e67565b610329565b005b34801561014f575f5ffd5b5061016a60048036038101906101659190610e67565b610548565b005b348015610177575f5ffd5b506101806106f3565b005b34801561018d575f5ffd5b50610196610706565b6040516101a39190610e24565b60405180910390f35b3480156101b7575f5ffd5b506101d260048036038101906101cd9190610f00565b61070c565b005b3480156101df575f5ffd5b506101e861089c565b6040516101f59190610f5f565b60405180910390f35b348015610209575f5ffd5b506102126108c3565b60405161021f9190610f87565b60405180910390f35b348015610233575f5ffd5b5061024e60048036038101906102499190610fa0565b6108cc565b60405161025b9190610ff8565b60405180910390f35b34801561026f575f5ffd5b506102786108f6565b6040516102859190610f5f565b60405180910390f35b61029661091e565b005b3480156102a3575f5ffd5b506102ac610b1c565b6040516102b9919061106c565b60405180910390f35b3480156102cd575f5ffd5b506102d6610b41565b6040516102e39190610e24565b60405180910390f35b3480156102f7575f5ffd5b50610312600480360381019061030d9190610de1565b610b47565b005b6002602052805f5260405f205f915090505481565b610331610bcb565b5f8111610373576040517f08c379a000000000000000000000000000000000000000000000000000000000815260040161036a90611105565b60405180910390fd5b8060025f3373ffffffffffffffffffffffffffffffffffffffff1673ffffffffffffffffffffffffffffffffffffffff1681526020019081526020015f205410156103f3576040517f08c379a00000000000000000000000000000000000000000000000000000000081526004016103ea9061116d565b60405180910390fd5b8060025f3373ffffffffffffffffffffffffffffffffffffffff1673ffffffffffffffffffffffffffffffffffffffff1681526020019081526020015f205f82825461043f91906111b8565b925050819055505f3373ffffffffffffffffffffffffffffffffffffffff168260405161046b90611218565b5f6040518083038185875af1925050503d805f81146104a5576040519150601f19603f3d011682016040523d82523d5f602084013e6104aa565b606091505b50509050806104ee576040517f08c379a00000000000000000000000000000000000000000000000000000000081526004016104e590611276565b60405180910390fd5b3373ffffffffffffffffffffffffffffffffffffffff167f7fcf532c15f0a6db0bd6d0e038bea71d30d808c7d98cb3bf7268a95bf5081b65836040516105349190610e24565b60405180910390a250610545610c11565b50565b610550610c1a565b610558610bcb565b5f811161059a576040517f08c379a000000000000000000000000000000000000000000000000000000000815260040161059190611304565b60405180910390fd5b804710156105dd576040517f08c379a00000000000000000000000000000000000000000000000000000000081526004016105d49061136c565b60405180910390fd5b5f6105e661089c565b73ffffffffffffffffffffffffffffffffffffffff168262030d409060405161060e90611218565b5f60405180830381858888f193505050503d805f8114610649576040519150601f19603f3d011682016040523d82523d5f602084013e61064e565b606091505b5050905080610692576040517f08c379a0000000000000000000000000000000000000000000000000000000008152600401610689906113d4565b60405180910390fd5b61069a61089c565b73ffffffffffffffffffffffffffffffffffffffff167fa919fadcfa556a012bab31b15f596ea7ccd397adbf10e15f176db9055ab361c4836040516106df9190610e24565b60405180910390a2506106f0610c11565b50565b6106fb610c1a565b6107045f610ca1565b565b60045481565b610714610c1a565b5f8311610756576040517f08c379a000000000000000000000000000000000000000000000000000000000815260040161074d9061143c565b60405180910390fd5b600354831161079a576040517f08c379a0000000000000000000000000000000000000000000000000000000008152600401610791906114ca565b60405180910390fd5b5f73ffffffffffffffffffffffffffffffffffffffff168173ffffffffffffffffffffffffffffffffffffffff1603610808576040517f08c379a00000000000000000000000000000000000000000000000000000000081526004016107ff90611558565b60405180910390fd5b82600381905550816007819055508060055f6101000a81548173ffffffffffffffffffffffffffffffffffffffff021916908373ffffffffffffffffffffffffffffffffffffffff1602179055505f600481905550827ff745c587684e21aad96b01065b05a14c0fef7ad653c14bc4fefc3e032f5b9fed838360405161088f929190611576565b60405180910390a2505050565b5f5f5f9054906101000a900473ffffffffffffffffffffffffffffffffffffffff16905090565b5f600754905090565b6006602052815f5260405f20602052805f5260405f205f915091509054906101000a900460ff1681565b5f60055f9054906101000a900473ffffffffffffffffffffffffffffffffffffffff16905090565b610926610bcb565b5f3411610968576040517f08c379a000000000000000000000000000000000000000000000000000000000815260040161095f9061160d565b60405180910390fd5b60065f60035481526020019081526020015f205f3373ffffffffffffffffffffffffffffffffffffffff1673ffffffffffffffffffffffffffffffffffffffff1681526020019081526020015f205f9054906101000a900460ff1615610a03576040517f08c379a00000000000000000000000000000000000000000000000000000000081526004016109fa9061169b565b60405180910390fd5b3460025f3373ffffffffffffffffffffffffffffffffffffffff1673ffffffffffffffffffffffffffffffffffffffff1681526020019081526020015f205f828254610a4f91906116b9565b92505081905550600160065f60035481526020019081526020015f205f3373ffffffffffffffffffffffffffffffffffffffff1673ffffffffffffffffffffffffffffffffffffffff1681526020019081526020015f205f6101000a81548160ff021916908315150217905550610ac4610d62565b3373ffffffffffffffffffffffffffffffffffffffff167fe1fffcc4923d04b559f4d29a8bfc6cda04eb5b0d3c460751c2402c5c5cc9109c34604051610b0a9190610e24565b60405180910390a2610b1a610c11565b565b60055f9054906101000a900473ffffffffffffffffffffffffffffffffffffffff1681565b60035481565b610b4f610c1a565b5f73ffffffffffffffffffffffffffffffffffffffff168173ffffffffffffffffffffffffffffffffffffffff1603610bbf575f6040517f1e4fbdf7000000000000000000000000000000000000000000000000000000008152600401610bb69190610f5f565b60405180910390fd5b610bc881610ca1565b50565b600260015403610c07576040517f3ee5aeb500000000000000000000000000000000000000000000000000000000815260040160405180910390fd5b6002600181905550565b60018081905550565b610c22610d7c565b73ffffffffffffffffffffffffffffffffffffffff16610c4061089c565b73ffffffffffffffffffffffffffffffffffffffff1614610c9f57610c63610d7c565b6040517f118cdaa7000000000000000000000000000000000000000000000000000000008152600401610c969190610f5f565b60405180910390fd5b565b5f5f5f9054906101000a900473ffffffffffffffffffffffffffffffffffffffff169050815f5f6101000a81548173ffffffffffffffffffffffffffffffffffffffff021916908373ffffffffffffffffffffffffffffffffffffffff1602179055508173ffffffffffffffffffffffffffffffffffffffff168173ffffffffffffffffffffffffffffffffffffffff167f8be0079c531659141344cd1fd0a4f28419497f9722a3daafe3b4186f6b6457e060405160405180910390a35050565b3460045f828254610d7391906116b9565b92505081905550565b5f33905090565b5f5ffd5b5f73ffffffffffffffffffffffffffffffffffffffff82169050919050565b5f610db082610d87565b9050919050565b610dc081610da6565b8114610dca575f5ffd5b50565b5f81359050610ddb81610db7565b92915050565b5f60208284031215610df657610df5610d83565b5b5f610e0384828501610dcd565b91505092915050565b5f819050919050565b610e1e81610e0c565b82525050565b5f602082019050610e375f830184610e15565b92915050565b610e4681610e0c565b8114610e50575f5ffd5b50565b5f81359050610e6181610e3d565b92915050565b5f60208284031215610e7c57610e7b610d83565b5b5f610e8984828501610e53565b91505092915050565b5f819050919050565b610ea481610e92565b8114610eae575f5ffd5b50565b5f81359050610ebf81610e9b565b92915050565b5f610ecf82610da6565b9050919050565b610edf81610ec5565b8114610ee9575f5ffd5b50565b5f81359050610efa81610ed6565b92915050565b5f5f5f60608486031215610f1757610f16610d83565b5b5f610f2486828701610e53565b9350506020610f3586828701610eb1565b9250506040610f4686828701610eec565b9150509250925092565b610f5981610da6565b82525050565b5f602082019050610f725f830184610f50565b92915050565b610f8181610e92565b82525050565b5f602082019050610f9a5f830184610f78565b92915050565b5f5f60408385031215610fb657610fb5610d83565b5b5f610fc385828601610e53565b9250506020610fd485828601610dcd565b9150509250929050565b5f8115159050919050565b610ff281610fde565b82525050565b5f60208201905061100b5f830184610fe9565b92915050565b5f819050919050565b5f61103461102f61102a84610d87565b611011565b610d87565b9050919050565b5f6110458261101a565b9050919050565b5f6110568261103b565b9050919050565b6110668161104c565b82525050565b5f60208201905061107f5f83018461105d565b92915050565b5f82825260208201905092915050565b7f5769746864726177616c20616d6f756e74206d757374206265206772656174655f8201527f72207468616e207a65726f000000000000000000000000000000000000000000602082015250565b5f6110ef602b83611085565b91506110fa82611095565b604082019050919050565b5f6020820190508181035f83015261111c816110e3565b9050919050565b7f496e73756666696369656e742062616c616e63650000000000000000000000005f82015250565b5f611157601483611085565b915061116282611123565b602082019050919050565b5f6020820190508181035f8301526111848161114b565b9050919050565b7f4e487b71000000000000000000000000000000000000000000000000000000005f52601160045260245ffd5b5f6111c282610e0c565b91506111cd83610e0c565b92508282039050818111156111e5576111e461118b565b5b92915050565b5f81905092915050565b50565b5f6112035f836111eb565b915061120e826111f5565b5f82019050919050565b5f611222826111f8565b9150819050919050565b7f5769746864726177616c206661696c65640000000000000000000000000000005f82015250565b5f611260601183611085565b915061126b8261122c565b602082019050919050565b5f6020820190508181035f83015261128d81611254565b9050919050565b7f4f776e6572207769746864726177616c20616d6f756e74206d757374206265205f8201527f67726561746572207468616e207a65726f000000000000000000000000000000602082015250565b5f6112ee603183611085565b91506112f982611294565b604082019050919050565b5f6020820190508181035f83015261131b816112e2565b9050919050565b7f496e73756666696369656e7420636f6e74726163742062616c616e63650000005f82015250565b5f611356601d83611085565b915061136182611322565b602082019050919050565b5f6020820190508181035f8301526113838161134a565b9050919050565b7f4f776e6572207769746864726177616c206661696c65640000000000000000005f82015250565b5f6113be601783611085565b91506113c98261138a565b602082019050919050565b5f6020820190508181035f8301526113eb816113b2565b9050919050565b7f526964646c652049442063616e6e6f74206265207a65726f00000000000000005f82015250565b5f611426601883611085565b9150611431826113f2565b602082019050919050565b5f6020820190508181035f8301526114538161141a565b9050919050565b7f526964646c65204944206d7573742062652067726561746572207468616e20635f8201527f757272656e740000000000000000000000000000000000000000000000000000602082015250565b5f6114b4602683611085565b91506114bf8261145a565b604082019050919050565b5f6020820190508181035f8301526114e1816114a8565b9050919050565b7f5072697a6520746f6b656e20616464726573732063616e6e6f74206265207a655f8201527f726f000000000000000000000000000000000000000000000000000000000000602082015250565b5f611542602283611085565b915061154d826114e8565b604082019050919050565b5f6020820190508181035f83015261156f81611536565b9050919050565b5f6040820190506115895f830185610f78565b611596602083018461105d565b9392505050565b7f4465706f73697420616d6f756e74206d757374206265206772656174657220745f8201527f68616e207a65726f000000000000000000000000000000000000000000000000602082015250565b5f6115f7602883611085565b91506116028261159d565b604082019050919050565b5f6020820190508181035f830152611624816115eb565b9050919050565b7f416c72656164792070617274696369706174656420696e2074686973207269645f8201527f646c650000000000000000000000000000000000000000000000000000000000602082015250565b5f611685602383611085565b91506116908261162b565b604082019050919050565b5f6020820190508181035f8301526116b281611679565b9050919050565b5f6116c382610e0c565b91506116ce83610e0c565b92508282019050808211156116e6576116e561118b565b5b9291505056fea26469706673582212201baee898aa2fd01eefda7b162c9a0a8b551d359652ff25cdc5aa8081637d248d64736f6c634300081e0033","linkReferences":{}},"methodIdentifiers":{"balances(address)":"27e235e3","currentRiddleId()":"ecdc6c23","deposit()":"d0e30db0","getAnswerHash()":"9acc80a2","getPrizeToken()":"c7cd6959","hasParticipated(uint256,address)":"a34398a2","owner()":"8da5cb5b","ownerWithdraw(uint256)":"33f707d1","prizePool()":"719ce73e","prizeToken()":"d0ef024a","renounceOwnership()":"715018a6","setRiddle(uint256,bytes32,address)":"84b97e8b","transferOwnership(address)":"f2fde38b","withdraw(uint256)":"2e1a7d4d"},"id":0}