{"abi":[{"type":"constructor","inputs":[{"name":"initialOwner","type":"address","internalType":"address"},{"name":"_retryTokenAddress","type":"address","internalType":"address"}],"stateMutability":"nonpayable"},{"type":"receive","stateMutability":"payable"},{"type":"function","name":"ENTRY_FEE","inputs":[],"outputs":[{"name":"","type":"uint256","internalType":"uint256"}],"stateMutability":"view"},{"type":"function","name":"MAX_RETRIES","inputs":[],"outputs":[{"name":"","type":"uint256","internalType":"uint256"}],"stateMutability":"view"},{"type":"function","name":"RETRY_COST","inputs":[],"outputs":[{"name":"","type":"uint256","internalType":"uint256"}],"stateMutability":"view"},{"type":"function","name":"balances","inputs":[{"name":"","type":"address","internalType":"address"}],"outputs":[{"name":"","type":"uint256","internalType":"uint256"}],"stateMutability":"view"},{"type":"function","name":"committedAt","inputs":[{"name":"","type":"uint256","internalType":"uint256"},{"name":"","type":"address","internalType":"address"}],"outputs":[{"name":"","type":"uint256","internalType":"uint256"}],"stateMutability":"view"},{"type":"function","name":"committedGuesses","inputs":[{"name":"","type":"uint256","internalType":"uint256"},{"name":"","type":"address","internalType":"address"}],"outputs":[{"name":"","type":"bytes32","internalType":"bytes32"}],"stateMutability":"view"},{"type":"function","name":"currentRiddleId","inputs":[],"outputs":[{"name":"","type":"uint256","internalType":"uint256"}],"stateMutability":"view"},{"type":"function","name":"deposit","inputs":[],"outputs":[],"stateMutability":"payable"},{"type":"function","name":"enterGame","inputs":[{"name":"_riddleId","type":"uint256","internalType":"uint256"}],"outputs":[],"stateMutability":"nonpayable"},{"type":"function","name":"entryFeeToken","inputs":[],"outputs":[{"name":"","type":"address","internalType":"contract IERC20"}],"stateMutability":"view"},{"type":"function","name":"ethPrizePool","inputs":[],"outputs":[{"name":"","type":"uint256","internalType":"uint256"}],"stateMutability":"view"},{"type":"function","name":"fundTokenPrizePool","inputs":[{"name":"_amount","type":"uint256","internalType":"uint256"}],"outputs":[],"stateMutability":"nonpayable"},{"type":"function","name":"getPrizeToken","inputs":[],"outputs":[{"name":"","type":"address","internalType":"address"}],"stateMutability":"view"},{"type":"function","name":"hasClaimed","inputs":[{"name":"","type":"uint256","internalType":"uint256"},{"name":"","type":"address","internalType":"address"}],"outputs":[{"name":"","type":"bool","internalType":"bool"}],"stateMutability":"view"},{"type":"function","name":"hasParticipated","inputs":[{"name":"","type":"uint256","internalType":"uint256"},{"name":"","type":"address","internalType":"address"}],"outputs":[{"name":"","type":"bool","internalType":"bool"}],"stateMutability":"view"},{"type":"function","name":"hasRevealed","inputs":[{"name":"","type":"uint256","internalType":"uint256"},{"name":"","type":"address","internalType":"address"}],"outputs":[{"name":"","type":"bool","internalType":"bool"}],"stateMutability":"view"},{"type":"function","name":"isWinner","inputs":[{"name":"","type":"uint256","internalType":"uint256"},{"name":"","type":"address","internalType":"address"}],"outputs":[{"name":"","type":"bool","internalType":"bool"}],"stateMutability":"view"},{"type":"function","name":"owner","inputs":[],"outputs":[{"name":"","type":"address","internalType":"address"}],"stateMutability":"view"},{"type":"function","name":"ownerWithdraw","inputs":[{"name":"_amount","type":"uint256","internalType":"uint256"}],"outputs":[],"stateMutability":"nonpayable"},{"type":"function","name":"ownerWithdrawTokens","inputs":[{"name":"_amount","type":"uint256","internalType":"uint256"}],"outputs":[],"stateMutability":"nonpayable"},{"type":"function","name":"payout","inputs":[{"name":"_riddleId","type":"uint256","internalType":"uint256"},{"name":"_winners","type":"address[]","internalType":"address[]"}],"outputs":[],"stateMutability":"nonpayable"},{"type":"function","name":"purchaseRetry","inputs":[{"name":"_riddleId","type":"uint256","internalType":"uint256"}],"outputs":[],"stateMutability":"nonpayable"},{"type":"function","name":"renounceOwnership","inputs":[],"outputs":[],"stateMutability":"nonpayable"},{"type":"function","name":"retries","inputs":[{"name":"","type":"address","internalType":"address"}],"outputs":[{"name":"","type":"uint256","internalType":"uint256"}],"stateMutability":"view"},{"type":"function","name":"retryToken","inputs":[],"outputs":[{"name":"","type":"address","internalType":"contract IERC20"}],"stateMutability":"view"},{"type":"function","name":"revealDelay","inputs":[],"outputs":[{"name":"","type":"uint256","internalType":"uint256"}],"stateMutability":"view"},{"type":"function","name":"revealGuess","inputs":[{"name":"_riddleId","type":"uint256","internalType":"uint256"},{"name":"_guess","type":"string","internalType":"string"}],"outputs":[],"stateMutability":"nonpayable"},{"type":"function","name":"revealedGuessHash","inputs":[{"name":"","type":"uint256","internalType":"uint256"},{"name":"","type":"address","internalType":"address"}],"outputs":[{"name":"","type":"bytes32","internalType":"bytes32"}],"stateMutability":"view"},{"type":"function","name":"riddleConfigs","inputs":[{"name":"","type":"uint256","internalType":"uint256"}],"outputs":[{"name":"prizeAmount","type":"uint256","internalType":"uint256"},{"name":"prizeType","type":"uint8","internalType":"enum Vaultis.PrizeType"},{"name":"prizeToken","type":"address","internalType":"contract IERC20"}],"stateMutability":"view"},{"type":"function","name":"setRevealDelay","inputs":[{"name":"_newRevealDelay","type":"uint256","internalType":"uint256"}],"outputs":[],"stateMutability":"nonpayable"},{"type":"function","name":"setRiddle","inputs":[{"name":"_riddleId","type":"uint256","internalType":"uint256"},{"name":"_answerHash","type":"bytes32","internalType":"bytes32"},{"name":"_prizeType","type":"uint8","internalType":"enum Vaultis.PrizeType"},{"name":"_prizeTokenAddress","type":"address","internalType":"address"},{"name":"_prizeAmount","type":"uint256","internalType":"uint256"},{"name":"_entryFeeTokenAddress","type":"address","internalType":"address"}],"outputs":[],"stateMutability":"nonpayable"},{"type":"function","name":"solveRiddleAndClaim","inputs":[{"name":"_answer","type":"string","internalType":"string"}],"outputs":[],"stateMutability":"nonpayable"},{"type":"function","name":"submitGuess","inputs":[{"name":"_riddleId","type":"uint256","internalType":"uint256"},{"name":"_guessHash","type":"bytes32","internalType":"bytes32"}],"outputs":[],"stateMutability":"nonpayable"},{"type":"function","name":"tokenPrizePool","inputs":[],"outputs":[{"name":"","type":"uint256","internalType":"uint256"}],"stateMutability":"view"},{"type":"function","name":"transferOwnership","inputs":[{"name":"newOwner","type":"address","internalType":"address"}],"outputs":[],"stateMutability":"nonpayable"},{"type":"function","name":"winners","inputs":[{"name":"","type":"uint256","internalType":"uint256"},{"name":"","type":"uint256","internalType":"uint256"}],"outputs":[{"name":"","type":"address","internalType":"address"}],"stateMutability":"view"},{"type":"function","name":"withdraw","inputs":[{"name":"_amount","type":"uint256","internalType":"uint256"}],"outputs":[],"stateMutability":"nonpayable"},{"type":"event","name":"Deposit","inputs":[{"name":"user","type":"address","indexed":true,"internalType":"address"},{"name":"amount","type":"uint256","indexed":false,"internalType":"uint256"}],"anonymous":false},{"type":"event","name":"EntryFeeCollected","inputs":[{"name":"player","type":"address","indexed":true,"internalType":"address"},{"name":"token","type":"address","indexed":true,"internalType":"address"},{"name":"amount","type":"uint256","indexed":false,"internalType":"uint256"},{"name":"riddleId","type":"uint256","indexed":true,"internalType":"uint256"}],"anonymous":false},{"type":"event","name":"EthReceived","inputs":[{"name":"sender","type":"address","indexed":true,"internalType":"address"},{"name":"amount","type":"uint256","indexed":false,"internalType":"uint256"}],"anonymous":false},{"type":"event","name":"GuessEvaluated","inputs":[{"name":"riddleId","type":"uint256","indexed":true,"internalType":"uint256"},{"name":"player","type":"address","indexed":true,"internalType":"address"},{"name":"timestamp","type":"uint256","indexed":false,"internalType":"uint256"},{"name":"isWinner","type":"bool","indexed":false,"internalType":"bool"}],"anonymous":false},{"type":"event","name":"GuessRevealed","inputs":[{"name":"player","type":"address","indexed":true,"internalType":"address"},{"name":"riddleId","type":"uint256","indexed":true,"internalType":"uint256"},{"name":"revealedHash","type":"bytes32","indexed":false,"internalType":"bytes32"}],"anonymous":false},{"type":"event","name":"GuessSubmitted","inputs":[{"name":"player","type":"address","indexed":true,"internalType":"address"},{"name":"riddleId","type":"uint256","indexed":true,"internalType":"uint256"},{"name":"guessHash","type":"bytes32","indexed":false,"internalType":"bytes32"}],"anonymous":false},{"type":"event","name":"OwnerWithdrawTokens","inputs":[{"name":"amount","type":"uint256","indexed":false,"internalType":"uint256"}],"anonymous":false},{"type":"event","name":"OwnerWithdrawal","inputs":[{"name":"owner","type":"address","indexed":true,"internalType":"address"},{"name":"amount","type":"uint256","indexed":false,"internalType":"uint256"}],"anonymous":false},{"type":"event","name":"OwnershipTransferred","inputs":[{"name":"previousOwner","type":"address","indexed":true,"internalType":"address"},{"name":"newOwner","type":"address","indexed":true,"internalType":"address"}],"anonymous":false},{"type":"event","name":"PayoutExecuted","inputs":[{"name":"riddleId","type":"uint256","indexed":true,"internalType":"uint256"},{"name":"winnerCount","type":"uint256","indexed":false,"internalType":"uint256"},{"name":"totalAmount","type":"uint256","indexed":false,"internalType":"uint256"},{"name":"prizeType","type":"uint8","indexed":false,"internalType":"enum Vaultis.PrizeType"}],"anonymous":false},{"type":"event","name":"PlayerEntered","inputs":[{"name":"player","type":"address","indexed":true,"internalType":"address"},{"name":"riddleId","type":"uint256","indexed":true,"internalType":"uint256"}],"anonymous":false},{"type":"event","name":"PrizeDistributed","inputs":[{"name":"winner","type":"address","indexed":true,"internalType":"address"},{"name":"amount","type":"uint256","indexed":false,"internalType":"uint256"},{"name":"prizeType","type":"uint8","indexed":false,"internalType":"enum Vaultis.PrizeType"}],"anonymous":false},{"type":"event","name":"PrizeFunded","inputs":[{"name":"funder","type":"address","indexed":true,"internalType":"address"},{"name":"amount","type":"uint256","indexed":false,"internalType":"uint256"},{"name":"prizeType","type":"uint8","indexed":false,"internalType":"enum Vaultis.PrizeType"}],"anonymous":false},{"type":"event","name":"RetryPurchased","inputs":[{"name":"player","type":"address","indexed":true,"internalType":"address"},{"name":"riddleId","type":"uint256","indexed":true,"internalType":"uint256"},{"name":"cost","type":"uint256","indexed":false,"internalType":"uint256"},{"name":"newRetryCount","type":"uint256","indexed":false,"internalType":"uint256"}],"anonymous":false},{"type":"event","name":"RiddleInitialized","inputs":[{"name":"riddleId","type":"uint256","indexed":true,"internalType":"uint256"},{"name":"answerHash","type":"bytes32","indexed":false,"internalType":"bytes32"},{"name":"prizeType","type":"uint8","indexed":false,"internalType":"uint8"},{"name":"prizeTokenAddress","type":"address","indexed":false,"internalType":"address"},{"name":"prizeAmount","type":"uint256","indexed":false,"internalType":"uint256"},{"name":"entryFeeTokenAddress","type":"address","indexed":false,"internalType":"address"}],"anonymous":false},{"type":"event","name":"WinnerFound","inputs":[{"name":"winner","type":"address","indexed":true,"internalType":"address"},{"name":"riddleId","type":"uint256","indexed":true,"internalType":"uint256"}],"anonymous":false},{"type":"event","name":"Withdrawal","inputs":[{"name":"user","type":"address","indexed":true,"internalType":"address"},{"name":"amount","type":"uint256","indexed":false,"internalType":"uint256"}],"anonymous":false},{"type":"error","name":"OwnableInvalidOwner","inputs":[{"name":"owner","type":"address","internalType":"address"}]},{"type":"error","name":"OwnableUnauthorizedAccount","inputs":[{"name":"account","type":"address","internalType":"address"}]},{"type":"error","name":"ReentrancyGuardReentrantCall","inputs":[]},{"type":"error","name":"SafeERC20FailedOperation","inputs":[{"name":"token","type":"address","internalType":"address"}]}],"bytecode":{"object":"0x608060405234801561000f575f5ffd5b50604051617465380380617465833981810160405281019061003191906103d7565b815f73ffffffffffffffffffffffffffffffffffffffff168173ffffffffffffffffffffffffffffffffffffffff16036100a2575f6040517f1e4fbdf70000000000000000000000000000000000000000000000000000000081526004016100999190610424565b60405180910390fd5b6100b1816102b860201b60201c565b50600180819055505f73ffffffffffffffffffffffffffffffffffffffff168173ffffffffffffffffffffffffffffffffffffffff1603610127576040517f08c379a000000000000000000000000000000000000000000000000000000000815260040161011e906104bd565b60405180910390fd5b5f8173ffffffffffffffffffffffffffffffffffffffff163b11610180576040517f08c379a000000000000000000000000000000000000000000000000000000000815260040161017790610525565b60405180910390fd5b8073ffffffffffffffffffffffffffffffffffffffff166318160ddd6040518163ffffffff1660e01b8152600401602060405180830381865afa9250505080156101e857506040513d601f19601f820116820180604052508101906101e59190610576565b60015b610227576040517f08c379a000000000000000000000000000000000000000000000000000000000815260040161021e90610611565b60405180910390fd5b505f60065f6101000a81548173ffffffffffffffffffffffffffffffffffffffff021916908373ffffffffffffffffffffffffffffffffffffffff160217905550610e106011819055508060085f6101000a81548173ffffffffffffffffffffffffffffffffffffffff021916908373ffffffffffffffffffffffffffffffffffffffff160217905550505061062f565b5f5f5f9054906101000a900473ffffffffffffffffffffffffffffffffffffffff169050815f5f6101000a81548173ffffffffffffffffffffffffffffffffffffffff021916908373ffffffffffffffffffffffffffffffffffffffff1602179055508173ffffffffffffffffffffffffffffffffffffffff168173ffffffffffffffffffffffffffffffffffffffff167f8be0079c531659141344cd1fd0a4f28419497f9722a3daafe3b4186f6b6457e060405160405180910390a35050565b5f5ffd5b5f73ffffffffffffffffffffffffffffffffffffffff82169050919050565b5f6103a68261037d565b9050919050565b6103b68161039c565b81146103c0575f5ffd5b50565b5f815190506103d1816103ad565b92915050565b5f5f604083850312156103ed576103ec610379565b5b5f6103fa858286016103c3565b925050602061040b858286016103c3565b9150509250929050565b61041e8161039c565b82525050565b5f6020820190506104375f830184610415565b92915050565b5f82825260208201905092915050565b7f526574727920746f6b656e20616464726573732063616e6e6f74206265207a655f8201527f726f000000000000000000000000000000000000000000000000000000000000602082015250565b5f6104a760228361043d565b91506104b28261044d565b604082019050919050565b5f6020820190508181035f8301526104d48161049b565b9050919050565b7f526574727920746f6b656e20686173206e6f20636f6e747261637420636f64655f82015250565b5f61050f60208361043d565b915061051a826104db565b602082019050919050565b5f6020820190508181035f83015261053c81610503565b9050919050565b5f819050919050565b61055581610543565b811461055f575f5ffd5b50565b5f815190506105708161054c565b92915050565b5f6020828403121561058b5761058a610379565b5b5f61059884828501610562565b91505092915050565b7f496e76616c6964204552432d323020746f6b656e20666f722072657472793a205f8201527f746f74616c537570706c792063616c6c206661696c6564000000000000000000602082015250565b5f6105fb60378361043d565b9150610606826105a1565b604082019050919050565b5f6020820190508181035f830152610628816105ef565b9050919050565b616e298061063c5f395ff3fe60806040526004361061021d575f3560e01c80638da5cb5b11610122578063c7cd6959116100aa578063e4d33ee31161006e578063e4d33ee314610890578063ecdc6c23146108b8578063f2fde38b146108e2578063f6d361cc1461090a578063f9f82e9c14610934576102cc565b8063c7cd6959146107d0578063c8e728f9146107fa578063d0e30db014610822578063dbbd32451461082c578063dc663b5314610868576102cc565b8063a6dbce24116100f1578063a6dbce24146106b4578063b7173e77146106f2578063bdd415af1461072e578063c06a5fc51461076a578063c310e242146107a6576102cc565b80638da5cb5b146105fc57806395664a3d14610626578063a34398a214610650578063a68c25d81461068c576102cc565b806346ebbdb0116101a557806360972120116101745780636097212014610530578063715018a6146105585780637a11e9411461056e5780637b14976314610596578063873f6f9e146105c0576102cc565b806346ebbdb01461048a57806348b06e87146104b457806353236d74146104dc57806357aa0ea214610506576102cc565b8063219fc385116101ec578063219fc385146103ac57806327e235e3146103d65780632e1a7d4d1461041257806333f707d11461043a57806343d6582b14610462576102cc565b80630efc8865146102d057806312b5afc11461030c57806316b5551d14610334578063188240cd14610370576102cc565b366102cc575f3411610264576040517f08c379a000000000000000000000000000000000000000000000000000000000815260040161025b9061456d565b60405180910390fd5b3460045f82825461027591906145c1565b925050819055503373ffffffffffffffffffffffffffffffffffffffff167f85177f287940f2f05425a4029951af0e047a7f9c4eaa9a6e6917bcd869f86695346040516102c29190614603565b60405180910390a2005b5f5ffd5b3480156102db575f5ffd5b506102f660048036038101906102f19190614657565b61095c565b60405161030391906146d4565b60405180910390f35b348015610317575f5ffd5b50610332600480360381019061032d9190614829565b6109a4565b005b34801561033f575f5ffd5b5061035a600480360381019061035591906148ad565b610efc565b6040516103679190614905565b60405180910390f35b34801561037b575f5ffd5b50610396600480360381019061039191906148ad565b610f26565b6040516103a39190614936565b60405180910390f35b3480156103b7575f5ffd5b506103c0610f46565b6040516103cd91906149aa565b60405180910390f35b3480156103e1575f5ffd5b506103fc60048036038101906103f791906149c3565b610f6b565b6040516104099190614603565b60405180910390f35b34801561041d575f5ffd5b50610438600480360381019061043391906149ee565b610f80565b005b348015610445575f5ffd5b50610460600480360381019061045b91906149ee565b61119f565b005b34801561046d575f5ffd5b50610488600480360381019061048391906149ee565b611364565b005b348015610495575f5ffd5b5061049e611896565b6040516104ab9190614603565b60405180910390f35b3480156104bf575f5ffd5b506104da60048036038101906104d591906149ee565b61189b565b005b3480156104e7575f5ffd5b506104f0611ad1565b6040516104fd9190614603565b60405180910390f35b348015610511575f5ffd5b5061051a611ad7565b6040516105279190614603565b60405180910390f35b34801561053b575f5ffd5b50610556600480360381019061055191906149ee565b611ae3565b005b348015610563575f5ffd5b5061056c611cd3565b005b348015610579575f5ffd5b50610594600480360381019061058f91906149ee565b611ce6565b005b3480156105a1575f5ffd5b506105aa61227a565b6040516105b791906149aa565b60405180910390f35b3480156105cb575f5ffd5b506105e660048036038101906105e191906148ad565b61229f565b6040516105f39190614905565b60405180910390f35b348015610607575f5ffd5b506106106122c9565b60405161061d91906146d4565b60405180910390f35b348015610631575f5ffd5b5061063a6122f0565b6040516106479190614603565b60405180910390f35b34801561065b575f5ffd5b50610676600480360381019061067191906148ad565b6122f6565b6040516106839190614905565b60405180910390f35b348015610697575f5ffd5b506106b260048036038101906106ad91906149ee565b612320565b005b3480156106bf575f5ffd5b506106da60048036038101906106d591906149ee565b612332565b6040516106e993929190614a8c565b60405180910390f35b3480156106fd575f5ffd5b50610718600480360381019061071391906148ad565b612384565b6040516107259190614936565b60405180910390f35b348015610739575f5ffd5b50610754600480360381019061074f91906148ad565b6123a4565b6040516107619190614905565b60405180910390f35b348015610775575f5ffd5b50610790600480360381019061078b91906148ad565b6123ce565b60405161079d9190614603565b60405180910390f35b3480156107b1575f5ffd5b506107ba6123ee565b6040516107c79190614603565b60405180910390f35b3480156107db575f5ffd5b506107e46123f4565b6040516107f191906146d4565b60405180910390f35b348015610805575f5ffd5b50610820600480360381019061081b9190614b85565b612431565b005b61082a6129f3565b005b348015610837575f5ffd5b50610852600480360381019061084d91906149c3565b612ae8565b60405161085f9190614603565b60405180910390f35b348015610873575f5ffd5b5061088e60048036038101906108899190614c38565b612afd565b005b34801561089b575f5ffd5b506108b660048036038101906108b19190614cad565b612f56565b005b3480156108c3575f5ffd5b506108cc613665565b6040516108d99190614603565b60405180910390f35b3480156108ed575f5ffd5b50610908600480360381019061090391906149c3565b61366b565b005b348015610915575f5ffd5b5061091e6136ef565b60405161092b9190614603565b60405180910390f35b34801561093f575f5ffd5b5061095a60048036038101906109559190614d0e565b6136fb565b005b6013602052815f5260405f208181548110610975575f80fd5b905f5260205f20015f915091509054906101000a900473ffffffffffffffffffffffffffffffffffffffff1681565b6109ac613e11565b5f82116109ee576040517f08c379a00000000000000000000000000000000000000000000000000000000081526004016109e590614de1565b60405180910390fd5b6003548214610a32576040517f08c379a0000000000000000000000000000000000000000000000000000000008152600401610a2990614e49565b60405180910390fd5b60095f8381526020019081526020015f205f3373ffffffffffffffffffffffffffffffffffffffff1673ffffffffffffffffffffffffffffffffffffffff1681526020019081526020015f205f9054906101000a900460ff16610aca576040517f08c379a0000000000000000000000000000000000000000000000000000000008152600401610ac190614eb1565b60405180910390fd5b5f5f1b600d5f8481526020019081526020015f205f3373ffffffffffffffffffffffffffffffffffffffff1673ffffffffffffffffffffffffffffffffffffffff1681526020019081526020015f205403610b5a576040517f08c379a0000000000000000000000000000000000000000000000000000000008152600401610b5190614f19565b60405180910390fd5b60105f8381526020019081526020015f205f3373ffffffffffffffffffffffffffffffffffffffff1673ffffffffffffffffffffffffffffffffffffffff1681526020019081526020015f205f9054906101000a900460ff1615610bf3576040517f08c379a0000000000000000000000000000000000000000000000000000000008152600401610bea90614f81565b60405180910390fd5b601154600e5f8481526020019081526020015f205f3373ffffffffffffffffffffffffffffffffffffffff1673ffffffffffffffffffffffffffffffffffffffff1681526020019081526020015f2054610c4d91906145c1565b421015610c8f576040517f08c379a0000000000000000000000000000000000000000000000000000000008152600401610c8690614fe9565b60405180910390fd5b5f81604051602001610ca19190615059565b604051602081830303815290604052805190602001209050600d5f8481526020019081526020015f205f3373ffffffffffffffffffffffffffffffffffffffff1673ffffffffffffffffffffffffffffffffffffffff1681526020019081526020015f20548114610d47576040517f08c379a0000000000000000000000000000000000000000000000000000000008152600401610d3e906150b9565b60405180910390fd5b80600f5f8581526020019081526020015f205f3373ffffffffffffffffffffffffffffffffffffffff1673ffffffffffffffffffffffffffffffffffffffff1681526020019081526020015f2081905550600160105f8581526020019081526020015f205f3373ffffffffffffffffffffffffffffffffffffffff1673ffffffffffffffffffffffffffffffffffffffff1681526020019081526020015f205f6101000a81548160ff0219169083151502179055505f5f1b600d5f8581526020019081526020015f205f3373ffffffffffffffffffffffffffffffffffffffff1673ffffffffffffffffffffffffffffffffffffffff1681526020019081526020015f20819055505f600e5f8581526020019081526020015f205f3373ffffffffffffffffffffffffffffffffffffffff1673ffffffffffffffffffffffffffffffffffffffff1681526020019081526020015f2081905550823373ffffffffffffffffffffffffffffffffffffffff167f59d3b853b3060eb254d2f04ecf2d2fba8ec34ae94835cd01eedead529314f52483604051610ee79190614936565b60405180910390a350610ef8613e57565b5050565b6010602052815f5260405f20602052805f5260405f205f915091509054906101000a900460ff1681565b600f602052815f5260405f20602052805f5260405f205f91509150505481565b60085f9054906101000a900473ffffffffffffffffffffffffffffffffffffffff1681565b6002602052805f5260405f205f915090505481565b610f88613e11565b5f8111610fca576040517f08c379a0000000000000000000000000000000000000000000000000000000008152600401610fc190615147565b60405180910390fd5b8060025f3373ffffffffffffffffffffffffffffffffffffffff1673ffffffffffffffffffffffffffffffffffffffff1681526020019081526020015f2054101561104a576040517f08c379a0000000000000000000000000000000000000000000000000000000008152600401611041906151af565b60405180910390fd5b8060025f3373ffffffffffffffffffffffffffffffffffffffff1673ffffffffffffffffffffffffffffffffffffffff1681526020019081526020015f205f82825461109691906151cd565b925050819055505f3373ffffffffffffffffffffffffffffffffffffffff16826040516110c29061522d565b5f6040518083038185875af1925050503d805f81146110fc576040519150601f19603f3d011682016040523d82523d5f602084013e611101565b606091505b5050905080611145576040517f08c379a000000000000000000000000000000000000000000000000000000000815260040161113c9061528b565b60405180910390fd5b3373ffffffffffffffffffffffffffffffffffffffff167f7fcf532c15f0a6db0bd6d0e038bea71d30d808c7d98cb3bf7268a95bf5081b658360405161118b9190614603565b60405180910390a25061119c613e57565b50565b6111a7613e60565b6111af613e11565b5f81116111f1576040517f08c379a00000000000000000000000000000000000000000000000000000000081526004016111e890615319565b60405180910390fd5b806004541015611236576040517f08c379a000000000000000000000000000000000000000000000000000000000815260040161122d90615381565b60405180910390fd5b8060045f82825461124791906151cd565b925050819055505f6112576122c9565b73ffffffffffffffffffffffffffffffffffffffff168262030d409060405161127f9061522d565b5f60405180830381858888f193505050503d805f81146112ba576040519150601f19603f3d011682016040523d82523d5f602084013e6112bf565b606091505b5050905080611303576040517f08c379a00000000000000000000000000000000000000000000000000000000081526004016112fa906153e9565b60405180910390fd5b61130b6122c9565b73ffffffffffffffffffffffffffffffffffffffff167fa919fadcfa556a012bab31b15f596ea7ccd397adbf10e15f176db9055ab361c4836040516113509190614603565b60405180910390a250611361613e57565b50565b61136c613e11565b60095f8281526020019081526020015f205f3373ffffffffffffffffffffffffffffffffffffffff1673ffffffffffffffffffffffffffffffffffffffff1681526020019081526020015f205f9054906101000a900460ff1615611405576040517f08c379a00000000000000000000000000000000000000000000000000000000081526004016113fc90615477565b60405180910390fd5b6003548114611449576040517f08c379a000000000000000000000000000000000000000000000000000000000815260040161144090614e49565b60405180910390fd5b5f6003541161148d576040517f08c379a0000000000000000000000000000000000000000000000000000000008152600401611484906154df565b60405180910390fd5b80600c5f3373ffffffffffffffffffffffffffffffffffffffff1673ffffffffffffffffffffffffffffffffffffffff1681526020019081526020015f205414611556575f600b5f3373ffffffffffffffffffffffffffffffffffffffff1673ffffffffffffffffffffffffffffffffffffffff1681526020019081526020015f208190555080600c5f3373ffffffffffffffffffffffffffffffffffffffff1673ffffffffffffffffffffffffffffffffffffffff1681526020019081526020015f20819055505b5f670de0b6b3a764000011156117e3575f60065f9054906101000a900473ffffffffffffffffffffffffffffffffffffffff1690505f73ffffffffffffffffffffffffffffffffffffffff168173ffffffffffffffffffffffffffffffffffffffff16036115f9576040517f08c379a00000000000000000000000000000000000000000000000000000000081526004016115f090615547565b60405180910390fd5b5f8173ffffffffffffffffffffffffffffffffffffffff166370a08231306040518263ffffffff1660e01b815260040161163391906146d4565b602060405180830381865afa15801561164e573d5f5f3e3d5ffd5b505050506040513d601f19601f820116820180604052508101906116729190615579565b90506116a93330670de0b6b3a76400008573ffffffffffffffffffffffffffffffffffffffff16613ee7909392919063ffffffff16565b5f818373ffffffffffffffffffffffffffffffffffffffff166370a08231306040518263ffffffff1660e01b81526004016116e491906146d4565b602060405180830381865afa1580156116ff573d5f5f3e3d5ffd5b505050506040513d601f19601f820116820180604052508101906117239190615579565b61172d91906151cd565b9050670de0b6b3a76400008114611779576040517f08c379a000000000000000000000000000000000000000000000000000000000815260040161177090615614565b60405180910390fd5b838373ffffffffffffffffffffffffffffffffffffffff163373ffffffffffffffffffffffffffffffffffffffff167f1f8e0e31739d887c754fcf7403fe1bdf6641ef33578b9d08631a7d5e6e9b8fb7846040516117d79190614603565b60405180910390a45050505b600160095f8381526020019081526020015f205f3373ffffffffffffffffffffffffffffffffffffffff1673ffffffffffffffffffffffffffffffffffffffff1681526020019081526020015f205f6101000a81548160ff021916908315150217905550803373ffffffffffffffffffffffffffffffffffffffff167fc16481c9484122696a660b57df0bf6839645c6b620cb1704ac2437de13be922560405160405180910390a3611893613e57565b50565b600381565b6118a3613e60565b6118ab613e11565b5f81116118ed576040517f08c379a00000000000000000000000000000000000000000000000000000000081526004016118e49061567c565b60405180910390fd5b5f60075f60035481526020019081526020015f20905060018081111561191657611915614a19565b5b816001015f9054906101000a900460ff16600181111561193957611938614a19565b5b14611979576040517f08c379a00000000000000000000000000000000000000000000000000000000081526004016119709061570a565b60405180910390fd5b5f73ffffffffffffffffffffffffffffffffffffffff168160010160019054906101000a900473ffffffffffffffffffffffffffffffffffffffff1673ffffffffffffffffffffffffffffffffffffffff1603611a0b576040517f08c379a0000000000000000000000000000000000000000000000000000000008152600401611a0290615772565b60405180910390fd5b611a5c3330848460010160019054906101000a900473ffffffffffffffffffffffffffffffffffffffff1673ffffffffffffffffffffffffffffffffffffffff16613ee7909392919063ffffffff16565b8160055f828254611a6d91906145c1565b925050819055503373ffffffffffffffffffffffffffffffffffffffff167f4708e702157b1eb6cd00a772e6a623599ac7dc0bad76e8c624fdef050b434f09836001604051611abd929190615790565b60405180910390a250611ace613e57565b50565b60115481565b67016345785d8a000081565b611aeb613e60565b611af3613e11565b5f8111611b35576040517f08c379a0000000000000000000000000000000000000000000000000000000008152600401611b2c90615827565b60405180910390fd5b806005541015611b7a576040517f08c379a0000000000000000000000000000000000000000000000000000000008152600401611b719061588f565b60405180910390fd5b5f60075f60035481526020019081526020015f2090505f73ffffffffffffffffffffffffffffffffffffffff168160010160019054906101000a900473ffffffffffffffffffffffffffffffffffffffff1673ffffffffffffffffffffffffffffffffffffffff1603611c22576040517f08c379a0000000000000000000000000000000000000000000000000000000008152600401611c1990615772565b60405180910390fd5b8160055f828254611c3391906151cd565b92505081905550611c90611c456122c9565b838360010160019054906101000a900473ffffffffffffffffffffffffffffffffffffffff1673ffffffffffffffffffffffffffffffffffffffff16613f699092919063ffffffff16565b7f560c2b6d9212838c63f631c64ebc9d7364da90f9af3fdec847c0725dd18330c882604051611cbf9190614603565b60405180910390a150611cd0613e57565b50565b611cdb613e60565b611ce45f613fe8565b565b611cee613e11565b6003548114611d32576040517f08c379a0000000000000000000000000000000000000000000000000000000008152600401611d2990614e49565b60405180910390fd5b60095f8281526020019081526020015f205f3373ffffffffffffffffffffffffffffffffffffffff1673ffffffffffffffffffffffffffffffffffffffff1681526020019081526020015f205f9054906101000a900460ff16611dca576040517f08c379a0000000000000000000000000000000000000000000000000000000008152600401611dc19061591d565b60405180910390fd5b5f73ffffffffffffffffffffffffffffffffffffffff1660085f9054906101000a900473ffffffffffffffffffffffffffffffffffffffff1673ffffffffffffffffffffffffffffffffffffffff1603611e59576040517f08c379a0000000000000000000000000000000000000000000000000000000008152600401611e5090615985565b60405180910390fd5b6003600b5f3373ffffffffffffffffffffffffffffffffffffffff1673ffffffffffffffffffffffffffffffffffffffff1681526020019081526020015f205410611ed9576040517f08c379a0000000000000000000000000000000000000000000000000000000008152600401611ed0906159ed565b60405180910390fd5b80600c5f3373ffffffffffffffffffffffffffffffffffffffff1673ffffffffffffffffffffffffffffffffffffffff1681526020019081526020015f205414611fa2575f600b5f3373ffffffffffffffffffffffffffffffffffffffff1673ffffffffffffffffffffffffffffffffffffffff1681526020019081526020015f208190555080600c5f3373ffffffffffffffffffffffffffffffffffffffff1673ffffffffffffffffffffffffffffffffffffffff1681526020019081526020015f20819055505b5f60085f9054906101000a900473ffffffffffffffffffffffffffffffffffffffff1673ffffffffffffffffffffffffffffffffffffffff166370a08231306040518263ffffffff1660e01b8152600401611ffd91906146d4565b602060405180830381865afa158015612018573d5f5f3e3d5ffd5b505050506040513d601f19601f8201168201806040525081019061203c9190615579565b9050612094333067016345785d8a000060085f9054906101000a900473ffffffffffffffffffffffffffffffffffffffff1673ffffffffffffffffffffffffffffffffffffffff16613ee7909392919063ffffffff16565b5f8160085f9054906101000a900473ffffffffffffffffffffffffffffffffffffffff1673ffffffffffffffffffffffffffffffffffffffff166370a08231306040518263ffffffff1660e01b81526004016120f091906146d4565b602060405180830381865afa15801561210b573d5f5f3e3d5ffd5b505050506040513d601f19601f8201168201806040525081019061212f9190615579565b61213991906151cd565b905067016345785d8a00008114612185576040517f08c379a000000000000000000000000000000000000000000000000000000000815260040161217c90615a7b565b60405180910390fd5b600b5f3373ffffffffffffffffffffffffffffffffffffffff1673ffffffffffffffffffffffffffffffffffffffff1681526020019081526020015f205f8154809291906121d290615a99565b9190505550823373ffffffffffffffffffffffffffffffffffffffff167f98afd9c8b4874dc0b797b810a6a8488429aea97e225fc6e70d948f77660fbee767016345785d8a0000600b5f3373ffffffffffffffffffffffffffffffffffffffff1673ffffffffffffffffffffffffffffffffffffffff1681526020019081526020015f2054604051612265929190615ae0565b60405180910390a35050612277613e57565b50565b60065f9054906101000a900473ffffffffffffffffffffffffffffffffffffffff1681565b600a602052815f5260405f20602052805f5260405f205f915091509054906101000a900460ff1681565b5f5f5f9054906101000a900473ffffffffffffffffffffffffffffffffffffffff16905090565b60045481565b6009602052815f5260405f20602052805f5260405f205f915091509054906101000a900460ff1681565b612328613e60565b8060118190555050565b6007602052805f5260405f205f91509050805f015490806001015f9054906101000a900460ff16908060010160019054906101000a900473ffffffffffffffffffffffffffffffffffffffff16905083565b600d602052815f5260405f20602052805f5260405f205f91509150505481565b6014602052815f5260405f20602052805f5260405f205f915091509054906101000a900460ff1681565b600e602052815f5260405f20602052805f5260405f205f91509150505481565b60055481565b5f60075f60035481526020019081526020015f2060010160019054906101000a900473ffffffffffffffffffffffffffffffffffffffff16905090565b612439613e60565b612441613e11565b5f8211612483576040517f08c379a000000000000000000000000000000000000000000000000000000000815260040161247a90615b77565b60405180910390fd5b6003548211156124c8576040517f08c379a00000000000000000000000000000000000000000000000000000000081526004016124bf90615c05565b60405180910390fd5b5f81511161250b576040517f08c379a000000000000000000000000000000000000000000000000000000000815260040161250290615c6d565b60405180910390fd5b5f60075f8481526020019081526020015f2090505f815f015411612564576040517f08c379a000000000000000000000000000000000000000000000000000000000815260040161255b90615cd5565b60405180910390fd5b5f8251825f01546125759190615d20565b90505f8351835f01546125889190615d50565b90505f8111156125d6575f8451116125d5576040517f08c379a00000000000000000000000000000000000000000000000000000000081526004016125cc90615df0565b60405180910390fd5b5b5f8211806125e357505f81115b612622576040517f08c379a000000000000000000000000000000000000000000000000000000000815260040161261990615e7e565b60405180910390fd5b5f5f90505f5f90505b85518110156126c757600a5f8881526020019081526020015f205f87838151811061265957612658615e9c565b5b602002602001015173ffffffffffffffffffffffffffffffffffffffff1673ffffffffffffffffffffffffffffffffffffffff1681526020019081526020015f205f9054906101000a900460ff166126ba5781806126b690615a99565b9250505b808060010191505061262b565b505f811161270a576040517f08c379a000000000000000000000000000000000000000000000000000000000815260040161270190615f13565b60405180910390fd5b5f8282856127189190615f31565b61272291906145c1565b90505f600181111561273757612736614a19565b5b856001015f9054906101000a900460ff16600181111561275a57612759614a19565b5b036127a9578060045410156127a4576040517f08c379a000000000000000000000000000000000000000000000000000000000815260040161279b90615fe2565b60405180910390fd5b61282b565b6001808111156127bc576127bb614a19565b5b856001015f9054906101000a900460ff1660018111156127df576127de614a19565b5b0361282a57806005541015612829576040517f08c379a000000000000000000000000000000000000000000000000000000000815260040161282090616070565b60405180910390fd5b5b5b5f5f90505f5f90505b8751811015612994575f88828151811061285157612850615e9c565b5b60200260200101519050600a5f8b81526020019081526020015f205f8273ffffffffffffffffffffffffffffffffffffffff1673ffffffffffffffffffffffffffffffffffffffff1681526020019081526020015f205f9054906101000a900460ff16612986576001600a5f8c81526020019081526020015f205f8373ffffffffffffffffffffffffffffffffffffffff1673ffffffffffffffffffffffffffffffffffffffff1681526020019081526020015f205f6101000a81548160ff0219169083151502179055505f8790505f830361293657868161293391906145c1565b90505b61297682828b6001015f9054906101000a900460ff168c60010160019054906101000a900473ffffffffffffffffffffffffffffffffffffffff166140a9565b838061298190615a99565b945050505b508080600101915050612834565b50877f05b3fb943ea68b7671b7ed75aaf73035d0a2b890f252f1fab94052394cd6db8e8284896001015f9054906101000a900460ff166040516129d99392919061608e565b60405180910390a25050505050506129ef613e57565b5050565b6129fb613e11565b5f3411612a3d576040517f08c379a0000000000000000000000000000000000000000000000000000000008152600401612a3490616133565b60405180910390fd5b3460025f3373ffffffffffffffffffffffffffffffffffffffff1673ffffffffffffffffffffffffffffffffffffffff1681526020019081526020015f205f828254612a8991906145c1565b925050819055503373ffffffffffffffffffffffffffffffffffffffff167fe1fffcc4923d04b559f4d29a8bfc6cda04eb5b0d3c460751c2402c5c5cc9109c34604051612ad69190614603565b60405180910390a2612ae6613e57565b565b600b602052805f5260405f205f915090505481565b612b05613e11565b5f60035411612b49576040517f08c379a0000000000000000000000000000000000000000000000000000000008152600401612b40906154df565b60405180910390fd5b60095f60035481526020019081526020015f205f3373ffffffffffffffffffffffffffffffffffffffff1673ffffffffffffffffffffffffffffffffffffffff1681526020019081526020015f205f9054906101000a900460ff16612be3576040517f08c379a0000000000000000000000000000000000000000000000000000000008152600401612bda90614eb1565b60405180910390fd5b600a5f60035481526020019081526020015f205f3373ffffffffffffffffffffffffffffffffffffffff1673ffffffffffffffffffffffffffffffffffffffff1681526020019081526020015f205f9054906101000a900460ff1615612c7e576040517f08c379a0000000000000000000000000000000000000000000000000000000008152600401612c759061619b565b60405180910390fd5b60105f60035481526020019081526020015f205f3373ffffffffffffffffffffffffffffffffffffffff1673ffffffffffffffffffffffffffffffffffffffff1681526020019081526020015f205f9054906101000a900460ff16612d18576040517f08c379a0000000000000000000000000000000000000000000000000000000008152600401612d0f90616203565b60405180910390fd5b8181604051602001612d2b929190616245565b60405160208183030381529060405280519060200120600f5f60035481526020019081526020015f205f3373ffffffffffffffffffffffffffffffffffffffff1673ffffffffffffffffffffffffffffffffffffffff1681526020019081526020015f205414612dd0576040517f08c379a0000000000000000000000000000000000000000000000000000000008152600401612dc7906162cd565b60405180910390fd5b6001600a5f60035481526020019081526020015f205f3373ffffffffffffffffffffffffffffffffffffffff1673ffffffffffffffffffffffffffffffffffffffff1681526020019081526020015f205f6101000a81548160ff0219169083151502179055505f60075f60035481526020019081526020015f209050612e8f33825f0154836001015f9054906101000a900460ff168460010160019054906101000a900473ffffffffffffffffffffffffffffffffffffffff166140a9565b5f5f1b600f5f60035481526020019081526020015f205f3373ffffffffffffffffffffffffffffffffffffffff1673ffffffffffffffffffffffffffffffffffffffff1681526020019081526020015f20819055505f60105f60035481526020019081526020015f205f3373ffffffffffffffffffffffffffffffffffffffff1673ffffffffffffffffffffffffffffffffffffffff1681526020019081526020015f205f6101000a81548160ff02191690831515021790555050612f52613e57565b5050565b612f5e613e11565b5f8211612fa0576040517f08c379a0000000000000000000000000000000000000000000000000000000008152600401612f9790614de1565b60405180910390fd5b6003548214612fe4576040517f08c379a0000000000000000000000000000000000000000000000000000000008152600401612fdb90614e49565b60405180910390fd5b5f5f1b8103613028576040517f08c379a000000000000000000000000000000000000000000000000000000000815260040161301f90616335565b60405180910390fd5b60095f8381526020019081526020015f205f3373ffffffffffffffffffffffffffffffffffffffff1673ffffffffffffffffffffffffffffffffffffffff1681526020019081526020015f205f9054906101000a900460ff166130c0576040517f08c379a00000000000000000000000000000000000000000000000000000000081526004016130b790614eb1565b60405180910390fd5b5f5f1b600d5f8481526020019081526020015f205f3373ffffffffffffffffffffffffffffffffffffffff1673ffffffffffffffffffffffffffffffffffffffff1681526020019081526020015f205414613341575f600b5f3373ffffffffffffffffffffffffffffffffffffffff1673ffffffffffffffffffffffffffffffffffffffff1681526020019081526020015f205411613194576040517f08c379a000000000000000000000000000000000000000000000000000000000815260040161318b9061639d565b60405180910390fd5b600b5f3373ffffffffffffffffffffffffffffffffffffffff1673ffffffffffffffffffffffffffffffffffffffff1681526020019081526020015f205f8154809291906131e1906163bb565b91905055505f5f1b600d5f8481526020019081526020015f205f3373ffffffffffffffffffffffffffffffffffffffff1673ffffffffffffffffffffffffffffffffffffffff1681526020019081526020015f20819055505f600e5f8481526020019081526020015f205f3373ffffffffffffffffffffffffffffffffffffffff1673ffffffffffffffffffffffffffffffffffffffff1681526020019081526020015f20819055505f5f1b600f5f8481526020019081526020015f205f3373ffffffffffffffffffffffffffffffffffffffff1673ffffffffffffffffffffffffffffffffffffffff1681526020019081526020015f20819055505f60105f8481526020019081526020015f205f3373ffffffffffffffffffffffffffffffffffffffff1673ffffffffffffffffffffffffffffffffffffffff1681526020019081526020015f205f6101000a81548160ff0219169083151502179055505b60125481036135165760145f8381526020019081526020015f205f3373ffffffffffffffffffffffffffffffffffffffff1673ffffffffffffffffffffffffffffffffffffffff1681526020019081526020015f205f9054906101000a900460ff166134bf5760135f8381526020019081526020015f2033908060018154018082558091505060019003905f5260205f20015f9091909190916101000a81548173ffffffffffffffffffffffffffffffffffffffff021916908373ffffffffffffffffffffffffffffffffffffffff160217905550600160145f8481526020019081526020015f205f3373ffffffffffffffffffffffffffffffffffffffff1673ffffffffffffffffffffffffffffffffffffffff1681526020019081526020015f205f6101000a81548160ff021916908315150217905550813373ffffffffffffffffffffffffffffffffffffffff167fb5d93c368c4bd18876654db9fd5dcef5a3583ccde4d81659e7f309f36c84490560405160405180910390a35b3373ffffffffffffffffffffffffffffffffffffffff16827f6dbad7911810fc45c016aff41534b7adcd5477454a9b5be0d995a93518cde6754260016040516135099291906163e2565b60405180910390a3613568565b3373ffffffffffffffffffffffffffffffffffffffff16827f6dbad7911810fc45c016aff41534b7adcd5477454a9b5be0d995a93518cde675425f60405161355f9291906163e2565b60405180910390a35b80600d5f8481526020019081526020015f205f3373ffffffffffffffffffffffffffffffffffffffff1673ffffffffffffffffffffffffffffffffffffffff1681526020019081526020015f208190555042600e5f8481526020019081526020015f205f3373ffffffffffffffffffffffffffffffffffffffff1673ffffffffffffffffffffffffffffffffffffffff1681526020019081526020015f2081905550813373ffffffffffffffffffffffffffffffffffffffff167fc5009e6865ae04f58da43f80d7eb9718a2f25a7ccfeb22a8ca0031e77b86b50a836040516136519190614936565b60405180910390a3613661613e57565b5050565b60035481565b613673613e60565b5f73ffffffffffffffffffffffffffffffffffffffff168173ffffffffffffffffffffffffffffffffffffffff16036136e3575f6040517f1e4fbdf70000000000000000000000000000000000000000000000000000000081526004016136da91906146d4565b60405180910390fd5b6136ec81613fe8565b50565b670de0b6b3a764000081565b613703613e60565b5f8611613745576040517f08c379a000000000000000000000000000000000000000000000000000000000815260040161373c90614de1565b60405180910390fd5b6003548611613789576040517f08c379a000000000000000000000000000000000000000000000000000000000815260040161378090616479565b60405180910390fd5b5f82116137cb576040517f08c379a00000000000000000000000000000000000000000000000000000000081526004016137c290616507565b60405180910390fd5b6001808111156137de576137dd614a19565b5b8460018111156137f1576137f0614a19565b5b0361396a575f73ffffffffffffffffffffffffffffffffffffffff168373ffffffffffffffffffffffffffffffffffffffff1603613864576040517f08c379a000000000000000000000000000000000000000000000000000000000815260040161385b90616595565b60405180910390fd5b5f8373ffffffffffffffffffffffffffffffffffffffff163b116138bd576040517f08c379a00000000000000000000000000000000000000000000000000000000081526004016138b4906165fd565b60405180910390fd5b8273ffffffffffffffffffffffffffffffffffffffff166318160ddd6040518163ffffffff1660e01b8152600401602060405180830381865afa92505050801561392557506040513d601f19601f820116820180604052508101906139229190615579565b60015b613964576040517f08c379a000000000000000000000000000000000000000000000000000000000815260040161395b9061668b565b60405180910390fd5b506139d9565b5f73ffffffffffffffffffffffffffffffffffffffff168373ffffffffffffffffffffffffffffffffffffffff16146139d8576040517f08c379a00000000000000000000000000000000000000000000000000000000081526004016139cf90616719565b60405180910390fd5b5b5f670de0b6b3a76400001115613b9d575f73ffffffffffffffffffffffffffffffffffffffff168173ffffffffffffffffffffffffffffffffffffffff1603613a57576040517f08c379a0000000000000000000000000000000000000000000000000000000008152600401613a4e906167cd565b60405180910390fd5b5f8173ffffffffffffffffffffffffffffffffffffffff163b11613ab0576040517f08c379a0000000000000000000000000000000000000000000000000000000008152600401613aa79061685b565b60405180910390fd5b8073ffffffffffffffffffffffffffffffffffffffff166318160ddd6040518163ffffffff1660e01b8152600401602060405180830381865afa925050508015613b1857506040513d601f19601f82011682018060405250810190613b159190615579565b60015b613b57576040517f08c379a0000000000000000000000000000000000000000000000000000000008152600401613b4e906168e9565b60405180910390fd5b508060065f6101000a81548173ffffffffffffffffffffffffffffffffffffffff021916908373ffffffffffffffffffffffffffffffffffffffff160217905550613c4c565b5f73ffffffffffffffffffffffffffffffffffffffff168173ffffffffffffffffffffffffffffffffffffffff1614613c0b576040517f08c379a0000000000000000000000000000000000000000000000000000000008152600401613c0290616977565b60405180910390fd5b5f60065f6101000a81548173ffffffffffffffffffffffffffffffffffffffff021916908373ffffffffffffffffffffffffffffffffffffffff1602179055505b5f60045414613c90576040517f08c379a0000000000000000000000000000000000000000000000000000000008152600401613c8790616a05565b60405180910390fd5b5f60055414613cd4576040517f08c379a0000000000000000000000000000000000000000000000000000000008152600401613ccb90616a93565b60405180910390fd5b85600381905550846012819055506040518060600160405280838152602001856001811115613d0657613d05614a19565b5b81526020018473ffffffffffffffffffffffffffffffffffffffff1681525060075f8881526020019081526020015f205f820151815f01556020820151816001015f6101000a81548160ff02191690836001811115613d6857613d67614a19565b5b021790555060408201518160010160016101000a81548173ffffffffffffffffffffffffffffffffffffffff021916908373ffffffffffffffffffffffffffffffffffffffff160217905550905050857f05227007ca99c4e41f51fb024dcb2065e16bd026db353ce7f322e5cdb4fb2e9d86866001811115613ded57613dec614a19565b5b868686604051613e01959493929190616acc565b60405180910390a2505050505050565b600260015403613e4d576040517f3ee5aeb500000000000000000000000000000000000000000000000000000000815260040160405180910390fd5b6002600181905550565b60018081905550565b613e6861444b565b73ffffffffffffffffffffffffffffffffffffffff16613e866122c9565b73ffffffffffffffffffffffffffffffffffffffff1614613ee557613ea961444b565b6040517f118cdaa7000000000000000000000000000000000000000000000000000000008152600401613edc91906146d4565b60405180910390fd5b565b613f63848573ffffffffffffffffffffffffffffffffffffffff166323b872dd868686604051602401613f1c93929190616b1d565b604051602081830303815290604052915060e01b6020820180517bffffffffffffffffffffffffffffffffffffffffffffffffffffffff8381831617835250505050614452565b50505050565b613fe3838473ffffffffffffffffffffffffffffffffffffffff1663a9059cbb8585604051602401613f9c929190616b52565b604051602081830303815290604052915060e01b6020820180517bffffffffffffffffffffffffffffffffffffffffffffffffffffffff8381831617835250505050614452565b505050565b5f5f5f9054906101000a900473ffffffffffffffffffffffffffffffffffffffff169050815f5f6101000a81548173ffffffffffffffffffffffffffffffffffffffff021916908373ffffffffffffffffffffffffffffffffffffffff1602179055508173ffffffffffffffffffffffffffffffffffffffff168173ffffffffffffffffffffffffffffffffffffffff167f8be0079c531659141344cd1fd0a4f28419497f9722a3daafe3b4186f6b6457e060405160405180910390a35050565b5f73ffffffffffffffffffffffffffffffffffffffff168473ffffffffffffffffffffffffffffffffffffffff1603614117576040517f08c379a000000000000000000000000000000000000000000000000000000000815260040161410e90616bc3565b60405180910390fd5b5f8311614159576040517f08c379a000000000000000000000000000000000000000000000000000000000815260040161415090616507565b60405180910390fd5b5f600181111561416c5761416b614a19565b5b82600181111561417f5761417e614a19565b5b036142d2578260045410156141c9576040517f08c379a00000000000000000000000000000000000000000000000000000000081526004016141c090616c51565b60405180910390fd5b8247101561420c576040517f08c379a000000000000000000000000000000000000000000000000000000000815260040161420390616cdf565b60405180910390fd5b8260045f82825461421d91906151cd565b925050819055505f8473ffffffffffffffffffffffffffffffffffffffff16846040516142499061522d565b5f6040518083038185875af1925050503d805f8114614283576040519150601f19603f3d011682016040523d82523d5f602084013e614288565b606091505b50509050806142cc576040517f08c379a00000000000000000000000000000000000000000000000000000000081526004016142c390616d47565b60405180910390fd5b506143f5565b6001808111156142e5576142e4614a19565b5b8260018111156142f8576142f7614a19565b5b036143f4575f73ffffffffffffffffffffffffffffffffffffffff168173ffffffffffffffffffffffffffffffffffffffff160361436b576040517f08c379a000000000000000000000000000000000000000000000000000000000815260040161436290615772565b60405180910390fd5b8260055410156143b0576040517f08c379a00000000000000000000000000000000000000000000000000000000081526004016143a790616dd5565b60405180910390fd5b8260055f8282546143c191906151cd565b925050819055506143f384848373ffffffffffffffffffffffffffffffffffffffff16613f699092919063ffffffff16565b5b5b8373ffffffffffffffffffffffffffffffffffffffff167fff43c2705b2225c1c9d9d58f088ab64d4fc767737dee523bed37f15fb0c6c3de848460405161443d929190615790565b60405180910390a250505050565b5f33905090565b5f5f60205f8451602086015f885af180614471576040513d5f823e3d81fd5b3d92505f519150505f821461448a5760018114156144a5565b5f8473ffffffffffffffffffffffffffffffffffffffff163b145b156144e757836040517f5274afe70000000000000000000000000000000000000000000000000000000081526004016144de91906146d4565b60405180910390fd5b50505050565b5f82825260208201905092915050565b7f45544820616d6f756e74206d7573742062652067726561746572207468616e205f8201527f7a65726f00000000000000000000000000000000000000000000000000000000602082015250565b5f6145576024836144ed565b9150614562826144fd565b604082019050919050565b5f6020820190508181035f8301526145848161454b565b9050919050565b5f819050919050565b7f4e487b71000000000000000000000000000000000000000000000000000000005f52601160045260245ffd5b5f6145cb8261458b565b91506145d68361458b565b92508282019050808211156145ee576145ed614594565b5b92915050565b6145fd8161458b565b82525050565b5f6020820190506146165f8301846145f4565b92915050565b5f604051905090565b5f5ffd5b5f5ffd5b6146368161458b565b8114614640575f5ffd5b50565b5f813590506146518161462d565b92915050565b5f5f6040838503121561466d5761466c614625565b5b5f61467a85828601614643565b925050602061468b85828601614643565b9150509250929050565b5f73ffffffffffffffffffffffffffffffffffffffff82169050919050565b5f6146be82614695565b9050919050565b6146ce816146b4565b82525050565b5f6020820190506146e75f8301846146c5565b92915050565b5f5ffd5b5f5ffd5b5f601f19601f8301169050919050565b7f4e487b71000000000000000000000000000000000000000000000000000000005f52604160045260245ffd5b61473b826146f5565b810181811067ffffffffffffffff8211171561475a57614759614705565b5b80604052505050565b5f61476c61461c565b90506147788282614732565b919050565b5f67ffffffffffffffff82111561479757614796614705565b5b6147a0826146f5565b9050602081019050919050565b828183375f83830152505050565b5f6147cd6147c88461477d565b614763565b9050828152602081018484840111156147e9576147e86146f1565b5b6147f48482856147ad565b509392505050565b5f82601f8301126148105761480f6146ed565b5b81356148208482602086016147bb565b91505092915050565b5f5f6040838503121561483f5761483e614625565b5b5f61484c85828601614643565b925050602083013567ffffffffffffffff81111561486d5761486c614629565b5b614879858286016147fc565b9150509250929050565b61488c816146b4565b8114614896575f5ffd5b50565b5f813590506148a781614883565b92915050565b5f5f604083850312156148c3576148c2614625565b5b5f6148d085828601614643565b92505060206148e185828601614899565b9150509250929050565b5f8115159050919050565b6148ff816148eb565b82525050565b5f6020820190506149185f8301846148f6565b92915050565b5f819050919050565b6149308161491e565b82525050565b5f6020820190506149495f830184614927565b92915050565b5f819050919050565b5f61497261496d61496884614695565b61494f565b614695565b9050919050565b5f61498382614958565b9050919050565b5f61499482614979565b9050919050565b6149a48161498a565b82525050565b5f6020820190506149bd5f83018461499b565b92915050565b5f602082840312156149d8576149d7614625565b5b5f6149e584828501614899565b91505092915050565b5f60208284031215614a0357614a02614625565b5b5f614a1084828501614643565b91505092915050565b7f4e487b71000000000000000000000000000000000000000000000000000000005f52602160045260245ffd5b60028110614a5757614a56614a19565b5b50565b5f819050614a6782614a46565b919050565b5f614a7682614a5a565b9050919050565b614a8681614a6c565b82525050565b5f606082019050614a9f5f8301866145f4565b614aac6020830185614a7d565b614ab9604083018461499b565b949350505050565b5f67ffffffffffffffff821115614adb57614ada614705565b5b602082029050602081019050919050565b5f5ffd5b5f614b02614afd84614ac1565b614763565b90508083825260208201905060208402830185811115614b2557614b24614aec565b5b835b81811015614b4e5780614b3a8882614899565b845260208401935050602081019050614b27565b5050509392505050565b5f82601f830112614b6c57614b6b6146ed565b5b8135614b7c848260208601614af0565b91505092915050565b5f5f60408385031215614b9b57614b9a614625565b5b5f614ba885828601614643565b925050602083013567ffffffffffffffff811115614bc957614bc8614629565b5b614bd585828601614b58565b9150509250929050565b5f5ffd5b5f5f83601f840112614bf857614bf76146ed565b5b8235905067ffffffffffffffff811115614c1557614c14614bdf565b5b602083019150836001820283011115614c3157614c30614aec565b5b9250929050565b5f5f60208385031215614c4e57614c4d614625565b5b5f83013567ffffffffffffffff811115614c6b57614c6a614629565b5b614c7785828601614be3565b92509250509250929050565b614c8c8161491e565b8114614c96575f5ffd5b50565b5f81359050614ca781614c83565b92915050565b5f5f60408385031215614cc357614cc2614625565b5b5f614cd085828601614643565b9250506020614ce185828601614c99565b9150509250929050565b60028110614cf7575f5ffd5b50565b5f81359050614d0881614ceb565b92915050565b5f5f5f5f5f5f60c08789031215614d2857614d27614625565b5b5f614d3589828a01614643565b9650506020614d4689828a01614c99565b9550506040614d5789828a01614cfa565b9450506060614d6889828a01614899565b9350506080614d7989828a01614643565b92505060a0614d8a89828a01614899565b9150509295509295509295565b7f526964646c652049442063616e6e6f74206265207a65726f00000000000000005f82015250565b5f614dcb6018836144ed565b9150614dd682614d97565b602082019050919050565b5f6020820190508181035f830152614df881614dbf565b9050919050565b7f4e6f74207468652061637469766520726964646c6520494400000000000000005f82015250565b5f614e336018836144ed565b9150614e3e82614dff565b602082019050919050565b5f6020820190508181035f830152614e6081614e27565b9050919050565b7f4d75737420656e746572207468652067616d65206669727374000000000000005f82015250565b5f614e9b6019836144ed565b9150614ea682614e67565b602082019050919050565b5f6020820190508181035f830152614ec881614e8f565b9050919050565b7f4e6f20636f6d6d697474656420677565737300000000000000000000000000005f82015250565b5f614f036012836144ed565b9150614f0e82614ecf565b602082019050919050565b5f6020820190508181035f830152614f3081614ef7565b9050919050565b7f416c72656164792072657665616c6564000000000000000000000000000000005f82015250565b5f614f6b6010836144ed565b9150614f7682614f37565b602082019050919050565b5f6020820190508181035f830152614f9881614f5f565b9050919050565b7f52657665616c20746f6f206561726c79000000000000000000000000000000005f82015250565b5f614fd36010836144ed565b9150614fde82614f9f565b602082019050919050565b5f6020820190508181035f83015261500081614fc7565b9050919050565b5f81519050919050565b5f81905092915050565b8281835e5f83830152505050565b5f61503382615007565b61503d8185615011565b935061504d81856020860161501b565b80840191505092915050565b5f6150648284615029565b915081905092915050565b7f52657665616c20646f6573206e6f74206d6174636820636f6d6d6974000000005f82015250565b5f6150a3601c836144ed565b91506150ae8261506f565b602082019050919050565b5f6020820190508181035f8301526150d081615097565b9050919050565b7f5769746864726177616c20616d6f756e74206d757374206265206772656174655f8201527f72207468616e207a65726f000000000000000000000000000000000000000000602082015250565b5f615131602b836144ed565b915061513c826150d7565b604082019050919050565b5f6020820190508181035f83015261515e81615125565b9050919050565b7f496e73756666696369656e742062616c616e63650000000000000000000000005f82015250565b5f6151996014836144ed565b91506151a482615165565b602082019050919050565b5f6020820190508181035f8301526151c68161518d565b9050919050565b5f6151d78261458b565b91506151e28361458b565b92508282039050818111156151fa576151f9614594565b5b92915050565b5f81905092915050565b50565b5f6152185f83615200565b91506152238261520a565b5f82019050919050565b5f6152378261520d565b9150819050919050565b7f5769746864726177616c206661696c65640000000000000000000000000000005f82015250565b5f6152756011836144ed565b915061528082615241565b602082019050919050565b5f6020820190508181035f8301526152a281615269565b9050919050565b7f4f776e6572207769746864726177616c20616d6f756e74206d757374206265205f8201527f67726561746572207468616e207a65726f000000000000000000000000000000602082015250565b5f6153036031836144ed565b915061530e826152a9565b604082019050919050565b5f6020820190508181035f830152615330816152f7565b9050919050565b7f496e73756666696369656e7420455448207072697a6520706f6f6c00000000005f82015250565b5f61536b601b836144ed565b915061537682615337565b602082019050919050565b5f6020820190508181035f8301526153988161535f565b9050919050565b7f4f776e6572207769746864726177616c206661696c65640000000000000000005f82015250565b5f6153d36017836144ed565b91506153de8261539f565b602082019050919050565b5f6020820190508181035f830152615400816153c7565b9050919050565b7f416c72656164792070617274696369706174656420696e2074686973207269645f8201527f646c650000000000000000000000000000000000000000000000000000000000602082015250565b5f6154616023836144ed565b915061546c82615407565b604082019050919050565b5f6020820190508181035f83015261548e81615455565b9050919050565b7f4e6f2061637469766520726964646c65000000000000000000000000000000005f82015250565b5f6154c96010836144ed565b91506154d482615495565b602082019050919050565b5f6020820190508181035f8301526154f6816154bd565b9050919050565b7f456e7472792066656520746f6b656e206e6f74207365740000000000000000005f82015250565b5f6155316017836144ed565b915061553c826154fd565b602082019050919050565b5f6020820190508181035f83015261555e81615525565b9050919050565b5f815190506155738161462d565b92915050565b5f6020828403121561558e5761558d614625565b5b5f61559b84828501615565565b91505092915050565b7f456e74727920666565206d69736d617463682028464f54206e6f7420737570705f8201527f6f72746564290000000000000000000000000000000000000000000000000000602082015250565b5f6155fe6026836144ed565b9150615609826155a4565b604082019050919050565b5f6020820190508181035f83015261562b816155f2565b9050919050565b7f416d6f756e74206d7573742062652067726561746572207468616e207a65726f5f82015250565b5f6156666020836144ed565b915061567182615632565b602082019050919050565b5f6020820190508181035f8301526156938161565a565b9050919050565b7f43757272656e7420726964646c65207072697a65206973206e6f7420455243325f8201527f3000000000000000000000000000000000000000000000000000000000000000602082015250565b5f6156f46021836144ed565b91506156ff8261569a565b604082019050919050565b5f6020820190508181035f830152615721816156e8565b9050919050565b7f5072697a6520746f6b656e206e6f7420736574000000000000000000000000005f82015250565b5f61575c6013836144ed565b915061576782615728565b602082019050919050565b5f6020820190508181035f83015261578981615750565b9050919050565b5f6040820190506157a35f8301856145f4565b6157b06020830184614a7d565b9392505050565b7f4f776e657220746f6b656e207769746864726177616c20616d6f756e74206d755f8201527f73742062652067726561746572207468616e207a65726f000000000000000000602082015250565b5f6158116037836144ed565b915061581c826157b7565b604082019050919050565b5f6020820190508181035f83015261583e81615805565b9050919050565b7f496e73756666696369656e7420746f6b656e207072697a6520706f6f6c0000005f82015250565b5f615879601d836144ed565b915061588482615845565b602082019050919050565b5f6020820190508181035f8301526158a68161586d565b9050919050565b7f4d75737420706172746963697061746520696e2074686520726964646c6520665f8201527f6972737400000000000000000000000000000000000000000000000000000000602082015250565b5f6159076024836144ed565b9150615912826158ad565b604082019050919050565b5f6020820190508181035f830152615934816158fb565b9050919050565b7f526574727920746f6b656e206e6f7420736574000000000000000000000000005f82015250565b5f61596f6013836144ed565b915061597a8261593b565b602082019050919050565b5f6020820190508181035f83015261599c81615963565b9050919050565b7f4d617820726574726965732072656163686564000000000000000000000000005f82015250565b5f6159d76013836144ed565b91506159e2826159a3565b602082019050919050565b5f6020820190508181035f830152615a04816159cb565b9050919050565b7f526574727920636f7374206d69736d617463682028464f54206e6f74207375705f8201527f706f727465642900000000000000000000000000000000000000000000000000602082015250565b5f615a656027836144ed565b9150615a7082615a0b565b604082019050919050565b5f6020820190508181035f830152615a9281615a59565b9050919050565b5f615aa38261458b565b91507fffffffffffffffffffffffffffffffffffffffffffffffffffffffffffffffff8203615ad557615ad4614594565b5b600182019050919050565b5f604082019050615af35f8301856145f4565b615b0060208301846145f4565b9392505050565b7f526964646c65204944206d7573742062652067726561746572207468616e207a5f8201527f65726f0000000000000000000000000000000000000000000000000000000000602082015250565b5f615b616023836144ed565b9150615b6c82615b07565b604082019050919050565b5f6020820190508181035f830152615b8e81615b55565b9050919050565b7f526964646c65204944206d7573742062652063757272656e74206f72207061735f8201527f7400000000000000000000000000000000000000000000000000000000000000602082015250565b5f615bef6021836144ed565b9150615bfa82615b95565b604082019050919050565b5f6020820190508181035f830152615c1c81615be3565b9050919050565b7f57696e6e6572732061727261792063616e6e6f7420626520656d7074790000005f82015250565b5f615c57601d836144ed565b9150615c6282615c23565b602082019050919050565b5f6020820190508181035f830152615c8481615c4b565b9050919050565b7f526964646c65207072697a6520616d6f756e74206e6f742073657400000000005f82015250565b5f615cbf601b836144ed565b9150615cca82615c8b565b602082019050919050565b5f6020820190508181035f830152615cec81615cb3565b9050919050565b7f4e487b71000000000000000000000000000000000000000000000000000000005f52601260045260245ffd5b5f615d2a8261458b565b9150615d358361458b565b925082615d4557615d44615cf3565b5b828204905092915050565b5f615d5a8261458b565b9150615d658361458b565b925082615d7557615d74615cf3565b5b828206905092915050565b7f43616e6e6f7420646973747269627574652072656d61696e64657220776974685f8201527f206e6f2077696e6e657273000000000000000000000000000000000000000000602082015250565b5f615dda602b836144ed565b9150615de582615d80565b604082019050919050565b5f6020820190508181035f830152615e0781615dce565b9050919050565b7f5065722d77696e6e657220616d6f756e74206d757374206265206772656174655f8201527f72207468616e207a65726f000000000000000000000000000000000000000000602082015250565b5f615e68602b836144ed565b9150615e7382615e0e565b604082019050919050565b5f6020820190508181035f830152615e9581615e5c565b9050919050565b7f4e487b71000000000000000000000000000000000000000000000000000000005f52603260045260245ffd5b7f4e6f206e65772077696e6e65727320746f20706179206f7574000000000000005f82015250565b5f615efd6019836144ed565b9150615f0882615ec9565b602082019050919050565b5f6020820190508181035f830152615f2a81615ef1565b9050919050565b5f615f3b8261458b565b9150615f468361458b565b9250828202615f548161458b565b91508282048414831517615f6b57615f6a614594565b5b5092915050565b7f496e73756666696369656e7420455448207072697a6520706f6f6c2062616c615f8201527f6e636520666f72207061796f7574000000000000000000000000000000000000602082015250565b5f615fcc602e836144ed565b9150615fd782615f72565b604082019050919050565b5f6020820190508181035f830152615ff981615fc0565b9050919050565b7f496e73756666696369656e74204552433230207072697a6520706f6f6c2062615f8201527f6c616e636520666f72207061796f757400000000000000000000000000000000602082015250565b5f61605a6030836144ed565b915061606582616000565b604082019050919050565b5f6020820190508181035f8301526160878161604e565b9050919050565b5f6060820190506160a15f8301866145f4565b6160ae60208301856145f4565b6160bb6040830184614a7d565b949350505050565b7f4465706f73697420616d6f756e74206d757374206265206772656174657220745f8201527f68616e207a65726f000000000000000000000000000000000000000000000000602082015250565b5f61611d6028836144ed565b9150616128826160c3565b604082019050919050565b5f6020820190508181035f83015261614a81616111565b9050919050565b7f416c726561647920636c61696d656400000000000000000000000000000000005f82015250565b5f616185600f836144ed565b915061619082616151565b602082019050919050565b5f6020820190508181035f8301526161b281616179565b9050919050565b7f4d7573742072657665616c206775657373206265666f726520736f6c76696e675f82015250565b5f6161ed6020836144ed565b91506161f8826161b9565b602082019050919050565b5f6020820190508181035f83015261621a816161e1565b9050919050565b5f61622c8385615011565b93506162398385846147ad565b82840190509392505050565b5f616251828486616221565b91508190509392505050565b7f52657665616c656420677565737320646f6573206e6f74206d617463682070725f8201527f6f766964656420616e7377657200000000000000000000000000000000000000602082015250565b5f6162b7602d836144ed565b91506162c28261625d565b604082019050919050565b5f6020820190508181035f8301526162e4816162ab565b9050919050565b7f477565737320686173682063616e6e6f74206265207a65726f000000000000005f82015250565b5f61631f6019836144ed565b915061632a826162eb565b602082019050919050565b5f6020820190508181035f83015261634c81616313565b9050919050565b7f4e6f207265747269657320617661696c61626c650000000000000000000000005f82015250565b5f6163876014836144ed565b915061639282616353565b602082019050919050565b5f6020820190508181035f8301526163b48161637b565b9050919050565b5f6163c58261458b565b91505f82036163d7576163d6614594565b5b600182039050919050565b5f6040820190506163f55f8301856145f4565b61640260208301846148f6565b9392505050565b7f526964646c65204944206d7573742062652067726561746572207468616e20635f8201527f757272656e740000000000000000000000000000000000000000000000000000602082015250565b5f6164636026836144ed565b915061646e82616409565b604082019050919050565b5f6020820190508181035f83015261649081616457565b9050919050565b7f5072697a6520616d6f756e74206d7573742062652067726561746572207468615f8201527f6e207a65726f0000000000000000000000000000000000000000000000000000602082015250565b5f6164f16026836144ed565b91506164fc82616497565b604082019050919050565b5f6020820190508181035f83015261651e816164e5565b9050919050565b7f5072697a6520746f6b656e20616464726573732063616e6e6f74206265207a655f8201527f726f20666f72204552433230207072697a650000000000000000000000000000602082015250565b5f61657f6032836144ed565b915061658a82616525565b604082019050919050565b5f6020820190508181035f8301526165ac81616573565b9050919050565b7f5072697a6520746f6b656e20686173206e6f20636f6e747261637420636f64655f82015250565b5f6165e76020836144ed565b91506165f2826165b3565b602082019050919050565b5f6020820190508181035f830152616614816165db565b9050919050565b7f496e76616c6964204552432d323020746f6b656e3a20746f74616c537570706c5f8201527f792063616c6c206661696c656400000000000000000000000000000000000000602082015250565b5f616675602d836144ed565b91506166808261661b565b604082019050919050565b5f6020820190508181035f8301526166a281616669565b9050919050565b7f5072697a6520746f6b656e2061646472657373206d757374206265207a65726f5f8201527f20666f7220455448207072697a65000000000000000000000000000000000000602082015250565b5f616703602e836144ed565b915061670e826166a9565b604082019050919050565b5f6020820190508181035f830152616730816166f7565b9050919050565b7f456e7472792066656520746f6b656e20616464726573732063616e6e6f7420625f8201527f65207a65726f20696620656e7472792066656520616d6f756e7420697320677260208201527f6561746572207468616e207a65726f0000000000000000000000000000000000604082015250565b5f6167b7604f836144ed565b91506167c282616737565b606082019050919050565b5f6020820190508181035f8301526167e4816167ab565b9050919050565b7f456e7472792066656520746f6b656e20686173206e6f20636f6e7472616374205f8201527f636f646500000000000000000000000000000000000000000000000000000000602082015250565b5f6168456024836144ed565b9150616850826167eb565b604082019050919050565b5f6020820190508181035f83015261687281616839565b9050919050565b7f496e76616c6964204552432d323020746f6b656e20666f7220656e74727920665f8201527f65653a20746f74616c537570706c792063616c6c206661696c65640000000000602082015250565b5f6168d3603b836144ed565b91506168de82616879565b604082019050919050565b5f6020820190508181035f830152616900816168c7565b9050919050565b7f456e7472792066656520746f6b656e2061646472657373206d757374206265205f8201527f7a65726f20696620656e7472792066656520616d6f756e74206973207a65726f602082015250565b5f6169616040836144ed565b915061696c82616907565b604082019050919050565b5f6020820190508181035f83015261698e81616955565b9050919050565b7f4d75737420776974686472617720455448207072697a6520706f6f6c206265665f8201527f6f7265206e657720726964646c65000000000000000000000000000000000000602082015250565b5f6169ef602e836144ed565b91506169fa82616995565b604082019050919050565b5f6020820190508181035f830152616a1c816169e3565b9050919050565b7f4d75737420776974686472617720746f6b656e207072697a6520706f6f6c20625f8201527f65666f7265206e657720726964646c6500000000000000000000000000000000602082015250565b5f616a7d6030836144ed565b9150616a8882616a23565b604082019050919050565b5f6020820190508181035f830152616aaa81616a71565b9050919050565b5f60ff82169050919050565b616ac681616ab1565b82525050565b5f60a082019050616adf5f830188614927565b616aec6020830187616abd565b616af960408301866146c5565b616b0660608301856145f4565b616b1360808301846146c5565b9695505050505050565b5f606082019050616b305f8301866146c5565b616b3d60208301856146c5565b616b4a60408301846145f4565b949350505050565b5f604082019050616b655f8301856146c5565b616b7260208301846145f4565b9392505050565b7f57696e6e657220616464726573732063616e6e6f74206265207a65726f0000005f82015250565b5f616bad601d836144ed565b9150616bb882616b79565b602082019050919050565b5f6020820190508181035f830152616bda81616ba1565b9050919050565b7f496e73756666696369656e7420455448207072697a6520706f6f6c2062616c615f8201527f6e63650000000000000000000000000000000000000000000000000000000000602082015250565b5f616c3b6023836144ed565b9150616c4682616be1565b604082019050919050565b5f6020820190508181035f830152616c6881616c2f565b9050919050565b7f496e73756666696369656e7420636f6e7472616374204554482062616c616e635f8201527f6500000000000000000000000000000000000000000000000000000000000000602082015250565b5f616cc96021836144ed565b9150616cd482616c6f565b604082019050919050565b5f6020820190508181035f830152616cf681616cbd565b9050919050565b7f455448207472616e73666572206661696c6564000000000000000000000000005f82015250565b5f616d316013836144ed565b9150616d3c82616cfd565b602082019050919050565b5f6020820190508181035f830152616d5e81616d25565b9050919050565b7f496e73756666696369656e74204552433230207072697a6520706f6f6c2062615f8201527f6c616e6365000000000000000000000000000000000000000000000000000000602082015250565b5f616dbf6025836144ed565b9150616dca82616d65565b604082019050919050565b5f6020820190508181035f830152616dec81616db3565b905091905056fea26469706673582212203d49492f7393c5742ba684b98476ed29d0150945fc0d033bbab4321783ac207464736f6c634300081e0033","linkReferences":{}},"methodIdentifiers":{"ENTRY_FEE()":"f6d361cc","MAX_RETRIES()":"46ebbdb0","RETRY_COST()":"57aa0ea2","balances(address)":"27e235e3","committedAt(uint256,address)":"c06a5fc5","committedGuesses(uint256,address)":"b7173e77","currentRiddleId()":"ecdc6c23","deposit()":"d0e30db0","enterGame(uint256)":"43d6582b","entryFeeToken()":"7b149763","ethPrizePool()":"95664a3d","fundTokenPrizePool(uint256)":"48b06e87","getPrizeToken()":"c7cd6959","hasClaimed(uint256,address)":"873f6f9e","hasParticipated(uint256,address)":"a34398a2","hasRevealed(uint256,address)":"16b5551d","isWinner(uint256,address)":"bdd415af","owner()":"8da5cb5b","ownerWithdraw(uint256)":"33f707d1","ownerWithdrawTokens(uint256)":"60972120","payout(uint256,address[])":"c8e728f9","purchaseRetry(uint256)":"7a11e941","renounceOwnership()":"715018a6","retries(address)":"dbbd3245","retryToken()":"219fc385","revealDelay()":"53236d74","revealGuess(uint256,string)":"12b5afc1","revealedGuessHash(uint256,address)":"188240cd","riddleConfigs(uint256)":"a6dbce24","setRevealDelay(uint256)":"a68c25d8","setRiddle(uint256,bytes32,uint8,address,uint256,address)":"f9f82e9c","solveRiddleAndClaim(string)":"dc663b53","submitGuess(uint256,bytes32)":"e4d33ee3","tokenPrizePool()":"c310e242","transferOwnership(address)":"f2fde38b","winners(uint256,uint256)":"0efc8865","withdraw(uint256)":"2e1a7d4d"},"id":2}