{"abi":[{"type":"constructor","inputs":[{"name":"initialOwner","type":"address","internalType":"address"},{"name":"_retryTokenAddress","type":"address","internalType":"address"}],"stateMutability":"nonpayable"},{"type":"receive","stateMutability":"payable"},{"type":"function","name":"ENTRY_FEE","inputs":[],"outputs":[{"name":"","type":"uint256","internalType":"uint256"}],"stateMutability":"view"},{"type":"function","name":"MAX_RETRIES","inputs":[],"outputs":[{"name":"","type":"uint256","internalType":"uint256"}],"stateMutability":"view"},{"type":"function","name":"RETRY_COST","inputs":[],"outputs":[{"name":"","type":"uint256","internalType":"uint256"}],"stateMutability":"view"},{"type":"function","name":"balances","inputs":[{"name":"","type":"address","internalType":"address"}],"outputs":[{"name":"","type":"uint256","internalType":"uint256"}],"stateMutability":"view"},{"type":"function","name":"committedAt","inputs":[{"name":"","type":"uint256","internalType":"uint256"},{"name":"","type":"address","internalType":"address"}],"outputs":[{"name":"","type":"uint256","internalType":"uint256"}],"stateMutability":"view"},{"type":"function","name":"committedGuesses","inputs":[{"name":"","type":"uint256","internalType":"uint256"},{"name":"","type":"address","internalType":"address"}],"outputs":[{"name":"","type":"bytes32","internalType":"bytes32"}],"stateMutability":"view"},{"type":"function","name":"currentRiddleId","inputs":[],"outputs":[{"name":"","type":"uint256","internalType":"uint256"}],"stateMutability":"view"},{"type":"function","name":"deposit","inputs":[],"outputs":[],"stateMutability":"payable"},{"type":"function","name":"enterGame","inputs":[{"name":"_riddleId","type":"uint256","internalType":"uint256"}],"outputs":[],"stateMutability":"nonpayable"},{"type":"function","name":"entryFeeToken","inputs":[],"outputs":[{"name":"","type":"address","internalType":"contract IERC20"}],"stateMutability":"view"},{"type":"function","name":"ethPrizePool","inputs":[],"outputs":[{"name":"","type":"uint256","internalType":"uint256"}],"stateMutability":"view"},{"type":"function","name":"fundTokenPrizePool","inputs":[{"name":"_amount","type":"uint256","internalType":"uint256"}],"outputs":[],"stateMutability":"nonpayable"},{"type":"function","name":"getPrizeToken","inputs":[],"outputs":[{"name":"","type":"address","internalType":"address"}],"stateMutability":"view"},{"type":"function","name":"hasClaimed","inputs":[{"name":"","type":"uint256","internalType":"uint256"},{"name":"","type":"address","internalType":"address"}],"outputs":[{"name":"","type":"bool","internalType":"bool"}],"stateMutability":"view"},{"type":"function","name":"hasParticipated","inputs":[{"name":"","type":"uint256","internalType":"uint256"},{"name":"","type":"address","internalType":"address"}],"outputs":[{"name":"","type":"bool","internalType":"bool"}],"stateMutability":"view"},{"type":"function","name":"hasRevealed","inputs":[{"name":"","type":"uint256","internalType":"uint256"},{"name":"","type":"address","internalType":"address"}],"outputs":[{"name":"","type":"bool","internalType":"bool"}],"stateMutability":"view"},{"type":"function","name":"isWinner","inputs":[{"name":"","type":"uint256","internalType":"uint256"},{"name":"","type":"address","internalType":"address"}],"outputs":[{"name":"","type":"bool","internalType":"bool"}],"stateMutability":"view"},{"type":"function","name":"owner","inputs":[],"outputs":[{"name":"","type":"address","internalType":"address"}],"stateMutability":"view"},{"type":"function","name":"ownerWithdraw","inputs":[{"name":"_amount","type":"uint256","internalType":"uint256"}],"outputs":[],"stateMutability":"nonpayable"},{"type":"function","name":"ownerWithdrawTokens","inputs":[{"name":"_amount","type":"uint256","internalType":"uint256"}],"outputs":[],"stateMutability":"nonpayable"},{"type":"function","name":"playerRetries","inputs":[{"name":"","type":"uint256","internalType":"uint256"},{"name":"","type":"address","internalType":"address"}],"outputs":[{"name":"","type":"uint256","internalType":"uint256"}],"stateMutability":"view"},{"type":"function","name":"prizeAmount","inputs":[],"outputs":[{"name":"","type":"uint256","internalType":"uint256"}],"stateMutability":"view"},{"type":"function","name":"prizeToken","inputs":[],"outputs":[{"name":"","type":"address","internalType":"contract IERC20"}],"stateMutability":"view"},{"type":"function","name":"prizeType","inputs":[],"outputs":[{"name":"","type":"uint8","internalType":"enum Vaultis.PrizeType"}],"stateMutability":"view"},{"type":"function","name":"purchaseRetry","inputs":[{"name":"_riddleId","type":"uint256","internalType":"uint256"}],"outputs":[],"stateMutability":"nonpayable"},{"type":"function","name":"renounceOwnership","inputs":[],"outputs":[],"stateMutability":"nonpayable"},{"type":"function","name":"retryToken","inputs":[],"outputs":[{"name":"","type":"address","internalType":"contract IERC20"}],"stateMutability":"view"},{"type":"function","name":"revealDelay","inputs":[],"outputs":[{"name":"","type":"uint256","internalType":"uint256"}],"stateMutability":"view"},{"type":"function","name":"revealGuess","inputs":[{"name":"_riddleId","type":"uint256","internalType":"uint256"},{"name":"_guess","type":"string","internalType":"string"}],"outputs":[],"stateMutability":"nonpayable"},{"type":"function","name":"revealedGuessHash","inputs":[{"name":"","type":"uint256","internalType":"uint256"},{"name":"","type":"address","internalType":"address"}],"outputs":[{"name":"","type":"bytes32","internalType":"bytes32"}],"stateMutability":"view"},{"type":"function","name":"setRevealDelay","inputs":[{"name":"_newRevealDelay","type":"uint256","internalType":"uint256"}],"outputs":[],"stateMutability":"nonpayable"},{"type":"function","name":"setRiddle","inputs":[{"name":"_riddleId","type":"uint256","internalType":"uint256"},{"name":"_answerHash","type":"bytes32","internalType":"bytes32"},{"name":"_prizeType","type":"uint8","internalType":"enum Vaultis.PrizeType"},{"name":"_prizeTokenAddress","type":"address","internalType":"address"},{"name":"_prizeAmount","type":"uint256","internalType":"uint256"},{"name":"_entryFeeTokenAddress","type":"address","internalType":"address"}],"outputs":[],"stateMutability":"nonpayable"},{"type":"function","name":"solveRiddleAndClaim","inputs":[{"name":"_answer","type":"string","internalType":"string"}],"outputs":[],"stateMutability":"nonpayable"},{"type":"function","name":"submitGuess","inputs":[{"name":"_riddleId","type":"uint256","internalType":"uint256"},{"name":"_guessHash","type":"bytes32","internalType":"bytes32"}],"outputs":[],"stateMutability":"nonpayable"},{"type":"function","name":"tokenPrizePool","inputs":[],"outputs":[{"name":"","type":"uint256","internalType":"uint256"}],"stateMutability":"view"},{"type":"function","name":"transferOwnership","inputs":[{"name":"newOwner","type":"address","internalType":"address"}],"outputs":[],"stateMutability":"nonpayable"},{"type":"function","name":"winners","inputs":[{"name":"","type":"uint256","internalType":"uint256"},{"name":"","type":"uint256","internalType":"uint256"}],"outputs":[{"name":"","type":"address","internalType":"address"}],"stateMutability":"view"},{"type":"function","name":"withdraw","inputs":[{"name":"_amount","type":"uint256","internalType":"uint256"}],"outputs":[],"stateMutability":"nonpayable"},{"type":"event","name":"Deposit","inputs":[{"name":"user","type":"address","indexed":true,"internalType":"address"},{"name":"amount","type":"uint256","indexed":false,"internalType":"uint256"}],"anonymous":false},{"type":"event","name":"EntryFeeCollected","inputs":[{"name":"player","type":"address","indexed":true,"internalType":"address"},{"name":"token","type":"address","indexed":true,"internalType":"address"},{"name":"amount","type":"uint256","indexed":false,"internalType":"uint256"},{"name":"riddleId","type":"uint256","indexed":true,"internalType":"uint256"}],"anonymous":false},{"type":"event","name":"EthReceived","inputs":[{"name":"sender","type":"address","indexed":true,"internalType":"address"},{"name":"amount","type":"uint256","indexed":false,"internalType":"uint256"}],"anonymous":false},{"type":"event","name":"GuessEvaluated","inputs":[{"name":"riddleId","type":"uint256","indexed":true,"internalType":"uint256"},{"name":"player","type":"address","indexed":true,"internalType":"address"},{"name":"timestamp","type":"uint256","indexed":false,"internalType":"uint256"},{"name":"isWinner","type":"bool","indexed":false,"internalType":"bool"}],"anonymous":false},{"type":"event","name":"GuessRevealed","inputs":[{"name":"player","type":"address","indexed":true,"internalType":"address"},{"name":"riddleId","type":"uint256","indexed":true,"internalType":"uint256"},{"name":"revealedHash","type":"bytes32","indexed":false,"internalType":"bytes32"}],"anonymous":false},{"type":"event","name":"GuessSubmitted","inputs":[{"name":"player","type":"address","indexed":true,"internalType":"address"},{"name":"riddleId","type":"uint256","indexed":true,"internalType":"uint256"},{"name":"guessHash","type":"bytes32","indexed":false,"internalType":"bytes32"}],"anonymous":false},{"type":"event","name":"OwnerWithdrawTokens","inputs":[{"name":"amount","type":"uint256","indexed":false,"internalType":"uint256"}],"anonymous":false},{"type":"event","name":"OwnerWithdrawal","inputs":[{"name":"owner","type":"address","indexed":true,"internalType":"address"},{"name":"amount","type":"uint256","indexed":false,"internalType":"uint256"}],"anonymous":false},{"type":"event","name":"OwnershipTransferred","inputs":[{"name":"previousOwner","type":"address","indexed":true,"internalType":"address"},{"name":"newOwner","type":"address","indexed":true,"internalType":"address"}],"anonymous":false},{"type":"event","name":"PlayerEntered","inputs":[{"name":"player","type":"address","indexed":true,"internalType":"address"},{"name":"riddleId","type":"uint256","indexed":true,"internalType":"uint256"}],"anonymous":false},{"type":"event","name":"PrizeDistributed","inputs":[{"name":"winner","type":"address","indexed":true,"internalType":"address"},{"name":"amount","type":"uint256","indexed":false,"internalType":"uint256"},{"name":"prizeType","type":"uint8","indexed":false,"internalType":"enum Vaultis.PrizeType"}],"anonymous":false},{"type":"event","name":"PrizeFunded","inputs":[{"name":"funder","type":"address","indexed":true,"internalType":"address"},{"name":"amount","type":"uint256","indexed":false,"internalType":"uint256"},{"name":"prizeType","type":"uint8","indexed":false,"internalType":"enum Vaultis.PrizeType"}],"anonymous":false},{"type":"event","name":"RetryPurchased","inputs":[{"name":"player","type":"address","indexed":true,"internalType":"address"},{"name":"riddleId","type":"uint256","indexed":true,"internalType":"uint256"},{"name":"cost","type":"uint256","indexed":false,"internalType":"uint256"},{"name":"newRetryCount","type":"uint256","indexed":false,"internalType":"uint256"}],"anonymous":false},{"type":"event","name":"RiddleInitialized","inputs":[{"name":"riddleId","type":"uint256","indexed":true,"internalType":"uint256"},{"name":"answerHash","type":"bytes32","indexed":false,"internalType":"bytes32"},{"name":"prizeType","type":"uint8","indexed":false,"internalType":"uint8"},{"name":"prizeTokenAddress","type":"address","indexed":false,"internalType":"address"},{"name":"prizeAmount","type":"uint256","indexed":false,"internalType":"uint256"},{"name":"entryFeeTokenAddress","type":"address","indexed":false,"internalType":"address"}],"anonymous":false},{"type":"event","name":"WinnerFound","inputs":[{"name":"winner","type":"address","indexed":true,"internalType":"address"},{"name":"riddleId","type":"uint256","indexed":true,"internalType":"uint256"}],"anonymous":false},{"type":"event","name":"Withdrawal","inputs":[{"name":"user","type":"address","indexed":true,"internalType":"address"},{"name":"amount","type":"uint256","indexed":false,"internalType":"uint256"}],"anonymous":false},{"type":"error","name":"OwnableInvalidOwner","inputs":[{"name":"owner","type":"address","internalType":"address"}]},{"type":"error","name":"OwnableUnauthorizedAccount","inputs":[{"name":"account","type":"address","internalType":"address"}]},{"type":"error","name":"ReentrancyGuardReentrantCall","inputs":[]},{"type":"error","name":"SafeERC20FailedOperation","inputs":[{"name":"token","type":"address","internalType":"address"}]}],"bytecode":{"object":"0x608060405234801561000f575f5ffd5b5060405161662f38038061662f833981810160405281019061003191906103d7565b815f73ffffffffffffffffffffffffffffffffffffffff168173ffffffffffffffffffffffffffffffffffffffff16036100a2575f6040517f1e4fbdf70000000000000000000000000000000000000000000000000000000081526004016100999190610424565b60405180910390fd5b6100b1816102b860201b60201c565b50600180819055505f73ffffffffffffffffffffffffffffffffffffffff168173ffffffffffffffffffffffffffffffffffffffff1603610127576040517f08c379a000000000000000000000000000000000000000000000000000000000815260040161011e906104bd565b60405180910390fd5b5f8173ffffffffffffffffffffffffffffffffffffffff163b11610180576040517f08c379a000000000000000000000000000000000000000000000000000000000815260040161017790610525565b60405180910390fd5b8073ffffffffffffffffffffffffffffffffffffffff166318160ddd6040518163ffffffff1660e01b8152600401602060405180830381865afa9250505080156101e857506040513d601f19601f820116820180604052508101906101e59190610576565b60015b610227576040517f08c379a000000000000000000000000000000000000000000000000000000000815260040161021e90610611565b60405180910390fd5b505f60085f6101000a81548173ffffffffffffffffffffffffffffffffffffffff021916908373ffffffffffffffffffffffffffffffffffffffff160217905550610e106011819055508060095f6101000a81548173ffffffffffffffffffffffffffffffffffffffff021916908373ffffffffffffffffffffffffffffffffffffffff160217905550505061062f565b5f5f5f9054906101000a900473ffffffffffffffffffffffffffffffffffffffff169050815f5f6101000a81548173ffffffffffffffffffffffffffffffffffffffff021916908373ffffffffffffffffffffffffffffffffffffffff1602179055508173ffffffffffffffffffffffffffffffffffffffff168173ffffffffffffffffffffffffffffffffffffffff167f8be0079c531659141344cd1fd0a4f28419497f9722a3daafe3b4186f6b6457e060405160405180910390a35050565b5f5ffd5b5f73ffffffffffffffffffffffffffffffffffffffff82169050919050565b5f6103a68261037d565b9050919050565b6103b68161039c565b81146103c0575f5ffd5b50565b5f815190506103d1816103ad565b92915050565b5f5f604083850312156103ed576103ec610379565b5b5f6103fa858286016103c3565b925050602061040b858286016103c3565b9150509250929050565b61041e8161039c565b82525050565b5f6020820190506104375f830184610415565b92915050565b5f82825260208201905092915050565b7f526574727920746f6b656e20616464726573732063616e6e6f74206265207a655f8201527f726f000000000000000000000000000000000000000000000000000000000000602082015250565b5f6104a760228361043d565b91506104b28261044d565b604082019050919050565b5f6020820190508181035f8301526104d48161049b565b9050919050565b7f526574727920746f6b656e20686173206e6f20636f6e747261637420636f64655f82015250565b5f61050f60208361043d565b915061051a826104db565b602082019050919050565b5f6020820190508181035f83015261053c81610503565b9050919050565b5f819050919050565b61055581610543565b811461055f575f5ffd5b50565b5f815190506105708161054c565b92915050565b5f6020828403121561058b5761058a610379565b5b5f61059884828501610562565b91505092915050565b7f496e76616c6964204552432d323020746f6b656e20666f722072657472793a205f8201527f746f74616c537570706c792063616c6c206661696c6564000000000000000000602082015250565b5f6105fb60378361043d565b9150610606826105a1565b604082019050919050565b5f6020820190508181035f830152610628816105ef565b9050919050565b615ff38061063c5f395ff3fe608060405260043610610228575f3560e01c8063873f6f9e11610122578063c7cd6959116100aa578063ecdc6c231161006e578063ecdc6c23146108b1578063f2fde38b146108db578063f6d361cc14610903578063f9f82e9c1461092d578063fcdf8e8914610955576102d7565b8063c7cd695914610803578063d0e30db01461082d578063d0ef024a14610837578063dc663b5314610861578063e4d33ee314610889576102d7565b8063a68c25d8116100f1578063a68c25d8146106fd578063b7173e7714610725578063bdd415af14610761578063c06a5fc51461079d578063c310e242146107d9576102d7565b8063873f6f9e146106315780638da5cb5b1461066d57806395664a3d14610697578063a34398a2146106c1576102d7565b806343d6582b116101b057806360972120116101745780636097212014610577578063715018a61461059f578063785fa627146105b55780637a11e941146105df5780637b14976314610607576102d7565b806343d6582b146104a957806346ebbdb0146104d157806348b06e87146104fb57806353236d741461052357806357aa0ea21461054d576102d7565b8063219fc385116101f7578063219fc385146103b757806327e235e3146103e157806329c179901461041d5780632e1a7d4d1461045957806333f707d114610481576102d7565b80630efc8865146102db57806312b5afc11461031757806316b5551d1461033f578063188240cd1461037b576102d7565b366102d7575f341161026f576040517f08c379a000000000000000000000000000000000000000000000000000000000815260040161026690613e29565b60405180910390fd5b3460045f8282546102809190613e7d565b925050819055503373ffffffffffffffffffffffffffffffffffffffff167f85177f287940f2f05425a4029951af0e047a7f9c4eaa9a6e6917bcd869f86695346040516102cd9190613ebf565b60405180910390a2005b5f5ffd5b3480156102e6575f5ffd5b5061030160048036038101906102fc9190613f13565b61097f565b60405161030e9190613f90565b60405180910390f35b348015610322575f5ffd5b5061033d600480360381019061033891906140e5565b6109c7565b005b34801561034a575f5ffd5b5061036560048036038101906103609190614169565b610f1f565b60405161037291906141c1565b60405180910390f35b348015610386575f5ffd5b506103a1600480360381019061039c9190614169565b610f49565b6040516103ae91906141f2565b60405180910390f35b3480156103c2575f5ffd5b506103cb610f69565b6040516103d89190614266565b60405180910390f35b3480156103ec575f5ffd5b506104076004803603810190610402919061427f565b610f8e565b6040516104149190613ebf565b60405180910390f35b348015610428575f5ffd5b50610443600480360381019061043e9190614169565b610fa3565b6040516104509190613ebf565b60405180910390f35b348015610464575f5ffd5b5061047f600480360381019061047a91906142aa565b610fc3565b005b34801561048c575f5ffd5b506104a760048036038101906104a291906142aa565b6111e2565b005b3480156104b4575f5ffd5b506104cf60048036038101906104ca91906142aa565b6113a7565b005b3480156104dc575f5ffd5b506104e5611810565b6040516104f29190613ebf565b60405180910390f35b348015610506575f5ffd5b50610521600480360381019061051c91906142aa565b611815565b005b34801561052e575f5ffd5b50610537611a2d565b6040516105449190613ebf565b60405180910390f35b348015610558575f5ffd5b50610561611a33565b60405161056e9190613ebf565b60405180910390f35b348015610582575f5ffd5b5061059d600480360381019061059891906142aa565b611a3f565b005b3480156105aa575f5ffd5b506105b3611c12565b005b3480156105c0575f5ffd5b506105c9611c25565b6040516105d69190613ebf565b60405180910390f35b3480156105ea575f5ffd5b50610605600480360381019061060091906142aa565b611c2b565b005b348015610612575f5ffd5b5061061b612123565b6040516106289190614266565b60405180910390f35b34801561063c575f5ffd5b5061065760048036038101906106529190614169565b612148565b60405161066491906141c1565b60405180910390f35b348015610678575f5ffd5b50610681612172565b60405161068e9190613f90565b60405180910390f35b3480156106a2575f5ffd5b506106ab612199565b6040516106b89190613ebf565b60405180910390f35b3480156106cc575f5ffd5b506106e760048036038101906106e29190614169565b61219f565b6040516106f491906141c1565b60405180910390f35b348015610708575f5ffd5b50610723600480360381019061071e91906142aa565b6121c9565b005b348015610730575f5ffd5b5061074b60048036038101906107469190614169565b6121db565b60405161075891906141f2565b60405180910390f35b34801561076c575f5ffd5b5061078760048036038101906107829190614169565b6121fb565b60405161079491906141c1565b60405180910390f35b3480156107a8575f5ffd5b506107c360048036038101906107be9190614169565b612225565b6040516107d09190613ebf565b60405180910390f35b3480156107e4575f5ffd5b506107ed612245565b6040516107fa9190613ebf565b60405180910390f35b34801561080e575f5ffd5b5061081761224b565b6040516108249190613f90565b60405180910390f35b610835612273565b005b348015610842575f5ffd5b5061084b612368565b6040516108589190614266565b60405180910390f35b34801561086c575f5ffd5b5061088760048036038101906108829190614332565b61238d565b005b348015610894575f5ffd5b506108af60048036038101906108aa91906143a7565b612798565b005b3480156108bc575f5ffd5b506108c5612ec5565b6040516108d29190613ebf565b60405180910390f35b3480156108e6575f5ffd5b5061090160048036038101906108fc919061427f565b612ecb565b005b34801561090e575f5ffd5b50610917612f4f565b6040516109249190613ebf565b60405180910390f35b348015610938575f5ffd5b50610953600480360381019061094e9190614408565b612f5b565b005b348015610960575f5ffd5b5061096961364d565b6040516109769190614504565b60405180910390f35b6013602052815f5260405f208181548110610998575f80fd5b905f5260205f20015f915091509054906101000a900473ffffffffffffffffffffffffffffffffffffffff1681565b6109cf613660565b5f8211610a11576040517f08c379a0000000000000000000000000000000000000000000000000000000008152600401610a0890614567565b60405180910390fd5b6003548214610a55576040517f08c379a0000000000000000000000000000000000000000000000000000000008152600401610a4c906145cf565b60405180910390fd5b600a5f8381526020019081526020015f205f3373ffffffffffffffffffffffffffffffffffffffff1673ffffffffffffffffffffffffffffffffffffffff1681526020019081526020015f205f9054906101000a900460ff16610aed576040517f08c379a0000000000000000000000000000000000000000000000000000000008152600401610ae490614637565b60405180910390fd5b5f5f1b600d5f8481526020019081526020015f205f3373ffffffffffffffffffffffffffffffffffffffff1673ffffffffffffffffffffffffffffffffffffffff1681526020019081526020015f205403610b7d576040517f08c379a0000000000000000000000000000000000000000000000000000000008152600401610b749061469f565b60405180910390fd5b60105f8381526020019081526020015f205f3373ffffffffffffffffffffffffffffffffffffffff1673ffffffffffffffffffffffffffffffffffffffff1681526020019081526020015f205f9054906101000a900460ff1615610c16576040517f08c379a0000000000000000000000000000000000000000000000000000000008152600401610c0d90614707565b60405180910390fd5b601154600e5f8481526020019081526020015f205f3373ffffffffffffffffffffffffffffffffffffffff1673ffffffffffffffffffffffffffffffffffffffff1681526020019081526020015f2054610c709190613e7d565b421015610cb2576040517f08c379a0000000000000000000000000000000000000000000000000000000008152600401610ca99061476f565b60405180910390fd5b5f81604051602001610cc491906147df565b604051602081830303815290604052805190602001209050600d5f8481526020019081526020015f205f3373ffffffffffffffffffffffffffffffffffffffff1673ffffffffffffffffffffffffffffffffffffffff1681526020019081526020015f20548114610d6a576040517f08c379a0000000000000000000000000000000000000000000000000000000008152600401610d619061483f565b60405180910390fd5b80600f5f8581526020019081526020015f205f3373ffffffffffffffffffffffffffffffffffffffff1673ffffffffffffffffffffffffffffffffffffffff1681526020019081526020015f2081905550600160105f8581526020019081526020015f205f3373ffffffffffffffffffffffffffffffffffffffff1673ffffffffffffffffffffffffffffffffffffffff1681526020019081526020015f205f6101000a81548160ff0219169083151502179055505f5f1b600d5f8581526020019081526020015f205f3373ffffffffffffffffffffffffffffffffffffffff1673ffffffffffffffffffffffffffffffffffffffff1681526020019081526020015f20819055505f600e5f8581526020019081526020015f205f3373ffffffffffffffffffffffffffffffffffffffff1673ffffffffffffffffffffffffffffffffffffffff1681526020019081526020015f2081905550823373ffffffffffffffffffffffffffffffffffffffff167f59d3b853b3060eb254d2f04ecf2d2fba8ec34ae94835cd01eedead529314f52483604051610f0a91906141f2565b60405180910390a350610f1b6136a6565b5050565b6010602052815f5260405f20602052805f5260405f205f915091509054906101000a900460ff1681565b600f602052815f5260405f20602052805f5260405f205f91509150505481565b60095f9054906101000a900473ffffffffffffffffffffffffffffffffffffffff1681565b6002602052805f5260405f205f915090505481565b600c602052815f5260405f20602052805f5260405f205f91509150505481565b610fcb613660565b5f811161100d576040517f08c379a0000000000000000000000000000000000000000000000000000000008152600401611004906148cd565b60405180910390fd5b8060025f3373ffffffffffffffffffffffffffffffffffffffff1673ffffffffffffffffffffffffffffffffffffffff1681526020019081526020015f2054101561108d576040517f08c379a000000000000000000000000000000000000000000000000000000000815260040161108490614935565b60405180910390fd5b8060025f3373ffffffffffffffffffffffffffffffffffffffff1673ffffffffffffffffffffffffffffffffffffffff1681526020019081526020015f205f8282546110d99190614953565b925050819055505f3373ffffffffffffffffffffffffffffffffffffffff1682604051611105906149b3565b5f6040518083038185875af1925050503d805f811461113f576040519150601f19603f3d011682016040523d82523d5f602084013e611144565b606091505b5050905080611188576040517f08c379a000000000000000000000000000000000000000000000000000000000815260040161117f90614a11565b60405180910390fd5b3373ffffffffffffffffffffffffffffffffffffffff167f7fcf532c15f0a6db0bd6d0e038bea71d30d808c7d98cb3bf7268a95bf5081b65836040516111ce9190613ebf565b60405180910390a2506111df6136a6565b50565b6111ea6136af565b6111f2613660565b5f8111611234576040517f08c379a000000000000000000000000000000000000000000000000000000000815260040161122b90614a9f565b60405180910390fd5b806004541015611279576040517f08c379a000000000000000000000000000000000000000000000000000000000815260040161127090614b07565b60405180910390fd5b8060045f82825461128a9190614953565b925050819055505f61129a612172565b73ffffffffffffffffffffffffffffffffffffffff168262030d40906040516112c2906149b3565b5f60405180830381858888f193505050503d805f81146112fd576040519150601f19603f3d011682016040523d82523d5f602084013e611302565b606091505b5050905080611346576040517f08c379a000000000000000000000000000000000000000000000000000000000815260040161133d90614b6f565b60405180910390fd5b61134e612172565b73ffffffffffffffffffffffffffffffffffffffff167fa919fadcfa556a012bab31b15f596ea7ccd397adbf10e15f176db9055ab361c4836040516113939190613ebf565b60405180910390a2506113a46136a6565b50565b6113af613660565b600a5f8281526020019081526020015f205f3373ffffffffffffffffffffffffffffffffffffffff1673ffffffffffffffffffffffffffffffffffffffff1681526020019081526020015f205f9054906101000a900460ff1615611448576040517f08c379a000000000000000000000000000000000000000000000000000000000815260040161143f90614bfd565b60405180910390fd5b600354811461148c576040517f08c379a0000000000000000000000000000000000000000000000000000000008152600401611483906145cf565b60405180910390fd5b5f600354116114d0576040517f08c379a00000000000000000000000000000000000000000000000000000000081526004016114c790614c65565b60405180910390fd5b5f670de0b6b3a7640000111561175d575f60085f9054906101000a900473ffffffffffffffffffffffffffffffffffffffff1690505f73ffffffffffffffffffffffffffffffffffffffff168173ffffffffffffffffffffffffffffffffffffffff1603611573576040517f08c379a000000000000000000000000000000000000000000000000000000000815260040161156a90614ccd565b60405180910390fd5b5f8173ffffffffffffffffffffffffffffffffffffffff166370a08231306040518263ffffffff1660e01b81526004016115ad9190613f90565b602060405180830381865afa1580156115c8573d5f5f3e3d5ffd5b505050506040513d601f19601f820116820180604052508101906115ec9190614cff565b90506116233330670de0b6b3a76400008573ffffffffffffffffffffffffffffffffffffffff16613736909392919063ffffffff16565b5f818373ffffffffffffffffffffffffffffffffffffffff166370a08231306040518263ffffffff1660e01b815260040161165e9190613f90565b602060405180830381865afa158015611679573d5f5f3e3d5ffd5b505050506040513d601f19601f8201168201806040525081019061169d9190614cff565b6116a79190614953565b9050670de0b6b3a764000081146116f3576040517f08c379a00000000000000000000000000000000000000000000000000000000081526004016116ea90614d9a565b60405180910390fd5b838373ffffffffffffffffffffffffffffffffffffffff163373ffffffffffffffffffffffffffffffffffffffff167f1f8e0e31739d887c754fcf7403fe1bdf6641ef33578b9d08631a7d5e6e9b8fb7846040516117519190613ebf565b60405180910390a45050505b6001600a5f8381526020019081526020015f205f3373ffffffffffffffffffffffffffffffffffffffff1673ffffffffffffffffffffffffffffffffffffffff1681526020019081526020015f205f6101000a81548160ff021916908315150217905550803373ffffffffffffffffffffffffffffffffffffffff167fc16481c9484122696a660b57df0bf6839645c6b620cb1704ac2437de13be922560405160405180910390a361180d6136a6565b50565b600381565b61181d6136af565b611825613660565b5f8111611867576040517f08c379a000000000000000000000000000000000000000000000000000000000815260040161185e90614e02565b60405180910390fd5b60018081111561187a57611879614491565b5b600960149054906101000a900460ff16600181111561189c5761189b614491565b5b146118dc576040517f08c379a00000000000000000000000000000000000000000000000000000000081526004016118d390614e90565b60405180910390fd5b5f73ffffffffffffffffffffffffffffffffffffffff1660055f9054906101000a900473ffffffffffffffffffffffffffffffffffffffff1673ffffffffffffffffffffffffffffffffffffffff160361196b576040517f08c379a000000000000000000000000000000000000000000000000000000000815260040161196290614ef8565b60405180910390fd5b6119b933308360055f9054906101000a900473ffffffffffffffffffffffffffffffffffffffff1673ffffffffffffffffffffffffffffffffffffffff16613736909392919063ffffffff16565b8060065f8282546119ca9190613e7d565b925050819055503373ffffffffffffffffffffffffffffffffffffffff167f4708e702157b1eb6cd00a772e6a623599ac7dc0bad76e8c624fdef050b434f09826001604051611a1a929190614f16565b60405180910390a2611a2a6136a6565b50565b60115481565b67016345785d8a000081565b611a476136af565b611a4f613660565b5f8111611a91576040517f08c379a0000000000000000000000000000000000000000000000000000000008152600401611a8890614fad565b60405180910390fd5b806006541015611ad6576040517f08c379a0000000000000000000000000000000000000000000000000000000008152600401611acd90615015565b60405180910390fd5b5f73ffffffffffffffffffffffffffffffffffffffff1660055f9054906101000a900473ffffffffffffffffffffffffffffffffffffffff1673ffffffffffffffffffffffffffffffffffffffff1603611b65576040517f08c379a0000000000000000000000000000000000000000000000000000000008152600401611b5c90614ef8565b60405180910390fd5b8060065f828254611b769190614953565b92505081905550611bd0611b88612172565b8260055f9054906101000a900473ffffffffffffffffffffffffffffffffffffffff1673ffffffffffffffffffffffffffffffffffffffff166137b89092919063ffffffff16565b7f560c2b6d9212838c63f631c64ebc9d7364da90f9af3fdec847c0725dd18330c881604051611bff9190613ebf565b60405180910390a1611c0f6136a6565b50565b611c1a6136af565b611c235f613837565b565b60075481565b611c33613660565b6003548114611c77576040517f08c379a0000000000000000000000000000000000000000000000000000000008152600401611c6e906145cf565b60405180910390fd5b600a5f8281526020019081526020015f205f3373ffffffffffffffffffffffffffffffffffffffff1673ffffffffffffffffffffffffffffffffffffffff1681526020019081526020015f205f9054906101000a900460ff16611d0f576040517f08c379a0000000000000000000000000000000000000000000000000000000008152600401611d06906150a3565b60405180910390fd5b5f73ffffffffffffffffffffffffffffffffffffffff1660095f9054906101000a900473ffffffffffffffffffffffffffffffffffffffff1673ffffffffffffffffffffffffffffffffffffffff1603611d9e576040517f08c379a0000000000000000000000000000000000000000000000000000000008152600401611d959061510b565b60405180910390fd5b6003600c5f8381526020019081526020015f205f3373ffffffffffffffffffffffffffffffffffffffff1673ffffffffffffffffffffffffffffffffffffffff1681526020019081526020015f205410611e2d576040517f08c379a0000000000000000000000000000000000000000000000000000000008152600401611e2490615173565b60405180910390fd5b5f60095f9054906101000a900473ffffffffffffffffffffffffffffffffffffffff1673ffffffffffffffffffffffffffffffffffffffff166370a08231306040518263ffffffff1660e01b8152600401611e889190613f90565b602060405180830381865afa158015611ea3573d5f5f3e3d5ffd5b505050506040513d601f19601f82011682018060405250810190611ec79190614cff565b9050611f1f333067016345785d8a000060095f9054906101000a900473ffffffffffffffffffffffffffffffffffffffff1673ffffffffffffffffffffffffffffffffffffffff16613736909392919063ffffffff16565b5f8160095f9054906101000a900473ffffffffffffffffffffffffffffffffffffffff1673ffffffffffffffffffffffffffffffffffffffff166370a08231306040518263ffffffff1660e01b8152600401611f7b9190613f90565b602060405180830381865afa158015611f96573d5f5f3e3d5ffd5b505050506040513d601f19601f82011682018060405250810190611fba9190614cff565b611fc49190614953565b905067016345785d8a00008114612010576040517f08c379a000000000000000000000000000000000000000000000000000000000815260040161200790615201565b60405180910390fd5b600c5f8481526020019081526020015f205f3373ffffffffffffffffffffffffffffffffffffffff1673ffffffffffffffffffffffffffffffffffffffff1681526020019081526020015f205f81548092919061206c9061521f565b9190505550823373ffffffffffffffffffffffffffffffffffffffff167f98afd9c8b4874dc0b797b810a6a8488429aea97e225fc6e70d948f77660fbee767016345785d8a0000600c5f8881526020019081526020015f205f3373ffffffffffffffffffffffffffffffffffffffff1673ffffffffffffffffffffffffffffffffffffffff1681526020019081526020015f205460405161210e929190615266565b60405180910390a350506121206136a6565b50565b60085f9054906101000a900473ffffffffffffffffffffffffffffffffffffffff1681565b600b602052815f5260405f20602052805f5260405f205f915091509054906101000a900460ff1681565b5f5f5f9054906101000a900473ffffffffffffffffffffffffffffffffffffffff16905090565b60045481565b600a602052815f5260405f20602052805f5260405f205f915091509054906101000a900460ff1681565b6121d16136af565b8060118190555050565b600d602052815f5260405f20602052805f5260405f205f91509150505481565b6014602052815f5260405f20602052805f5260405f205f915091509054906101000a900460ff1681565b600e602052815f5260405f20602052805f5260405f205f91509150505481565b60065481565b5f60055f9054906101000a900473ffffffffffffffffffffffffffffffffffffffff16905090565b61227b613660565b5f34116122bd576040517f08c379a00000000000000000000000000000000000000000000000000000000081526004016122b4906152fd565b60405180910390fd5b3460025f3373ffffffffffffffffffffffffffffffffffffffff1673ffffffffffffffffffffffffffffffffffffffff1681526020019081526020015f205f8282546123099190613e7d565b925050819055503373ffffffffffffffffffffffffffffffffffffffff167fe1fffcc4923d04b559f4d29a8bfc6cda04eb5b0d3c460751c2402c5c5cc9109c346040516123569190613ebf565b60405180910390a26123666136a6565b565b60055f9054906101000a900473ffffffffffffffffffffffffffffffffffffffff1681565b612395613660565b5f600354116123d9576040517f08c379a00000000000000000000000000000000000000000000000000000000081526004016123d090614c65565b60405180910390fd5b600a5f60035481526020019081526020015f205f3373ffffffffffffffffffffffffffffffffffffffff1673ffffffffffffffffffffffffffffffffffffffff1681526020019081526020015f205f9054906101000a900460ff16612473576040517f08c379a000000000000000000000000000000000000000000000000000000000815260040161246a90614637565b60405180910390fd5b600b5f60035481526020019081526020015f205f3373ffffffffffffffffffffffffffffffffffffffff1673ffffffffffffffffffffffffffffffffffffffff1681526020019081526020015f205f9054906101000a900460ff161561250e576040517f08c379a000000000000000000000000000000000000000000000000000000000815260040161250590615365565b60405180910390fd5b60105f60035481526020019081526020015f205f3373ffffffffffffffffffffffffffffffffffffffff1673ffffffffffffffffffffffffffffffffffffffff1681526020019081526020015f205f9054906101000a900460ff166125a8576040517f08c379a000000000000000000000000000000000000000000000000000000000815260040161259f906153cd565b60405180910390fd5b81816040516020016125bb92919061540f565b60405160208183030381529060405280519060200120600f5f60035481526020019081526020015f205f3373ffffffffffffffffffffffffffffffffffffffff1673ffffffffffffffffffffffffffffffffffffffff1681526020019081526020015f205414612660576040517f08c379a000000000000000000000000000000000000000000000000000000000815260040161265790615497565b60405180910390fd5b6001600b5f60035481526020019081526020015f205f3373ffffffffffffffffffffffffffffffffffffffff1673ffffffffffffffffffffffffffffffffffffffff1681526020019081526020015f205f6101000a81548160ff0219169083151502179055506126d2336007546138f8565b5f5f1b600f5f60035481526020019081526020015f205f3373ffffffffffffffffffffffffffffffffffffffff1673ffffffffffffffffffffffffffffffffffffffff1681526020019081526020015f20819055505f60105f60035481526020019081526020015f205f3373ffffffffffffffffffffffffffffffffffffffff1673ffffffffffffffffffffffffffffffffffffffff1681526020019081526020015f205f6101000a81548160ff0219169083151502179055506127946136a6565b5050565b6127a0613660565b5f82116127e2576040517f08c379a00000000000000000000000000000000000000000000000000000000081526004016127d990614567565b60405180910390fd5b6003548214612826576040517f08c379a000000000000000000000000000000000000000000000000000000000815260040161281d906145cf565b60405180910390fd5b5f5f1b810361286a576040517f08c379a0000000000000000000000000000000000000000000000000000000008152600401612861906154ff565b60405180910390fd5b600a5f8381526020019081526020015f205f3373ffffffffffffffffffffffffffffffffffffffff1673ffffffffffffffffffffffffffffffffffffffff1681526020019081526020015f205f9054906101000a900460ff16612902576040517f08c379a00000000000000000000000000000000000000000000000000000000081526004016128f990614637565b60405180910390fd5b5f5f1b600d5f8481526020019081526020015f205f3373ffffffffffffffffffffffffffffffffffffffff1673ffffffffffffffffffffffffffffffffffffffff1681526020019081526020015f205414612ba1575f600c5f8481526020019081526020015f205f3373ffffffffffffffffffffffffffffffffffffffff1673ffffffffffffffffffffffffffffffffffffffff1681526020019081526020015f2054116129e5576040517f08c379a00000000000000000000000000000000000000000000000000000000081526004016129dc90615567565b60405180910390fd5b600c5f8381526020019081526020015f205f3373ffffffffffffffffffffffffffffffffffffffff1673ffffffffffffffffffffffffffffffffffffffff1681526020019081526020015f205f815480929190612a4190615585565b91905055505f5f1b600d5f8481526020019081526020015f205f3373ffffffffffffffffffffffffffffffffffffffff1673ffffffffffffffffffffffffffffffffffffffff1681526020019081526020015f20819055505f600e5f8481526020019081526020015f205f3373ffffffffffffffffffffffffffffffffffffffff1673ffffffffffffffffffffffffffffffffffffffff1681526020019081526020015f20819055505f5f1b600f5f8481526020019081526020015f205f3373ffffffffffffffffffffffffffffffffffffffff1673ffffffffffffffffffffffffffffffffffffffff1681526020019081526020015f20819055505f60105f8481526020019081526020015f205f3373ffffffffffffffffffffffffffffffffffffffff1673ffffffffffffffffffffffffffffffffffffffff1681526020019081526020015f205f6101000a81548160ff0219169083151502179055505b6012548103612d765760145f8381526020019081526020015f205f3373ffffffffffffffffffffffffffffffffffffffff1673ffffffffffffffffffffffffffffffffffffffff1681526020019081526020015f205f9054906101000a900460ff16612d1f5760135f8381526020019081526020015f2033908060018154018082558091505060019003905f5260205f20015f9091909190916101000a81548173ffffffffffffffffffffffffffffffffffffffff021916908373ffffffffffffffffffffffffffffffffffffffff160217905550600160145f8481526020019081526020015f205f3373ffffffffffffffffffffffffffffffffffffffff1673ffffffffffffffffffffffffffffffffffffffff1681526020019081526020015f205f6101000a81548160ff021916908315150217905550813373ffffffffffffffffffffffffffffffffffffffff167fb5d93c368c4bd18876654db9fd5dcef5a3583ccde4d81659e7f309f36c84490560405160405180910390a35b3373ffffffffffffffffffffffffffffffffffffffff16827f6dbad7911810fc45c016aff41534b7adcd5477454a9b5be0d995a93518cde675426001604051612d699291906155ac565b60405180910390a3612dc8565b3373ffffffffffffffffffffffffffffffffffffffff16827f6dbad7911810fc45c016aff41534b7adcd5477454a9b5be0d995a93518cde675425f604051612dbf9291906155ac565b60405180910390a35b80600d5f8481526020019081526020015f205f3373ffffffffffffffffffffffffffffffffffffffff1673ffffffffffffffffffffffffffffffffffffffff1681526020019081526020015f208190555042600e5f8481526020019081526020015f205f3373ffffffffffffffffffffffffffffffffffffffff1673ffffffffffffffffffffffffffffffffffffffff1681526020019081526020015f2081905550813373ffffffffffffffffffffffffffffffffffffffff167fc5009e6865ae04f58da43f80d7eb9718a2f25a7ccfeb22a8ca0031e77b86b50a83604051612eb191906141f2565b60405180910390a3612ec16136a6565b5050565b60035481565b612ed36136af565b5f73ffffffffffffffffffffffffffffffffffffffff168173ffffffffffffffffffffffffffffffffffffffff1603612f43575f6040517f1e4fbdf7000000000000000000000000000000000000000000000000000000008152600401612f3a9190613f90565b60405180910390fd5b612f4c81613837565b50565b670de0b6b3a764000081565b612f636136af565b5f8611612fa5576040517f08c379a0000000000000000000000000000000000000000000000000000000008152600401612f9c90614567565b60405180910390fd5b6003548611612fe9576040517f08c379a0000000000000000000000000000000000000000000000000000000008152600401612fe090615643565b60405180910390fd5b5f821161302b576040517f08c379a0000000000000000000000000000000000000000000000000000000008152600401613022906156d1565b60405180910390fd5b60018081111561303e5761303d614491565b5b84600181111561305157613050614491565b5b0361320a575f73ffffffffffffffffffffffffffffffffffffffff168373ffffffffffffffffffffffffffffffffffffffff16036130c4576040517f08c379a00000000000000000000000000000000000000000000000000000000081526004016130bb9061575f565b60405180910390fd5b5f8373ffffffffffffffffffffffffffffffffffffffff163b1161311d576040517f08c379a0000000000000000000000000000000000000000000000000000000008152600401613114906157c7565b60405180910390fd5b8273ffffffffffffffffffffffffffffffffffffffff166318160ddd6040518163ffffffff1660e01b8152600401602060405180830381865afa92505050801561318557506040513d601f19601f820116820180604052508101906131829190614cff565b60015b6131c4576040517f08c379a00000000000000000000000000000000000000000000000000000000081526004016131bb90615855565b60405180910390fd5b508260055f6101000a81548173ffffffffffffffffffffffffffffffffffffffff021916908373ffffffffffffffffffffffffffffffffffffffff1602179055506132b9565b5f73ffffffffffffffffffffffffffffffffffffffff168373ffffffffffffffffffffffffffffffffffffffff1614613278576040517f08c379a000000000000000000000000000000000000000000000000000000000815260040161326f906158e3565b60405180910390fd5b5f60055f6101000a81548173ffffffffffffffffffffffffffffffffffffffff021916908373ffffffffffffffffffffffffffffffffffffffff1602179055505b5f670de0b6b3a7640000111561347d575f73ffffffffffffffffffffffffffffffffffffffff168173ffffffffffffffffffffffffffffffffffffffff1603613337576040517f08c379a000000000000000000000000000000000000000000000000000000000815260040161332e90615997565b60405180910390fd5b5f8173ffffffffffffffffffffffffffffffffffffffff163b11613390576040517f08c379a000000000000000000000000000000000000000000000000000000000815260040161338790615a25565b60405180910390fd5b8073ffffffffffffffffffffffffffffffffffffffff166318160ddd6040518163ffffffff1660e01b8152600401602060405180830381865afa9250505080156133f857506040513d601f19601f820116820180604052508101906133f59190614cff565b60015b613437576040517f08c379a000000000000000000000000000000000000000000000000000000000815260040161342e90615ab3565b60405180910390fd5b508060085f6101000a81548173ffffffffffffffffffffffffffffffffffffffff021916908373ffffffffffffffffffffffffffffffffffffffff16021790555061352c565b5f73ffffffffffffffffffffffffffffffffffffffff168173ffffffffffffffffffffffffffffffffffffffff16146134eb576040517f08c379a00000000000000000000000000000000000000000000000000000000081526004016134e290615b41565b60405180910390fd5b5f60085f6101000a81548173ffffffffffffffffffffffffffffffffffffffff021916908373ffffffffffffffffffffffffffffffffffffffff1602179055505b5f60045414613570576040517f08c379a000000000000000000000000000000000000000000000000000000000815260040161356790615bcf565b60405180910390fd5b5f600654146135b4576040517f08c379a00000000000000000000000000000000000000000000000000000000081526004016135ab90615c5d565b60405180910390fd5b856003819055508460128190555083600960146101000a81548160ff021916908360018111156135e7576135e6614491565b5b021790555081600781905550857f05227007ca99c4e41f51fb024dcb2065e16bd026db353ce7f322e5cdb4fb2e9d8686600181111561362957613628614491565b5b86868660405161363d959493929190615c96565b60405180910390a2505050505050565b600960149054906101000a900460ff1681565b60026001540361369c576040517f3ee5aeb500000000000000000000000000000000000000000000000000000000815260040160405180910390fd5b6002600181905550565b60018081905550565b6136b7613d07565b73ffffffffffffffffffffffffffffffffffffffff166136d5612172565b73ffffffffffffffffffffffffffffffffffffffff1614613734576136f8613d07565b6040517f118cdaa700000000000000000000000000000000000000000000000000000000815260040161372b9190613f90565b60405180910390fd5b565b6137b2848573ffffffffffffffffffffffffffffffffffffffff166323b872dd86868660405160240161376b93929190615ce7565b604051602081830303815290604052915060e01b6020820180517bffffffffffffffffffffffffffffffffffffffffffffffffffffffff8381831617835250505050613d0e565b50505050565b613832838473ffffffffffffffffffffffffffffffffffffffff1663a9059cbb85856040516024016137eb929190615d1c565b604051602081830303815290604052915060e01b6020820180517bffffffffffffffffffffffffffffffffffffffffffffffffffffffff8381831617835250505050613d0e565b505050565b5f5f5f9054906101000a900473ffffffffffffffffffffffffffffffffffffffff169050815f5f6101000a81548173ffffffffffffffffffffffffffffffffffffffff021916908373ffffffffffffffffffffffffffffffffffffffff1602179055508173ffffffffffffffffffffffffffffffffffffffff168173ffffffffffffffffffffffffffffffffffffffff167f8be0079c531659141344cd1fd0a4f28419497f9722a3daafe3b4186f6b6457e060405160405180910390a35050565b5f73ffffffffffffffffffffffffffffffffffffffff168273ffffffffffffffffffffffffffffffffffffffff1603613966576040517f08c379a000000000000000000000000000000000000000000000000000000000815260040161395d90615d8d565b60405180910390fd5b5f81116139a8576040517f08c379a000000000000000000000000000000000000000000000000000000000815260040161399f906156d1565b60405180910390fd5b5f60018111156139bb576139ba614491565b5b600960149054906101000a900460ff1660018111156139dd576139dc614491565b5b03613b3057806004541015613a27576040517f08c379a0000000000000000000000000000000000000000000000000000000008152600401613a1e90615e1b565b60405180910390fd5b80471015613a6a576040517f08c379a0000000000000000000000000000000000000000000000000000000008152600401613a6190615ea9565b60405180910390fd5b8060045f828254613a7b9190614953565b925050819055505f8273ffffffffffffffffffffffffffffffffffffffff1682604051613aa7906149b3565b5f6040518083038185875af1925050503d805f8114613ae1576040519150601f19603f3d011682016040523d82523d5f602084013e613ae6565b606091505b5050905080613b2a576040517f08c379a0000000000000000000000000000000000000000000000000000000008152600401613b2190615f11565b60405180910390fd5b50613ca4565b600180811115613b4357613b42614491565b5b600960149054906101000a900460ff166001811115613b6557613b64614491565b5b03613ca3575f73ffffffffffffffffffffffffffffffffffffffff1660055f9054906101000a900473ffffffffffffffffffffffffffffffffffffffff1673ffffffffffffffffffffffffffffffffffffffff1603613bf9576040517f08c379a0000000000000000000000000000000000000000000000000000000008152600401613bf090614ef8565b60405180910390fd5b806006541015613c3e576040517f08c379a0000000000000000000000000000000000000000000000000000000008152600401613c3590615f9f565b60405180910390fd5b8060065f828254613c4f9190614953565b92505081905550613ca2828260055f9054906101000a900473ffffffffffffffffffffffffffffffffffffffff1673ffffffffffffffffffffffffffffffffffffffff166137b89092919063ffffffff16565b5b5b8173ffffffffffffffffffffffffffffffffffffffff167fff43c2705b2225c1c9d9d58f088ab64d4fc767737dee523bed37f15fb0c6c3de82600960149054906101000a900460ff16604051613cfb929190614f16565b60405180910390a25050565b5f33905090565b5f5f60205f8451602086015f885af180613d2d576040513d5f823e3d81fd5b3d92505f519150505f8214613d46576001811415613d61565b5f8473ffffffffffffffffffffffffffffffffffffffff163b145b15613da357836040517f5274afe7000000000000000000000000000000000000000000000000000000008152600401613d9a9190613f90565b60405180910390fd5b50505050565b5f82825260208201905092915050565b7f45544820616d6f756e74206d7573742062652067726561746572207468616e205f8201527f7a65726f00000000000000000000000000000000000000000000000000000000602082015250565b5f613e13602483613da9565b9150613e1e82613db9565b604082019050919050565b5f6020820190508181035f830152613e4081613e07565b9050919050565b5f819050919050565b7f4e487b71000000000000000000000000000000000000000000000000000000005f52601160045260245ffd5b5f613e8782613e47565b9150613e9283613e47565b9250828201905080821115613eaa57613ea9613e50565b5b92915050565b613eb981613e47565b82525050565b5f602082019050613ed25f830184613eb0565b92915050565b5f604051905090565b5f5ffd5b5f5ffd5b613ef281613e47565b8114613efc575f5ffd5b50565b5f81359050613f0d81613ee9565b92915050565b5f5f60408385031215613f2957613f28613ee1565b5b5f613f3685828601613eff565b9250506020613f4785828601613eff565b9150509250929050565b5f73ffffffffffffffffffffffffffffffffffffffff82169050919050565b5f613f7a82613f51565b9050919050565b613f8a81613f70565b82525050565b5f602082019050613fa35f830184613f81565b92915050565b5f5ffd5b5f5ffd5b5f601f19601f8301169050919050565b7f4e487b71000000000000000000000000000000000000000000000000000000005f52604160045260245ffd5b613ff782613fb1565b810181811067ffffffffffffffff8211171561401657614015613fc1565b5b80604052505050565b5f614028613ed8565b90506140348282613fee565b919050565b5f67ffffffffffffffff82111561405357614052613fc1565b5b61405c82613fb1565b9050602081019050919050565b828183375f83830152505050565b5f61408961408484614039565b61401f565b9050828152602081018484840111156140a5576140a4613fad565b5b6140b0848285614069565b509392505050565b5f82601f8301126140cc576140cb613fa9565b5b81356140dc848260208601614077565b91505092915050565b5f5f604083850312156140fb576140fa613ee1565b5b5f61410885828601613eff565b925050602083013567ffffffffffffffff81111561412957614128613ee5565b5b614135858286016140b8565b9150509250929050565b61414881613f70565b8114614152575f5ffd5b50565b5f813590506141638161413f565b92915050565b5f5f6040838503121561417f5761417e613ee1565b5b5f61418c85828601613eff565b925050602061419d85828601614155565b9150509250929050565b5f8115159050919050565b6141bb816141a7565b82525050565b5f6020820190506141d45f8301846141b2565b92915050565b5f819050919050565b6141ec816141da565b82525050565b5f6020820190506142055f8301846141e3565b92915050565b5f819050919050565b5f61422e61422961422484613f51565b61420b565b613f51565b9050919050565b5f61423f82614214565b9050919050565b5f61425082614235565b9050919050565b61426081614246565b82525050565b5f6020820190506142795f830184614257565b92915050565b5f6020828403121561429457614293613ee1565b5b5f6142a184828501614155565b91505092915050565b5f602082840312156142bf576142be613ee1565b5b5f6142cc84828501613eff565b91505092915050565b5f5ffd5b5f5ffd5b5f5f83601f8401126142f2576142f1613fa9565b5b8235905067ffffffffffffffff81111561430f5761430e6142d5565b5b60208301915083600182028301111561432b5761432a6142d9565b5b9250929050565b5f5f6020838503121561434857614347613ee1565b5b5f83013567ffffffffffffffff81111561436557614364613ee5565b5b614371858286016142dd565b92509250509250929050565b614386816141da565b8114614390575f5ffd5b50565b5f813590506143a18161437d565b92915050565b5f5f604083850312156143bd576143bc613ee1565b5b5f6143ca85828601613eff565b92505060206143db85828601614393565b9150509250929050565b600281106143f1575f5ffd5b50565b5f81359050614402816143e5565b92915050565b5f5f5f5f5f5f60c0878903121561442257614421613ee1565b5b5f61442f89828a01613eff565b965050602061444089828a01614393565b955050604061445189828a016143f4565b945050606061446289828a01614155565b935050608061447389828a01613eff565b92505060a061448489828a01614155565b9150509295509295509295565b7f4e487b71000000000000000000000000000000000000000000000000000000005f52602160045260245ffd5b600281106144cf576144ce614491565b5b50565b5f8190506144df826144be565b919050565b5f6144ee826144d2565b9050919050565b6144fe816144e4565b82525050565b5f6020820190506145175f8301846144f5565b92915050565b7f526964646c652049442063616e6e6f74206265207a65726f00000000000000005f82015250565b5f614551601883613da9565b915061455c8261451d565b602082019050919050565b5f6020820190508181035f83015261457e81614545565b9050919050565b7f4e6f74207468652061637469766520726964646c6520494400000000000000005f82015250565b5f6145b9601883613da9565b91506145c482614585565b602082019050919050565b5f6020820190508181035f8301526145e6816145ad565b9050919050565b7f4d75737420656e746572207468652067616d65206669727374000000000000005f82015250565b5f614621601983613da9565b915061462c826145ed565b602082019050919050565b5f6020820190508181035f83015261464e81614615565b9050919050565b7f4e6f20636f6d6d697474656420677565737300000000000000000000000000005f82015250565b5f614689601283613da9565b915061469482614655565b602082019050919050565b5f6020820190508181035f8301526146b68161467d565b9050919050565b7f416c72656164792072657665616c6564000000000000000000000000000000005f82015250565b5f6146f1601083613da9565b91506146fc826146bd565b602082019050919050565b5f6020820190508181035f83015261471e816146e5565b9050919050565b7f52657665616c20746f6f206561726c79000000000000000000000000000000005f82015250565b5f614759601083613da9565b915061476482614725565b602082019050919050565b5f6020820190508181035f8301526147868161474d565b9050919050565b5f81519050919050565b5f81905092915050565b8281835e5f83830152505050565b5f6147b98261478d565b6147c38185614797565b93506147d38185602086016147a1565b80840191505092915050565b5f6147ea82846147af565b915081905092915050565b7f52657665616c20646f6573206e6f74206d6174636820636f6d6d6974000000005f82015250565b5f614829601c83613da9565b9150614834826147f5565b602082019050919050565b5f6020820190508181035f8301526148568161481d565b9050919050565b7f5769746864726177616c20616d6f756e74206d757374206265206772656174655f8201527f72207468616e207a65726f000000000000000000000000000000000000000000602082015250565b5f6148b7602b83613da9565b91506148c28261485d565b604082019050919050565b5f6020820190508181035f8301526148e4816148ab565b9050919050565b7f496e73756666696369656e742062616c616e63650000000000000000000000005f82015250565b5f61491f601483613da9565b915061492a826148eb565b602082019050919050565b5f6020820190508181035f83015261494c81614913565b9050919050565b5f61495d82613e47565b915061496883613e47565b92508282039050818111156149805761497f613e50565b5b92915050565b5f81905092915050565b50565b5f61499e5f83614986565b91506149a982614990565b5f82019050919050565b5f6149bd82614993565b9150819050919050565b7f5769746864726177616c206661696c65640000000000000000000000000000005f82015250565b5f6149fb601183613da9565b9150614a06826149c7565b602082019050919050565b5f6020820190508181035f830152614a28816149ef565b9050919050565b7f4f776e6572207769746864726177616c20616d6f756e74206d757374206265205f8201527f67726561746572207468616e207a65726f000000000000000000000000000000602082015250565b5f614a89603183613da9565b9150614a9482614a2f565b604082019050919050565b5f6020820190508181035f830152614ab681614a7d565b9050919050565b7f496e73756666696369656e7420455448207072697a6520706f6f6c00000000005f82015250565b5f614af1601b83613da9565b9150614afc82614abd565b602082019050919050565b5f6020820190508181035f830152614b1e81614ae5565b9050919050565b7f4f776e6572207769746864726177616c206661696c65640000000000000000005f82015250565b5f614b59601783613da9565b9150614b6482614b25565b602082019050919050565b5f6020820190508181035f830152614b8681614b4d565b9050919050565b7f416c72656164792070617274696369706174656420696e2074686973207269645f8201527f646c650000000000000000000000000000000000000000000000000000000000602082015250565b5f614be7602383613da9565b9150614bf282614b8d565b604082019050919050565b5f6020820190508181035f830152614c1481614bdb565b9050919050565b7f4e6f2061637469766520726964646c65000000000000000000000000000000005f82015250565b5f614c4f601083613da9565b9150614c5a82614c1b565b602082019050919050565b5f6020820190508181035f830152614c7c81614c43565b9050919050565b7f456e7472792066656520746f6b656e206e6f74207365740000000000000000005f82015250565b5f614cb7601783613da9565b9150614cc282614c83565b602082019050919050565b5f6020820190508181035f830152614ce481614cab565b9050919050565b5f81519050614cf981613ee9565b92915050565b5f60208284031215614d1457614d13613ee1565b5b5f614d2184828501614ceb565b91505092915050565b7f456e74727920666565206d69736d617463682028464f54206e6f7420737570705f8201527f6f72746564290000000000000000000000000000000000000000000000000000602082015250565b5f614d84602683613da9565b9150614d8f82614d2a565b604082019050919050565b5f6020820190508181035f830152614db181614d78565b9050919050565b7f416d6f756e74206d7573742062652067726561746572207468616e207a65726f5f82015250565b5f614dec602083613da9565b9150614df782614db8565b602082019050919050565b5f6020820190508181035f830152614e1981614de0565b9050919050565b7f43757272656e7420726964646c65207072697a65206973206e6f7420455243325f8201527f3000000000000000000000000000000000000000000000000000000000000000602082015250565b5f614e7a602183613da9565b9150614e8582614e20565b604082019050919050565b5f6020820190508181035f830152614ea781614e6e565b9050919050565b7f5072697a6520746f6b656e206e6f7420736574000000000000000000000000005f82015250565b5f614ee2601383613da9565b9150614eed82614eae565b602082019050919050565b5f6020820190508181035f830152614f0f81614ed6565b9050919050565b5f604082019050614f295f830185613eb0565b614f3660208301846144f5565b9392505050565b7f4f776e657220746f6b656e207769746864726177616c20616d6f756e74206d755f8201527f73742062652067726561746572207468616e207a65726f000000000000000000602082015250565b5f614f97603783613da9565b9150614fa282614f3d565b604082019050919050565b5f6020820190508181035f830152614fc481614f8b565b9050919050565b7f496e73756666696369656e7420746f6b656e207072697a6520706f6f6c0000005f82015250565b5f614fff601d83613da9565b915061500a82614fcb565b602082019050919050565b5f6020820190508181035f83015261502c81614ff3565b9050919050565b7f4d75737420706172746963697061746520696e2074686520726964646c6520665f8201527f6972737400000000000000000000000000000000000000000000000000000000602082015250565b5f61508d602483613da9565b915061509882615033565b604082019050919050565b5f6020820190508181035f8301526150ba81615081565b9050919050565b7f526574727920746f6b656e206e6f7420736574000000000000000000000000005f82015250565b5f6150f5601383613da9565b9150615100826150c1565b602082019050919050565b5f6020820190508181035f830152615122816150e9565b9050919050565b7f4d617820726574726965732072656163686564000000000000000000000000005f82015250565b5f61515d601383613da9565b915061516882615129565b602082019050919050565b5f6020820190508181035f83015261518a81615151565b9050919050565b7f526574727920636f7374206d69736d617463682028464f54206e6f74207375705f8201527f706f727465642900000000000000000000000000000000000000000000000000602082015250565b5f6151eb602783613da9565b91506151f682615191565b604082019050919050565b5f6020820190508181035f830152615218816151df565b9050919050565b5f61522982613e47565b91507fffffffffffffffffffffffffffffffffffffffffffffffffffffffffffffffff820361525b5761525a613e50565b5b600182019050919050565b5f6040820190506152795f830185613eb0565b6152866020830184613eb0565b9392505050565b7f4465706f73697420616d6f756e74206d757374206265206772656174657220745f8201527f68616e207a65726f000000000000000000000000000000000000000000000000602082015250565b5f6152e7602883613da9565b91506152f28261528d565b604082019050919050565b5f6020820190508181035f830152615314816152db565b9050919050565b7f416c726561647920636c61696d656400000000000000000000000000000000005f82015250565b5f61534f600f83613da9565b915061535a8261531b565b602082019050919050565b5f6020820190508181035f83015261537c81615343565b9050919050565b7f4d7573742072657665616c206775657373206265666f726520736f6c76696e675f82015250565b5f6153b7602083613da9565b91506153c282615383565b602082019050919050565b5f6020820190508181035f8301526153e4816153ab565b9050919050565b5f6153f68385614797565b9350615403838584614069565b82840190509392505050565b5f61541b8284866153eb565b91508190509392505050565b7f52657665616c656420677565737320646f6573206e6f74206d617463682070725f8201527f6f766964656420616e7377657200000000000000000000000000000000000000602082015250565b5f615481602d83613da9565b915061548c82615427565b604082019050919050565b5f6020820190508181035f8301526154ae81615475565b9050919050565b7f477565737320686173682063616e6e6f74206265207a65726f000000000000005f82015250565b5f6154e9601983613da9565b91506154f4826154b5565b602082019050919050565b5f6020820190508181035f830152615516816154dd565b9050919050565b7f4e6f207265747269657320617661696c61626c650000000000000000000000005f82015250565b5f615551601483613da9565b915061555c8261551d565b602082019050919050565b5f6020820190508181035f83015261557e81615545565b9050919050565b5f61558f82613e47565b91505f82036155a1576155a0613e50565b5b600182039050919050565b5f6040820190506155bf5f830185613eb0565b6155cc60208301846141b2565b9392505050565b7f526964646c65204944206d7573742062652067726561746572207468616e20635f8201527f757272656e740000000000000000000000000000000000000000000000000000602082015250565b5f61562d602683613da9565b9150615638826155d3565b604082019050919050565b5f6020820190508181035f83015261565a81615621565b9050919050565b7f5072697a6520616d6f756e74206d7573742062652067726561746572207468615f8201527f6e207a65726f0000000000000000000000000000000000000000000000000000602082015250565b5f6156bb602683613da9565b91506156c682615661565b604082019050919050565b5f6020820190508181035f8301526156e8816156af565b9050919050565b7f5072697a6520746f6b656e20616464726573732063616e6e6f74206265207a655f8201527f726f20666f72204552433230207072697a650000000000000000000000000000602082015250565b5f615749603283613da9565b9150615754826156ef565b604082019050919050565b5f6020820190508181035f8301526157768161573d565b9050919050565b7f5072697a6520746f6b656e20686173206e6f20636f6e747261637420636f64655f82015250565b5f6157b1602083613da9565b91506157bc8261577d565b602082019050919050565b5f6020820190508181035f8301526157de816157a5565b9050919050565b7f496e76616c6964204552432d323020746f6b656e3a20746f74616c537570706c5f8201527f792063616c6c206661696c656400000000000000000000000000000000000000602082015250565b5f61583f602d83613da9565b915061584a826157e5565b604082019050919050565b5f6020820190508181035f83015261586c81615833565b9050919050565b7f5072697a6520746f6b656e2061646472657373206d757374206265207a65726f5f8201527f20666f7220455448207072697a65000000000000000000000000000000000000602082015250565b5f6158cd602e83613da9565b91506158d882615873565b604082019050919050565b5f6020820190508181035f8301526158fa816158c1565b9050919050565b7f456e7472792066656520746f6b656e20616464726573732063616e6e6f7420625f8201527f65207a65726f20696620656e7472792066656520616d6f756e7420697320677260208201527f6561746572207468616e207a65726f0000000000000000000000000000000000604082015250565b5f615981604f83613da9565b915061598c82615901565b606082019050919050565b5f6020820190508181035f8301526159ae81615975565b9050919050565b7f456e7472792066656520746f6b656e20686173206e6f20636f6e7472616374205f8201527f636f646500000000000000000000000000000000000000000000000000000000602082015250565b5f615a0f602483613da9565b9150615a1a826159b5565b604082019050919050565b5f6020820190508181035f830152615a3c81615a03565b9050919050565b7f496e76616c6964204552432d323020746f6b656e20666f7220656e74727920665f8201527f65653a20746f74616c537570706c792063616c6c206661696c65640000000000602082015250565b5f615a9d603b83613da9565b9150615aa882615a43565b604082019050919050565b5f6020820190508181035f830152615aca81615a91565b9050919050565b7f456e7472792066656520746f6b656e2061646472657373206d757374206265205f8201527f7a65726f20696620656e7472792066656520616d6f756e74206973207a65726f602082015250565b5f615b2b604083613da9565b9150615b3682615ad1565b604082019050919050565b5f6020820190508181035f830152615b5881615b1f565b9050919050565b7f4d75737420776974686472617720455448207072697a6520706f6f6c206265665f8201527f6f7265206e657720726964646c65000000000000000000000000000000000000602082015250565b5f615bb9602e83613da9565b9150615bc482615b5f565b604082019050919050565b5f6020820190508181035f830152615be681615bad565b9050919050565b7f4d75737420776974686472617720746f6b656e207072697a6520706f6f6c20625f8201527f65666f7265206e657720726964646c6500000000000000000000000000000000602082015250565b5f615c47603083613da9565b9150615c5282615bed565b604082019050919050565b5f6020820190508181035f830152615c7481615c3b565b9050919050565b5f60ff82169050919050565b615c9081615c7b565b82525050565b5f60a082019050615ca95f8301886141e3565b615cb66020830187615c87565b615cc36040830186613f81565b615cd06060830185613eb0565b615cdd6080830184613f81565b9695505050505050565b5f606082019050615cfa5f830186613f81565b615d076020830185613f81565b615d146040830184613eb0565b949350505050565b5f604082019050615d2f5f830185613f81565b615d3c6020830184613eb0565b9392505050565b7f57696e6e657220616464726573732063616e6e6f74206265207a65726f0000005f82015250565b5f615d77601d83613da9565b9150615d8282615d43565b602082019050919050565b5f6020820190508181035f830152615da481615d6b565b9050919050565b7f496e73756666696369656e7420455448207072697a6520706f6f6c2062616c615f8201527f6e63650000000000000000000000000000000000000000000000000000000000602082015250565b5f615e05602383613da9565b9150615e1082615dab565b604082019050919050565b5f6020820190508181035f830152615e3281615df9565b9050919050565b7f496e73756666696369656e7420636f6e7472616374204554482062616c616e635f8201527f6500000000000000000000000000000000000000000000000000000000000000602082015250565b5f615e93602183613da9565b9150615e9e82615e39565b604082019050919050565b5f6020820190508181035f830152615ec081615e87565b9050919050565b7f455448207472616e73666572206661696c6564000000000000000000000000005f82015250565b5f615efb601383613da9565b9150615f0682615ec7565b602082019050919050565b5f6020820190508181035f830152615f2881615eef565b9050919050565b7f496e73756666696369656e74204552433230207072697a6520706f6f6c2062615f8201527f6c616e6365000000000000000000000000000000000000000000000000000000602082015250565b5f615f89602583613da9565b9150615f9482615f2f565b604082019050919050565b5f6020820190508181035f830152615fb681615f7d565b905091905056fea26469706673582212208db957642c02e4450eafff15ff4832d068d04105b9d7dd6b38f3f9def4a7919064736f6c634300081e0033","linkReferences":{}},"methodIdentifiers":{"ENTRY_FEE()":"f6d361cc","MAX_RETRIES()":"46ebbdb0","RETRY_COST()":"57aa0ea2","balances(address)":"27e235e3","committedAt(uint256,address)":"c06a5fc5","committedGuesses(uint256,address)":"b7173e77","currentRiddleId()":"ecdc6c23","deposit()":"d0e30db0","enterGame(uint256)":"43d6582b","entryFeeToken()":"7b149763","ethPrizePool()":"95664a3d","fundTokenPrizePool(uint256)":"48b06e87","getPrizeToken()":"c7cd6959","hasClaimed(uint256,address)":"873f6f9e","hasParticipated(uint256,address)":"a34398a2","hasRevealed(uint256,address)":"16b5551d","isWinner(uint256,address)":"bdd415af","owner()":"8da5cb5b","ownerWithdraw(uint256)":"33f707d1","ownerWithdrawTokens(uint256)":"60972120","playerRetries(uint256,address)":"29c17990","prizeAmount()":"785fa627","prizeToken()":"d0ef024a","prizeType()":"fcdf8e89","purchaseRetry(uint256)":"7a11e941","renounceOwnership()":"715018a6","retryToken()":"219fc385","revealDelay()":"53236d74","revealGuess(uint256,string)":"12b5afc1","revealedGuessHash(uint256,address)":"188240cd","setRevealDelay(uint256)":"a68c25d8","setRiddle(uint256,bytes32,uint8,address,uint256,address)":"f9f82e9c","solveRiddleAndClaim(string)":"dc663b53","submitGuess(uint256,bytes32)":"e4d33ee3","tokenPrizePool()":"c310e242","transferOwnership(address)":"f2fde38b","winners(uint256,uint256)":"0efc8865","withdraw(uint256)":"2e1a7d4d"},"id":2}