{"abi":[{"type":"constructor","inputs":[{"name":"initialOwner","type":"address","internalType":"address"}],"stateMutability":"nonpayable"},{"type":"receive","stateMutability":"payable"},{"type":"function","name":"balances","inputs":[{"name":"","type":"address","internalType":"address"}],"outputs":[{"name":"","type":"uint256","internalType":"uint256"}],"stateMutability":"view"},{"type":"function","name":"currentRiddleId","inputs":[],"outputs":[{"name":"","type":"uint256","internalType":"uint256"}],"stateMutability":"view"},{"type":"function","name":"deposit","inputs":[],"outputs":[],"stateMutability":"payable"},{"type":"function","name":"ethPrizePool","inputs":[],"outputs":[{"name":"","type":"uint256","internalType":"uint256"}],"stateMutability":"view"},{"type":"function","name":"fundTokenPrizePool","inputs":[{"name":"_amount","type":"uint256","internalType":"uint256"}],"outputs":[],"stateMutability":"nonpayable"},{"type":"function","name":"getPrizeToken","inputs":[],"outputs":[{"name":"","type":"address","internalType":"address"}],"stateMutability":"view"},{"type":"function","name":"hasParticipated","inputs":[{"name":"","type":"uint256","internalType":"uint256"},{"name":"","type":"address","internalType":"address"}],"outputs":[{"name":"","type":"bool","internalType":"bool"}],"stateMutability":"view"},{"type":"function","name":"owner","inputs":[],"outputs":[{"name":"","type":"address","internalType":"address"}],"stateMutability":"view"},{"type":"function","name":"ownerWithdraw","inputs":[{"name":"_amount","type":"uint256","internalType":"uint256"}],"outputs":[],"stateMutability":"nonpayable"},{"type":"function","name":"prizeAmount","inputs":[],"outputs":[{"name":"","type":"uint256","internalType":"uint256"}],"stateMutability":"view"},{"type":"function","name":"prizeToken","inputs":[],"outputs":[{"name":"","type":"address","internalType":"contract IERC20"}],"stateMutability":"view"},{"type":"function","name":"prizeType","inputs":[],"outputs":[{"name":"","type":"uint8","internalType":"enum Vaultis.PrizeType"}],"stateMutability":"view"},{"type":"function","name":"renounceOwnership","inputs":[],"outputs":[],"stateMutability":"nonpayable"},{"type":"function","name":"setRiddle","inputs":[{"name":"_riddleId","type":"uint256","internalType":"uint256"},{"name":"_answerHash","type":"bytes32","internalType":"bytes32"},{"name":"_prizeType","type":"uint8","internalType":"enum Vaultis.PrizeType"},{"name":"_prizeTokenAddress","type":"address","internalType":"address"},{"name":"_prizeAmount","type":"uint256","internalType":"uint256"}],"outputs":[],"stateMutability":"nonpayable"},{"type":"function","name":"solveRiddleAndClaim","inputs":[{"name":"_answer","type":"string","internalType":"string"}],"outputs":[],"stateMutability":"nonpayable"},{"type":"function","name":"tokenPrizePool","inputs":[],"outputs":[{"name":"","type":"uint256","internalType":"uint256"}],"stateMutability":"view"},{"type":"function","name":"transferOwnership","inputs":[{"name":"newOwner","type":"address","internalType":"address"}],"outputs":[],"stateMutability":"nonpayable"},{"type":"function","name":"withdraw","inputs":[{"name":"_amount","type":"uint256","internalType":"uint256"}],"outputs":[],"stateMutability":"nonpayable"},{"type":"event","name":"Deposit","inputs":[{"name":"user","type":"address","indexed":true,"internalType":"address"},{"name":"amount","type":"uint256","indexed":false,"internalType":"uint256"}],"anonymous":false},{"type":"event","name":"EthReceived","inputs":[{"name":"sender","type":"address","indexed":true,"internalType":"address"},{"name":"amount","type":"uint256","indexed":false,"internalType":"uint256"}],"anonymous":false},{"type":"event","name":"OwnerWithdrawal","inputs":[{"name":"owner","type":"address","indexed":true,"internalType":"address"},{"name":"amount","type":"uint256","indexed":false,"internalType":"uint256"}],"anonymous":false},{"type":"event","name":"OwnershipTransferred","inputs":[{"name":"previousOwner","type":"address","indexed":true,"internalType":"address"},{"name":"newOwner","type":"address","indexed":true,"internalType":"address"}],"anonymous":false},{"type":"event","name":"PrizeDistributed","inputs":[{"name":"winner","type":"address","indexed":true,"internalType":"address"},{"name":"amount","type":"uint256","indexed":false,"internalType":"uint256"},{"name":"prizeType","type":"uint8","indexed":false,"internalType":"enum Vaultis.PrizeType"}],"anonymous":false},{"type":"event","name":"PrizeFunded","inputs":[{"name":"funder","type":"address","indexed":true,"internalType":"address"},{"name":"amount","type":"uint256","indexed":false,"internalType":"uint256"},{"name":"prizeType","type":"uint8","indexed":false,"internalType":"enum Vaultis.PrizeType"}],"anonymous":false},{"type":"event","name":"RiddleSet","inputs":[{"name":"riddleId","type":"uint256","indexed":true,"internalType":"uint256"},{"name":"answerHash","type":"bytes32","indexed":false,"internalType":"bytes32"},{"name":"prizeType","type":"uint8","indexed":false,"internalType":"enum Vaultis.PrizeType"},{"name":"prizeTokenAddress","type":"address","indexed":false,"internalType":"address"},{"name":"prizeAmount","type":"uint256","indexed":false,"internalType":"uint256"}],"anonymous":false},{"type":"event","name":"Withdrawal","inputs":[{"name":"user","type":"address","indexed":true,"internalType":"address"},{"name":"amount","type":"uint256","indexed":false,"internalType":"uint256"}],"anonymous":false},{"type":"error","name":"OwnableInvalidOwner","inputs":[{"name":"owner","type":"address","internalType":"address"}]},{"type":"error","name":"OwnableUnauthorizedAccount","inputs":[{"name":"account","type":"address","internalType":"address"}]},{"type":"error","name":"ReentrancyGuardReentrantCall","inputs":[]},{"type":"error","name":"SafeERC20FailedOperation","inputs":[{"name":"token","type":"address","internalType":"address"}]}],"bytecode":{"object":"0x608060405234801561000f575f5ffd5b50604051613081380380613081833981810160405281019061003191906101de565b805f73ffffffffffffffffffffffffffffffffffffffff168173ffffffffffffffffffffffffffffffffffffffff16036100a2575f6040517f1e4fbdf70000000000000000000000000000000000000000000000000000000081526004016100999190610218565b60405180910390fd5b6100b1816100bf60201b60201c565b506001808190555050610231565b5f5f5f9054906101000a900473ffffffffffffffffffffffffffffffffffffffff169050815f5f6101000a81548173ffffffffffffffffffffffffffffffffffffffff021916908373ffffffffffffffffffffffffffffffffffffffff1602179055508173ffffffffffffffffffffffffffffffffffffffff168173ffffffffffffffffffffffffffffffffffffffff167f8be0079c531659141344cd1fd0a4f28419497f9722a3daafe3b4186f6b6457e060405160405180910390a35050565b5f5ffd5b5f73ffffffffffffffffffffffffffffffffffffffff82169050919050565b5f6101ad82610184565b9050919050565b6101bd816101a3565b81146101c7575f5ffd5b50565b5f815190506101d8816101b4565b92915050565b5f602082840312156101f3576101f2610180565b5b5f610200848285016101ca565b91505092915050565b610212816101a3565b82525050565b5f60208201905061022b5f830184610209565b92915050565b612e438061023e5f395ff3fe60806040526004361061010c575f3560e01c8063c310e24211610094578063dc663b5311610063578063dc663b53146103cb578063ec8a7ee7146103f3578063ecdc6c231461041b578063f2fde38b14610445578063fcdf8e891461046d576101bb565b8063c310e24214610343578063c7cd69591461036d578063d0e30db014610397578063d0ef024a146103a1576101bb565b8063715018a6116100db578063715018a614610273578063785fa627146102895780638da5cb5b146102b357806395664a3d146102dd578063a34398a214610307576101bb565b806327e235e3146101bf5780632e1a7d4d146101fb57806333f707d11461022357806348b06e871461024b576101bb565b366101bb575f3411610153576040517f08c379a000000000000000000000000000000000000000000000000000000000815260040161014a90611b78565b60405180910390fd5b3460045f8282546101649190611bcc565b925050819055503373ffffffffffffffffffffffffffffffffffffffff167f85177f287940f2f05425a4029951af0e047a7f9c4eaa9a6e6917bcd869f86695346040516101b19190611c0e565b60405180910390a2005b5f5ffd5b3480156101ca575f5ffd5b506101e560048036038101906101e09190611c89565b610497565b6040516101f29190611c0e565b60405180910390f35b348015610206575f5ffd5b50610221600480360381019061021c9190611cde565b6104ac565b005b34801561022e575f5ffd5b5061024960048036038101906102449190611cde565b6106cb565b005b348015610256575f5ffd5b50610271600480360381019061026c9190611cde565b610876565b005b34801561027e575f5ffd5b50610287610a8d565b005b348015610294575f5ffd5b5061029d610aa0565b6040516102aa9190611c0e565b60405180910390f35b3480156102be575f5ffd5b506102c7610aa6565b6040516102d49190611d18565b60405180910390f35b3480156102e8575f5ffd5b506102f1610acd565b6040516102fe9190611c0e565b60405180910390f35b348015610312575f5ffd5b5061032d60048036038101906103289190611d31565b610ad3565b60405161033a9190611d89565b60405180910390f35b34801561034e575f5ffd5b50610357610afd565b6040516103649190611c0e565b60405180910390f35b348015610378575f5ffd5b50610381610b03565b60405161038e9190611d18565b60405180910390f35b61039f610b2b565b005b3480156103ac575f5ffd5b506103b5610d21565b6040516103c29190611dfd565b60405180910390f35b3480156103d6575f5ffd5b506103f160048036038101906103ec9190611e77565b610d46565b005b3480156103fe575f5ffd5b5061041960048036038101906104149190611f18565b610f17565b005b348015610426575f5ffd5b5061042f611306565b60405161043c9190611c0e565b60405180910390f35b348015610450575f5ffd5b5061046b60048036038101906104669190611c89565b61130c565b005b348015610478575f5ffd5b50610481611390565b60405161048e9190612002565b60405180910390f35b6002602052805f5260405f205f915090505481565b6104b46113a2565b5f81116104f6576040517f08c379a00000000000000000000000000000000000000000000000000000000081526004016104ed9061208b565b60405180910390fd5b8060025f3373ffffffffffffffffffffffffffffffffffffffff1673ffffffffffffffffffffffffffffffffffffffff1681526020019081526020015f20541015610576576040517f08c379a000000000000000000000000000000000000000000000000000000000815260040161056d906120f3565b60405180910390fd5b8060025f3373ffffffffffffffffffffffffffffffffffffffff1673ffffffffffffffffffffffffffffffffffffffff1681526020019081526020015f205f8282546105c29190612111565b925050819055505f3373ffffffffffffffffffffffffffffffffffffffff16826040516105ee90612171565b5f6040518083038185875af1925050503d805f8114610628576040519150601f19603f3d011682016040523d82523d5f602084013e61062d565b606091505b5050905080610671576040517f08c379a0000000000000000000000000000000000000000000000000000000008152600401610668906121cf565b60405180910390fd5b3373ffffffffffffffffffffffffffffffffffffffff167f7fcf532c15f0a6db0bd6d0e038bea71d30d808c7d98cb3bf7268a95bf5081b65836040516106b79190611c0e565b60405180910390a2506106c86113e8565b50565b6106d36113f1565b6106db6113a2565b5f811161071d576040517f08c379a00000000000000000000000000000000000000000000000000000000081526004016107149061225d565b60405180910390fd5b80471015610760576040517f08c379a0000000000000000000000000000000000000000000000000000000008152600401610757906122c5565b60405180910390fd5b5f610769610aa6565b73ffffffffffffffffffffffffffffffffffffffff168262030d409060405161079190612171565b5f60405180830381858888f193505050503d805f81146107cc576040519150601f19603f3d011682016040523d82523d5f602084013e6107d1565b606091505b5050905080610815576040517f08c379a000000000000000000000000000000000000000000000000000000000815260040161080c9061232d565b60405180910390fd5b61081d610aa6565b73ffffffffffffffffffffffffffffffffffffffff167fa919fadcfa556a012bab31b15f596ea7ccd397adbf10e15f176db9055ab361c4836040516108629190611c0e565b60405180910390a2506108736113e8565b50565b61087e6113f1565b6108866113a2565b5f81116108c8576040517f08c379a00000000000000000000000000000000000000000000000000000000081526004016108bf90612395565b60405180910390fd5b6001808111156108db576108da611f8f565b5b60085f9054906101000a900460ff1660018111156108fc576108fb611f8f565b5b1461093c576040517f08c379a000000000000000000000000000000000000000000000000000000000815260040161093390612423565b60405180910390fd5b5f73ffffffffffffffffffffffffffffffffffffffff1660055f9054906101000a900473ffffffffffffffffffffffffffffffffffffffff1673ffffffffffffffffffffffffffffffffffffffff16036109cb576040517f08c379a00000000000000000000000000000000000000000000000000000000081526004016109c29061248b565b60405180910390fd5b610a1933308360055f9054906101000a900473ffffffffffffffffffffffffffffffffffffffff1673ffffffffffffffffffffffffffffffffffffffff16611478909392919063ffffffff16565b8060065f828254610a2a9190611bcc565b925050819055503373ffffffffffffffffffffffffffffffffffffffff167f4708e702157b1eb6cd00a772e6a623599ac7dc0bad76e8c624fdef050b434f09826001604051610a7a9291906124a9565b60405180910390a2610a8a6113e8565b50565b610a956113f1565b610a9e5f6114fa565b565b60075481565b5f5f5f9054906101000a900473ffffffffffffffffffffffffffffffffffffffff16905090565b60045481565b6009602052815f5260405f20602052805f5260405f205f915091509054906101000a900460ff1681565b60065481565b5f60055f9054906101000a900473ffffffffffffffffffffffffffffffffffffffff16905090565b610b336113a2565b5f3411610b75576040517f08c379a0000000000000000000000000000000000000000000000000000000008152600401610b6c90612540565b60405180910390fd5b60095f60035481526020019081526020015f205f3373ffffffffffffffffffffffffffffffffffffffff1673ffffffffffffffffffffffffffffffffffffffff1681526020019081526020015f205f9054906101000a900460ff1615610c10576040517f08c379a0000000000000000000000000000000000000000000000000000000008152600401610c07906125ce565b60405180910390fd5b3460025f3373ffffffffffffffffffffffffffffffffffffffff1673ffffffffffffffffffffffffffffffffffffffff1681526020019081526020015f205f828254610c5c9190611bcc565b92505081905550600160095f60035481526020019081526020015f205f3373ffffffffffffffffffffffffffffffffffffffff1673ffffffffffffffffffffffffffffffffffffffff1681526020019081526020015f205f6101000a81548160ff0219169083151502179055503373ffffffffffffffffffffffffffffffffffffffff167fe1fffcc4923d04b559f4d29a8bfc6cda04eb5b0d3c460751c2402c5c5cc9109c34604051610d0f9190611c0e565b60405180910390a2610d1f6113e8565b565b60055f9054906101000a900473ffffffffffffffffffffffffffffffffffffffff1681565b610d4e6113a2565b5f60035411610d92576040517f08c379a0000000000000000000000000000000000000000000000000000000008152600401610d8990612636565b60405180910390fd5b60095f60035481526020019081526020015f205f3373ffffffffffffffffffffffffffffffffffffffff1673ffffffffffffffffffffffffffffffffffffffff1681526020019081526020015f205f9054906101000a900460ff1615610e2d576040517f08c379a0000000000000000000000000000000000000000000000000000000008152600401610e24906125ce565b60405180910390fd5b600a548282604051602001610e43929190612690565b6040516020818303038152906040528051906020012014610e99576040517f08c379a0000000000000000000000000000000000000000000000000000000008152600401610e90906126f2565b60405180910390fd5b600160095f60035481526020019081526020015f205f3373ffffffffffffffffffffffffffffffffffffffff1673ffffffffffffffffffffffffffffffffffffffff1681526020019081526020015f205f6101000a81548160ff021916908315150217905550610f0b336007546115bb565b610f136113e8565b5050565b610f1f6113f1565b5f8511610f61576040517f08c379a0000000000000000000000000000000000000000000000000000000008152600401610f589061275a565b60405180910390fd5b6003548511610fa5576040517f08c379a0000000000000000000000000000000000000000000000000000000008152600401610f9c906127e8565b60405180910390fd5b5f8111610fe7576040517f08c379a0000000000000000000000000000000000000000000000000000000008152600401610fde90612876565b60405180910390fd5b600180811115610ffa57610ff9611f8f565b5b83600181111561100d5761100c611f8f565b5b036111c6575f73ffffffffffffffffffffffffffffffffffffffff168273ffffffffffffffffffffffffffffffffffffffff1603611080576040517f08c379a000000000000000000000000000000000000000000000000000000000815260040161107790612904565b60405180910390fd5b5f8273ffffffffffffffffffffffffffffffffffffffff163b116110d9576040517f08c379a00000000000000000000000000000000000000000000000000000000081526004016110d09061296c565b60405180910390fd5b8173ffffffffffffffffffffffffffffffffffffffff166318160ddd6040518163ffffffff1660e01b8152600401602060405180830381865afa92505050801561114157506040513d601f19601f8201168201806040525081019061113e919061299e565b60015b611180576040517f08c379a000000000000000000000000000000000000000000000000000000000815260040161117790612a39565b60405180910390fd5b508160055f6101000a81548173ffffffffffffffffffffffffffffffffffffffff021916908373ffffffffffffffffffffffffffffffffffffffff160217905550611275565b5f73ffffffffffffffffffffffffffffffffffffffff168273ffffffffffffffffffffffffffffffffffffffff1614611234576040517f08c379a000000000000000000000000000000000000000000000000000000000815260040161122b90612ac7565b60405180910390fd5b5f60055f6101000a81548173ffffffffffffffffffffffffffffffffffffffff021916908373ffffffffffffffffffffffffffffffffffffffff1602179055505b8460038190555083600a819055508260085f6101000a81548160ff021916908360018111156112a7576112a6611f8f565b5b0217905550806007819055505f6004819055505f600681905550847f561736c7b0f78dbf7fff40b2f20427c4c56eb12ae7e94a8dac6a3a7925ae37fd858585856040516112f79493929190612af4565b60405180910390a25050505050565b60035481565b6113146113f1565b5f73ffffffffffffffffffffffffffffffffffffffff168173ffffffffffffffffffffffffffffffffffffffff1603611384575f6040517f1e4fbdf700000000000000000000000000000000000000000000000000000000815260040161137b9190611d18565b60405180910390fd5b61138d816114fa565b50565b60085f9054906101000a900460ff1681565b6002600154036113de576040517f3ee5aeb500000000000000000000000000000000000000000000000000000000815260040160405180910390fd5b6002600181905550565b60018081905550565b6113f96119d7565b73ffffffffffffffffffffffffffffffffffffffff16611417610aa6565b73ffffffffffffffffffffffffffffffffffffffff16146114765761143a6119d7565b6040517f118cdaa700000000000000000000000000000000000000000000000000000000815260040161146d9190611d18565b60405180910390fd5b565b6114f4848573ffffffffffffffffffffffffffffffffffffffff166323b872dd8686866040516024016114ad93929190612b37565b604051602081830303815290604052915060e01b6020820180517bffffffffffffffffffffffffffffffffffffffffffffffffffffffff83818316178352505050506119de565b50505050565b5f5f5f9054906101000a900473ffffffffffffffffffffffffffffffffffffffff169050815f5f6101000a81548173ffffffffffffffffffffffffffffffffffffffff021916908373ffffffffffffffffffffffffffffffffffffffff1602179055508173ffffffffffffffffffffffffffffffffffffffff168173ffffffffffffffffffffffffffffffffffffffff167f8be0079c531659141344cd1fd0a4f28419497f9722a3daafe3b4186f6b6457e060405160405180910390a35050565b6115c36113a2565b5f73ffffffffffffffffffffffffffffffffffffffff168273ffffffffffffffffffffffffffffffffffffffff1603611631576040517f08c379a000000000000000000000000000000000000000000000000000000000815260040161162890612bb6565b60405180910390fd5b5f8111611673576040517f08c379a000000000000000000000000000000000000000000000000000000000815260040161166a90612876565b60405180910390fd5b5f600181111561168657611685611f8f565b5b60085f9054906101000a900460ff1660018111156116a7576116a6611f8f565b5b036117fa578060045410156116f1576040517f08c379a00000000000000000000000000000000000000000000000000000000081526004016116e890612c44565b60405180910390fd5b80471015611734576040517f08c379a000000000000000000000000000000000000000000000000000000000815260040161172b90612cd2565b60405180910390fd5b8060045f8282546117459190612111565b925050819055505f8273ffffffffffffffffffffffffffffffffffffffff168260405161177190612171565b5f6040518083038185875af1925050503d805f81146117ab576040519150601f19603f3d011682016040523d82523d5f602084013e6117b0565b606091505b50509050806117f4576040517f08c379a00000000000000000000000000000000000000000000000000000000081526004016117eb90612d3a565b60405180910390fd5b5061196d565b60018081111561180d5761180c611f8f565b5b60085f9054906101000a900460ff16600181111561182e5761182d611f8f565b5b0361196c575f73ffffffffffffffffffffffffffffffffffffffff1660055f9054906101000a900473ffffffffffffffffffffffffffffffffffffffff1673ffffffffffffffffffffffffffffffffffffffff16036118c2576040517f08c379a00000000000000000000000000000000000000000000000000000000081526004016118b99061248b565b60405180910390fd5b806006541015611907576040517f08c379a00000000000000000000000000000000000000000000000000000000081526004016118fe90612dc8565b60405180910390fd5b8060065f8282546119189190612111565b9250508190555061196b828260055f9054906101000a900473ffffffffffffffffffffffffffffffffffffffff1673ffffffffffffffffffffffffffffffffffffffff16611a799092919063ffffffff16565b5b5b8173ffffffffffffffffffffffffffffffffffffffff167fff43c2705b2225c1c9d9d58f088ab64d4fc767737dee523bed37f15fb0c6c3de8260085f9054906101000a900460ff166040516119c39291906124a9565b60405180910390a26119d36113e8565b5050565b5f33905090565b5f5f60205f8451602086015f885af1806119fd576040513d5f823e3d81fd5b3d92505f519150505f8214611a16576001811415611a31565b5f8473ffffffffffffffffffffffffffffffffffffffff163b145b15611a7357836040517f5274afe7000000000000000000000000000000000000000000000000000000008152600401611a6a9190611d18565b60405180910390fd5b50505050565b611af3838473ffffffffffffffffffffffffffffffffffffffff1663a9059cbb8585604051602401611aac929190612de6565b604051602081830303815290604052915060e01b6020820180517bffffffffffffffffffffffffffffffffffffffffffffffffffffffff83818316178352505050506119de565b505050565b5f82825260208201905092915050565b7f45544820616d6f756e74206d7573742062652067726561746572207468616e205f8201527f7a65726f00000000000000000000000000000000000000000000000000000000602082015250565b5f611b62602483611af8565b9150611b6d82611b08565b604082019050919050565b5f6020820190508181035f830152611b8f81611b56565b9050919050565b5f819050919050565b7f4e487b71000000000000000000000000000000000000000000000000000000005f52601160045260245ffd5b5f611bd682611b96565b9150611be183611b96565b9250828201905080821115611bf957611bf8611b9f565b5b92915050565b611c0881611b96565b82525050565b5f602082019050611c215f830184611bff565b92915050565b5f5ffd5b5f5ffd5b5f73ffffffffffffffffffffffffffffffffffffffff82169050919050565b5f611c5882611c2f565b9050919050565b611c6881611c4e565b8114611c72575f5ffd5b50565b5f81359050611c8381611c5f565b92915050565b5f60208284031215611c9e57611c9d611c27565b5b5f611cab84828501611c75565b91505092915050565b611cbd81611b96565b8114611cc7575f5ffd5b50565b5f81359050611cd881611cb4565b92915050565b5f60208284031215611cf357611cf2611c27565b5b5f611d0084828501611cca565b91505092915050565b611d1281611c4e565b82525050565b5f602082019050611d2b5f830184611d09565b92915050565b5f5f60408385031215611d4757611d46611c27565b5b5f611d5485828601611cca565b9250506020611d6585828601611c75565b9150509250929050565b5f8115159050919050565b611d8381611d6f565b82525050565b5f602082019050611d9c5f830184611d7a565b92915050565b5f819050919050565b5f611dc5611dc0611dbb84611c2f565b611da2565b611c2f565b9050919050565b5f611dd682611dab565b9050919050565b5f611de782611dcc565b9050919050565b611df781611ddd565b82525050565b5f602082019050611e105f830184611dee565b92915050565b5f5ffd5b5f5ffd5b5f5ffd5b5f5f83601f840112611e3757611e36611e16565b5b8235905067ffffffffffffffff811115611e5457611e53611e1a565b5b602083019150836001820283011115611e7057611e6f611e1e565b5b9250929050565b5f5f60208385031215611e8d57611e8c611c27565b5b5f83013567ffffffffffffffff811115611eaa57611ea9611c2b565b5b611eb685828601611e22565b92509250509250929050565b5f819050919050565b611ed481611ec2565b8114611ede575f5ffd5b50565b5f81359050611eef81611ecb565b92915050565b60028110611f01575f5ffd5b50565b5f81359050611f1281611ef5565b92915050565b5f5f5f5f5f60a08688031215611f3157611f30611c27565b5b5f611f3e88828901611cca565b9550506020611f4f88828901611ee1565b9450506040611f6088828901611f04565b9350506060611f7188828901611c75565b9250506080611f8288828901611cca565b9150509295509295909350565b7f4e487b71000000000000000000000000000000000000000000000000000000005f52602160045260245ffd5b60028110611fcd57611fcc611f8f565b5b50565b5f819050611fdd82611fbc565b919050565b5f611fec82611fd0565b9050919050565b611ffc81611fe2565b82525050565b5f6020820190506120155f830184611ff3565b92915050565b7f5769746864726177616c20616d6f756e74206d757374206265206772656174655f8201527f72207468616e207a65726f000000000000000000000000000000000000000000602082015250565b5f612075602b83611af8565b91506120808261201b565b604082019050919050565b5f6020820190508181035f8301526120a281612069565b9050919050565b7f496e73756666696369656e742062616c616e63650000000000000000000000005f82015250565b5f6120dd601483611af8565b91506120e8826120a9565b602082019050919050565b5f6020820190508181035f83015261210a816120d1565b9050919050565b5f61211b82611b96565b915061212683611b96565b925082820390508181111561213e5761213d611b9f565b5b92915050565b5f81905092915050565b50565b5f61215c5f83612144565b91506121678261214e565b5f82019050919050565b5f61217b82612151565b9150819050919050565b7f5769746864726177616c206661696c65640000000000000000000000000000005f82015250565b5f6121b9601183611af8565b91506121c482612185565b602082019050919050565b5f6020820190508181035f8301526121e6816121ad565b9050919050565b7f4f776e6572207769746864726177616c20616d6f756e74206d757374206265205f8201527f67726561746572207468616e207a65726f000000000000000000000000000000602082015250565b5f612247603183611af8565b9150612252826121ed565b604082019050919050565b5f6020820190508181035f8301526122748161223b565b9050919050565b7f496e73756666696369656e7420636f6e74726163742062616c616e63650000005f82015250565b5f6122af601d83611af8565b91506122ba8261227b565b602082019050919050565b5f6020820190508181035f8301526122dc816122a3565b9050919050565b7f4f776e6572207769746864726177616c206661696c65640000000000000000005f82015250565b5f612317601783611af8565b9150612322826122e3565b602082019050919050565b5f6020820190508181035f8301526123448161230b565b9050919050565b7f416d6f756e74206d7573742062652067726561746572207468616e207a65726f5f82015250565b5f61237f602083611af8565b915061238a8261234b565b602082019050919050565b5f6020820190508181035f8301526123ac81612373565b9050919050565b7f43757272656e7420726964646c65207072697a65206973206e6f7420455243325f8201527f3000000000000000000000000000000000000000000000000000000000000000602082015250565b5f61240d602183611af8565b9150612418826123b3565b604082019050919050565b5f6020820190508181035f83015261243a81612401565b9050919050565b7f5072697a6520746f6b656e206e6f7420736574000000000000000000000000005f82015250565b5f612475601383611af8565b915061248082612441565b602082019050919050565b5f6020820190508181035f8301526124a281612469565b9050919050565b5f6040820190506124bc5f830185611bff565b6124c96020830184611ff3565b9392505050565b7f4465706f73697420616d6f756e74206d757374206265206772656174657220745f8201527f68616e207a65726f000000000000000000000000000000000000000000000000602082015250565b5f61252a602883611af8565b9150612535826124d0565b604082019050919050565b5f6020820190508181035f8301526125578161251e565b9050919050565b7f416c72656164792070617274696369706174656420696e2074686973207269645f8201527f646c650000000000000000000000000000000000000000000000000000000000602082015250565b5f6125b8602383611af8565b91506125c38261255e565b604082019050919050565b5f6020820190508181035f8301526125e5816125ac565b9050919050565b7f4e6f2061637469766520726964646c65000000000000000000000000000000005f82015250565b5f612620601083611af8565b915061262b826125ec565b602082019050919050565b5f6020820190508181035f83015261264d81612614565b9050919050565b5f81905092915050565b828183375f83830152505050565b5f6126778385612654565b935061268483858461265e565b82840190509392505050565b5f61269c82848661266c565b91508190509392505050565b7f496e636f727265637420616e73776572000000000000000000000000000000005f82015250565b5f6126dc601083611af8565b91506126e7826126a8565b602082019050919050565b5f6020820190508181035f830152612709816126d0565b9050919050565b7f526964646c652049442063616e6e6f74206265207a65726f00000000000000005f82015250565b5f612744601883611af8565b915061274f82612710565b602082019050919050565b5f6020820190508181035f83015261277181612738565b9050919050565b7f526964646c65204944206d7573742062652067726561746572207468616e20635f8201527f757272656e740000000000000000000000000000000000000000000000000000602082015250565b5f6127d2602683611af8565b91506127dd82612778565b604082019050919050565b5f6020820190508181035f8301526127ff816127c6565b9050919050565b7f5072697a6520616d6f756e74206d7573742062652067726561746572207468615f8201527f6e207a65726f0000000000000000000000000000000000000000000000000000602082015250565b5f612860602683611af8565b915061286b82612806565b604082019050919050565b5f6020820190508181035f83015261288d81612854565b9050919050565b7f5072697a6520746f6b656e20616464726573732063616e6e6f74206265207a655f8201527f726f20666f72204552433230207072697a650000000000000000000000000000602082015250565b5f6128ee603283611af8565b91506128f982612894565b604082019050919050565b5f6020820190508181035f83015261291b816128e2565b9050919050565b7f5072697a6520746f6b656e20686173206e6f20636f6e747261637420636f64655f82015250565b5f612956602083611af8565b915061296182612922565b602082019050919050565b5f6020820190508181035f8301526129838161294a565b9050919050565b5f8151905061299881611cb4565b92915050565b5f602082840312156129b3576129b2611c27565b5b5f6129c08482850161298a565b91505092915050565b7f496e76616c6964204552432d323020746f6b656e3a20746f74616c537570706c5f8201527f792063616c6c206661696c656400000000000000000000000000000000000000602082015250565b5f612a23602d83611af8565b9150612a2e826129c9565b604082019050919050565b5f6020820190508181035f830152612a5081612a17565b9050919050565b7f5072697a6520746f6b656e2061646472657373206d757374206265207a65726f5f8201527f20666f7220455448207072697a65000000000000000000000000000000000000602082015250565b5f612ab1602e83611af8565b9150612abc82612a57565b604082019050919050565b5f6020820190508181035f830152612ade81612aa5565b9050919050565b612aee81611ec2565b82525050565b5f608082019050612b075f830187612ae5565b612b146020830186611ff3565b612b216040830185611d09565b612b2e6060830184611bff565b95945050505050565b5f606082019050612b4a5f830186611d09565b612b576020830185611d09565b612b646040830184611bff565b949350505050565b7f57696e6e657220616464726573732063616e6e6f74206265207a65726f0000005f82015250565b5f612ba0601d83611af8565b9150612bab82612b6c565b602082019050919050565b5f6020820190508181035f830152612bcd81612b94565b9050919050565b7f496e73756666696369656e7420455448207072697a6520706f6f6c2062616c615f8201527f6e63650000000000000000000000000000000000000000000000000000000000602082015250565b5f612c2e602383611af8565b9150612c3982612bd4565b604082019050919050565b5f6020820190508181035f830152612c5b81612c22565b9050919050565b7f496e73756666696369656e7420636f6e7472616374204554482062616c616e635f8201527f6500000000000000000000000000000000000000000000000000000000000000602082015250565b5f612cbc602183611af8565b9150612cc782612c62565b604082019050919050565b5f6020820190508181035f830152612ce981612cb0565b9050919050565b7f455448207472616e73666572206661696c6564000000000000000000000000005f82015250565b5f612d24601383611af8565b9150612d2f82612cf0565b602082019050919050565b5f6020820190508181035f830152612d5181612d18565b9050919050565b7f496e73756666696369656e74204552433230207072697a6520706f6f6c2062615f8201527f6c616e6365000000000000000000000000000000000000000000000000000000602082015250565b5f612db2602583611af8565b9150612dbd82612d58565b604082019050919050565b5f6020820190508181035f830152612ddf81612da6565b9050919050565b5f604082019050612df95f830185611d09565b612e066020830184611bff565b939250505056fea2646970667358221220fcf19d821c11ca4634de361fb05d013585761ec765c2438a2b087f2c58f156fa64736f6c634300081e0033","linkReferences":{}},"methodIdentifiers":{"balances(address)":"27e235e3","currentRiddleId()":"ecdc6c23","deposit()":"d0e30db0","ethPrizePool()":"95664a3d","fundTokenPrizePool(uint256)":"48b06e87","getPrizeToken()":"c7cd6959","hasParticipated(uint256,address)":"a34398a2","owner()":"8da5cb5b","ownerWithdraw(uint256)":"33f707d1","prizeAmount()":"785fa627","prizeToken()":"d0ef024a","prizeType()":"fcdf8e89","renounceOwnership()":"715018a6","setRiddle(uint256,bytes32,uint8,address,uint256)":"ec8a7ee7","solveRiddleAndClaim(string)":"dc663b53","tokenPrizePool()":"c310e242","transferOwnership(address)":"f2fde38b","withdraw(uint256)":"2e1a7d4d"},"id":1}