{"abi":[{"type":"constructor","inputs":[{"name":"initialOwner","type":"address","internalType":"address"}],"stateMutability":"nonpayable"},{"type":"receive","stateMutability":"payable"},{"type":"function","name":"ENTRY_FEE","inputs":[],"outputs":[{"name":"","type":"uint256","internalType":"uint256"}],"stateMutability":"view"},{"type":"function","name":"balances","inputs":[{"name":"","type":"address","internalType":"address"}],"outputs":[{"name":"","type":"uint256","internalType":"uint256"}],"stateMutability":"view"},{"type":"function","name":"currentRiddleId","inputs":[],"outputs":[{"name":"","type":"uint256","internalType":"uint256"}],"stateMutability":"view"},{"type":"function","name":"deposit","inputs":[],"outputs":[],"stateMutability":"payable"},{"type":"function","name":"enterGame","inputs":[{"name":"_riddleId","type":"uint256","internalType":"uint256"}],"outputs":[],"stateMutability":"nonpayable"},{"type":"function","name":"entryFeeToken","inputs":[],"outputs":[{"name":"","type":"address","internalType":"contract IERC20"}],"stateMutability":"view"},{"type":"function","name":"ethPrizePool","inputs":[],"outputs":[{"name":"","type":"uint256","internalType":"uint256"}],"stateMutability":"view"},{"type":"function","name":"fundTokenPrizePool","inputs":[{"name":"_amount","type":"uint256","internalType":"uint256"}],"outputs":[],"stateMutability":"nonpayable"},{"type":"function","name":"getPrizeToken","inputs":[],"outputs":[{"name":"","type":"address","internalType":"address"}],"stateMutability":"view"},{"type":"function","name":"hasClaimed","inputs":[{"name":"","type":"uint256","internalType":"uint256"},{"name":"","type":"address","internalType":"address"}],"outputs":[{"name":"","type":"bool","internalType":"bool"}],"stateMutability":"view"},{"type":"function","name":"hasParticipated","inputs":[{"name":"","type":"uint256","internalType":"uint256"},{"name":"","type":"address","internalType":"address"}],"outputs":[{"name":"","type":"bool","internalType":"bool"}],"stateMutability":"view"},{"type":"function","name":"owner","inputs":[],"outputs":[{"name":"","type":"address","internalType":"address"}],"stateMutability":"view"},{"type":"function","name":"ownerWithdraw","inputs":[{"name":"_amount","type":"uint256","internalType":"uint256"}],"outputs":[],"stateMutability":"nonpayable"},{"type":"function","name":"prizeAmount","inputs":[],"outputs":[{"name":"","type":"uint256","internalType":"uint256"}],"stateMutability":"view"},{"type":"function","name":"prizeToken","inputs":[],"outputs":[{"name":"","type":"address","internalType":"contract IERC20"}],"stateMutability":"view"},{"type":"function","name":"prizeType","inputs":[],"outputs":[{"name":"","type":"uint8","internalType":"enum Vaultis.PrizeType"}],"stateMutability":"view"},{"type":"function","name":"renounceOwnership","inputs":[],"outputs":[],"stateMutability":"nonpayable"},{"type":"function","name":"setRiddle","inputs":[{"name":"_riddleId","type":"uint256","internalType":"uint256"},{"name":"_answerHash","type":"bytes32","internalType":"bytes32"},{"name":"_prizeType","type":"uint8","internalType":"enum Vaultis.PrizeType"},{"name":"_prizeTokenAddress","type":"address","internalType":"address"},{"name":"_prizeAmount","type":"uint256","internalType":"uint256"},{"name":"_entryFeeTokenAddress","type":"address","internalType":"address"}],"outputs":[],"stateMutability":"nonpayable"},{"type":"function","name":"solveRiddleAndClaim","inputs":[{"name":"_answer","type":"string","internalType":"string"}],"outputs":[],"stateMutability":"nonpayable"},{"type":"function","name":"tokenPrizePool","inputs":[],"outputs":[{"name":"","type":"uint256","internalType":"uint256"}],"stateMutability":"view"},{"type":"function","name":"transferOwnership","inputs":[{"name":"newOwner","type":"address","internalType":"address"}],"outputs":[],"stateMutability":"nonpayable"},{"type":"function","name":"withdraw","inputs":[{"name":"_amount","type":"uint256","internalType":"uint256"}],"outputs":[],"stateMutability":"nonpayable"},{"type":"event","name":"Deposit","inputs":[{"name":"user","type":"address","indexed":true,"internalType":"address"},{"name":"amount","type":"uint256","indexed":false,"internalType":"uint256"}],"anonymous":false},{"type":"event","name":"EntryFeeCollected","inputs":[{"name":"player","type":"address","indexed":true,"internalType":"address"},{"name":"token","type":"address","indexed":true,"internalType":"address"},{"name":"amount","type":"uint256","indexed":false,"internalType":"uint256"},{"name":"riddleId","type":"uint256","indexed":true,"internalType":"uint256"}],"anonymous":false},{"type":"event","name":"EthReceived","inputs":[{"name":"sender","type":"address","indexed":true,"internalType":"address"},{"name":"amount","type":"uint256","indexed":false,"internalType":"uint256"}],"anonymous":false},{"type":"event","name":"OwnerWithdrawal","inputs":[{"name":"owner","type":"address","indexed":true,"internalType":"address"},{"name":"amount","type":"uint256","indexed":false,"internalType":"uint256"}],"anonymous":false},{"type":"event","name":"OwnershipTransferred","inputs":[{"name":"previousOwner","type":"address","indexed":true,"internalType":"address"},{"name":"newOwner","type":"address","indexed":true,"internalType":"address"}],"anonymous":false},{"type":"event","name":"PlayerEntered","inputs":[{"name":"player","type":"address","indexed":true,"internalType":"address"},{"name":"riddleId","type":"uint256","indexed":true,"internalType":"uint256"}],"anonymous":false},{"type":"event","name":"PrizeDistributed","inputs":[{"name":"winner","type":"address","indexed":true,"internalType":"address"},{"name":"amount","type":"uint256","indexed":false,"internalType":"uint256"},{"name":"prizeType","type":"uint8","indexed":false,"internalType":"enum Vaultis.PrizeType"}],"anonymous":false},{"type":"event","name":"PrizeFunded","inputs":[{"name":"funder","type":"address","indexed":true,"internalType":"address"},{"name":"amount","type":"uint256","indexed":false,"internalType":"uint256"},{"name":"prizeType","type":"uint8","indexed":false,"internalType":"enum Vaultis.PrizeType"}],"anonymous":false},{"type":"event","name":"RiddleInitialized","inputs":[{"name":"riddleId","type":"uint256","indexed":true,"internalType":"uint256"},{"name":"answerHash","type":"bytes32","indexed":false,"internalType":"bytes32"},{"name":"prizeType","type":"uint8","indexed":false,"internalType":"uint8"},{"name":"prizeTokenAddress","type":"address","indexed":false,"internalType":"address"},{"name":"prizeAmount","type":"uint256","indexed":false,"internalType":"uint256"},{"name":"entryFeeTokenAddress","type":"address","indexed":false,"internalType":"address"}],"anonymous":false},{"type":"event","name":"Withdrawal","inputs":[{"name":"user","type":"address","indexed":true,"internalType":"address"},{"name":"amount","type":"uint256","indexed":false,"internalType":"uint256"}],"anonymous":false},{"type":"error","name":"OwnableInvalidOwner","inputs":[{"name":"owner","type":"address","internalType":"address"}]},{"type":"error","name":"OwnableUnauthorizedAccount","inputs":[{"name":"account","type":"address","internalType":"address"}]},{"type":"error","name":"ReentrancyGuardReentrantCall","inputs":[]},{"type":"error","name":"SafeERC20FailedOperation","inputs":[{"name":"token","type":"address","internalType":"address"}]}],"bytecode":{"object":"0x608060405234801561000f575f5ffd5b50604051613ebc380380613ebc8339818101604052810190610031919061021e565b805f73ffffffffffffffffffffffffffffffffffffffff168173ffffffffffffffffffffffffffffffffffffffff16036100a2575f6040517f1e4fbdf70000000000000000000000000000000000000000000000000000000081526004016100999190610258565b60405180910390fd5b6100b1816100ff60201b60201c565b50600180819055505f60085f6101000a81548173ffffffffffffffffffffffffffffffffffffffff021916908373ffffffffffffffffffffffffffffffffffffffff16021790555050610271565b5f5f5f9054906101000a900473ffffffffffffffffffffffffffffffffffffffff169050815f5f6101000a81548173ffffffffffffffffffffffffffffffffffffffff021916908373ffffffffffffffffffffffffffffffffffffffff1602179055508173ffffffffffffffffffffffffffffffffffffffff168173ffffffffffffffffffffffffffffffffffffffff167f8be0079c531659141344cd1fd0a4f28419497f9722a3daafe3b4186f6b6457e060405160405180910390a35050565b5f5ffd5b5f73ffffffffffffffffffffffffffffffffffffffff82169050919050565b5f6101ed826101c4565b9050919050565b6101fd816101e3565b8114610207575f5ffd5b50565b5f81519050610218816101f4565b92915050565b5f60208284031215610233576102326101c0565b5b5f6102408482850161020a565b91505092915050565b610252816101e3565b82525050565b5f60208201905061026b5f830184610249565b92915050565b613c3e8061027e5f395ff3fe608060405260043610610138575f3560e01c8063a34398a2116100aa578063dc663b531161006e578063dc663b5314610485578063ecdc6c23146104ad578063f2fde38b146104d7578063f6d361cc146104ff578063f9f82e9c14610529578063fcdf8e8914610551576101e7565b8063a34398a2146103c1578063c310e242146103fd578063c7cd695914610427578063d0e30db014610451578063d0ef024a1461045b576101e7565b8063715018a6116100fc578063715018a6146102c7578063785fa627146102dd5780637b14976314610307578063873f6f9e146103315780638da5cb5b1461036d57806395664a3d14610397576101e7565b806327e235e3146101eb5780632e1a7d4d1461022757806333f707d11461024f57806343d6582b1461027757806348b06e871461029f576101e7565b366101e7575f341161017f576040517f08c379a00000000000000000000000000000000000000000000000000000000081526004016101769061241e565b60405180910390fd5b3460045f8282546101909190612472565b925050819055503373ffffffffffffffffffffffffffffffffffffffff167f85177f287940f2f05425a4029951af0e047a7f9c4eaa9a6e6917bcd869f86695346040516101dd91906124b4565b60405180910390a2005b5f5ffd5b3480156101f6575f5ffd5b50610211600480360381019061020c919061252f565b61057b565b60405161021e91906124b4565b60405180910390f35b348015610232575f5ffd5b5061024d60048036038101906102489190612584565b610590565b005b34801561025a575f5ffd5b5061027560048036038101906102709190612584565b6107af565b005b348015610282575f5ffd5b5061029d60048036038101906102989190612584565b610974565b005b3480156102aa575f5ffd5b506102c560048036038101906102c09190612584565b610eaa565b005b3480156102d2575f5ffd5b506102db6110c2565b005b3480156102e8575f5ffd5b506102f16110d5565b6040516102fe91906124b4565b60405180910390f35b348015610312575f5ffd5b5061031b6110db565b604051610328919061260a565b60405180910390f35b34801561033c575f5ffd5b5061035760048036038101906103529190612623565b611100565b604051610364919061267b565b60405180910390f35b348015610378575f5ffd5b5061038161112a565b60405161038e91906126a3565b60405180910390f35b3480156103a2575f5ffd5b506103ab611151565b6040516103b891906124b4565b60405180910390f35b3480156103cc575f5ffd5b506103e760048036038101906103e29190612623565b611157565b6040516103f4919061267b565b60405180910390f35b348015610408575f5ffd5b50610411611181565b60405161041e91906124b4565b60405180910390f35b348015610432575f5ffd5b5061043b611187565b60405161044891906126a3565b60405180910390f35b6104596111af565b005b348015610466575f5ffd5b5061046f6112a4565b60405161047c919061260a565b60405180910390f35b348015610490575f5ffd5b506104ab60048036038101906104a6919061271d565b6112c9565b005b3480156104b8575f5ffd5b506104c1611534565b6040516104ce91906124b4565b60405180910390f35b3480156104e2575f5ffd5b506104fd60048036038101906104f8919061252f565b61153a565b005b34801561050a575f5ffd5b506105136115be565b60405161052091906124b4565b60405180910390f35b348015610534575f5ffd5b5061054f600480360381019061054a91906127be565b6115ca565b005b34801561055c575f5ffd5b50610565611c42565b60405161057291906128ba565b60405180910390f35b6002602052805f5260405f205f915090505481565b610598611c55565b5f81116105da576040517f08c379a00000000000000000000000000000000000000000000000000000000081526004016105d190612943565b60405180910390fd5b8060025f3373ffffffffffffffffffffffffffffffffffffffff1673ffffffffffffffffffffffffffffffffffffffff1681526020019081526020015f2054101561065a576040517f08c379a0000000000000000000000000000000000000000000000000000000008152600401610651906129ab565b60405180910390fd5b8060025f3373ffffffffffffffffffffffffffffffffffffffff1673ffffffffffffffffffffffffffffffffffffffff1681526020019081526020015f205f8282546106a691906129c9565b925050819055505f3373ffffffffffffffffffffffffffffffffffffffff16826040516106d290612a29565b5f6040518083038185875af1925050503d805f811461070c576040519150601f19603f3d011682016040523d82523d5f602084013e610711565b606091505b5050905080610755576040517f08c379a000000000000000000000000000000000000000000000000000000000815260040161074c90612a87565b60405180910390fd5b3373ffffffffffffffffffffffffffffffffffffffff167f7fcf532c15f0a6db0bd6d0e038bea71d30d808c7d98cb3bf7268a95bf5081b658360405161079b91906124b4565b60405180910390a2506107ac611c9b565b50565b6107b7611ca4565b6107bf611c55565b5f8111610801576040517f08c379a00000000000000000000000000000000000000000000000000000000081526004016107f890612b15565b60405180910390fd5b806004541015610846576040517f08c379a000000000000000000000000000000000000000000000000000000000815260040161083d90612b7d565b60405180910390fd5b5f61084f61112a565b73ffffffffffffffffffffffffffffffffffffffff168262030d409060405161087790612a29565b5f60405180830381858888f193505050503d805f81146108b2576040519150601f19603f3d011682016040523d82523d5f602084013e6108b7565b606091505b50509050806108fb576040517f08c379a00000000000000000000000000000000000000000000000000000000081526004016108f290612be5565b60405180910390fd5b8160045f82825461090c91906129c9565b9250508190555061091b61112a565b73ffffffffffffffffffffffffffffffffffffffff167fa919fadcfa556a012bab31b15f596ea7ccd397adbf10e15f176db9055ab361c48360405161096091906124b4565b60405180910390a250610971611c9b565b50565b61097c611c55565b60095f8281526020019081526020015f205f3373ffffffffffffffffffffffffffffffffffffffff1673ffffffffffffffffffffffffffffffffffffffff1681526020019081526020015f205f9054906101000a900460ff1615610a15576040517f08c379a0000000000000000000000000000000000000000000000000000000008152600401610a0c90612c73565b60405180910390fd5b6003548114610a59576040517f08c379a0000000000000000000000000000000000000000000000000000000008152600401610a5090612cdb565b60405180910390fd5b5f60035411610a9d576040517f08c379a0000000000000000000000000000000000000000000000000000000008152600401610a9490612d43565b60405180910390fd5b5f670de0b6b3a76400001115610df7575f60085f9054906101000a900473ffffffffffffffffffffffffffffffffffffffff1690505f73ffffffffffffffffffffffffffffffffffffffff168173ffffffffffffffffffffffffffffffffffffffff1603610b40576040517f08c379a0000000000000000000000000000000000000000000000000000000008152600401610b3790612dab565b60405180910390fd5b5f8173ffffffffffffffffffffffffffffffffffffffff166370a08231306040518263ffffffff1660e01b8152600401610b7a91906126a3565b602060405180830381865afa158015610b95573d5f5f3e3d5ffd5b505050506040513d601f19601f82011682018060405250810190610bb99190612ddd565b9050610bf03330670de0b6b3a76400008573ffffffffffffffffffffffffffffffffffffffff16611d2b909392919063ffffffff16565b5f818373ffffffffffffffffffffffffffffffffffffffff166370a08231306040518263ffffffff1660e01b8152600401610c2b91906126a3565b602060405180830381865afa158015610c46573d5f5f3e3d5ffd5b505050506040513d601f19601f82011682018060405250810190610c6a9190612ddd565b610c7491906129c9565b9050670de0b6b3a76400008114610cc0576040517f08c379a0000000000000000000000000000000000000000000000000000000008152600401610cb790612e78565b60405180910390fd5b670de0b6b3a764000082610cd49190612472565b8373ffffffffffffffffffffffffffffffffffffffff166370a08231306040518263ffffffff1660e01b8152600401610d0d91906126a3565b602060405180830381865afa158015610d28573d5f5f3e3d5ffd5b505050506040513d601f19601f82011682018060405250810190610d4c9190612ddd565b1015610d8d576040517f08c379a0000000000000000000000000000000000000000000000000000000008152600401610d8490612f06565b60405180910390fd5b838373ffffffffffffffffffffffffffffffffffffffff163373ffffffffffffffffffffffffffffffffffffffff167f1f8e0e31739d887c754fcf7403fe1bdf6641ef33578b9d08631a7d5e6e9b8fb784604051610deb91906124b4565b60405180910390a45050505b600160095f8381526020019081526020015f205f3373ffffffffffffffffffffffffffffffffffffffff1673ffffffffffffffffffffffffffffffffffffffff1681526020019081526020015f205f6101000a81548160ff021916908315150217905550803373ffffffffffffffffffffffffffffffffffffffff167fc16481c9484122696a660b57df0bf6839645c6b620cb1704ac2437de13be922560405160405180910390a3610ea7611c9b565b50565b610eb2611ca4565b610eba611c55565b5f8111610efc576040517f08c379a0000000000000000000000000000000000000000000000000000000008152600401610ef390612f6e565b60405180910390fd5b600180811115610f0f57610f0e612847565b5b600860149054906101000a900460ff166001811115610f3157610f30612847565b5b14610f71576040517f08c379a0000000000000000000000000000000000000000000000000000000008152600401610f6890612ffc565b60405180910390fd5b5f73ffffffffffffffffffffffffffffffffffffffff1660055f9054906101000a900473ffffffffffffffffffffffffffffffffffffffff1673ffffffffffffffffffffffffffffffffffffffff1603611000576040517f08c379a0000000000000000000000000000000000000000000000000000000008152600401610ff790613064565b60405180910390fd5b61104e33308360055f9054906101000a900473ffffffffffffffffffffffffffffffffffffffff1673ffffffffffffffffffffffffffffffffffffffff16611d2b909392919063ffffffff16565b8060065f82825461105f9190612472565b925050819055503373ffffffffffffffffffffffffffffffffffffffff167f4708e702157b1eb6cd00a772e6a623599ac7dc0bad76e8c624fdef050b434f098260016040516110af929190613082565b60405180910390a26110bf611c9b565b50565b6110ca611ca4565b6110d35f611dad565b565b60075481565b60085f9054906101000a900473ffffffffffffffffffffffffffffffffffffffff1681565b600a602052815f5260405f20602052805f5260405f205f915091509054906101000a900460ff1681565b5f5f5f9054906101000a900473ffffffffffffffffffffffffffffffffffffffff16905090565b60045481565b6009602052815f5260405f20602052805f5260405f205f915091509054906101000a900460ff1681565b60065481565b5f60055f9054906101000a900473ffffffffffffffffffffffffffffffffffffffff16905090565b6111b7611c55565b5f34116111f9576040517f08c379a00000000000000000000000000000000000000000000000000000000081526004016111f090613119565b60405180910390fd5b3460025f3373ffffffffffffffffffffffffffffffffffffffff1673ffffffffffffffffffffffffffffffffffffffff1681526020019081526020015f205f8282546112459190612472565b925050819055503373ffffffffffffffffffffffffffffffffffffffff167fe1fffcc4923d04b559f4d29a8bfc6cda04eb5b0d3c460751c2402c5c5cc9109c3460405161129291906124b4565b60405180910390a26112a2611c9b565b565b60055f9054906101000a900473ffffffffffffffffffffffffffffffffffffffff1681565b6112d1611c55565b5f60035411611315576040517f08c379a000000000000000000000000000000000000000000000000000000000815260040161130c90612d43565b60405180910390fd5b60095f60035481526020019081526020015f205f3373ffffffffffffffffffffffffffffffffffffffff1673ffffffffffffffffffffffffffffffffffffffff1681526020019081526020015f205f9054906101000a900460ff166113af576040517f08c379a00000000000000000000000000000000000000000000000000000000081526004016113a690613181565b60405180910390fd5b600a5f60035481526020019081526020015f205f3373ffffffffffffffffffffffffffffffffffffffff1673ffffffffffffffffffffffffffffffffffffffff1681526020019081526020015f205f9054906101000a900460ff161561144a576040517f08c379a0000000000000000000000000000000000000000000000000000000008152600401611441906131e9565b60405180910390fd5b600b548282604051602001611460929190613243565b60405160208183030381529060405280519060200120146114b6576040517f08c379a00000000000000000000000000000000000000000000000000000000081526004016114ad906132a5565b60405180910390fd5b6001600a5f60035481526020019081526020015f205f3373ffffffffffffffffffffffffffffffffffffffff1673ffffffffffffffffffffffffffffffffffffffff1681526020019081526020015f205f6101000a81548160ff02191690831515021790555061152833600754611e6e565b611530611c9b565b5050565b60035481565b611542611ca4565b5f73ffffffffffffffffffffffffffffffffffffffff168173ffffffffffffffffffffffffffffffffffffffff16036115b2575f6040517f1e4fbdf70000000000000000000000000000000000000000000000000000000081526004016115a991906126a3565b60405180910390fd5b6115bb81611dad565b50565b670de0b6b3a764000081565b6115d2611ca4565b5f8611611614576040517f08c379a000000000000000000000000000000000000000000000000000000000815260040161160b9061330d565b60405180910390fd5b6003548611611658576040517f08c379a000000000000000000000000000000000000000000000000000000000815260040161164f9061339b565b60405180910390fd5b5f821161169a576040517f08c379a000000000000000000000000000000000000000000000000000000000815260040161169190613429565b60405180910390fd5b6001808111156116ad576116ac612847565b5b8460018111156116c0576116bf612847565b5b03611879575f73ffffffffffffffffffffffffffffffffffffffff168373ffffffffffffffffffffffffffffffffffffffff1603611733576040517f08c379a000000000000000000000000000000000000000000000000000000000815260040161172a906134b7565b60405180910390fd5b5f8373ffffffffffffffffffffffffffffffffffffffff163b1161178c576040517f08c379a00000000000000000000000000000000000000000000000000000000081526004016117839061351f565b60405180910390fd5b8273ffffffffffffffffffffffffffffffffffffffff166318160ddd6040518163ffffffff1660e01b8152600401602060405180830381865afa9250505080156117f457506040513d601f19601f820116820180604052508101906117f19190612ddd565b60015b611833576040517f08c379a000000000000000000000000000000000000000000000000000000000815260040161182a906135ad565b60405180910390fd5b508260055f6101000a81548173ffffffffffffffffffffffffffffffffffffffff021916908373ffffffffffffffffffffffffffffffffffffffff160217905550611928565b5f73ffffffffffffffffffffffffffffffffffffffff168373ffffffffffffffffffffffffffffffffffffffff16146118e7576040517f08c379a00000000000000000000000000000000000000000000000000000000081526004016118de9061363b565b60405180910390fd5b5f60055f6101000a81548173ffffffffffffffffffffffffffffffffffffffff021916908373ffffffffffffffffffffffffffffffffffffffff1602179055505b5f670de0b6b3a76400001115611aec575f73ffffffffffffffffffffffffffffffffffffffff168173ffffffffffffffffffffffffffffffffffffffff16036119a6576040517f08c379a000000000000000000000000000000000000000000000000000000000815260040161199d906136ef565b60405180910390fd5b5f8173ffffffffffffffffffffffffffffffffffffffff163b116119ff576040517f08c379a00000000000000000000000000000000000000000000000000000000081526004016119f69061377d565b60405180910390fd5b8073ffffffffffffffffffffffffffffffffffffffff166318160ddd6040518163ffffffff1660e01b8152600401602060405180830381865afa925050508015611a6757506040513d601f19601f82011682018060405250810190611a649190612ddd565b60015b611aa6576040517f08c379a0000000000000000000000000000000000000000000000000000000008152600401611a9d9061380b565b60405180910390fd5b508060085f6101000a81548173ffffffffffffffffffffffffffffffffffffffff021916908373ffffffffffffffffffffffffffffffffffffffff160217905550611b9b565b5f73ffffffffffffffffffffffffffffffffffffffff168173ffffffffffffffffffffffffffffffffffffffff1614611b5a576040517f08c379a0000000000000000000000000000000000000000000000000000000008152600401611b5190613899565b60405180910390fd5b5f60085f6101000a81548173ffffffffffffffffffffffffffffffffffffffff021916908373ffffffffffffffffffffffffffffffffffffffff1602179055505b8560038190555084600b8190555083600860146101000a81548160ff02191690836001811115611bce57611bcd612847565b5b0217905550816007819055505f6004819055505f600681905550857f05227007ca99c4e41f51fb024dcb2065e16bd026db353ce7f322e5cdb4fb2e9d86866001811115611c1e57611c1d612847565b5b868686604051611c329594939291906138e1565b60405180910390a2505050505050565b600860149054906101000a900460ff1681565b600260015403611c91576040517f3ee5aeb500000000000000000000000000000000000000000000000000000000815260040160405180910390fd5b6002600181905550565b60018081905550565b611cac61227d565b73ffffffffffffffffffffffffffffffffffffffff16611cca61112a565b73ffffffffffffffffffffffffffffffffffffffff1614611d2957611ced61227d565b6040517f118cdaa7000000000000000000000000000000000000000000000000000000008152600401611d2091906126a3565b60405180910390fd5b565b611da7848573ffffffffffffffffffffffffffffffffffffffff166323b872dd868686604051602401611d6093929190613932565b604051602081830303815290604052915060e01b6020820180517bffffffffffffffffffffffffffffffffffffffffffffffffffffffff8381831617835250505050612284565b50505050565b5f5f5f9054906101000a900473ffffffffffffffffffffffffffffffffffffffff169050815f5f6101000a81548173ffffffffffffffffffffffffffffffffffffffff021916908373ffffffffffffffffffffffffffffffffffffffff1602179055508173ffffffffffffffffffffffffffffffffffffffff168173ffffffffffffffffffffffffffffffffffffffff167f8be0079c531659141344cd1fd0a4f28419497f9722a3daafe3b4186f6b6457e060405160405180910390a35050565b5f73ffffffffffffffffffffffffffffffffffffffff168273ffffffffffffffffffffffffffffffffffffffff1603611edc576040517f08c379a0000000000000000000000000000000000000000000000000000000008152600401611ed3906139b1565b60405180910390fd5b5f8111611f1e576040517f08c379a0000000000000000000000000000000000000000000000000000000008152600401611f1590613429565b60405180910390fd5b5f6001811115611f3157611f30612847565b5b600860149054906101000a900460ff166001811115611f5357611f52612847565b5b036120a657806004541015611f9d576040517f08c379a0000000000000000000000000000000000000000000000000000000008152600401611f9490613a3f565b60405180910390fd5b80471015611fe0576040517f08c379a0000000000000000000000000000000000000000000000000000000008152600401611fd790613acd565b60405180910390fd5b8060045f828254611ff191906129c9565b925050819055505f8273ffffffffffffffffffffffffffffffffffffffff168260405161201d90612a29565b5f6040518083038185875af1925050503d805f8114612057576040519150601f19603f3d011682016040523d82523d5f602084013e61205c565b606091505b50509050806120a0576040517f08c379a000000000000000000000000000000000000000000000000000000000815260040161209790613b35565b60405180910390fd5b5061221a565b6001808111156120b9576120b8612847565b5b600860149054906101000a900460ff1660018111156120db576120da612847565b5b03612219575f73ffffffffffffffffffffffffffffffffffffffff1660055f9054906101000a900473ffffffffffffffffffffffffffffffffffffffff1673ffffffffffffffffffffffffffffffffffffffff160361216f576040517f08c379a000000000000000000000000000000000000000000000000000000000815260040161216690613064565b60405180910390fd5b8060065410156121b4576040517f08c379a00000000000000000000000000000000000000000000000000000000081526004016121ab90613bc3565b60405180910390fd5b8060065f8282546121c591906129c9565b92505081905550612218828260055f9054906101000a900473ffffffffffffffffffffffffffffffffffffffff1673ffffffffffffffffffffffffffffffffffffffff1661231f9092919063ffffffff16565b5b5b8173ffffffffffffffffffffffffffffffffffffffff167fff43c2705b2225c1c9d9d58f088ab64d4fc767737dee523bed37f15fb0c6c3de82600860149054906101000a900460ff16604051612271929190613082565b60405180910390a25050565b5f33905090565b5f5f60205f8451602086015f885af1806122a3576040513d5f823e3d81fd5b3d92505f519150505f82146122bc5760018114156122d7565b5f8473ffffffffffffffffffffffffffffffffffffffff163b145b1561231957836040517f5274afe700000000000000000000000000000000000000000000000000000000815260040161231091906126a3565b60405180910390fd5b50505050565b612399838473ffffffffffffffffffffffffffffffffffffffff1663a9059cbb8585604051602401612352929190613be1565b604051602081830303815290604052915060e01b6020820180517bffffffffffffffffffffffffffffffffffffffffffffffffffffffff8381831617835250505050612284565b505050565b5f82825260208201905092915050565b7f45544820616d6f756e74206d7573742062652067726561746572207468616e205f8201527f7a65726f00000000000000000000000000000000000000000000000000000000602082015250565b5f61240860248361239e565b9150612413826123ae565b604082019050919050565b5f6020820190508181035f830152612435816123fc565b9050919050565b5f819050919050565b7f4e487b71000000000000000000000000000000000000000000000000000000005f52601160045260245ffd5b5f61247c8261243c565b91506124878361243c565b925082820190508082111561249f5761249e612445565b5b92915050565b6124ae8161243c565b82525050565b5f6020820190506124c75f8301846124a5565b92915050565b5f5ffd5b5f5ffd5b5f73ffffffffffffffffffffffffffffffffffffffff82169050919050565b5f6124fe826124d5565b9050919050565b61250e816124f4565b8114612518575f5ffd5b50565b5f8135905061252981612505565b92915050565b5f60208284031215612544576125436124cd565b5b5f6125518482850161251b565b91505092915050565b6125638161243c565b811461256d575f5ffd5b50565b5f8135905061257e8161255a565b92915050565b5f60208284031215612599576125986124cd565b5b5f6125a684828501612570565b91505092915050565b5f819050919050565b5f6125d26125cd6125c8846124d5565b6125af565b6124d5565b9050919050565b5f6125e3826125b8565b9050919050565b5f6125f4826125d9565b9050919050565b612604816125ea565b82525050565b5f60208201905061261d5f8301846125fb565b92915050565b5f5f60408385031215612639576126386124cd565b5b5f61264685828601612570565b92505060206126578582860161251b565b9150509250929050565b5f8115159050919050565b61267581612661565b82525050565b5f60208201905061268e5f83018461266c565b92915050565b61269d816124f4565b82525050565b5f6020820190506126b65f830184612694565b92915050565b5f5ffd5b5f5ffd5b5f5ffd5b5f5f83601f8401126126dd576126dc6126bc565b5b8235905067ffffffffffffffff8111156126fa576126f96126c0565b5b602083019150836001820283011115612716576127156126c4565b5b9250929050565b5f5f60208385031215612733576127326124cd565b5b5f83013567ffffffffffffffff8111156127505761274f6124d1565b5b61275c858286016126c8565b92509250509250929050565b5f819050919050565b61277a81612768565b8114612784575f5ffd5b50565b5f8135905061279581612771565b92915050565b600281106127a7575f5ffd5b50565b5f813590506127b88161279b565b92915050565b5f5f5f5f5f5f60c087890312156127d8576127d76124cd565b5b5f6127e589828a01612570565b96505060206127f689828a01612787565b955050604061280789828a016127aa565b945050606061281889828a0161251b565b935050608061282989828a01612570565b92505060a061283a89828a0161251b565b9150509295509295509295565b7f4e487b71000000000000000000000000000000000000000000000000000000005f52602160045260245ffd5b6002811061288557612884612847565b5b50565b5f81905061289582612874565b919050565b5f6128a482612888565b9050919050565b6128b48161289a565b82525050565b5f6020820190506128cd5f8301846128ab565b92915050565b7f5769746864726177616c20616d6f756e74206d757374206265206772656174655f8201527f72207468616e207a65726f000000000000000000000000000000000000000000602082015250565b5f61292d602b8361239e565b9150612938826128d3565b604082019050919050565b5f6020820190508181035f83015261295a81612921565b9050919050565b7f496e73756666696369656e742062616c616e63650000000000000000000000005f82015250565b5f61299560148361239e565b91506129a082612961565b602082019050919050565b5f6020820190508181035f8301526129c281612989565b9050919050565b5f6129d38261243c565b91506129de8361243c565b92508282039050818111156129f6576129f5612445565b5b92915050565b5f81905092915050565b50565b5f612a145f836129fc565b9150612a1f82612a06565b5f82019050919050565b5f612a3382612a09565b9150819050919050565b7f5769746864726177616c206661696c65640000000000000000000000000000005f82015250565b5f612a7160118361239e565b9150612a7c82612a3d565b602082019050919050565b5f6020820190508181035f830152612a9e81612a65565b9050919050565b7f4f776e6572207769746864726177616c20616d6f756e74206d757374206265205f8201527f67726561746572207468616e207a65726f000000000000000000000000000000602082015250565b5f612aff60318361239e565b9150612b0a82612aa5565b604082019050919050565b5f6020820190508181035f830152612b2c81612af3565b9050919050565b7f496e73756666696369656e7420455448207072697a6520706f6f6c00000000005f82015250565b5f612b67601b8361239e565b9150612b7282612b33565b602082019050919050565b5f6020820190508181035f830152612b9481612b5b565b9050919050565b7f4f776e6572207769746864726177616c206661696c65640000000000000000005f82015250565b5f612bcf60178361239e565b9150612bda82612b9b565b602082019050919050565b5f6020820190508181035f830152612bfc81612bc3565b9050919050565b7f416c72656164792070617274696369706174656420696e2074686973207269645f8201527f646c650000000000000000000000000000000000000000000000000000000000602082015250565b5f612c5d60238361239e565b9150612c6882612c03565b604082019050919050565b5f6020820190508181035f830152612c8a81612c51565b9050919050565b7f4e6f74207468652061637469766520726964646c6520494400000000000000005f82015250565b5f612cc560188361239e565b9150612cd082612c91565b602082019050919050565b5f6020820190508181035f830152612cf281612cb9565b9050919050565b7f4e6f2061637469766520726964646c65000000000000000000000000000000005f82015250565b5f612d2d60108361239e565b9150612d3882612cf9565b602082019050919050565b5f6020820190508181035f830152612d5a81612d21565b9050919050565b7f456e7472792066656520746f6b656e206e6f74207365740000000000000000005f82015250565b5f612d9560178361239e565b9150612da082612d61565b602082019050919050565b5f6020820190508181035f830152612dc281612d89565b9050919050565b5f81519050612dd78161255a565b92915050565b5f60208284031215612df257612df16124cd565b5b5f612dff84828501612dc9565b91505092915050565b7f456e74727920666565206d69736d617463682028464f54206e6f7420737570705f8201527f6f72746564290000000000000000000000000000000000000000000000000000602082015250565b5f612e6260268361239e565b9150612e6d82612e08565b604082019050919050565b5f6020820190508181035f830152612e8f81612e56565b9050919050565b7f4552433230207472616e73666572206661696c656420696e20656e74657247615f8201527f6d65000000000000000000000000000000000000000000000000000000000000602082015250565b5f612ef060228361239e565b9150612efb82612e96565b604082019050919050565b5f6020820190508181035f830152612f1d81612ee4565b9050919050565b7f416d6f756e74206d7573742062652067726561746572207468616e207a65726f5f82015250565b5f612f5860208361239e565b9150612f6382612f24565b602082019050919050565b5f6020820190508181035f830152612f8581612f4c565b9050919050565b7f43757272656e7420726964646c65207072697a65206973206e6f7420455243325f8201527f3000000000000000000000000000000000000000000000000000000000000000602082015250565b5f612fe660218361239e565b9150612ff182612f8c565b604082019050919050565b5f6020820190508181035f83015261301381612fda565b9050919050565b7f5072697a6520746f6b656e206e6f7420736574000000000000000000000000005f82015250565b5f61304e60138361239e565b91506130598261301a565b602082019050919050565b5f6020820190508181035f83015261307b81613042565b9050919050565b5f6040820190506130955f8301856124a5565b6130a260208301846128ab565b9392505050565b7f4465706f73697420616d6f756e74206d757374206265206772656174657220745f8201527f68616e207a65726f000000000000000000000000000000000000000000000000602082015250565b5f61310360288361239e565b915061310e826130a9565b604082019050919050565b5f6020820190508181035f830152613130816130f7565b9050919050565b7f4d75737420656e746572207468652067616d65206669727374000000000000005f82015250565b5f61316b60198361239e565b915061317682613137565b602082019050919050565b5f6020820190508181035f8301526131988161315f565b9050919050565b7f416c726561647920636c61696d656400000000000000000000000000000000005f82015250565b5f6131d3600f8361239e565b91506131de8261319f565b602082019050919050565b5f6020820190508181035f830152613200816131c7565b9050919050565b5f81905092915050565b828183375f83830152505050565b5f61322a8385613207565b9350613237838584613211565b82840190509392505050565b5f61324f82848661321f565b91508190509392505050565b7f496e636f727265637420616e73776572000000000000000000000000000000005f82015250565b5f61328f60108361239e565b915061329a8261325b565b602082019050919050565b5f6020820190508181035f8301526132bc81613283565b9050919050565b7f526964646c652049442063616e6e6f74206265207a65726f00000000000000005f82015250565b5f6132f760188361239e565b9150613302826132c3565b602082019050919050565b5f6020820190508181035f830152613324816132eb565b9050919050565b7f526964646c65204944206d7573742062652067726561746572207468616e20635f8201527f757272656e740000000000000000000000000000000000000000000000000000602082015250565b5f61338560268361239e565b91506133908261332b565b604082019050919050565b5f6020820190508181035f8301526133b281613379565b9050919050565b7f5072697a6520616d6f756e74206d7573742062652067726561746572207468615f8201527f6e207a65726f0000000000000000000000000000000000000000000000000000602082015250565b5f61341360268361239e565b915061341e826133b9565b604082019050919050565b5f6020820190508181035f83015261344081613407565b9050919050565b7f5072697a6520746f6b656e20616464726573732063616e6e6f74206265207a655f8201527f726f20666f72204552433230207072697a650000000000000000000000000000602082015250565b5f6134a160328361239e565b91506134ac82613447565b604082019050919050565b5f6020820190508181035f8301526134ce81613495565b9050919050565b7f5072697a6520746f6b656e20686173206e6f20636f6e747261637420636f64655f82015250565b5f61350960208361239e565b9150613514826134d5565b602082019050919050565b5f6020820190508181035f830152613536816134fd565b9050919050565b7f496e76616c6964204552432d323020746f6b656e3a20746f74616c537570706c5f8201527f792063616c6c206661696c656400000000000000000000000000000000000000602082015250565b5f613597602d8361239e565b91506135a28261353d565b604082019050919050565b5f6020820190508181035f8301526135c48161358b565b9050919050565b7f5072697a6520746f6b656e2061646472657373206d757374206265207a65726f5f8201527f20666f7220455448207072697a65000000000000000000000000000000000000602082015250565b5f613625602e8361239e565b9150613630826135cb565b604082019050919050565b5f6020820190508181035f83015261365281613619565b9050919050565b7f456e7472792066656520746f6b656e20616464726573732063616e6e6f7420625f8201527f65207a65726f20696620656e7472792066656520616d6f756e7420697320677260208201527f6561746572207468616e207a65726f0000000000000000000000000000000000604082015250565b5f6136d9604f8361239e565b91506136e482613659565b606082019050919050565b5f6020820190508181035f830152613706816136cd565b9050919050565b7f456e7472792066656520746f6b656e20686173206e6f20636f6e7472616374205f8201527f636f646500000000000000000000000000000000000000000000000000000000602082015250565b5f61376760248361239e565b91506137728261370d565b604082019050919050565b5f6020820190508181035f8301526137948161375b565b9050919050565b7f496e76616c6964204552432d323020746f6b656e20666f7220656e74727920665f8201527f65653a20746f74616c537570706c792063616c6c206661696c65640000000000602082015250565b5f6137f5603b8361239e565b91506138008261379b565b604082019050919050565b5f6020820190508181035f830152613822816137e9565b9050919050565b7f456e7472792066656520746f6b656e2061646472657373206d757374206265205f8201527f7a65726f20696620656e7472792066656520616d6f756e74206973207a65726f602082015250565b5f61388360408361239e565b915061388e82613829565b604082019050919050565b5f6020820190508181035f8301526138b081613877565b9050919050565b6138c081612768565b82525050565b5f60ff82169050919050565b6138db816138c6565b82525050565b5f60a0820190506138f45f8301886138b7565b61390160208301876138d2565b61390e6040830186612694565b61391b60608301856124a5565b6139286080830184612694565b9695505050505050565b5f6060820190506139455f830186612694565b6139526020830185612694565b61395f60408301846124a5565b949350505050565b7f57696e6e657220616464726573732063616e6e6f74206265207a65726f0000005f82015250565b5f61399b601d8361239e565b91506139a682613967565b602082019050919050565b5f6020820190508181035f8301526139c88161398f565b9050919050565b7f496e73756666696369656e7420455448207072697a6520706f6f6c2062616c615f8201527f6e63650000000000000000000000000000000000000000000000000000000000602082015250565b5f613a2960238361239e565b9150613a34826139cf565b604082019050919050565b5f6020820190508181035f830152613a5681613a1d565b9050919050565b7f496e73756666696369656e7420636f6e7472616374204554482062616c616e635f8201527f6500000000000000000000000000000000000000000000000000000000000000602082015250565b5f613ab760218361239e565b9150613ac282613a5d565b604082019050919050565b5f6020820190508181035f830152613ae481613aab565b9050919050565b7f455448207472616e73666572206661696c6564000000000000000000000000005f82015250565b5f613b1f60138361239e565b9150613b2a82613aeb565b602082019050919050565b5f6020820190508181035f830152613b4c81613b13565b9050919050565b7f496e73756666696369656e74204552433230207072697a6520706f6f6c2062615f8201527f6c616e6365000000000000000000000000000000000000000000000000000000602082015250565b5f613bad60258361239e565b9150613bb882613b53565b604082019050919050565b5f6020820190508181035f830152613bda81613ba1565b9050919050565b5f604082019050613bf45f830185612694565b613c0160208301846124a5565b939250505056fea26469706673582212206c8b85b54b6874b98b085fecdfaf100b0a42698318fbe1b2d230b753626f180564736f6c634300081e0033","linkReferences":{}},"methodIdentifiers":{"ENTRY_FEE()":"f6d361cc","balances(address)":"27e235e3","currentRiddleId()":"ecdc6c23","deposit()":"d0e30db0","enterGame(uint256)":"43d6582b","entryFeeToken()":"7b149763","ethPrizePool()":"95664a3d","fundTokenPrizePool(uint256)":"48b06e87","getPrizeToken()":"c7cd6959","hasClaimed(uint256,address)":"873f6f9e","hasParticipated(uint256,address)":"a34398a2","owner()":"8da5cb5b","ownerWithdraw(uint256)":"33f707d1","prizeAmount()":"785fa627","prizeToken()":"d0ef024a","prizeType()":"fcdf8e89","renounceOwnership()":"715018a6","setRiddle(uint256,bytes32,uint8,address,uint256,address)":"f9f82e9c","solveRiddleAndClaim(string)":"dc663b53","tokenPrizePool()":"c310e242","transferOwnership(address)":"f2fde38b","withdraw(uint256)":"2e1a7d4d"},"id":3}