{"abi":[{"type":"constructor","inputs":[{"name":"initialOwner","type":"address","internalType":"address"},{"name":"_retryTokenAddress","type":"address","internalType":"address"}],"stateMutability":"nonpayable"},{"type":"receive","stateMutability":"payable"},{"type":"function","name":"ENTRY_FEE","inputs":[],"outputs":[{"name":"","type":"uint256","internalType":"uint256"}],"stateMutability":"view"},{"type":"function","name":"MAX_RETRIES","inputs":[],"outputs":[{"name":"","type":"uint256","internalType":"uint256"}],"stateMutability":"view"},{"type":"function","name":"RETRY_COST","inputs":[],"outputs":[{"name":"","type":"uint256","internalType":"uint256"}],"stateMutability":"view"},{"type":"function","name":"balances","inputs":[{"name":"","type":"address","internalType":"address"}],"outputs":[{"name":"","type":"uint256","internalType":"uint256"}],"stateMutability":"view"},{"type":"function","name":"committedAt","inputs":[{"name":"","type":"uint256","internalType":"uint256"},{"name":"","type":"address","internalType":"address"}],"outputs":[{"name":"","type":"uint256","internalType":"uint256"}],"stateMutability":"view"},{"type":"function","name":"committedGuesses","inputs":[{"name":"","type":"uint256","internalType":"uint256"},{"name":"","type":"address","internalType":"address"}],"outputs":[{"name":"","type":"bytes32","internalType":"bytes32"}],"stateMutability":"view"},{"type":"function","name":"currentRiddleId","inputs":[],"outputs":[{"name":"","type":"uint256","internalType":"uint256"}],"stateMutability":"view"},{"type":"function","name":"deposit","inputs":[],"outputs":[],"stateMutability":"payable"},{"type":"function","name":"enterGame","inputs":[{"name":"_riddleId","type":"uint256","internalType":"uint256"}],"outputs":[],"stateMutability":"nonpayable"},{"type":"function","name":"entryFeeToken","inputs":[],"outputs":[{"name":"","type":"address","internalType":"contract IERC20"}],"stateMutability":"view"},{"type":"function","name":"ethPrizePool","inputs":[],"outputs":[{"name":"","type":"uint256","internalType":"uint256"}],"stateMutability":"view"},{"type":"function","name":"fundTokenPrizePool","inputs":[{"name":"_amount","type":"uint256","internalType":"uint256"}],"outputs":[],"stateMutability":"nonpayable"},{"type":"function","name":"getPrizeToken","inputs":[],"outputs":[{"name":"","type":"address","internalType":"address"}],"stateMutability":"view"},{"type":"function","name":"hasClaimed","inputs":[{"name":"","type":"uint256","internalType":"uint256"},{"name":"","type":"address","internalType":"address"}],"outputs":[{"name":"","type":"bool","internalType":"bool"}],"stateMutability":"view"},{"type":"function","name":"hasParticipated","inputs":[{"name":"","type":"uint256","internalType":"uint256"},{"name":"","type":"address","internalType":"address"}],"outputs":[{"name":"","type":"bool","internalType":"bool"}],"stateMutability":"view"},{"type":"function","name":"hasRevealed","inputs":[{"name":"","type":"uint256","internalType":"uint256"},{"name":"","type":"address","internalType":"address"}],"outputs":[{"name":"","type":"bool","internalType":"bool"}],"stateMutability":"view"},{"type":"function","name":"isWinner","inputs":[{"name":"","type":"uint256","internalType":"uint256"},{"name":"","type":"address","internalType":"address"}],"outputs":[{"name":"","type":"bool","internalType":"bool"}],"stateMutability":"view"},{"type":"function","name":"owner","inputs":[],"outputs":[{"name":"","type":"address","internalType":"address"}],"stateMutability":"view"},{"type":"function","name":"ownerWithdraw","inputs":[{"name":"_amount","type":"uint256","internalType":"uint256"}],"outputs":[],"stateMutability":"nonpayable"},{"type":"function","name":"ownerWithdrawTokens","inputs":[{"name":"_amount","type":"uint256","internalType":"uint256"}],"outputs":[],"stateMutability":"nonpayable"},{"type":"function","name":"payout","inputs":[{"name":"_riddleId","type":"uint256","internalType":"uint256"},{"name":"_winners","type":"address[]","internalType":"address[]"}],"outputs":[],"stateMutability":"nonpayable"},{"type":"function","name":"prizeAmount","inputs":[],"outputs":[{"name":"","type":"uint256","internalType":"uint256"}],"stateMutability":"view"},{"type":"function","name":"prizeToken","inputs":[],"outputs":[{"name":"","type":"address","internalType":"contract IERC20"}],"stateMutability":"view"},{"type":"function","name":"prizeType","inputs":[],"outputs":[{"name":"","type":"uint8","internalType":"enum Vaultis.PrizeType"}],"stateMutability":"view"},{"type":"function","name":"purchaseRetry","inputs":[{"name":"_riddleId","type":"uint256","internalType":"uint256"}],"outputs":[],"stateMutability":"nonpayable"},{"type":"function","name":"renounceOwnership","inputs":[],"outputs":[],"stateMutability":"nonpayable"},{"type":"function","name":"retries","inputs":[{"name":"","type":"address","internalType":"address"}],"outputs":[{"name":"","type":"uint256","internalType":"uint256"}],"stateMutability":"view"},{"type":"function","name":"retryToken","inputs":[],"outputs":[{"name":"","type":"address","internalType":"contract IERC20"}],"stateMutability":"view"},{"type":"function","name":"revealDelay","inputs":[],"outputs":[{"name":"","type":"uint256","internalType":"uint256"}],"stateMutability":"view"},{"type":"function","name":"revealGuess","inputs":[{"name":"_riddleId","type":"uint256","internalType":"uint256"},{"name":"_guess","type":"string","internalType":"string"}],"outputs":[],"stateMutability":"nonpayable"},{"type":"function","name":"revealedGuessHash","inputs":[{"name":"","type":"uint256","internalType":"uint256"},{"name":"","type":"address","internalType":"address"}],"outputs":[{"name":"","type":"bytes32","internalType":"bytes32"}],"stateMutability":"view"},{"type":"function","name":"setRevealDelay","inputs":[{"name":"_newRevealDelay","type":"uint256","internalType":"uint256"}],"outputs":[],"stateMutability":"nonpayable"},{"type":"function","name":"setRiddle","inputs":[{"name":"_riddleId","type":"uint256","internalType":"uint256"},{"name":"_answerHash","type":"bytes32","internalType":"bytes32"},{"name":"_prizeType","type":"uint8","internalType":"enum Vaultis.PrizeType"},{"name":"_prizeTokenAddress","type":"address","internalType":"address"},{"name":"_prizeAmount","type":"uint256","internalType":"uint256"},{"name":"_entryFeeTokenAddress","type":"address","internalType":"address"}],"outputs":[],"stateMutability":"nonpayable"},{"type":"function","name":"solveRiddleAndClaim","inputs":[{"name":"_answer","type":"string","internalType":"string"}],"outputs":[],"stateMutability":"nonpayable"},{"type":"function","name":"submitGuess","inputs":[{"name":"_riddleId","type":"uint256","internalType":"uint256"},{"name":"_guessHash","type":"bytes32","internalType":"bytes32"}],"outputs":[],"stateMutability":"nonpayable"},{"type":"function","name":"tokenPrizePool","inputs":[],"outputs":[{"name":"","type":"uint256","internalType":"uint256"}],"stateMutability":"view"},{"type":"function","name":"transferOwnership","inputs":[{"name":"newOwner","type":"address","internalType":"address"}],"outputs":[],"stateMutability":"nonpayable"},{"type":"function","name":"winners","inputs":[{"name":"","type":"uint256","internalType":"uint256"},{"name":"","type":"uint256","internalType":"uint256"}],"outputs":[{"name":"","type":"address","internalType":"address"}],"stateMutability":"view"},{"type":"function","name":"withdraw","inputs":[{"name":"_amount","type":"uint256","internalType":"uint256"}],"outputs":[],"stateMutability":"nonpayable"},{"type":"event","name":"Deposit","inputs":[{"name":"user","type":"address","indexed":true,"internalType":"address"},{"name":"amount","type":"uint256","indexed":false,"internalType":"uint256"}],"anonymous":false},{"type":"event","name":"EntryFeeCollected","inputs":[{"name":"player","type":"address","indexed":true,"internalType":"address"},{"name":"token","type":"address","indexed":true,"internalType":"address"},{"name":"amount","type":"uint256","indexed":false,"internalType":"uint256"},{"name":"riddleId","type":"uint256","indexed":true,"internalType":"uint256"}],"anonymous":false},{"type":"event","name":"EthReceived","inputs":[{"name":"sender","type":"address","indexed":true,"internalType":"address"},{"name":"amount","type":"uint256","indexed":false,"internalType":"uint256"}],"anonymous":false},{"type":"event","name":"GuessEvaluated","inputs":[{"name":"riddleId","type":"uint256","indexed":true,"internalType":"uint256"},{"name":"player","type":"address","indexed":true,"internalType":"address"},{"name":"timestamp","type":"uint256","indexed":false,"internalType":"uint256"},{"name":"isWinner","type":"bool","indexed":false,"internalType":"bool"}],"anonymous":false},{"type":"event","name":"GuessRevealed","inputs":[{"name":"player","type":"address","indexed":true,"internalType":"address"},{"name":"riddleId","type":"uint256","indexed":true,"internalType":"uint256"},{"name":"revealedHash","type":"bytes32","indexed":false,"internalType":"bytes32"}],"anonymous":false},{"type":"event","name":"GuessSubmitted","inputs":[{"name":"player","type":"address","indexed":true,"internalType":"address"},{"name":"riddleId","type":"uint256","indexed":true,"internalType":"uint256"},{"name":"guessHash","type":"bytes32","indexed":false,"internalType":"bytes32"}],"anonymous":false},{"type":"event","name":"OwnerWithdrawTokens","inputs":[{"name":"amount","type":"uint256","indexed":false,"internalType":"uint256"}],"anonymous":false},{"type":"event","name":"OwnerWithdrawal","inputs":[{"name":"owner","type":"address","indexed":true,"internalType":"address"},{"name":"amount","type":"uint256","indexed":false,"internalType":"uint256"}],"anonymous":false},{"type":"event","name":"OwnershipTransferred","inputs":[{"name":"previousOwner","type":"address","indexed":true,"internalType":"address"},{"name":"newOwner","type":"address","indexed":true,"internalType":"address"}],"anonymous":false},{"type":"event","name":"PayoutExecuted","inputs":[{"name":"riddleId","type":"uint256","indexed":true,"internalType":"uint256"},{"name":"winnerCount","type":"uint256","indexed":false,"internalType":"uint256"},{"name":"totalAmount","type":"uint256","indexed":false,"internalType":"uint256"},{"name":"prizeType","type":"uint8","indexed":false,"internalType":"enum Vaultis.PrizeType"}],"anonymous":false},{"type":"event","name":"PlayerEntered","inputs":[{"name":"player","type":"address","indexed":true,"internalType":"address"},{"name":"riddleId","type":"uint256","indexed":true,"internalType":"uint256"}],"anonymous":false},{"type":"event","name":"PrizeDistributed","inputs":[{"name":"winner","type":"address","indexed":true,"internalType":"address"},{"name":"amount","type":"uint256","indexed":false,"internalType":"uint256"},{"name":"prizeType","type":"uint8","indexed":false,"internalType":"enum Vaultis.PrizeType"}],"anonymous":false},{"type":"event","name":"PrizeFunded","inputs":[{"name":"funder","type":"address","indexed":true,"internalType":"address"},{"name":"amount","type":"uint256","indexed":false,"internalType":"uint256"},{"name":"prizeType","type":"uint8","indexed":false,"internalType":"enum Vaultis.PrizeType"}],"anonymous":false},{"type":"event","name":"RetryPurchased","inputs":[{"name":"player","type":"address","indexed":true,"internalType":"address"},{"name":"riddleId","type":"uint256","indexed":true,"internalType":"uint256"},{"name":"cost","type":"uint256","indexed":false,"internalType":"uint256"},{"name":"newRetryCount","type":"uint256","indexed":false,"internalType":"uint256"}],"anonymous":false},{"type":"event","name":"RiddleInitialized","inputs":[{"name":"riddleId","type":"uint256","indexed":true,"internalType":"uint256"},{"name":"answerHash","type":"bytes32","indexed":false,"internalType":"bytes32"},{"name":"prizeType","type":"uint8","indexed":false,"internalType":"uint8"},{"name":"prizeTokenAddress","type":"address","indexed":false,"internalType":"address"},{"name":"prizeAmount","type":"uint256","indexed":false,"internalType":"uint256"},{"name":"entryFeeTokenAddress","type":"address","indexed":false,"internalType":"address"}],"anonymous":false},{"type":"event","name":"WinnerFound","inputs":[{"name":"winner","type":"address","indexed":true,"internalType":"address"},{"name":"riddleId","type":"uint256","indexed":true,"internalType":"uint256"}],"anonymous":false},{"type":"event","name":"Withdrawal","inputs":[{"name":"user","type":"address","indexed":true,"internalType":"address"},{"name":"amount","type":"uint256","indexed":false,"internalType":"uint256"}],"anonymous":false},{"type":"error","name":"OwnableInvalidOwner","inputs":[{"name":"owner","type":"address","internalType":"address"}]},{"type":"error","name":"OwnableUnauthorizedAccount","inputs":[{"name":"account","type":"address","internalType":"address"}]},{"type":"error","name":"ReentrancyGuardReentrantCall","inputs":[]},{"type":"error","name":"SafeERC20FailedOperation","inputs":[{"name":"token","type":"address","internalType":"address"}]}],"bytecode":{"object":"0x608060405234801561000f575f5ffd5b506040516171ec3803806171ec833981810160405281019061003191906103d7565b815f73ffffffffffffffffffffffffffffffffffffffff168173ffffffffffffffffffffffffffffffffffffffff16036100a2575f6040517f1e4fbdf70000000000000000000000000000000000000000000000000000000081526004016100999190610424565b60405180910390fd5b6100b1816102b860201b60201c565b50600180819055505f73ffffffffffffffffffffffffffffffffffffffff168173ffffffffffffffffffffffffffffffffffffffff1603610127576040517f08c379a000000000000000000000000000000000000000000000000000000000815260040161011e906104bd565b60405180910390fd5b5f8173ffffffffffffffffffffffffffffffffffffffff163b11610180576040517f08c379a000000000000000000000000000000000000000000000000000000000815260040161017790610525565b60405180910390fd5b8073ffffffffffffffffffffffffffffffffffffffff166318160ddd6040518163ffffffff1660e01b8152600401602060405180830381865afa9250505080156101e857506040513d601f19601f820116820180604052508101906101e59190610576565b60015b610227576040517f08c379a000000000000000000000000000000000000000000000000000000000815260040161021e90610611565b60405180910390fd5b505f60085f6101000a81548173ffffffffffffffffffffffffffffffffffffffff021916908373ffffffffffffffffffffffffffffffffffffffff160217905550610e106012819055508060095f6101000a81548173ffffffffffffffffffffffffffffffffffffffff021916908373ffffffffffffffffffffffffffffffffffffffff160217905550505061062f565b5f5f5f9054906101000a900473ffffffffffffffffffffffffffffffffffffffff169050815f5f6101000a81548173ffffffffffffffffffffffffffffffffffffffff021916908373ffffffffffffffffffffffffffffffffffffffff1602179055508173ffffffffffffffffffffffffffffffffffffffff168173ffffffffffffffffffffffffffffffffffffffff167f8be0079c531659141344cd1fd0a4f28419497f9722a3daafe3b4186f6b6457e060405160405180910390a35050565b5f5ffd5b5f73ffffffffffffffffffffffffffffffffffffffff82169050919050565b5f6103a68261037d565b9050919050565b6103b68161039c565b81146103c0575f5ffd5b50565b5f815190506103d1816103ad565b92915050565b5f5f604083850312156103ed576103ec610379565b5b5f6103fa858286016103c3565b925050602061040b858286016103c3565b9150509250929050565b61041e8161039c565b82525050565b5f6020820190506104375f830184610415565b92915050565b5f82825260208201905092915050565b7f526574727920746f6b656e20616464726573732063616e6e6f74206265207a655f8201527f726f000000000000000000000000000000000000000000000000000000000000602082015250565b5f6104a760228361043d565b91506104b28261044d565b604082019050919050565b5f6020820190508181035f8301526104d48161049b565b9050919050565b7f526574727920746f6b656e20686173206e6f20636f6e747261637420636f64655f82015250565b5f61050f60208361043d565b915061051a826104db565b602082019050919050565b5f6020820190508181035f83015261053c81610503565b9050919050565b5f819050919050565b61055581610543565b811461055f575f5ffd5b50565b5f815190506105708161054c565b92915050565b5f6020828403121561058b5761058a610379565b5b5f61059884828501610562565b91505092915050565b7f496e76616c6964204552432d323020746f6b656e20666f722072657472793a205f8201527f746f74616c537570706c792063616c6c206661696c6564000000000000000000602082015250565b5f6105fb60378361043d565b9150610606826105a1565b604082019050919050565b5f6020820190508181035f830152610628816105ef565b9050919050565b616bb08061063c5f395ff3fe608060405260043610610233575f3560e01c80638da5cb5b1161012d578063d0e30db0116100aa578063ecdc6c231161006e578063ecdc6c23146108e4578063f2fde38b1461090e578063f6d361cc14610936578063f9f82e9c14610960578063fcdf8e8914610988576102e2565b8063d0e30db014610824578063d0ef024a1461082e578063dbbd324514610858578063dc663b5314610894578063e4d33ee3146108bc576102e2565b8063bdd415af116100f1578063bdd415af14610730578063c06a5fc51461076c578063c310e242146107a8578063c7cd6959146107d2578063c8e728f9146107fc576102e2565b80638da5cb5b1461063c57806395664a3d14610666578063a34398a214610690578063a68c25d8146106cc578063b7173e77146106f4576102e2565b806346ebbdb0116101bb578063715018a61161017f578063715018a61461056e578063785fa627146105845780637a11e941146105ae5780637b149763146105d6578063873f6f9e14610600576102e2565b806346ebbdb0146104a057806348b06e87146104ca57806353236d74146104f257806357aa0ea21461051c5780636097212014610546576102e2565b8063219fc38511610202578063219fc385146103c257806327e235e3146103ec5780632e1a7d4d1461042857806333f707d11461045057806343d6582b14610478576102e2565b80630efc8865146102e657806312b5afc11461032257806316b5551d1461034a578063188240cd14610386576102e2565b366102e2575f341161027a576040517f08c379a000000000000000000000000000000000000000000000000000000000815260040161027190614436565b60405180910390fd5b3460045f82825461028b919061448a565b925050819055503373ffffffffffffffffffffffffffffffffffffffff167f85177f287940f2f05425a4029951af0e047a7f9c4eaa9a6e6917bcd869f86695346040516102d891906144cc565b60405180910390a2005b5f5ffd5b3480156102f1575f5ffd5b5061030c60048036038101906103079190614520565b6109b2565b604051610319919061459d565b60405180910390f35b34801561032d575f5ffd5b50610348600480360381019061034391906146f2565b6109fa565b005b348015610355575f5ffd5b50610370600480360381019061036b9190614776565b610f52565b60405161037d91906147ce565b60405180910390f35b348015610391575f5ffd5b506103ac60048036038101906103a79190614776565b610f7c565b6040516103b991906147ff565b60405180910390f35b3480156103cd575f5ffd5b506103d6610f9c565b6040516103e39190614873565b60405180910390f35b3480156103f7575f5ffd5b50610412600480360381019061040d919061488c565b610fc1565b60405161041f91906144cc565b60405180910390f35b348015610433575f5ffd5b5061044e600480360381019061044991906148b7565b610fd6565b005b34801561045b575f5ffd5b50610476600480360381019061047191906148b7565b6111f5565b005b348015610483575f5ffd5b5061049e600480360381019061049991906148b7565b6113ba565b005b3480156104ab575f5ffd5b506104b46118ec565b6040516104c191906144cc565b60405180910390f35b3480156104d5575f5ffd5b506104f060048036038101906104eb91906148b7565b6118f1565b005b3480156104fd575f5ffd5b50610506611b09565b60405161051391906144cc565b60405180910390f35b348015610527575f5ffd5b50610530611b0f565b60405161053d91906144cc565b60405180910390f35b348015610551575f5ffd5b5061056c600480360381019061056791906148b7565b611b1b565b005b348015610579575f5ffd5b50610582611cee565b005b34801561058f575f5ffd5b50610598611d01565b6040516105a591906144cc565b60405180910390f35b3480156105b9575f5ffd5b506105d460048036038101906105cf91906148b7565b611d07565b005b3480156105e1575f5ffd5b506105ea61229b565b6040516105f79190614873565b60405180910390f35b34801561060b575f5ffd5b5061062660048036038101906106219190614776565b6122c0565b60405161063391906147ce565b60405180910390f35b348015610647575f5ffd5b506106506122ea565b60405161065d919061459d565b60405180910390f35b348015610671575f5ffd5b5061067a612311565b60405161068791906144cc565b60405180910390f35b34801561069b575f5ffd5b506106b660048036038101906106b19190614776565b612317565b6040516106c391906147ce565b60405180910390f35b3480156106d7575f5ffd5b506106f260048036038101906106ed91906148b7565b612341565b005b3480156106ff575f5ffd5b5061071a60048036038101906107159190614776565b612353565b60405161072791906147ff565b60405180910390f35b34801561073b575f5ffd5b5061075660048036038101906107519190614776565b612373565b60405161076391906147ce565b60405180910390f35b348015610777575f5ffd5b50610792600480360381019061078d9190614776565b61239d565b60405161079f91906144cc565b60405180910390f35b3480156107b3575f5ffd5b506107bc6123bd565b6040516107c991906144cc565b60405180910390f35b3480156107dd575f5ffd5b506107e66123c3565b6040516107f3919061459d565b60405180910390f35b348015610807575f5ffd5b50610822600480360381019061081d91906149a6565b6123eb565b005b61082c612889565b005b348015610839575f5ffd5b5061084261297e565b60405161084f9190614873565b60405180910390f35b348015610863575f5ffd5b5061087e6004803603810190610879919061488c565b6129a3565b60405161088b91906144cc565b60405180910390f35b34801561089f575f5ffd5b506108ba60048036038101906108b59190614a59565b6129b8565b005b3480156108c7575f5ffd5b506108e260048036038101906108dd9190614ace565b612dc3565b005b3480156108ef575f5ffd5b506108f86134d2565b60405161090591906144cc565b60405180910390f35b348015610919575f5ffd5b50610934600480360381019061092f919061488c565b6134d8565b005b348015610941575f5ffd5b5061094a61355c565b60405161095791906144cc565b60405180910390f35b34801561096b575f5ffd5b5061098660048036038101906109819190614b2f565b613568565b005b348015610993575f5ffd5b5061099c613c5a565b6040516109a99190614c2b565b60405180910390f35b6014602052815f5260405f2081815481106109cb575f80fd5b905f5260205f20015f915091509054906101000a900473ffffffffffffffffffffffffffffffffffffffff1681565b610a02613c6d565b5f8211610a44576040517f08c379a0000000000000000000000000000000000000000000000000000000008152600401610a3b90614c8e565b60405180910390fd5b6003548214610a88576040517f08c379a0000000000000000000000000000000000000000000000000000000008152600401610a7f90614cf6565b60405180910390fd5b600a5f8381526020019081526020015f205f3373ffffffffffffffffffffffffffffffffffffffff1673ffffffffffffffffffffffffffffffffffffffff1681526020019081526020015f205f9054906101000a900460ff16610b20576040517f08c379a0000000000000000000000000000000000000000000000000000000008152600401610b1790614d5e565b60405180910390fd5b5f5f1b600e5f8481526020019081526020015f205f3373ffffffffffffffffffffffffffffffffffffffff1673ffffffffffffffffffffffffffffffffffffffff1681526020019081526020015f205403610bb0576040517f08c379a0000000000000000000000000000000000000000000000000000000008152600401610ba790614dc6565b60405180910390fd5b60115f8381526020019081526020015f205f3373ffffffffffffffffffffffffffffffffffffffff1673ffffffffffffffffffffffffffffffffffffffff1681526020019081526020015f205f9054906101000a900460ff1615610c49576040517f08c379a0000000000000000000000000000000000000000000000000000000008152600401610c4090614e2e565b60405180910390fd5b601254600f5f8481526020019081526020015f205f3373ffffffffffffffffffffffffffffffffffffffff1673ffffffffffffffffffffffffffffffffffffffff1681526020019081526020015f2054610ca3919061448a565b421015610ce5576040517f08c379a0000000000000000000000000000000000000000000000000000000008152600401610cdc90614e96565b60405180910390fd5b5f81604051602001610cf79190614f06565b604051602081830303815290604052805190602001209050600e5f8481526020019081526020015f205f3373ffffffffffffffffffffffffffffffffffffffff1673ffffffffffffffffffffffffffffffffffffffff1681526020019081526020015f20548114610d9d576040517f08c379a0000000000000000000000000000000000000000000000000000000008152600401610d9490614f66565b60405180910390fd5b8060105f8581526020019081526020015f205f3373ffffffffffffffffffffffffffffffffffffffff1673ffffffffffffffffffffffffffffffffffffffff1681526020019081526020015f2081905550600160115f8581526020019081526020015f205f3373ffffffffffffffffffffffffffffffffffffffff1673ffffffffffffffffffffffffffffffffffffffff1681526020019081526020015f205f6101000a81548160ff0219169083151502179055505f5f1b600e5f8581526020019081526020015f205f3373ffffffffffffffffffffffffffffffffffffffff1673ffffffffffffffffffffffffffffffffffffffff1681526020019081526020015f20819055505f600f5f8581526020019081526020015f205f3373ffffffffffffffffffffffffffffffffffffffff1673ffffffffffffffffffffffffffffffffffffffff1681526020019081526020015f2081905550823373ffffffffffffffffffffffffffffffffffffffff167f59d3b853b3060eb254d2f04ecf2d2fba8ec34ae94835cd01eedead529314f52483604051610f3d91906147ff565b60405180910390a350610f4e613cb3565b5050565b6011602052815f5260405f20602052805f5260405f205f915091509054906101000a900460ff1681565b6010602052815f5260405f20602052805f5260405f205f91509150505481565b60095f9054906101000a900473ffffffffffffffffffffffffffffffffffffffff1681565b6002602052805f5260405f205f915090505481565b610fde613c6d565b5f8111611020576040517f08c379a000000000000000000000000000000000000000000000000000000000815260040161101790614ff4565b60405180910390fd5b8060025f3373ffffffffffffffffffffffffffffffffffffffff1673ffffffffffffffffffffffffffffffffffffffff1681526020019081526020015f205410156110a0576040517f08c379a00000000000000000000000000000000000000000000000000000000081526004016110979061505c565b60405180910390fd5b8060025f3373ffffffffffffffffffffffffffffffffffffffff1673ffffffffffffffffffffffffffffffffffffffff1681526020019081526020015f205f8282546110ec919061507a565b925050819055505f3373ffffffffffffffffffffffffffffffffffffffff1682604051611118906150da565b5f6040518083038185875af1925050503d805f8114611152576040519150601f19603f3d011682016040523d82523d5f602084013e611157565b606091505b505090508061119b576040517f08c379a000000000000000000000000000000000000000000000000000000000815260040161119290615138565b60405180910390fd5b3373ffffffffffffffffffffffffffffffffffffffff167f7fcf532c15f0a6db0bd6d0e038bea71d30d808c7d98cb3bf7268a95bf5081b65836040516111e191906144cc565b60405180910390a2506111f2613cb3565b50565b6111fd613cbc565b611205613c6d565b5f8111611247576040517f08c379a000000000000000000000000000000000000000000000000000000000815260040161123e906151c6565b60405180910390fd5b80600454101561128c576040517f08c379a00000000000000000000000000000000000000000000000000000000081526004016112839061522e565b60405180910390fd5b8060045f82825461129d919061507a565b925050819055505f6112ad6122ea565b73ffffffffffffffffffffffffffffffffffffffff168262030d40906040516112d5906150da565b5f60405180830381858888f193505050503d805f8114611310576040519150601f19603f3d011682016040523d82523d5f602084013e611315565b606091505b5050905080611359576040517f08c379a000000000000000000000000000000000000000000000000000000000815260040161135090615296565b60405180910390fd5b6113616122ea565b73ffffffffffffffffffffffffffffffffffffffff167fa919fadcfa556a012bab31b15f596ea7ccd397adbf10e15f176db9055ab361c4836040516113a691906144cc565b60405180910390a2506113b7613cb3565b50565b6113c2613c6d565b600a5f8281526020019081526020015f205f3373ffffffffffffffffffffffffffffffffffffffff1673ffffffffffffffffffffffffffffffffffffffff1681526020019081526020015f205f9054906101000a900460ff161561145b576040517f08c379a000000000000000000000000000000000000000000000000000000000815260040161145290615324565b60405180910390fd5b600354811461149f576040517f08c379a000000000000000000000000000000000000000000000000000000000815260040161149690614cf6565b60405180910390fd5b5f600354116114e3576040517f08c379a00000000000000000000000000000000000000000000000000000000081526004016114da9061538c565b60405180910390fd5b80600d5f3373ffffffffffffffffffffffffffffffffffffffff1673ffffffffffffffffffffffffffffffffffffffff1681526020019081526020015f2054146115ac575f600c5f3373ffffffffffffffffffffffffffffffffffffffff1673ffffffffffffffffffffffffffffffffffffffff1681526020019081526020015f208190555080600d5f3373ffffffffffffffffffffffffffffffffffffffff1673ffffffffffffffffffffffffffffffffffffffff1681526020019081526020015f20819055505b5f670de0b6b3a76400001115611839575f60085f9054906101000a900473ffffffffffffffffffffffffffffffffffffffff1690505f73ffffffffffffffffffffffffffffffffffffffff168173ffffffffffffffffffffffffffffffffffffffff160361164f576040517f08c379a0000000000000000000000000000000000000000000000000000000008152600401611646906153f4565b60405180910390fd5b5f8173ffffffffffffffffffffffffffffffffffffffff166370a08231306040518263ffffffff1660e01b8152600401611689919061459d565b602060405180830381865afa1580156116a4573d5f5f3e3d5ffd5b505050506040513d601f19601f820116820180604052508101906116c89190615426565b90506116ff3330670de0b6b3a76400008573ffffffffffffffffffffffffffffffffffffffff16613d43909392919063ffffffff16565b5f818373ffffffffffffffffffffffffffffffffffffffff166370a08231306040518263ffffffff1660e01b815260040161173a919061459d565b602060405180830381865afa158015611755573d5f5f3e3d5ffd5b505050506040513d601f19601f820116820180604052508101906117799190615426565b611783919061507a565b9050670de0b6b3a764000081146117cf576040517f08c379a00000000000000000000000000000000000000000000000000000000081526004016117c6906154c1565b60405180910390fd5b838373ffffffffffffffffffffffffffffffffffffffff163373ffffffffffffffffffffffffffffffffffffffff167f1f8e0e31739d887c754fcf7403fe1bdf6641ef33578b9d08631a7d5e6e9b8fb78460405161182d91906144cc565b60405180910390a45050505b6001600a5f8381526020019081526020015f205f3373ffffffffffffffffffffffffffffffffffffffff1673ffffffffffffffffffffffffffffffffffffffff1681526020019081526020015f205f6101000a81548160ff021916908315150217905550803373ffffffffffffffffffffffffffffffffffffffff167fc16481c9484122696a660b57df0bf6839645c6b620cb1704ac2437de13be922560405160405180910390a36118e9613cb3565b50565b600381565b6118f9613cbc565b611901613c6d565b5f8111611943576040517f08c379a000000000000000000000000000000000000000000000000000000000815260040161193a90615529565b60405180910390fd5b60018081111561195657611955614bb8565b5b600960149054906101000a900460ff16600181111561197857611977614bb8565b5b146119b8576040517f08c379a00000000000000000000000000000000000000000000000000000000081526004016119af906155b7565b60405180910390fd5b5f73ffffffffffffffffffffffffffffffffffffffff1660055f9054906101000a900473ffffffffffffffffffffffffffffffffffffffff1673ffffffffffffffffffffffffffffffffffffffff1603611a47576040517f08c379a0000000000000000000000000000000000000000000000000000000008152600401611a3e9061561f565b60405180910390fd5b611a9533308360055f9054906101000a900473ffffffffffffffffffffffffffffffffffffffff1673ffffffffffffffffffffffffffffffffffffffff16613d43909392919063ffffffff16565b8060065f828254611aa6919061448a565b925050819055503373ffffffffffffffffffffffffffffffffffffffff167f4708e702157b1eb6cd00a772e6a623599ac7dc0bad76e8c624fdef050b434f09826001604051611af692919061563d565b60405180910390a2611b06613cb3565b50565b60125481565b67016345785d8a000081565b611b23613cbc565b611b2b613c6d565b5f8111611b6d576040517f08c379a0000000000000000000000000000000000000000000000000000000008152600401611b64906156d4565b60405180910390fd5b806006541015611bb2576040517f08c379a0000000000000000000000000000000000000000000000000000000008152600401611ba99061573c565b60405180910390fd5b5f73ffffffffffffffffffffffffffffffffffffffff1660055f9054906101000a900473ffffffffffffffffffffffffffffffffffffffff1673ffffffffffffffffffffffffffffffffffffffff1603611c41576040517f08c379a0000000000000000000000000000000000000000000000000000000008152600401611c389061561f565b60405180910390fd5b8060065f828254611c52919061507a565b92505081905550611cac611c646122ea565b8260055f9054906101000a900473ffffffffffffffffffffffffffffffffffffffff1673ffffffffffffffffffffffffffffffffffffffff16613dc59092919063ffffffff16565b7f560c2b6d9212838c63f631c64ebc9d7364da90f9af3fdec847c0725dd18330c881604051611cdb91906144cc565b60405180910390a1611ceb613cb3565b50565b611cf6613cbc565b611cff5f613e44565b565b60075481565b611d0f613c6d565b6003548114611d53576040517f08c379a0000000000000000000000000000000000000000000000000000000008152600401611d4a90614cf6565b60405180910390fd5b600a5f8281526020019081526020015f205f3373ffffffffffffffffffffffffffffffffffffffff1673ffffffffffffffffffffffffffffffffffffffff1681526020019081526020015f205f9054906101000a900460ff16611deb576040517f08c379a0000000000000000000000000000000000000000000000000000000008152600401611de2906157ca565b60405180910390fd5b5f73ffffffffffffffffffffffffffffffffffffffff1660095f9054906101000a900473ffffffffffffffffffffffffffffffffffffffff1673ffffffffffffffffffffffffffffffffffffffff1603611e7a576040517f08c379a0000000000000000000000000000000000000000000000000000000008152600401611e7190615832565b60405180910390fd5b6003600c5f3373ffffffffffffffffffffffffffffffffffffffff1673ffffffffffffffffffffffffffffffffffffffff1681526020019081526020015f205410611efa576040517f08c379a0000000000000000000000000000000000000000000000000000000008152600401611ef19061589a565b60405180910390fd5b80600d5f3373ffffffffffffffffffffffffffffffffffffffff1673ffffffffffffffffffffffffffffffffffffffff1681526020019081526020015f205414611fc3575f600c5f3373ffffffffffffffffffffffffffffffffffffffff1673ffffffffffffffffffffffffffffffffffffffff1681526020019081526020015f208190555080600d5f3373ffffffffffffffffffffffffffffffffffffffff1673ffffffffffffffffffffffffffffffffffffffff1681526020019081526020015f20819055505b5f60095f9054906101000a900473ffffffffffffffffffffffffffffffffffffffff1673ffffffffffffffffffffffffffffffffffffffff166370a08231306040518263ffffffff1660e01b815260040161201e919061459d565b602060405180830381865afa158015612039573d5f5f3e3d5ffd5b505050506040513d601f19601f8201168201806040525081019061205d9190615426565b90506120b5333067016345785d8a000060095f9054906101000a900473ffffffffffffffffffffffffffffffffffffffff1673ffffffffffffffffffffffffffffffffffffffff16613d43909392919063ffffffff16565b5f8160095f9054906101000a900473ffffffffffffffffffffffffffffffffffffffff1673ffffffffffffffffffffffffffffffffffffffff166370a08231306040518263ffffffff1660e01b8152600401612111919061459d565b602060405180830381865afa15801561212c573d5f5f3e3d5ffd5b505050506040513d601f19601f820116820180604052508101906121509190615426565b61215a919061507a565b905067016345785d8a000081146121a6576040517f08c379a000000000000000000000000000000000000000000000000000000000815260040161219d90615928565b60405180910390fd5b600c5f3373ffffffffffffffffffffffffffffffffffffffff1673ffffffffffffffffffffffffffffffffffffffff1681526020019081526020015f205f8154809291906121f390615946565b9190505550823373ffffffffffffffffffffffffffffffffffffffff167f98afd9c8b4874dc0b797b810a6a8488429aea97e225fc6e70d948f77660fbee767016345785d8a0000600c5f3373ffffffffffffffffffffffffffffffffffffffff1673ffffffffffffffffffffffffffffffffffffffff1681526020019081526020015f205460405161228692919061598d565b60405180910390a35050612298613cb3565b50565b60085f9054906101000a900473ffffffffffffffffffffffffffffffffffffffff1681565b600b602052815f5260405f20602052805f5260405f205f915091509054906101000a900460ff1681565b5f5f5f9054906101000a900473ffffffffffffffffffffffffffffffffffffffff16905090565b60045481565b600a602052815f5260405f20602052805f5260405f205f915091509054906101000a900460ff1681565b612349613cbc565b8060128190555050565b600e602052815f5260405f20602052805f5260405f205f91509150505481565b6015602052815f5260405f20602052805f5260405f205f915091509054906101000a900460ff1681565b600f602052815f5260405f20602052805f5260405f205f91509150505481565b60065481565b5f60055f9054906101000a900473ffffffffffffffffffffffffffffffffffffffff16905090565b6123f3613cbc565b6123fb613c6d565b5f821161243d576040517f08c379a000000000000000000000000000000000000000000000000000000000815260040161243490615a24565b60405180910390fd5b600354821115612482576040517f08c379a000000000000000000000000000000000000000000000000000000000815260040161247990615ab2565b60405180910390fd5b5f8151116124c5576040517f08c379a00000000000000000000000000000000000000000000000000000000081526004016124bc90615b1a565b60405180910390fd5b5f81516007546124d59190615b65565b90505f8111612519576040517f08c379a000000000000000000000000000000000000000000000000000000000815260040161251090615c05565b60405180910390fd5b5f5f90505f5f90505b83518110156125be57600b5f8681526020019081526020015f205f8583815181106125505761254f615c23565b5b602002602001015173ffffffffffffffffffffffffffffffffffffffff1673ffffffffffffffffffffffffffffffffffffffff1681526020019081526020015f205f9054906101000a900460ff166125b15781806125ad90615946565b9250505b8080600101915050612522565b505f8111612601576040517f08c379a00000000000000000000000000000000000000000000000000000000081526004016125f890615c9a565b60405180910390fd5b5f818361260e9190615cb8565b90505f600181111561262357612622614bb8565b5b600960149054906101000a900460ff16600181111561264557612644614bb8565b5b036126945780600454101561268f576040517f08c379a000000000000000000000000000000000000000000000000000000000815260040161268690615d69565b60405180910390fd5b612715565b6001808111156126a7576126a6614bb8565b5b600960149054906101000a900460ff1660018111156126c9576126c8614bb8565b5b0361271457806006541015612713576040517f08c379a000000000000000000000000000000000000000000000000000000000815260040161270a90615df7565b60405180910390fd5b5b5b5f5f90505f5f90505b855181101561282d575f86828151811061273b5761273a615c23565b5b60200260200101519050600b5f8981526020019081526020015f205f8273ffffffffffffffffffffffffffffffffffffffff1673ffffffffffffffffffffffffffffffffffffffff1681526020019081526020015f205f9054906101000a900460ff1661281f576001600b5f8a81526020019081526020015f205f8373ffffffffffffffffffffffffffffffffffffffff1673ffffffffffffffffffffffffffffffffffffffff1681526020019081526020015f205f6101000a81548160ff0219169083151502179055506128108187613f05565b828061281b90615946565b9350505b50808060010191505061271e565b50857f05b3fb943ea68b7671b7ed75aaf73035d0a2b890f252f1fab94052394cd6db8e8284600960149054906101000a900460ff1660405161287193929190615e15565b60405180910390a250505050612885613cb3565b5050565b612891613c6d565b5f34116128d3576040517f08c379a00000000000000000000000000000000000000000000000000000000081526004016128ca90615eba565b60405180910390fd5b3460025f3373ffffffffffffffffffffffffffffffffffffffff1673ffffffffffffffffffffffffffffffffffffffff1681526020019081526020015f205f82825461291f919061448a565b925050819055503373ffffffffffffffffffffffffffffffffffffffff167fe1fffcc4923d04b559f4d29a8bfc6cda04eb5b0d3c460751c2402c5c5cc9109c3460405161296c91906144cc565b60405180910390a261297c613cb3565b565b60055f9054906101000a900473ffffffffffffffffffffffffffffffffffffffff1681565b600c602052805f5260405f205f915090505481565b6129c0613c6d565b5f60035411612a04576040517f08c379a00000000000000000000000000000000000000000000000000000000081526004016129fb9061538c565b60405180910390fd5b600a5f60035481526020019081526020015f205f3373ffffffffffffffffffffffffffffffffffffffff1673ffffffffffffffffffffffffffffffffffffffff1681526020019081526020015f205f9054906101000a900460ff16612a9e576040517f08c379a0000000000000000000000000000000000000000000000000000000008152600401612a9590614d5e565b60405180910390fd5b600b5f60035481526020019081526020015f205f3373ffffffffffffffffffffffffffffffffffffffff1673ffffffffffffffffffffffffffffffffffffffff1681526020019081526020015f205f9054906101000a900460ff1615612b39576040517f08c379a0000000000000000000000000000000000000000000000000000000008152600401612b3090615f22565b60405180910390fd5b60115f60035481526020019081526020015f205f3373ffffffffffffffffffffffffffffffffffffffff1673ffffffffffffffffffffffffffffffffffffffff1681526020019081526020015f205f9054906101000a900460ff16612bd3576040517f08c379a0000000000000000000000000000000000000000000000000000000008152600401612bca90615f8a565b60405180910390fd5b8181604051602001612be6929190615fcc565b6040516020818303038152906040528051906020012060105f60035481526020019081526020015f205f3373ffffffffffffffffffffffffffffffffffffffff1673ffffffffffffffffffffffffffffffffffffffff1681526020019081526020015f205414612c8b576040517f08c379a0000000000000000000000000000000000000000000000000000000008152600401612c8290616054565b60405180910390fd5b6001600b5f60035481526020019081526020015f205f3373ffffffffffffffffffffffffffffffffffffffff1673ffffffffffffffffffffffffffffffffffffffff1681526020019081526020015f205f6101000a81548160ff021916908315150217905550612cfd33600754613f05565b5f5f1b60105f60035481526020019081526020015f205f3373ffffffffffffffffffffffffffffffffffffffff1673ffffffffffffffffffffffffffffffffffffffff1681526020019081526020015f20819055505f60115f60035481526020019081526020015f205f3373ffffffffffffffffffffffffffffffffffffffff1673ffffffffffffffffffffffffffffffffffffffff1681526020019081526020015f205f6101000a81548160ff021916908315150217905550612dbf613cb3565b5050565b612dcb613c6d565b5f8211612e0d576040517f08c379a0000000000000000000000000000000000000000000000000000000008152600401612e0490614c8e565b60405180910390fd5b6003548214612e51576040517f08c379a0000000000000000000000000000000000000000000000000000000008152600401612e4890614cf6565b60405180910390fd5b5f5f1b8103612e95576040517f08c379a0000000000000000000000000000000000000000000000000000000008152600401612e8c906160bc565b60405180910390fd5b600a5f8381526020019081526020015f205f3373ffffffffffffffffffffffffffffffffffffffff1673ffffffffffffffffffffffffffffffffffffffff1681526020019081526020015f205f9054906101000a900460ff16612f2d576040517f08c379a0000000000000000000000000000000000000000000000000000000008152600401612f2490614d5e565b60405180910390fd5b5f5f1b600e5f8481526020019081526020015f205f3373ffffffffffffffffffffffffffffffffffffffff1673ffffffffffffffffffffffffffffffffffffffff1681526020019081526020015f2054146131ae575f600c5f3373ffffffffffffffffffffffffffffffffffffffff1673ffffffffffffffffffffffffffffffffffffffff1681526020019081526020015f205411613001576040517f08c379a0000000000000000000000000000000000000000000000000000000008152600401612ff890616124565b60405180910390fd5b600c5f3373ffffffffffffffffffffffffffffffffffffffff1673ffffffffffffffffffffffffffffffffffffffff1681526020019081526020015f205f81548092919061304e90616142565b91905055505f5f1b600e5f8481526020019081526020015f205f3373ffffffffffffffffffffffffffffffffffffffff1673ffffffffffffffffffffffffffffffffffffffff1681526020019081526020015f20819055505f600f5f8481526020019081526020015f205f3373ffffffffffffffffffffffffffffffffffffffff1673ffffffffffffffffffffffffffffffffffffffff1681526020019081526020015f20819055505f5f1b60105f8481526020019081526020015f205f3373ffffffffffffffffffffffffffffffffffffffff1673ffffffffffffffffffffffffffffffffffffffff1681526020019081526020015f20819055505f60115f8481526020019081526020015f205f3373ffffffffffffffffffffffffffffffffffffffff1673ffffffffffffffffffffffffffffffffffffffff1681526020019081526020015f205f6101000a81548160ff0219169083151502179055505b60135481036133835760155f8381526020019081526020015f205f3373ffffffffffffffffffffffffffffffffffffffff1673ffffffffffffffffffffffffffffffffffffffff1681526020019081526020015f205f9054906101000a900460ff1661332c5760145f8381526020019081526020015f2033908060018154018082558091505060019003905f5260205f20015f9091909190916101000a81548173ffffffffffffffffffffffffffffffffffffffff021916908373ffffffffffffffffffffffffffffffffffffffff160217905550600160155f8481526020019081526020015f205f3373ffffffffffffffffffffffffffffffffffffffff1673ffffffffffffffffffffffffffffffffffffffff1681526020019081526020015f205f6101000a81548160ff021916908315150217905550813373ffffffffffffffffffffffffffffffffffffffff167fb5d93c368c4bd18876654db9fd5dcef5a3583ccde4d81659e7f309f36c84490560405160405180910390a35b3373ffffffffffffffffffffffffffffffffffffffff16827f6dbad7911810fc45c016aff41534b7adcd5477454a9b5be0d995a93518cde675426001604051613376929190616169565b60405180910390a36133d5565b3373ffffffffffffffffffffffffffffffffffffffff16827f6dbad7911810fc45c016aff41534b7adcd5477454a9b5be0d995a93518cde675425f6040516133cc929190616169565b60405180910390a35b80600e5f8481526020019081526020015f205f3373ffffffffffffffffffffffffffffffffffffffff1673ffffffffffffffffffffffffffffffffffffffff1681526020019081526020015f208190555042600f5f8481526020019081526020015f205f3373ffffffffffffffffffffffffffffffffffffffff1673ffffffffffffffffffffffffffffffffffffffff1681526020019081526020015f2081905550813373ffffffffffffffffffffffffffffffffffffffff167fc5009e6865ae04f58da43f80d7eb9718a2f25a7ccfeb22a8ca0031e77b86b50a836040516134be91906147ff565b60405180910390a36134ce613cb3565b5050565b60035481565b6134e0613cbc565b5f73ffffffffffffffffffffffffffffffffffffffff168173ffffffffffffffffffffffffffffffffffffffff1603613550575f6040517f1e4fbdf7000000000000000000000000000000000000000000000000000000008152600401613547919061459d565b60405180910390fd5b61355981613e44565b50565b670de0b6b3a764000081565b613570613cbc565b5f86116135b2576040517f08c379a00000000000000000000000000000000000000000000000000000000081526004016135a990614c8e565b60405180910390fd5b60035486116135f6576040517f08c379a00000000000000000000000000000000000000000000000000000000081526004016135ed90616200565b60405180910390fd5b5f8211613638576040517f08c379a000000000000000000000000000000000000000000000000000000000815260040161362f9061628e565b60405180910390fd5b60018081111561364b5761364a614bb8565b5b84600181111561365e5761365d614bb8565b5b03613817575f73ffffffffffffffffffffffffffffffffffffffff168373ffffffffffffffffffffffffffffffffffffffff16036136d1576040517f08c379a00000000000000000000000000000000000000000000000000000000081526004016136c89061631c565b60405180910390fd5b5f8373ffffffffffffffffffffffffffffffffffffffff163b1161372a576040517f08c379a000000000000000000000000000000000000000000000000000000000815260040161372190616384565b60405180910390fd5b8273ffffffffffffffffffffffffffffffffffffffff166318160ddd6040518163ffffffff1660e01b8152600401602060405180830381865afa92505050801561379257506040513d601f19601f8201168201806040525081019061378f9190615426565b60015b6137d1576040517f08c379a00000000000000000000000000000000000000000000000000000000081526004016137c890616412565b60405180910390fd5b508260055f6101000a81548173ffffffffffffffffffffffffffffffffffffffff021916908373ffffffffffffffffffffffffffffffffffffffff1602179055506138c6565b5f73ffffffffffffffffffffffffffffffffffffffff168373ffffffffffffffffffffffffffffffffffffffff1614613885576040517f08c379a000000000000000000000000000000000000000000000000000000000815260040161387c906164a0565b60405180910390fd5b5f60055f6101000a81548173ffffffffffffffffffffffffffffffffffffffff021916908373ffffffffffffffffffffffffffffffffffffffff1602179055505b5f670de0b6b3a76400001115613a8a575f73ffffffffffffffffffffffffffffffffffffffff168173ffffffffffffffffffffffffffffffffffffffff1603613944576040517f08c379a000000000000000000000000000000000000000000000000000000000815260040161393b90616554565b60405180910390fd5b5f8173ffffffffffffffffffffffffffffffffffffffff163b1161399d576040517f08c379a0000000000000000000000000000000000000000000000000000000008152600401613994906165e2565b60405180910390fd5b8073ffffffffffffffffffffffffffffffffffffffff166318160ddd6040518163ffffffff1660e01b8152600401602060405180830381865afa925050508015613a0557506040513d601f19601f82011682018060405250810190613a029190615426565b60015b613a44576040517f08c379a0000000000000000000000000000000000000000000000000000000008152600401613a3b90616670565b60405180910390fd5b508060085f6101000a81548173ffffffffffffffffffffffffffffffffffffffff021916908373ffffffffffffffffffffffffffffffffffffffff160217905550613b39565b5f73ffffffffffffffffffffffffffffffffffffffff168173ffffffffffffffffffffffffffffffffffffffff1614613af8576040517f08c379a0000000000000000000000000000000000000000000000000000000008152600401613aef906166fe565b60405180910390fd5b5f60085f6101000a81548173ffffffffffffffffffffffffffffffffffffffff021916908373ffffffffffffffffffffffffffffffffffffffff1602179055505b5f60045414613b7d576040517f08c379a0000000000000000000000000000000000000000000000000000000008152600401613b749061678c565b60405180910390fd5b5f60065414613bc1576040517f08c379a0000000000000000000000000000000000000000000000000000000008152600401613bb89061681a565b60405180910390fd5b856003819055508460138190555083600960146101000a81548160ff02191690836001811115613bf457613bf3614bb8565b5b021790555081600781905550857f05227007ca99c4e41f51fb024dcb2065e16bd026db353ce7f322e5cdb4fb2e9d86866001811115613c3657613c35614bb8565b5b868686604051613c4a959493929190616853565b60405180910390a2505050505050565b600960149054906101000a900460ff1681565b600260015403613ca9576040517f3ee5aeb500000000000000000000000000000000000000000000000000000000815260040160405180910390fd5b6002600181905550565b60018081905550565b613cc4614314565b73ffffffffffffffffffffffffffffffffffffffff16613ce26122ea565b73ffffffffffffffffffffffffffffffffffffffff1614613d4157613d05614314565b6040517f118cdaa7000000000000000000000000000000000000000000000000000000008152600401613d38919061459d565b60405180910390fd5b565b613dbf848573ffffffffffffffffffffffffffffffffffffffff166323b872dd868686604051602401613d78939291906168a4565b604051602081830303815290604052915060e01b6020820180517bffffffffffffffffffffffffffffffffffffffffffffffffffffffff838183161783525050505061431b565b50505050565b613e3f838473ffffffffffffffffffffffffffffffffffffffff1663a9059cbb8585604051602401613df89291906168d9565b604051602081830303815290604052915060e01b6020820180517bffffffffffffffffffffffffffffffffffffffffffffffffffffffff838183161783525050505061431b565b505050565b5f5f5f9054906101000a900473ffffffffffffffffffffffffffffffffffffffff169050815f5f6101000a81548173ffffffffffffffffffffffffffffffffffffffff021916908373ffffffffffffffffffffffffffffffffffffffff1602179055508173ffffffffffffffffffffffffffffffffffffffff168173ffffffffffffffffffffffffffffffffffffffff167f8be0079c531659141344cd1fd0a4f28419497f9722a3daafe3b4186f6b6457e060405160405180910390a35050565b5f73ffffffffffffffffffffffffffffffffffffffff168273ffffffffffffffffffffffffffffffffffffffff1603613f73576040517f08c379a0000000000000000000000000000000000000000000000000000000008152600401613f6a9061694a565b60405180910390fd5b5f8111613fb5576040517f08c379a0000000000000000000000000000000000000000000000000000000008152600401613fac9061628e565b60405180910390fd5b5f6001811115613fc857613fc7614bb8565b5b600960149054906101000a900460ff166001811115613fea57613fe9614bb8565b5b0361413d57806004541015614034576040517f08c379a000000000000000000000000000000000000000000000000000000000815260040161402b906169d8565b60405180910390fd5b80471015614077576040517f08c379a000000000000000000000000000000000000000000000000000000000815260040161406e90616a66565b60405180910390fd5b8060045f828254614088919061507a565b925050819055505f8273ffffffffffffffffffffffffffffffffffffffff16826040516140b4906150da565b5f6040518083038185875af1925050503d805f81146140ee576040519150601f19603f3d011682016040523d82523d5f602084013e6140f3565b606091505b5050905080614137576040517f08c379a000000000000000000000000000000000000000000000000000000000815260040161412e90616ace565b60405180910390fd5b506142b1565b6001808111156141505761414f614bb8565b5b600960149054906101000a900460ff16600181111561417257614171614bb8565b5b036142b0575f73ffffffffffffffffffffffffffffffffffffffff1660055f9054906101000a900473ffffffffffffffffffffffffffffffffffffffff1673ffffffffffffffffffffffffffffffffffffffff1603614206576040517f08c379a00000000000000000000000000000000000000000000000000000000081526004016141fd9061561f565b60405180910390fd5b80600654101561424b576040517f08c379a000000000000000000000000000000000000000000000000000000000815260040161424290616b5c565b60405180910390fd5b8060065f82825461425c919061507a565b925050819055506142af828260055f9054906101000a900473ffffffffffffffffffffffffffffffffffffffff1673ffffffffffffffffffffffffffffffffffffffff16613dc59092919063ffffffff16565b5b5b8173ffffffffffffffffffffffffffffffffffffffff167fff43c2705b2225c1c9d9d58f088ab64d4fc767737dee523bed37f15fb0c6c3de82600960149054906101000a900460ff1660405161430892919061563d565b60405180910390a25050565b5f33905090565b5f5f60205f8451602086015f885af18061433a576040513d5f823e3d81fd5b3d92505f519150505f821461435357600181141561436e565b5f8473ffffffffffffffffffffffffffffffffffffffff163b145b156143b057836040517f5274afe70000000000000000000000000000000000000000000000000000000081526004016143a7919061459d565b60405180910390fd5b50505050565b5f82825260208201905092915050565b7f45544820616d6f756e74206d7573742062652067726561746572207468616e205f8201527f7a65726f00000000000000000000000000000000000000000000000000000000602082015250565b5f6144206024836143b6565b915061442b826143c6565b604082019050919050565b5f6020820190508181035f83015261444d81614414565b9050919050565b5f819050919050565b7f4e487b71000000000000000000000000000000000000000000000000000000005f52601160045260245ffd5b5f61449482614454565b915061449f83614454565b92508282019050808211156144b7576144b661445d565b5b92915050565b6144c681614454565b82525050565b5f6020820190506144df5f8301846144bd565b92915050565b5f604051905090565b5f5ffd5b5f5ffd5b6144ff81614454565b8114614509575f5ffd5b50565b5f8135905061451a816144f6565b92915050565b5f5f60408385031215614536576145356144ee565b5b5f6145438582860161450c565b92505060206145548582860161450c565b9150509250929050565b5f73ffffffffffffffffffffffffffffffffffffffff82169050919050565b5f6145878261455e565b9050919050565b6145978161457d565b82525050565b5f6020820190506145b05f83018461458e565b92915050565b5f5ffd5b5f5ffd5b5f601f19601f8301169050919050565b7f4e487b71000000000000000000000000000000000000000000000000000000005f52604160045260245ffd5b614604826145be565b810181811067ffffffffffffffff82111715614623576146226145ce565b5b80604052505050565b5f6146356144e5565b905061464182826145fb565b919050565b5f67ffffffffffffffff8211156146605761465f6145ce565b5b614669826145be565b9050602081019050919050565b828183375f83830152505050565b5f61469661469184614646565b61462c565b9050828152602081018484840111156146b2576146b16145ba565b5b6146bd848285614676565b509392505050565b5f82601f8301126146d9576146d86145b6565b5b81356146e9848260208601614684565b91505092915050565b5f5f60408385031215614708576147076144ee565b5b5f6147158582860161450c565b925050602083013567ffffffffffffffff811115614736576147356144f2565b5b614742858286016146c5565b9150509250929050565b6147558161457d565b811461475f575f5ffd5b50565b5f813590506147708161474c565b92915050565b5f5f6040838503121561478c5761478b6144ee565b5b5f6147998582860161450c565b92505060206147aa85828601614762565b9150509250929050565b5f8115159050919050565b6147c8816147b4565b82525050565b5f6020820190506147e15f8301846147bf565b92915050565b5f819050919050565b6147f9816147e7565b82525050565b5f6020820190506148125f8301846147f0565b92915050565b5f819050919050565b5f61483b6148366148318461455e565b614818565b61455e565b9050919050565b5f61484c82614821565b9050919050565b5f61485d82614842565b9050919050565b61486d81614853565b82525050565b5f6020820190506148865f830184614864565b92915050565b5f602082840312156148a1576148a06144ee565b5b5f6148ae84828501614762565b91505092915050565b5f602082840312156148cc576148cb6144ee565b5b5f6148d98482850161450c565b91505092915050565b5f67ffffffffffffffff8211156148fc576148fb6145ce565b5b602082029050602081019050919050565b5f5ffd5b5f61492361491e846148e2565b61462c565b905080838252602082019050602084028301858111156149465761494561490d565b5b835b8181101561496f578061495b8882614762565b845260208401935050602081019050614948565b5050509392505050565b5f82601f83011261498d5761498c6145b6565b5b813561499d848260208601614911565b91505092915050565b5f5f604083850312156149bc576149bb6144ee565b5b5f6149c98582860161450c565b925050602083013567ffffffffffffffff8111156149ea576149e96144f2565b5b6149f685828601614979565b9150509250929050565b5f5ffd5b5f5f83601f840112614a1957614a186145b6565b5b8235905067ffffffffffffffff811115614a3657614a35614a00565b5b602083019150836001820283011115614a5257614a5161490d565b5b9250929050565b5f5f60208385031215614a6f57614a6e6144ee565b5b5f83013567ffffffffffffffff811115614a8c57614a8b6144f2565b5b614a9885828601614a04565b92509250509250929050565b614aad816147e7565b8114614ab7575f5ffd5b50565b5f81359050614ac881614aa4565b92915050565b5f5f60408385031215614ae457614ae36144ee565b5b5f614af18582860161450c565b9250506020614b0285828601614aba565b9150509250929050565b60028110614b18575f5ffd5b50565b5f81359050614b2981614b0c565b92915050565b5f5f5f5f5f5f60c08789031215614b4957614b486144ee565b5b5f614b5689828a0161450c565b9650506020614b6789828a01614aba565b9550506040614b7889828a01614b1b565b9450506060614b8989828a01614762565b9350506080614b9a89828a0161450c565b92505060a0614bab89828a01614762565b9150509295509295509295565b7f4e487b71000000000000000000000000000000000000000000000000000000005f52602160045260245ffd5b60028110614bf657614bf5614bb8565b5b50565b5f819050614c0682614be5565b919050565b5f614c1582614bf9565b9050919050565b614c2581614c0b565b82525050565b5f602082019050614c3e5f830184614c1c565b92915050565b7f526964646c652049442063616e6e6f74206265207a65726f00000000000000005f82015250565b5f614c786018836143b6565b9150614c8382614c44565b602082019050919050565b5f6020820190508181035f830152614ca581614c6c565b9050919050565b7f4e6f74207468652061637469766520726964646c6520494400000000000000005f82015250565b5f614ce06018836143b6565b9150614ceb82614cac565b602082019050919050565b5f6020820190508181035f830152614d0d81614cd4565b9050919050565b7f4d75737420656e746572207468652067616d65206669727374000000000000005f82015250565b5f614d486019836143b6565b9150614d5382614d14565b602082019050919050565b5f6020820190508181035f830152614d7581614d3c565b9050919050565b7f4e6f20636f6d6d697474656420677565737300000000000000000000000000005f82015250565b5f614db06012836143b6565b9150614dbb82614d7c565b602082019050919050565b5f6020820190508181035f830152614ddd81614da4565b9050919050565b7f416c72656164792072657665616c6564000000000000000000000000000000005f82015250565b5f614e186010836143b6565b9150614e2382614de4565b602082019050919050565b5f6020820190508181035f830152614e4581614e0c565b9050919050565b7f52657665616c20746f6f206561726c79000000000000000000000000000000005f82015250565b5f614e806010836143b6565b9150614e8b82614e4c565b602082019050919050565b5f6020820190508181035f830152614ead81614e74565b9050919050565b5f81519050919050565b5f81905092915050565b8281835e5f83830152505050565b5f614ee082614eb4565b614eea8185614ebe565b9350614efa818560208601614ec8565b80840191505092915050565b5f614f118284614ed6565b915081905092915050565b7f52657665616c20646f6573206e6f74206d6174636820636f6d6d6974000000005f82015250565b5f614f50601c836143b6565b9150614f5b82614f1c565b602082019050919050565b5f6020820190508181035f830152614f7d81614f44565b9050919050565b7f5769746864726177616c20616d6f756e74206d757374206265206772656174655f8201527f72207468616e207a65726f000000000000000000000000000000000000000000602082015250565b5f614fde602b836143b6565b9150614fe982614f84565b604082019050919050565b5f6020820190508181035f83015261500b81614fd2565b9050919050565b7f496e73756666696369656e742062616c616e63650000000000000000000000005f82015250565b5f6150466014836143b6565b915061505182615012565b602082019050919050565b5f6020820190508181035f8301526150738161503a565b9050919050565b5f61508482614454565b915061508f83614454565b92508282039050818111156150a7576150a661445d565b5b92915050565b5f81905092915050565b50565b5f6150c55f836150ad565b91506150d0826150b7565b5f82019050919050565b5f6150e4826150ba565b9150819050919050565b7f5769746864726177616c206661696c65640000000000000000000000000000005f82015250565b5f6151226011836143b6565b915061512d826150ee565b602082019050919050565b5f6020820190508181035f83015261514f81615116565b9050919050565b7f4f776e6572207769746864726177616c20616d6f756e74206d757374206265205f8201527f67726561746572207468616e207a65726f000000000000000000000000000000602082015250565b5f6151b06031836143b6565b91506151bb82615156565b604082019050919050565b5f6020820190508181035f8301526151dd816151a4565b9050919050565b7f496e73756666696369656e7420455448207072697a6520706f6f6c00000000005f82015250565b5f615218601b836143b6565b9150615223826151e4565b602082019050919050565b5f6020820190508181035f8301526152458161520c565b9050919050565b7f4f776e6572207769746864726177616c206661696c65640000000000000000005f82015250565b5f6152806017836143b6565b915061528b8261524c565b602082019050919050565b5f6020820190508181035f8301526152ad81615274565b9050919050565b7f416c72656164792070617274696369706174656420696e2074686973207269645f8201527f646c650000000000000000000000000000000000000000000000000000000000602082015250565b5f61530e6023836143b6565b9150615319826152b4565b604082019050919050565b5f6020820190508181035f83015261533b81615302565b9050919050565b7f4e6f2061637469766520726964646c65000000000000000000000000000000005f82015250565b5f6153766010836143b6565b915061538182615342565b602082019050919050565b5f6020820190508181035f8301526153a38161536a565b9050919050565b7f456e7472792066656520746f6b656e206e6f74207365740000000000000000005f82015250565b5f6153de6017836143b6565b91506153e9826153aa565b602082019050919050565b5f6020820190508181035f83015261540b816153d2565b9050919050565b5f81519050615420816144f6565b92915050565b5f6020828403121561543b5761543a6144ee565b5b5f61544884828501615412565b91505092915050565b7f456e74727920666565206d69736d617463682028464f54206e6f7420737570705f8201527f6f72746564290000000000000000000000000000000000000000000000000000602082015250565b5f6154ab6026836143b6565b91506154b682615451565b604082019050919050565b5f6020820190508181035f8301526154d88161549f565b9050919050565b7f416d6f756e74206d7573742062652067726561746572207468616e207a65726f5f82015250565b5f6155136020836143b6565b915061551e826154df565b602082019050919050565b5f6020820190508181035f83015261554081615507565b9050919050565b7f43757272656e7420726964646c65207072697a65206973206e6f7420455243325f8201527f3000000000000000000000000000000000000000000000000000000000000000602082015250565b5f6155a16021836143b6565b91506155ac82615547565b604082019050919050565b5f6020820190508181035f8301526155ce81615595565b9050919050565b7f5072697a6520746f6b656e206e6f7420736574000000000000000000000000005f82015250565b5f6156096013836143b6565b9150615614826155d5565b602082019050919050565b5f6020820190508181035f830152615636816155fd565b9050919050565b5f6040820190506156505f8301856144bd565b61565d6020830184614c1c565b9392505050565b7f4f776e657220746f6b656e207769746864726177616c20616d6f756e74206d755f8201527f73742062652067726561746572207468616e207a65726f000000000000000000602082015250565b5f6156be6037836143b6565b91506156c982615664565b604082019050919050565b5f6020820190508181035f8301526156eb816156b2565b9050919050565b7f496e73756666696369656e7420746f6b656e207072697a6520706f6f6c0000005f82015250565b5f615726601d836143b6565b9150615731826156f2565b602082019050919050565b5f6020820190508181035f8301526157538161571a565b9050919050565b7f4d75737420706172746963697061746520696e2074686520726964646c6520665f8201527f6972737400000000000000000000000000000000000000000000000000000000602082015250565b5f6157b46024836143b6565b91506157bf8261575a565b604082019050919050565b5f6020820190508181035f8301526157e1816157a8565b9050919050565b7f526574727920746f6b656e206e6f7420736574000000000000000000000000005f82015250565b5f61581c6013836143b6565b9150615827826157e8565b602082019050919050565b5f6020820190508181035f83015261584981615810565b9050919050565b7f4d617820726574726965732072656163686564000000000000000000000000005f82015250565b5f6158846013836143b6565b915061588f82615850565b602082019050919050565b5f6020820190508181035f8301526158b181615878565b9050919050565b7f526574727920636f7374206d69736d617463682028464f54206e6f74207375705f8201527f706f727465642900000000000000000000000000000000000000000000000000602082015250565b5f6159126027836143b6565b915061591d826158b8565b604082019050919050565b5f6020820190508181035f83015261593f81615906565b9050919050565b5f61595082614454565b91507fffffffffffffffffffffffffffffffffffffffffffffffffffffffffffffffff82036159825761598161445d565b5b600182019050919050565b5f6040820190506159a05f8301856144bd565b6159ad60208301846144bd565b9392505050565b7f526964646c65204944206d7573742062652067726561746572207468616e207a5f8201527f65726f0000000000000000000000000000000000000000000000000000000000602082015250565b5f615a0e6023836143b6565b9150615a19826159b4565b604082019050919050565b5f6020820190508181035f830152615a3b81615a02565b9050919050565b7f526964646c65204944206d7573742062652063757272656e74206f72207061735f8201527f7400000000000000000000000000000000000000000000000000000000000000602082015250565b5f615a9c6021836143b6565b9150615aa782615a42565b604082019050919050565b5f6020820190508181035f830152615ac981615a90565b9050919050565b7f57696e6e6572732061727261792063616e6e6f7420626520656d7074790000005f82015250565b5f615b04601d836143b6565b9150615b0f82615ad0565b602082019050919050565b5f6020820190508181035f830152615b3181615af8565b9050919050565b7f4e487b71000000000000000000000000000000000000000000000000000000005f52601260045260245ffd5b5f615b6f82614454565b9150615b7a83614454565b925082615b8a57615b89615b38565b5b828204905092915050565b7f5065722d77696e6e657220616d6f756e74206d757374206265206772656174655f8201527f72207468616e207a65726f000000000000000000000000000000000000000000602082015250565b5f615bef602b836143b6565b9150615bfa82615b95565b604082019050919050565b5f6020820190508181035f830152615c1c81615be3565b9050919050565b7f4e487b71000000000000000000000000000000000000000000000000000000005f52603260045260245ffd5b7f4e6f206e65772077696e6e65727320746f20706179206f7574000000000000005f82015250565b5f615c846019836143b6565b9150615c8f82615c50565b602082019050919050565b5f6020820190508181035f830152615cb181615c78565b9050919050565b5f615cc282614454565b9150615ccd83614454565b9250828202615cdb81614454565b91508282048414831517615cf257615cf161445d565b5b5092915050565b7f496e73756666696369656e7420455448207072697a6520706f6f6c2062616c615f8201527f6e636520666f72207061796f7574000000000000000000000000000000000000602082015250565b5f615d53602e836143b6565b9150615d5e82615cf9565b604082019050919050565b5f6020820190508181035f830152615d8081615d47565b9050919050565b7f496e73756666696369656e74204552433230207072697a6520706f6f6c2062615f8201527f6c616e636520666f72207061796f757400000000000000000000000000000000602082015250565b5f615de16030836143b6565b9150615dec82615d87565b604082019050919050565b5f6020820190508181035f830152615e0e81615dd5565b9050919050565b5f606082019050615e285f8301866144bd565b615e3560208301856144bd565b615e426040830184614c1c565b949350505050565b7f4465706f73697420616d6f756e74206d757374206265206772656174657220745f8201527f68616e207a65726f000000000000000000000000000000000000000000000000602082015250565b5f615ea46028836143b6565b9150615eaf82615e4a565b604082019050919050565b5f6020820190508181035f830152615ed181615e98565b9050919050565b7f416c726561647920636c61696d656400000000000000000000000000000000005f82015250565b5f615f0c600f836143b6565b9150615f1782615ed8565b602082019050919050565b5f6020820190508181035f830152615f3981615f00565b9050919050565b7f4d7573742072657665616c206775657373206265666f726520736f6c76696e675f82015250565b5f615f746020836143b6565b9150615f7f82615f40565b602082019050919050565b5f6020820190508181035f830152615fa181615f68565b9050919050565b5f615fb38385614ebe565b9350615fc0838584614676565b82840190509392505050565b5f615fd8828486615fa8565b91508190509392505050565b7f52657665616c656420677565737320646f6573206e6f74206d617463682070725f8201527f6f766964656420616e7377657200000000000000000000000000000000000000602082015250565b5f61603e602d836143b6565b915061604982615fe4565b604082019050919050565b5f6020820190508181035f83015261606b81616032565b9050919050565b7f477565737320686173682063616e6e6f74206265207a65726f000000000000005f82015250565b5f6160a66019836143b6565b91506160b182616072565b602082019050919050565b5f6020820190508181035f8301526160d38161609a565b9050919050565b7f4e6f207265747269657320617661696c61626c650000000000000000000000005f82015250565b5f61610e6014836143b6565b9150616119826160da565b602082019050919050565b5f6020820190508181035f83015261613b81616102565b9050919050565b5f61614c82614454565b91505f820361615e5761615d61445d565b5b600182039050919050565b5f60408201905061617c5f8301856144bd565b61618960208301846147bf565b9392505050565b7f526964646c65204944206d7573742062652067726561746572207468616e20635f8201527f757272656e740000000000000000000000000000000000000000000000000000602082015250565b5f6161ea6026836143b6565b91506161f582616190565b604082019050919050565b5f6020820190508181035f830152616217816161de565b9050919050565b7f5072697a6520616d6f756e74206d7573742062652067726561746572207468615f8201527f6e207a65726f0000000000000000000000000000000000000000000000000000602082015250565b5f6162786026836143b6565b91506162838261621e565b604082019050919050565b5f6020820190508181035f8301526162a58161626c565b9050919050565b7f5072697a6520746f6b656e20616464726573732063616e6e6f74206265207a655f8201527f726f20666f72204552433230207072697a650000000000000000000000000000602082015250565b5f6163066032836143b6565b9150616311826162ac565b604082019050919050565b5f6020820190508181035f830152616333816162fa565b9050919050565b7f5072697a6520746f6b656e20686173206e6f20636f6e747261637420636f64655f82015250565b5f61636e6020836143b6565b91506163798261633a565b602082019050919050565b5f6020820190508181035f83015261639b81616362565b9050919050565b7f496e76616c6964204552432d323020746f6b656e3a20746f74616c537570706c5f8201527f792063616c6c206661696c656400000000000000000000000000000000000000602082015250565b5f6163fc602d836143b6565b9150616407826163a2565b604082019050919050565b5f6020820190508181035f830152616429816163f0565b9050919050565b7f5072697a6520746f6b656e2061646472657373206d757374206265207a65726f5f8201527f20666f7220455448207072697a65000000000000000000000000000000000000602082015250565b5f61648a602e836143b6565b915061649582616430565b604082019050919050565b5f6020820190508181035f8301526164b78161647e565b9050919050565b7f456e7472792066656520746f6b656e20616464726573732063616e6e6f7420625f8201527f65207a65726f20696620656e7472792066656520616d6f756e7420697320677260208201527f6561746572207468616e207a65726f0000000000000000000000000000000000604082015250565b5f61653e604f836143b6565b9150616549826164be565b606082019050919050565b5f6020820190508181035f83015261656b81616532565b9050919050565b7f456e7472792066656520746f6b656e20686173206e6f20636f6e7472616374205f8201527f636f646500000000000000000000000000000000000000000000000000000000602082015250565b5f6165cc6024836143b6565b91506165d782616572565b604082019050919050565b5f6020820190508181035f8301526165f9816165c0565b9050919050565b7f496e76616c6964204552432d323020746f6b656e20666f7220656e74727920665f8201527f65653a20746f74616c537570706c792063616c6c206661696c65640000000000602082015250565b5f61665a603b836143b6565b915061666582616600565b604082019050919050565b5f6020820190508181035f8301526166878161664e565b9050919050565b7f456e7472792066656520746f6b656e2061646472657373206d757374206265205f8201527f7a65726f20696620656e7472792066656520616d6f756e74206973207a65726f602082015250565b5f6166e86040836143b6565b91506166f38261668e565b604082019050919050565b5f6020820190508181035f830152616715816166dc565b9050919050565b7f4d75737420776974686472617720455448207072697a6520706f6f6c206265665f8201527f6f7265206e657720726964646c65000000000000000000000000000000000000602082015250565b5f616776602e836143b6565b91506167818261671c565b604082019050919050565b5f6020820190508181035f8301526167a38161676a565b9050919050565b7f4d75737420776974686472617720746f6b656e207072697a6520706f6f6c20625f8201527f65666f7265206e657720726964646c6500000000000000000000000000000000602082015250565b5f6168046030836143b6565b915061680f826167aa565b604082019050919050565b5f6020820190508181035f830152616831816167f8565b9050919050565b5f60ff82169050919050565b61684d81616838565b82525050565b5f60a0820190506168665f8301886147f0565b6168736020830187616844565b616880604083018661458e565b61688d60608301856144bd565b61689a608083018461458e565b9695505050505050565b5f6060820190506168b75f83018661458e565b6168c4602083018561458e565b6168d160408301846144bd565b949350505050565b5f6040820190506168ec5f83018561458e565b6168f960208301846144bd565b9392505050565b7f57696e6e657220616464726573732063616e6e6f74206265207a65726f0000005f82015250565b5f616934601d836143b6565b915061693f82616900565b602082019050919050565b5f6020820190508181035f83015261696181616928565b9050919050565b7f496e73756666696369656e7420455448207072697a6520706f6f6c2062616c615f8201527f6e63650000000000000000000000000000000000000000000000000000000000602082015250565b5f6169c26023836143b6565b91506169cd82616968565b604082019050919050565b5f6020820190508181035f8301526169ef816169b6565b9050919050565b7f496e73756666696369656e7420636f6e7472616374204554482062616c616e635f8201527f6500000000000000000000000000000000000000000000000000000000000000602082015250565b5f616a506021836143b6565b9150616a5b826169f6565b604082019050919050565b5f6020820190508181035f830152616a7d81616a44565b9050919050565b7f455448207472616e73666572206661696c6564000000000000000000000000005f82015250565b5f616ab86013836143b6565b9150616ac382616a84565b602082019050919050565b5f6020820190508181035f830152616ae581616aac565b9050919050565b7f496e73756666696369656e74204552433230207072697a6520706f6f6c2062615f8201527f6c616e6365000000000000000000000000000000000000000000000000000000602082015250565b5f616b466025836143b6565b9150616b5182616aec565b604082019050919050565b5f6020820190508181035f830152616b7381616b3a565b905091905056fea26469706673582212205a4a51d90af8381cdfdd9a77e0f9721ebd408dc03057360b305c70cb84f9efc764736f6c634300081e0033","linkReferences":{}},"methodIdentifiers":{"ENTRY_FEE()":"f6d361cc","MAX_RETRIES()":"46ebbdb0","RETRY_COST()":"57aa0ea2","balances(address)":"27e235e3","committedAt(uint256,address)":"c06a5fc5","committedGuesses(uint256,address)":"b7173e77","currentRiddleId()":"ecdc6c23","deposit()":"d0e30db0","enterGame(uint256)":"43d6582b","entryFeeToken()":"7b149763","ethPrizePool()":"95664a3d","fundTokenPrizePool(uint256)":"48b06e87","getPrizeToken()":"c7cd6959","hasClaimed(uint256,address)":"873f6f9e","hasParticipated(uint256,address)":"a34398a2","hasRevealed(uint256,address)":"16b5551d","isWinner(uint256,address)":"bdd415af","owner()":"8da5cb5b","ownerWithdraw(uint256)":"33f707d1","ownerWithdrawTokens(uint256)":"60972120","payout(uint256,address[])":"c8e728f9","prizeAmount()":"785fa627","prizeToken()":"d0ef024a","prizeType()":"fcdf8e89","purchaseRetry(uint256)":"7a11e941","renounceOwnership()":"715018a6","retries(address)":"dbbd3245","retryToken()":"219fc385","revealDelay()":"53236d74","revealGuess(uint256,string)":"12b5afc1","revealedGuessHash(uint256,address)":"188240cd","setRevealDelay(uint256)":"a68c25d8","setRiddle(uint256,bytes32,uint8,address,uint256,address)":"f9f82e9c","solveRiddleAndClaim(string)":"dc663b53","submitGuess(uint256,bytes32)":"e4d33ee3","tokenPrizePool()":"c310e242","transferOwnership(address)":"f2fde38b","winners(uint256,uint256)":"0efc8865","withdraw(uint256)":"2e1a7d4d"},"id":2}