{"abi":[{"type":"constructor","inputs":[{"name":"initialOwner","type":"address","internalType":"address"},{"name":"_retryTokenAddress","type":"address","internalType":"address"}],"stateMutability":"nonpayable"},{"type":"receive","stateMutability":"payable"},{"type":"function","name":"ENTRY_FEE","inputs":[],"outputs":[{"name":"","type":"uint256","internalType":"uint256"}],"stateMutability":"view"},{"type":"function","name":"MAX_RETRIES","inputs":[],"outputs":[{"name":"","type":"uint256","internalType":"uint256"}],"stateMutability":"view"},{"type":"function","name":"RETRY_COST","inputs":[],"outputs":[{"name":"","type":"uint256","internalType":"uint256"}],"stateMutability":"view"},{"type":"function","name":"balances","inputs":[{"name":"","type":"address","internalType":"address"}],"outputs":[{"name":"","type":"uint256","internalType":"uint256"}],"stateMutability":"view"},{"type":"function","name":"committedAt","inputs":[{"name":"","type":"uint256","internalType":"uint256"},{"name":"","type":"address","internalType":"address"}],"outputs":[{"name":"","type":"uint256","internalType":"uint256"}],"stateMutability":"view"},{"type":"function","name":"committedGuesses","inputs":[{"name":"","type":"uint256","internalType":"uint256"},{"name":"","type":"address","internalType":"address"}],"outputs":[{"name":"","type":"bytes32","internalType":"bytes32"}],"stateMutability":"view"},{"type":"function","name":"currentRiddleId","inputs":[],"outputs":[{"name":"","type":"uint256","internalType":"uint256"}],"stateMutability":"view"},{"type":"function","name":"deposit","inputs":[],"outputs":[],"stateMutability":"payable"},{"type":"function","name":"enterGame","inputs":[{"name":"_riddleId","type":"uint256","internalType":"uint256"}],"outputs":[],"stateMutability":"nonpayable"},{"type":"function","name":"entryFeeToken","inputs":[],"outputs":[{"name":"","type":"address","internalType":"contract IERC20"}],"stateMutability":"view"},{"type":"function","name":"ethPrizePool","inputs":[],"outputs":[{"name":"","type":"uint256","internalType":"uint256"}],"stateMutability":"view"},{"type":"function","name":"fundTokenPrizePool","inputs":[{"name":"_amount","type":"uint256","internalType":"uint256"}],"outputs":[],"stateMutability":"nonpayable"},{"type":"function","name":"getPrizeToken","inputs":[],"outputs":[{"name":"","type":"address","internalType":"address"}],"stateMutability":"view"},{"type":"function","name":"hasClaimed","inputs":[{"name":"","type":"uint256","internalType":"uint256"},{"name":"","type":"address","internalType":"address"}],"outputs":[{"name":"","type":"bool","internalType":"bool"}],"stateMutability":"view"},{"type":"function","name":"hasParticipated","inputs":[{"name":"","type":"uint256","internalType":"uint256"},{"name":"","type":"address","internalType":"address"}],"outputs":[{"name":"","type":"bool","internalType":"bool"}],"stateMutability":"view"},{"type":"function","name":"hasReceivedRemainder","inputs":[{"name":"","type":"uint256","internalType":"uint256"},{"name":"","type":"address","internalType":"address"}],"outputs":[{"name":"","type":"bool","internalType":"bool"}],"stateMutability":"view"},{"type":"function","name":"hasRevealed","inputs":[{"name":"","type":"uint256","internalType":"uint256"},{"name":"","type":"address","internalType":"address"}],"outputs":[{"name":"","type":"bool","internalType":"bool"}],"stateMutability":"view"},{"type":"function","name":"isPaidOut","inputs":[{"name":"","type":"uint256","internalType":"uint256"}],"outputs":[{"name":"","type":"bool","internalType":"bool"}],"stateMutability":"view"},{"type":"function","name":"isWinner","inputs":[{"name":"","type":"uint256","internalType":"uint256"},{"name":"","type":"address","internalType":"address"}],"outputs":[{"name":"","type":"bool","internalType":"bool"}],"stateMutability":"view"},{"type":"function","name":"owner","inputs":[],"outputs":[{"name":"","type":"address","internalType":"address"}],"stateMutability":"view"},{"type":"function","name":"ownerWithdraw","inputs":[{"name":"_amount","type":"uint256","internalType":"uint256"}],"outputs":[],"stateMutability":"nonpayable"},{"type":"function","name":"ownerWithdrawTokens","inputs":[{"name":"_amount","type":"uint256","internalType":"uint256"}],"outputs":[],"stateMutability":"nonpayable"},{"type":"function","name":"paidWinnersCount","inputs":[{"name":"","type":"uint256","internalType":"uint256"}],"outputs":[{"name":"","type":"uint256","internalType":"uint256"}],"stateMutability":"view"},{"type":"function","name":"payout","inputs":[{"name":"_riddleId","type":"uint256","internalType":"uint256"},{"name":"_winnersBatch","type":"address[]","internalType":"address[]"}],"outputs":[],"stateMutability":"nonpayable"},{"type":"function","name":"purchaseRetry","inputs":[{"name":"_riddleId","type":"uint256","internalType":"uint256"}],"outputs":[],"stateMutability":"nonpayable"},{"type":"function","name":"renounceOwnership","inputs":[],"outputs":[],"stateMutability":"nonpayable"},{"type":"function","name":"retries","inputs":[{"name":"","type":"address","internalType":"address"}],"outputs":[{"name":"","type":"uint256","internalType":"uint256"}],"stateMutability":"view"},{"type":"function","name":"retryToken","inputs":[],"outputs":[{"name":"","type":"address","internalType":"contract IERC20"}],"stateMutability":"view"},{"type":"function","name":"revealDelay","inputs":[],"outputs":[{"name":"","type":"uint256","internalType":"uint256"}],"stateMutability":"view"},{"type":"function","name":"revealGuess","inputs":[{"name":"_riddleId","type":"uint256","internalType":"uint256"},{"name":"_guess","type":"string","internalType":"string"}],"outputs":[],"stateMutability":"nonpayable"},{"type":"function","name":"revealedGuessHash","inputs":[{"name":"","type":"uint256","internalType":"uint256"},{"name":"","type":"address","internalType":"address"}],"outputs":[{"name":"","type":"bytes32","internalType":"bytes32"}],"stateMutability":"view"},{"type":"function","name":"riddleConfigs","inputs":[{"name":"","type":"uint256","internalType":"uint256"}],"outputs":[{"name":"prizeAmount","type":"uint256","internalType":"uint256"},{"name":"prizeType","type":"uint8","internalType":"enum Vaultis.PrizeType"},{"name":"prizeToken","type":"address","internalType":"contract IERC20"}],"stateMutability":"view"},{"type":"function","name":"setRevealDelay","inputs":[{"name":"_newRevealDelay","type":"uint256","internalType":"uint256"}],"outputs":[],"stateMutability":"nonpayable"},{"type":"function","name":"setRiddle","inputs":[{"name":"_riddleId","type":"uint256","internalType":"uint256"},{"name":"_answerHash","type":"bytes32","internalType":"bytes32"},{"name":"_prizeType","type":"uint8","internalType":"enum Vaultis.PrizeType"},{"name":"_prizeTokenAddress","type":"address","internalType":"address"},{"name":"_prizeAmount","type":"uint256","internalType":"uint256"},{"name":"_entryFeeTokenAddress","type":"address","internalType":"address"}],"outputs":[],"stateMutability":"nonpayable"},{"type":"function","name":"solveRiddleAndClaim","inputs":[{"name":"_answer","type":"string","internalType":"string"}],"outputs":[],"stateMutability":"nonpayable"},{"type":"function","name":"submitGuess","inputs":[{"name":"_riddleId","type":"uint256","internalType":"uint256"},{"name":"_guessHash","type":"bytes32","internalType":"bytes32"}],"outputs":[],"stateMutability":"nonpayable"},{"type":"function","name":"tokenPrizePool","inputs":[],"outputs":[{"name":"","type":"uint256","internalType":"uint256"}],"stateMutability":"view"},{"type":"function","name":"totalPrizeDistributed","inputs":[{"name":"","type":"uint256","internalType":"uint256"}],"outputs":[{"name":"","type":"uint256","internalType":"uint256"}],"stateMutability":"view"},{"type":"function","name":"totalWinnersCount","inputs":[{"name":"","type":"uint256","internalType":"uint256"}],"outputs":[{"name":"","type":"uint256","internalType":"uint256"}],"stateMutability":"view"},{"type":"function","name":"transferOwnership","inputs":[{"name":"newOwner","type":"address","internalType":"address"}],"outputs":[],"stateMutability":"nonpayable"},{"type":"function","name":"winners","inputs":[{"name":"","type":"uint256","internalType":"uint256"},{"name":"","type":"uint256","internalType":"uint256"}],"outputs":[{"name":"","type":"address","internalType":"address"}],"stateMutability":"view"},{"type":"function","name":"withdraw","inputs":[{"name":"_amount","type":"uint256","internalType":"uint256"}],"outputs":[],"stateMutability":"nonpayable"},{"type":"event","name":"Deposit","inputs":[{"name":"user","type":"address","indexed":true,"internalType":"address"},{"name":"amount","type":"uint256","indexed":false,"internalType":"uint256"}],"anonymous":false},{"type":"event","name":"EntryFeeCollected","inputs":[{"name":"player","type":"address","indexed":true,"internalType":"address"},{"name":"token","type":"address","indexed":true,"internalType":"address"},{"name":"amount","type":"uint256","indexed":false,"internalType":"uint256"},{"name":"riddleId","type":"uint256","indexed":true,"internalType":"uint256"}],"anonymous":false},{"type":"event","name":"EthReceived","inputs":[{"name":"sender","type":"address","indexed":true,"internalType":"address"},{"name":"amount","type":"uint256","indexed":false,"internalType":"uint256"}],"anonymous":false},{"type":"event","name":"GuessEvaluated","inputs":[{"name":"riddleId","type":"uint256","indexed":true,"internalType":"uint256"},{"name":"player","type":"address","indexed":true,"internalType":"address"},{"name":"timestamp","type":"uint256","indexed":false,"internalType":"uint256"},{"name":"isWinner","type":"bool","indexed":false,"internalType":"bool"}],"anonymous":false},{"type":"event","name":"GuessRevealed","inputs":[{"name":"player","type":"address","indexed":true,"internalType":"address"},{"name":"riddleId","type":"uint256","indexed":true,"internalType":"uint256"},{"name":"revealedHash","type":"bytes32","indexed":false,"internalType":"bytes32"}],"anonymous":false},{"type":"event","name":"GuessSubmitted","inputs":[{"name":"player","type":"address","indexed":true,"internalType":"address"},{"name":"riddleId","type":"uint256","indexed":true,"internalType":"uint256"},{"name":"guessHash","type":"bytes32","indexed":false,"internalType":"bytes32"}],"anonymous":false},{"type":"event","name":"OwnerWithdrawTokens","inputs":[{"name":"amount","type":"uint256","indexed":false,"internalType":"uint256"}],"anonymous":false},{"type":"event","name":"OwnerWithdrawal","inputs":[{"name":"owner","type":"address","indexed":true,"internalType":"address"},{"name":"amount","type":"uint256","indexed":false,"internalType":"uint256"}],"anonymous":false},{"type":"event","name":"OwnershipTransferred","inputs":[{"name":"previousOwner","type":"address","indexed":true,"internalType":"address"},{"name":"newOwner","type":"address","indexed":true,"internalType":"address"}],"anonymous":false},{"type":"event","name":"PayoutExecuted","inputs":[{"name":"riddleId","type":"uint256","indexed":true,"internalType":"uint256"},{"name":"winners","type":"address[]","indexed":false,"internalType":"address[]"},{"name":"totalAmount","type":"uint256","indexed":false,"internalType":"uint256"}],"anonymous":false},{"type":"event","name":"PlayerEntered","inputs":[{"name":"player","type":"address","indexed":true,"internalType":"address"},{"name":"riddleId","type":"uint256","indexed":true,"internalType":"uint256"}],"anonymous":false},{"type":"event","name":"PrizeDistributed","inputs":[{"name":"winner","type":"address","indexed":true,"internalType":"address"},{"name":"amount","type":"uint256","indexed":false,"internalType":"uint256"},{"name":"prizeType","type":"uint8","indexed":false,"internalType":"enum Vaultis.PrizeType"}],"anonymous":false},{"type":"event","name":"PrizeFunded","inputs":[{"name":"funder","type":"address","indexed":true,"internalType":"address"},{"name":"amount","type":"uint256","indexed":false,"internalType":"uint256"},{"name":"prizeType","type":"uint8","indexed":false,"internalType":"enum Vaultis.PrizeType"}],"anonymous":false},{"type":"event","name":"RetryPurchased","inputs":[{"name":"player","type":"address","indexed":true,"internalType":"address"},{"name":"riddleId","type":"uint256","indexed":true,"internalType":"uint256"},{"name":"cost","type":"uint256","indexed":false,"internalType":"uint256"},{"name":"newRetryCount","type":"uint256","indexed":false,"internalType":"uint256"}],"anonymous":false},{"type":"event","name":"RiddleInitialized","inputs":[{"name":"riddleId","type":"uint256","indexed":true,"internalType":"uint256"},{"name":"answerHash","type":"bytes32","indexed":false,"internalType":"bytes32"},{"name":"prizeType","type":"uint8","indexed":false,"internalType":"uint8"},{"name":"prizeTokenAddress","type":"address","indexed":false,"internalType":"address"},{"name":"prizeAmount","type":"uint256","indexed":false,"internalType":"uint256"},{"name":"entryFeeTokenAddress","type":"address","indexed":false,"internalType":"address"}],"anonymous":false},{"type":"event","name":"WinnerFound","inputs":[{"name":"winner","type":"address","indexed":true,"internalType":"address"},{"name":"riddleId","type":"uint256","indexed":true,"internalType":"uint256"}],"anonymous":false},{"type":"event","name":"Withdrawal","inputs":[{"name":"user","type":"address","indexed":true,"internalType":"address"},{"name":"amount","type":"uint256","indexed":false,"internalType":"uint256"}],"anonymous":false},{"type":"error","name":"OwnableInvalidOwner","inputs":[{"name":"owner","type":"address","internalType":"address"}]},{"type":"error","name":"OwnableUnauthorizedAccount","inputs":[{"name":"account","type":"address","internalType":"address"}]},{"type":"error","name":"ReentrancyGuardReentrantCall","inputs":[]},{"type":"error","name":"SafeERC20FailedOperation","inputs":[{"name":"token","type":"address","internalType":"address"}]}],"bytecode":{"object":"0x6080806040523461019c57604081613755803803809161001f828561024c565b83398101031261019c5761003e602061003783610283565b9201610283565b6001600160a01b03909116908115610239575f80546001600160a01b031981168417825560405193916001600160a01b03909116907f8be0079c531659141344cd1fd0a4f28419497f9722a3daafe3b4186f6b6457e09080a3600180556001600160a01b0381169182156101ec57503b156101a8576040516318160ddd60e01b8152602081600481855afa9081610175575b506101405760405162461bcd60e51b815260206004820152603760248201527f496e76616c6964204552432d323020746f6b656e20666f722072657472793a2060448201527f746f74616c537570706c792063616c6c206661696c65640000000000000000006064820152608490fd5b600680546001600160a01b0319908116909155610e10601155600880549091169190911790556040516134bd90816102988239f35b6020813d6020116101a0575b8161018e6020938361024c565b8101031261019c57516100d0565b5f80fd5b3d9150610181565b606460405162461bcd60e51b815260206004820152602060248201527f526574727920746f6b656e20686173206e6f20636f6e747261637420636f64656044820152fd5b62461bcd60e51b815260206004820152602260248201527f526574727920746f6b656e20616464726573732063616e6e6f74206265207a65604482015261726f60f01b6064820152608490fd5b631e4fbdf760e01b5f525f60045260245ffd5b601f909101601f19168101906001600160401b0382119082101761026f57604052565b634e487b7160e01b5f52604160045260245ffd5b51906001600160a01b038216820361019c5756fe608060405260043610156100ac575b3615610018575f80fd5b341561005b5761002a34600454612fb0565b6004556040513481527f85177f287940f2f05425a4029951af0e047a7f9c4eaa9a6e6917bcd869f8669560203392a2005b60405162461bcd60e51b8152602060048201526024808201527f45544820616d6f756e74206d7573742062652067726561746572207468616e206044820152637a65726f60e01b6064820152608490fd5b5f3560e01c80630efc886514612ddc57806312b5afc114612aee57806316b5551d14612aa5578063188240cd14612a61578063219fc38514612a3957806327e235e314612a015780632e1a7d4d1461289d57806333f707d11461271357806343d6582b146123fb57806346ebbdb0146123e057806348b06e871461226857806353236d741461224b578063569eaf611461221c57806357aa0ea2146121fa5780636097212014612094578063715018a61461203d5780637a11e94114611cce5780637b14976314611ca6578063873f6f9e14611c5d5780638da5cb5b14611c3657806394c9d9bc14611bed57806395664a3d14611bd0578063a34398a214611b87578063a68c25d814611b66578063a6dbce2414611b15578063b7173e7714611ad1578063bdd415af14611a88578063c06a5fc514611a44578063c310e24214611a27578063c7cd6959146119f0578063c8e728f914611190578063d0e30db0146110d6578063d56c52ed146110ac578063dbbd324514611074578063dc663b5314610d6b578063e4d33ee314610996578063ecdc6c2314610979578063f2fde38b146108f4578063f6d361cc146108d2578063f7c7e144146108a8578063f9f82e9c146102ac5763fab160170361000e57346102a85760203660031901126102a8576004355f526018602052602060405f2054604051908152f35b5f80fd5b346102a85760c03660031901126102a85760043560243560443560028110156102a8576064356001600160a01b03811692908381036102a85760a4356001600160a01b0381169160843591908382036102a857610307613117565b610312881515612ecc565b6003548811156108545761032783151561309c565b600186036107f1578615610791573b1561074d576040516318160ddd60e01b81526020816004818a5afa908161071e575b506103b85760405162461bcd60e51b815260206004820152602d60248201527f496e76616c6964204552432d323020746f6b656e3a20746f74616c537570706c60448201526c1e4818d85b1b0819985a5b1959609a1b6064820152608490fd5b821561069b573b1561064a576040516318160ddd60e01b8152602081600481865afa908161061b575b506104515760405162461bcd60e51b815260206004820152603b60248201527f496e76616c6964204552432d323020746f6b656e20666f7220656e747279206660448201527f65653a20746f74616c537570706c792063616c6c206661696c656400000000006064820152608490fd5b600680546001600160a01b031916831790556004546105bf57600554610561578560035582601255604051946060860186811067ffffffffffffffff82111761054d57604052818652602086019585875260016040820191838352895f52600760205260405f2090518155019651956002871015610539577f05227007ca99c4e41f51fb024dcb2065e16bd026db353ce7f322e5cdb4fb2e9d9760a09760ff9384835491610100600160a81b03905160081b169216906affffffffffffffffffffff60a81b1617179055604051958652166020850152604084015260608301526080820152a2005b634e487b7160e01b5f52602160045260245ffd5b634e487b7160e01b5f52604160045260245ffd5b60405162461bcd60e51b815260206004820152603060248201527f4d75737420776974686472617720746f6b656e207072697a6520706f6f6c206260448201526f65666f7265206e657720726964646c6560801b6064820152608490fd5b60405162461bcd60e51b815260206004820152602e60248201527f4d75737420776974686472617720455448207072697a6520706f6f6c2062656660448201526d6f7265206e657720726964646c6560901b6064820152608490fd5b6020813d602011610642575b8161063460209383612e55565b810103126102a857516103e1565b3d9150610627565b60405162461bcd60e51b8152602060048201526024808201527f456e7472792066656520746f6b656e20686173206e6f20636f6e747261637420604482015263636f646560e01b6064820152608490fd5b60405162461bcd60e51b815260206004820152604f60248201527f456e7472792066656520746f6b656e20616464726573732063616e6e6f74206260448201527f65207a65726f20696620656e7472792066656520616d6f756e7420697320677260648201526e6561746572207468616e207a65726f60881b608482015260a490fd5b6020813d602011610745575b8161073760209383612e55565b810103126102a85751610358565b3d915061072a565b606460405162461bcd60e51b815260206004820152602060248201527f5072697a6520746f6b656e20686173206e6f20636f6e747261637420636f64656044820152fd5b60405162461bcd60e51b815260206004820152603260248201527f5072697a6520746f6b656e20616464726573732063616e6e6f74206265207a65604482015271726f20666f72204552433230207072697a6560701b6064820152608490fd5b5085156103b85760405162461bcd60e51b815260206004820152602e60248201527f5072697a6520746f6b656e2061646472657373206d757374206265207a65726f60448201526d20666f7220455448207072697a6560901b6064820152608490fd5b60405162461bcd60e51b815260206004820152602660248201527f526964646c65204944206d7573742062652067726561746572207468616e20636044820152651d5c9c995b9d60d21b6064820152608490fd5b346102a85760203660031901126102a8576004355f526019602052602060405f2054604051908152f35b346102a8575f3660031901126102a8576020604051670de0b6b3a76400008152f35b346102a85760203660031901126102a85761090d612ea9565b610915613117565b6001600160a01b03168015610966575f80546001600160a01b03198116831782556001600160a01b0316907f8be0079c531659141344cd1fd0a4f28419497f9722a3daafe3b4186f6b6457e09080a3005b631e4fbdf760e01b5f525f60045260245ffd5b346102a8575f3660031901126102a8576020600354604051908152f35b346102a85760403660031901126102a8576004356024356109b56130f7565b6109c0821515612ecc565b6109cd6003548314612f18565b8015610d26575f82815260096020908152604080832033845290915290205460ff1615610cc4575f828152600d60209081526040808320338452909152902054601254901515908203610b8557505f82815260146020908152604080832033845290915290205460ff1615610ad5575b60405142815260016020820152827f6dbad7911810fc45c016aff41534b7adcd5477454a9b5be0d995a93518cde67560403393a35b5f828152600d6020908152604080832033808552908352818420859055858452600e83528184208185528352928190204290555192835290917fc5009e6865ae04f58da43f80d7eb9718a2f25a7ccfeb22a8ca0031e77b86b50a9190a360018055005b815f52601360205260405f2080546801000000000000000081101561054d57610b0391600182018155612e2c565b81546001600160a01b0360039290921b91821b1916339182901b179091555f838152601460209081526040808320938352928152828220805460ff1916600117905584825260189052208054610b589061307a565b905581337fb5d93c368c4bd18876654db9fd5dcef5a3583ccde4d81659e7f309f36c8449055f80a3610a3d565b6040514281525f6020820152837f6dbad7911810fc45c016aff41534b7adcd5477454a9b5be0d995a93518cde67560403393a315610a7257335f52600b60205260405f205415610c6257335f52600b60205260405f2080548015610c4e575f190190555f828152600d6020908152604080832033808552908352818420849055858452600e83528184208185528352818420849055858452600f83528184208185528352818420849055858452601083528184209084529091529020805460ff19169055610a72565b634e487b7160e01b5f52601160045260245ffd5b60405162461bcd60e51b815260206004820152603460248201527f5661756c7469733a204e6f207265747269657320617661696c61626c6520746f6044820152731039bab136b4ba1030903732bb9033bab2b9b99760611b6064820152608490fd5b60405162461bcd60e51b815260206004820152603460248201527f5661756c7469733a20506c6179657220686173206e6f7420706172746963697060448201527330ba32b21034b7103a3434b9903934b23236329760611b6064820152608490fd5b60405162461bcd60e51b815260206004820152601960248201527f477565737320686173682063616e6e6f74206265207a65726f000000000000006044820152606490fd5b346102a85760203660031901126102a85760043567ffffffffffffffff81116102a857366023820112156102a857806004013567ffffffffffffffff81116102a85736602482840101116102a857610dc16130f7565b60035491610dd0831515612ff9565b5f838152600960209081526040808320338452909152902054610df59060ff16612f64565b5f838152600a6020908152604080832033845290915290205460ff1661103d575f83815260106020908152604080832033845290915290205460ff1615610ff9575f83815260146020908152604080832033845290915290205460ff1615610f9d57825f52600f60205260405f2060018060a01b0333165f5260205260405f205491610ea1602060405183819460248484019701873781015f838201520301601f198101835282612e55565b51902003610f42575f52600a60205260405f2060018060a01b0333165f5260205260405f20600160ff198254161790556003545f526007602052610f0160405f20600181549101549060ff60018060a01b038360081c169216903361317a565b600380545f908152600f6020908152604080832033808552908352818420849055935483526010825280832093835292905220805460ff1916905560018055005b60405162461bcd60e51b815260206004820152602d60248201527f52657665616c656420677565737320646f6573206e6f74206d6174636820707260448201526c37bb34b232b21030b739bbb2b960991b6064820152608490fd5b60405162461bcd60e51b815260206004820152602e60248201527f4e6f74206120726567697374657265642077696e6e657220666f72207468652060448201526d63757272656e7420726964646c6560901b6064820152608490fd5b606460405162461bcd60e51b815260206004820152602060248201527f4d7573742072657665616c206775657373206265666f726520736f6c76696e676044820152fd5b60405162461bcd60e51b815260206004820152600f60248201526e105b1c9958591e4818db185a5b5959608a1b6044820152606490fd5b346102a85760203660031901126102a8576001600160a01b03611095612ea9565b165f52600b602052602060405f2054604051908152f35b346102a85760203660031901126102a8576004355f526015602052602060405f2054604051908152f35b5f3660031901126102a8576110e96130f7565b341561113a57335f52600260205260405f20611106348254612fb0565b90556040513481527fe1fffcc4923d04b559f4d29a8bfc6cda04eb5b0d3c460751c2402c5c5cc9109c60203392a260018055005b60405162461bcd60e51b815260206004820152602860248201527f4465706f73697420616d6f756e74206d7573742062652067726561746572207460448201526768616e207a65726f60c01b6064820152608490fd5b346102a85760403660031901126102a85760243560043567ffffffffffffffff82116102a857366023830112156102a85781600401359067ffffffffffffffff821161054d578160051b92604051926111ec6020860185612e55565b8352602083019060248295820101903682116102a857602401915b8183106119d057505050611219613117565b6112216130f7565b801561197f576003548111611930578151156118eb57805f52601760205260ff60405f2054166118965791825f52600760205260405f20905f935b83518510156113165760018501808611610c4e575b845181101561130a576001600160a01b0361128c8787613088565b51166001600160a01b036112a08388613088565b5116146112af57600101611271565b60405162461bcd60e51b815260206004820152602d60248201527f4475706c69636174652077696e6e6572206164647265737320696e206261746360448201526c1a081b9bdd08185b1b1bddd959609a1b6064820152608490fd5b5060019094019361125c565b92835f52601860205260405f2054801561184357835490808204910694811580159061183a575b156117e1575f925f945f5b8251811015611485576001600160a01b036113638285613088565b5116845f52601460205260405f2060018060a01b0382165f5260205260ff60405f2054168061145c575b61139b575b50600101611348565b956113a89097919761307a565b9585908a151580611433575b80611414575b6113d3575b506113cc90600192612fb0565b9690611392565b600187019150818711610c4e575f8681526016602090815260408083206001600160a01b03909416835292905220805460ff191660011790556113cc6113bf565b50855f5260196020528a61142c8960405f2054612fb0565b11156113ba565b50855f52601660205260405f2060018060a01b0382165f5260205260ff60405f205416156113b4565b50845f52600a60205260405f2060018060a01b0382165f5260205260ff60405f2054161561138d565b5093959091951561178c576001019060ff82541660028110156105395780611717575084600454106116b5575b5f935f5b82518110156115fc576001600160a01b036114d18285613088565b5116885f52601460205260405f2060018060a01b0382165f5260205260ff60405f205416806115d3575b611509575b506001016114b6565b885f97929752600a60205260405f2060018060a01b0382165f5260205260405f20600160ff19825416179055885f52601960205260405f2061154b815461307a565b90558590895f52601660205260405f2060018060a01b0382165f5260205260ff60405f2054166115be575b916115b26115b7926001948c5f52601560205260405f20611598838254612fb0565b905588549160ff878060a01b038460081c1693169161317a565b61307a565b9590611500565b90506001860191828711610c4e579190611576565b50885f52600a60205260405f2060018060a01b0382165f5260205260ff60405f205416156114fb565b878084848a60405192604084019060408552518091526060840192905f5b818110611693575050509180917f71bff4125b8839ee2141d2a57795388253eea7ed158075d305576a2fb63647e29360208301520390a2805f52601960205260405f2054815f52601860205260405f205414611677575b60018055005b5f52601760205260405f20600160ff1982541617905580611671565b82516001600160a01b031685528796506020948501949092019160010161161a565b60405162461bcd60e51b815260206004820152603460248201527f496e73756666696369656e7420455448207072697a6520706f6f6c2062616c616044820152730dcc6ca40ccdee440e0c2f2deeae840c4c2e8c6d60631b6064820152608490fd5b6001036114b2578460055410156114b25760405162461bcd60e51b815260206004820152603660248201527f496e73756666696369656e74204552433230207072697a6520706f6f6c2062616044820152750d8c2dcc6ca40ccdee440e0c2f2deeae840c4c2e8c6d60531b6064820152608490fd5b60405162461bcd60e51b815260206004820152602760248201527f4e6f206e65772077696e6e65727320696e207468697320626174636820746f206044820152661c185e481bdd5d60ca1b6064820152608490fd5b60405162461bcd60e51b815260206004820152602b60248201527f5065722d77696e6e657220616d6f756e74206d7573742062652067726561746560448201526a72207468616e207a65726f60a81b6064820152608490fd5b5085151561133d565b60405162461bcd60e51b815260206004820152602560248201527f4e6f2077696e6e657273207265676973746572656420666f72207468697320726044820152646964646c6560d81b6064820152608490fd5b60405162461bcd60e51b815260206004820152602760248201527f5061796f757420616c726561647920657865637574656420666f72207468697360448201526620726964646c6560c81b6064820152608490fd5b60405162461bcd60e51b815260206004820152601d60248201527f57696e6e6572732061727261792063616e6e6f7420626520656d7074790000006044820152606490fd5b60405162461bcd60e51b815260206004820152602160248201527f526964646c65204944206d7573742062652063757272656e74206f72207061736044820152601d60fa1b6064820152608490fd5b60405162461bcd60e51b815260206004820152602360248201527f526964646c65204944206d7573742062652067726561746572207468616e207a60448201526265726f60e81b6064820152608490fd5b82356001600160a01b03811681036102a857815260209283019201611207565b346102a8575f3660031901126102a8576003545f526007602052602060018060a01b03600160405f20015460081c16604051908152f35b346102a8575f3660031901126102a8576020600554604051908152f35b346102a85760403660031901126102a857611a5d612e93565b6004355f52600e60205260405f209060018060a01b03165f52602052602060405f2054604051908152f35b346102a85760403660031901126102a857611aa1612e93565b6004355f52601460205260405f209060018060a01b03165f52602052602060ff60405f2054166040519015158152f35b346102a85760403660031901126102a857611aea612e93565b6004355f52600d60205260405f209060018060a01b03165f52602052602060405f2054604051908152f35b346102a85760203660031901126102a8576004355f526007602052606060405f2060018154910154604051918252611b536020830160ff8316612ebf565b60081c6001600160a01b03166040820152f35b346102a85760203660031901126102a857611b7f613117565b600435601155005b346102a85760403660031901126102a857611ba0612e93565b6004355f52600960205260405f209060018060a01b03165f52602052602060ff60405f2054166040519015158152f35b346102a8575f3660031901126102a8576020600454604051908152f35b346102a85760403660031901126102a857611c06612e93565b6004355f52601660205260405f209060018060a01b03165f52602052602060ff60405f2054166040519015158152f35b346102a8575f3660031901126102a8575f546040516001600160a01b039091168152602090f35b346102a85760403660031901126102a857611c76612e93565b6004355f52600a60205260405f209060018060a01b03165f52602052602060ff60405f2054166040519015158152f35b346102a8575f3660031901126102a8576006546040516001600160a01b039091168152602090f35b346102a85760203660031901126102a857600435611cea6130f7565b611cf76003548214612f18565b5f81815260096020908152604080832033845290915290205460ff1615611fec576008546001600160a01b031615611fb157335f52600b602052600360405f20541015611f7657335f52600c6020528060405f205403611f55575b6008546040516370a0823160e01b8152306004820152906001600160a01b0316602082602481845afa918215611f14575f92611f1f575b50611dcd90604051906323b872dd60e01b602083015233602483015230604483015267016345785d8a0000606483015260648252611dc8608483612e55565b61342f565b6008546040516370a0823160e01b815230600482015290602090829060249082906001600160a01b03165afa908115611f14575f91611eda575b5067016345785d8a000091611e1b91612fbd565b03611e8557335f52600b60205260405f20611e36815461307a565b9055335f52600b60205260405f20546040519067016345785d8a0000825260208201527f98afd9c8b4874dc0b797b810a6a8488429aea97e225fc6e70d948f77660fbee760403392a360018055005b60405162461bcd60e51b815260206004820152602760248201527f526574727920636f7374206d69736d617463682028464f54206e6f7420737570604482015266706f727465642960c81b6064820152608490fd5b90506020813d602011611f0c575b81611ef560209383612e55565b810103126102a8575167016345785d8a0000611e07565b3d9150611ee8565b6040513d5f823e3d90fd5b9091506020813d602011611f4d575b81611f3b60209383612e55565b810103126102a8575190611dcd611d89565b3d9150611f2e565b335f52600b6020525f6040812055335f52600c6020528060405f2055611d52565b60405162461bcd60e51b815260206004820152601360248201527213585e081c995d1c9a595cc81c995858da1959606a1b6044820152606490fd5b60405162461bcd60e51b815260206004820152601360248201527214995d1c9e481d1bdad95b881b9bdd081cd95d606a1b6044820152606490fd5b60405162461bcd60e51b8152602060048201526024808201527f4d75737420706172746963697061746520696e2074686520726964646c6520666044820152631a5c9cdd60e21b6064820152608490fd5b346102a8575f3660031901126102a857612055613117565b5f80546001600160a01b0319811682556001600160a01b03167f8be0079c531659141344cd1fd0a4f28419497f9722a3daafe3b4186f6b6457e08280a3005b346102a85760203660031901126102a8576004356120b0613117565b6120b86130f7565b801561218f5760055481811061214a578161213d7f560c2b6d9212838c63f631c64ebc9d7364da90f9af3fdec847c0725dd18330c8936020936003545f526007855261212282600160405f20019261211d60018060a01b03855460081c161515613038565b612fbd565b600555545f546001600160a01b039081169160081c1661313d565b604051908152a160018055005b60405162461bcd60e51b815260206004820152601d60248201527f496e73756666696369656e7420746f6b656e207072697a6520706f6f6c0000006044820152606490fd5b60405162461bcd60e51b815260206004820152603760248201527f4f776e657220746f6b656e207769746864726177616c20616d6f756e74206d7560448201527f73742062652067726561746572207468616e207a65726f0000000000000000006064820152608490fd5b346102a8575f3660031901126102a857602060405167016345785d8a00008152f35b346102a85760203660031901126102a8576004355f526017602052602060ff60405f2054166040519015158152f35b346102a8575f3660031901126102a8576020601154604051908152f35b346102a85760203660031901126102a857600435612284613117565b61228c6130f7565b801561239c576003545f526007602052600160405f20015460ff811660028110156105395760010361234d576123059060081c6001600160a01b03166122d3811515613038565b6040516323b872dd60e01b60208201523360248201523060448201526064808201859052815290611dc8608483612e55565b61231181600554612fb0565b600555604051908152600160208201527f4708e702157b1eb6cd00a772e6a623599ac7dc0bad76e8c624fdef050b434f0960403392a260018055005b60405162461bcd60e51b815260206004820152602160248201527f43757272656e7420726964646c65207072697a65206973206e6f7420455243326044820152600360fc1b6064820152608490fd5b606460405162461bcd60e51b815260206004820152602060248201527f416d6f756e74206d7573742062652067726561746572207468616e207a65726f6044820152fd5b346102a8575f3660031901126102a857602060405160038152f35b346102a85760203660031901126102a8576004356124176130f7565b5f81815260096020908152604080832033845290915290205460ff166126c25761244f600354612448818414612f18565b1515612ff9565b335f52600c6020528060405f2054036126a1575b6006546001600160a01b0316801561265c576040516370a0823160e01b8152306004820152602081602481855afa908115611f14575f9161262a575b506124e26040516323b872dd60e01b6020820152336024820152306044820152670de0b6b3a76400006064820152606481526124dc608482612e55565b8361342f565b6040516370a0823160e01b815230600482015290602082602481865afa8015611f14575f906125f6575b6125169250612fbd565b90670de0b6b3a764000082036125a25782916040519081527f1f8e0e31739d887c754fcf7403fe1bdf6641ef33578b9d08631a7d5e6e9b8fb760203392a45f8181526009602090815260408083203380855292528220805460ff19166001179055907fc16481c9484122696a660b57df0bf6839645c6b620cb1704ac2437de13be92259080a360018055005b60405162461bcd60e51b815260206004820152602660248201527f456e74727920666565206d69736d617463682028464f54206e6f7420737570706044820152656f727465642960d01b6064820152608490fd5b506020823d602011612622575b8161261060209383612e55565b810103126102a857612516915161250c565b3d9150612603565b90506020813d602011612654575b8161264560209383612e55565b810103126102a857518361249f565b3d9150612638565b60405162461bcd60e51b815260206004820152601760248201527f456e7472792066656520746f6b656e206e6f74207365740000000000000000006044820152606490fd5b335f52600b6020525f6040812055335f52600c6020528060405f2055612463565b60405162461bcd60e51b815260206004820152602360248201527f416c72656164792070617274696369706174656420696e207468697320726964604482015262646c6560e81b6064820152608490fd5b346102a85760203660031901126102a85760043561272f613117565b6127376130f7565b801561283e576004548181106127f9578161275191612fbd565b6004555f8080808460018060a01b0382541662030d40f1612770612fca565b50156127b4575f546040519182526001600160a01b0316907fa919fadcfa556a012bab31b15f596ea7ccd397adbf10e15f176db9055ab361c490602090a260018055005b60405162461bcd60e51b815260206004820152601760248201527f4f776e6572207769746864726177616c206661696c65640000000000000000006044820152606490fd5b60405162461bcd60e51b815260206004820152601b60248201527f496e73756666696369656e7420455448207072697a6520706f6f6c00000000006044820152606490fd5b60405162461bcd60e51b815260206004820152603160248201527f4f776e6572207769746864726177616c20616d6f756e74206d7573742062652060448201527067726561746572207468616e207a65726f60781b6064820152608490fd5b346102a85760203660031901126102a8576004356128b96130f7565b80156129a857335f5260026020528060405f20541061296c57335f52600260205260405f206128e9828254612fbd565b90555f80808084335af16128fb612fca565b5015612933576040519081527f7fcf532c15f0a6db0bd6d0e038bea71d30d808c7d98cb3bf7268a95bf5081b6560203392a260018055005b60405162461bcd60e51b815260206004820152601160248201527015da5d1a191c985dd85b0819985a5b1959607a1b6044820152606490fd5b60405162461bcd60e51b8152602060048201526014602482015273496e73756666696369656e742062616c616e636560601b6044820152606490fd5b60405162461bcd60e51b815260206004820152602b60248201527f5769746864726177616c20616d6f756e74206d7573742062652067726561746560448201526a72207468616e207a65726f60a81b6064820152608490fd5b346102a85760203660031901126102a8576001600160a01b03612a22612ea9565b165f526002602052602060405f2054604051908152f35b346102a8575f3660031901126102a8576008546040516001600160a01b039091168152602090f35b346102a85760403660031901126102a857612a7a612e93565b6004355f52600f60205260405f209060018060a01b03165f52602052602060405f2054604051908152f35b346102a85760403660031901126102a857612abe612e93565b6004355f52601060205260405f209060018060a01b03165f52602052602060ff60405f2054166040519015158152f35b346102a85760403660031901126102a85760043560243567ffffffffffffffff81116102a857366023820112156102a857806004013590612b2e82612e77565b91612b3c6040519384612e55565b808352602083019136602483830101116102a857815f92602460209301853784010152612b676130f7565b612b72831515612ecc565b612b7f6003548414612f18565b5f838152600960209081526040808320338452909152902054612ba49060ff16612f64565b5f838152600d6020908152604080832033845290915290205415612da2575f83815260106020908152604080832033845290915290205460ff16612d6a575f838152600e60209081526040808320338452909152902054601154612c0791612fb0565b4210612d3257612c366020604051809382820195518091875e81015f838201520301601f198101835282612e55565b5190205f828152600d602090815260408083203384529091529020548103612ced575f828152600f6020908152604080832033808552908352818420859055858452601083528184208185528352818420805460ff19166001179055858452600d83528184208185528352818420849055858452600e83528184208185528352818420939093555192835290917f59d3b853b3060eb254d2f04ecf2d2fba8ec34ae94835cd01eedead529314f5249190a360018055005b60405162461bcd60e51b815260206004820152601c60248201527f52657665616c20646f6573206e6f74206d6174636820636f6d6d6974000000006044820152606490fd5b60405162461bcd60e51b815260206004820152601060248201526f52657665616c20746f6f206561726c7960801b6044820152606490fd5b60405162461bcd60e51b815260206004820152601060248201526f105b1c9958591e481c995d99585b195960821b6044820152606490fd5b60405162461bcd60e51b81526020600482015260126024820152714e6f20636f6d6d697474656420677565737360701b6044820152606490fd5b346102a85760403660031901126102a8576024356004355f52601360205260405f2080548210156102a857602091612e1391612e2c565b905460405160039290921b1c6001600160a01b03168152f35b8054821015612e41575f5260205f2001905f90565b634e487b7160e01b5f52603260045260245ffd5b90601f8019910116810190811067ffffffffffffffff82111761054d57604052565b67ffffffffffffffff811161054d57601f01601f191660200190565b602435906001600160a01b03821682036102a857565b600435906001600160a01b03821682036102a857565b9060028210156105395752565b15612ed357565b60405162461bcd60e51b815260206004820152601860248201527f526964646c652049442063616e6e6f74206265207a65726f00000000000000006044820152606490fd5b15612f1f57565b60405162461bcd60e51b815260206004820152601860248201527f4e6f74207468652061637469766520726964646c6520494400000000000000006044820152606490fd5b15612f6b57565b60405162461bcd60e51b815260206004820152601960248201527f4d75737420656e746572207468652067616d65206669727374000000000000006044820152606490fd5b91908201809211610c4e57565b91908203918211610c4e57565b3d15612ff4573d90612fdb82612e77565b91612fe96040519384612e55565b82523d5f602084013e565b606090565b1561300057565b60405162461bcd60e51b815260206004820152601060248201526f4e6f2061637469766520726964646c6560801b6044820152606490fd5b1561303f57565b60405162461bcd60e51b8152602060048201526013602482015272141c9a5e99481d1bdad95b881b9bdd081cd95d606a1b6044820152606490fd5b5f198114610c4e5760010190565b8051821015612e415760209160051b010190565b156130a357565b60405162461bcd60e51b815260206004820152602660248201527f5072697a6520616d6f756e74206d7573742062652067726561746572207468616044820152656e207a65726f60d01b6064820152608490fd5b600260015414613108576002600155565b633ee5aeb560e01b5f5260045ffd5b5f546001600160a01b0316330361312a57565b63118cdaa760e01b5f523360045260245ffd5b60405163a9059cbb60e01b60208201526001600160a01b03909216602483015260448083019390935291815261317891611dc8606483612e55565b565b6001600160a01b0381169391929184156133ea5761319984151561309c565b600283101561053957826132f45750600454908382106132a357834710613254575f80858194936131cb828496612fbd565b6004555af16131d8612fca565b5015613219577fff43c2705b2225c1c9d9d58f088ab64d4fc767737dee523bed37f15fb0c6c3de916132166040925b83519283526020830190612ebf565ba2565b60405162461bcd60e51b8152602060048201526013602482015272115512081d1c985b9cd9995c8819985a5b1959606a1b6044820152606490fd5b60405162461bcd60e51b815260206004820152602160248201527f496e73756666696369656e7420636f6e7472616374204554482062616c616e636044820152606560f81b6064820152608490fd5b60405162461bcd60e51b815260206004820152602360248201527f496e73756666696369656e7420455448207072697a6520706f6f6c2062616c616044820152626e636560e81b6064820152608490fd5b906001831461332d575b50507fff43c2705b2225c1c9d9d58f088ab64d4fc767737dee523bed37f15fb0c6c3de91613216604092613207565b9092906133446001600160a01b0385161515613038565b600554928284106133975761338d83613216937fff43c2705b2225c1c9d9d58f088ab64d4fc767737dee523bed37f15fb0c6c3de9761338583604099612fbd565b60055561313d565b92508193506132fe565b60405162461bcd60e51b815260206004820152602560248201527f496e73756666696369656e74204552433230207072697a6520706f6f6c2062616044820152646c616e636560d81b6064820152608490fd5b60405162461bcd60e51b815260206004820152601d60248201527f57696e6e657220616464726573732063616e6e6f74206265207a65726f0000006044820152606490fd5b905f602091828151910182855af115611f14575f513d61347e57506001600160a01b0381163b155b61345e5750565b635274afe760e01b5f9081526001600160a01b0391909116600452602490fd5b6001141561345756fea2646970667358221220b7bcf3cced94db3f6f421d7d46820022181a3f834f06beed0fe60077587fa3ef64736f6c634300081e0033","linkReferences":{}},"methodIdentifiers":{"ENTRY_FEE()":"f6d361cc","MAX_RETRIES()":"46ebbdb0","RETRY_COST()":"57aa0ea2","balances(address)":"27e235e3","committedAt(uint256,address)":"c06a5fc5","committedGuesses(uint256,address)":"b7173e77","currentRiddleId()":"ecdc6c23","deposit()":"d0e30db0","enterGame(uint256)":"43d6582b","entryFeeToken()":"7b149763","ethPrizePool()":"95664a3d","fundTokenPrizePool(uint256)":"48b06e87","getPrizeToken()":"c7cd6959","hasClaimed(uint256,address)":"873f6f9e","hasParticipated(uint256,address)":"a34398a2","hasReceivedRemainder(uint256,address)":"94c9d9bc","hasRevealed(uint256,address)":"16b5551d","isPaidOut(uint256)":"569eaf61","isWinner(uint256,address)":"bdd415af","owner()":"8da5cb5b","ownerWithdraw(uint256)":"33f707d1","ownerWithdrawTokens(uint256)":"60972120","paidWinnersCount(uint256)":"f7c7e144","payout(uint256,address[])":"c8e728f9","purchaseRetry(uint256)":"7a11e941","renounceOwnership()":"715018a6","retries(address)":"dbbd3245","retryToken()":"219fc385","revealDelay()":"53236d74","revealGuess(uint256,string)":"12b5afc1","revealedGuessHash(uint256,address)":"188240cd","riddleConfigs(uint256)":"a6dbce24","setRevealDelay(uint256)":"a68c25d8","setRiddle(uint256,bytes32,uint8,address,uint256,address)":"f9f82e9c","solveRiddleAndClaim(string)":"dc663b53","submitGuess(uint256,bytes32)":"e4d33ee3","tokenPrizePool()":"c310e242","totalPrizeDistributed(uint256)":"d56c52ed","totalWinnersCount(uint256)":"fab16017","transferOwnership(address)":"f2fde38b","winners(uint256,uint256)":"0efc8865","withdraw(uint256)":"2e1a7d4d"},"id":2}