{"abi":[{"type":"constructor","inputs":[{"name":"initialOwner","type":"address","internalType":"address"}],"stateMutability":"nonpayable"},{"type":"receive","stateMutability":"payable"},{"type":"function","name":"balances","inputs":[{"name":"","type":"address","internalType":"address"}],"outputs":[{"name":"","type":"uint256","internalType":"uint256"}],"stateMutability":"view"},{"type":"function","name":"currentRiddleId","inputs":[],"outputs":[{"name":"","type":"uint256","internalType":"uint256"}],"stateMutability":"view"},{"type":"function","name":"deposit","inputs":[],"outputs":[],"stateMutability":"payable"},{"type":"function","name":"enterGame","inputs":[{"name":"_riddleId","type":"uint256","internalType":"uint256"}],"outputs":[],"stateMutability":"nonpayable"},{"type":"function","name":"entryFeeAmount","inputs":[],"outputs":[{"name":"","type":"uint256","internalType":"uint256"}],"stateMutability":"view"},{"type":"function","name":"entryFeeToken","inputs":[],"outputs":[{"name":"","type":"address","internalType":"contract IERC20"}],"stateMutability":"view"},{"type":"function","name":"ethPrizePool","inputs":[],"outputs":[{"name":"","type":"uint256","internalType":"uint256"}],"stateMutability":"view"},{"type":"function","name":"fundTokenPrizePool","inputs":[{"name":"_amount","type":"uint256","internalType":"uint256"}],"outputs":[],"stateMutability":"nonpayable"},{"type":"function","name":"getPrizeToken","inputs":[],"outputs":[{"name":"","type":"address","internalType":"address"}],"stateMutability":"view"},{"type":"function","name":"hasClaimed","inputs":[{"name":"","type":"uint256","internalType":"uint256"},{"name":"","type":"address","internalType":"address"}],"outputs":[{"name":"","type":"bool","internalType":"bool"}],"stateMutability":"view"},{"type":"function","name":"hasParticipated","inputs":[{"name":"","type":"uint256","internalType":"uint256"},{"name":"","type":"address","internalType":"address"}],"outputs":[{"name":"","type":"bool","internalType":"bool"}],"stateMutability":"view"},{"type":"function","name":"owner","inputs":[],"outputs":[{"name":"","type":"address","internalType":"address"}],"stateMutability":"view"},{"type":"function","name":"ownerWithdraw","inputs":[{"name":"_amount","type":"uint256","internalType":"uint256"}],"outputs":[],"stateMutability":"nonpayable"},{"type":"function","name":"prizeAmount","inputs":[],"outputs":[{"name":"","type":"uint256","internalType":"uint256"}],"stateMutability":"view"},{"type":"function","name":"prizeToken","inputs":[],"outputs":[{"name":"","type":"address","internalType":"contract IERC20"}],"stateMutability":"view"},{"type":"function","name":"prizeType","inputs":[],"outputs":[{"name":"","type":"uint8","internalType":"enum Vaultis.PrizeType"}],"stateMutability":"view"},{"type":"function","name":"renounceOwnership","inputs":[],"outputs":[],"stateMutability":"nonpayable"},{"type":"function","name":"setRiddle","inputs":[{"name":"_riddleId","type":"uint256","internalType":"uint256"},{"name":"_answerHash","type":"bytes32","internalType":"bytes32"},{"name":"_prizeType","type":"uint8","internalType":"enum Vaultis.PrizeType"},{"name":"_prizeTokenAddress","type":"address","internalType":"address"},{"name":"_prizeAmount","type":"uint256","internalType":"uint256"},{"name":"_entryFeeAmount","type":"uint256","internalType":"uint256"},{"name":"_entryFeeTokenAddress","type":"address","internalType":"address"}],"outputs":[],"stateMutability":"nonpayable"},{"type":"function","name":"solveRiddleAndClaim","inputs":[{"name":"_answer","type":"string","internalType":"string"}],"outputs":[],"stateMutability":"nonpayable"},{"type":"function","name":"tokenPrizePool","inputs":[],"outputs":[{"name":"","type":"uint256","internalType":"uint256"}],"stateMutability":"view"},{"type":"function","name":"transferOwnership","inputs":[{"name":"newOwner","type":"address","internalType":"address"}],"outputs":[],"stateMutability":"nonpayable"},{"type":"function","name":"withdraw","inputs":[{"name":"_amount","type":"uint256","internalType":"uint256"}],"outputs":[],"stateMutability":"nonpayable"},{"type":"event","name":"Deposit","inputs":[{"name":"user","type":"address","indexed":true,"internalType":"address"},{"name":"amount","type":"uint256","indexed":false,"internalType":"uint256"}],"anonymous":false},{"type":"event","name":"EntryFeeCollected","inputs":[{"name":"player","type":"address","indexed":true,"internalType":"address"},{"name":"token","type":"address","indexed":true,"internalType":"address"},{"name":"amount","type":"uint256","indexed":false,"internalType":"uint256"},{"name":"riddleId","type":"uint256","indexed":true,"internalType":"uint256"}],"anonymous":false},{"type":"event","name":"EthReceived","inputs":[{"name":"sender","type":"address","indexed":true,"internalType":"address"},{"name":"amount","type":"uint256","indexed":false,"internalType":"uint256"}],"anonymous":false},{"type":"event","name":"OwnerWithdrawal","inputs":[{"name":"owner","type":"address","indexed":true,"internalType":"address"},{"name":"amount","type":"uint256","indexed":false,"internalType":"uint256"}],"anonymous":false},{"type":"event","name":"OwnershipTransferred","inputs":[{"name":"previousOwner","type":"address","indexed":true,"internalType":"address"},{"name":"newOwner","type":"address","indexed":true,"internalType":"address"}],"anonymous":false},{"type":"event","name":"PrizeDistributed","inputs":[{"name":"winner","type":"address","indexed":true,"internalType":"address"},{"name":"amount","type":"uint256","indexed":false,"internalType":"uint256"},{"name":"prizeType","type":"uint8","indexed":false,"internalType":"enum Vaultis.PrizeType"}],"anonymous":false},{"type":"event","name":"PrizeFunded","inputs":[{"name":"funder","type":"address","indexed":true,"internalType":"address"},{"name":"amount","type":"uint256","indexed":false,"internalType":"uint256"},{"name":"prizeType","type":"uint8","indexed":false,"internalType":"enum Vaultis.PrizeType"}],"anonymous":false},{"type":"event","name":"RiddleSet","inputs":[{"name":"riddleId","type":"uint256","indexed":true,"internalType":"uint256"},{"name":"answerHash","type":"bytes32","indexed":false,"internalType":"bytes32"},{"name":"prizeType","type":"uint8","indexed":false,"internalType":"enum Vaultis.PrizeType"},{"name":"prizeTokenAddress","type":"address","indexed":false,"internalType":"address"},{"name":"prizeAmount","type":"uint256","indexed":false,"internalType":"uint256"},{"name":"entryFeeAmount","type":"uint256","indexed":false,"internalType":"uint256"},{"name":"entryFeeTokenAddress","type":"address","indexed":false,"internalType":"address"}],"anonymous":false},{"type":"event","name":"Withdrawal","inputs":[{"name":"user","type":"address","indexed":true,"internalType":"address"},{"name":"amount","type":"uint256","indexed":false,"internalType":"uint256"}],"anonymous":false},{"type":"error","name":"OwnableInvalidOwner","inputs":[{"name":"owner","type":"address","internalType":"address"}]},{"type":"error","name":"OwnableUnauthorizedAccount","inputs":[{"name":"account","type":"address","internalType":"address"}]},{"type":"error","name":"ReentrancyGuardReentrantCall","inputs":[]},{"type":"error","name":"SafeERC20FailedOperation","inputs":[{"name":"token","type":"address","internalType":"address"}]}],"bytecode":{"object":"0x608060405234801561000f575f5ffd5b50604051613cfc380380613cfc8339818101604052810190610031919061021e565b805f73ffffffffffffffffffffffffffffffffffffffff168173ffffffffffffffffffffffffffffffffffffffff16036100a2575f6040517f1e4fbdf70000000000000000000000000000000000000000000000000000000081526004016100999190610258565b60405180910390fd5b6100b1816100ff60201b60201c565b50600180819055505f60095f6101000a81548173ffffffffffffffffffffffffffffffffffffffff021916908373ffffffffffffffffffffffffffffffffffffffff16021790555050610271565b5f5f5f9054906101000a900473ffffffffffffffffffffffffffffffffffffffff169050815f5f6101000a81548173ffffffffffffffffffffffffffffffffffffffff021916908373ffffffffffffffffffffffffffffffffffffffff1602179055508173ffffffffffffffffffffffffffffffffffffffff168173ffffffffffffffffffffffffffffffffffffffff167f8be0079c531659141344cd1fd0a4f28419497f9722a3daafe3b4186f6b6457e060405160405180910390a35050565b5f5ffd5b5f73ffffffffffffffffffffffffffffffffffffffff82169050919050565b5f6101ed826101c4565b9050919050565b6101fd816101e3565b8114610207575f5ffd5b50565b5f81519050610218816101f4565b92915050565b5f60208284031215610233576102326101c0565b5b5f6102408482850161020a565b91505092915050565b610252816101e3565b82525050565b5f60208201905061026b5f830184610249565b92915050565b613a7e8061027e5f395ff3fe608060405260043610610138575f3560e01c806395664a3d116100aa578063d0e30db01161006e578063d0e30db0146104a3578063d0ef024a146104ad578063dc663b53146104d7578063ecdc6c23146104ff578063f2fde38b14610529578063fcdf8e8914610551576101e7565b806395664a3d146103bf578063a34398a2146103e9578063c310e24214610425578063c4e5feb61461044f578063c7cd695914610479576101e7565b806348b06e87116100fc57806348b06e87146102c7578063715018a6146102ef578063785fa627146103055780637b1497631461032f578063873f6f9e146103595780638da5cb5b14610395576101e7565b806327e235e3146101eb5780632e1a7d4d1461022757806333f707d11461024f5780633747002d1461027757806343d6582b1461029f576101e7565b366101e7575f341161017f576040517f08c379a0000000000000000000000000000000000000000000000000000000008152600401610176906122e5565b60405180910390fd5b3460045f8282546101909190612339565b925050819055503373ffffffffffffffffffffffffffffffffffffffff167f85177f287940f2f05425a4029951af0e047a7f9c4eaa9a6e6917bcd869f86695346040516101dd919061237b565b60405180910390a2005b5f5ffd5b3480156101f6575f5ffd5b50610211600480360381019061020c91906123f6565b61057b565b60405161021e919061237b565b60405180910390f35b348015610232575f5ffd5b5061024d6004803603810190610248919061244b565b610590565b005b34801561025a575f5ffd5b506102756004803603810190610270919061244b565b6107af565b005b348015610282575f5ffd5b5061029d600480360381019061029891906124cc565b610974565b005b3480156102aa575f5ffd5b506102c560048036038101906102c0919061244b565b610fdc565b005b3480156102d2575f5ffd5b506102ed60048036038101906102e8919061244b565b6113ef565b005b3480156102fa575f5ffd5b50610303611607565b005b348015610310575f5ffd5b5061031961161a565b604051610326919061237b565b60405180910390f35b34801561033a575f5ffd5b50610343611620565b60405161035091906125c4565b60405180910390f35b348015610364575f5ffd5b5061037f600480360381019061037a91906125dd565b611645565b60405161038c9190612635565b60405180910390f35b3480156103a0575f5ffd5b506103a961166f565b6040516103b6919061265d565b60405180910390f35b3480156103ca575f5ffd5b506103d3611696565b6040516103e0919061237b565b60405180910390f35b3480156103f4575f5ffd5b5061040f600480360381019061040a91906125dd565b61169c565b60405161041c9190612635565b60405180910390f35b348015610430575f5ffd5b506104396116c6565b604051610446919061237b565b60405180910390f35b34801561045a575f5ffd5b506104636116cc565b604051610470919061237b565b60405180910390f35b348015610484575f5ffd5b5061048d6116d2565b60405161049a919061265d565b60405180910390f35b6104ab6116fa565b005b3480156104b8575f5ffd5b506104c16117ef565b6040516104ce91906125c4565b60405180910390f35b3480156104e2575f5ffd5b506104fd60048036038101906104f891906126d7565b611814565b005b34801561050a575f5ffd5b50610513611a7f565b604051610520919061237b565b60405180910390f35b348015610534575f5ffd5b5061054f600480360381019061054a91906123f6565b611a85565b005b34801561055c575f5ffd5b50610565611b09565b6040516105729190612795565b60405180910390f35b6002602052805f5260405f205f915090505481565b610598611b1c565b5f81116105da576040517f08c379a00000000000000000000000000000000000000000000000000000000081526004016105d19061281e565b60405180910390fd5b8060025f3373ffffffffffffffffffffffffffffffffffffffff1673ffffffffffffffffffffffffffffffffffffffff1681526020019081526020015f2054101561065a576040517f08c379a000000000000000000000000000000000000000000000000000000000815260040161065190612886565b60405180910390fd5b8060025f3373ffffffffffffffffffffffffffffffffffffffff1673ffffffffffffffffffffffffffffffffffffffff1681526020019081526020015f205f8282546106a691906128a4565b925050819055505f3373ffffffffffffffffffffffffffffffffffffffff16826040516106d290612904565b5f6040518083038185875af1925050503d805f811461070c576040519150601f19603f3d011682016040523d82523d5f602084013e610711565b606091505b5050905080610755576040517f08c379a000000000000000000000000000000000000000000000000000000000815260040161074c90612962565b60405180910390fd5b3373ffffffffffffffffffffffffffffffffffffffff167f7fcf532c15f0a6db0bd6d0e038bea71d30d808c7d98cb3bf7268a95bf5081b658360405161079b919061237b565b60405180910390a2506107ac611b62565b50565b6107b7611b6b565b6107bf611b1c565b5f8111610801576040517f08c379a00000000000000000000000000000000000000000000000000000000081526004016107f8906129f0565b60405180910390fd5b806004541015610846576040517f08c379a000000000000000000000000000000000000000000000000000000000815260040161083d90612a58565b60405180910390fd5b5f61084f61166f565b73ffffffffffffffffffffffffffffffffffffffff168262030d409060405161087790612904565b5f60405180830381858888f193505050503d805f81146108b2576040519150601f19603f3d011682016040523d82523d5f602084013e6108b7565b606091505b50509050806108fb576040517f08c379a00000000000000000000000000000000000000000000000000000000081526004016108f290612ac0565b60405180910390fd5b8160045f82825461090c91906128a4565b9250508190555061091b61166f565b73ffffffffffffffffffffffffffffffffffffffff167fa919fadcfa556a012bab31b15f596ea7ccd397adbf10e15f176db9055ab361c483604051610960919061237b565b60405180910390a250610971611b62565b50565b61097c611b6b565b5f87116109be576040517f08c379a00000000000000000000000000000000000000000000000000000000081526004016109b590612b28565b60405180910390fd5b6003548711610a02576040517f08c379a00000000000000000000000000000000000000000000000000000000081526004016109f990612bb6565b60405180910390fd5b5f8311610a44576040517f08c379a0000000000000000000000000000000000000000000000000000000008152600401610a3b90612c44565b60405180910390fd5b600180811115610a5757610a56612722565b5b856001811115610a6a57610a69612722565b5b03610c23575f73ffffffffffffffffffffffffffffffffffffffff168473ffffffffffffffffffffffffffffffffffffffff1603610add576040517f08c379a0000000000000000000000000000000000000000000000000000000008152600401610ad490612cd2565b60405180910390fd5b5f8473ffffffffffffffffffffffffffffffffffffffff163b11610b36576040517f08c379a0000000000000000000000000000000000000000000000000000000008152600401610b2d90612d3a565b60405180910390fd5b8373ffffffffffffffffffffffffffffffffffffffff166318160ddd6040518163ffffffff1660e01b8152600401602060405180830381865afa925050508015610b9e57506040513d601f19601f82011682018060405250810190610b9b9190612d6c565b60015b610bdd576040517f08c379a0000000000000000000000000000000000000000000000000000000008152600401610bd490612e07565b60405180910390fd5b508360055f6101000a81548173ffffffffffffffffffffffffffffffffffffffff021916908373ffffffffffffffffffffffffffffffffffffffff160217905550610cd2565b5f73ffffffffffffffffffffffffffffffffffffffff168473ffffffffffffffffffffffffffffffffffffffff1614610c91576040517f08c379a0000000000000000000000000000000000000000000000000000000008152600401610c8890612e95565b60405180910390fd5b5f60055f6101000a81548173ffffffffffffffffffffffffffffffffffffffff021916908373ffffffffffffffffffffffffffffffffffffffff1602179055505b5f821115610e8e575f73ffffffffffffffffffffffffffffffffffffffff168173ffffffffffffffffffffffffffffffffffffffff1603610d48576040517f08c379a0000000000000000000000000000000000000000000000000000000008152600401610d3f90612f49565b60405180910390fd5b5f8173ffffffffffffffffffffffffffffffffffffffff163b11610da1576040517f08c379a0000000000000000000000000000000000000000000000000000000008152600401610d9890612fd7565b60405180910390fd5b8073ffffffffffffffffffffffffffffffffffffffff166318160ddd6040518163ffffffff1660e01b8152600401602060405180830381865afa925050508015610e0957506040513d601f19601f82011682018060405250810190610e069190612d6c565b60015b610e48576040517f08c379a0000000000000000000000000000000000000000000000000000000008152600401610e3f90613065565b60405180910390fd5b508060095f6101000a81548173ffffffffffffffffffffffffffffffffffffffff021916908373ffffffffffffffffffffffffffffffffffffffff160217905550610f3d565b5f73ffffffffffffffffffffffffffffffffffffffff168173ffffffffffffffffffffffffffffffffffffffff1614610efc576040517f08c379a0000000000000000000000000000000000000000000000000000000008152600401610ef3906130f3565b60405180910390fd5b5f60095f6101000a81548173ffffffffffffffffffffffffffffffffffffffff021916908373ffffffffffffffffffffffffffffffffffffffff1602179055505b8660038190555085600c8190555084600960146101000a81548160ff02191690836001811115610f7057610f6f612722565b5b021790555082600781905550816008819055505f6004819055505f600681905550867f11cc8bb5effd7a972fa957d1def42cd2502f876fdb96bb40f38ad113d3ae7c87878787878787604051610fcb96959493929190613120565b60405180910390a250505050505050565b610fe4611b1c565b600a5f8281526020019081526020015f205f3373ffffffffffffffffffffffffffffffffffffffff1673ffffffffffffffffffffffffffffffffffffffff1681526020019081526020015f205f9054906101000a900460ff161561107d576040517f08c379a0000000000000000000000000000000000000000000000000000000008152600401611074906131ef565b60405180910390fd5b60035481146110c1576040517f08c379a00000000000000000000000000000000000000000000000000000000081526004016110b890613257565b60405180910390fd5b5f60035411611105576040517f08c379a00000000000000000000000000000000000000000000000000000000081526004016110fc906132bf565b60405180910390fd5b5f6008541115611380575f60095f9054906101000a900473ffffffffffffffffffffffffffffffffffffffff1690505f73ffffffffffffffffffffffffffffffffffffffff168173ffffffffffffffffffffffffffffffffffffffff16036111a2576040517f08c379a000000000000000000000000000000000000000000000000000000000815260040161119990613327565b60405180910390fd5b5f8173ffffffffffffffffffffffffffffffffffffffff166370a08231306040518263ffffffff1660e01b81526004016111dc919061265d565b602060405180830381865afa1580156111f7573d5f5f3e3d5ffd5b505050506040513d601f19601f8201168201806040525081019061121b9190612d6c565b905061124c33306008548573ffffffffffffffffffffffffffffffffffffffff16611bf2909392919063ffffffff16565b5f818373ffffffffffffffffffffffffffffffffffffffff166370a08231306040518263ffffffff1660e01b8152600401611287919061265d565b602060405180830381865afa1580156112a2573d5f5f3e3d5ffd5b505050506040513d601f19601f820116820180604052508101906112c69190612d6c565b6112d091906128a4565b90506008548114611316576040517f08c379a000000000000000000000000000000000000000000000000000000000815260040161130d906133b5565b60405180910390fd5b838373ffffffffffffffffffffffffffffffffffffffff163373ffffffffffffffffffffffffffffffffffffffff167f1f8e0e31739d887c754fcf7403fe1bdf6641ef33578b9d08631a7d5e6e9b8fb784604051611374919061237b565b60405180910390a45050505b6001600a5f8381526020019081526020015f205f3373ffffffffffffffffffffffffffffffffffffffff1673ffffffffffffffffffffffffffffffffffffffff1681526020019081526020015f205f6101000a81548160ff0219169083151502179055506113ec611b62565b50565b6113f7611b6b565b6113ff611b1c565b5f8111611441576040517f08c379a00000000000000000000000000000000000000000000000000000000081526004016114389061341d565b60405180910390fd5b60018081111561145457611453612722565b5b600960149054906101000a900460ff16600181111561147657611475612722565b5b146114b6576040517f08c379a00000000000000000000000000000000000000000000000000000000081526004016114ad906134ab565b60405180910390fd5b5f73ffffffffffffffffffffffffffffffffffffffff1660055f9054906101000a900473ffffffffffffffffffffffffffffffffffffffff1673ffffffffffffffffffffffffffffffffffffffff1603611545576040517f08c379a000000000000000000000000000000000000000000000000000000000815260040161153c90613513565b60405180910390fd5b61159333308360055f9054906101000a900473ffffffffffffffffffffffffffffffffffffffff1673ffffffffffffffffffffffffffffffffffffffff16611bf2909392919063ffffffff16565b8060065f8282546115a49190612339565b925050819055503373ffffffffffffffffffffffffffffffffffffffff167f4708e702157b1eb6cd00a772e6a623599ac7dc0bad76e8c624fdef050b434f098260016040516115f4929190613531565b60405180910390a2611604611b62565b50565b61160f611b6b565b6116185f611c74565b565b60075481565b60095f9054906101000a900473ffffffffffffffffffffffffffffffffffffffff1681565b600b602052815f5260405f20602052805f5260405f205f915091509054906101000a900460ff1681565b5f5f5f9054906101000a900473ffffffffffffffffffffffffffffffffffffffff16905090565b60045481565b600a602052815f5260405f20602052805f5260405f205f915091509054906101000a900460ff1681565b60065481565b60085481565b5f60055f9054906101000a900473ffffffffffffffffffffffffffffffffffffffff16905090565b611702611b1c565b5f3411611744576040517f08c379a000000000000000000000000000000000000000000000000000000000815260040161173b906135c8565b60405180910390fd5b3460025f3373ffffffffffffffffffffffffffffffffffffffff1673ffffffffffffffffffffffffffffffffffffffff1681526020019081526020015f205f8282546117909190612339565b925050819055503373ffffffffffffffffffffffffffffffffffffffff167fe1fffcc4923d04b559f4d29a8bfc6cda04eb5b0d3c460751c2402c5c5cc9109c346040516117dd919061237b565b60405180910390a26117ed611b62565b565b60055f9054906101000a900473ffffffffffffffffffffffffffffffffffffffff1681565b61181c611b1c565b5f60035411611860576040517f08c379a0000000000000000000000000000000000000000000000000000000008152600401611857906132bf565b60405180910390fd5b600a5f60035481526020019081526020015f205f3373ffffffffffffffffffffffffffffffffffffffff1673ffffffffffffffffffffffffffffffffffffffff1681526020019081526020015f205f9054906101000a900460ff166118fa576040517f08c379a00000000000000000000000000000000000000000000000000000000081526004016118f190613630565b60405180910390fd5b600b5f60035481526020019081526020015f205f3373ffffffffffffffffffffffffffffffffffffffff1673ffffffffffffffffffffffffffffffffffffffff1681526020019081526020015f205f9054906101000a900460ff1615611995576040517f08c379a000000000000000000000000000000000000000000000000000000000815260040161198c90613698565b60405180910390fd5b600c5482826040516020016119ab9291906136f2565b6040516020818303038152906040528051906020012014611a01576040517f08c379a00000000000000000000000000000000000000000000000000000000081526004016119f890613754565b60405180910390fd5b6001600b5f60035481526020019081526020015f205f3373ffffffffffffffffffffffffffffffffffffffff1673ffffffffffffffffffffffffffffffffffffffff1681526020019081526020015f205f6101000a81548160ff021916908315150217905550611a7333600754611d35565b611a7b611b62565b5050565b60035481565b611a8d611b6b565b5f73ffffffffffffffffffffffffffffffffffffffff168173ffffffffffffffffffffffffffffffffffffffff1603611afd575f6040517f1e4fbdf7000000000000000000000000000000000000000000000000000000008152600401611af4919061265d565b60405180910390fd5b611b0681611c74565b50565b600960149054906101000a900460ff1681565b600260015403611b58576040517f3ee5aeb500000000000000000000000000000000000000000000000000000000815260040160405180910390fd5b6002600181905550565b60018081905550565b611b73612144565b73ffffffffffffffffffffffffffffffffffffffff16611b9161166f565b73ffffffffffffffffffffffffffffffffffffffff1614611bf057611bb4612144565b6040517f118cdaa7000000000000000000000000000000000000000000000000000000008152600401611be7919061265d565b60405180910390fd5b565b611c6e848573ffffffffffffffffffffffffffffffffffffffff166323b872dd868686604051602401611c2793929190613772565b604051602081830303815290604052915060e01b6020820180517bffffffffffffffffffffffffffffffffffffffffffffffffffffffff838183161783525050505061214b565b50505050565b5f5f5f9054906101000a900473ffffffffffffffffffffffffffffffffffffffff169050815f5f6101000a81548173ffffffffffffffffffffffffffffffffffffffff021916908373ffffffffffffffffffffffffffffffffffffffff1602179055508173ffffffffffffffffffffffffffffffffffffffff168173ffffffffffffffffffffffffffffffffffffffff167f8be0079c531659141344cd1fd0a4f28419497f9722a3daafe3b4186f6b6457e060405160405180910390a35050565b5f73ffffffffffffffffffffffffffffffffffffffff168273ffffffffffffffffffffffffffffffffffffffff1603611da3576040517f08c379a0000000000000000000000000000000000000000000000000000000008152600401611d9a906137f1565b60405180910390fd5b5f8111611de5576040517f08c379a0000000000000000000000000000000000000000000000000000000008152600401611ddc90612c44565b60405180910390fd5b5f6001811115611df857611df7612722565b5b600960149054906101000a900460ff166001811115611e1a57611e19612722565b5b03611f6d57806004541015611e64576040517f08c379a0000000000000000000000000000000000000000000000000000000008152600401611e5b9061387f565b60405180910390fd5b80471015611ea7576040517f08c379a0000000000000000000000000000000000000000000000000000000008152600401611e9e9061390d565b60405180910390fd5b8060045f828254611eb891906128a4565b925050819055505f8273ffffffffffffffffffffffffffffffffffffffff1682604051611ee490612904565b5f6040518083038185875af1925050503d805f8114611f1e576040519150601f19603f3d011682016040523d82523d5f602084013e611f23565b606091505b5050905080611f67576040517f08c379a0000000000000000000000000000000000000000000000000000000008152600401611f5e90613975565b60405180910390fd5b506120e1565b600180811115611f8057611f7f612722565b5b600960149054906101000a900460ff166001811115611fa257611fa1612722565b5b036120e0575f73ffffffffffffffffffffffffffffffffffffffff1660055f9054906101000a900473ffffffffffffffffffffffffffffffffffffffff1673ffffffffffffffffffffffffffffffffffffffff1603612036576040517f08c379a000000000000000000000000000000000000000000000000000000000815260040161202d90613513565b60405180910390fd5b80600654101561207b576040517f08c379a000000000000000000000000000000000000000000000000000000000815260040161207290613a03565b60405180910390fd5b8060065f82825461208c91906128a4565b925050819055506120df828260055f9054906101000a900473ffffffffffffffffffffffffffffffffffffffff1673ffffffffffffffffffffffffffffffffffffffff166121e69092919063ffffffff16565b5b5b8173ffffffffffffffffffffffffffffffffffffffff167fff43c2705b2225c1c9d9d58f088ab64d4fc767737dee523bed37f15fb0c6c3de82600960149054906101000a900460ff16604051612138929190613531565b60405180910390a25050565b5f33905090565b5f5f60205f8451602086015f885af18061216a576040513d5f823e3d81fd5b3d92505f519150505f821461218357600181141561219e565b5f8473ffffffffffffffffffffffffffffffffffffffff163b145b156121e057836040517f5274afe70000000000000000000000000000000000000000000000000000000081526004016121d7919061265d565b60405180910390fd5b50505050565b612260838473ffffffffffffffffffffffffffffffffffffffff1663a9059cbb8585604051602401612219929190613a21565b604051602081830303815290604052915060e01b6020820180517bffffffffffffffffffffffffffffffffffffffffffffffffffffffff838183161783525050505061214b565b505050565b5f82825260208201905092915050565b7f45544820616d6f756e74206d7573742062652067726561746572207468616e205f8201527f7a65726f00000000000000000000000000000000000000000000000000000000602082015250565b5f6122cf602483612265565b91506122da82612275565b604082019050919050565b5f6020820190508181035f8301526122fc816122c3565b9050919050565b5f819050919050565b7f4e487b71000000000000000000000000000000000000000000000000000000005f52601160045260245ffd5b5f61234382612303565b915061234e83612303565b92508282019050808211156123665761236561230c565b5b92915050565b61237581612303565b82525050565b5f60208201905061238e5f83018461236c565b92915050565b5f5ffd5b5f5ffd5b5f73ffffffffffffffffffffffffffffffffffffffff82169050919050565b5f6123c58261239c565b9050919050565b6123d5816123bb565b81146123df575f5ffd5b50565b5f813590506123f0816123cc565b92915050565b5f6020828403121561240b5761240a612394565b5b5f612418848285016123e2565b91505092915050565b61242a81612303565b8114612434575f5ffd5b50565b5f8135905061244581612421565b92915050565b5f602082840312156124605761245f612394565b5b5f61246d84828501612437565b91505092915050565b5f819050919050565b61248881612476565b8114612492575f5ffd5b50565b5f813590506124a38161247f565b92915050565b600281106124b5575f5ffd5b50565b5f813590506124c6816124a9565b92915050565b5f5f5f5f5f5f5f60e0888a0312156124e7576124e6612394565b5b5f6124f48a828b01612437565b97505060206125058a828b01612495565b96505060406125168a828b016124b8565b95505060606125278a828b016123e2565b94505060806125388a828b01612437565b93505060a06125498a828b01612437565b92505060c061255a8a828b016123e2565b91505092959891949750929550565b5f819050919050565b5f61258c6125876125828461239c565b612569565b61239c565b9050919050565b5f61259d82612572565b9050919050565b5f6125ae82612593565b9050919050565b6125be816125a4565b82525050565b5f6020820190506125d75f8301846125b5565b92915050565b5f5f604083850312156125f3576125f2612394565b5b5f61260085828601612437565b9250506020612611858286016123e2565b9150509250929050565b5f8115159050919050565b61262f8161261b565b82525050565b5f6020820190506126485f830184612626565b92915050565b612657816123bb565b82525050565b5f6020820190506126705f83018461264e565b92915050565b5f5ffd5b5f5ffd5b5f5ffd5b5f5f83601f84011261269757612696612676565b5b8235905067ffffffffffffffff8111156126b4576126b361267a565b5b6020830191508360018202830111156126d0576126cf61267e565b5b9250929050565b5f5f602083850312156126ed576126ec612394565b5b5f83013567ffffffffffffffff81111561270a57612709612398565b5b61271685828601612682565b92509250509250929050565b7f4e487b71000000000000000000000000000000000000000000000000000000005f52602160045260245ffd5b600281106127605761275f612722565b5b50565b5f8190506127708261274f565b919050565b5f61277f82612763565b9050919050565b61278f81612775565b82525050565b5f6020820190506127a85f830184612786565b92915050565b7f5769746864726177616c20616d6f756e74206d757374206265206772656174655f8201527f72207468616e207a65726f000000000000000000000000000000000000000000602082015250565b5f612808602b83612265565b9150612813826127ae565b604082019050919050565b5f6020820190508181035f830152612835816127fc565b9050919050565b7f496e73756666696369656e742062616c616e63650000000000000000000000005f82015250565b5f612870601483612265565b915061287b8261283c565b602082019050919050565b5f6020820190508181035f83015261289d81612864565b9050919050565b5f6128ae82612303565b91506128b983612303565b92508282039050818111156128d1576128d061230c565b5b92915050565b5f81905092915050565b50565b5f6128ef5f836128d7565b91506128fa826128e1565b5f82019050919050565b5f61290e826128e4565b9150819050919050565b7f5769746864726177616c206661696c65640000000000000000000000000000005f82015250565b5f61294c601183612265565b915061295782612918565b602082019050919050565b5f6020820190508181035f83015261297981612940565b9050919050565b7f4f776e6572207769746864726177616c20616d6f756e74206d757374206265205f8201527f67726561746572207468616e207a65726f000000000000000000000000000000602082015250565b5f6129da603183612265565b91506129e582612980565b604082019050919050565b5f6020820190508181035f830152612a07816129ce565b9050919050565b7f496e73756666696369656e7420455448207072697a6520706f6f6c00000000005f82015250565b5f612a42601b83612265565b9150612a4d82612a0e565b602082019050919050565b5f6020820190508181035f830152612a6f81612a36565b9050919050565b7f4f776e6572207769746864726177616c206661696c65640000000000000000005f82015250565b5f612aaa601783612265565b9150612ab582612a76565b602082019050919050565b5f6020820190508181035f830152612ad781612a9e565b9050919050565b7f526964646c652049442063616e6e6f74206265207a65726f00000000000000005f82015250565b5f612b12601883612265565b9150612b1d82612ade565b602082019050919050565b5f6020820190508181035f830152612b3f81612b06565b9050919050565b7f526964646c65204944206d7573742062652067726561746572207468616e20635f8201527f757272656e740000000000000000000000000000000000000000000000000000602082015250565b5f612ba0602683612265565b9150612bab82612b46565b604082019050919050565b5f6020820190508181035f830152612bcd81612b94565b9050919050565b7f5072697a6520616d6f756e74206d7573742062652067726561746572207468615f8201527f6e207a65726f0000000000000000000000000000000000000000000000000000602082015250565b5f612c2e602683612265565b9150612c3982612bd4565b604082019050919050565b5f6020820190508181035f830152612c5b81612c22565b9050919050565b7f5072697a6520746f6b656e20616464726573732063616e6e6f74206265207a655f8201527f726f20666f72204552433230207072697a650000000000000000000000000000602082015250565b5f612cbc603283612265565b9150612cc782612c62565b604082019050919050565b5f6020820190508181035f830152612ce981612cb0565b9050919050565b7f5072697a6520746f6b656e20686173206e6f20636f6e747261637420636f64655f82015250565b5f612d24602083612265565b9150612d2f82612cf0565b602082019050919050565b5f6020820190508181035f830152612d5181612d18565b9050919050565b5f81519050612d6681612421565b92915050565b5f60208284031215612d8157612d80612394565b5b5f612d8e84828501612d58565b91505092915050565b7f496e76616c6964204552432d323020746f6b656e3a20746f74616c537570706c5f8201527f792063616c6c206661696c656400000000000000000000000000000000000000602082015250565b5f612df1602d83612265565b9150612dfc82612d97565b604082019050919050565b5f6020820190508181035f830152612e1e81612de5565b9050919050565b7f5072697a6520746f6b656e2061646472657373206d757374206265207a65726f5f8201527f20666f7220455448207072697a65000000000000000000000000000000000000602082015250565b5f612e7f602e83612265565b9150612e8a82612e25565b604082019050919050565b5f6020820190508181035f830152612eac81612e73565b9050919050565b7f456e7472792066656520746f6b656e20616464726573732063616e6e6f7420625f8201527f65207a65726f20696620656e7472792066656520616d6f756e7420697320677260208201527f6561746572207468616e207a65726f0000000000000000000000000000000000604082015250565b5f612f33604f83612265565b9150612f3e82612eb3565b606082019050919050565b5f6020820190508181035f830152612f6081612f27565b9050919050565b7f456e7472792066656520746f6b656e20686173206e6f20636f6e7472616374205f8201527f636f646500000000000000000000000000000000000000000000000000000000602082015250565b5f612fc1602483612265565b9150612fcc82612f67565b604082019050919050565b5f6020820190508181035f830152612fee81612fb5565b9050919050565b7f496e76616c6964204552432d323020746f6b656e20666f7220656e74727920665f8201527f65653a20746f74616c537570706c792063616c6c206661696c65640000000000602082015250565b5f61304f603b83612265565b915061305a82612ff5565b604082019050919050565b5f6020820190508181035f83015261307c81613043565b9050919050565b7f456e7472792066656520746f6b656e2061646472657373206d757374206265205f8201527f7a65726f20696620656e7472792066656520616d6f756e74206973207a65726f602082015250565b5f6130dd604083612265565b91506130e882613083565b604082019050919050565b5f6020820190508181035f83015261310a816130d1565b9050919050565b61311a81612476565b82525050565b5f60c0820190506131335f830189613111565b6131406020830188612786565b61314d604083018761264e565b61315a606083018661236c565b613167608083018561236c565b61317460a083018461264e565b979650505050505050565b7f416c72656164792070617274696369706174656420696e2074686973207269645f8201527f646c650000000000000000000000000000000000000000000000000000000000602082015250565b5f6131d9602383612265565b91506131e48261317f565b604082019050919050565b5f6020820190508181035f830152613206816131cd565b9050919050565b7f4e6f74207468652061637469766520726964646c6520494400000000000000005f82015250565b5f613241601883612265565b915061324c8261320d565b602082019050919050565b5f6020820190508181035f83015261326e81613235565b9050919050565b7f4e6f2061637469766520726964646c65000000000000000000000000000000005f82015250565b5f6132a9601083612265565b91506132b482613275565b602082019050919050565b5f6020820190508181035f8301526132d68161329d565b9050919050565b7f456e7472792066656520746f6b656e206e6f74207365740000000000000000005f82015250565b5f613311601783612265565b915061331c826132dd565b602082019050919050565b5f6020820190508181035f83015261333e81613305565b9050919050565b7f456e74727920666565206d69736d617463682028464f54206e6f7420737570705f8201527f6f72746564290000000000000000000000000000000000000000000000000000602082015250565b5f61339f602683612265565b91506133aa82613345565b604082019050919050565b5f6020820190508181035f8301526133cc81613393565b9050919050565b7f416d6f756e74206d7573742062652067726561746572207468616e207a65726f5f82015250565b5f613407602083612265565b9150613412826133d3565b602082019050919050565b5f6020820190508181035f830152613434816133fb565b9050919050565b7f43757272656e7420726964646c65207072697a65206973206e6f7420455243325f8201527f3000000000000000000000000000000000000000000000000000000000000000602082015250565b5f613495602183612265565b91506134a08261343b565b604082019050919050565b5f6020820190508181035f8301526134c281613489565b9050919050565b7f5072697a6520746f6b656e206e6f7420736574000000000000000000000000005f82015250565b5f6134fd601383612265565b9150613508826134c9565b602082019050919050565b5f6020820190508181035f83015261352a816134f1565b9050919050565b5f6040820190506135445f83018561236c565b6135516020830184612786565b9392505050565b7f4465706f73697420616d6f756e74206d757374206265206772656174657220745f8201527f68616e207a65726f000000000000000000000000000000000000000000000000602082015250565b5f6135b2602883612265565b91506135bd82613558565b604082019050919050565b5f6020820190508181035f8301526135df816135a6565b9050919050565b7f4d75737420656e746572207468652067616d65206669727374000000000000005f82015250565b5f61361a601983612265565b9150613625826135e6565b602082019050919050565b5f6020820190508181035f8301526136478161360e565b9050919050565b7f416c726561647920636c61696d656400000000000000000000000000000000005f82015250565b5f613682600f83612265565b915061368d8261364e565b602082019050919050565b5f6020820190508181035f8301526136af81613676565b9050919050565b5f81905092915050565b828183375f83830152505050565b5f6136d983856136b6565b93506136e68385846136c0565b82840190509392505050565b5f6136fe8284866136ce565b91508190509392505050565b7f496e636f727265637420616e73776572000000000000000000000000000000005f82015250565b5f61373e601083612265565b91506137498261370a565b602082019050919050565b5f6020820190508181035f83015261376b81613732565b9050919050565b5f6060820190506137855f83018661264e565b613792602083018561264e565b61379f604083018461236c565b949350505050565b7f57696e6e657220616464726573732063616e6e6f74206265207a65726f0000005f82015250565b5f6137db601d83612265565b91506137e6826137a7565b602082019050919050565b5f6020820190508181035f830152613808816137cf565b9050919050565b7f496e73756666696369656e7420455448207072697a6520706f6f6c2062616c615f8201527f6e63650000000000000000000000000000000000000000000000000000000000602082015250565b5f613869602383612265565b91506138748261380f565b604082019050919050565b5f6020820190508181035f8301526138968161385d565b9050919050565b7f496e73756666696369656e7420636f6e7472616374204554482062616c616e635f8201527f6500000000000000000000000000000000000000000000000000000000000000602082015250565b5f6138f7602183612265565b91506139028261389d565b604082019050919050565b5f6020820190508181035f830152613924816138eb565b9050919050565b7f455448207472616e73666572206661696c6564000000000000000000000000005f82015250565b5f61395f601383612265565b915061396a8261392b565b602082019050919050565b5f6020820190508181035f83015261398c81613953565b9050919050565b7f496e73756666696369656e74204552433230207072697a6520706f6f6c2062615f8201527f6c616e6365000000000000000000000000000000000000000000000000000000602082015250565b5f6139ed602583612265565b91506139f882613993565b604082019050919050565b5f6020820190508181035f830152613a1a816139e1565b9050919050565b5f604082019050613a345f83018561264e565b613a41602083018461236c565b939250505056fea2646970667358221220035b4daf429621ffb407c0f72255c7d9b8f8cd02a726e60a9fa871620ba471e964736f6c634300081e0033","linkReferences":{}},"methodIdentifiers":{"balances(address)":"27e235e3","currentRiddleId()":"ecdc6c23","deposit()":"d0e30db0","enterGame(uint256)":"43d6582b","entryFeeAmount()":"c4e5feb6","entryFeeToken()":"7b149763","ethPrizePool()":"95664a3d","fundTokenPrizePool(uint256)":"48b06e87","getPrizeToken()":"c7cd6959","hasClaimed(uint256,address)":"873f6f9e","hasParticipated(uint256,address)":"a34398a2","owner()":"8da5cb5b","ownerWithdraw(uint256)":"33f707d1","prizeAmount()":"785fa627","prizeToken()":"d0ef024a","prizeType()":"fcdf8e89","renounceOwnership()":"715018a6","setRiddle(uint256,bytes32,uint8,address,uint256,uint256,address)":"3747002d","solveRiddleAndClaim(string)":"dc663b53","tokenPrizePool()":"c310e242","transferOwnership(address)":"f2fde38b","withdraw(uint256)":"2e1a7d4d"},"id":1}