{"abi":[{"type":"constructor","inputs":[{"name":"initialOwner","type":"address","internalType":"address"}],"stateMutability":"nonpayable"},{"type":"function","name":"balances","inputs":[{"name":"","type":"address","internalType":"address"}],"outputs":[{"name":"","type":"uint256","internalType":"uint256"}],"stateMutability":"view"},{"type":"function","name":"deposit","inputs":[],"outputs":[],"stateMutability":"payable"},{"type":"function","name":"owner","inputs":[],"outputs":[{"name":"","type":"address","internalType":"address"}],"stateMutability":"view"},{"type":"function","name":"ownerWithdraw","inputs":[{"name":"_amount","type":"uint256","internalType":"uint256"}],"outputs":[],"stateMutability":"nonpayable"},{"type":"function","name":"renounceOwnership","inputs":[],"outputs":[],"stateMutability":"nonpayable"},{"type":"function","name":"transferOwnership","inputs":[{"name":"newOwner","type":"address","internalType":"address"}],"outputs":[],"stateMutability":"nonpayable"},{"type":"function","name":"withdraw","inputs":[{"name":"_amount","type":"uint256","internalType":"uint256"}],"outputs":[],"stateMutability":"nonpayable"},{"type":"event","name":"Deposit","inputs":[{"name":"user","type":"address","indexed":true,"internalType":"address"},{"name":"amount","type":"uint256","indexed":false,"internalType":"uint256"}],"anonymous":false},{"type":"event","name":"OwnerWithdrawal","inputs":[{"name":"owner","type":"address","indexed":true,"internalType":"address"},{"name":"amount","type":"uint256","indexed":false,"internalType":"uint256"}],"anonymous":false},{"type":"event","name":"OwnershipTransferred","inputs":[{"name":"previousOwner","type":"address","indexed":true,"internalType":"address"},{"name":"newOwner","type":"address","indexed":true,"internalType":"address"}],"anonymous":false},{"type":"event","name":"Withdrawal","inputs":[{"name":"user","type":"address","indexed":true,"internalType":"address"},{"name":"amount","type":"uint256","indexed":false,"internalType":"uint256"}],"anonymous":false},{"type":"error","name":"OwnableInvalidOwner","inputs":[{"name":"owner","type":"address","internalType":"address"}]},{"type":"error","name":"OwnableUnauthorizedAccount","inputs":[{"name":"account","type":"address","internalType":"address"}]},{"type":"error","name":"ReentrancyGuardReentrantCall","inputs":[]}],"bytecode":{"object":"0x608060405234801561000f575f5ffd5b5060405161107a38038061107a833981810160405281019061003191906101de565b805f73ffffffffffffffffffffffffffffffffffffffff168173ffffffffffffffffffffffffffffffffffffffff16036100a2575f6040517f1e4fbdf70000000000000000000000000000000000000000000000000000000081526004016100999190610218565b60405180910390fd5b6100b1816100bf60201b60201c565b506001808190555050610231565b5f5f5f9054906101000a900473ffffffffffffffffffffffffffffffffffffffff169050815f5f6101000a81548173ffffffffffffffffffffffffffffffffffffffff021916908373ffffffffffffffffffffffffffffffffffffffff1602179055508173ffffffffffffffffffffffffffffffffffffffff168173ffffffffffffffffffffffffffffffffffffffff167f8be0079c531659141344cd1fd0a4f28419497f9722a3daafe3b4186f6b6457e060405160405180910390a35050565b5f5ffd5b5f73ffffffffffffffffffffffffffffffffffffffff82169050919050565b5f6101ad82610184565b9050919050565b6101bd816101a3565b81146101c7575f5ffd5b50565b5f815190506101d8816101b4565b92915050565b5f602082840312156101f3576101f2610180565b5b5f610200848285016101ca565b91505092915050565b610212816101a3565b82525050565b5f60208201905061022b5f830184610209565b92915050565b610e3c8061023e5f395ff3fe60806040526004361061006f575f3560e01c8063715018a61161004d578063715018a6146100ff5780638da5cb5b14610115578063d0e30db01461013f578063f2fde38b146101495761006f565b806327e235e3146100735780632e1a7d4d146100af57806333f707d1146100d7575b5f5ffd5b34801561007e575f5ffd5b50610099600480360381019061009491906108ff565b610171565b6040516100a69190610942565b60405180910390f35b3480156100ba575f5ffd5b506100d560048036038101906100d09190610985565b610186565b005b3480156100e2575f5ffd5b506100fd60048036038101906100f89190610985565b6103a5565b005b34801561010a575f5ffd5b50610113610550565b005b348015610120575f5ffd5b50610129610563565b60405161013691906109bf565b60405180910390f35b61014761058a565b005b348015610154575f5ffd5b5061016f600480360381019061016a91906108ff565b61067f565b005b6002602052805f5260405f205f915090505481565b61018e610703565b5f81116101d0576040517f08c379a00000000000000000000000000000000000000000000000000000000081526004016101c790610a58565b60405180910390fd5b8060025f3373ffffffffffffffffffffffffffffffffffffffff1673ffffffffffffffffffffffffffffffffffffffff1681526020019081526020015f20541015610250576040517f08c379a000000000000000000000000000000000000000000000000000000000815260040161024790610ac0565b60405180910390fd5b8060025f3373ffffffffffffffffffffffffffffffffffffffff1673ffffffffffffffffffffffffffffffffffffffff1681526020019081526020015f205f82825461029c9190610b0b565b925050819055505f3373ffffffffffffffffffffffffffffffffffffffff16826040516102c890610b6b565b5f6040518083038185875af1925050503d805f8114610302576040519150601f19603f3d011682016040523d82523d5f602084013e610307565b606091505b505090508061034b576040517f08c379a000000000000000000000000000000000000000000000000000000000815260040161034290610bc9565b60405180910390fd5b3373ffffffffffffffffffffffffffffffffffffffff167f7fcf532c15f0a6db0bd6d0e038bea71d30d808c7d98cb3bf7268a95bf5081b65836040516103919190610942565b60405180910390a2506103a2610749565b50565b6103ad610752565b6103b5610703565b5f81116103f7576040517f08c379a00000000000000000000000000000000000000000000000000000000081526004016103ee90610c57565b60405180910390fd5b8047101561043a576040517f08c379a000000000000000000000000000000000000000000000000000000000815260040161043190610cbf565b60405180910390fd5b5f610443610563565b73ffffffffffffffffffffffffffffffffffffffff168262030d409060405161046b90610b6b565b5f60405180830381858888f193505050503d805f81146104a6576040519150601f19603f3d011682016040523d82523d5f602084013e6104ab565b606091505b50509050806104ef576040517f08c379a00000000000000000000000000000000000000000000000000000000081526004016104e690610d27565b60405180910390fd5b6104f7610563565b73ffffffffffffffffffffffffffffffffffffffff167fa919fadcfa556a012bab31b15f596ea7ccd397adbf10e15f176db9055ab361c48360405161053c9190610942565b60405180910390a25061054d610749565b50565b610558610752565b6105615f6107d9565b565b5f5f5f9054906101000a900473ffffffffffffffffffffffffffffffffffffffff16905090565b610592610703565b5f34116105d4576040517f08c379a00000000000000000000000000000000000000000000000000000000081526004016105cb90610db5565b60405180910390fd5b3460025f3373ffffffffffffffffffffffffffffffffffffffff1673ffffffffffffffffffffffffffffffffffffffff1681526020019081526020015f205f8282546106209190610dd3565b925050819055503373ffffffffffffffffffffffffffffffffffffffff167fe1fffcc4923d04b559f4d29a8bfc6cda04eb5b0d3c460751c2402c5c5cc9109c3460405161066d9190610942565b60405180910390a261067d610749565b565b610687610752565b5f73ffffffffffffffffffffffffffffffffffffffff168173ffffffffffffffffffffffffffffffffffffffff16036106f7575f6040517f1e4fbdf70000000000000000000000000000000000000000000000000000000081526004016106ee91906109bf565b60405180910390fd5b610700816107d9565b50565b60026001540361073f576040517f3ee5aeb500000000000000000000000000000000000000000000000000000000815260040160405180910390fd5b6002600181905550565b60018081905550565b61075a61089a565b73ffffffffffffffffffffffffffffffffffffffff16610778610563565b73ffffffffffffffffffffffffffffffffffffffff16146107d75761079b61089a565b6040517f118cdaa70000000000000000000000000000000000000000000000000000000081526004016107ce91906109bf565b60405180910390fd5b565b5f5f5f9054906101000a900473ffffffffffffffffffffffffffffffffffffffff169050815f5f6101000a81548173ffffffffffffffffffffffffffffffffffffffff021916908373ffffffffffffffffffffffffffffffffffffffff1602179055508173ffffffffffffffffffffffffffffffffffffffff168173ffffffffffffffffffffffffffffffffffffffff167f8be0079c531659141344cd1fd0a4f28419497f9722a3daafe3b4186f6b6457e060405160405180910390a35050565b5f33905090565b5f5ffd5b5f73ffffffffffffffffffffffffffffffffffffffff82169050919050565b5f6108ce826108a5565b9050919050565b6108de816108c4565b81146108e8575f5ffd5b50565b5f813590506108f9816108d5565b92915050565b5f60208284031215610914576109136108a1565b5b5f610921848285016108eb565b91505092915050565b5f819050919050565b61093c8161092a565b82525050565b5f6020820190506109555f830184610933565b92915050565b6109648161092a565b811461096e575f5ffd5b50565b5f8135905061097f8161095b565b92915050565b5f6020828403121561099a576109996108a1565b5b5f6109a784828501610971565b91505092915050565b6109b9816108c4565b82525050565b5f6020820190506109d25f8301846109b0565b92915050565b5f82825260208201905092915050565b7f5769746864726177616c20616d6f756e74206d757374206265206772656174655f8201527f72207468616e207a65726f000000000000000000000000000000000000000000602082015250565b5f610a42602b836109d8565b9150610a4d826109e8565b604082019050919050565b5f6020820190508181035f830152610a6f81610a36565b9050919050565b7f496e73756666696369656e742062616c616e63650000000000000000000000005f82015250565b5f610aaa6014836109d8565b9150610ab582610a76565b602082019050919050565b5f6020820190508181035f830152610ad781610a9e565b9050919050565b7f4e487b71000000000000000000000000000000000000000000000000000000005f52601160045260245ffd5b5f610b158261092a565b9150610b208361092a565b9250828203905081811115610b3857610b37610ade565b5b92915050565b5f81905092915050565b50565b5f610b565f83610b3e565b9150610b6182610b48565b5f82019050919050565b5f610b7582610b4b565b9150819050919050565b7f5769746864726177616c206661696c65640000000000000000000000000000005f82015250565b5f610bb36011836109d8565b9150610bbe82610b7f565b602082019050919050565b5f6020820190508181035f830152610be081610ba7565b9050919050565b7f4f776e6572207769746864726177616c20616d6f756e74206d757374206265205f8201527f67726561746572207468616e207a65726f000000000000000000000000000000602082015250565b5f610c416031836109d8565b9150610c4c82610be7565b604082019050919050565b5f6020820190508181035f830152610c6e81610c35565b9050919050565b7f496e73756666696369656e7420636f6e74726163742062616c616e63650000005f82015250565b5f610ca9601d836109d8565b9150610cb482610c75565b602082019050919050565b5f6020820190508181035f830152610cd681610c9d565b9050919050565b7f4f776e6572207769746864726177616c206661696c65640000000000000000005f82015250565b5f610d116017836109d8565b9150610d1c82610cdd565b602082019050919050565b5f6020820190508181035f830152610d3e81610d05565b9050919050565b7f4465706f73697420616d6f756e74206d757374206265206772656174657220745f8201527f68616e207a65726f000000000000000000000000000000000000000000000000602082015250565b5f610d9f6028836109d8565b9150610daa82610d45565b604082019050919050565b5f6020820190508181035f830152610dcc81610d93565b9050919050565b5f610ddd8261092a565b9150610de88361092a565b9250828201905080821115610e0057610dff610ade565b5b9291505056fea26469706673582212204e6d4aaf8ada8785e6d02d6bf377a9e4d5f5ef01aac1269bce22ffb8bb2f7a8764736f6c634300081e0033","linkReferences":{}},"methodIdentifiers":{"balances(address)":"27e235e3","deposit()":"d0e30db0","owner()":"8da5cb5b","ownerWithdraw(uint256)":"33f707d1","renounceOwnership()":"715018a6","transferOwnership(address)":"f2fde38b","withdraw(uint256)":"2e1a7d4d"},"id":0}