{"abi":[{"type":"constructor","inputs":[{"name":"initialOwner","type":"address","internalType":"address"},{"name":"_retryTokenAddress","type":"address","internalType":"address"}],"stateMutability":"nonpayable"},{"type":"receive","stateMutability":"payable"},{"type":"function","name":"ENTRY_FEE","inputs":[],"outputs":[{"name":"","type":"uint256","internalType":"uint256"}],"stateMutability":"view"},{"type":"function","name":"MAX_RETRIES","inputs":[],"outputs":[{"name":"","type":"uint256","internalType":"uint256"}],"stateMutability":"view"},{"type":"function","name":"RETRY_COST","inputs":[],"outputs":[{"name":"","type":"uint256","internalType":"uint256"}],"stateMutability":"view"},{"type":"function","name":"balances","inputs":[{"name":"","type":"address","internalType":"address"}],"outputs":[{"name":"","type":"uint256","internalType":"uint256"}],"stateMutability":"view"},{"type":"function","name":"committedAt","inputs":[{"name":"","type":"uint256","internalType":"uint256"},{"name":"","type":"address","internalType":"address"}],"outputs":[{"name":"","type":"uint256","internalType":"uint256"}],"stateMutability":"view"},{"type":"function","name":"committedGuesses","inputs":[{"name":"","type":"uint256","internalType":"uint256"},{"name":"","type":"address","internalType":"address"}],"outputs":[{"name":"","type":"bytes32","internalType":"bytes32"}],"stateMutability":"view"},{"type":"function","name":"currentRiddleId","inputs":[],"outputs":[{"name":"","type":"uint256","internalType":"uint256"}],"stateMutability":"view"},{"type":"function","name":"deposit","inputs":[],"outputs":[],"stateMutability":"payable"},{"type":"function","name":"enterGame","inputs":[{"name":"_riddleId","type":"uint256","internalType":"uint256"}],"outputs":[],"stateMutability":"nonpayable"},{"type":"function","name":"entryFeeToken","inputs":[],"outputs":[{"name":"","type":"address","internalType":"contract IERC20"}],"stateMutability":"view"},{"type":"function","name":"ethPrizePool","inputs":[],"outputs":[{"name":"","type":"uint256","internalType":"uint256"}],"stateMutability":"view"},{"type":"function","name":"fundTokenPrizePool","inputs":[{"name":"_amount","type":"uint256","internalType":"uint256"}],"outputs":[],"stateMutability":"nonpayable"},{"type":"function","name":"getPrizeToken","inputs":[],"outputs":[{"name":"","type":"address","internalType":"address"}],"stateMutability":"view"},{"type":"function","name":"hasClaimed","inputs":[{"name":"","type":"uint256","internalType":"uint256"},{"name":"","type":"address","internalType":"address"}],"outputs":[{"name":"","type":"bool","internalType":"bool"}],"stateMutability":"view"},{"type":"function","name":"hasParticipated","inputs":[{"name":"","type":"uint256","internalType":"uint256"},{"name":"","type":"address","internalType":"address"}],"outputs":[{"name":"","type":"bool","internalType":"bool"}],"stateMutability":"view"},{"type":"function","name":"hasRevealed","inputs":[{"name":"","type":"uint256","internalType":"uint256"},{"name":"","type":"address","internalType":"address"}],"outputs":[{"name":"","type":"bool","internalType":"bool"}],"stateMutability":"view"},{"type":"function","name":"isWinner","inputs":[{"name":"","type":"uint256","internalType":"uint256"},{"name":"","type":"address","internalType":"address"}],"outputs":[{"name":"","type":"bool","internalType":"bool"}],"stateMutability":"view"},{"type":"function","name":"owner","inputs":[],"outputs":[{"name":"","type":"address","internalType":"address"}],"stateMutability":"view"},{"type":"function","name":"ownerWithdraw","inputs":[{"name":"_amount","type":"uint256","internalType":"uint256"}],"outputs":[],"stateMutability":"nonpayable"},{"type":"function","name":"ownerWithdrawTokens","inputs":[{"name":"_amount","type":"uint256","internalType":"uint256"}],"outputs":[],"stateMutability":"nonpayable"},{"type":"function","name":"payout","inputs":[{"name":"_riddleId","type":"uint256","internalType":"uint256"},{"name":"_winners","type":"address[]","internalType":"address[]"}],"outputs":[],"stateMutability":"nonpayable"},{"type":"function","name":"purchaseRetry","inputs":[{"name":"_riddleId","type":"uint256","internalType":"uint256"}],"outputs":[],"stateMutability":"nonpayable"},{"type":"function","name":"renounceOwnership","inputs":[],"outputs":[],"stateMutability":"nonpayable"},{"type":"function","name":"retries","inputs":[{"name":"","type":"address","internalType":"address"}],"outputs":[{"name":"","type":"uint256","internalType":"uint256"}],"stateMutability":"view"},{"type":"function","name":"retryToken","inputs":[],"outputs":[{"name":"","type":"address","internalType":"contract IERC20"}],"stateMutability":"view"},{"type":"function","name":"revealDelay","inputs":[],"outputs":[{"name":"","type":"uint256","internalType":"uint256"}],"stateMutability":"view"},{"type":"function","name":"revealGuess","inputs":[{"name":"_riddleId","type":"uint256","internalType":"uint256"},{"name":"_guess","type":"string","internalType":"string"}],"outputs":[],"stateMutability":"nonpayable"},{"type":"function","name":"revealedGuessHash","inputs":[{"name":"","type":"uint256","internalType":"uint256"},{"name":"","type":"address","internalType":"address"}],"outputs":[{"name":"","type":"bytes32","internalType":"bytes32"}],"stateMutability":"view"},{"type":"function","name":"riddleConfigs","inputs":[{"name":"","type":"uint256","internalType":"uint256"}],"outputs":[{"name":"prizeAmount","type":"uint256","internalType":"uint256"},{"name":"prizeType","type":"uint8","internalType":"enum Vaultis.PrizeType"},{"name":"prizeToken","type":"address","internalType":"contract IERC20"}],"stateMutability":"view"},{"type":"function","name":"setRevealDelay","inputs":[{"name":"_newRevealDelay","type":"uint256","internalType":"uint256"}],"outputs":[],"stateMutability":"nonpayable"},{"type":"function","name":"setRiddle","inputs":[{"name":"_riddleId","type":"uint256","internalType":"uint256"},{"name":"_answerHash","type":"bytes32","internalType":"bytes32"},{"name":"_prizeType","type":"uint8","internalType":"enum Vaultis.PrizeType"},{"name":"_prizeTokenAddress","type":"address","internalType":"address"},{"name":"_prizeAmount","type":"uint256","internalType":"uint256"},{"name":"_entryFeeTokenAddress","type":"address","internalType":"address"}],"outputs":[],"stateMutability":"nonpayable"},{"type":"function","name":"solveRiddleAndClaim","inputs":[{"name":"_answer","type":"string","internalType":"string"}],"outputs":[],"stateMutability":"nonpayable"},{"type":"function","name":"submitGuess","inputs":[{"name":"_riddleId","type":"uint256","internalType":"uint256"},{"name":"_guessHash","type":"bytes32","internalType":"bytes32"}],"outputs":[],"stateMutability":"nonpayable"},{"type":"function","name":"tokenPrizePool","inputs":[],"outputs":[{"name":"","type":"uint256","internalType":"uint256"}],"stateMutability":"view"},{"type":"function","name":"transferOwnership","inputs":[{"name":"newOwner","type":"address","internalType":"address"}],"outputs":[],"stateMutability":"nonpayable"},{"type":"function","name":"winners","inputs":[{"name":"","type":"uint256","internalType":"uint256"},{"name":"","type":"uint256","internalType":"uint256"}],"outputs":[{"name":"","type":"address","internalType":"address"}],"stateMutability":"view"},{"type":"function","name":"withdraw","inputs":[{"name":"_amount","type":"uint256","internalType":"uint256"}],"outputs":[],"stateMutability":"nonpayable"},{"type":"event","name":"Deposit","inputs":[{"name":"user","type":"address","indexed":true,"internalType":"address"},{"name":"amount","type":"uint256","indexed":false,"internalType":"uint256"}],"anonymous":false},{"type":"event","name":"EntryFeeCollected","inputs":[{"name":"player","type":"address","indexed":true,"internalType":"address"},{"name":"token","type":"address","indexed":true,"internalType":"address"},{"name":"amount","type":"uint256","indexed":false,"internalType":"uint256"},{"name":"riddleId","type":"uint256","indexed":true,"internalType":"uint256"}],"anonymous":false},{"type":"event","name":"EthReceived","inputs":[{"name":"sender","type":"address","indexed":true,"internalType":"address"},{"name":"amount","type":"uint256","indexed":false,"internalType":"uint256"}],"anonymous":false},{"type":"event","name":"GuessEvaluated","inputs":[{"name":"riddleId","type":"uint256","indexed":true,"internalType":"uint256"},{"name":"player","type":"address","indexed":true,"internalType":"address"},{"name":"timestamp","type":"uint256","indexed":false,"internalType":"uint256"},{"name":"isWinner","type":"bool","indexed":false,"internalType":"bool"}],"anonymous":false},{"type":"event","name":"GuessRevealed","inputs":[{"name":"player","type":"address","indexed":true,"internalType":"address"},{"name":"riddleId","type":"uint256","indexed":true,"internalType":"uint256"},{"name":"revealedHash","type":"bytes32","indexed":false,"internalType":"bytes32"}],"anonymous":false},{"type":"event","name":"GuessSubmitted","inputs":[{"name":"player","type":"address","indexed":true,"internalType":"address"},{"name":"riddleId","type":"uint256","indexed":true,"internalType":"uint256"},{"name":"guessHash","type":"bytes32","indexed":false,"internalType":"bytes32"}],"anonymous":false},{"type":"event","name":"OwnerWithdrawTokens","inputs":[{"name":"amount","type":"uint256","indexed":false,"internalType":"uint256"}],"anonymous":false},{"type":"event","name":"OwnerWithdrawal","inputs":[{"name":"owner","type":"address","indexed":true,"internalType":"address"},{"name":"amount","type":"uint256","indexed":false,"internalType":"uint256"}],"anonymous":false},{"type":"event","name":"OwnershipTransferred","inputs":[{"name":"previousOwner","type":"address","indexed":true,"internalType":"address"},{"name":"newOwner","type":"address","indexed":true,"internalType":"address"}],"anonymous":false},{"type":"event","name":"PayoutExecuted","inputs":[{"name":"riddleId","type":"uint256","indexed":true,"internalType":"uint256"},{"name":"winnerCount","type":"uint256","indexed":false,"internalType":"uint256"},{"name":"totalAmount","type":"uint256","indexed":false,"internalType":"uint256"},{"name":"prizeType","type":"uint8","indexed":false,"internalType":"enum Vaultis.PrizeType"}],"anonymous":false},{"type":"event","name":"PlayerEntered","inputs":[{"name":"player","type":"address","indexed":true,"internalType":"address"},{"name":"riddleId","type":"uint256","indexed":true,"internalType":"uint256"}],"anonymous":false},{"type":"event","name":"PrizeDistributed","inputs":[{"name":"winner","type":"address","indexed":true,"internalType":"address"},{"name":"amount","type":"uint256","indexed":false,"internalType":"uint256"},{"name":"prizeType","type":"uint8","indexed":false,"internalType":"enum Vaultis.PrizeType"}],"anonymous":false},{"type":"event","name":"PrizeFunded","inputs":[{"name":"funder","type":"address","indexed":true,"internalType":"address"},{"name":"amount","type":"uint256","indexed":false,"internalType":"uint256"},{"name":"prizeType","type":"uint8","indexed":false,"internalType":"enum Vaultis.PrizeType"}],"anonymous":false},{"type":"event","name":"RetryPurchased","inputs":[{"name":"player","type":"address","indexed":true,"internalType":"address"},{"name":"riddleId","type":"uint256","indexed":true,"internalType":"uint256"},{"name":"cost","type":"uint256","indexed":false,"internalType":"uint256"},{"name":"newRetryCount","type":"uint256","indexed":false,"internalType":"uint256"}],"anonymous":false},{"type":"event","name":"RiddleInitialized","inputs":[{"name":"riddleId","type":"uint256","indexed":true,"internalType":"uint256"},{"name":"answerHash","type":"bytes32","indexed":false,"internalType":"bytes32"},{"name":"prizeType","type":"uint8","indexed":false,"internalType":"uint8"},{"name":"prizeTokenAddress","type":"address","indexed":false,"internalType":"address"},{"name":"prizeAmount","type":"uint256","indexed":false,"internalType":"uint256"},{"name":"entryFeeTokenAddress","type":"address","indexed":false,"internalType":"address"}],"anonymous":false},{"type":"event","name":"WinnerFound","inputs":[{"name":"winner","type":"address","indexed":true,"internalType":"address"},{"name":"riddleId","type":"uint256","indexed":true,"internalType":"uint256"}],"anonymous":false},{"type":"event","name":"Withdrawal","inputs":[{"name":"user","type":"address","indexed":true,"internalType":"address"},{"name":"amount","type":"uint256","indexed":false,"internalType":"uint256"}],"anonymous":false},{"type":"error","name":"OwnableInvalidOwner","inputs":[{"name":"owner","type":"address","internalType":"address"}]},{"type":"error","name":"OwnableUnauthorizedAccount","inputs":[{"name":"account","type":"address","internalType":"address"}]},{"type":"error","name":"ReentrancyGuardReentrantCall","inputs":[]},{"type":"error","name":"SafeERC20FailedOperation","inputs":[{"name":"token","type":"address","internalType":"address"}]}],"bytecode":{"object":"0x608060405234801561000f575f5ffd5b5060405161751f38038061751f833981810160405281019061003191906103d7565b815f73ffffffffffffffffffffffffffffffffffffffff168173ffffffffffffffffffffffffffffffffffffffff16036100a2575f6040517f1e4fbdf70000000000000000000000000000000000000000000000000000000081526004016100999190610424565b60405180910390fd5b6100b1816102b860201b60201c565b50600180819055505f73ffffffffffffffffffffffffffffffffffffffff168173ffffffffffffffffffffffffffffffffffffffff1603610127576040517f08c379a000000000000000000000000000000000000000000000000000000000815260040161011e906104bd565b60405180910390fd5b5f8173ffffffffffffffffffffffffffffffffffffffff163b11610180576040517f08c379a000000000000000000000000000000000000000000000000000000000815260040161017790610525565b60405180910390fd5b8073ffffffffffffffffffffffffffffffffffffffff166318160ddd6040518163ffffffff1660e01b8152600401602060405180830381865afa9250505080156101e857506040513d601f19601f820116820180604052508101906101e59190610576565b60015b610227576040517f08c379a000000000000000000000000000000000000000000000000000000000815260040161021e90610611565b60405180910390fd5b505f60065f6101000a81548173ffffffffffffffffffffffffffffffffffffffff021916908373ffffffffffffffffffffffffffffffffffffffff160217905550610e106011819055508060085f6101000a81548173ffffffffffffffffffffffffffffffffffffffff021916908373ffffffffffffffffffffffffffffffffffffffff160217905550505061062f565b5f5f5f9054906101000a900473ffffffffffffffffffffffffffffffffffffffff169050815f5f6101000a81548173ffffffffffffffffffffffffffffffffffffffff021916908373ffffffffffffffffffffffffffffffffffffffff1602179055508173ffffffffffffffffffffffffffffffffffffffff168173ffffffffffffffffffffffffffffffffffffffff167f8be0079c531659141344cd1fd0a4f28419497f9722a3daafe3b4186f6b6457e060405160405180910390a35050565b5f5ffd5b5f73ffffffffffffffffffffffffffffffffffffffff82169050919050565b5f6103a68261037d565b9050919050565b6103b68161039c565b81146103c0575f5ffd5b50565b5f815190506103d1816103ad565b92915050565b5f5f604083850312156103ed576103ec610379565b5b5f6103fa858286016103c3565b925050602061040b858286016103c3565b9150509250929050565b61041e8161039c565b82525050565b5f6020820190506104375f830184610415565b92915050565b5f82825260208201905092915050565b7f526574727920746f6b656e20616464726573732063616e6e6f74206265207a655f8201527f726f000000000000000000000000000000000000000000000000000000000000602082015250565b5f6104a760228361043d565b91506104b28261044d565b604082019050919050565b5f6020820190508181035f8301526104d48161049b565b9050919050565b7f526574727920746f6b656e20686173206e6f20636f6e747261637420636f64655f82015250565b5f61050f60208361043d565b915061051a826104db565b602082019050919050565b5f6020820190508181035f83015261053c81610503565b9050919050565b5f819050919050565b61055581610543565b811461055f575f5ffd5b50565b5f815190506105708161054c565b92915050565b5f6020828403121561058b5761058a610379565b5b5f61059884828501610562565b91505092915050565b7f496e76616c6964204552432d323020746f6b656e20666f722072657472793a205f8201527f746f74616c537570706c792063616c6c206661696c6564000000000000000000602082015250565b5f6105fb60378361043d565b9150610606826105a1565b604082019050919050565b5f6020820190508181035f830152610628816105ef565b9050919050565b616ee38061063c5f395ff3fe60806040526004361061021d575f3560e01c80638da5cb5b11610122578063c7cd6959116100aa578063e4d33ee31161006e578063e4d33ee314610890578063ecdc6c23146108b8578063f2fde38b146108e2578063f6d361cc1461090a578063f9f82e9c14610934576102cc565b8063c7cd6959146107d0578063c8e728f9146107fa578063d0e30db014610822578063dbbd32451461082c578063dc663b5314610868576102cc565b8063a6dbce24116100f1578063a6dbce24146106b4578063b7173e77146106f2578063bdd415af1461072e578063c06a5fc51461076a578063c310e242146107a6576102cc565b80638da5cb5b146105fc57806395664a3d14610626578063a34398a214610650578063a68c25d81461068c576102cc565b806346ebbdb0116101a557806360972120116101745780636097212014610530578063715018a6146105585780637a11e9411461056e5780637b14976314610596578063873f6f9e146105c0576102cc565b806346ebbdb01461048a57806348b06e87146104b457806353236d74146104dc57806357aa0ea214610506576102cc565b8063219fc385116101ec578063219fc385146103ac57806327e235e3146103d65780632e1a7d4d1461041257806333f707d11461043a57806343d6582b14610462576102cc565b80630efc8865146102d057806312b5afc11461030c57806316b5551d14610334578063188240cd14610370576102cc565b366102cc575f3411610264576040517f08c379a000000000000000000000000000000000000000000000000000000000815260040161025b90614627565b60405180910390fd5b3460045f828254610275919061467b565b925050819055503373ffffffffffffffffffffffffffffffffffffffff167f85177f287940f2f05425a4029951af0e047a7f9c4eaa9a6e6917bcd869f86695346040516102c291906146bd565b60405180910390a2005b5f5ffd5b3480156102db575f5ffd5b506102f660048036038101906102f19190614711565b61095c565b604051610303919061478e565b60405180910390f35b348015610317575f5ffd5b50610332600480360381019061032d91906148e3565b6109a4565b005b34801561033f575f5ffd5b5061035a60048036038101906103559190614967565b610efc565b60405161036791906149bf565b60405180910390f35b34801561037b575f5ffd5b5061039660048036038101906103919190614967565b610f26565b6040516103a391906149f0565b60405180910390f35b3480156103b7575f5ffd5b506103c0610f46565b6040516103cd9190614a64565b60405180910390f35b3480156103e1575f5ffd5b506103fc60048036038101906103f79190614a7d565b610f6b565b60405161040991906146bd565b60405180910390f35b34801561041d575f5ffd5b5061043860048036038101906104339190614aa8565b610f80565b005b348015610445575f5ffd5b50610460600480360381019061045b9190614aa8565b61119f565b005b34801561046d575f5ffd5b5061048860048036038101906104839190614aa8565b611364565b005b348015610495575f5ffd5b5061049e611896565b6040516104ab91906146bd565b60405180910390f35b3480156104bf575f5ffd5b506104da60048036038101906104d59190614aa8565b61189b565b005b3480156104e7575f5ffd5b506104f0611ad1565b6040516104fd91906146bd565b60405180910390f35b348015610511575f5ffd5b5061051a611ad7565b60405161052791906146bd565b60405180910390f35b34801561053b575f5ffd5b5061055660048036038101906105519190614aa8565b611ae3565b005b348015610563575f5ffd5b5061056c611cd3565b005b348015610579575f5ffd5b50610594600480360381019061058f9190614aa8565b611ce6565b005b3480156105a1575f5ffd5b506105aa61227a565b6040516105b79190614a64565b60405180910390f35b3480156105cb575f5ffd5b506105e660048036038101906105e19190614967565b61229f565b6040516105f391906149bf565b60405180910390f35b348015610607575f5ffd5b506106106122c9565b60405161061d919061478e565b60405180910390f35b348015610631575f5ffd5b5061063a6122f0565b60405161064791906146bd565b60405180910390f35b34801561065b575f5ffd5b5061067660048036038101906106719190614967565b6122f6565b60405161068391906149bf565b60405180910390f35b348015610697575f5ffd5b506106b260048036038101906106ad9190614aa8565b612320565b005b3480156106bf575f5ffd5b506106da60048036038101906106d59190614aa8565b612332565b6040516106e993929190614b46565b60405180910390f35b3480156106fd575f5ffd5b5061071860048036038101906107139190614967565b612384565b60405161072591906149f0565b60405180910390f35b348015610739575f5ffd5b50610754600480360381019061074f9190614967565b6123a4565b60405161076191906149bf565b60405180910390f35b348015610775575f5ffd5b50610790600480360381019061078b9190614967565b6123ce565b60405161079d91906146bd565b60405180910390f35b3480156107b1575f5ffd5b506107ba6123ee565b6040516107c791906146bd565b60405180910390f35b3480156107db575f5ffd5b506107e46123f4565b6040516107f1919061478e565b60405180910390f35b348015610805575f5ffd5b50610820600480360381019061081b9190614c3f565b612431565b005b61082a612aad565b005b348015610837575f5ffd5b50610852600480360381019061084d9190614a7d565b612ba2565b60405161085f91906146bd565b60405180910390f35b348015610873575f5ffd5b5061088e60048036038101906108899190614cf2565b612bb7565b005b34801561089b575f5ffd5b506108b660048036038101906108b19190614d67565b613010565b005b3480156108c3575f5ffd5b506108cc61371f565b6040516108d991906146bd565b60405180910390f35b3480156108ed575f5ffd5b5061090860048036038101906109039190614a7d565b613725565b005b348015610915575f5ffd5b5061091e6137a9565b60405161092b91906146bd565b60405180910390f35b34801561093f575f5ffd5b5061095a60048036038101906109559190614dc8565b6137b5565b005b6013602052815f5260405f208181548110610975575f80fd5b905f5260205f20015f915091509054906101000a900473ffffffffffffffffffffffffffffffffffffffff1681565b6109ac613ecb565b5f82116109ee576040517f08c379a00000000000000000000000000000000000000000000000000000000081526004016109e590614e9b565b60405180910390fd5b6003548214610a32576040517f08c379a0000000000000000000000000000000000000000000000000000000008152600401610a2990614f03565b60405180910390fd5b60095f8381526020019081526020015f205f3373ffffffffffffffffffffffffffffffffffffffff1673ffffffffffffffffffffffffffffffffffffffff1681526020019081526020015f205f9054906101000a900460ff16610aca576040517f08c379a0000000000000000000000000000000000000000000000000000000008152600401610ac190614f6b565b60405180910390fd5b5f5f1b600d5f8481526020019081526020015f205f3373ffffffffffffffffffffffffffffffffffffffff1673ffffffffffffffffffffffffffffffffffffffff1681526020019081526020015f205403610b5a576040517f08c379a0000000000000000000000000000000000000000000000000000000008152600401610b5190614fd3565b60405180910390fd5b60105f8381526020019081526020015f205f3373ffffffffffffffffffffffffffffffffffffffff1673ffffffffffffffffffffffffffffffffffffffff1681526020019081526020015f205f9054906101000a900460ff1615610bf3576040517f08c379a0000000000000000000000000000000000000000000000000000000008152600401610bea9061503b565b60405180910390fd5b601154600e5f8481526020019081526020015f205f3373ffffffffffffffffffffffffffffffffffffffff1673ffffffffffffffffffffffffffffffffffffffff1681526020019081526020015f2054610c4d919061467b565b421015610c8f576040517f08c379a0000000000000000000000000000000000000000000000000000000008152600401610c86906150a3565b60405180910390fd5b5f81604051602001610ca19190615113565b604051602081830303815290604052805190602001209050600d5f8481526020019081526020015f205f3373ffffffffffffffffffffffffffffffffffffffff1673ffffffffffffffffffffffffffffffffffffffff1681526020019081526020015f20548114610d47576040517f08c379a0000000000000000000000000000000000000000000000000000000008152600401610d3e90615173565b60405180910390fd5b80600f5f8581526020019081526020015f205f3373ffffffffffffffffffffffffffffffffffffffff1673ffffffffffffffffffffffffffffffffffffffff1681526020019081526020015f2081905550600160105f8581526020019081526020015f205f3373ffffffffffffffffffffffffffffffffffffffff1673ffffffffffffffffffffffffffffffffffffffff1681526020019081526020015f205f6101000a81548160ff0219169083151502179055505f5f1b600d5f8581526020019081526020015f205f3373ffffffffffffffffffffffffffffffffffffffff1673ffffffffffffffffffffffffffffffffffffffff1681526020019081526020015f20819055505f600e5f8581526020019081526020015f205f3373ffffffffffffffffffffffffffffffffffffffff1673ffffffffffffffffffffffffffffffffffffffff1681526020019081526020015f2081905550823373ffffffffffffffffffffffffffffffffffffffff167f59d3b853b3060eb254d2f04ecf2d2fba8ec34ae94835cd01eedead529314f52483604051610ee791906149f0565b60405180910390a350610ef8613f11565b5050565b6010602052815f5260405f20602052805f5260405f205f915091509054906101000a900460ff1681565b600f602052815f5260405f20602052805f5260405f205f91509150505481565b60085f9054906101000a900473ffffffffffffffffffffffffffffffffffffffff1681565b6002602052805f5260405f205f915090505481565b610f88613ecb565b5f8111610fca576040517f08c379a0000000000000000000000000000000000000000000000000000000008152600401610fc190615201565b60405180910390fd5b8060025f3373ffffffffffffffffffffffffffffffffffffffff1673ffffffffffffffffffffffffffffffffffffffff1681526020019081526020015f2054101561104a576040517f08c379a000000000000000000000000000000000000000000000000000000000815260040161104190615269565b60405180910390fd5b8060025f3373ffffffffffffffffffffffffffffffffffffffff1673ffffffffffffffffffffffffffffffffffffffff1681526020019081526020015f205f8282546110969190615287565b925050819055505f3373ffffffffffffffffffffffffffffffffffffffff16826040516110c2906152e7565b5f6040518083038185875af1925050503d805f81146110fc576040519150601f19603f3d011682016040523d82523d5f602084013e611101565b606091505b5050905080611145576040517f08c379a000000000000000000000000000000000000000000000000000000000815260040161113c90615345565b60405180910390fd5b3373ffffffffffffffffffffffffffffffffffffffff167f7fcf532c15f0a6db0bd6d0e038bea71d30d808c7d98cb3bf7268a95bf5081b658360405161118b91906146bd565b60405180910390a25061119c613f11565b50565b6111a7613f1a565b6111af613ecb565b5f81116111f1576040517f08c379a00000000000000000000000000000000000000000000000000000000081526004016111e8906153d3565b60405180910390fd5b806004541015611236576040517f08c379a000000000000000000000000000000000000000000000000000000000815260040161122d9061543b565b60405180910390fd5b8060045f8282546112479190615287565b925050819055505f6112576122c9565b73ffffffffffffffffffffffffffffffffffffffff168262030d409060405161127f906152e7565b5f60405180830381858888f193505050503d805f81146112ba576040519150601f19603f3d011682016040523d82523d5f602084013e6112bf565b606091505b5050905080611303576040517f08c379a00000000000000000000000000000000000000000000000000000000081526004016112fa906154a3565b60405180910390fd5b61130b6122c9565b73ffffffffffffffffffffffffffffffffffffffff167fa919fadcfa556a012bab31b15f596ea7ccd397adbf10e15f176db9055ab361c48360405161135091906146bd565b60405180910390a250611361613f11565b50565b61136c613ecb565b60095f8281526020019081526020015f205f3373ffffffffffffffffffffffffffffffffffffffff1673ffffffffffffffffffffffffffffffffffffffff1681526020019081526020015f205f9054906101000a900460ff1615611405576040517f08c379a00000000000000000000000000000000000000000000000000000000081526004016113fc90615531565b60405180910390fd5b6003548114611449576040517f08c379a000000000000000000000000000000000000000000000000000000000815260040161144090614f03565b60405180910390fd5b5f6003541161148d576040517f08c379a000000000000000000000000000000000000000000000000000000000815260040161148490615599565b60405180910390fd5b80600c5f3373ffffffffffffffffffffffffffffffffffffffff1673ffffffffffffffffffffffffffffffffffffffff1681526020019081526020015f205414611556575f600b5f3373ffffffffffffffffffffffffffffffffffffffff1673ffffffffffffffffffffffffffffffffffffffff1681526020019081526020015f208190555080600c5f3373ffffffffffffffffffffffffffffffffffffffff1673ffffffffffffffffffffffffffffffffffffffff1681526020019081526020015f20819055505b5f670de0b6b3a764000011156117e3575f60065f9054906101000a900473ffffffffffffffffffffffffffffffffffffffff1690505f73ffffffffffffffffffffffffffffffffffffffff168173ffffffffffffffffffffffffffffffffffffffff16036115f9576040517f08c379a00000000000000000000000000000000000000000000000000000000081526004016115f090615601565b60405180910390fd5b5f8173ffffffffffffffffffffffffffffffffffffffff166370a08231306040518263ffffffff1660e01b8152600401611633919061478e565b602060405180830381865afa15801561164e573d5f5f3e3d5ffd5b505050506040513d601f19601f820116820180604052508101906116729190615633565b90506116a93330670de0b6b3a76400008573ffffffffffffffffffffffffffffffffffffffff16613fa1909392919063ffffffff16565b5f818373ffffffffffffffffffffffffffffffffffffffff166370a08231306040518263ffffffff1660e01b81526004016116e4919061478e565b602060405180830381865afa1580156116ff573d5f5f3e3d5ffd5b505050506040513d601f19601f820116820180604052508101906117239190615633565b61172d9190615287565b9050670de0b6b3a76400008114611779576040517f08c379a0000000000000000000000000000000000000000000000000000000008152600401611770906156ce565b60405180910390fd5b838373ffffffffffffffffffffffffffffffffffffffff163373ffffffffffffffffffffffffffffffffffffffff167f1f8e0e31739d887c754fcf7403fe1bdf6641ef33578b9d08631a7d5e6e9b8fb7846040516117d791906146bd565b60405180910390a45050505b600160095f8381526020019081526020015f205f3373ffffffffffffffffffffffffffffffffffffffff1673ffffffffffffffffffffffffffffffffffffffff1681526020019081526020015f205f6101000a81548160ff021916908315150217905550803373ffffffffffffffffffffffffffffffffffffffff167fc16481c9484122696a660b57df0bf6839645c6b620cb1704ac2437de13be922560405160405180910390a3611893613f11565b50565b600381565b6118a3613f1a565b6118ab613ecb565b5f81116118ed576040517f08c379a00000000000000000000000000000000000000000000000000000000081526004016118e490615736565b60405180910390fd5b5f60075f60035481526020019081526020015f20905060018081111561191657611915614ad3565b5b816001015f9054906101000a900460ff16600181111561193957611938614ad3565b5b14611979576040517f08c379a0000000000000000000000000000000000000000000000000000000008152600401611970906157c4565b60405180910390fd5b5f73ffffffffffffffffffffffffffffffffffffffff168160010160019054906101000a900473ffffffffffffffffffffffffffffffffffffffff1673ffffffffffffffffffffffffffffffffffffffff1603611a0b576040517f08c379a0000000000000000000000000000000000000000000000000000000008152600401611a029061582c565b60405180910390fd5b611a5c3330848460010160019054906101000a900473ffffffffffffffffffffffffffffffffffffffff1673ffffffffffffffffffffffffffffffffffffffff16613fa1909392919063ffffffff16565b8160055f828254611a6d919061467b565b925050819055503373ffffffffffffffffffffffffffffffffffffffff167f4708e702157b1eb6cd00a772e6a623599ac7dc0bad76e8c624fdef050b434f09836001604051611abd92919061584a565b60405180910390a250611ace613f11565b50565b60115481565b67016345785d8a000081565b611aeb613f1a565b611af3613ecb565b5f8111611b35576040517f08c379a0000000000000000000000000000000000000000000000000000000008152600401611b2c906158e1565b60405180910390fd5b806005541015611b7a576040517f08c379a0000000000000000000000000000000000000000000000000000000008152600401611b7190615949565b60405180910390fd5b5f60075f60035481526020019081526020015f2090505f73ffffffffffffffffffffffffffffffffffffffff168160010160019054906101000a900473ffffffffffffffffffffffffffffffffffffffff1673ffffffffffffffffffffffffffffffffffffffff1603611c22576040517f08c379a0000000000000000000000000000000000000000000000000000000008152600401611c199061582c565b60405180910390fd5b8160055f828254611c339190615287565b92505081905550611c90611c456122c9565b838360010160019054906101000a900473ffffffffffffffffffffffffffffffffffffffff1673ffffffffffffffffffffffffffffffffffffffff166140239092919063ffffffff16565b7f560c2b6d9212838c63f631c64ebc9d7364da90f9af3fdec847c0725dd18330c882604051611cbf91906146bd565b60405180910390a150611cd0613f11565b50565b611cdb613f1a565b611ce45f6140a2565b565b611cee613ecb565b6003548114611d32576040517f08c379a0000000000000000000000000000000000000000000000000000000008152600401611d2990614f03565b60405180910390fd5b60095f8281526020019081526020015f205f3373ffffffffffffffffffffffffffffffffffffffff1673ffffffffffffffffffffffffffffffffffffffff1681526020019081526020015f205f9054906101000a900460ff16611dca576040517f08c379a0000000000000000000000000000000000000000000000000000000008152600401611dc1906159d7565b60405180910390fd5b5f73ffffffffffffffffffffffffffffffffffffffff1660085f9054906101000a900473ffffffffffffffffffffffffffffffffffffffff1673ffffffffffffffffffffffffffffffffffffffff1603611e59576040517f08c379a0000000000000000000000000000000000000000000000000000000008152600401611e5090615a3f565b60405180910390fd5b6003600b5f3373ffffffffffffffffffffffffffffffffffffffff1673ffffffffffffffffffffffffffffffffffffffff1681526020019081526020015f205410611ed9576040517f08c379a0000000000000000000000000000000000000000000000000000000008152600401611ed090615aa7565b60405180910390fd5b80600c5f3373ffffffffffffffffffffffffffffffffffffffff1673ffffffffffffffffffffffffffffffffffffffff1681526020019081526020015f205414611fa2575f600b5f3373ffffffffffffffffffffffffffffffffffffffff1673ffffffffffffffffffffffffffffffffffffffff1681526020019081526020015f208190555080600c5f3373ffffffffffffffffffffffffffffffffffffffff1673ffffffffffffffffffffffffffffffffffffffff1681526020019081526020015f20819055505b5f60085f9054906101000a900473ffffffffffffffffffffffffffffffffffffffff1673ffffffffffffffffffffffffffffffffffffffff166370a08231306040518263ffffffff1660e01b8152600401611ffd919061478e565b602060405180830381865afa158015612018573d5f5f3e3d5ffd5b505050506040513d601f19601f8201168201806040525081019061203c9190615633565b9050612094333067016345785d8a000060085f9054906101000a900473ffffffffffffffffffffffffffffffffffffffff1673ffffffffffffffffffffffffffffffffffffffff16613fa1909392919063ffffffff16565b5f8160085f9054906101000a900473ffffffffffffffffffffffffffffffffffffffff1673ffffffffffffffffffffffffffffffffffffffff166370a08231306040518263ffffffff1660e01b81526004016120f0919061478e565b602060405180830381865afa15801561210b573d5f5f3e3d5ffd5b505050506040513d601f19601f8201168201806040525081019061212f9190615633565b6121399190615287565b905067016345785d8a00008114612185576040517f08c379a000000000000000000000000000000000000000000000000000000000815260040161217c90615b35565b60405180910390fd5b600b5f3373ffffffffffffffffffffffffffffffffffffffff1673ffffffffffffffffffffffffffffffffffffffff1681526020019081526020015f205f8154809291906121d290615b53565b9190505550823373ffffffffffffffffffffffffffffffffffffffff167f98afd9c8b4874dc0b797b810a6a8488429aea97e225fc6e70d948f77660fbee767016345785d8a0000600b5f3373ffffffffffffffffffffffffffffffffffffffff1673ffffffffffffffffffffffffffffffffffffffff1681526020019081526020015f2054604051612265929190615b9a565b60405180910390a35050612277613f11565b50565b60065f9054906101000a900473ffffffffffffffffffffffffffffffffffffffff1681565b600a602052815f5260405f20602052805f5260405f205f915091509054906101000a900460ff1681565b5f5f5f9054906101000a900473ffffffffffffffffffffffffffffffffffffffff16905090565b60045481565b6009602052815f5260405f20602052805f5260405f205f915091509054906101000a900460ff1681565b612328613f1a565b8060118190555050565b6007602052805f5260405f205f91509050805f015490806001015f9054906101000a900460ff16908060010160019054906101000a900473ffffffffffffffffffffffffffffffffffffffff16905083565b600d602052815f5260405f20602052805f5260405f205f91509150505481565b6014602052815f5260405f20602052805f5260405f205f915091509054906101000a900460ff1681565b600e602052815f5260405f20602052805f5260405f205f91509150505481565b60055481565b5f60075f60035481526020019081526020015f2060010160019054906101000a900473ffffffffffffffffffffffffffffffffffffffff16905090565b612439613f1a565b612441613ecb565b5f8211612483576040517f08c379a000000000000000000000000000000000000000000000000000000000815260040161247a90615c31565b60405180910390fd5b6003548211156124c8576040517f08c379a00000000000000000000000000000000000000000000000000000000081526004016124bf90615cbf565b60405180910390fd5b5f81511161250b576040517f08c379a000000000000000000000000000000000000000000000000000000000815260040161250290615d27565b60405180910390fd5b5f5f90505b81518110156125f0575f600182612527919061467b565b90505b82518110156125e25782818151811061254657612545615d45565b5b602002602001015173ffffffffffffffffffffffffffffffffffffffff1683838151811061257757612576615d45565b5b602002602001015173ffffffffffffffffffffffffffffffffffffffff16036125d5576040517f08c379a00000000000000000000000000000000000000000000000000000000081526004016125cc90615de2565b60405180910390fd5b808060010191505061252a565b508080600101915050612510565b505f60075f8481526020019081526020015f2090505f815f01541161264a576040517f08c379a000000000000000000000000000000000000000000000000000000000815260040161264190615e4a565b60405180910390fd5b5f8251825f015461265b9190615e95565b90505f8351835f015461266e9190615ec5565b90505f82118061267d57505f81115b6126bc576040517f08c379a00000000000000000000000000000000000000000000000000000000081526004016126b390615f65565b60405180910390fd5b5f5f90505f5f90505b855181101561276157600a5f8881526020019081526020015f205f8783815181106126f3576126f2615d45565b5b602002602001015173ffffffffffffffffffffffffffffffffffffffff1673ffffffffffffffffffffffffffffffffffffffff1681526020019081526020015f205f9054906101000a900460ff1661275457818061275090615b53565b9250505b80806001019150506126c5565b505f81116127a4576040517f08c379a000000000000000000000000000000000000000000000000000000000815260040161279b90615fcd565b60405180910390fd5b5f81846127b19190615feb565b90505f8311156127ca5782816127c7919061467b565b90505b5f60018111156127dd576127dc614ad3565b5b856001015f9054906101000a900460ff166001811115612800576127ff614ad3565b5b0361284f5780600454101561284a576040517f08c379a00000000000000000000000000000000000000000000000000000000081526004016128419061609c565b60405180910390fd5b6128d1565b60018081111561286257612861614ad3565b5b856001015f9054906101000a900460ff16600181111561288557612884614ad3565b5b036128d0578060055410156128cf576040517f08c379a00000000000000000000000000000000000000000000000000000000081526004016128c69061612a565b60405180910390fd5b5b5b5f5f90505f5f90505f5f90505b8851811015612a4d575f8982815181106128fb576128fa615d45565b5b60200260200101519050600a5f8c81526020019081526020015f205f8273ffffffffffffffffffffffffffffffffffffffff1673ffffffffffffffffffffffffffffffffffffffff1681526020019081526020015f205f9054906101000a900460ff16612a3f576001600a5f8d81526020019081526020015f205f8373ffffffffffffffffffffffffffffffffffffffff1673ffffffffffffffffffffffffffffffffffffffff1681526020019081526020015f205f6101000a81548160ff0219169083151502179055505f8890505f881180156129d7575083155b156129ef5787816129e8919061467b565b9050600193505b612a2f82828c6001015f9054906101000a900460ff168d60010160019054906101000a900473ffffffffffffffffffffffffffffffffffffffff16614163565b8480612a3a90615b53565b955050505b5080806001019150506128de565b50887f05b3fb943ea68b7671b7ed75aaf73035d0a2b890f252f1fab94052394cd6db8e83858a6001015f9054906101000a900460ff16604051612a9293929190616148565b60405180910390a250505050505050612aa9613f11565b5050565b612ab5613ecb565b5f3411612af7576040517f08c379a0000000000000000000000000000000000000000000000000000000008152600401612aee906161ed565b60405180910390fd5b3460025f3373ffffffffffffffffffffffffffffffffffffffff1673ffffffffffffffffffffffffffffffffffffffff1681526020019081526020015f205f828254612b43919061467b565b925050819055503373ffffffffffffffffffffffffffffffffffffffff167fe1fffcc4923d04b559f4d29a8bfc6cda04eb5b0d3c460751c2402c5c5cc9109c34604051612b9091906146bd565b60405180910390a2612ba0613f11565b565b600b602052805f5260405f205f915090505481565b612bbf613ecb565b5f60035411612c03576040517f08c379a0000000000000000000000000000000000000000000000000000000008152600401612bfa90615599565b60405180910390fd5b60095f60035481526020019081526020015f205f3373ffffffffffffffffffffffffffffffffffffffff1673ffffffffffffffffffffffffffffffffffffffff1681526020019081526020015f205f9054906101000a900460ff16612c9d576040517f08c379a0000000000000000000000000000000000000000000000000000000008152600401612c9490614f6b565b60405180910390fd5b600a5f60035481526020019081526020015f205f3373ffffffffffffffffffffffffffffffffffffffff1673ffffffffffffffffffffffffffffffffffffffff1681526020019081526020015f205f9054906101000a900460ff1615612d38576040517f08c379a0000000000000000000000000000000000000000000000000000000008152600401612d2f90616255565b60405180910390fd5b60105f60035481526020019081526020015f205f3373ffffffffffffffffffffffffffffffffffffffff1673ffffffffffffffffffffffffffffffffffffffff1681526020019081526020015f205f9054906101000a900460ff16612dd2576040517f08c379a0000000000000000000000000000000000000000000000000000000008152600401612dc9906162bd565b60405180910390fd5b8181604051602001612de59291906162ff565b60405160208183030381529060405280519060200120600f5f60035481526020019081526020015f205f3373ffffffffffffffffffffffffffffffffffffffff1673ffffffffffffffffffffffffffffffffffffffff1681526020019081526020015f205414612e8a576040517f08c379a0000000000000000000000000000000000000000000000000000000008152600401612e8190616387565b60405180910390fd5b6001600a5f60035481526020019081526020015f205f3373ffffffffffffffffffffffffffffffffffffffff1673ffffffffffffffffffffffffffffffffffffffff1681526020019081526020015f205f6101000a81548160ff0219169083151502179055505f60075f60035481526020019081526020015f209050612f4933825f0154836001015f9054906101000a900460ff168460010160019054906101000a900473ffffffffffffffffffffffffffffffffffffffff16614163565b5f5f1b600f5f60035481526020019081526020015f205f3373ffffffffffffffffffffffffffffffffffffffff1673ffffffffffffffffffffffffffffffffffffffff1681526020019081526020015f20819055505f60105f60035481526020019081526020015f205f3373ffffffffffffffffffffffffffffffffffffffff1673ffffffffffffffffffffffffffffffffffffffff1681526020019081526020015f205f6101000a81548160ff0219169083151502179055505061300c613f11565b5050565b613018613ecb565b5f821161305a576040517f08c379a000000000000000000000000000000000000000000000000000000000815260040161305190614e9b565b60405180910390fd5b600354821461309e576040517f08c379a000000000000000000000000000000000000000000000000000000000815260040161309590614f03565b60405180910390fd5b5f5f1b81036130e2576040517f08c379a00000000000000000000000000000000000000000000000000000000081526004016130d9906163ef565b60405180910390fd5b60095f8381526020019081526020015f205f3373ffffffffffffffffffffffffffffffffffffffff1673ffffffffffffffffffffffffffffffffffffffff1681526020019081526020015f205f9054906101000a900460ff1661317a576040517f08c379a000000000000000000000000000000000000000000000000000000000815260040161317190614f6b565b60405180910390fd5b5f5f1b600d5f8481526020019081526020015f205f3373ffffffffffffffffffffffffffffffffffffffff1673ffffffffffffffffffffffffffffffffffffffff1681526020019081526020015f2054146133fb575f600b5f3373ffffffffffffffffffffffffffffffffffffffff1673ffffffffffffffffffffffffffffffffffffffff1681526020019081526020015f20541161324e576040517f08c379a000000000000000000000000000000000000000000000000000000000815260040161324590616457565b60405180910390fd5b600b5f3373ffffffffffffffffffffffffffffffffffffffff1673ffffffffffffffffffffffffffffffffffffffff1681526020019081526020015f205f81548092919061329b90616475565b91905055505f5f1b600d5f8481526020019081526020015f205f3373ffffffffffffffffffffffffffffffffffffffff1673ffffffffffffffffffffffffffffffffffffffff1681526020019081526020015f20819055505f600e5f8481526020019081526020015f205f3373ffffffffffffffffffffffffffffffffffffffff1673ffffffffffffffffffffffffffffffffffffffff1681526020019081526020015f20819055505f5f1b600f5f8481526020019081526020015f205f3373ffffffffffffffffffffffffffffffffffffffff1673ffffffffffffffffffffffffffffffffffffffff1681526020019081526020015f20819055505f60105f8481526020019081526020015f205f3373ffffffffffffffffffffffffffffffffffffffff1673ffffffffffffffffffffffffffffffffffffffff1681526020019081526020015f205f6101000a81548160ff0219169083151502179055505b60125481036135d05760145f8381526020019081526020015f205f3373ffffffffffffffffffffffffffffffffffffffff1673ffffffffffffffffffffffffffffffffffffffff1681526020019081526020015f205f9054906101000a900460ff166135795760135f8381526020019081526020015f2033908060018154018082558091505060019003905f5260205f20015f9091909190916101000a81548173ffffffffffffffffffffffffffffffffffffffff021916908373ffffffffffffffffffffffffffffffffffffffff160217905550600160145f8481526020019081526020015f205f3373ffffffffffffffffffffffffffffffffffffffff1673ffffffffffffffffffffffffffffffffffffffff1681526020019081526020015f205f6101000a81548160ff021916908315150217905550813373ffffffffffffffffffffffffffffffffffffffff167fb5d93c368c4bd18876654db9fd5dcef5a3583ccde4d81659e7f309f36c84490560405160405180910390a35b3373ffffffffffffffffffffffffffffffffffffffff16827f6dbad7911810fc45c016aff41534b7adcd5477454a9b5be0d995a93518cde6754260016040516135c392919061649c565b60405180910390a3613622565b3373ffffffffffffffffffffffffffffffffffffffff16827f6dbad7911810fc45c016aff41534b7adcd5477454a9b5be0d995a93518cde675425f60405161361992919061649c565b60405180910390a35b80600d5f8481526020019081526020015f205f3373ffffffffffffffffffffffffffffffffffffffff1673ffffffffffffffffffffffffffffffffffffffff1681526020019081526020015f208190555042600e5f8481526020019081526020015f205f3373ffffffffffffffffffffffffffffffffffffffff1673ffffffffffffffffffffffffffffffffffffffff1681526020019081526020015f2081905550813373ffffffffffffffffffffffffffffffffffffffff167fc5009e6865ae04f58da43f80d7eb9718a2f25a7ccfeb22a8ca0031e77b86b50a8360405161370b91906149f0565b60405180910390a361371b613f11565b5050565b60035481565b61372d613f1a565b5f73ffffffffffffffffffffffffffffffffffffffff168173ffffffffffffffffffffffffffffffffffffffff160361379d575f6040517f1e4fbdf7000000000000000000000000000000000000000000000000000000008152600401613794919061478e565b60405180910390fd5b6137a6816140a2565b50565b670de0b6b3a764000081565b6137bd613f1a565b5f86116137ff576040517f08c379a00000000000000000000000000000000000000000000000000000000081526004016137f690614e9b565b60405180910390fd5b6003548611613843576040517f08c379a000000000000000000000000000000000000000000000000000000000815260040161383a90616533565b60405180910390fd5b5f8211613885576040517f08c379a000000000000000000000000000000000000000000000000000000000815260040161387c906165c1565b60405180910390fd5b60018081111561389857613897614ad3565b5b8460018111156138ab576138aa614ad3565b5b03613a24575f73ffffffffffffffffffffffffffffffffffffffff168373ffffffffffffffffffffffffffffffffffffffff160361391e576040517f08c379a00000000000000000000000000000000000000000000000000000000081526004016139159061664f565b60405180910390fd5b5f8373ffffffffffffffffffffffffffffffffffffffff163b11613977576040517f08c379a000000000000000000000000000000000000000000000000000000000815260040161396e906166b7565b60405180910390fd5b8273ffffffffffffffffffffffffffffffffffffffff166318160ddd6040518163ffffffff1660e01b8152600401602060405180830381865afa9250505080156139df57506040513d601f19601f820116820180604052508101906139dc9190615633565b60015b613a1e576040517f08c379a0000000000000000000000000000000000000000000000000000000008152600401613a1590616745565b60405180910390fd5b50613a93565b5f73ffffffffffffffffffffffffffffffffffffffff168373ffffffffffffffffffffffffffffffffffffffff1614613a92576040517f08c379a0000000000000000000000000000000000000000000000000000000008152600401613a89906167d3565b60405180910390fd5b5b5f670de0b6b3a76400001115613c57575f73ffffffffffffffffffffffffffffffffffffffff168173ffffffffffffffffffffffffffffffffffffffff1603613b11576040517f08c379a0000000000000000000000000000000000000000000000000000000008152600401613b0890616887565b60405180910390fd5b5f8173ffffffffffffffffffffffffffffffffffffffff163b11613b6a576040517f08c379a0000000000000000000000000000000000000000000000000000000008152600401613b6190616915565b60405180910390fd5b8073ffffffffffffffffffffffffffffffffffffffff166318160ddd6040518163ffffffff1660e01b8152600401602060405180830381865afa925050508015613bd257506040513d601f19601f82011682018060405250810190613bcf9190615633565b60015b613c11576040517f08c379a0000000000000000000000000000000000000000000000000000000008152600401613c08906169a3565b60405180910390fd5b508060065f6101000a81548173ffffffffffffffffffffffffffffffffffffffff021916908373ffffffffffffffffffffffffffffffffffffffff160217905550613d06565b5f73ffffffffffffffffffffffffffffffffffffffff168173ffffffffffffffffffffffffffffffffffffffff1614613cc5576040517f08c379a0000000000000000000000000000000000000000000000000000000008152600401613cbc90616a31565b60405180910390fd5b5f60065f6101000a81548173ffffffffffffffffffffffffffffffffffffffff021916908373ffffffffffffffffffffffffffffffffffffffff1602179055505b5f60045414613d4a576040517f08c379a0000000000000000000000000000000000000000000000000000000008152600401613d4190616abf565b60405180910390fd5b5f60055414613d8e576040517f08c379a0000000000000000000000000000000000000000000000000000000008152600401613d8590616b4d565b60405180910390fd5b85600381905550846012819055506040518060600160405280838152602001856001811115613dc057613dbf614ad3565b5b81526020018473ffffffffffffffffffffffffffffffffffffffff1681525060075f8881526020019081526020015f205f820151815f01556020820151816001015f6101000a81548160ff02191690836001811115613e2257613e21614ad3565b5b021790555060408201518160010160016101000a81548173ffffffffffffffffffffffffffffffffffffffff021916908373ffffffffffffffffffffffffffffffffffffffff160217905550905050857f05227007ca99c4e41f51fb024dcb2065e16bd026db353ce7f322e5cdb4fb2e9d86866001811115613ea757613ea6614ad3565b5b868686604051613ebb959493929190616b86565b60405180910390a2505050505050565b600260015403613f07576040517f3ee5aeb500000000000000000000000000000000000000000000000000000000815260040160405180910390fd5b6002600181905550565b60018081905550565b613f22614505565b73ffffffffffffffffffffffffffffffffffffffff16613f406122c9565b73ffffffffffffffffffffffffffffffffffffffff1614613f9f57613f63614505565b6040517f118cdaa7000000000000000000000000000000000000000000000000000000008152600401613f96919061478e565b60405180910390fd5b565b61401d848573ffffffffffffffffffffffffffffffffffffffff166323b872dd868686604051602401613fd693929190616bd7565b604051602081830303815290604052915060e01b6020820180517bffffffffffffffffffffffffffffffffffffffffffffffffffffffff838183161783525050505061450c565b50505050565b61409d838473ffffffffffffffffffffffffffffffffffffffff1663a9059cbb8585604051602401614056929190616c0c565b604051602081830303815290604052915060e01b6020820180517bffffffffffffffffffffffffffffffffffffffffffffffffffffffff838183161783525050505061450c565b505050565b5f5f5f9054906101000a900473ffffffffffffffffffffffffffffffffffffffff169050815f5f6101000a81548173ffffffffffffffffffffffffffffffffffffffff021916908373ffffffffffffffffffffffffffffffffffffffff1602179055508173ffffffffffffffffffffffffffffffffffffffff168173ffffffffffffffffffffffffffffffffffffffff167f8be0079c531659141344cd1fd0a4f28419497f9722a3daafe3b4186f6b6457e060405160405180910390a35050565b5f73ffffffffffffffffffffffffffffffffffffffff168473ffffffffffffffffffffffffffffffffffffffff16036141d1576040517f08c379a00000000000000000000000000000000000000000000000000000000081526004016141c890616c7d565b60405180910390fd5b5f8311614213576040517f08c379a000000000000000000000000000000000000000000000000000000000815260040161420a906165c1565b60405180910390fd5b5f600181111561422657614225614ad3565b5b82600181111561423957614238614ad3565b5b0361438c57826004541015614283576040517f08c379a000000000000000000000000000000000000000000000000000000000815260040161427a90616d0b565b60405180910390fd5b824710156142c6576040517f08c379a00000000000000000000000000000000000000000000000000000000081526004016142bd90616d99565b60405180910390fd5b8260045f8282546142d79190615287565b925050819055505f8473ffffffffffffffffffffffffffffffffffffffff1684604051614303906152e7565b5f6040518083038185875af1925050503d805f811461433d576040519150601f19603f3d011682016040523d82523d5f602084013e614342565b606091505b5050905080614386576040517f08c379a000000000000000000000000000000000000000000000000000000000815260040161437d90616e01565b60405180910390fd5b506144af565b60018081111561439f5761439e614ad3565b5b8260018111156143b2576143b1614ad3565b5b036144ae575f73ffffffffffffffffffffffffffffffffffffffff168173ffffffffffffffffffffffffffffffffffffffff1603614425576040517f08c379a000000000000000000000000000000000000000000000000000000000815260040161441c9061582c565b60405180910390fd5b82600554101561446a576040517f08c379a000000000000000000000000000000000000000000000000000000000815260040161446190616e8f565b60405180910390fd5b8260055f82825461447b9190615287565b925050819055506144ad84848373ffffffffffffffffffffffffffffffffffffffff166140239092919063ffffffff16565b5b5b8373ffffffffffffffffffffffffffffffffffffffff167fff43c2705b2225c1c9d9d58f088ab64d4fc767737dee523bed37f15fb0c6c3de84846040516144f792919061584a565b60405180910390a250505050565b5f33905090565b5f5f60205f8451602086015f885af18061452b576040513d5f823e3d81fd5b3d92505f519150505f821461454457600181141561455f565b5f8473ffffffffffffffffffffffffffffffffffffffff163b145b156145a157836040517f5274afe7000000000000000000000000000000000000000000000000000000008152600401614598919061478e565b60405180910390fd5b50505050565b5f82825260208201905092915050565b7f45544820616d6f756e74206d7573742062652067726561746572207468616e205f8201527f7a65726f00000000000000000000000000000000000000000000000000000000602082015250565b5f6146116024836145a7565b915061461c826145b7565b604082019050919050565b5f6020820190508181035f83015261463e81614605565b9050919050565b5f819050919050565b7f4e487b71000000000000000000000000000000000000000000000000000000005f52601160045260245ffd5b5f61468582614645565b915061469083614645565b92508282019050808211156146a8576146a761464e565b5b92915050565b6146b781614645565b82525050565b5f6020820190506146d05f8301846146ae565b92915050565b5f604051905090565b5f5ffd5b5f5ffd5b6146f081614645565b81146146fa575f5ffd5b50565b5f8135905061470b816146e7565b92915050565b5f5f60408385031215614727576147266146df565b5b5f614734858286016146fd565b9250506020614745858286016146fd565b9150509250929050565b5f73ffffffffffffffffffffffffffffffffffffffff82169050919050565b5f6147788261474f565b9050919050565b6147888161476e565b82525050565b5f6020820190506147a15f83018461477f565b92915050565b5f5ffd5b5f5ffd5b5f601f19601f8301169050919050565b7f4e487b71000000000000000000000000000000000000000000000000000000005f52604160045260245ffd5b6147f5826147af565b810181811067ffffffffffffffff82111715614814576148136147bf565b5b80604052505050565b5f6148266146d6565b905061483282826147ec565b919050565b5f67ffffffffffffffff821115614851576148506147bf565b5b61485a826147af565b9050602081019050919050565b828183375f83830152505050565b5f61488761488284614837565b61481d565b9050828152602081018484840111156148a3576148a26147ab565b5b6148ae848285614867565b509392505050565b5f82601f8301126148ca576148c96147a7565b5b81356148da848260208601614875565b91505092915050565b5f5f604083850312156148f9576148f86146df565b5b5f614906858286016146fd565b925050602083013567ffffffffffffffff811115614927576149266146e3565b5b614933858286016148b6565b9150509250929050565b6149468161476e565b8114614950575f5ffd5b50565b5f813590506149618161493d565b92915050565b5f5f6040838503121561497d5761497c6146df565b5b5f61498a858286016146fd565b925050602061499b85828601614953565b9150509250929050565b5f8115159050919050565b6149b9816149a5565b82525050565b5f6020820190506149d25f8301846149b0565b92915050565b5f819050919050565b6149ea816149d8565b82525050565b5f602082019050614a035f8301846149e1565b92915050565b5f819050919050565b5f614a2c614a27614a228461474f565b614a09565b61474f565b9050919050565b5f614a3d82614a12565b9050919050565b5f614a4e82614a33565b9050919050565b614a5e81614a44565b82525050565b5f602082019050614a775f830184614a55565b92915050565b5f60208284031215614a9257614a916146df565b5b5f614a9f84828501614953565b91505092915050565b5f60208284031215614abd57614abc6146df565b5b5f614aca848285016146fd565b91505092915050565b7f4e487b71000000000000000000000000000000000000000000000000000000005f52602160045260245ffd5b60028110614b1157614b10614ad3565b5b50565b5f819050614b2182614b00565b919050565b5f614b3082614b14565b9050919050565b614b4081614b26565b82525050565b5f606082019050614b595f8301866146ae565b614b666020830185614b37565b614b736040830184614a55565b949350505050565b5f67ffffffffffffffff821115614b9557614b946147bf565b5b602082029050602081019050919050565b5f5ffd5b5f614bbc614bb784614b7b565b61481d565b90508083825260208201905060208402830185811115614bdf57614bde614ba6565b5b835b81811015614c085780614bf48882614953565b845260208401935050602081019050614be1565b5050509392505050565b5f82601f830112614c2657614c256147a7565b5b8135614c36848260208601614baa565b91505092915050565b5f5f60408385031215614c5557614c546146df565b5b5f614c62858286016146fd565b925050602083013567ffffffffffffffff811115614c8357614c826146e3565b5b614c8f85828601614c12565b9150509250929050565b5f5ffd5b5f5f83601f840112614cb257614cb16147a7565b5b8235905067ffffffffffffffff811115614ccf57614cce614c99565b5b602083019150836001820283011115614ceb57614cea614ba6565b5b9250929050565b5f5f60208385031215614d0857614d076146df565b5b5f83013567ffffffffffffffff811115614d2557614d246146e3565b5b614d3185828601614c9d565b92509250509250929050565b614d46816149d8565b8114614d50575f5ffd5b50565b5f81359050614d6181614d3d565b92915050565b5f5f60408385031215614d7d57614d7c6146df565b5b5f614d8a858286016146fd565b9250506020614d9b85828601614d53565b9150509250929050565b60028110614db1575f5ffd5b50565b5f81359050614dc281614da5565b92915050565b5f5f5f5f5f5f60c08789031215614de257614de16146df565b5b5f614def89828a016146fd565b9650506020614e0089828a01614d53565b9550506040614e1189828a01614db4565b9450506060614e2289828a01614953565b9350506080614e3389828a016146fd565b92505060a0614e4489828a01614953565b9150509295509295509295565b7f526964646c652049442063616e6e6f74206265207a65726f00000000000000005f82015250565b5f614e856018836145a7565b9150614e9082614e51565b602082019050919050565b5f6020820190508181035f830152614eb281614e79565b9050919050565b7f4e6f74207468652061637469766520726964646c6520494400000000000000005f82015250565b5f614eed6018836145a7565b9150614ef882614eb9565b602082019050919050565b5f6020820190508181035f830152614f1a81614ee1565b9050919050565b7f4d75737420656e746572207468652067616d65206669727374000000000000005f82015250565b5f614f556019836145a7565b9150614f6082614f21565b602082019050919050565b5f6020820190508181035f830152614f8281614f49565b9050919050565b7f4e6f20636f6d6d697474656420677565737300000000000000000000000000005f82015250565b5f614fbd6012836145a7565b9150614fc882614f89565b602082019050919050565b5f6020820190508181035f830152614fea81614fb1565b9050919050565b7f416c72656164792072657665616c6564000000000000000000000000000000005f82015250565b5f6150256010836145a7565b915061503082614ff1565b602082019050919050565b5f6020820190508181035f83015261505281615019565b9050919050565b7f52657665616c20746f6f206561726c79000000000000000000000000000000005f82015250565b5f61508d6010836145a7565b915061509882615059565b602082019050919050565b5f6020820190508181035f8301526150ba81615081565b9050919050565b5f81519050919050565b5f81905092915050565b8281835e5f83830152505050565b5f6150ed826150c1565b6150f781856150cb565b93506151078185602086016150d5565b80840191505092915050565b5f61511e82846150e3565b915081905092915050565b7f52657665616c20646f6573206e6f74206d6174636820636f6d6d6974000000005f82015250565b5f61515d601c836145a7565b915061516882615129565b602082019050919050565b5f6020820190508181035f83015261518a81615151565b9050919050565b7f5769746864726177616c20616d6f756e74206d757374206265206772656174655f8201527f72207468616e207a65726f000000000000000000000000000000000000000000602082015250565b5f6151eb602b836145a7565b91506151f682615191565b604082019050919050565b5f6020820190508181035f830152615218816151df565b9050919050565b7f496e73756666696369656e742062616c616e63650000000000000000000000005f82015250565b5f6152536014836145a7565b915061525e8261521f565b602082019050919050565b5f6020820190508181035f83015261528081615247565b9050919050565b5f61529182614645565b915061529c83614645565b92508282039050818111156152b4576152b361464e565b5b92915050565b5f81905092915050565b50565b5f6152d25f836152ba565b91506152dd826152c4565b5f82019050919050565b5f6152f1826152c7565b9150819050919050565b7f5769746864726177616c206661696c65640000000000000000000000000000005f82015250565b5f61532f6011836145a7565b915061533a826152fb565b602082019050919050565b5f6020820190508181035f83015261535c81615323565b9050919050565b7f4f776e6572207769746864726177616c20616d6f756e74206d757374206265205f8201527f67726561746572207468616e207a65726f000000000000000000000000000000602082015250565b5f6153bd6031836145a7565b91506153c882615363565b604082019050919050565b5f6020820190508181035f8301526153ea816153b1565b9050919050565b7f496e73756666696369656e7420455448207072697a6520706f6f6c00000000005f82015250565b5f615425601b836145a7565b9150615430826153f1565b602082019050919050565b5f6020820190508181035f83015261545281615419565b9050919050565b7f4f776e6572207769746864726177616c206661696c65640000000000000000005f82015250565b5f61548d6017836145a7565b915061549882615459565b602082019050919050565b5f6020820190508181035f8301526154ba81615481565b9050919050565b7f416c72656164792070617274696369706174656420696e2074686973207269645f8201527f646c650000000000000000000000000000000000000000000000000000000000602082015250565b5f61551b6023836145a7565b9150615526826154c1565b604082019050919050565b5f6020820190508181035f8301526155488161550f565b9050919050565b7f4e6f2061637469766520726964646c65000000000000000000000000000000005f82015250565b5f6155836010836145a7565b915061558e8261554f565b602082019050919050565b5f6020820190508181035f8301526155b081615577565b9050919050565b7f456e7472792066656520746f6b656e206e6f74207365740000000000000000005f82015250565b5f6155eb6017836145a7565b91506155f6826155b7565b602082019050919050565b5f6020820190508181035f830152615618816155df565b9050919050565b5f8151905061562d816146e7565b92915050565b5f60208284031215615648576156476146df565b5b5f6156558482850161561f565b91505092915050565b7f456e74727920666565206d69736d617463682028464f54206e6f7420737570705f8201527f6f72746564290000000000000000000000000000000000000000000000000000602082015250565b5f6156b86026836145a7565b91506156c38261565e565b604082019050919050565b5f6020820190508181035f8301526156e5816156ac565b9050919050565b7f416d6f756e74206d7573742062652067726561746572207468616e207a65726f5f82015250565b5f6157206020836145a7565b915061572b826156ec565b602082019050919050565b5f6020820190508181035f83015261574d81615714565b9050919050565b7f43757272656e7420726964646c65207072697a65206973206e6f7420455243325f8201527f3000000000000000000000000000000000000000000000000000000000000000602082015250565b5f6157ae6021836145a7565b91506157b982615754565b604082019050919050565b5f6020820190508181035f8301526157db816157a2565b9050919050565b7f5072697a6520746f6b656e206e6f7420736574000000000000000000000000005f82015250565b5f6158166013836145a7565b9150615821826157e2565b602082019050919050565b5f6020820190508181035f8301526158438161580a565b9050919050565b5f60408201905061585d5f8301856146ae565b61586a6020830184614b37565b9392505050565b7f4f776e657220746f6b656e207769746864726177616c20616d6f756e74206d755f8201527f73742062652067726561746572207468616e207a65726f000000000000000000602082015250565b5f6158cb6037836145a7565b91506158d682615871565b604082019050919050565b5f6020820190508181035f8301526158f8816158bf565b9050919050565b7f496e73756666696369656e7420746f6b656e207072697a6520706f6f6c0000005f82015250565b5f615933601d836145a7565b915061593e826158ff565b602082019050919050565b5f6020820190508181035f83015261596081615927565b9050919050565b7f4d75737420706172746963697061746520696e2074686520726964646c6520665f8201527f6972737400000000000000000000000000000000000000000000000000000000602082015250565b5f6159c16024836145a7565b91506159cc82615967565b604082019050919050565b5f6020820190508181035f8301526159ee816159b5565b9050919050565b7f526574727920746f6b656e206e6f7420736574000000000000000000000000005f82015250565b5f615a296013836145a7565b9150615a34826159f5565b602082019050919050565b5f6020820190508181035f830152615a5681615a1d565b9050919050565b7f4d617820726574726965732072656163686564000000000000000000000000005f82015250565b5f615a916013836145a7565b9150615a9c82615a5d565b602082019050919050565b5f6020820190508181035f830152615abe81615a85565b9050919050565b7f526574727920636f7374206d69736d617463682028464f54206e6f74207375705f8201527f706f727465642900000000000000000000000000000000000000000000000000602082015250565b5f615b1f6027836145a7565b9150615b2a82615ac5565b604082019050919050565b5f6020820190508181035f830152615b4c81615b13565b9050919050565b5f615b5d82614645565b91507fffffffffffffffffffffffffffffffffffffffffffffffffffffffffffffffff8203615b8f57615b8e61464e565b5b600182019050919050565b5f604082019050615bad5f8301856146ae565b615bba60208301846146ae565b9392505050565b7f526964646c65204944206d7573742062652067726561746572207468616e207a5f8201527f65726f0000000000000000000000000000000000000000000000000000000000602082015250565b5f615c1b6023836145a7565b9150615c2682615bc1565b604082019050919050565b5f6020820190508181035f830152615c4881615c0f565b9050919050565b7f526964646c65204944206d7573742062652063757272656e74206f72207061735f8201527f7400000000000000000000000000000000000000000000000000000000000000602082015250565b5f615ca96021836145a7565b9150615cb482615c4f565b604082019050919050565b5f6020820190508181035f830152615cd681615c9d565b9050919050565b7f57696e6e6572732061727261792063616e6e6f7420626520656d7074790000005f82015250565b5f615d11601d836145a7565b9150615d1c82615cdd565b602082019050919050565b5f6020820190508181035f830152615d3e81615d05565b9050919050565b7f4e487b71000000000000000000000000000000000000000000000000000000005f52603260045260245ffd5b7f4475706c69636174652077696e6e657220616464726573736573206e6f7420615f8201527f6c6c6f7765640000000000000000000000000000000000000000000000000000602082015250565b5f615dcc6026836145a7565b9150615dd782615d72565b604082019050919050565b5f6020820190508181035f830152615df981615dc0565b9050919050565b7f526964646c65207072697a6520616d6f756e74206e6f742073657400000000005f82015250565b5f615e34601b836145a7565b9150615e3f82615e00565b602082019050919050565b5f6020820190508181035f830152615e6181615e28565b9050919050565b7f4e487b71000000000000000000000000000000000000000000000000000000005f52601260045260245ffd5b5f615e9f82614645565b9150615eaa83614645565b925082615eba57615eb9615e68565b5b828204905092915050565b5f615ecf82614645565b9150615eda83614645565b925082615eea57615ee9615e68565b5b828206905092915050565b7f5065722d77696e6e657220616d6f756e74206d757374206265206772656174655f8201527f72207468616e207a65726f000000000000000000000000000000000000000000602082015250565b5f615f4f602b836145a7565b9150615f5a82615ef5565b604082019050919050565b5f6020820190508181035f830152615f7c81615f43565b9050919050565b7f4e6f206e65772077696e6e65727320746f20706179206f7574000000000000005f82015250565b5f615fb76019836145a7565b9150615fc282615f83565b602082019050919050565b5f6020820190508181035f830152615fe481615fab565b9050919050565b5f615ff582614645565b915061600083614645565b925082820261600e81614645565b915082820484148315176160255761602461464e565b5b5092915050565b7f496e73756666696369656e7420455448207072697a6520706f6f6c2062616c615f8201527f6e636520666f72207061796f7574000000000000000000000000000000000000602082015250565b5f616086602e836145a7565b91506160918261602c565b604082019050919050565b5f6020820190508181035f8301526160b38161607a565b9050919050565b7f496e73756666696369656e74204552433230207072697a6520706f6f6c2062615f8201527f6c616e636520666f72207061796f757400000000000000000000000000000000602082015250565b5f6161146030836145a7565b915061611f826160ba565b604082019050919050565b5f6020820190508181035f83015261614181616108565b9050919050565b5f60608201905061615b5f8301866146ae565b61616860208301856146ae565b6161756040830184614b37565b949350505050565b7f4465706f73697420616d6f756e74206d757374206265206772656174657220745f8201527f68616e207a65726f000000000000000000000000000000000000000000000000602082015250565b5f6161d76028836145a7565b91506161e28261617d565b604082019050919050565b5f6020820190508181035f830152616204816161cb565b9050919050565b7f416c726561647920636c61696d656400000000000000000000000000000000005f82015250565b5f61623f600f836145a7565b915061624a8261620b565b602082019050919050565b5f6020820190508181035f83015261626c81616233565b9050919050565b7f4d7573742072657665616c206775657373206265666f726520736f6c76696e675f82015250565b5f6162a76020836145a7565b91506162b282616273565b602082019050919050565b5f6020820190508181035f8301526162d48161629b565b9050919050565b5f6162e683856150cb565b93506162f3838584614867565b82840190509392505050565b5f61630b8284866162db565b91508190509392505050565b7f52657665616c656420677565737320646f6573206e6f74206d617463682070725f8201527f6f766964656420616e7377657200000000000000000000000000000000000000602082015250565b5f616371602d836145a7565b915061637c82616317565b604082019050919050565b5f6020820190508181035f83015261639e81616365565b9050919050565b7f477565737320686173682063616e6e6f74206265207a65726f000000000000005f82015250565b5f6163d96019836145a7565b91506163e4826163a5565b602082019050919050565b5f6020820190508181035f830152616406816163cd565b9050919050565b7f4e6f207265747269657320617661696c61626c650000000000000000000000005f82015250565b5f6164416014836145a7565b915061644c8261640d565b602082019050919050565b5f6020820190508181035f83015261646e81616435565b9050919050565b5f61647f82614645565b91505f82036164915761649061464e565b5b600182039050919050565b5f6040820190506164af5f8301856146ae565b6164bc60208301846149b0565b9392505050565b7f526964646c65204944206d7573742062652067726561746572207468616e20635f8201527f757272656e740000000000000000000000000000000000000000000000000000602082015250565b5f61651d6026836145a7565b9150616528826164c3565b604082019050919050565b5f6020820190508181035f83015261654a81616511565b9050919050565b7f5072697a6520616d6f756e74206d7573742062652067726561746572207468615f8201527f6e207a65726f0000000000000000000000000000000000000000000000000000602082015250565b5f6165ab6026836145a7565b91506165b682616551565b604082019050919050565b5f6020820190508181035f8301526165d88161659f565b9050919050565b7f5072697a6520746f6b656e20616464726573732063616e6e6f74206265207a655f8201527f726f20666f72204552433230207072697a650000000000000000000000000000602082015250565b5f6166396032836145a7565b9150616644826165df565b604082019050919050565b5f6020820190508181035f8301526166668161662d565b9050919050565b7f5072697a6520746f6b656e20686173206e6f20636f6e747261637420636f64655f82015250565b5f6166a16020836145a7565b91506166ac8261666d565b602082019050919050565b5f6020820190508181035f8301526166ce81616695565b9050919050565b7f496e76616c6964204552432d323020746f6b656e3a20746f74616c537570706c5f8201527f792063616c6c206661696c656400000000000000000000000000000000000000602082015250565b5f61672f602d836145a7565b915061673a826166d5565b604082019050919050565b5f6020820190508181035f83015261675c81616723565b9050919050565b7f5072697a6520746f6b656e2061646472657373206d757374206265207a65726f5f8201527f20666f7220455448207072697a65000000000000000000000000000000000000602082015250565b5f6167bd602e836145a7565b91506167c882616763565b604082019050919050565b5f6020820190508181035f8301526167ea816167b1565b9050919050565b7f456e7472792066656520746f6b656e20616464726573732063616e6e6f7420625f8201527f65207a65726f20696620656e7472792066656520616d6f756e7420697320677260208201527f6561746572207468616e207a65726f0000000000000000000000000000000000604082015250565b5f616871604f836145a7565b915061687c826167f1565b606082019050919050565b5f6020820190508181035f83015261689e81616865565b9050919050565b7f456e7472792066656520746f6b656e20686173206e6f20636f6e7472616374205f8201527f636f646500000000000000000000000000000000000000000000000000000000602082015250565b5f6168ff6024836145a7565b915061690a826168a5565b604082019050919050565b5f6020820190508181035f83015261692c816168f3565b9050919050565b7f496e76616c6964204552432d323020746f6b656e20666f7220656e74727920665f8201527f65653a20746f74616c537570706c792063616c6c206661696c65640000000000602082015250565b5f61698d603b836145a7565b915061699882616933565b604082019050919050565b5f6020820190508181035f8301526169ba81616981565b9050919050565b7f456e7472792066656520746f6b656e2061646472657373206d757374206265205f8201527f7a65726f20696620656e7472792066656520616d6f756e74206973207a65726f602082015250565b5f616a1b6040836145a7565b9150616a26826169c1565b604082019050919050565b5f6020820190508181035f830152616a4881616a0f565b9050919050565b7f4d75737420776974686472617720455448207072697a6520706f6f6c206265665f8201527f6f7265206e657720726964646c65000000000000000000000000000000000000602082015250565b5f616aa9602e836145a7565b9150616ab482616a4f565b604082019050919050565b5f6020820190508181035f830152616ad681616a9d565b9050919050565b7f4d75737420776974686472617720746f6b656e207072697a6520706f6f6c20625f8201527f65666f7265206e657720726964646c6500000000000000000000000000000000602082015250565b5f616b376030836145a7565b9150616b4282616add565b604082019050919050565b5f6020820190508181035f830152616b6481616b2b565b9050919050565b5f60ff82169050919050565b616b8081616b6b565b82525050565b5f60a082019050616b995f8301886149e1565b616ba66020830187616b77565b616bb3604083018661477f565b616bc060608301856146ae565b616bcd608083018461477f565b9695505050505050565b5f606082019050616bea5f83018661477f565b616bf7602083018561477f565b616c0460408301846146ae565b949350505050565b5f604082019050616c1f5f83018561477f565b616c2c60208301846146ae565b9392505050565b7f57696e6e657220616464726573732063616e6e6f74206265207a65726f0000005f82015250565b5f616c67601d836145a7565b9150616c7282616c33565b602082019050919050565b5f6020820190508181035f830152616c9481616c5b565b9050919050565b7f496e73756666696369656e7420455448207072697a6520706f6f6c2062616c615f8201527f6e63650000000000000000000000000000000000000000000000000000000000602082015250565b5f616cf56023836145a7565b9150616d0082616c9b565b604082019050919050565b5f6020820190508181035f830152616d2281616ce9565b9050919050565b7f496e73756666696369656e7420636f6e7472616374204554482062616c616e635f8201527f6500000000000000000000000000000000000000000000000000000000000000602082015250565b5f616d836021836145a7565b9150616d8e82616d29565b604082019050919050565b5f6020820190508181035f830152616db081616d77565b9050919050565b7f455448207472616e73666572206661696c6564000000000000000000000000005f82015250565b5f616deb6013836145a7565b9150616df682616db7565b602082019050919050565b5f6020820190508181035f830152616e1881616ddf565b9050919050565b7f496e73756666696369656e74204552433230207072697a6520706f6f6c2062615f8201527f6c616e6365000000000000000000000000000000000000000000000000000000602082015250565b5f616e796025836145a7565b9150616e8482616e1f565b604082019050919050565b5f6020820190508181035f830152616ea681616e6d565b905091905056fea2646970667358221220e6a8392486805f97b21520d12be13a5e33526a1aca5a54b3b4191177d142d1da64736f6c634300081e0033","linkReferences":{}},"methodIdentifiers":{"ENTRY_FEE()":"f6d361cc","MAX_RETRIES()":"46ebbdb0","RETRY_COST()":"57aa0ea2","balances(address)":"27e235e3","committedAt(uint256,address)":"c06a5fc5","committedGuesses(uint256,address)":"b7173e77","currentRiddleId()":"ecdc6c23","deposit()":"d0e30db0","enterGame(uint256)":"43d6582b","entryFeeToken()":"7b149763","ethPrizePool()":"95664a3d","fundTokenPrizePool(uint256)":"48b06e87","getPrizeToken()":"c7cd6959","hasClaimed(uint256,address)":"873f6f9e","hasParticipated(uint256,address)":"a34398a2","hasRevealed(uint256,address)":"16b5551d","isWinner(uint256,address)":"bdd415af","owner()":"8da5cb5b","ownerWithdraw(uint256)":"33f707d1","ownerWithdrawTokens(uint256)":"60972120","payout(uint256,address[])":"c8e728f9","purchaseRetry(uint256)":"7a11e941","renounceOwnership()":"715018a6","retries(address)":"dbbd3245","retryToken()":"219fc385","revealDelay()":"53236d74","revealGuess(uint256,string)":"12b5afc1","revealedGuessHash(uint256,address)":"188240cd","riddleConfigs(uint256)":"a6dbce24","setRevealDelay(uint256)":"a68c25d8","setRiddle(uint256,bytes32,uint8,address,uint256,address)":"f9f82e9c","solveRiddleAndClaim(string)":"dc663b53","submitGuess(uint256,bytes32)":"e4d33ee3","tokenPrizePool()":"c310e242","transferOwnership(address)":"f2fde38b","winners(uint256,uint256)":"0efc8865","withdraw(uint256)":"2e1a7d4d"},"id":2}