{"abi":[{"type":"constructor","inputs":[{"name":"initialOwner","type":"address","internalType":"address"}],"stateMutability":"nonpayable"},{"type":"receive","stateMutability":"payable"},{"type":"function","name":"ENTRY_FEE","inputs":[],"outputs":[{"name":"","type":"uint256","internalType":"uint256"}],"stateMutability":"view"},{"type":"function","name":"balances","inputs":[{"name":"","type":"address","internalType":"address"}],"outputs":[{"name":"","type":"uint256","internalType":"uint256"}],"stateMutability":"view"},{"type":"function","name":"committedAt","inputs":[{"name":"","type":"uint256","internalType":"uint256"},{"name":"","type":"address","internalType":"address"}],"outputs":[{"name":"","type":"uint256","internalType":"uint256"}],"stateMutability":"view"},{"type":"function","name":"committedGuesses","inputs":[{"name":"","type":"uint256","internalType":"uint256"},{"name":"","type":"address","internalType":"address"}],"outputs":[{"name":"","type":"bytes32","internalType":"bytes32"}],"stateMutability":"view"},{"type":"function","name":"currentRiddleId","inputs":[],"outputs":[{"name":"","type":"uint256","internalType":"uint256"}],"stateMutability":"view"},{"type":"function","name":"deposit","inputs":[],"outputs":[],"stateMutability":"payable"},{"type":"function","name":"enterGame","inputs":[{"name":"_riddleId","type":"uint256","internalType":"uint256"}],"outputs":[],"stateMutability":"nonpayable"},{"type":"function","name":"entryFeeToken","inputs":[],"outputs":[{"name":"","type":"address","internalType":"contract IERC20"}],"stateMutability":"view"},{"type":"function","name":"ethPrizePool","inputs":[],"outputs":[{"name":"","type":"uint256","internalType":"uint256"}],"stateMutability":"view"},{"type":"function","name":"fundTokenPrizePool","inputs":[{"name":"_amount","type":"uint256","internalType":"uint256"}],"outputs":[],"stateMutability":"nonpayable"},{"type":"function","name":"getPrizeToken","inputs":[],"outputs":[{"name":"","type":"address","internalType":"address"}],"stateMutability":"view"},{"type":"function","name":"hasClaimed","inputs":[{"name":"","type":"uint256","internalType":"uint256"},{"name":"","type":"address","internalType":"address"}],"outputs":[{"name":"","type":"bool","internalType":"bool"}],"stateMutability":"view"},{"type":"function","name":"hasParticipated","inputs":[{"name":"","type":"uint256","internalType":"uint256"},{"name":"","type":"address","internalType":"address"}],"outputs":[{"name":"","type":"bool","internalType":"bool"}],"stateMutability":"view"},{"type":"function","name":"hasRevealed","inputs":[{"name":"","type":"uint256","internalType":"uint256"},{"name":"","type":"address","internalType":"address"}],"outputs":[{"name":"","type":"bool","internalType":"bool"}],"stateMutability":"view"},{"type":"function","name":"isWinner","inputs":[{"name":"","type":"uint256","internalType":"uint256"},{"name":"","type":"address","internalType":"address"}],"outputs":[{"name":"","type":"bool","internalType":"bool"}],"stateMutability":"view"},{"type":"function","name":"owner","inputs":[],"outputs":[{"name":"","type":"address","internalType":"address"}],"stateMutability":"view"},{"type":"function","name":"ownerWithdraw","inputs":[{"name":"_amount","type":"uint256","internalType":"uint256"}],"outputs":[],"stateMutability":"nonpayable"},{"type":"function","name":"ownerWithdrawTokens","inputs":[{"name":"_amount","type":"uint256","internalType":"uint256"}],"outputs":[],"stateMutability":"nonpayable"},{"type":"function","name":"prizeAmount","inputs":[],"outputs":[{"name":"","type":"uint256","internalType":"uint256"}],"stateMutability":"view"},{"type":"function","name":"prizeToken","inputs":[],"outputs":[{"name":"","type":"address","internalType":"contract IERC20"}],"stateMutability":"view"},{"type":"function","name":"prizeType","inputs":[],"outputs":[{"name":"","type":"uint8","internalType":"enum Vaultis.PrizeType"}],"stateMutability":"view"},{"type":"function","name":"renounceOwnership","inputs":[],"outputs":[],"stateMutability":"nonpayable"},{"type":"function","name":"revealDelay","inputs":[],"outputs":[{"name":"","type":"uint256","internalType":"uint256"}],"stateMutability":"view"},{"type":"function","name":"revealGuess","inputs":[{"name":"_riddleId","type":"uint256","internalType":"uint256"},{"name":"_guess","type":"string","internalType":"string"}],"outputs":[],"stateMutability":"nonpayable"},{"type":"function","name":"revealedGuessHash","inputs":[{"name":"","type":"uint256","internalType":"uint256"},{"name":"","type":"address","internalType":"address"}],"outputs":[{"name":"","type":"bytes32","internalType":"bytes32"}],"stateMutability":"view"},{"type":"function","name":"setRevealDelay","inputs":[{"name":"_newRevealDelay","type":"uint256","internalType":"uint256"}],"outputs":[],"stateMutability":"nonpayable"},{"type":"function","name":"setRiddle","inputs":[{"name":"_riddleId","type":"uint256","internalType":"uint256"},{"name":"_answerHash","type":"bytes32","internalType":"bytes32"},{"name":"_prizeType","type":"uint8","internalType":"enum Vaultis.PrizeType"},{"name":"_prizeTokenAddress","type":"address","internalType":"address"},{"name":"_prizeAmount","type":"uint256","internalType":"uint256"},{"name":"_entryFeeTokenAddress","type":"address","internalType":"address"}],"outputs":[],"stateMutability":"nonpayable"},{"type":"function","name":"solveRiddleAndClaim","inputs":[{"name":"_answer","type":"string","internalType":"string"}],"outputs":[],"stateMutability":"nonpayable"},{"type":"function","name":"submitGuess","inputs":[{"name":"_riddleId","type":"uint256","internalType":"uint256"},{"name":"_guessHash","type":"bytes32","internalType":"bytes32"}],"outputs":[],"stateMutability":"nonpayable"},{"type":"function","name":"tokenPrizePool","inputs":[],"outputs":[{"name":"","type":"uint256","internalType":"uint256"}],"stateMutability":"view"},{"type":"function","name":"transferOwnership","inputs":[{"name":"newOwner","type":"address","internalType":"address"}],"outputs":[],"stateMutability":"nonpayable"},{"type":"function","name":"winners","inputs":[{"name":"","type":"uint256","internalType":"uint256"},{"name":"","type":"uint256","internalType":"uint256"}],"outputs":[{"name":"","type":"address","internalType":"address"}],"stateMutability":"view"},{"type":"function","name":"withdraw","inputs":[{"name":"_amount","type":"uint256","internalType":"uint256"}],"outputs":[],"stateMutability":"nonpayable"},{"type":"event","name":"Deposit","inputs":[{"name":"user","type":"address","indexed":true,"internalType":"address"},{"name":"amount","type":"uint256","indexed":false,"internalType":"uint256"}],"anonymous":false},{"type":"event","name":"EntryFeeCollected","inputs":[{"name":"player","type":"address","indexed":true,"internalType":"address"},{"name":"token","type":"address","indexed":true,"internalType":"address"},{"name":"amount","type":"uint256","indexed":false,"internalType":"uint256"},{"name":"riddleId","type":"uint256","indexed":true,"internalType":"uint256"}],"anonymous":false},{"type":"event","name":"EthReceived","inputs":[{"name":"sender","type":"address","indexed":true,"internalType":"address"},{"name":"amount","type":"uint256","indexed":false,"internalType":"uint256"}],"anonymous":false},{"type":"event","name":"GuessEvaluated","inputs":[{"name":"riddleId","type":"uint256","indexed":true,"internalType":"uint256"},{"name":"player","type":"address","indexed":true,"internalType":"address"},{"name":"timestamp","type":"uint256","indexed":false,"internalType":"uint256"},{"name":"isWinner","type":"bool","indexed":false,"internalType":"bool"}],"anonymous":false},{"type":"event","name":"GuessRevealed","inputs":[{"name":"player","type":"address","indexed":true,"internalType":"address"},{"name":"riddleId","type":"uint256","indexed":true,"internalType":"uint256"},{"name":"revealedHash","type":"bytes32","indexed":false,"internalType":"bytes32"}],"anonymous":false},{"type":"event","name":"GuessSubmitted","inputs":[{"name":"player","type":"address","indexed":true,"internalType":"address"},{"name":"riddleId","type":"uint256","indexed":true,"internalType":"uint256"},{"name":"guessHash","type":"bytes32","indexed":false,"internalType":"bytes32"}],"anonymous":false},{"type":"event","name":"OwnerWithdrawTokens","inputs":[{"name":"amount","type":"uint256","indexed":false,"internalType":"uint256"}],"anonymous":false},{"type":"event","name":"OwnerWithdrawal","inputs":[{"name":"owner","type":"address","indexed":true,"internalType":"address"},{"name":"amount","type":"uint256","indexed":false,"internalType":"uint256"}],"anonymous":false},{"type":"event","name":"OwnershipTransferred","inputs":[{"name":"previousOwner","type":"address","indexed":true,"internalType":"address"},{"name":"newOwner","type":"address","indexed":true,"internalType":"address"}],"anonymous":false},{"type":"event","name":"PlayerEntered","inputs":[{"name":"player","type":"address","indexed":true,"internalType":"address"},{"name":"riddleId","type":"uint256","indexed":true,"internalType":"uint256"}],"anonymous":false},{"type":"event","name":"PrizeDistributed","inputs":[{"name":"winner","type":"address","indexed":true,"internalType":"address"},{"name":"amount","type":"uint256","indexed":false,"internalType":"uint256"},{"name":"prizeType","type":"uint8","indexed":false,"internalType":"enum Vaultis.PrizeType"}],"anonymous":false},{"type":"event","name":"PrizeFunded","inputs":[{"name":"funder","type":"address","indexed":true,"internalType":"address"},{"name":"amount","type":"uint256","indexed":false,"internalType":"uint256"},{"name":"prizeType","type":"uint8","indexed":false,"internalType":"enum Vaultis.PrizeType"}],"anonymous":false},{"type":"event","name":"RiddleInitialized","inputs":[{"name":"riddleId","type":"uint256","indexed":true,"internalType":"uint256"},{"name":"answerHash","type":"bytes32","indexed":false,"internalType":"bytes32"},{"name":"prizeType","type":"uint8","indexed":false,"internalType":"uint8"},{"name":"prizeTokenAddress","type":"address","indexed":false,"internalType":"address"},{"name":"prizeAmount","type":"uint256","indexed":false,"internalType":"uint256"},{"name":"entryFeeTokenAddress","type":"address","indexed":false,"internalType":"address"}],"anonymous":false},{"type":"event","name":"WinnerFound","inputs":[{"name":"winner","type":"address","indexed":true,"internalType":"address"},{"name":"riddleId","type":"uint256","indexed":true,"internalType":"uint256"}],"anonymous":false},{"type":"event","name":"Withdrawal","inputs":[{"name":"user","type":"address","indexed":true,"internalType":"address"},{"name":"amount","type":"uint256","indexed":false,"internalType":"uint256"}],"anonymous":false},{"type":"error","name":"OwnableInvalidOwner","inputs":[{"name":"owner","type":"address","internalType":"address"}]},{"type":"error","name":"OwnableUnauthorizedAccount","inputs":[{"name":"account","type":"address","internalType":"address"}]},{"type":"error","name":"ReentrancyGuardReentrantCall","inputs":[]},{"type":"error","name":"SafeERC20FailedOperation","inputs":[{"name":"token","type":"address","internalType":"address"}]}],"bytecode":{"object":"0x608060405234801561000f575f5ffd5b506040516157a93803806157a983398181016040528101906100319190610227565b805f73ffffffffffffffffffffffffffffffffffffffff168173ffffffffffffffffffffffffffffffffffffffff16036100a2575f6040517f1e4fbdf70000000000000000000000000000000000000000000000000000000081526004016100999190610261565b60405180910390fd5b6100b18161010860201b60201c565b50600180819055505f60085f6101000a81548173ffffffffffffffffffffffffffffffffffffffff021916908373ffffffffffffffffffffffffffffffffffffffff160217905550610e10600f819055505061027a565b5f5f5f9054906101000a900473ffffffffffffffffffffffffffffffffffffffff169050815f5f6101000a81548173ffffffffffffffffffffffffffffffffffffffff021916908373ffffffffffffffffffffffffffffffffffffffff1602179055508173ffffffffffffffffffffffffffffffffffffffff168173ffffffffffffffffffffffffffffffffffffffff167f8be0079c531659141344cd1fd0a4f28419497f9722a3daafe3b4186f6b6457e060405160405180910390a35050565b5f5ffd5b5f73ffffffffffffffffffffffffffffffffffffffff82169050919050565b5f6101f6826101cd565b9050919050565b610206816101ec565b8114610210575f5ffd5b50565b5f81519050610221816101fd565b92915050565b5f6020828403121561023c5761023b6101c9565b5b5f61024984828501610213565b91505092915050565b61025b816101ec565b82525050565b5f6020820190506102745f830184610252565b92915050565b615522806102875f395ff3fe6080604052600436106101f1575f3560e01c806395664a3d1161010c578063d0e30db01161009f578063ecdc6c231161006e578063ecdc6c2314610798578063f2fde38b146107c2578063f6d361cc146107ea578063f9f82e9c14610814578063fcdf8e891461083c576102a0565b8063d0e30db014610714578063d0ef024a1461071e578063dc663b5314610748578063e4d33ee314610770576102a0565b8063bdd415af116100db578063bdd415af14610648578063c06a5fc514610684578063c310e242146106c0578063c7cd6959146106ea576102a0565b806395664a3d1461057e578063a34398a2146105a8578063a68c25d8146105e4578063b7173e771461060c576102a0565b806348b06e8711610184578063785fa62711610153578063785fa627146104c45780637b149763146104ee578063873f6f9e146105185780638da5cb5b14610554576102a0565b806348b06e871461043457806353236d741461045c5780636097212014610486578063715018a6146104ae576102a0565b806327e235e3116101c057806327e235e3146103805780632e1a7d4d146103bc57806333f707d1146103e457806343d6582b1461040c576102a0565b80630efc8865146102a457806312b5afc1146102e057806316b5551d14610308578063188240cd14610344576102a0565b366102a0575f3411610238576040517f08c379a000000000000000000000000000000000000000000000000000000000815260040161022f906135b3565b60405180910390fd5b3460045f8282546102499190613607565b925050819055503373ffffffffffffffffffffffffffffffffffffffff167f85177f287940f2f05425a4029951af0e047a7f9c4eaa9a6e6917bcd869f86695346040516102969190613649565b60405180910390a2005b5f5ffd5b3480156102af575f5ffd5b506102ca60048036038101906102c5919061369d565b610866565b6040516102d7919061371a565b60405180910390f35b3480156102eb575f5ffd5b506103066004803603810190610301919061386f565b6108ae565b005b348015610313575f5ffd5b5061032e600480360381019061032991906138f3565b610e06565b60405161033b919061394b565b60405180910390f35b34801561034f575f5ffd5b5061036a600480360381019061036591906138f3565b610e30565b604051610377919061397c565b60405180910390f35b34801561038b575f5ffd5b506103a660048036038101906103a19190613995565b610e50565b6040516103b39190613649565b60405180910390f35b3480156103c7575f5ffd5b506103e260048036038101906103dd91906139c0565b610e65565b005b3480156103ef575f5ffd5b5061040a600480360381019061040591906139c0565b611084565b005b348015610417575f5ffd5b50610432600480360381019061042d91906139c0565b611249565b005b34801561043f575f5ffd5b5061045a600480360381019061045591906139c0565b6116b2565b005b348015610467575f5ffd5b506104706118ca565b60405161047d9190613649565b60405180910390f35b348015610491575f5ffd5b506104ac60048036038101906104a791906139c0565b6118d0565b005b3480156104b9575f5ffd5b506104c2611aa3565b005b3480156104cf575f5ffd5b506104d8611ab6565b6040516104e59190613649565b60405180910390f35b3480156104f9575f5ffd5b50610502611abc565b60405161050f9190613a46565b60405180910390f35b348015610523575f5ffd5b5061053e600480360381019061053991906138f3565b611ae1565b60405161054b919061394b565b60405180910390f35b34801561055f575f5ffd5b50610568611b0b565b604051610575919061371a565b60405180910390f35b348015610589575f5ffd5b50610592611b32565b60405161059f9190613649565b60405180910390f35b3480156105b3575f5ffd5b506105ce60048036038101906105c991906138f3565b611b38565b6040516105db919061394b565b60405180910390f35b3480156105ef575f5ffd5b5061060a600480360381019061060591906139c0565b611b62565b005b348015610617575f5ffd5b50610632600480360381019061062d91906138f3565b611b74565b60405161063f919061397c565b60405180910390f35b348015610653575f5ffd5b5061066e600480360381019061066991906138f3565b611b94565b60405161067b919061394b565b60405180910390f35b34801561068f575f5ffd5b506106aa60048036038101906106a591906138f3565b611bbe565b6040516106b79190613649565b60405180910390f35b3480156106cb575f5ffd5b506106d4611bde565b6040516106e19190613649565b60405180910390f35b3480156106f5575f5ffd5b506106fe611be4565b60405161070b919061371a565b60405180910390f35b61071c611c0c565b005b348015610729575f5ffd5b50610732611d01565b60405161073f9190613a46565b60405180910390f35b348015610753575f5ffd5b5061076e60048036038101906107699190613abc565b611d26565b005b34801561077b575f5ffd5b5061079660048036038101906107919190613b31565b612131565b005b3480156107a3575f5ffd5b506107ac61264f565b6040516107b99190613649565b60405180910390f35b3480156107cd575f5ffd5b506107e860048036038101906107e39190613995565b612655565b005b3480156107f5575f5ffd5b506107fe6126d9565b60405161080b9190613649565b60405180910390f35b34801561081f575f5ffd5b5061083a60048036038101906108359190613b92565b6126e5565b005b348015610847575f5ffd5b50610850612dd7565b60405161085d9190613c8e565b60405180910390f35b6011602052815f5260405f20818154811061087f575f80fd5b905f5260205f20015f915091509054906101000a900473ffffffffffffffffffffffffffffffffffffffff1681565b6108b6612dea565b5f82116108f8576040517f08c379a00000000000000000000000000000000000000000000000000000000081526004016108ef90613cf1565b60405180910390fd5b600354821461093c576040517f08c379a000000000000000000000000000000000000000000000000000000000815260040161093390613d59565b60405180910390fd5b60095f8381526020019081526020015f205f3373ffffffffffffffffffffffffffffffffffffffff1673ffffffffffffffffffffffffffffffffffffffff1681526020019081526020015f205f9054906101000a900460ff166109d4576040517f08c379a00000000000000000000000000000000000000000000000000000000081526004016109cb90613dc1565b60405180910390fd5b5f5f1b600b5f8481526020019081526020015f205f3373ffffffffffffffffffffffffffffffffffffffff1673ffffffffffffffffffffffffffffffffffffffff1681526020019081526020015f205403610a64576040517f08c379a0000000000000000000000000000000000000000000000000000000008152600401610a5b90613e29565b60405180910390fd5b600e5f8381526020019081526020015f205f3373ffffffffffffffffffffffffffffffffffffffff1673ffffffffffffffffffffffffffffffffffffffff1681526020019081526020015f205f9054906101000a900460ff1615610afd576040517f08c379a0000000000000000000000000000000000000000000000000000000008152600401610af490613e91565b60405180910390fd5b600f54600c5f8481526020019081526020015f205f3373ffffffffffffffffffffffffffffffffffffffff1673ffffffffffffffffffffffffffffffffffffffff1681526020019081526020015f2054610b579190613607565b421015610b99576040517f08c379a0000000000000000000000000000000000000000000000000000000008152600401610b9090613ef9565b60405180910390fd5b5f81604051602001610bab9190613f69565b604051602081830303815290604052805190602001209050600b5f8481526020019081526020015f205f3373ffffffffffffffffffffffffffffffffffffffff1673ffffffffffffffffffffffffffffffffffffffff1681526020019081526020015f20548114610c51576040517f08c379a0000000000000000000000000000000000000000000000000000000008152600401610c4890613fc9565b60405180910390fd5b80600d5f8581526020019081526020015f205f3373ffffffffffffffffffffffffffffffffffffffff1673ffffffffffffffffffffffffffffffffffffffff1681526020019081526020015f20819055506001600e5f8581526020019081526020015f205f3373ffffffffffffffffffffffffffffffffffffffff1673ffffffffffffffffffffffffffffffffffffffff1681526020019081526020015f205f6101000a81548160ff0219169083151502179055505f5f1b600b5f8581526020019081526020015f205f3373ffffffffffffffffffffffffffffffffffffffff1673ffffffffffffffffffffffffffffffffffffffff1681526020019081526020015f20819055505f600c5f8581526020019081526020015f205f3373ffffffffffffffffffffffffffffffffffffffff1673ffffffffffffffffffffffffffffffffffffffff1681526020019081526020015f2081905550823373ffffffffffffffffffffffffffffffffffffffff167f59d3b853b3060eb254d2f04ecf2d2fba8ec34ae94835cd01eedead529314f52483604051610df1919061397c565b60405180910390a350610e02612e30565b5050565b600e602052815f5260405f20602052805f5260405f205f915091509054906101000a900460ff1681565b600d602052815f5260405f20602052805f5260405f205f91509150505481565b6002602052805f5260405f205f915090505481565b610e6d612dea565b5f8111610eaf576040517f08c379a0000000000000000000000000000000000000000000000000000000008152600401610ea690614057565b60405180910390fd5b8060025f3373ffffffffffffffffffffffffffffffffffffffff1673ffffffffffffffffffffffffffffffffffffffff1681526020019081526020015f20541015610f2f576040517f08c379a0000000000000000000000000000000000000000000000000000000008152600401610f26906140bf565b60405180910390fd5b8060025f3373ffffffffffffffffffffffffffffffffffffffff1673ffffffffffffffffffffffffffffffffffffffff1681526020019081526020015f205f828254610f7b91906140dd565b925050819055505f3373ffffffffffffffffffffffffffffffffffffffff1682604051610fa79061413d565b5f6040518083038185875af1925050503d805f8114610fe1576040519150601f19603f3d011682016040523d82523d5f602084013e610fe6565b606091505b505090508061102a576040517f08c379a00000000000000000000000000000000000000000000000000000000081526004016110219061419b565b60405180910390fd5b3373ffffffffffffffffffffffffffffffffffffffff167f7fcf532c15f0a6db0bd6d0e038bea71d30d808c7d98cb3bf7268a95bf5081b65836040516110709190613649565b60405180910390a250611081612e30565b50565b61108c612e39565b611094612dea565b5f81116110d6576040517f08c379a00000000000000000000000000000000000000000000000000000000081526004016110cd90614229565b60405180910390fd5b80600454101561111b576040517f08c379a000000000000000000000000000000000000000000000000000000000815260040161111290614291565b60405180910390fd5b8060045f82825461112c91906140dd565b925050819055505f61113c611b0b565b73ffffffffffffffffffffffffffffffffffffffff168262030d40906040516111649061413d565b5f60405180830381858888f193505050503d805f811461119f576040519150601f19603f3d011682016040523d82523d5f602084013e6111a4565b606091505b50509050806111e8576040517f08c379a00000000000000000000000000000000000000000000000000000000081526004016111df906142f9565b60405180910390fd5b6111f0611b0b565b73ffffffffffffffffffffffffffffffffffffffff167fa919fadcfa556a012bab31b15f596ea7ccd397adbf10e15f176db9055ab361c4836040516112359190613649565b60405180910390a250611246612e30565b50565b611251612dea565b60095f8281526020019081526020015f205f3373ffffffffffffffffffffffffffffffffffffffff1673ffffffffffffffffffffffffffffffffffffffff1681526020019081526020015f205f9054906101000a900460ff16156112ea576040517f08c379a00000000000000000000000000000000000000000000000000000000081526004016112e190614387565b60405180910390fd5b600354811461132e576040517f08c379a000000000000000000000000000000000000000000000000000000000815260040161132590613d59565b60405180910390fd5b5f60035411611372576040517f08c379a0000000000000000000000000000000000000000000000000000000008152600401611369906143ef565b60405180910390fd5b5f670de0b6b3a764000011156115ff575f60085f9054906101000a900473ffffffffffffffffffffffffffffffffffffffff1690505f73ffffffffffffffffffffffffffffffffffffffff168173ffffffffffffffffffffffffffffffffffffffff1603611415576040517f08c379a000000000000000000000000000000000000000000000000000000000815260040161140c90614457565b60405180910390fd5b5f8173ffffffffffffffffffffffffffffffffffffffff166370a08231306040518263ffffffff1660e01b815260040161144f919061371a565b602060405180830381865afa15801561146a573d5f5f3e3d5ffd5b505050506040513d601f19601f8201168201806040525081019061148e9190614489565b90506114c53330670de0b6b3a76400008573ffffffffffffffffffffffffffffffffffffffff16612ec0909392919063ffffffff16565b5f818373ffffffffffffffffffffffffffffffffffffffff166370a08231306040518263ffffffff1660e01b8152600401611500919061371a565b602060405180830381865afa15801561151b573d5f5f3e3d5ffd5b505050506040513d601f19601f8201168201806040525081019061153f9190614489565b61154991906140dd565b9050670de0b6b3a76400008114611595576040517f08c379a000000000000000000000000000000000000000000000000000000000815260040161158c90614524565b60405180910390fd5b838373ffffffffffffffffffffffffffffffffffffffff163373ffffffffffffffffffffffffffffffffffffffff167f1f8e0e31739d887c754fcf7403fe1bdf6641ef33578b9d08631a7d5e6e9b8fb7846040516115f39190613649565b60405180910390a45050505b600160095f8381526020019081526020015f205f3373ffffffffffffffffffffffffffffffffffffffff1673ffffffffffffffffffffffffffffffffffffffff1681526020019081526020015f205f6101000a81548160ff021916908315150217905550803373ffffffffffffffffffffffffffffffffffffffff167fc16481c9484122696a660b57df0bf6839645c6b620cb1704ac2437de13be922560405160405180910390a36116af612e30565b50565b6116ba612e39565b6116c2612dea565b5f8111611704576040517f08c379a00000000000000000000000000000000000000000000000000000000081526004016116fb9061458c565b60405180910390fd5b60018081111561171757611716613c1b565b5b600860149054906101000a900460ff16600181111561173957611738613c1b565b5b14611779576040517f08c379a00000000000000000000000000000000000000000000000000000000081526004016117709061461a565b60405180910390fd5b5f73ffffffffffffffffffffffffffffffffffffffff1660055f9054906101000a900473ffffffffffffffffffffffffffffffffffffffff1673ffffffffffffffffffffffffffffffffffffffff1603611808576040517f08c379a00000000000000000000000000000000000000000000000000000000081526004016117ff90614682565b60405180910390fd5b61185633308360055f9054906101000a900473ffffffffffffffffffffffffffffffffffffffff1673ffffffffffffffffffffffffffffffffffffffff16612ec0909392919063ffffffff16565b8060065f8282546118679190613607565b925050819055503373ffffffffffffffffffffffffffffffffffffffff167f4708e702157b1eb6cd00a772e6a623599ac7dc0bad76e8c624fdef050b434f098260016040516118b79291906146a0565b60405180910390a26118c7612e30565b50565b600f5481565b6118d8612e39565b6118e0612dea565b5f8111611922576040517f08c379a000000000000000000000000000000000000000000000000000000000815260040161191990614737565b60405180910390fd5b806006541015611967576040517f08c379a000000000000000000000000000000000000000000000000000000000815260040161195e9061479f565b60405180910390fd5b5f73ffffffffffffffffffffffffffffffffffffffff1660055f9054906101000a900473ffffffffffffffffffffffffffffffffffffffff1673ffffffffffffffffffffffffffffffffffffffff16036119f6576040517f08c379a00000000000000000000000000000000000000000000000000000000081526004016119ed90614682565b60405180910390fd5b8060065f828254611a0791906140dd565b92505081905550611a61611a19611b0b565b8260055f9054906101000a900473ffffffffffffffffffffffffffffffffffffffff1673ffffffffffffffffffffffffffffffffffffffff16612f429092919063ffffffff16565b7f560c2b6d9212838c63f631c64ebc9d7364da90f9af3fdec847c0725dd18330c881604051611a909190613649565b60405180910390a1611aa0612e30565b50565b611aab612e39565b611ab45f612fc1565b565b60075481565b60085f9054906101000a900473ffffffffffffffffffffffffffffffffffffffff1681565b600a602052815f5260405f20602052805f5260405f205f915091509054906101000a900460ff1681565b5f5f5f9054906101000a900473ffffffffffffffffffffffffffffffffffffffff16905090565b60045481565b6009602052815f5260405f20602052805f5260405f205f915091509054906101000a900460ff1681565b611b6a612e39565b80600f8190555050565b600b602052815f5260405f20602052805f5260405f205f91509150505481565b6012602052815f5260405f20602052805f5260405f205f915091509054906101000a900460ff1681565b600c602052815f5260405f20602052805f5260405f205f91509150505481565b60065481565b5f60055f9054906101000a900473ffffffffffffffffffffffffffffffffffffffff16905090565b611c14612dea565b5f3411611c56576040517f08c379a0000000000000000000000000000000000000000000000000000000008152600401611c4d9061482d565b60405180910390fd5b3460025f3373ffffffffffffffffffffffffffffffffffffffff1673ffffffffffffffffffffffffffffffffffffffff1681526020019081526020015f205f828254611ca29190613607565b925050819055503373ffffffffffffffffffffffffffffffffffffffff167fe1fffcc4923d04b559f4d29a8bfc6cda04eb5b0d3c460751c2402c5c5cc9109c34604051611cef9190613649565b60405180910390a2611cff612e30565b565b60055f9054906101000a900473ffffffffffffffffffffffffffffffffffffffff1681565b611d2e612dea565b5f60035411611d72576040517f08c379a0000000000000000000000000000000000000000000000000000000008152600401611d69906143ef565b60405180910390fd5b60095f60035481526020019081526020015f205f3373ffffffffffffffffffffffffffffffffffffffff1673ffffffffffffffffffffffffffffffffffffffff1681526020019081526020015f205f9054906101000a900460ff16611e0c576040517f08c379a0000000000000000000000000000000000000000000000000000000008152600401611e0390613dc1565b60405180910390fd5b600a5f60035481526020019081526020015f205f3373ffffffffffffffffffffffffffffffffffffffff1673ffffffffffffffffffffffffffffffffffffffff1681526020019081526020015f205f9054906101000a900460ff1615611ea7576040517f08c379a0000000000000000000000000000000000000000000000000000000008152600401611e9e90614895565b60405180910390fd5b600e5f60035481526020019081526020015f205f3373ffffffffffffffffffffffffffffffffffffffff1673ffffffffffffffffffffffffffffffffffffffff1681526020019081526020015f205f9054906101000a900460ff16611f41576040517f08c379a0000000000000000000000000000000000000000000000000000000008152600401611f38906148fd565b60405180910390fd5b8181604051602001611f5492919061493f565b60405160208183030381529060405280519060200120600d5f60035481526020019081526020015f205f3373ffffffffffffffffffffffffffffffffffffffff1673ffffffffffffffffffffffffffffffffffffffff1681526020019081526020015f205414611ff9576040517f08c379a0000000000000000000000000000000000000000000000000000000008152600401611ff0906149c7565b60405180910390fd5b6001600a5f60035481526020019081526020015f205f3373ffffffffffffffffffffffffffffffffffffffff1673ffffffffffffffffffffffffffffffffffffffff1681526020019081526020015f205f6101000a81548160ff02191690831515021790555061206b33600754613082565b5f5f1b600d5f60035481526020019081526020015f205f3373ffffffffffffffffffffffffffffffffffffffff1673ffffffffffffffffffffffffffffffffffffffff1681526020019081526020015f20819055505f600e5f60035481526020019081526020015f205f3373ffffffffffffffffffffffffffffffffffffffff1673ffffffffffffffffffffffffffffffffffffffff1681526020019081526020015f205f6101000a81548160ff02191690831515021790555061212d612e30565b5050565b612139612dea565b5f821161217b576040517f08c379a000000000000000000000000000000000000000000000000000000000815260040161217290613cf1565b60405180910390fd5b60035482146121bf576040517f08c379a00000000000000000000000000000000000000000000000000000000081526004016121b690613d59565b60405180910390fd5b5f5f1b8103612203576040517f08c379a00000000000000000000000000000000000000000000000000000000081526004016121fa90614a2f565b60405180910390fd5b60095f8381526020019081526020015f205f3373ffffffffffffffffffffffffffffffffffffffff1673ffffffffffffffffffffffffffffffffffffffff1681526020019081526020015f205f9054906101000a900460ff1661229b576040517f08c379a000000000000000000000000000000000000000000000000000000000815260040161229290613dc1565b60405180910390fd5b5f5f1b600b5f8481526020019081526020015f205f3373ffffffffffffffffffffffffffffffffffffffff1673ffffffffffffffffffffffffffffffffffffffff1681526020019081526020015f20541461232b576040517f08c379a000000000000000000000000000000000000000000000000000000000815260040161232290614abd565b60405180910390fd5b60105481036125005760125f8381526020019081526020015f205f3373ffffffffffffffffffffffffffffffffffffffff1673ffffffffffffffffffffffffffffffffffffffff1681526020019081526020015f205f9054906101000a900460ff166124a95760115f8381526020019081526020015f2033908060018154018082558091505060019003905f5260205f20015f9091909190916101000a81548173ffffffffffffffffffffffffffffffffffffffff021916908373ffffffffffffffffffffffffffffffffffffffff160217905550600160125f8481526020019081526020015f205f3373ffffffffffffffffffffffffffffffffffffffff1673ffffffffffffffffffffffffffffffffffffffff1681526020019081526020015f205f6101000a81548160ff021916908315150217905550813373ffffffffffffffffffffffffffffffffffffffff167fb5d93c368c4bd18876654db9fd5dcef5a3583ccde4d81659e7f309f36c84490560405160405180910390a35b3373ffffffffffffffffffffffffffffffffffffffff16827f6dbad7911810fc45c016aff41534b7adcd5477454a9b5be0d995a93518cde6754260016040516124f3929190614adb565b60405180910390a3612552565b3373ffffffffffffffffffffffffffffffffffffffff16827f6dbad7911810fc45c016aff41534b7adcd5477454a9b5be0d995a93518cde675425f604051612549929190614adb565b60405180910390a35b80600b5f8481526020019081526020015f205f3373ffffffffffffffffffffffffffffffffffffffff1673ffffffffffffffffffffffffffffffffffffffff1681526020019081526020015f208190555042600c5f8481526020019081526020015f205f3373ffffffffffffffffffffffffffffffffffffffff1673ffffffffffffffffffffffffffffffffffffffff1681526020019081526020015f2081905550813373ffffffffffffffffffffffffffffffffffffffff167fc5009e6865ae04f58da43f80d7eb9718a2f25a7ccfeb22a8ca0031e77b86b50a8360405161263b919061397c565b60405180910390a361264b612e30565b5050565b60035481565b61265d612e39565b5f73ffffffffffffffffffffffffffffffffffffffff168173ffffffffffffffffffffffffffffffffffffffff16036126cd575f6040517f1e4fbdf70000000000000000000000000000000000000000000000000000000081526004016126c4919061371a565b60405180910390fd5b6126d681612fc1565b50565b670de0b6b3a764000081565b6126ed612e39565b5f861161272f576040517f08c379a000000000000000000000000000000000000000000000000000000000815260040161272690613cf1565b60405180910390fd5b6003548611612773576040517f08c379a000000000000000000000000000000000000000000000000000000000815260040161276a90614b72565b60405180910390fd5b5f82116127b5576040517f08c379a00000000000000000000000000000000000000000000000000000000081526004016127ac90614c00565b60405180910390fd5b6001808111156127c8576127c7613c1b565b5b8460018111156127db576127da613c1b565b5b03612994575f73ffffffffffffffffffffffffffffffffffffffff168373ffffffffffffffffffffffffffffffffffffffff160361284e576040517f08c379a000000000000000000000000000000000000000000000000000000000815260040161284590614c8e565b60405180910390fd5b5f8373ffffffffffffffffffffffffffffffffffffffff163b116128a7576040517f08c379a000000000000000000000000000000000000000000000000000000000815260040161289e90614cf6565b60405180910390fd5b8273ffffffffffffffffffffffffffffffffffffffff166318160ddd6040518163ffffffff1660e01b8152600401602060405180830381865afa92505050801561290f57506040513d601f19601f8201168201806040525081019061290c9190614489565b60015b61294e576040517f08c379a000000000000000000000000000000000000000000000000000000000815260040161294590614d84565b60405180910390fd5b508260055f6101000a81548173ffffffffffffffffffffffffffffffffffffffff021916908373ffffffffffffffffffffffffffffffffffffffff160217905550612a43565b5f73ffffffffffffffffffffffffffffffffffffffff168373ffffffffffffffffffffffffffffffffffffffff1614612a02576040517f08c379a00000000000000000000000000000000000000000000000000000000081526004016129f990614e12565b60405180910390fd5b5f60055f6101000a81548173ffffffffffffffffffffffffffffffffffffffff021916908373ffffffffffffffffffffffffffffffffffffffff1602179055505b5f670de0b6b3a76400001115612c07575f73ffffffffffffffffffffffffffffffffffffffff168173ffffffffffffffffffffffffffffffffffffffff1603612ac1576040517f08c379a0000000000000000000000000000000000000000000000000000000008152600401612ab890614ec6565b60405180910390fd5b5f8173ffffffffffffffffffffffffffffffffffffffff163b11612b1a576040517f08c379a0000000000000000000000000000000000000000000000000000000008152600401612b1190614f54565b60405180910390fd5b8073ffffffffffffffffffffffffffffffffffffffff166318160ddd6040518163ffffffff1660e01b8152600401602060405180830381865afa925050508015612b8257506040513d601f19601f82011682018060405250810190612b7f9190614489565b60015b612bc1576040517f08c379a0000000000000000000000000000000000000000000000000000000008152600401612bb890614fe2565b60405180910390fd5b508060085f6101000a81548173ffffffffffffffffffffffffffffffffffffffff021916908373ffffffffffffffffffffffffffffffffffffffff160217905550612cb6565b5f73ffffffffffffffffffffffffffffffffffffffff168173ffffffffffffffffffffffffffffffffffffffff1614612c75576040517f08c379a0000000000000000000000000000000000000000000000000000000008152600401612c6c90615070565b60405180910390fd5b5f60085f6101000a81548173ffffffffffffffffffffffffffffffffffffffff021916908373ffffffffffffffffffffffffffffffffffffffff1602179055505b5f60045414612cfa576040517f08c379a0000000000000000000000000000000000000000000000000000000008152600401612cf1906150fe565b60405180910390fd5b5f60065414612d3e576040517f08c379a0000000000000000000000000000000000000000000000000000000008152600401612d359061518c565b60405180910390fd5b856003819055508460108190555083600860146101000a81548160ff02191690836001811115612d7157612d70613c1b565b5b021790555081600781905550857f05227007ca99c4e41f51fb024dcb2065e16bd026db353ce7f322e5cdb4fb2e9d86866001811115612db357612db2613c1b565b5b868686604051612dc79594939291906151c5565b60405180910390a2505050505050565b600860149054906101000a900460ff1681565b600260015403612e26576040517f3ee5aeb500000000000000000000000000000000000000000000000000000000815260040160405180910390fd5b6002600181905550565b60018081905550565b612e41613491565b73ffffffffffffffffffffffffffffffffffffffff16612e5f611b0b565b73ffffffffffffffffffffffffffffffffffffffff1614612ebe57612e82613491565b6040517f118cdaa7000000000000000000000000000000000000000000000000000000008152600401612eb5919061371a565b60405180910390fd5b565b612f3c848573ffffffffffffffffffffffffffffffffffffffff166323b872dd868686604051602401612ef593929190615216565b604051602081830303815290604052915060e01b6020820180517bffffffffffffffffffffffffffffffffffffffffffffffffffffffff8381831617835250505050613498565b50505050565b612fbc838473ffffffffffffffffffffffffffffffffffffffff1663a9059cbb8585604051602401612f7592919061524b565b604051602081830303815290604052915060e01b6020820180517bffffffffffffffffffffffffffffffffffffffffffffffffffffffff8381831617835250505050613498565b505050565b5f5f5f9054906101000a900473ffffffffffffffffffffffffffffffffffffffff169050815f5f6101000a81548173ffffffffffffffffffffffffffffffffffffffff021916908373ffffffffffffffffffffffffffffffffffffffff1602179055508173ffffffffffffffffffffffffffffffffffffffff168173ffffffffffffffffffffffffffffffffffffffff167f8be0079c531659141344cd1fd0a4f28419497f9722a3daafe3b4186f6b6457e060405160405180910390a35050565b5f73ffffffffffffffffffffffffffffffffffffffff168273ffffffffffffffffffffffffffffffffffffffff16036130f0576040517f08c379a00000000000000000000000000000000000000000000000000000000081526004016130e7906152bc565b60405180910390fd5b5f8111613132576040517f08c379a000000000000000000000000000000000000000000000000000000000815260040161312990614c00565b60405180910390fd5b5f600181111561314557613144613c1b565b5b600860149054906101000a900460ff16600181111561316757613166613c1b565b5b036132ba578060045410156131b1576040517f08c379a00000000000000000000000000000000000000000000000000000000081526004016131a89061534a565b60405180910390fd5b804710156131f4576040517f08c379a00000000000000000000000000000000000000000000000000000000081526004016131eb906153d8565b60405180910390fd5b8060045f82825461320591906140dd565b925050819055505f8273ffffffffffffffffffffffffffffffffffffffff16826040516132319061413d565b5f6040518083038185875af1925050503d805f811461326b576040519150601f19603f3d011682016040523d82523d5f602084013e613270565b606091505b50509050806132b4576040517f08c379a00000000000000000000000000000000000000000000000000000000081526004016132ab90615440565b60405180910390fd5b5061342e565b6001808111156132cd576132cc613c1b565b5b600860149054906101000a900460ff1660018111156132ef576132ee613c1b565b5b0361342d575f73ffffffffffffffffffffffffffffffffffffffff1660055f9054906101000a900473ffffffffffffffffffffffffffffffffffffffff1673ffffffffffffffffffffffffffffffffffffffff1603613383576040517f08c379a000000000000000000000000000000000000000000000000000000000815260040161337a90614682565b60405180910390fd5b8060065410156133c8576040517f08c379a00000000000000000000000000000000000000000000000000000000081526004016133bf906154ce565b60405180910390fd5b8060065f8282546133d991906140dd565b9250508190555061342c828260055f9054906101000a900473ffffffffffffffffffffffffffffffffffffffff1673ffffffffffffffffffffffffffffffffffffffff16612f429092919063ffffffff16565b5b5b8173ffffffffffffffffffffffffffffffffffffffff167fff43c2705b2225c1c9d9d58f088ab64d4fc767737dee523bed37f15fb0c6c3de82600860149054906101000a900460ff166040516134859291906146a0565b60405180910390a25050565b5f33905090565b5f5f60205f8451602086015f885af1806134b7576040513d5f823e3d81fd5b3d92505f519150505f82146134d05760018114156134eb565b5f8473ffffffffffffffffffffffffffffffffffffffff163b145b1561352d57836040517f5274afe7000000000000000000000000000000000000000000000000000000008152600401613524919061371a565b60405180910390fd5b50505050565b5f82825260208201905092915050565b7f45544820616d6f756e74206d7573742062652067726561746572207468616e205f8201527f7a65726f00000000000000000000000000000000000000000000000000000000602082015250565b5f61359d602483613533565b91506135a882613543565b604082019050919050565b5f6020820190508181035f8301526135ca81613591565b9050919050565b5f819050919050565b7f4e487b71000000000000000000000000000000000000000000000000000000005f52601160045260245ffd5b5f613611826135d1565b915061361c836135d1565b9250828201905080821115613634576136336135da565b5b92915050565b613643816135d1565b82525050565b5f60208201905061365c5f83018461363a565b92915050565b5f604051905090565b5f5ffd5b5f5ffd5b61367c816135d1565b8114613686575f5ffd5b50565b5f8135905061369781613673565b92915050565b5f5f604083850312156136b3576136b261366b565b5b5f6136c085828601613689565b92505060206136d185828601613689565b9150509250929050565b5f73ffffffffffffffffffffffffffffffffffffffff82169050919050565b5f613704826136db565b9050919050565b613714816136fa565b82525050565b5f60208201905061372d5f83018461370b565b92915050565b5f5ffd5b5f5ffd5b5f601f19601f8301169050919050565b7f4e487b71000000000000000000000000000000000000000000000000000000005f52604160045260245ffd5b6137818261373b565b810181811067ffffffffffffffff821117156137a05761379f61374b565b5b80604052505050565b5f6137b2613662565b90506137be8282613778565b919050565b5f67ffffffffffffffff8211156137dd576137dc61374b565b5b6137e68261373b565b9050602081019050919050565b828183375f83830152505050565b5f61381361380e846137c3565b6137a9565b90508281526020810184848401111561382f5761382e613737565b5b61383a8482856137f3565b509392505050565b5f82601f83011261385657613855613733565b5b8135613866848260208601613801565b91505092915050565b5f5f604083850312156138855761388461366b565b5b5f61389285828601613689565b925050602083013567ffffffffffffffff8111156138b3576138b261366f565b5b6138bf85828601613842565b9150509250929050565b6138d2816136fa565b81146138dc575f5ffd5b50565b5f813590506138ed816138c9565b92915050565b5f5f604083850312156139095761390861366b565b5b5f61391685828601613689565b9250506020613927858286016138df565b9150509250929050565b5f8115159050919050565b61394581613931565b82525050565b5f60208201905061395e5f83018461393c565b92915050565b5f819050919050565b61397681613964565b82525050565b5f60208201905061398f5f83018461396d565b92915050565b5f602082840312156139aa576139a961366b565b5b5f6139b7848285016138df565b91505092915050565b5f602082840312156139d5576139d461366b565b5b5f6139e284828501613689565b91505092915050565b5f819050919050565b5f613a0e613a09613a04846136db565b6139eb565b6136db565b9050919050565b5f613a1f826139f4565b9050919050565b5f613a3082613a15565b9050919050565b613a4081613a26565b82525050565b5f602082019050613a595f830184613a37565b92915050565b5f5ffd5b5f5ffd5b5f5f83601f840112613a7c57613a7b613733565b5b8235905067ffffffffffffffff811115613a9957613a98613a5f565b5b602083019150836001820283011115613ab557613ab4613a63565b5b9250929050565b5f5f60208385031215613ad257613ad161366b565b5b5f83013567ffffffffffffffff811115613aef57613aee61366f565b5b613afb85828601613a67565b92509250509250929050565b613b1081613964565b8114613b1a575f5ffd5b50565b5f81359050613b2b81613b07565b92915050565b5f5f60408385031215613b4757613b4661366b565b5b5f613b5485828601613689565b9250506020613b6585828601613b1d565b9150509250929050565b60028110613b7b575f5ffd5b50565b5f81359050613b8c81613b6f565b92915050565b5f5f5f5f5f5f60c08789031215613bac57613bab61366b565b5b5f613bb989828a01613689565b9650506020613bca89828a01613b1d565b9550506040613bdb89828a01613b7e565b9450506060613bec89828a016138df565b9350506080613bfd89828a01613689565b92505060a0613c0e89828a016138df565b9150509295509295509295565b7f4e487b71000000000000000000000000000000000000000000000000000000005f52602160045260245ffd5b60028110613c5957613c58613c1b565b5b50565b5f819050613c6982613c48565b919050565b5f613c7882613c5c565b9050919050565b613c8881613c6e565b82525050565b5f602082019050613ca15f830184613c7f565b92915050565b7f526964646c652049442063616e6e6f74206265207a65726f00000000000000005f82015250565b5f613cdb601883613533565b9150613ce682613ca7565b602082019050919050565b5f6020820190508181035f830152613d0881613ccf565b9050919050565b7f4e6f74207468652061637469766520726964646c6520494400000000000000005f82015250565b5f613d43601883613533565b9150613d4e82613d0f565b602082019050919050565b5f6020820190508181035f830152613d7081613d37565b9050919050565b7f4d75737420656e746572207468652067616d65206669727374000000000000005f82015250565b5f613dab601983613533565b9150613db682613d77565b602082019050919050565b5f6020820190508181035f830152613dd881613d9f565b9050919050565b7f4e6f20636f6d6d697474656420677565737300000000000000000000000000005f82015250565b5f613e13601283613533565b9150613e1e82613ddf565b602082019050919050565b5f6020820190508181035f830152613e4081613e07565b9050919050565b7f416c72656164792072657665616c6564000000000000000000000000000000005f82015250565b5f613e7b601083613533565b9150613e8682613e47565b602082019050919050565b5f6020820190508181035f830152613ea881613e6f565b9050919050565b7f52657665616c20746f6f206561726c79000000000000000000000000000000005f82015250565b5f613ee3601083613533565b9150613eee82613eaf565b602082019050919050565b5f6020820190508181035f830152613f1081613ed7565b9050919050565b5f81519050919050565b5f81905092915050565b8281835e5f83830152505050565b5f613f4382613f17565b613f4d8185613f21565b9350613f5d818560208601613f2b565b80840191505092915050565b5f613f748284613f39565b915081905092915050565b7f52657665616c20646f6573206e6f74206d6174636820636f6d6d6974000000005f82015250565b5f613fb3601c83613533565b9150613fbe82613f7f565b602082019050919050565b5f6020820190508181035f830152613fe081613fa7565b9050919050565b7f5769746864726177616c20616d6f756e74206d757374206265206772656174655f8201527f72207468616e207a65726f000000000000000000000000000000000000000000602082015250565b5f614041602b83613533565b915061404c82613fe7565b604082019050919050565b5f6020820190508181035f83015261406e81614035565b9050919050565b7f496e73756666696369656e742062616c616e63650000000000000000000000005f82015250565b5f6140a9601483613533565b91506140b482614075565b602082019050919050565b5f6020820190508181035f8301526140d68161409d565b9050919050565b5f6140e7826135d1565b91506140f2836135d1565b925082820390508181111561410a576141096135da565b5b92915050565b5f81905092915050565b50565b5f6141285f83614110565b91506141338261411a565b5f82019050919050565b5f6141478261411d565b9150819050919050565b7f5769746864726177616c206661696c65640000000000000000000000000000005f82015250565b5f614185601183613533565b915061419082614151565b602082019050919050565b5f6020820190508181035f8301526141b281614179565b9050919050565b7f4f776e6572207769746864726177616c20616d6f756e74206d757374206265205f8201527f67726561746572207468616e207a65726f000000000000000000000000000000602082015250565b5f614213603183613533565b915061421e826141b9565b604082019050919050565b5f6020820190508181035f83015261424081614207565b9050919050565b7f496e73756666696369656e7420455448207072697a6520706f6f6c00000000005f82015250565b5f61427b601b83613533565b915061428682614247565b602082019050919050565b5f6020820190508181035f8301526142a88161426f565b9050919050565b7f4f776e6572207769746864726177616c206661696c65640000000000000000005f82015250565b5f6142e3601783613533565b91506142ee826142af565b602082019050919050565b5f6020820190508181035f830152614310816142d7565b9050919050565b7f416c72656164792070617274696369706174656420696e2074686973207269645f8201527f646c650000000000000000000000000000000000000000000000000000000000602082015250565b5f614371602383613533565b915061437c82614317565b604082019050919050565b5f6020820190508181035f83015261439e81614365565b9050919050565b7f4e6f2061637469766520726964646c65000000000000000000000000000000005f82015250565b5f6143d9601083613533565b91506143e4826143a5565b602082019050919050565b5f6020820190508181035f830152614406816143cd565b9050919050565b7f456e7472792066656520746f6b656e206e6f74207365740000000000000000005f82015250565b5f614441601783613533565b915061444c8261440d565b602082019050919050565b5f6020820190508181035f83015261446e81614435565b9050919050565b5f8151905061448381613673565b92915050565b5f6020828403121561449e5761449d61366b565b5b5f6144ab84828501614475565b91505092915050565b7f456e74727920666565206d69736d617463682028464f54206e6f7420737570705f8201527f6f72746564290000000000000000000000000000000000000000000000000000602082015250565b5f61450e602683613533565b9150614519826144b4565b604082019050919050565b5f6020820190508181035f83015261453b81614502565b9050919050565b7f416d6f756e74206d7573742062652067726561746572207468616e207a65726f5f82015250565b5f614576602083613533565b915061458182614542565b602082019050919050565b5f6020820190508181035f8301526145a38161456a565b9050919050565b7f43757272656e7420726964646c65207072697a65206973206e6f7420455243325f8201527f3000000000000000000000000000000000000000000000000000000000000000602082015250565b5f614604602183613533565b915061460f826145aa565b604082019050919050565b5f6020820190508181035f830152614631816145f8565b9050919050565b7f5072697a6520746f6b656e206e6f7420736574000000000000000000000000005f82015250565b5f61466c601383613533565b915061467782614638565b602082019050919050565b5f6020820190508181035f83015261469981614660565b9050919050565b5f6040820190506146b35f83018561363a565b6146c06020830184613c7f565b9392505050565b7f4f776e657220746f6b656e207769746864726177616c20616d6f756e74206d755f8201527f73742062652067726561746572207468616e207a65726f000000000000000000602082015250565b5f614721603783613533565b915061472c826146c7565b604082019050919050565b5f6020820190508181035f83015261474e81614715565b9050919050565b7f496e73756666696369656e7420746f6b656e207072697a6520706f6f6c0000005f82015250565b5f614789601d83613533565b915061479482614755565b602082019050919050565b5f6020820190508181035f8301526147b68161477d565b9050919050565b7f4465706f73697420616d6f756e74206d757374206265206772656174657220745f8201527f68616e207a65726f000000000000000000000000000000000000000000000000602082015250565b5f614817602883613533565b9150614822826147bd565b604082019050919050565b5f6020820190508181035f8301526148448161480b565b9050919050565b7f416c726561647920636c61696d656400000000000000000000000000000000005f82015250565b5f61487f600f83613533565b915061488a8261484b565b602082019050919050565b5f6020820190508181035f8301526148ac81614873565b9050919050565b7f4d7573742072657665616c206775657373206265666f726520736f6c76696e675f82015250565b5f6148e7602083613533565b91506148f2826148b3565b602082019050919050565b5f6020820190508181035f830152614914816148db565b9050919050565b5f6149268385613f21565b93506149338385846137f3565b82840190509392505050565b5f61494b82848661491b565b91508190509392505050565b7f52657665616c656420677565737320646f6573206e6f74206d617463682070725f8201527f6f766964656420616e7377657200000000000000000000000000000000000000602082015250565b5f6149b1602d83613533565b91506149bc82614957565b604082019050919050565b5f6020820190508181035f8301526149de816149a5565b9050919050565b7f477565737320686173682063616e6e6f74206265207a65726f000000000000005f82015250565b5f614a19601983613533565b9150614a24826149e5565b602082019050919050565b5f6020820190508181035f830152614a4681614a0d565b9050919050565b7f416c7265616479207375626d6974746564206120677565737320666f722074685f8201527f697320726964646c650000000000000000000000000000000000000000000000602082015250565b5f614aa7602983613533565b9150614ab282614a4d565b604082019050919050565b5f6020820190508181035f830152614ad481614a9b565b9050919050565b5f604082019050614aee5f83018561363a565b614afb602083018461393c565b9392505050565b7f526964646c65204944206d7573742062652067726561746572207468616e20635f8201527f757272656e740000000000000000000000000000000000000000000000000000602082015250565b5f614b5c602683613533565b9150614b6782614b02565b604082019050919050565b5f6020820190508181035f830152614b8981614b50565b9050919050565b7f5072697a6520616d6f756e74206d7573742062652067726561746572207468615f8201527f6e207a65726f0000000000000000000000000000000000000000000000000000602082015250565b5f614bea602683613533565b9150614bf582614b90565b604082019050919050565b5f6020820190508181035f830152614c1781614bde565b9050919050565b7f5072697a6520746f6b656e20616464726573732063616e6e6f74206265207a655f8201527f726f20666f72204552433230207072697a650000000000000000000000000000602082015250565b5f614c78603283613533565b9150614c8382614c1e565b604082019050919050565b5f6020820190508181035f830152614ca581614c6c565b9050919050565b7f5072697a6520746f6b656e20686173206e6f20636f6e747261637420636f64655f82015250565b5f614ce0602083613533565b9150614ceb82614cac565b602082019050919050565b5f6020820190508181035f830152614d0d81614cd4565b9050919050565b7f496e76616c6964204552432d323020746f6b656e3a20746f74616c537570706c5f8201527f792063616c6c206661696c656400000000000000000000000000000000000000602082015250565b5f614d6e602d83613533565b9150614d7982614d14565b604082019050919050565b5f6020820190508181035f830152614d9b81614d62565b9050919050565b7f5072697a6520746f6b656e2061646472657373206d757374206265207a65726f5f8201527f20666f7220455448207072697a65000000000000000000000000000000000000602082015250565b5f614dfc602e83613533565b9150614e0782614da2565b604082019050919050565b5f6020820190508181035f830152614e2981614df0565b9050919050565b7f456e7472792066656520746f6b656e20616464726573732063616e6e6f7420625f8201527f65207a65726f20696620656e7472792066656520616d6f756e7420697320677260208201527f6561746572207468616e207a65726f0000000000000000000000000000000000604082015250565b5f614eb0604f83613533565b9150614ebb82614e30565b606082019050919050565b5f6020820190508181035f830152614edd81614ea4565b9050919050565b7f456e7472792066656520746f6b656e20686173206e6f20636f6e7472616374205f8201527f636f646500000000000000000000000000000000000000000000000000000000602082015250565b5f614f3e602483613533565b9150614f4982614ee4565b604082019050919050565b5f6020820190508181035f830152614f6b81614f32565b9050919050565b7f496e76616c6964204552432d323020746f6b656e20666f7220656e74727920665f8201527f65653a20746f74616c537570706c792063616c6c206661696c65640000000000602082015250565b5f614fcc603b83613533565b9150614fd782614f72565b604082019050919050565b5f6020820190508181035f830152614ff981614fc0565b9050919050565b7f456e7472792066656520746f6b656e2061646472657373206d757374206265205f8201527f7a65726f20696620656e7472792066656520616d6f756e74206973207a65726f602082015250565b5f61505a604083613533565b915061506582615000565b604082019050919050565b5f6020820190508181035f8301526150878161504e565b9050919050565b7f4d75737420776974686472617720455448207072697a6520706f6f6c206265665f8201527f6f7265206e657720726964646c65000000000000000000000000000000000000602082015250565b5f6150e8602e83613533565b91506150f38261508e565b604082019050919050565b5f6020820190508181035f830152615115816150dc565b9050919050565b7f4d75737420776974686472617720746f6b656e207072697a6520706f6f6c20625f8201527f65666f7265206e657720726964646c6500000000000000000000000000000000602082015250565b5f615176603083613533565b91506151818261511c565b604082019050919050565b5f6020820190508181035f8301526151a38161516a565b9050919050565b5f60ff82169050919050565b6151bf816151aa565b82525050565b5f60a0820190506151d85f83018861396d565b6151e560208301876151b6565b6151f2604083018661370b565b6151ff606083018561363a565b61520c608083018461370b565b9695505050505050565b5f6060820190506152295f83018661370b565b615236602083018561370b565b615243604083018461363a565b949350505050565b5f60408201905061525e5f83018561370b565b61526b602083018461363a565b9392505050565b7f57696e6e657220616464726573732063616e6e6f74206265207a65726f0000005f82015250565b5f6152a6601d83613533565b91506152b182615272565b602082019050919050565b5f6020820190508181035f8301526152d38161529a565b9050919050565b7f496e73756666696369656e7420455448207072697a6520706f6f6c2062616c615f8201527f6e63650000000000000000000000000000000000000000000000000000000000602082015250565b5f615334602383613533565b915061533f826152da565b604082019050919050565b5f6020820190508181035f83015261536181615328565b9050919050565b7f496e73756666696369656e7420636f6e7472616374204554482062616c616e635f8201527f6500000000000000000000000000000000000000000000000000000000000000602082015250565b5f6153c2602183613533565b91506153cd82615368565b604082019050919050565b5f6020820190508181035f8301526153ef816153b6565b9050919050565b7f455448207472616e73666572206661696c6564000000000000000000000000005f82015250565b5f61542a601383613533565b9150615435826153f6565b602082019050919050565b5f6020820190508181035f8301526154578161541e565b9050919050565b7f496e73756666696369656e74204552433230207072697a6520706f6f6c2062615f8201527f6c616e6365000000000000000000000000000000000000000000000000000000602082015250565b5f6154b8602583613533565b91506154c38261545e565b604082019050919050565b5f6020820190508181035f8301526154e5816154ac565b905091905056fea26469706673582212200c12346bb28318b7eca94b539a8b119402508ab7097c6aaad9231e656c5f400e64736f6c634300081e0033","linkReferences":{}},"methodIdentifiers":{"ENTRY_FEE()":"f6d361cc","balances(address)":"27e235e3","committedAt(uint256,address)":"c06a5fc5","committedGuesses(uint256,address)":"b7173e77","currentRiddleId()":"ecdc6c23","deposit()":"d0e30db0","enterGame(uint256)":"43d6582b","entryFeeToken()":"7b149763","ethPrizePool()":"95664a3d","fundTokenPrizePool(uint256)":"48b06e87","getPrizeToken()":"c7cd6959","hasClaimed(uint256,address)":"873f6f9e","hasParticipated(uint256,address)":"a34398a2","hasRevealed(uint256,address)":"16b5551d","isWinner(uint256,address)":"bdd415af","owner()":"8da5cb5b","ownerWithdraw(uint256)":"33f707d1","ownerWithdrawTokens(uint256)":"60972120","prizeAmount()":"785fa627","prizeToken()":"d0ef024a","prizeType()":"fcdf8e89","renounceOwnership()":"715018a6","revealDelay()":"53236d74","revealGuess(uint256,string)":"12b5afc1","revealedGuessHash(uint256,address)":"188240cd","setRevealDelay(uint256)":"a68c25d8","setRiddle(uint256,bytes32,uint8,address,uint256,address)":"f9f82e9c","solveRiddleAndClaim(string)":"dc663b53","submitGuess(uint256,bytes32)":"e4d33ee3","tokenPrizePool()":"c310e242","transferOwnership(address)":"f2fde38b","winners(uint256,uint256)":"0efc8865","withdraw(uint256)":"2e1a7d4d"},"id":2}