{"abi":[{"type":"constructor","inputs":[{"name":"initialOwner","type":"address","internalType":"address"}],"stateMutability":"nonpayable"},{"type":"function","name":"balances","inputs":[{"name":"","type":"address","internalType":"address"}],"outputs":[{"name":"","type":"uint256","internalType":"uint256"}],"stateMutability":"view"},{"type":"function","name":"currentRiddleId","inputs":[],"outputs":[{"name":"","type":"uint256","internalType":"uint256"}],"stateMutability":"view"},{"type":"function","name":"deposit","inputs":[],"outputs":[],"stateMutability":"payable"},{"type":"function","name":"getAnswerHash","inputs":[],"outputs":[{"name":"","type":"bytes32","internalType":"bytes32"}],"stateMutability":"view"},{"type":"function","name":"getPrizeToken","inputs":[],"outputs":[{"name":"","type":"address","internalType":"address"}],"stateMutability":"view"},{"type":"function","name":"hasParticipated","inputs":[{"name":"","type":"uint256","internalType":"uint256"},{"name":"","type":"address","internalType":"address"}],"outputs":[{"name":"","type":"bool","internalType":"bool"}],"stateMutability":"view"},{"type":"function","name":"owner","inputs":[],"outputs":[{"name":"","type":"address","internalType":"address"}],"stateMutability":"view"},{"type":"function","name":"ownerWithdraw","inputs":[{"name":"_amount","type":"uint256","internalType":"uint256"}],"outputs":[],"stateMutability":"nonpayable"},{"type":"function","name":"prizePool","inputs":[],"outputs":[{"name":"","type":"uint256","internalType":"uint256"}],"stateMutability":"view"},{"type":"function","name":"renounceOwnership","inputs":[],"outputs":[],"stateMutability":"nonpayable"},{"type":"function","name":"setRiddle","inputs":[{"name":"_riddleId","type":"uint256","internalType":"uint256"},{"name":"_answerHash","type":"bytes32","internalType":"bytes32"},{"name":"_prizeToken","type":"address","internalType":"address"}],"outputs":[],"stateMutability":"nonpayable"},{"type":"function","name":"transferOwnership","inputs":[{"name":"newOwner","type":"address","internalType":"address"}],"outputs":[],"stateMutability":"nonpayable"},{"type":"function","name":"withdraw","inputs":[{"name":"_amount","type":"uint256","internalType":"uint256"}],"outputs":[],"stateMutability":"nonpayable"},{"type":"event","name":"Deposit","inputs":[{"name":"user","type":"address","indexed":true,"internalType":"address"},{"name":"amount","type":"uint256","indexed":false,"internalType":"uint256"}],"anonymous":false},{"type":"event","name":"OwnerWithdrawal","inputs":[{"name":"owner","type":"address","indexed":true,"internalType":"address"},{"name":"amount","type":"uint256","indexed":false,"internalType":"uint256"}],"anonymous":false},{"type":"event","name":"OwnershipTransferred","inputs":[{"name":"previousOwner","type":"address","indexed":true,"internalType":"address"},{"name":"newOwner","type":"address","indexed":true,"internalType":"address"}],"anonymous":false},{"type":"event","name":"RiddleSet","inputs":[{"name":"riddleId","type":"uint256","indexed":true,"internalType":"uint256"},{"name":"answerHash","type":"bytes32","indexed":false,"internalType":"bytes32"},{"name":"prizeToken","type":"address","indexed":false,"internalType":"address"}],"anonymous":false},{"type":"event","name":"Withdrawal","inputs":[{"name":"user","type":"address","indexed":true,"internalType":"address"},{"name":"amount","type":"uint256","indexed":false,"internalType":"uint256"}],"anonymous":false},{"type":"error","name":"OwnableInvalidOwner","inputs":[{"name":"owner","type":"address","internalType":"address"}]},{"type":"error","name":"OwnableUnauthorizedAccount","inputs":[{"name":"account","type":"address","internalType":"address"}]},{"type":"error","name":"ReentrancyGuardReentrantCall","inputs":[]}],"bytecode":{"object":"0x608060405234801561000f575f5ffd5b50604051611847380380611847833981810160405281019061003191906101de565b805f73ffffffffffffffffffffffffffffffffffffffff168173ffffffffffffffffffffffffffffffffffffffff16036100a2575f6040517f1e4fbdf70000000000000000000000000000000000000000000000000000000081526004016100999190610218565b60405180910390fd5b6100b1816100bf60201b60201c565b506001808190555050610231565b5f5f5f9054906101000a900473ffffffffffffffffffffffffffffffffffffffff169050815f5f6101000a81548173ffffffffffffffffffffffffffffffffffffffff021916908373ffffffffffffffffffffffffffffffffffffffff1602179055508173ffffffffffffffffffffffffffffffffffffffff168173ffffffffffffffffffffffffffffffffffffffff167f8be0079c531659141344cd1fd0a4f28419497f9722a3daafe3b4186f6b6457e060405160405180910390a35050565b5f5ffd5b5f73ffffffffffffffffffffffffffffffffffffffff82169050919050565b5f6101ad82610184565b9050919050565b6101bd816101a3565b81146101c7575f5ffd5b50565b5f815190506101d8816101b4565b92915050565b5f602082840312156101f3576101f2610180565b5b5f610200848285016101ca565b91505092915050565b610212816101a3565b82525050565b5f60208201905061022b5f830184610209565b92915050565b6116098061023e5f395ff3fe6080604052600436106100c1575f3560e01c80638da5cb5b1161007e578063c7cd695911610058578063c7cd695914610249578063d0e30db014610273578063ecdc6c231461027d578063f2fde38b146102a7576100c1565b80638da5cb5b146101b95780639acc80a2146101e3578063a34398a21461020d576100c1565b806327e235e3146100c55780632e1a7d4d1461010157806333f707d114610129578063715018a614610151578063719ce73e1461016757806384b97e8b14610191575b5f5ffd5b3480156100d0575f5ffd5b506100eb60048036038101906100e69190610d77565b6102cf565b6040516100f89190610dba565b60405180910390f35b34801561010c575f5ffd5b5061012760048036038101906101229190610dfd565b6102e4565b005b348015610134575f5ffd5b5061014f600480360381019061014a9190610dfd565b610503565b005b34801561015c575f5ffd5b506101656106ae565b005b348015610172575f5ffd5b5061017b6106c1565b6040516101889190610dba565b60405180910390f35b34801561019c575f5ffd5b506101b760048036038101906101b29190610e5b565b6106c7565b005b3480156101c4575f5ffd5b506101cd610857565b6040516101da9190610eba565b60405180910390f35b3480156101ee575f5ffd5b506101f761087e565b6040516102049190610ee2565b60405180910390f35b348015610218575f5ffd5b50610233600480360381019061022e9190610efb565b610887565b6040516102409190610f53565b60405180910390f35b348015610254575f5ffd5b5061025d6108b1565b60405161026a9190610eba565b60405180910390f35b61027b6108d9565b005b348015610288575f5ffd5b50610291610ad7565b60405161029e9190610dba565b60405180910390f35b3480156102b2575f5ffd5b506102cd60048036038101906102c89190610d77565b610add565b005b6002602052805f5260405f205f915090505481565b6102ec610b61565b5f811161032e576040517f08c379a000000000000000000000000000000000000000000000000000000000815260040161032590610fec565b60405180910390fd5b8060025f3373ffffffffffffffffffffffffffffffffffffffff1673ffffffffffffffffffffffffffffffffffffffff1681526020019081526020015f205410156103ae576040517f08c379a00000000000000000000000000000000000000000000000000000000081526004016103a590611054565b60405180910390fd5b8060025f3373ffffffffffffffffffffffffffffffffffffffff1673ffffffffffffffffffffffffffffffffffffffff1681526020019081526020015f205f8282546103fa919061109f565b925050819055505f3373ffffffffffffffffffffffffffffffffffffffff1682604051610426906110ff565b5f6040518083038185875af1925050503d805f8114610460576040519150601f19603f3d011682016040523d82523d5f602084013e610465565b606091505b50509050806104a9576040517f08c379a00000000000000000000000000000000000000000000000000000000081526004016104a09061115d565b60405180910390fd5b3373ffffffffffffffffffffffffffffffffffffffff167f7fcf532c15f0a6db0bd6d0e038bea71d30d808c7d98cb3bf7268a95bf5081b65836040516104ef9190610dba565b60405180910390a250610500610ba7565b50565b61050b610bb0565b610513610b61565b5f8111610555576040517f08c379a000000000000000000000000000000000000000000000000000000000815260040161054c906111eb565b60405180910390fd5b80471015610598576040517f08c379a000000000000000000000000000000000000000000000000000000000815260040161058f90611253565b60405180910390fd5b5f6105a1610857565b73ffffffffffffffffffffffffffffffffffffffff168262030d40906040516105c9906110ff565b5f60405180830381858888f193505050503d805f8114610604576040519150601f19603f3d011682016040523d82523d5f602084013e610609565b606091505b505090508061064d576040517f08c379a0000000000000000000000000000000000000000000000000000000008152600401610644906112bb565b60405180910390fd5b610655610857565b73ffffffffffffffffffffffffffffffffffffffff167fa919fadcfa556a012bab31b15f596ea7ccd397adbf10e15f176db9055ab361c48360405161069a9190610dba565b60405180910390a2506106ab610ba7565b50565b6106b6610bb0565b6106bf5f610c37565b565b60045481565b6106cf610bb0565b5f8311610711576040517f08c379a000000000000000000000000000000000000000000000000000000000815260040161070890611323565b60405180910390fd5b6003548311610755576040517f08c379a000000000000000000000000000000000000000000000000000000000815260040161074c906113b1565b60405180910390fd5b5f73ffffffffffffffffffffffffffffffffffffffff168173ffffffffffffffffffffffffffffffffffffffff16036107c3576040517f08c379a00000000000000000000000000000000000000000000000000000000081526004016107ba9061143f565b60405180910390fd5b82600381905550816006819055508060075f6101000a81548173ffffffffffffffffffffffffffffffffffffffff021916908373ffffffffffffffffffffffffffffffffffffffff1602179055505f600481905550827ff745c587684e21aad96b01065b05a14c0fef7ad653c14bc4fefc3e032f5b9fed838360405161084a92919061145d565b60405180910390a2505050565b5f5f5f9054906101000a900473ffffffffffffffffffffffffffffffffffffffff16905090565b5f600654905090565b6005602052815f5260405f20602052805f5260405f205f915091509054906101000a900460ff1681565b5f60075f9054906101000a900473ffffffffffffffffffffffffffffffffffffffff16905090565b6108e1610b61565b5f3411610923576040517f08c379a000000000000000000000000000000000000000000000000000000000815260040161091a906114f4565b60405180910390fd5b60055f60035481526020019081526020015f205f3373ffffffffffffffffffffffffffffffffffffffff1673ffffffffffffffffffffffffffffffffffffffff1681526020019081526020015f205f9054906101000a900460ff16156109be576040517f08c379a00000000000000000000000000000000000000000000000000000000081526004016109b590611582565b60405180910390fd5b3460025f3373ffffffffffffffffffffffffffffffffffffffff1673ffffffffffffffffffffffffffffffffffffffff1681526020019081526020015f205f828254610a0a91906115a0565b92505081905550600160055f60035481526020019081526020015f205f3373ffffffffffffffffffffffffffffffffffffffff1673ffffffffffffffffffffffffffffffffffffffff1681526020019081526020015f205f6101000a81548160ff021916908315150217905550610a7f610cf8565b3373ffffffffffffffffffffffffffffffffffffffff167fe1fffcc4923d04b559f4d29a8bfc6cda04eb5b0d3c460751c2402c5c5cc9109c34604051610ac59190610dba565b60405180910390a2610ad5610ba7565b565b60035481565b610ae5610bb0565b5f73ffffffffffffffffffffffffffffffffffffffff168173ffffffffffffffffffffffffffffffffffffffff1603610b55575f6040517f1e4fbdf7000000000000000000000000000000000000000000000000000000008152600401610b4c9190610eba565b60405180910390fd5b610b5e81610c37565b50565b600260015403610b9d576040517f3ee5aeb500000000000000000000000000000000000000000000000000000000815260040160405180910390fd5b6002600181905550565b60018081905550565b610bb8610d12565b73ffffffffffffffffffffffffffffffffffffffff16610bd6610857565b73ffffffffffffffffffffffffffffffffffffffff1614610c3557610bf9610d12565b6040517f118cdaa7000000000000000000000000000000000000000000000000000000008152600401610c2c9190610eba565b60405180910390fd5b565b5f5f5f9054906101000a900473ffffffffffffffffffffffffffffffffffffffff169050815f5f6101000a81548173ffffffffffffffffffffffffffffffffffffffff021916908373ffffffffffffffffffffffffffffffffffffffff1602179055508173ffffffffffffffffffffffffffffffffffffffff168173ffffffffffffffffffffffffffffffffffffffff167f8be0079c531659141344cd1fd0a4f28419497f9722a3daafe3b4186f6b6457e060405160405180910390a35050565b3460045f828254610d0991906115a0565b92505081905550565b5f33905090565b5f5ffd5b5f73ffffffffffffffffffffffffffffffffffffffff82169050919050565b5f610d4682610d1d565b9050919050565b610d5681610d3c565b8114610d60575f5ffd5b50565b5f81359050610d7181610d4d565b92915050565b5f60208284031215610d8c57610d8b610d19565b5b5f610d9984828501610d63565b91505092915050565b5f819050919050565b610db481610da2565b82525050565b5f602082019050610dcd5f830184610dab565b92915050565b610ddc81610da2565b8114610de6575f5ffd5b50565b5f81359050610df781610dd3565b92915050565b5f60208284031215610e1257610e11610d19565b5b5f610e1f84828501610de9565b91505092915050565b5f819050919050565b610e3a81610e28565b8114610e44575f5ffd5b50565b5f81359050610e5581610e31565b92915050565b5f5f5f60608486031215610e7257610e71610d19565b5b5f610e7f86828701610de9565b9350506020610e9086828701610e47565b9250506040610ea186828701610d63565b9150509250925092565b610eb481610d3c565b82525050565b5f602082019050610ecd5f830184610eab565b92915050565b610edc81610e28565b82525050565b5f602082019050610ef55f830184610ed3565b92915050565b5f5f60408385031215610f1157610f10610d19565b5b5f610f1e85828601610de9565b9250506020610f2f85828601610d63565b9150509250929050565b5f8115159050919050565b610f4d81610f39565b82525050565b5f602082019050610f665f830184610f44565b92915050565b5f82825260208201905092915050565b7f5769746864726177616c20616d6f756e74206d757374206265206772656174655f8201527f72207468616e207a65726f000000000000000000000000000000000000000000602082015250565b5f610fd6602b83610f6c565b9150610fe182610f7c565b604082019050919050565b5f6020820190508181035f83015261100381610fca565b9050919050565b7f496e73756666696369656e742062616c616e63650000000000000000000000005f82015250565b5f61103e601483610f6c565b91506110498261100a565b602082019050919050565b5f6020820190508181035f83015261106b81611032565b9050919050565b7f4e487b71000000000000000000000000000000000000000000000000000000005f52601160045260245ffd5b5f6110a982610da2565b91506110b483610da2565b92508282039050818111156110cc576110cb611072565b5b92915050565b5f81905092915050565b50565b5f6110ea5f836110d2565b91506110f5826110dc565b5f82019050919050565b5f611109826110df565b9150819050919050565b7f5769746864726177616c206661696c65640000000000000000000000000000005f82015250565b5f611147601183610f6c565b915061115282611113565b602082019050919050565b5f6020820190508181035f8301526111748161113b565b9050919050565b7f4f776e6572207769746864726177616c20616d6f756e74206d757374206265205f8201527f67726561746572207468616e207a65726f000000000000000000000000000000602082015250565b5f6111d5603183610f6c565b91506111e08261117b565b604082019050919050565b5f6020820190508181035f830152611202816111c9565b9050919050565b7f496e73756666696369656e7420636f6e74726163742062616c616e63650000005f82015250565b5f61123d601d83610f6c565b915061124882611209565b602082019050919050565b5f6020820190508181035f83015261126a81611231565b9050919050565b7f4f776e6572207769746864726177616c206661696c65640000000000000000005f82015250565b5f6112a5601783610f6c565b91506112b082611271565b602082019050919050565b5f6020820190508181035f8301526112d281611299565b9050919050565b7f526964646c652049442063616e6e6f74206265207a65726f00000000000000005f82015250565b5f61130d601883610f6c565b9150611318826112d9565b602082019050919050565b5f6020820190508181035f83015261133a81611301565b9050919050565b7f526964646c65204944206d7573742062652067726561746572207468616e20635f8201527f757272656e740000000000000000000000000000000000000000000000000000602082015250565b5f61139b602683610f6c565b91506113a682611341565b604082019050919050565b5f6020820190508181035f8301526113c88161138f565b9050919050565b7f5072697a6520746f6b656e20616464726573732063616e6e6f74206265207a655f8201527f726f000000000000000000000000000000000000000000000000000000000000602082015250565b5f611429602283610f6c565b9150611434826113cf565b604082019050919050565b5f6020820190508181035f8301526114568161141d565b9050919050565b5f6040820190506114705f830185610ed3565b61147d6020830184610eab565b9392505050565b7f4465706f73697420616d6f756e74206d757374206265206772656174657220745f8201527f68616e207a65726f000000000000000000000000000000000000000000000000602082015250565b5f6114de602883610f6c565b91506114e982611484565b604082019050919050565b5f6020820190508181035f83015261150b816114d2565b9050919050565b7f416c72656164792070617274696369706174656420696e2074686973207269645f8201527f646c650000000000000000000000000000000000000000000000000000000000602082015250565b5f61156c602383610f6c565b915061157782611512565b604082019050919050565b5f6020820190508181035f83015261159981611560565b9050919050565b5f6115aa82610da2565b91506115b583610da2565b92508282019050808211156115cd576115cc611072565b5b9291505056fea26469706673582212207e94e2919852666cd117d313ac07906dd6dc520b768628672ad7cc341f86212964736f6c634300081e0033","linkReferences":{}},"methodIdentifiers":{"balances(address)":"27e235e3","currentRiddleId()":"ecdc6c23","deposit()":"d0e30db0","getAnswerHash()":"9acc80a2","getPrizeToken()":"c7cd6959","hasParticipated(uint256,address)":"a34398a2","owner()":"8da5cb5b","ownerWithdraw(uint256)":"33f707d1","prizePool()":"719ce73e","renounceOwnership()":"715018a6","setRiddle(uint256,bytes32,address)":"84b97e8b","transferOwnership(address)":"f2fde38b","withdraw(uint256)":"2e1a7d4d"},"id":0}