{"abi":[{"type":"constructor","inputs":[{"name":"initialOwner","type":"address","internalType":"address"}],"stateMutability":"nonpayable"},{"type":"function","name":"balances","inputs":[{"name":"","type":"address","internalType":"address"}],"outputs":[{"name":"","type":"uint256","internalType":"uint256"}],"stateMutability":"view"},{"type":"function","name":"currentRiddleId","inputs":[],"outputs":[{"name":"","type":"uint256","internalType":"uint256"}],"stateMutability":"view"},{"type":"function","name":"deposit","inputs":[],"outputs":[],"stateMutability":"payable"},{"type":"function","name":"hasParticipated","inputs":[{"name":"","type":"uint256","internalType":"uint256"},{"name":"","type":"address","internalType":"address"}],"outputs":[{"name":"","type":"bool","internalType":"bool"}],"stateMutability":"view"},{"type":"function","name":"initializeNewRiddle","inputs":[],"outputs":[],"stateMutability":"nonpayable"},{"type":"function","name":"owner","inputs":[],"outputs":[{"name":"","type":"address","internalType":"address"}],"stateMutability":"view"},{"type":"function","name":"ownerWithdraw","inputs":[{"name":"_amount","type":"uint256","internalType":"uint256"}],"outputs":[],"stateMutability":"nonpayable"},{"type":"function","name":"prizePool","inputs":[],"outputs":[{"name":"","type":"uint256","internalType":"uint256"}],"stateMutability":"view"},{"type":"function","name":"renounceOwnership","inputs":[],"outputs":[],"stateMutability":"nonpayable"},{"type":"function","name":"riddles","inputs":[{"name":"","type":"uint256","internalType":"uint256"}],"outputs":[{"name":"answerHash","type":"bytes32","internalType":"bytes32"},{"name":"prizeToken","type":"address","internalType":"address"},{"name":"exists","type":"bool","internalType":"bool"}],"stateMutability":"view"},{"type":"function","name":"setRiddle","inputs":[{"name":"_riddleId","type":"uint256","internalType":"uint256"},{"name":"_answerHash","type":"bytes32","internalType":"bytes32"},{"name":"_prizeToken","type":"address","internalType":"address"}],"outputs":[],"stateMutability":"nonpayable"},{"type":"function","name":"transferOwnership","inputs":[{"name":"newOwner","type":"address","internalType":"address"}],"outputs":[],"stateMutability":"nonpayable"},{"type":"function","name":"withdraw","inputs":[{"name":"_amount","type":"uint256","internalType":"uint256"}],"outputs":[],"stateMutability":"nonpayable"},{"type":"event","name":"Deposit","inputs":[{"name":"user","type":"address","indexed":true,"internalType":"address"},{"name":"amount","type":"uint256","indexed":false,"internalType":"uint256"}],"anonymous":false},{"type":"event","name":"OwnerWithdrawal","inputs":[{"name":"owner","type":"address","indexed":true,"internalType":"address"},{"name":"amount","type":"uint256","indexed":false,"internalType":"uint256"}],"anonymous":false},{"type":"event","name":"OwnershipTransferred","inputs":[{"name":"previousOwner","type":"address","indexed":true,"internalType":"address"},{"name":"newOwner","type":"address","indexed":true,"internalType":"address"}],"anonymous":false},{"type":"event","name":"RiddleInitialized","inputs":[{"name":"newRiddleId","type":"uint256","indexed":true,"internalType":"uint256"}],"anonymous":false},{"type":"event","name":"RiddleSet","inputs":[{"name":"riddleId","type":"uint256","indexed":true,"internalType":"uint256"},{"name":"answerHash","type":"bytes32","indexed":false,"internalType":"bytes32"},{"name":"prizeToken","type":"address","indexed":false,"internalType":"address"}],"anonymous":false},{"type":"event","name":"Withdrawal","inputs":[{"name":"user","type":"address","indexed":true,"internalType":"address"},{"name":"amount","type":"uint256","indexed":false,"internalType":"uint256"}],"anonymous":false},{"type":"error","name":"OwnableInvalidOwner","inputs":[{"name":"owner","type":"address","internalType":"address"}]},{"type":"error","name":"OwnableUnauthorizedAccount","inputs":[{"name":"account","type":"address","internalType":"address"}]},{"type":"error","name":"ReentrancyGuardReentrantCall","inputs":[]}],"bytecode":{"object":"0x608060405234801561000f575f5ffd5b506040516118aa3803806118aa833981810160405281019061003191906101de565b805f73ffffffffffffffffffffffffffffffffffffffff168173ffffffffffffffffffffffffffffffffffffffff16036100a2575f6040517f1e4fbdf70000000000000000000000000000000000000000000000000000000081526004016100999190610218565b60405180910390fd5b6100b1816100bf60201b60201c565b506001808190555050610231565b5f5f5f9054906101000a900473ffffffffffffffffffffffffffffffffffffffff169050815f5f6101000a81548173ffffffffffffffffffffffffffffffffffffffff021916908373ffffffffffffffffffffffffffffffffffffffff1602179055508173ffffffffffffffffffffffffffffffffffffffff168173ffffffffffffffffffffffffffffffffffffffff167f8be0079c531659141344cd1fd0a4f28419497f9722a3daafe3b4186f6b6457e060405160405180910390a35050565b5f5ffd5b5f73ffffffffffffffffffffffffffffffffffffffff82169050919050565b5f6101ad82610184565b9050919050565b6101bd816101a3565b81146101c7575f5ffd5b50565b5f815190506101d8816101b4565b92915050565b5f602082840312156101f3576101f2610180565b5b5f610200848285016101ca565b91505092915050565b610212816101a3565b82525050565b5f60208201905061022b5f830184610209565b92915050565b61166c8061023e5f395ff3fe6080604052600436106100c1575f3560e01c806384b97e8b1161007e578063a544ece311610058578063a544ece314610235578063d0e30db014610273578063ecdc6c231461027d578063f2fde38b146102a7576100c1565b806384b97e8b146101a75780638da5cb5b146101cf578063a34398a2146101f9576100c1565b8063223b7d04146100c557806327e235e3146100db5780632e1a7d4d1461011757806333f707d11461013f578063715018a614610167578063719ce73e1461017d575b5f5ffd5b3480156100d0575f5ffd5b506100d96102cf565b005b3480156100e6575f5ffd5b5061010160048036038101906100fc9190610e05565b61031f565b60405161010e9190610e48565b60405180910390f35b348015610122575f5ffd5b5061013d60048036038101906101389190610e8b565b610334565b005b34801561014a575f5ffd5b5061016560048036038101906101609190610e8b565b610553565b005b348015610172575f5ffd5b5061017b6106fe565b005b348015610188575f5ffd5b50610191610711565b60405161019e9190610e48565b60405180910390f35b3480156101b2575f5ffd5b506101cd60048036038101906101c89190610ee9565b610717565b005b3480156101da575f5ffd5b506101e36108c4565b6040516101f09190610f48565b60405180910390f35b348015610204575f5ffd5b5061021f600480360381019061021a9190610f61565b6108eb565b60405161022c9190610fb9565b60405180910390f35b348015610240575f5ffd5b5061025b60048036038101906102569190610e8b565b610915565b60405161026a93929190610fe1565b60405180910390f35b61027b610967565b005b348015610288575f5ffd5b50610291610b65565b60405161029e9190610e48565b60405180910390f35b3480156102b2575f5ffd5b506102cd60048036038101906102c89190610e05565b610b6b565b005b6102d7610bef565b60035f8154809291906102e990611043565b91905055506003547f1637e41c87ac87b28a74f5bd87e5a88f70f70bc8087c85c07e258ec8c8c38bf860405160405180910390a2565b6002602052805f5260405f205f915090505481565b61033c610c76565b5f811161037e576040517f08c379a00000000000000000000000000000000000000000000000000000000081526004016103759061110a565b60405180910390fd5b8060025f3373ffffffffffffffffffffffffffffffffffffffff1673ffffffffffffffffffffffffffffffffffffffff1681526020019081526020015f205410156103fe576040517f08c379a00000000000000000000000000000000000000000000000000000000081526004016103f590611172565b60405180910390fd5b8060025f3373ffffffffffffffffffffffffffffffffffffffff1673ffffffffffffffffffffffffffffffffffffffff1681526020019081526020015f205f82825461044a9190611190565b925050819055505f3373ffffffffffffffffffffffffffffffffffffffff1682604051610476906111f0565b5f6040518083038185875af1925050503d805f81146104b0576040519150601f19603f3d011682016040523d82523d5f602084013e6104b5565b606091505b50509050806104f9576040517f08c379a00000000000000000000000000000000000000000000000000000000081526004016104f09061124e565b60405180910390fd5b3373ffffffffffffffffffffffffffffffffffffffff167f7fcf532c15f0a6db0bd6d0e038bea71d30d808c7d98cb3bf7268a95bf5081b658360405161053f9190610e48565b60405180910390a250610550610cbc565b50565b61055b610bef565b610563610c76565b5f81116105a5576040517f08c379a000000000000000000000000000000000000000000000000000000000815260040161059c906112dc565b60405180910390fd5b804710156105e8576040517f08c379a00000000000000000000000000000000000000000000000000000000081526004016105df90611344565b60405180910390fd5b5f6105f16108c4565b73ffffffffffffffffffffffffffffffffffffffff168262030d4090604051610619906111f0565b5f60405180830381858888f193505050503d805f8114610654576040519150601f19603f3d011682016040523d82523d5f602084013e610659565b606091505b505090508061069d576040517f08c379a0000000000000000000000000000000000000000000000000000000008152600401610694906113ac565b60405180910390fd5b6106a56108c4565b73ffffffffffffffffffffffffffffffffffffffff167fa919fadcfa556a012bab31b15f596ea7ccd397adbf10e15f176db9055ab361c4836040516106ea9190610e48565b60405180910390a2506106fb610cbc565b50565b610706610bef565b61070f5f610cc5565b565b60045481565b61071f610bef565b5f8311610761576040517f08c379a000000000000000000000000000000000000000000000000000000000815260040161075890611414565b60405180910390fd5b5f73ffffffffffffffffffffffffffffffffffffffff168173ffffffffffffffffffffffffffffffffffffffff16036107cf576040517f08c379a00000000000000000000000000000000000000000000000000000000081526004016107c6906114a2565b60405180910390fd5b60405180606001604052808381526020018273ffffffffffffffffffffffffffffffffffffffff1681526020016001151581525060065f8581526020019081526020015f205f820151815f01556020820151816001015f6101000a81548173ffffffffffffffffffffffffffffffffffffffff021916908373ffffffffffffffffffffffffffffffffffffffff16021790555060408201518160010160146101000a81548160ff021916908315150217905550905050827ff745c587684e21aad96b01065b05a14c0fef7ad653c14bc4fefc3e032f5b9fed83836040516108b79291906114c0565b60405180910390a2505050565b5f5f5f9054906101000a900473ffffffffffffffffffffffffffffffffffffffff16905090565b6005602052815f5260405f20602052805f5260405f205f915091509054906101000a900460ff1681565b6006602052805f5260405f205f91509050805f015490806001015f9054906101000a900473ffffffffffffffffffffffffffffffffffffffff16908060010160149054906101000a900460ff16905083565b61096f610c76565b5f34116109b1576040517f08c379a00000000000000000000000000000000000000000000000000000000081526004016109a890611557565b60405180910390fd5b60055f60035481526020019081526020015f205f3373ffffffffffffffffffffffffffffffffffffffff1673ffffffffffffffffffffffffffffffffffffffff1681526020019081526020015f205f9054906101000a900460ff1615610a4c576040517f08c379a0000000000000000000000000000000000000000000000000000000008152600401610a43906115e5565b60405180910390fd5b3460025f3373ffffffffffffffffffffffffffffffffffffffff1673ffffffffffffffffffffffffffffffffffffffff1681526020019081526020015f205f828254610a989190611603565b92505081905550600160055f60035481526020019081526020015f205f3373ffffffffffffffffffffffffffffffffffffffff1673ffffffffffffffffffffffffffffffffffffffff1681526020019081526020015f205f6101000a81548160ff021916908315150217905550610b0d610d86565b3373ffffffffffffffffffffffffffffffffffffffff167fe1fffcc4923d04b559f4d29a8bfc6cda04eb5b0d3c460751c2402c5c5cc9109c34604051610b539190610e48565b60405180910390a2610b63610cbc565b565b60035481565b610b73610bef565b5f73ffffffffffffffffffffffffffffffffffffffff168173ffffffffffffffffffffffffffffffffffffffff1603610be3575f6040517f1e4fbdf7000000000000000000000000000000000000000000000000000000008152600401610bda9190610f48565b60405180910390fd5b610bec81610cc5565b50565b610bf7610da0565b73ffffffffffffffffffffffffffffffffffffffff16610c156108c4565b73ffffffffffffffffffffffffffffffffffffffff1614610c7457610c38610da0565b6040517f118cdaa7000000000000000000000000000000000000000000000000000000008152600401610c6b9190610f48565b60405180910390fd5b565b600260015403610cb2576040517f3ee5aeb500000000000000000000000000000000000000000000000000000000815260040160405180910390fd5b6002600181905550565b60018081905550565b5f5f5f9054906101000a900473ffffffffffffffffffffffffffffffffffffffff169050815f5f6101000a81548173ffffffffffffffffffffffffffffffffffffffff021916908373ffffffffffffffffffffffffffffffffffffffff1602179055508173ffffffffffffffffffffffffffffffffffffffff168173ffffffffffffffffffffffffffffffffffffffff167f8be0079c531659141344cd1fd0a4f28419497f9722a3daafe3b4186f6b6457e060405160405180910390a35050565b3460045f828254610d979190611603565b92505081905550565b5f33905090565b5f5ffd5b5f73ffffffffffffffffffffffffffffffffffffffff82169050919050565b5f610dd482610dab565b9050919050565b610de481610dca565b8114610dee575f5ffd5b50565b5f81359050610dff81610ddb565b92915050565b5f60208284031215610e1a57610e19610da7565b5b5f610e2784828501610df1565b91505092915050565b5f819050919050565b610e4281610e30565b82525050565b5f602082019050610e5b5f830184610e39565b92915050565b610e6a81610e30565b8114610e74575f5ffd5b50565b5f81359050610e8581610e61565b92915050565b5f60208284031215610ea057610e9f610da7565b5b5f610ead84828501610e77565b91505092915050565b5f819050919050565b610ec881610eb6565b8114610ed2575f5ffd5b50565b5f81359050610ee381610ebf565b92915050565b5f5f5f60608486031215610f0057610eff610da7565b5b5f610f0d86828701610e77565b9350506020610f1e86828701610ed5565b9250506040610f2f86828701610df1565b9150509250925092565b610f4281610dca565b82525050565b5f602082019050610f5b5f830184610f39565b92915050565b5f5f60408385031215610f7757610f76610da7565b5b5f610f8485828601610e77565b9250506020610f9585828601610df1565b9150509250929050565b5f8115159050919050565b610fb381610f9f565b82525050565b5f602082019050610fcc5f830184610faa565b92915050565b610fdb81610eb6565b82525050565b5f606082019050610ff45f830186610fd2565b6110016020830185610f39565b61100e6040830184610faa565b949350505050565b7f4e487b71000000000000000000000000000000000000000000000000000000005f52601160045260245ffd5b5f61104d82610e30565b91507fffffffffffffffffffffffffffffffffffffffffffffffffffffffffffffffff820361107f5761107e611016565b5b600182019050919050565b5f82825260208201905092915050565b7f5769746864726177616c20616d6f756e74206d757374206265206772656174655f8201527f72207468616e207a65726f000000000000000000000000000000000000000000602082015250565b5f6110f4602b8361108a565b91506110ff8261109a565b604082019050919050565b5f6020820190508181035f830152611121816110e8565b9050919050565b7f496e73756666696369656e742062616c616e63650000000000000000000000005f82015250565b5f61115c60148361108a565b915061116782611128565b602082019050919050565b5f6020820190508181035f83015261118981611150565b9050919050565b5f61119a82610e30565b91506111a583610e30565b92508282039050818111156111bd576111bc611016565b5b92915050565b5f81905092915050565b50565b5f6111db5f836111c3565b91506111e6826111cd565b5f82019050919050565b5f6111fa826111d0565b9150819050919050565b7f5769746864726177616c206661696c65640000000000000000000000000000005f82015250565b5f61123860118361108a565b915061124382611204565b602082019050919050565b5f6020820190508181035f8301526112658161122c565b9050919050565b7f4f776e6572207769746864726177616c20616d6f756e74206d757374206265205f8201527f67726561746572207468616e207a65726f000000000000000000000000000000602082015250565b5f6112c660318361108a565b91506112d18261126c565b604082019050919050565b5f6020820190508181035f8301526112f3816112ba565b9050919050565b7f496e73756666696369656e7420636f6e74726163742062616c616e63650000005f82015250565b5f61132e601d8361108a565b9150611339826112fa565b602082019050919050565b5f6020820190508181035f83015261135b81611322565b9050919050565b7f4f776e6572207769746864726177616c206661696c65640000000000000000005f82015250565b5f61139660178361108a565b91506113a182611362565b602082019050919050565b5f6020820190508181035f8301526113c38161138a565b9050919050565b7f526964646c652049442063616e6e6f74206265207a65726f00000000000000005f82015250565b5f6113fe60188361108a565b9150611409826113ca565b602082019050919050565b5f6020820190508181035f83015261142b816113f2565b9050919050565b7f5072697a6520746f6b656e20616464726573732063616e6e6f74206265207a655f8201527f726f000000000000000000000000000000000000000000000000000000000000602082015250565b5f61148c60228361108a565b915061149782611432565b604082019050919050565b5f6020820190508181035f8301526114b981611480565b9050919050565b5f6040820190506114d35f830185610fd2565b6114e06020830184610f39565b9392505050565b7f4465706f73697420616d6f756e74206d757374206265206772656174657220745f8201527f68616e207a65726f000000000000000000000000000000000000000000000000602082015250565b5f61154160288361108a565b915061154c826114e7565b604082019050919050565b5f6020820190508181035f83015261156e81611535565b9050919050565b7f416c72656164792070617274696369706174656420696e2074686973207269645f8201527f646c650000000000000000000000000000000000000000000000000000000000602082015250565b5f6115cf60238361108a565b91506115da82611575565b604082019050919050565b5f6020820190508181035f8301526115fc816115c3565b9050919050565b5f61160d82610e30565b915061161883610e30565b92508282019050808211156116305761162f611016565b5b9291505056fea264697066735822122024611a8c149253a0d4e528866bea952a1587994805adecc6f303ff3ce746876564736f6c634300081e0033","linkReferences":{}},"methodIdentifiers":{"balances(address)":"27e235e3","currentRiddleId()":"ecdc6c23","deposit()":"d0e30db0","hasParticipated(uint256,address)":"a34398a2","initializeNewRiddle()":"223b7d04","owner()":"8da5cb5b","ownerWithdraw(uint256)":"33f707d1","prizePool()":"719ce73e","renounceOwnership()":"715018a6","riddles(uint256)":"a544ece3","setRiddle(uint256,bytes32,address)":"84b97e8b","transferOwnership(address)":"f2fde38b","withdraw(uint256)":"2e1a7d4d"},"id":0}