{"abi":[{"type":"constructor","inputs":[{"name":"initialOwner","type":"address","internalType":"address"}],"stateMutability":"nonpayable"},{"type":"receive","stateMutability":"payable"},{"type":"function","name":"balances","inputs":[{"name":"","type":"address","internalType":"address"}],"outputs":[{"name":"","type":"uint256","internalType":"uint256"}],"stateMutability":"view"},{"type":"function","name":"currentRiddleId","inputs":[],"outputs":[{"name":"","type":"uint256","internalType":"uint256"}],"stateMutability":"view"},{"type":"function","name":"deposit","inputs":[],"outputs":[],"stateMutability":"payable"},{"type":"function","name":"enterGame","inputs":[{"name":"_riddleId","type":"uint256","internalType":"uint256"}],"outputs":[],"stateMutability":"nonpayable"},{"type":"function","name":"ethPrizePool","inputs":[],"outputs":[{"name":"","type":"uint256","internalType":"uint256"}],"stateMutability":"view"},{"type":"function","name":"fundTokenPrizePool","inputs":[{"name":"_amount","type":"uint256","internalType":"uint256"}],"outputs":[],"stateMutability":"nonpayable"},{"type":"function","name":"getPrizeToken","inputs":[],"outputs":[{"name":"","type":"address","internalType":"address"}],"stateMutability":"view"},{"type":"function","name":"hasClaimed","inputs":[{"name":"","type":"uint256","internalType":"uint256"},{"name":"","type":"address","internalType":"address"}],"outputs":[{"name":"","type":"bool","internalType":"bool"}],"stateMutability":"view"},{"type":"function","name":"hasParticipated","inputs":[{"name":"","type":"uint256","internalType":"uint256"},{"name":"","type":"address","internalType":"address"}],"outputs":[{"name":"","type":"bool","internalType":"bool"}],"stateMutability":"view"},{"type":"function","name":"owner","inputs":[],"outputs":[{"name":"","type":"address","internalType":"address"}],"stateMutability":"view"},{"type":"function","name":"ownerWithdraw","inputs":[{"name":"_amount","type":"uint256","internalType":"uint256"}],"outputs":[],"stateMutability":"nonpayable"},{"type":"function","name":"prizeAmount","inputs":[],"outputs":[{"name":"","type":"uint256","internalType":"uint256"}],"stateMutability":"view"},{"type":"function","name":"prizeToken","inputs":[],"outputs":[{"name":"","type":"address","internalType":"contract IERC20"}],"stateMutability":"view"},{"type":"function","name":"prizeType","inputs":[],"outputs":[{"name":"","type":"uint8","internalType":"enum Vaultis.PrizeType"}],"stateMutability":"view"},{"type":"function","name":"renounceOwnership","inputs":[],"outputs":[],"stateMutability":"nonpayable"},{"type":"function","name":"setRiddle","inputs":[{"name":"_riddleId","type":"uint256","internalType":"uint256"},{"name":"_answerHash","type":"bytes32","internalType":"bytes32"},{"name":"_prizeType","type":"uint8","internalType":"enum Vaultis.PrizeType"},{"name":"_prizeTokenAddress","type":"address","internalType":"address"},{"name":"_prizeAmount","type":"uint256","internalType":"uint256"}],"outputs":[],"stateMutability":"nonpayable"},{"type":"function","name":"solveRiddleAndClaim","inputs":[{"name":"_answer","type":"string","internalType":"string"}],"outputs":[],"stateMutability":"nonpayable"},{"type":"function","name":"tokenPrizePool","inputs":[],"outputs":[{"name":"","type":"uint256","internalType":"uint256"}],"stateMutability":"view"},{"type":"function","name":"transferOwnership","inputs":[{"name":"newOwner","type":"address","internalType":"address"}],"outputs":[],"stateMutability":"nonpayable"},{"type":"function","name":"withdraw","inputs":[{"name":"_amount","type":"uint256","internalType":"uint256"}],"outputs":[],"stateMutability":"nonpayable"},{"type":"event","name":"Deposit","inputs":[{"name":"user","type":"address","indexed":true,"internalType":"address"},{"name":"amount","type":"uint256","indexed":false,"internalType":"uint256"}],"anonymous":false},{"type":"event","name":"EthReceived","inputs":[{"name":"sender","type":"address","indexed":true,"internalType":"address"},{"name":"amount","type":"uint256","indexed":false,"internalType":"uint256"}],"anonymous":false},{"type":"event","name":"OwnerWithdrawal","inputs":[{"name":"owner","type":"address","indexed":true,"internalType":"address"},{"name":"amount","type":"uint256","indexed":false,"internalType":"uint256"}],"anonymous":false},{"type":"event","name":"OwnershipTransferred","inputs":[{"name":"previousOwner","type":"address","indexed":true,"internalType":"address"},{"name":"newOwner","type":"address","indexed":true,"internalType":"address"}],"anonymous":false},{"type":"event","name":"PrizeDistributed","inputs":[{"name":"winner","type":"address","indexed":true,"internalType":"address"},{"name":"amount","type":"uint256","indexed":false,"internalType":"uint256"},{"name":"prizeType","type":"uint8","indexed":false,"internalType":"enum Vaultis.PrizeType"}],"anonymous":false},{"type":"event","name":"PrizeFunded","inputs":[{"name":"funder","type":"address","indexed":true,"internalType":"address"},{"name":"amount","type":"uint256","indexed":false,"internalType":"uint256"},{"name":"prizeType","type":"uint8","indexed":false,"internalType":"enum Vaultis.PrizeType"}],"anonymous":false},{"type":"event","name":"RiddleSet","inputs":[{"name":"riddleId","type":"uint256","indexed":true,"internalType":"uint256"},{"name":"answerHash","type":"bytes32","indexed":false,"internalType":"bytes32"},{"name":"prizeType","type":"uint8","indexed":false,"internalType":"enum Vaultis.PrizeType"},{"name":"prizeTokenAddress","type":"address","indexed":false,"internalType":"address"},{"name":"prizeAmount","type":"uint256","indexed":false,"internalType":"uint256"}],"anonymous":false},{"type":"event","name":"Withdrawal","inputs":[{"name":"user","type":"address","indexed":true,"internalType":"address"},{"name":"amount","type":"uint256","indexed":false,"internalType":"uint256"}],"anonymous":false},{"type":"error","name":"OwnableInvalidOwner","inputs":[{"name":"owner","type":"address","internalType":"address"}]},{"type":"error","name":"OwnableUnauthorizedAccount","inputs":[{"name":"account","type":"address","internalType":"address"}]},{"type":"error","name":"ReentrancyGuardReentrantCall","inputs":[]},{"type":"error","name":"SafeERC20FailedOperation","inputs":[{"name":"token","type":"address","internalType":"address"}]}],"bytecode":{"object":"0x608060405234801561000f575f5ffd5b5060405161337e38038061337e833981810160405281019061003191906101de565b805f73ffffffffffffffffffffffffffffffffffffffff168173ffffffffffffffffffffffffffffffffffffffff16036100a2575f6040517f1e4fbdf70000000000000000000000000000000000000000000000000000000081526004016100999190610218565b60405180910390fd5b6100b1816100bf60201b60201c565b506001808190555050610231565b5f5f5f9054906101000a900473ffffffffffffffffffffffffffffffffffffffff169050815f5f6101000a81548173ffffffffffffffffffffffffffffffffffffffff021916908373ffffffffffffffffffffffffffffffffffffffff1602179055508173ffffffffffffffffffffffffffffffffffffffff168173ffffffffffffffffffffffffffffffffffffffff167f8be0079c531659141344cd1fd0a4f28419497f9722a3daafe3b4186f6b6457e060405160405180910390a35050565b5f5ffd5b5f73ffffffffffffffffffffffffffffffffffffffff82169050919050565b5f6101ad82610184565b9050919050565b6101bd816101a3565b81146101c7575f5ffd5b50565b5f815190506101d8816101b4565b92915050565b5f602082840312156101f3576101f2610180565b5b5f610200848285016101ca565b91505092915050565b610212816101a3565b82525050565b5f60208201905061022b5f830184610209565b92915050565b6131408061023e5f395ff3fe608060405260043610610122575f3560e01c8063a34398a21161009f578063dc663b5311610063578063dc663b5314610445578063ec8a7ee71461046d578063ecdc6c2314610495578063f2fde38b146104bf578063fcdf8e89146104e7576101d1565b8063a34398a214610381578063c310e242146103bd578063c7cd6959146103e7578063d0e30db014610411578063d0ef024a1461041b576101d1565b8063715018a6116100e6578063715018a6146102b1578063785fa627146102c7578063873f6f9e146102f15780638da5cb5b1461032d57806395664a3d14610357576101d1565b806327e235e3146101d55780632e1a7d4d1461021157806333f707d11461023957806343d6582b1461026157806348b06e8714610289576101d1565b366101d1575f3411610169576040517f08c379a000000000000000000000000000000000000000000000000000000000815260040161016090611d3d565b60405180910390fd5b3460045f82825461017a9190611d91565b925050819055503373ffffffffffffffffffffffffffffffffffffffff167f85177f287940f2f05425a4029951af0e047a7f9c4eaa9a6e6917bcd869f86695346040516101c79190611dd3565b60405180910390a2005b5f5ffd5b3480156101e0575f5ffd5b506101fb60048036038101906101f69190611e4e565b610511565b6040516102089190611dd3565b60405180910390f35b34801561021c575f5ffd5b5061023760048036038101906102329190611ea3565b610526565b005b348015610244575f5ffd5b5061025f600480360381019061025a9190611ea3565b610745565b005b34801561026c575f5ffd5b5061028760048036038101906102829190611ea3565b6108f0565b005b348015610294575f5ffd5b506102af60048036038101906102aa9190611ea3565b610a88565b005b3480156102bc575f5ffd5b506102c5610c9f565b005b3480156102d2575f5ffd5b506102db610cb2565b6040516102e89190611dd3565b60405180910390f35b3480156102fc575f5ffd5b5061031760048036038101906103129190611ece565b610cb8565b6040516103249190611f26565b60405180910390f35b348015610338575f5ffd5b50610341610ce2565b60405161034e9190611f4e565b60405180910390f35b348015610362575f5ffd5b5061036b610d09565b6040516103789190611dd3565b60405180910390f35b34801561038c575f5ffd5b506103a760048036038101906103a29190611ece565b610d0f565b6040516103b49190611f26565b60405180910390f35b3480156103c8575f5ffd5b506103d1610d39565b6040516103de9190611dd3565b60405180910390f35b3480156103f2575f5ffd5b506103fb610d3f565b6040516104089190611f4e565b60405180910390f35b610419610d67565b005b348015610426575f5ffd5b5061042f610e5c565b60405161043c9190611fc2565b60405180910390f35b348015610450575f5ffd5b5061046b6004803603810190610466919061203c565b610e81565b005b348015610478575f5ffd5b50610493600480360381019061048e91906120dd565b6110ec565b005b3480156104a0575f5ffd5b506104a96114db565b6040516104b69190611dd3565b60405180910390f35b3480156104ca575f5ffd5b506104e560048036038101906104e09190611e4e565b6114e1565b005b3480156104f2575f5ffd5b506104fb611565565b60405161050891906121c7565b60405180910390f35b6002602052805f5260405f205f915090505481565b61052e611577565b5f8111610570576040517f08c379a000000000000000000000000000000000000000000000000000000000815260040161056790612250565b60405180910390fd5b8060025f3373ffffffffffffffffffffffffffffffffffffffff1673ffffffffffffffffffffffffffffffffffffffff1681526020019081526020015f205410156105f0576040517f08c379a00000000000000000000000000000000000000000000000000000000081526004016105e7906122b8565b60405180910390fd5b8060025f3373ffffffffffffffffffffffffffffffffffffffff1673ffffffffffffffffffffffffffffffffffffffff1681526020019081526020015f205f82825461063c91906122d6565b925050819055505f3373ffffffffffffffffffffffffffffffffffffffff168260405161066890612336565b5f6040518083038185875af1925050503d805f81146106a2576040519150601f19603f3d011682016040523d82523d5f602084013e6106a7565b606091505b50509050806106eb576040517f08c379a00000000000000000000000000000000000000000000000000000000081526004016106e290612394565b60405180910390fd5b3373ffffffffffffffffffffffffffffffffffffffff167f7fcf532c15f0a6db0bd6d0e038bea71d30d808c7d98cb3bf7268a95bf5081b65836040516107319190611dd3565b60405180910390a2506107426115bd565b50565b61074d6115c6565b610755611577565b5f8111610797576040517f08c379a000000000000000000000000000000000000000000000000000000000815260040161078e90612422565b60405180910390fd5b804710156107da576040517f08c379a00000000000000000000000000000000000000000000000000000000081526004016107d19061248a565b60405180910390fd5b5f6107e3610ce2565b73ffffffffffffffffffffffffffffffffffffffff168262030d409060405161080b90612336565b5f60405180830381858888f193505050503d805f8114610846576040519150601f19603f3d011682016040523d82523d5f602084013e61084b565b606091505b505090508061088f576040517f08c379a0000000000000000000000000000000000000000000000000000000008152600401610886906124f2565b60405180910390fd5b610897610ce2565b73ffffffffffffffffffffffffffffffffffffffff167fa919fadcfa556a012bab31b15f596ea7ccd397adbf10e15f176db9055ab361c4836040516108dc9190611dd3565b60405180910390a2506108ed6115bd565b50565b6108f8611577565b600354811461093c576040517f08c379a00000000000000000000000000000000000000000000000000000000081526004016109339061255a565b60405180910390fd5b5f60035411610980576040517f08c379a0000000000000000000000000000000000000000000000000000000008152600401610977906125c2565b60405180910390fd5b60095f8281526020019081526020015f205f3373ffffffffffffffffffffffffffffffffffffffff1673ffffffffffffffffffffffffffffffffffffffff1681526020019081526020015f205f9054906101000a900460ff1615610a19576040517f08c379a0000000000000000000000000000000000000000000000000000000008152600401610a1090612650565b60405180910390fd5b600160095f8381526020019081526020015f205f3373ffffffffffffffffffffffffffffffffffffffff1673ffffffffffffffffffffffffffffffffffffffff1681526020019081526020015f205f6101000a81548160ff021916908315150217905550610a856115bd565b50565b610a906115c6565b610a98611577565b5f8111610ada576040517f08c379a0000000000000000000000000000000000000000000000000000000008152600401610ad1906126b8565b60405180910390fd5b600180811115610aed57610aec612154565b5b60085f9054906101000a900460ff166001811115610b0e57610b0d612154565b5b14610b4e576040517f08c379a0000000000000000000000000000000000000000000000000000000008152600401610b4590612746565b60405180910390fd5b5f73ffffffffffffffffffffffffffffffffffffffff1660055f9054906101000a900473ffffffffffffffffffffffffffffffffffffffff1673ffffffffffffffffffffffffffffffffffffffff1603610bdd576040517f08c379a0000000000000000000000000000000000000000000000000000000008152600401610bd4906127ae565b60405180910390fd5b610c2b33308360055f9054906101000a900473ffffffffffffffffffffffffffffffffffffffff1673ffffffffffffffffffffffffffffffffffffffff1661164d909392919063ffffffff16565b8060065f828254610c3c9190611d91565b925050819055503373ffffffffffffffffffffffffffffffffffffffff167f4708e702157b1eb6cd00a772e6a623599ac7dc0bad76e8c624fdef050b434f09826001604051610c8c9291906127cc565b60405180910390a2610c9c6115bd565b50565b610ca76115c6565b610cb05f6116cf565b565b60075481565b600a602052815f5260405f20602052805f5260405f205f915091509054906101000a900460ff1681565b5f5f5f9054906101000a900473ffffffffffffffffffffffffffffffffffffffff16905090565b60045481565b6009602052815f5260405f20602052805f5260405f205f915091509054906101000a900460ff1681565b60065481565b5f60055f9054906101000a900473ffffffffffffffffffffffffffffffffffffffff16905090565b610d6f611577565b5f3411610db1576040517f08c379a0000000000000000000000000000000000000000000000000000000008152600401610da890612863565b60405180910390fd5b3460025f3373ffffffffffffffffffffffffffffffffffffffff1673ffffffffffffffffffffffffffffffffffffffff1681526020019081526020015f205f828254610dfd9190611d91565b925050819055503373ffffffffffffffffffffffffffffffffffffffff167fe1fffcc4923d04b559f4d29a8bfc6cda04eb5b0d3c460751c2402c5c5cc9109c34604051610e4a9190611dd3565b60405180910390a2610e5a6115bd565b565b60055f9054906101000a900473ffffffffffffffffffffffffffffffffffffffff1681565b610e89611577565b5f60035411610ecd576040517f08c379a0000000000000000000000000000000000000000000000000000000008152600401610ec4906125c2565b60405180910390fd5b60095f60035481526020019081526020015f205f3373ffffffffffffffffffffffffffffffffffffffff1673ffffffffffffffffffffffffffffffffffffffff1681526020019081526020015f205f9054906101000a900460ff16610f67576040517f08c379a0000000000000000000000000000000000000000000000000000000008152600401610f5e906128cb565b60405180910390fd5b600a5f60035481526020019081526020015f205f3373ffffffffffffffffffffffffffffffffffffffff1673ffffffffffffffffffffffffffffffffffffffff1681526020019081526020015f205f9054906101000a900460ff1615611002576040517f08c379a0000000000000000000000000000000000000000000000000000000008152600401610ff990612933565b60405180910390fd5b600b54828260405160200161101892919061298d565b604051602081830303815290604052805190602001201461106e576040517f08c379a0000000000000000000000000000000000000000000000000000000008152600401611065906129ef565b60405180910390fd5b6001600a5f60035481526020019081526020015f205f3373ffffffffffffffffffffffffffffffffffffffff1673ffffffffffffffffffffffffffffffffffffffff1681526020019081526020015f205f6101000a81548160ff0219169083151502179055506110e033600754611790565b6110e86115bd565b5050565b6110f46115c6565b5f8511611136576040517f08c379a000000000000000000000000000000000000000000000000000000000815260040161112d90612a57565b60405180910390fd5b600354851161117a576040517f08c379a000000000000000000000000000000000000000000000000000000000815260040161117190612ae5565b60405180910390fd5b5f81116111bc576040517f08c379a00000000000000000000000000000000000000000000000000000000081526004016111b390612b73565b60405180910390fd5b6001808111156111cf576111ce612154565b5b8360018111156111e2576111e1612154565b5b0361139b575f73ffffffffffffffffffffffffffffffffffffffff168273ffffffffffffffffffffffffffffffffffffffff1603611255576040517f08c379a000000000000000000000000000000000000000000000000000000000815260040161124c90612c01565b60405180910390fd5b5f8273ffffffffffffffffffffffffffffffffffffffff163b116112ae576040517f08c379a00000000000000000000000000000000000000000000000000000000081526004016112a590612c69565b60405180910390fd5b8173ffffffffffffffffffffffffffffffffffffffff166318160ddd6040518163ffffffff1660e01b8152600401602060405180830381865afa92505050801561131657506040513d601f19601f820116820180604052508101906113139190612c9b565b60015b611355576040517f08c379a000000000000000000000000000000000000000000000000000000000815260040161134c90612d36565b60405180910390fd5b508160055f6101000a81548173ffffffffffffffffffffffffffffffffffffffff021916908373ffffffffffffffffffffffffffffffffffffffff16021790555061144a565b5f73ffffffffffffffffffffffffffffffffffffffff168273ffffffffffffffffffffffffffffffffffffffff1614611409576040517f08c379a000000000000000000000000000000000000000000000000000000000815260040161140090612dc4565b60405180910390fd5b5f60055f6101000a81548173ffffffffffffffffffffffffffffffffffffffff021916908373ffffffffffffffffffffffffffffffffffffffff1602179055505b8460038190555083600b819055508260085f6101000a81548160ff0219169083600181111561147c5761147b612154565b5b0217905550806007819055505f6004819055505f600681905550847f561736c7b0f78dbf7fff40b2f20427c4c56eb12ae7e94a8dac6a3a7925ae37fd858585856040516114cc9493929190612df1565b60405180910390a25050505050565b60035481565b6114e96115c6565b5f73ffffffffffffffffffffffffffffffffffffffff168173ffffffffffffffffffffffffffffffffffffffff1603611559575f6040517f1e4fbdf70000000000000000000000000000000000000000000000000000000081526004016115509190611f4e565b60405180910390fd5b611562816116cf565b50565b60085f9054906101000a900460ff1681565b6002600154036115b3576040517f3ee5aeb500000000000000000000000000000000000000000000000000000000815260040160405180910390fd5b6002600181905550565b60018081905550565b6115ce611b9c565b73ffffffffffffffffffffffffffffffffffffffff166115ec610ce2565b73ffffffffffffffffffffffffffffffffffffffff161461164b5761160f611b9c565b6040517f118cdaa70000000000000000000000000000000000000000000000000000000081526004016116429190611f4e565b60405180910390fd5b565b6116c9848573ffffffffffffffffffffffffffffffffffffffff166323b872dd86868660405160240161168293929190612e34565b604051602081830303815290604052915060e01b6020820180517bffffffffffffffffffffffffffffffffffffffffffffffffffffffff8381831617835250505050611ba3565b50505050565b5f5f5f9054906101000a900473ffffffffffffffffffffffffffffffffffffffff169050815f5f6101000a81548173ffffffffffffffffffffffffffffffffffffffff021916908373ffffffffffffffffffffffffffffffffffffffff1602179055508173ffffffffffffffffffffffffffffffffffffffff168173ffffffffffffffffffffffffffffffffffffffff167f8be0079c531659141344cd1fd0a4f28419497f9722a3daafe3b4186f6b6457e060405160405180910390a35050565b5f73ffffffffffffffffffffffffffffffffffffffff168273ffffffffffffffffffffffffffffffffffffffff16036117fe576040517f08c379a00000000000000000000000000000000000000000000000000000000081526004016117f590612eb3565b60405180910390fd5b5f8111611840576040517f08c379a000000000000000000000000000000000000000000000000000000000815260040161183790612b73565b60405180910390fd5b5f600181111561185357611852612154565b5b60085f9054906101000a900460ff16600181111561187457611873612154565b5b036119c7578060045410156118be576040517f08c379a00000000000000000000000000000000000000000000000000000000081526004016118b590612f41565b60405180910390fd5b80471015611901576040517f08c379a00000000000000000000000000000000000000000000000000000000081526004016118f890612fcf565b60405180910390fd5b8060045f82825461191291906122d6565b925050819055505f8273ffffffffffffffffffffffffffffffffffffffff168260405161193e90612336565b5f6040518083038185875af1925050503d805f8114611978576040519150601f19603f3d011682016040523d82523d5f602084013e61197d565b606091505b50509050806119c1576040517f08c379a00000000000000000000000000000000000000000000000000000000081526004016119b890613037565b60405180910390fd5b50611b3a565b6001808111156119da576119d9612154565b5b60085f9054906101000a900460ff1660018111156119fb576119fa612154565b5b03611b39575f73ffffffffffffffffffffffffffffffffffffffff1660055f9054906101000a900473ffffffffffffffffffffffffffffffffffffffff1673ffffffffffffffffffffffffffffffffffffffff1603611a8f576040517f08c379a0000000000000000000000000000000000000000000000000000000008152600401611a86906127ae565b60405180910390fd5b806006541015611ad4576040517f08c379a0000000000000000000000000000000000000000000000000000000008152600401611acb906130c5565b60405180910390fd5b8060065f828254611ae591906122d6565b92505081905550611b38828260055f9054906101000a900473ffffffffffffffffffffffffffffffffffffffff1673ffffffffffffffffffffffffffffffffffffffff16611c3e9092919063ffffffff16565b5b5b8173ffffffffffffffffffffffffffffffffffffffff167fff43c2705b2225c1c9d9d58f088ab64d4fc767737dee523bed37f15fb0c6c3de8260085f9054906101000a900460ff16604051611b909291906127cc565b60405180910390a25050565b5f33905090565b5f5f60205f8451602086015f885af180611bc2576040513d5f823e3d81fd5b3d92505f519150505f8214611bdb576001811415611bf6565b5f8473ffffffffffffffffffffffffffffffffffffffff163b145b15611c3857836040517f5274afe7000000000000000000000000000000000000000000000000000000008152600401611c2f9190611f4e565b60405180910390fd5b50505050565b611cb8838473ffffffffffffffffffffffffffffffffffffffff1663a9059cbb8585604051602401611c719291906130e3565b604051602081830303815290604052915060e01b6020820180517bffffffffffffffffffffffffffffffffffffffffffffffffffffffff8381831617835250505050611ba3565b505050565b5f82825260208201905092915050565b7f45544820616d6f756e74206d7573742062652067726561746572207468616e205f8201527f7a65726f00000000000000000000000000000000000000000000000000000000602082015250565b5f611d27602483611cbd565b9150611d3282611ccd565b604082019050919050565b5f6020820190508181035f830152611d5481611d1b565b9050919050565b5f819050919050565b7f4e487b71000000000000000000000000000000000000000000000000000000005f52601160045260245ffd5b5f611d9b82611d5b565b9150611da683611d5b565b9250828201905080821115611dbe57611dbd611d64565b5b92915050565b611dcd81611d5b565b82525050565b5f602082019050611de65f830184611dc4565b92915050565b5f5ffd5b5f5ffd5b5f73ffffffffffffffffffffffffffffffffffffffff82169050919050565b5f611e1d82611df4565b9050919050565b611e2d81611e13565b8114611e37575f5ffd5b50565b5f81359050611e4881611e24565b92915050565b5f60208284031215611e6357611e62611dec565b5b5f611e7084828501611e3a565b91505092915050565b611e8281611d5b565b8114611e8c575f5ffd5b50565b5f81359050611e9d81611e79565b92915050565b5f60208284031215611eb857611eb7611dec565b5b5f611ec584828501611e8f565b91505092915050565b5f5f60408385031215611ee457611ee3611dec565b5b5f611ef185828601611e8f565b9250506020611f0285828601611e3a565b9150509250929050565b5f8115159050919050565b611f2081611f0c565b82525050565b5f602082019050611f395f830184611f17565b92915050565b611f4881611e13565b82525050565b5f602082019050611f615f830184611f3f565b92915050565b5f819050919050565b5f611f8a611f85611f8084611df4565b611f67565b611df4565b9050919050565b5f611f9b82611f70565b9050919050565b5f611fac82611f91565b9050919050565b611fbc81611fa2565b82525050565b5f602082019050611fd55f830184611fb3565b92915050565b5f5ffd5b5f5ffd5b5f5ffd5b5f5f83601f840112611ffc57611ffb611fdb565b5b8235905067ffffffffffffffff81111561201957612018611fdf565b5b60208301915083600182028301111561203557612034611fe3565b5b9250929050565b5f5f6020838503121561205257612051611dec565b5b5f83013567ffffffffffffffff81111561206f5761206e611df0565b5b61207b85828601611fe7565b92509250509250929050565b5f819050919050565b61209981612087565b81146120a3575f5ffd5b50565b5f813590506120b481612090565b92915050565b600281106120c6575f5ffd5b50565b5f813590506120d7816120ba565b92915050565b5f5f5f5f5f60a086880312156120f6576120f5611dec565b5b5f61210388828901611e8f565b9550506020612114888289016120a6565b9450506040612125888289016120c9565b935050606061213688828901611e3a565b925050608061214788828901611e8f565b9150509295509295909350565b7f4e487b71000000000000000000000000000000000000000000000000000000005f52602160045260245ffd5b6002811061219257612191612154565b5b50565b5f8190506121a282612181565b919050565b5f6121b182612195565b9050919050565b6121c1816121a7565b82525050565b5f6020820190506121da5f8301846121b8565b92915050565b7f5769746864726177616c20616d6f756e74206d757374206265206772656174655f8201527f72207468616e207a65726f000000000000000000000000000000000000000000602082015250565b5f61223a602b83611cbd565b9150612245826121e0565b604082019050919050565b5f6020820190508181035f8301526122678161222e565b9050919050565b7f496e73756666696369656e742062616c616e63650000000000000000000000005f82015250565b5f6122a2601483611cbd565b91506122ad8261226e565b602082019050919050565b5f6020820190508181035f8301526122cf81612296565b9050919050565b5f6122e082611d5b565b91506122eb83611d5b565b925082820390508181111561230357612302611d64565b5b92915050565b5f81905092915050565b50565b5f6123215f83612309565b915061232c82612313565b5f82019050919050565b5f61234082612316565b9150819050919050565b7f5769746864726177616c206661696c65640000000000000000000000000000005f82015250565b5f61237e601183611cbd565b91506123898261234a565b602082019050919050565b5f6020820190508181035f8301526123ab81612372565b9050919050565b7f4f776e6572207769746864726177616c20616d6f756e74206d757374206265205f8201527f67726561746572207468616e207a65726f000000000000000000000000000000602082015250565b5f61240c603183611cbd565b9150612417826123b2565b604082019050919050565b5f6020820190508181035f83015261243981612400565b9050919050565b7f496e73756666696369656e7420636f6e74726163742062616c616e63650000005f82015250565b5f612474601d83611cbd565b915061247f82612440565b602082019050919050565b5f6020820190508181035f8301526124a181612468565b9050919050565b7f4f776e6572207769746864726177616c206661696c65640000000000000000005f82015250565b5f6124dc601783611cbd565b91506124e7826124a8565b602082019050919050565b5f6020820190508181035f830152612509816124d0565b9050919050565b7f4e6f74207468652061637469766520726964646c6520494400000000000000005f82015250565b5f612544601883611cbd565b915061254f82612510565b602082019050919050565b5f6020820190508181035f83015261257181612538565b9050919050565b7f4e6f2061637469766520726964646c65000000000000000000000000000000005f82015250565b5f6125ac601083611cbd565b91506125b782612578565b602082019050919050565b5f6020820190508181035f8301526125d9816125a0565b9050919050565b7f416c72656164792070617274696369706174656420696e2074686973207269645f8201527f646c650000000000000000000000000000000000000000000000000000000000602082015250565b5f61263a602383611cbd565b9150612645826125e0565b604082019050919050565b5f6020820190508181035f8301526126678161262e565b9050919050565b7f416d6f756e74206d7573742062652067726561746572207468616e207a65726f5f82015250565b5f6126a2602083611cbd565b91506126ad8261266e565b602082019050919050565b5f6020820190508181035f8301526126cf81612696565b9050919050565b7f43757272656e7420726964646c65207072697a65206973206e6f7420455243325f8201527f3000000000000000000000000000000000000000000000000000000000000000602082015250565b5f612730602183611cbd565b915061273b826126d6565b604082019050919050565b5f6020820190508181035f83015261275d81612724565b9050919050565b7f5072697a6520746f6b656e206e6f7420736574000000000000000000000000005f82015250565b5f612798601383611cbd565b91506127a382612764565b602082019050919050565b5f6020820190508181035f8301526127c58161278c565b9050919050565b5f6040820190506127df5f830185611dc4565b6127ec60208301846121b8565b9392505050565b7f4465706f73697420616d6f756e74206d757374206265206772656174657220745f8201527f68616e207a65726f000000000000000000000000000000000000000000000000602082015250565b5f61284d602883611cbd565b9150612858826127f3565b604082019050919050565b5f6020820190508181035f83015261287a81612841565b9050919050565b7f4d75737420656e746572207468652067616d65206669727374000000000000005f82015250565b5f6128b5601983611cbd565b91506128c082612881565b602082019050919050565b5f6020820190508181035f8301526128e2816128a9565b9050919050565b7f416c726561647920636c61696d656400000000000000000000000000000000005f82015250565b5f61291d600f83611cbd565b9150612928826128e9565b602082019050919050565b5f6020820190508181035f83015261294a81612911565b9050919050565b5f81905092915050565b828183375f83830152505050565b5f6129748385612951565b935061298183858461295b565b82840190509392505050565b5f612999828486612969565b91508190509392505050565b7f496e636f727265637420616e73776572000000000000000000000000000000005f82015250565b5f6129d9601083611cbd565b91506129e4826129a5565b602082019050919050565b5f6020820190508181035f830152612a06816129cd565b9050919050565b7f526964646c652049442063616e6e6f74206265207a65726f00000000000000005f82015250565b5f612a41601883611cbd565b9150612a4c82612a0d565b602082019050919050565b5f6020820190508181035f830152612a6e81612a35565b9050919050565b7f526964646c65204944206d7573742062652067726561746572207468616e20635f8201527f757272656e740000000000000000000000000000000000000000000000000000602082015250565b5f612acf602683611cbd565b9150612ada82612a75565b604082019050919050565b5f6020820190508181035f830152612afc81612ac3565b9050919050565b7f5072697a6520616d6f756e74206d7573742062652067726561746572207468615f8201527f6e207a65726f0000000000000000000000000000000000000000000000000000602082015250565b5f612b5d602683611cbd565b9150612b6882612b03565b604082019050919050565b5f6020820190508181035f830152612b8a81612b51565b9050919050565b7f5072697a6520746f6b656e20616464726573732063616e6e6f74206265207a655f8201527f726f20666f72204552433230207072697a650000000000000000000000000000602082015250565b5f612beb603283611cbd565b9150612bf682612b91565b604082019050919050565b5f6020820190508181035f830152612c1881612bdf565b9050919050565b7f5072697a6520746f6b656e20686173206e6f20636f6e747261637420636f64655f82015250565b5f612c53602083611cbd565b9150612c5e82612c1f565b602082019050919050565b5f6020820190508181035f830152612c8081612c47565b9050919050565b5f81519050612c9581611e79565b92915050565b5f60208284031215612cb057612caf611dec565b5b5f612cbd84828501612c87565b91505092915050565b7f496e76616c6964204552432d323020746f6b656e3a20746f74616c537570706c5f8201527f792063616c6c206661696c656400000000000000000000000000000000000000602082015250565b5f612d20602d83611cbd565b9150612d2b82612cc6565b604082019050919050565b5f6020820190508181035f830152612d4d81612d14565b9050919050565b7f5072697a6520746f6b656e2061646472657373206d757374206265207a65726f5f8201527f20666f7220455448207072697a65000000000000000000000000000000000000602082015250565b5f612dae602e83611cbd565b9150612db982612d54565b604082019050919050565b5f6020820190508181035f830152612ddb81612da2565b9050919050565b612deb81612087565b82525050565b5f608082019050612e045f830187612de2565b612e1160208301866121b8565b612e1e6040830185611f3f565b612e2b6060830184611dc4565b95945050505050565b5f606082019050612e475f830186611f3f565b612e546020830185611f3f565b612e616040830184611dc4565b949350505050565b7f57696e6e657220616464726573732063616e6e6f74206265207a65726f0000005f82015250565b5f612e9d601d83611cbd565b9150612ea882612e69565b602082019050919050565b5f6020820190508181035f830152612eca81612e91565b9050919050565b7f496e73756666696369656e7420455448207072697a6520706f6f6c2062616c615f8201527f6e63650000000000000000000000000000000000000000000000000000000000602082015250565b5f612f2b602383611cbd565b9150612f3682612ed1565b604082019050919050565b5f6020820190508181035f830152612f5881612f1f565b9050919050565b7f496e73756666696369656e7420636f6e7472616374204554482062616c616e635f8201527f6500000000000000000000000000000000000000000000000000000000000000602082015250565b5f612fb9602183611cbd565b9150612fc482612f5f565b604082019050919050565b5f6020820190508181035f830152612fe681612fad565b9050919050565b7f455448207472616e73666572206661696c6564000000000000000000000000005f82015250565b5f613021601383611cbd565b915061302c82612fed565b602082019050919050565b5f6020820190508181035f83015261304e81613015565b9050919050565b7f496e73756666696369656e74204552433230207072697a6520706f6f6c2062615f8201527f6c616e6365000000000000000000000000000000000000000000000000000000602082015250565b5f6130af602583611cbd565b91506130ba82613055565b604082019050919050565b5f6020820190508181035f8301526130dc816130a3565b9050919050565b5f6040820190506130f65f830185611f3f565b6131036020830184611dc4565b939250505056fea26469706673582212200d21428efacb46fcc4b40881a3b508ddcaaaa5b24b6aae491b0ea0a7b62fef5464736f6c634300081e0033","linkReferences":{}},"methodIdentifiers":{"balances(address)":"27e235e3","currentRiddleId()":"ecdc6c23","deposit()":"d0e30db0","enterGame(uint256)":"43d6582b","ethPrizePool()":"95664a3d","fundTokenPrizePool(uint256)":"48b06e87","getPrizeToken()":"c7cd6959","hasClaimed(uint256,address)":"873f6f9e","hasParticipated(uint256,address)":"a34398a2","owner()":"8da5cb5b","ownerWithdraw(uint256)":"33f707d1","prizeAmount()":"785fa627","prizeToken()":"d0ef024a","prizeType()":"fcdf8e89","renounceOwnership()":"715018a6","setRiddle(uint256,bytes32,uint8,address,uint256)":"ec8a7ee7","solveRiddleAndClaim(string)":"dc663b53","tokenPrizePool()":"c310e242","transferOwnership(address)":"f2fde38b","withdraw(uint256)":"2e1a7d4d"},"id":1}