{"abi":[{"type":"constructor","inputs":[{"name":"initialOwner","type":"address","internalType":"address"},{"name":"_retryTokenAddress","type":"address","internalType":"address"}],"stateMutability":"nonpayable"},{"type":"receive","stateMutability":"payable"},{"type":"function","name":"ENTRY_FEE","inputs":[],"outputs":[{"name":"","type":"uint256","internalType":"uint256"}],"stateMutability":"view"},{"type":"function","name":"RETRY_COST","inputs":[],"outputs":[{"name":"","type":"uint256","internalType":"uint256"}],"stateMutability":"view"},{"type":"function","name":"balances","inputs":[{"name":"","type":"address","internalType":"address"}],"outputs":[{"name":"","type":"uint256","internalType":"uint256"}],"stateMutability":"view"},{"type":"function","name":"committedAt","inputs":[{"name":"","type":"uint256","internalType":"uint256"},{"name":"","type":"address","internalType":"address"}],"outputs":[{"name":"","type":"uint256","internalType":"uint256"}],"stateMutability":"view"},{"type":"function","name":"committedGuesses","inputs":[{"name":"","type":"uint256","internalType":"uint256"},{"name":"","type":"address","internalType":"address"}],"outputs":[{"name":"","type":"bytes32","internalType":"bytes32"}],"stateMutability":"view"},{"type":"function","name":"currentRiddleId","inputs":[],"outputs":[{"name":"","type":"uint256","internalType":"uint256"}],"stateMutability":"view"},{"type":"function","name":"deposit","inputs":[],"outputs":[],"stateMutability":"payable"},{"type":"function","name":"enterGame","inputs":[{"name":"_riddleId","type":"uint256","internalType":"uint256"}],"outputs":[],"stateMutability":"nonpayable"},{"type":"function","name":"entryFeeToken","inputs":[],"outputs":[{"name":"","type":"address","internalType":"contract IERC20"}],"stateMutability":"view"},{"type":"function","name":"ethPrizePool","inputs":[],"outputs":[{"name":"","type":"uint256","internalType":"uint256"}],"stateMutability":"view"},{"type":"function","name":"fundTokenPrizePool","inputs":[{"name":"_amount","type":"uint256","internalType":"uint256"}],"outputs":[],"stateMutability":"nonpayable"},{"type":"function","name":"getPrizeToken","inputs":[],"outputs":[{"name":"","type":"address","internalType":"address"}],"stateMutability":"view"},{"type":"function","name":"hasClaimed","inputs":[{"name":"","type":"uint256","internalType":"uint256"},{"name":"","type":"address","internalType":"address"}],"outputs":[{"name":"","type":"bool","internalType":"bool"}],"stateMutability":"view"},{"type":"function","name":"hasParticipated","inputs":[{"name":"","type":"uint256","internalType":"uint256"},{"name":"","type":"address","internalType":"address"}],"outputs":[{"name":"","type":"bool","internalType":"bool"}],"stateMutability":"view"},{"type":"function","name":"hasRevealed","inputs":[{"name":"","type":"uint256","internalType":"uint256"},{"name":"","type":"address","internalType":"address"}],"outputs":[{"name":"","type":"bool","internalType":"bool"}],"stateMutability":"view"},{"type":"function","name":"isWinner","inputs":[{"name":"","type":"uint256","internalType":"uint256"},{"name":"","type":"address","internalType":"address"}],"outputs":[{"name":"","type":"bool","internalType":"bool"}],"stateMutability":"view"},{"type":"function","name":"owner","inputs":[],"outputs":[{"name":"","type":"address","internalType":"address"}],"stateMutability":"view"},{"type":"function","name":"ownerWithdraw","inputs":[{"name":"_amount","type":"uint256","internalType":"uint256"}],"outputs":[],"stateMutability":"nonpayable"},{"type":"function","name":"ownerWithdrawTokens","inputs":[{"name":"_amount","type":"uint256","internalType":"uint256"}],"outputs":[],"stateMutability":"nonpayable"},{"type":"function","name":"playerRetries","inputs":[{"name":"","type":"uint256","internalType":"uint256"},{"name":"","type":"address","internalType":"address"}],"outputs":[{"name":"","type":"uint256","internalType":"uint256"}],"stateMutability":"view"},{"type":"function","name":"prizeAmount","inputs":[],"outputs":[{"name":"","type":"uint256","internalType":"uint256"}],"stateMutability":"view"},{"type":"function","name":"prizeToken","inputs":[],"outputs":[{"name":"","type":"address","internalType":"contract IERC20"}],"stateMutability":"view"},{"type":"function","name":"prizeType","inputs":[],"outputs":[{"name":"","type":"uint8","internalType":"enum Vaultis.PrizeType"}],"stateMutability":"view"},{"type":"function","name":"purchaseRetry","inputs":[{"name":"_riddleId","type":"uint256","internalType":"uint256"}],"outputs":[],"stateMutability":"nonpayable"},{"type":"function","name":"renounceOwnership","inputs":[],"outputs":[],"stateMutability":"nonpayable"},{"type":"function","name":"retryToken","inputs":[],"outputs":[{"name":"","type":"address","internalType":"contract IERC20"}],"stateMutability":"view"},{"type":"function","name":"revealDelay","inputs":[],"outputs":[{"name":"","type":"uint256","internalType":"uint256"}],"stateMutability":"view"},{"type":"function","name":"revealGuess","inputs":[{"name":"_riddleId","type":"uint256","internalType":"uint256"},{"name":"_guess","type":"string","internalType":"string"}],"outputs":[],"stateMutability":"nonpayable"},{"type":"function","name":"revealedGuessHash","inputs":[{"name":"","type":"uint256","internalType":"uint256"},{"name":"","type":"address","internalType":"address"}],"outputs":[{"name":"","type":"bytes32","internalType":"bytes32"}],"stateMutability":"view"},{"type":"function","name":"setRevealDelay","inputs":[{"name":"_newRevealDelay","type":"uint256","internalType":"uint256"}],"outputs":[],"stateMutability":"nonpayable"},{"type":"function","name":"setRiddle","inputs":[{"name":"_riddleId","type":"uint256","internalType":"uint256"},{"name":"_answerHash","type":"bytes32","internalType":"bytes32"},{"name":"_prizeType","type":"uint8","internalType":"enum Vaultis.PrizeType"},{"name":"_prizeTokenAddress","type":"address","internalType":"address"},{"name":"_prizeAmount","type":"uint256","internalType":"uint256"},{"name":"_entryFeeTokenAddress","type":"address","internalType":"address"}],"outputs":[],"stateMutability":"nonpayable"},{"type":"function","name":"solveRiddleAndClaim","inputs":[{"name":"_answer","type":"string","internalType":"string"}],"outputs":[],"stateMutability":"nonpayable"},{"type":"function","name":"submitGuess","inputs":[{"name":"_riddleId","type":"uint256","internalType":"uint256"},{"name":"_guessHash","type":"bytes32","internalType":"bytes32"}],"outputs":[],"stateMutability":"nonpayable"},{"type":"function","name":"tokenPrizePool","inputs":[],"outputs":[{"name":"","type":"uint256","internalType":"uint256"}],"stateMutability":"view"},{"type":"function","name":"transferOwnership","inputs":[{"name":"newOwner","type":"address","internalType":"address"}],"outputs":[],"stateMutability":"nonpayable"},{"type":"function","name":"winners","inputs":[{"name":"","type":"uint256","internalType":"uint256"},{"name":"","type":"uint256","internalType":"uint256"}],"outputs":[{"name":"","type":"address","internalType":"address"}],"stateMutability":"view"},{"type":"function","name":"withdraw","inputs":[{"name":"_amount","type":"uint256","internalType":"uint256"}],"outputs":[],"stateMutability":"nonpayable"},{"type":"event","name":"Deposit","inputs":[{"name":"user","type":"address","indexed":true,"internalType":"address"},{"name":"amount","type":"uint256","indexed":false,"internalType":"uint256"}],"anonymous":false},{"type":"event","name":"EntryFeeCollected","inputs":[{"name":"player","type":"address","indexed":true,"internalType":"address"},{"name":"token","type":"address","indexed":true,"internalType":"address"},{"name":"amount","type":"uint256","indexed":false,"internalType":"uint256"},{"name":"riddleId","type":"uint256","indexed":true,"internalType":"uint256"}],"anonymous":false},{"type":"event","name":"EthReceived","inputs":[{"name":"sender","type":"address","indexed":true,"internalType":"address"},{"name":"amount","type":"uint256","indexed":false,"internalType":"uint256"}],"anonymous":false},{"type":"event","name":"GuessEvaluated","inputs":[{"name":"riddleId","type":"uint256","indexed":true,"internalType":"uint256"},{"name":"player","type":"address","indexed":true,"internalType":"address"},{"name":"timestamp","type":"uint256","indexed":false,"internalType":"uint256"},{"name":"isWinner","type":"bool","indexed":false,"internalType":"bool"}],"anonymous":false},{"type":"event","name":"GuessRevealed","inputs":[{"name":"player","type":"address","indexed":true,"internalType":"address"},{"name":"riddleId","type":"uint256","indexed":true,"internalType":"uint256"},{"name":"revealedHash","type":"bytes32","indexed":false,"internalType":"bytes32"}],"anonymous":false},{"type":"event","name":"GuessSubmitted","inputs":[{"name":"player","type":"address","indexed":true,"internalType":"address"},{"name":"riddleId","type":"uint256","indexed":true,"internalType":"uint256"},{"name":"guessHash","type":"bytes32","indexed":false,"internalType":"bytes32"}],"anonymous":false},{"type":"event","name":"OwnerWithdrawTokens","inputs":[{"name":"amount","type":"uint256","indexed":false,"internalType":"uint256"}],"anonymous":false},{"type":"event","name":"OwnerWithdrawal","inputs":[{"name":"owner","type":"address","indexed":true,"internalType":"address"},{"name":"amount","type":"uint256","indexed":false,"internalType":"uint256"}],"anonymous":false},{"type":"event","name":"OwnershipTransferred","inputs":[{"name":"previousOwner","type":"address","indexed":true,"internalType":"address"},{"name":"newOwner","type":"address","indexed":true,"internalType":"address"}],"anonymous":false},{"type":"event","name":"PlayerEntered","inputs":[{"name":"player","type":"address","indexed":true,"internalType":"address"},{"name":"riddleId","type":"uint256","indexed":true,"internalType":"uint256"}],"anonymous":false},{"type":"event","name":"PrizeDistributed","inputs":[{"name":"winner","type":"address","indexed":true,"internalType":"address"},{"name":"amount","type":"uint256","indexed":false,"internalType":"uint256"},{"name":"prizeType","type":"uint8","indexed":false,"internalType":"enum Vaultis.PrizeType"}],"anonymous":false},{"type":"event","name":"PrizeFunded","inputs":[{"name":"funder","type":"address","indexed":true,"internalType":"address"},{"name":"amount","type":"uint256","indexed":false,"internalType":"uint256"},{"name":"prizeType","type":"uint8","indexed":false,"internalType":"enum Vaultis.PrizeType"}],"anonymous":false},{"type":"event","name":"RetryPurchased","inputs":[{"name":"player","type":"address","indexed":true,"internalType":"address"},{"name":"riddleId","type":"uint256","indexed":true,"internalType":"uint256"},{"name":"cost","type":"uint256","indexed":false,"internalType":"uint256"},{"name":"newRetryCount","type":"uint256","indexed":false,"internalType":"uint256"}],"anonymous":false},{"type":"event","name":"RiddleInitialized","inputs":[{"name":"riddleId","type":"uint256","indexed":true,"internalType":"uint256"},{"name":"answerHash","type":"bytes32","indexed":false,"internalType":"bytes32"},{"name":"prizeType","type":"uint8","indexed":false,"internalType":"uint8"},{"name":"prizeTokenAddress","type":"address","indexed":false,"internalType":"address"},{"name":"prizeAmount","type":"uint256","indexed":false,"internalType":"uint256"},{"name":"entryFeeTokenAddress","type":"address","indexed":false,"internalType":"address"}],"anonymous":false},{"type":"event","name":"WinnerFound","inputs":[{"name":"winner","type":"address","indexed":true,"internalType":"address"},{"name":"riddleId","type":"uint256","indexed":true,"internalType":"uint256"}],"anonymous":false},{"type":"event","name":"Withdrawal","inputs":[{"name":"user","type":"address","indexed":true,"internalType":"address"},{"name":"amount","type":"uint256","indexed":false,"internalType":"uint256"}],"anonymous":false},{"type":"error","name":"OwnableInvalidOwner","inputs":[{"name":"owner","type":"address","internalType":"address"}]},{"type":"error","name":"OwnableUnauthorizedAccount","inputs":[{"name":"account","type":"address","internalType":"address"}]},{"type":"error","name":"ReentrancyGuardReentrantCall","inputs":[]},{"type":"error","name":"SafeERC20FailedOperation","inputs":[{"name":"token","type":"address","internalType":"address"}]}],"bytecode":{"object":"0x608060405234801561000f575f5ffd5b50604051615f32380380615f3283398181016040528101906100319190610268565b815f73ffffffffffffffffffffffffffffffffffffffff168173ffffffffffffffffffffffffffffffffffffffff16036100a2575f6040517f1e4fbdf700000000000000000000000000000000000000000000000000000000815260040161009991906102b5565b60405180910390fd5b6100b18161014960201b60201c565b50600180819055505f60085f6101000a81548173ffffffffffffffffffffffffffffffffffffffff021916908373ffffffffffffffffffffffffffffffffffffffff160217905550610e106011819055508060095f6101000a81548173ffffffffffffffffffffffffffffffffffffffff021916908373ffffffffffffffffffffffffffffffffffffffff16021790555050506102ce565b5f5f5f9054906101000a900473ffffffffffffffffffffffffffffffffffffffff169050815f5f6101000a81548173ffffffffffffffffffffffffffffffffffffffff021916908373ffffffffffffffffffffffffffffffffffffffff1602179055508173ffffffffffffffffffffffffffffffffffffffff168173ffffffffffffffffffffffffffffffffffffffff167f8be0079c531659141344cd1fd0a4f28419497f9722a3daafe3b4186f6b6457e060405160405180910390a35050565b5f5ffd5b5f73ffffffffffffffffffffffffffffffffffffffff82169050919050565b5f6102378261020e565b9050919050565b6102478161022d565b8114610251575f5ffd5b50565b5f815190506102628161023e565b92915050565b5f5f6040838503121561027e5761027d61020a565b5b5f61028b85828601610254565b925050602061029c85828601610254565b9150509250929050565b6102af8161022d565b82525050565b5f6020820190506102c85f8301846102a6565b92915050565b615c57806102db5f395ff3fe60806040526004361061021d575f3560e01c8063873f6f9e11610122578063c7cd6959116100aa578063ecdc6c231161006e578063ecdc6c231461087c578063f2fde38b146108a6578063f6d361cc146108ce578063f9f82e9c146108f8578063fcdf8e8914610920576102cc565b8063c7cd6959146107ce578063d0e30db0146107f8578063d0ef024a14610802578063dc663b531461082c578063e4d33ee314610854576102cc565b8063a68c25d8116100f1578063a68c25d8146106c8578063b7173e77146106f0578063bdd415af1461072c578063c06a5fc514610768578063c310e242146107a4576102cc565b8063873f6f9e146105fc5780638da5cb5b1461063857806395664a3d14610662578063a34398a21461068c576102cc565b806343d6582b116101a557806360972120116101745780636097212014610542578063715018a61461056a578063785fa627146105805780637a11e941146105aa5780637b149763146105d2576102cc565b806343d6582b1461049e57806348b06e87146104c657806353236d74146104ee57806357aa0ea214610518576102cc565b8063219fc385116101ec578063219fc385146103ac57806327e235e3146103d657806329c17990146104125780632e1a7d4d1461044e57806333f707d114610476576102cc565b80630efc8865146102d057806312b5afc11461030c57806316b5551d14610334578063188240cd14610370576102cc565b366102cc575f3411610264576040517f08c379a000000000000000000000000000000000000000000000000000000000815260040161025b90613b83565b60405180910390fd5b3460045f8282546102759190613bd7565b925050819055503373ffffffffffffffffffffffffffffffffffffffff167f85177f287940f2f05425a4029951af0e047a7f9c4eaa9a6e6917bcd869f86695346040516102c29190613c19565b60405180910390a2005b5f5ffd5b3480156102db575f5ffd5b506102f660048036038101906102f19190613c6d565b61094a565b6040516103039190613cea565b60405180910390f35b348015610317575f5ffd5b50610332600480360381019061032d9190613e3f565b610992565b005b34801561033f575f5ffd5b5061035a60048036038101906103559190613ec3565b610eea565b6040516103679190613f1b565b60405180910390f35b34801561037b575f5ffd5b5061039660048036038101906103919190613ec3565b610f14565b6040516103a39190613f4c565b60405180910390f35b3480156103b7575f5ffd5b506103c0610f34565b6040516103cd9190613fc0565b60405180910390f35b3480156103e1575f5ffd5b506103fc60048036038101906103f79190613fd9565b610f59565b6040516104099190613c19565b60405180910390f35b34801561041d575f5ffd5b5061043860048036038101906104339190613ec3565b610f6e565b6040516104459190613c19565b60405180910390f35b348015610459575f5ffd5b50610474600480360381019061046f9190614004565b610f8e565b005b348015610481575f5ffd5b5061049c60048036038101906104979190614004565b6111ad565b005b3480156104a9575f5ffd5b506104c460048036038101906104bf9190614004565b611372565b005b3480156104d1575f5ffd5b506104ec60048036038101906104e79190614004565b6117db565b005b3480156104f9575f5ffd5b506105026119f3565b60405161050f9190613c19565b60405180910390f35b348015610523575f5ffd5b5061052c6119f9565b6040516105399190613c19565b60405180910390f35b34801561054d575f5ffd5b5061056860048036038101906105639190614004565b611a05565b005b348015610575575f5ffd5b5061057e611bd8565b005b34801561058b575f5ffd5b50610594611beb565b6040516105a19190613c19565b60405180910390f35b3480156105b5575f5ffd5b506105d060048036038101906105cb9190614004565b611bf1565b005b3480156105dd575f5ffd5b506105e6611e7d565b6040516105f39190613fc0565b60405180910390f35b348015610607575f5ffd5b50610622600480360381019061061d9190613ec3565b611ea2565b60405161062f9190613f1b565b60405180910390f35b348015610643575f5ffd5b5061064c611ecc565b6040516106599190613cea565b60405180910390f35b34801561066d575f5ffd5b50610676611ef3565b6040516106839190613c19565b60405180910390f35b348015610697575f5ffd5b506106b260048036038101906106ad9190613ec3565b611ef9565b6040516106bf9190613f1b565b60405180910390f35b3480156106d3575f5ffd5b506106ee60048036038101906106e99190614004565b611f23565b005b3480156106fb575f5ffd5b5061071660048036038101906107119190613ec3565b611f35565b6040516107239190613f4c565b60405180910390f35b348015610737575f5ffd5b50610752600480360381019061074d9190613ec3565b611f55565b60405161075f9190613f1b565b60405180910390f35b348015610773575f5ffd5b5061078e60048036038101906107899190613ec3565b611f7f565b60405161079b9190613c19565b60405180910390f35b3480156107af575f5ffd5b506107b8611f9f565b6040516107c59190613c19565b60405180910390f35b3480156107d9575f5ffd5b506107e2611fa5565b6040516107ef9190613cea565b60405180910390f35b610800611fcd565b005b34801561080d575f5ffd5b506108166120c2565b6040516108239190613fc0565b60405180910390f35b348015610837575f5ffd5b50610852600480360381019061084d919061408c565b6120e7565b005b34801561085f575f5ffd5b5061087a60048036038101906108759190614101565b6124f2565b005b348015610887575f5ffd5b50610890612c1f565b60405161089d9190613c19565b60405180910390f35b3480156108b1575f5ffd5b506108cc60048036038101906108c79190613fd9565b612c25565b005b3480156108d9575f5ffd5b506108e2612ca9565b6040516108ef9190613c19565b60405180910390f35b348015610903575f5ffd5b5061091e60048036038101906109199190614162565b612cb5565b005b34801561092b575f5ffd5b506109346133a7565b604051610941919061425e565b60405180910390f35b6013602052815f5260405f208181548110610963575f80fd5b905f5260205f20015f915091509054906101000a900473ffffffffffffffffffffffffffffffffffffffff1681565b61099a6133ba565b5f82116109dc576040517f08c379a00000000000000000000000000000000000000000000000000000000081526004016109d3906142c1565b60405180910390fd5b6003548214610a20576040517f08c379a0000000000000000000000000000000000000000000000000000000008152600401610a1790614329565b60405180910390fd5b600a5f8381526020019081526020015f205f3373ffffffffffffffffffffffffffffffffffffffff1673ffffffffffffffffffffffffffffffffffffffff1681526020019081526020015f205f9054906101000a900460ff16610ab8576040517f08c379a0000000000000000000000000000000000000000000000000000000008152600401610aaf90614391565b60405180910390fd5b5f5f1b600d5f8481526020019081526020015f205f3373ffffffffffffffffffffffffffffffffffffffff1673ffffffffffffffffffffffffffffffffffffffff1681526020019081526020015f205403610b48576040517f08c379a0000000000000000000000000000000000000000000000000000000008152600401610b3f906143f9565b60405180910390fd5b60105f8381526020019081526020015f205f3373ffffffffffffffffffffffffffffffffffffffff1673ffffffffffffffffffffffffffffffffffffffff1681526020019081526020015f205f9054906101000a900460ff1615610be1576040517f08c379a0000000000000000000000000000000000000000000000000000000008152600401610bd890614461565b60405180910390fd5b601154600e5f8481526020019081526020015f205f3373ffffffffffffffffffffffffffffffffffffffff1673ffffffffffffffffffffffffffffffffffffffff1681526020019081526020015f2054610c3b9190613bd7565b421015610c7d576040517f08c379a0000000000000000000000000000000000000000000000000000000008152600401610c74906144c9565b60405180910390fd5b5f81604051602001610c8f9190614539565b604051602081830303815290604052805190602001209050600d5f8481526020019081526020015f205f3373ffffffffffffffffffffffffffffffffffffffff1673ffffffffffffffffffffffffffffffffffffffff1681526020019081526020015f20548114610d35576040517f08c379a0000000000000000000000000000000000000000000000000000000008152600401610d2c90614599565b60405180910390fd5b80600f5f8581526020019081526020015f205f3373ffffffffffffffffffffffffffffffffffffffff1673ffffffffffffffffffffffffffffffffffffffff1681526020019081526020015f2081905550600160105f8581526020019081526020015f205f3373ffffffffffffffffffffffffffffffffffffffff1673ffffffffffffffffffffffffffffffffffffffff1681526020019081526020015f205f6101000a81548160ff0219169083151502179055505f5f1b600d5f8581526020019081526020015f205f3373ffffffffffffffffffffffffffffffffffffffff1673ffffffffffffffffffffffffffffffffffffffff1681526020019081526020015f20819055505f600e5f8581526020019081526020015f205f3373ffffffffffffffffffffffffffffffffffffffff1673ffffffffffffffffffffffffffffffffffffffff1681526020019081526020015f2081905550823373ffffffffffffffffffffffffffffffffffffffff167f59d3b853b3060eb254d2f04ecf2d2fba8ec34ae94835cd01eedead529314f52483604051610ed59190613f4c565b60405180910390a350610ee6613400565b5050565b6010602052815f5260405f20602052805f5260405f205f915091509054906101000a900460ff1681565b600f602052815f5260405f20602052805f5260405f205f91509150505481565b60095f9054906101000a900473ffffffffffffffffffffffffffffffffffffffff1681565b6002602052805f5260405f205f915090505481565b600c602052815f5260405f20602052805f5260405f205f91509150505481565b610f966133ba565b5f8111610fd8576040517f08c379a0000000000000000000000000000000000000000000000000000000008152600401610fcf90614627565b60405180910390fd5b8060025f3373ffffffffffffffffffffffffffffffffffffffff1673ffffffffffffffffffffffffffffffffffffffff1681526020019081526020015f20541015611058576040517f08c379a000000000000000000000000000000000000000000000000000000000815260040161104f9061468f565b60405180910390fd5b8060025f3373ffffffffffffffffffffffffffffffffffffffff1673ffffffffffffffffffffffffffffffffffffffff1681526020019081526020015f205f8282546110a491906146ad565b925050819055505f3373ffffffffffffffffffffffffffffffffffffffff16826040516110d09061470d565b5f6040518083038185875af1925050503d805f811461110a576040519150601f19603f3d011682016040523d82523d5f602084013e61110f565b606091505b5050905080611153576040517f08c379a000000000000000000000000000000000000000000000000000000000815260040161114a9061476b565b60405180910390fd5b3373ffffffffffffffffffffffffffffffffffffffff167f7fcf532c15f0a6db0bd6d0e038bea71d30d808c7d98cb3bf7268a95bf5081b65836040516111999190613c19565b60405180910390a2506111aa613400565b50565b6111b5613409565b6111bd6133ba565b5f81116111ff576040517f08c379a00000000000000000000000000000000000000000000000000000000081526004016111f6906147f9565b60405180910390fd5b806004541015611244576040517f08c379a000000000000000000000000000000000000000000000000000000000815260040161123b90614861565b60405180910390fd5b8060045f82825461125591906146ad565b925050819055505f611265611ecc565b73ffffffffffffffffffffffffffffffffffffffff168262030d409060405161128d9061470d565b5f60405180830381858888f193505050503d805f81146112c8576040519150601f19603f3d011682016040523d82523d5f602084013e6112cd565b606091505b5050905080611311576040517f08c379a0000000000000000000000000000000000000000000000000000000008152600401611308906148c9565b60405180910390fd5b611319611ecc565b73ffffffffffffffffffffffffffffffffffffffff167fa919fadcfa556a012bab31b15f596ea7ccd397adbf10e15f176db9055ab361c48360405161135e9190613c19565b60405180910390a25061136f613400565b50565b61137a6133ba565b600a5f8281526020019081526020015f205f3373ffffffffffffffffffffffffffffffffffffffff1673ffffffffffffffffffffffffffffffffffffffff1681526020019081526020015f205f9054906101000a900460ff1615611413576040517f08c379a000000000000000000000000000000000000000000000000000000000815260040161140a90614957565b60405180910390fd5b6003548114611457576040517f08c379a000000000000000000000000000000000000000000000000000000000815260040161144e90614329565b60405180910390fd5b5f6003541161149b576040517f08c379a0000000000000000000000000000000000000000000000000000000008152600401611492906149bf565b60405180910390fd5b5f670de0b6b3a76400001115611728575f60085f9054906101000a900473ffffffffffffffffffffffffffffffffffffffff1690505f73ffffffffffffffffffffffffffffffffffffffff168173ffffffffffffffffffffffffffffffffffffffff160361153e576040517f08c379a000000000000000000000000000000000000000000000000000000000815260040161153590614a27565b60405180910390fd5b5f8173ffffffffffffffffffffffffffffffffffffffff166370a08231306040518263ffffffff1660e01b81526004016115789190613cea565b602060405180830381865afa158015611593573d5f5f3e3d5ffd5b505050506040513d601f19601f820116820180604052508101906115b79190614a59565b90506115ee3330670de0b6b3a76400008573ffffffffffffffffffffffffffffffffffffffff16613490909392919063ffffffff16565b5f818373ffffffffffffffffffffffffffffffffffffffff166370a08231306040518263ffffffff1660e01b81526004016116299190613cea565b602060405180830381865afa158015611644573d5f5f3e3d5ffd5b505050506040513d601f19601f820116820180604052508101906116689190614a59565b61167291906146ad565b9050670de0b6b3a764000081146116be576040517f08c379a00000000000000000000000000000000000000000000000000000000081526004016116b590614af4565b60405180910390fd5b838373ffffffffffffffffffffffffffffffffffffffff163373ffffffffffffffffffffffffffffffffffffffff167f1f8e0e31739d887c754fcf7403fe1bdf6641ef33578b9d08631a7d5e6e9b8fb78460405161171c9190613c19565b60405180910390a45050505b6001600a5f8381526020019081526020015f205f3373ffffffffffffffffffffffffffffffffffffffff1673ffffffffffffffffffffffffffffffffffffffff1681526020019081526020015f205f6101000a81548160ff021916908315150217905550803373ffffffffffffffffffffffffffffffffffffffff167fc16481c9484122696a660b57df0bf6839645c6b620cb1704ac2437de13be922560405160405180910390a36117d8613400565b50565b6117e3613409565b6117eb6133ba565b5f811161182d576040517f08c379a000000000000000000000000000000000000000000000000000000000815260040161182490614b5c565b60405180910390fd5b6001808111156118405761183f6141eb565b5b600960149054906101000a900460ff166001811115611862576118616141eb565b5b146118a2576040517f08c379a000000000000000000000000000000000000000000000000000000000815260040161189990614bea565b60405180910390fd5b5f73ffffffffffffffffffffffffffffffffffffffff1660055f9054906101000a900473ffffffffffffffffffffffffffffffffffffffff1673ffffffffffffffffffffffffffffffffffffffff1603611931576040517f08c379a000000000000000000000000000000000000000000000000000000000815260040161192890614c52565b60405180910390fd5b61197f33308360055f9054906101000a900473ffffffffffffffffffffffffffffffffffffffff1673ffffffffffffffffffffffffffffffffffffffff16613490909392919063ffffffff16565b8060065f8282546119909190613bd7565b925050819055503373ffffffffffffffffffffffffffffffffffffffff167f4708e702157b1eb6cd00a772e6a623599ac7dc0bad76e8c624fdef050b434f098260016040516119e0929190614c70565b60405180910390a26119f0613400565b50565b60115481565b67016345785d8a000081565b611a0d613409565b611a156133ba565b5f8111611a57576040517f08c379a0000000000000000000000000000000000000000000000000000000008152600401611a4e90614d07565b60405180910390fd5b806006541015611a9c576040517f08c379a0000000000000000000000000000000000000000000000000000000008152600401611a9390614d6f565b60405180910390fd5b5f73ffffffffffffffffffffffffffffffffffffffff1660055f9054906101000a900473ffffffffffffffffffffffffffffffffffffffff1673ffffffffffffffffffffffffffffffffffffffff1603611b2b576040517f08c379a0000000000000000000000000000000000000000000000000000000008152600401611b2290614c52565b60405180910390fd5b8060065f828254611b3c91906146ad565b92505081905550611b96611b4e611ecc565b8260055f9054906101000a900473ffffffffffffffffffffffffffffffffffffffff1673ffffffffffffffffffffffffffffffffffffffff166135129092919063ffffffff16565b7f560c2b6d9212838c63f631c64ebc9d7364da90f9af3fdec847c0725dd18330c881604051611bc59190613c19565b60405180910390a1611bd5613400565b50565b611be0613409565b611be95f613591565b565b60075481565b611bf96133ba565b6003548114611c3d576040517f08c379a0000000000000000000000000000000000000000000000000000000008152600401611c3490614329565b60405180910390fd5b5f73ffffffffffffffffffffffffffffffffffffffff1660095f9054906101000a900473ffffffffffffffffffffffffffffffffffffffff1673ffffffffffffffffffffffffffffffffffffffff1603611ccc576040517f08c379a0000000000000000000000000000000000000000000000000000000008152600401611cc390614dd7565b60405180910390fd5b5f67016345785d8a000011611d16576040517f08c379a0000000000000000000000000000000000000000000000000000000008152600401611d0d90614e65565b60405180910390fd5b611d6c333067016345785d8a000060095f9054906101000a900473ffffffffffffffffffffffffffffffffffffffff1673ffffffffffffffffffffffffffffffffffffffff16613490909392919063ffffffff16565b600c5f8281526020019081526020015f205f3373ffffffffffffffffffffffffffffffffffffffff1673ffffffffffffffffffffffffffffffffffffffff1681526020019081526020015f205f815480929190611dc890614e83565b9190505550803373ffffffffffffffffffffffffffffffffffffffff167f98afd9c8b4874dc0b797b810a6a8488429aea97e225fc6e70d948f77660fbee767016345785d8a0000600c5f8681526020019081526020015f205f3373ffffffffffffffffffffffffffffffffffffffff1673ffffffffffffffffffffffffffffffffffffffff1681526020019081526020015f2054604051611e6a929190614eca565b60405180910390a3611e7a613400565b50565b60085f9054906101000a900473ffffffffffffffffffffffffffffffffffffffff1681565b600b602052815f5260405f20602052805f5260405f205f915091509054906101000a900460ff1681565b5f5f5f9054906101000a900473ffffffffffffffffffffffffffffffffffffffff16905090565b60045481565b600a602052815f5260405f20602052805f5260405f205f915091509054906101000a900460ff1681565b611f2b613409565b8060118190555050565b600d602052815f5260405f20602052805f5260405f205f91509150505481565b6014602052815f5260405f20602052805f5260405f205f915091509054906101000a900460ff1681565b600e602052815f5260405f20602052805f5260405f205f91509150505481565b60065481565b5f60055f9054906101000a900473ffffffffffffffffffffffffffffffffffffffff16905090565b611fd56133ba565b5f3411612017576040517f08c379a000000000000000000000000000000000000000000000000000000000815260040161200e90614f61565b60405180910390fd5b3460025f3373ffffffffffffffffffffffffffffffffffffffff1673ffffffffffffffffffffffffffffffffffffffff1681526020019081526020015f205f8282546120639190613bd7565b925050819055503373ffffffffffffffffffffffffffffffffffffffff167fe1fffcc4923d04b559f4d29a8bfc6cda04eb5b0d3c460751c2402c5c5cc9109c346040516120b09190613c19565b60405180910390a26120c0613400565b565b60055f9054906101000a900473ffffffffffffffffffffffffffffffffffffffff1681565b6120ef6133ba565b5f60035411612133576040517f08c379a000000000000000000000000000000000000000000000000000000000815260040161212a906149bf565b60405180910390fd5b600a5f60035481526020019081526020015f205f3373ffffffffffffffffffffffffffffffffffffffff1673ffffffffffffffffffffffffffffffffffffffff1681526020019081526020015f205f9054906101000a900460ff166121cd576040517f08c379a00000000000000000000000000000000000000000000000000000000081526004016121c490614391565b60405180910390fd5b600b5f60035481526020019081526020015f205f3373ffffffffffffffffffffffffffffffffffffffff1673ffffffffffffffffffffffffffffffffffffffff1681526020019081526020015f205f9054906101000a900460ff1615612268576040517f08c379a000000000000000000000000000000000000000000000000000000000815260040161225f90614fc9565b60405180910390fd5b60105f60035481526020019081526020015f205f3373ffffffffffffffffffffffffffffffffffffffff1673ffffffffffffffffffffffffffffffffffffffff1681526020019081526020015f205f9054906101000a900460ff16612302576040517f08c379a00000000000000000000000000000000000000000000000000000000081526004016122f990615031565b60405180910390fd5b8181604051602001612315929190615073565b60405160208183030381529060405280519060200120600f5f60035481526020019081526020015f205f3373ffffffffffffffffffffffffffffffffffffffff1673ffffffffffffffffffffffffffffffffffffffff1681526020019081526020015f2054146123ba576040517f08c379a00000000000000000000000000000000000000000000000000000000081526004016123b1906150fb565b60405180910390fd5b6001600b5f60035481526020019081526020015f205f3373ffffffffffffffffffffffffffffffffffffffff1673ffffffffffffffffffffffffffffffffffffffff1681526020019081526020015f205f6101000a81548160ff02191690831515021790555061242c33600754613652565b5f5f1b600f5f60035481526020019081526020015f205f3373ffffffffffffffffffffffffffffffffffffffff1673ffffffffffffffffffffffffffffffffffffffff1681526020019081526020015f20819055505f60105f60035481526020019081526020015f205f3373ffffffffffffffffffffffffffffffffffffffff1673ffffffffffffffffffffffffffffffffffffffff1681526020019081526020015f205f6101000a81548160ff0219169083151502179055506124ee613400565b5050565b6124fa6133ba565b5f821161253c576040517f08c379a0000000000000000000000000000000000000000000000000000000008152600401612533906142c1565b60405180910390fd5b6003548214612580576040517f08c379a000000000000000000000000000000000000000000000000000000000815260040161257790614329565b60405180910390fd5b5f5f1b81036125c4576040517f08c379a00000000000000000000000000000000000000000000000000000000081526004016125bb90615163565b60405180910390fd5b600a5f8381526020019081526020015f205f3373ffffffffffffffffffffffffffffffffffffffff1673ffffffffffffffffffffffffffffffffffffffff1681526020019081526020015f205f9054906101000a900460ff1661265c576040517f08c379a000000000000000000000000000000000000000000000000000000000815260040161265390614391565b60405180910390fd5b5f5f1b600d5f8481526020019081526020015f205f3373ffffffffffffffffffffffffffffffffffffffff1673ffffffffffffffffffffffffffffffffffffffff1681526020019081526020015f2054146128fb575f600c5f8481526020019081526020015f205f3373ffffffffffffffffffffffffffffffffffffffff1673ffffffffffffffffffffffffffffffffffffffff1681526020019081526020015f20541161273f576040517f08c379a0000000000000000000000000000000000000000000000000000000008152600401612736906151cb565b60405180910390fd5b600c5f8381526020019081526020015f205f3373ffffffffffffffffffffffffffffffffffffffff1673ffffffffffffffffffffffffffffffffffffffff1681526020019081526020015f205f81548092919061279b906151e9565b91905055505f5f1b600d5f8481526020019081526020015f205f3373ffffffffffffffffffffffffffffffffffffffff1673ffffffffffffffffffffffffffffffffffffffff1681526020019081526020015f20819055505f600e5f8481526020019081526020015f205f3373ffffffffffffffffffffffffffffffffffffffff1673ffffffffffffffffffffffffffffffffffffffff1681526020019081526020015f20819055505f5f1b600f5f8481526020019081526020015f205f3373ffffffffffffffffffffffffffffffffffffffff1673ffffffffffffffffffffffffffffffffffffffff1681526020019081526020015f20819055505f60105f8481526020019081526020015f205f3373ffffffffffffffffffffffffffffffffffffffff1673ffffffffffffffffffffffffffffffffffffffff1681526020019081526020015f205f6101000a81548160ff0219169083151502179055505b6012548103612ad05760145f8381526020019081526020015f205f3373ffffffffffffffffffffffffffffffffffffffff1673ffffffffffffffffffffffffffffffffffffffff1681526020019081526020015f205f9054906101000a900460ff16612a795760135f8381526020019081526020015f2033908060018154018082558091505060019003905f5260205f20015f9091909190916101000a81548173ffffffffffffffffffffffffffffffffffffffff021916908373ffffffffffffffffffffffffffffffffffffffff160217905550600160145f8481526020019081526020015f205f3373ffffffffffffffffffffffffffffffffffffffff1673ffffffffffffffffffffffffffffffffffffffff1681526020019081526020015f205f6101000a81548160ff021916908315150217905550813373ffffffffffffffffffffffffffffffffffffffff167fb5d93c368c4bd18876654db9fd5dcef5a3583ccde4d81659e7f309f36c84490560405160405180910390a35b3373ffffffffffffffffffffffffffffffffffffffff16827f6dbad7911810fc45c016aff41534b7adcd5477454a9b5be0d995a93518cde675426001604051612ac3929190615210565b60405180910390a3612b22565b3373ffffffffffffffffffffffffffffffffffffffff16827f6dbad7911810fc45c016aff41534b7adcd5477454a9b5be0d995a93518cde675425f604051612b19929190615210565b60405180910390a35b80600d5f8481526020019081526020015f205f3373ffffffffffffffffffffffffffffffffffffffff1673ffffffffffffffffffffffffffffffffffffffff1681526020019081526020015f208190555042600e5f8481526020019081526020015f205f3373ffffffffffffffffffffffffffffffffffffffff1673ffffffffffffffffffffffffffffffffffffffff1681526020019081526020015f2081905550813373ffffffffffffffffffffffffffffffffffffffff167fc5009e6865ae04f58da43f80d7eb9718a2f25a7ccfeb22a8ca0031e77b86b50a83604051612c0b9190613f4c565b60405180910390a3612c1b613400565b5050565b60035481565b612c2d613409565b5f73ffffffffffffffffffffffffffffffffffffffff168173ffffffffffffffffffffffffffffffffffffffff1603612c9d575f6040517f1e4fbdf7000000000000000000000000000000000000000000000000000000008152600401612c949190613cea565b60405180910390fd5b612ca681613591565b50565b670de0b6b3a764000081565b612cbd613409565b5f8611612cff576040517f08c379a0000000000000000000000000000000000000000000000000000000008152600401612cf6906142c1565b60405180910390fd5b6003548611612d43576040517f08c379a0000000000000000000000000000000000000000000000000000000008152600401612d3a906152a7565b60405180910390fd5b5f8211612d85576040517f08c379a0000000000000000000000000000000000000000000000000000000008152600401612d7c90615335565b60405180910390fd5b600180811115612d9857612d976141eb565b5b846001811115612dab57612daa6141eb565b5b03612f64575f73ffffffffffffffffffffffffffffffffffffffff168373ffffffffffffffffffffffffffffffffffffffff1603612e1e576040517f08c379a0000000000000000000000000000000000000000000000000000000008152600401612e15906153c3565b60405180910390fd5b5f8373ffffffffffffffffffffffffffffffffffffffff163b11612e77576040517f08c379a0000000000000000000000000000000000000000000000000000000008152600401612e6e9061542b565b60405180910390fd5b8273ffffffffffffffffffffffffffffffffffffffff166318160ddd6040518163ffffffff1660e01b8152600401602060405180830381865afa925050508015612edf57506040513d601f19601f82011682018060405250810190612edc9190614a59565b60015b612f1e576040517f08c379a0000000000000000000000000000000000000000000000000000000008152600401612f15906154b9565b60405180910390fd5b508260055f6101000a81548173ffffffffffffffffffffffffffffffffffffffff021916908373ffffffffffffffffffffffffffffffffffffffff160217905550613013565b5f73ffffffffffffffffffffffffffffffffffffffff168373ffffffffffffffffffffffffffffffffffffffff1614612fd2576040517f08c379a0000000000000000000000000000000000000000000000000000000008152600401612fc990615547565b60405180910390fd5b5f60055f6101000a81548173ffffffffffffffffffffffffffffffffffffffff021916908373ffffffffffffffffffffffffffffffffffffffff1602179055505b5f670de0b6b3a764000011156131d7575f73ffffffffffffffffffffffffffffffffffffffff168173ffffffffffffffffffffffffffffffffffffffff1603613091576040517f08c379a0000000000000000000000000000000000000000000000000000000008152600401613088906155fb565b60405180910390fd5b5f8173ffffffffffffffffffffffffffffffffffffffff163b116130ea576040517f08c379a00000000000000000000000000000000000000000000000000000000081526004016130e190615689565b60405180910390fd5b8073ffffffffffffffffffffffffffffffffffffffff166318160ddd6040518163ffffffff1660e01b8152600401602060405180830381865afa92505050801561315257506040513d601f19601f8201168201806040525081019061314f9190614a59565b60015b613191576040517f08c379a000000000000000000000000000000000000000000000000000000000815260040161318890615717565b60405180910390fd5b508060085f6101000a81548173ffffffffffffffffffffffffffffffffffffffff021916908373ffffffffffffffffffffffffffffffffffffffff160217905550613286565b5f73ffffffffffffffffffffffffffffffffffffffff168173ffffffffffffffffffffffffffffffffffffffff1614613245576040517f08c379a000000000000000000000000000000000000000000000000000000000815260040161323c906157a5565b60405180910390fd5b5f60085f6101000a81548173ffffffffffffffffffffffffffffffffffffffff021916908373ffffffffffffffffffffffffffffffffffffffff1602179055505b5f600454146132ca576040517f08c379a00000000000000000000000000000000000000000000000000000000081526004016132c190615833565b60405180910390fd5b5f6006541461330e576040517f08c379a0000000000000000000000000000000000000000000000000000000008152600401613305906158c1565b60405180910390fd5b856003819055508460128190555083600960146101000a81548160ff02191690836001811115613341576133406141eb565b5b021790555081600781905550857f05227007ca99c4e41f51fb024dcb2065e16bd026db353ce7f322e5cdb4fb2e9d86866001811115613383576133826141eb565b5b8686866040516133979594939291906158fa565b60405180910390a2505050505050565b600960149054906101000a900460ff1681565b6002600154036133f6576040517f3ee5aeb500000000000000000000000000000000000000000000000000000000815260040160405180910390fd5b6002600181905550565b60018081905550565b613411613a61565b73ffffffffffffffffffffffffffffffffffffffff1661342f611ecc565b73ffffffffffffffffffffffffffffffffffffffff161461348e57613452613a61565b6040517f118cdaa70000000000000000000000000000000000000000000000000000000081526004016134859190613cea565b60405180910390fd5b565b61350c848573ffffffffffffffffffffffffffffffffffffffff166323b872dd8686866040516024016134c59392919061594b565b604051602081830303815290604052915060e01b6020820180517bffffffffffffffffffffffffffffffffffffffffffffffffffffffff8381831617835250505050613a68565b50505050565b61358c838473ffffffffffffffffffffffffffffffffffffffff1663a9059cbb8585604051602401613545929190615980565b604051602081830303815290604052915060e01b6020820180517bffffffffffffffffffffffffffffffffffffffffffffffffffffffff8381831617835250505050613a68565b505050565b5f5f5f9054906101000a900473ffffffffffffffffffffffffffffffffffffffff169050815f5f6101000a81548173ffffffffffffffffffffffffffffffffffffffff021916908373ffffffffffffffffffffffffffffffffffffffff1602179055508173ffffffffffffffffffffffffffffffffffffffff168173ffffffffffffffffffffffffffffffffffffffff167f8be0079c531659141344cd1fd0a4f28419497f9722a3daafe3b4186f6b6457e060405160405180910390a35050565b5f73ffffffffffffffffffffffffffffffffffffffff168273ffffffffffffffffffffffffffffffffffffffff16036136c0576040517f08c379a00000000000000000000000000000000000000000000000000000000081526004016136b7906159f1565b60405180910390fd5b5f8111613702576040517f08c379a00000000000000000000000000000000000000000000000000000000081526004016136f990615335565b60405180910390fd5b5f6001811115613715576137146141eb565b5b600960149054906101000a900460ff166001811115613737576137366141eb565b5b0361388a57806004541015613781576040517f08c379a000000000000000000000000000000000000000000000000000000000815260040161377890615a7f565b60405180910390fd5b804710156137c4576040517f08c379a00000000000000000000000000000000000000000000000000000000081526004016137bb90615b0d565b60405180910390fd5b8060045f8282546137d591906146ad565b925050819055505f8273ffffffffffffffffffffffffffffffffffffffff16826040516138019061470d565b5f6040518083038185875af1925050503d805f811461383b576040519150601f19603f3d011682016040523d82523d5f602084013e613840565b606091505b5050905080613884576040517f08c379a000000000000000000000000000000000000000000000000000000000815260040161387b90615b75565b60405180910390fd5b506139fe565b60018081111561389d5761389c6141eb565b5b600960149054906101000a900460ff1660018111156138bf576138be6141eb565b5b036139fd575f73ffffffffffffffffffffffffffffffffffffffff1660055f9054906101000a900473ffffffffffffffffffffffffffffffffffffffff1673ffffffffffffffffffffffffffffffffffffffff1603613953576040517f08c379a000000000000000000000000000000000000000000000000000000000815260040161394a90614c52565b60405180910390fd5b806006541015613998576040517f08c379a000000000000000000000000000000000000000000000000000000000815260040161398f90615c03565b60405180910390fd5b8060065f8282546139a991906146ad565b925050819055506139fc828260055f9054906101000a900473ffffffffffffffffffffffffffffffffffffffff1673ffffffffffffffffffffffffffffffffffffffff166135129092919063ffffffff16565b5b5b8173ffffffffffffffffffffffffffffffffffffffff167fff43c2705b2225c1c9d9d58f088ab64d4fc767737dee523bed37f15fb0c6c3de82600960149054906101000a900460ff16604051613a55929190614c70565b60405180910390a25050565b5f33905090565b5f5f60205f8451602086015f885af180613a87576040513d5f823e3d81fd5b3d92505f519150505f8214613aa0576001811415613abb565b5f8473ffffffffffffffffffffffffffffffffffffffff163b145b15613afd57836040517f5274afe7000000000000000000000000000000000000000000000000000000008152600401613af49190613cea565b60405180910390fd5b50505050565b5f82825260208201905092915050565b7f45544820616d6f756e74206d7573742062652067726561746572207468616e205f8201527f7a65726f00000000000000000000000000000000000000000000000000000000602082015250565b5f613b6d602483613b03565b9150613b7882613b13565b604082019050919050565b5f6020820190508181035f830152613b9a81613b61565b9050919050565b5f819050919050565b7f4e487b71000000000000000000000000000000000000000000000000000000005f52601160045260245ffd5b5f613be182613ba1565b9150613bec83613ba1565b9250828201905080821115613c0457613c03613baa565b5b92915050565b613c1381613ba1565b82525050565b5f602082019050613c2c5f830184613c0a565b92915050565b5f604051905090565b5f5ffd5b5f5ffd5b613c4c81613ba1565b8114613c56575f5ffd5b50565b5f81359050613c6781613c43565b92915050565b5f5f60408385031215613c8357613c82613c3b565b5b5f613c9085828601613c59565b9250506020613ca185828601613c59565b9150509250929050565b5f73ffffffffffffffffffffffffffffffffffffffff82169050919050565b5f613cd482613cab565b9050919050565b613ce481613cca565b82525050565b5f602082019050613cfd5f830184613cdb565b92915050565b5f5ffd5b5f5ffd5b5f601f19601f8301169050919050565b7f4e487b71000000000000000000000000000000000000000000000000000000005f52604160045260245ffd5b613d5182613d0b565b810181811067ffffffffffffffff82111715613d7057613d6f613d1b565b5b80604052505050565b5f613d82613c32565b9050613d8e8282613d48565b919050565b5f67ffffffffffffffff821115613dad57613dac613d1b565b5b613db682613d0b565b9050602081019050919050565b828183375f83830152505050565b5f613de3613dde84613d93565b613d79565b905082815260208101848484011115613dff57613dfe613d07565b5b613e0a848285613dc3565b509392505050565b5f82601f830112613e2657613e25613d03565b5b8135613e36848260208601613dd1565b91505092915050565b5f5f60408385031215613e5557613e54613c3b565b5b5f613e6285828601613c59565b925050602083013567ffffffffffffffff811115613e8357613e82613c3f565b5b613e8f85828601613e12565b9150509250929050565b613ea281613cca565b8114613eac575f5ffd5b50565b5f81359050613ebd81613e99565b92915050565b5f5f60408385031215613ed957613ed8613c3b565b5b5f613ee685828601613c59565b9250506020613ef785828601613eaf565b9150509250929050565b5f8115159050919050565b613f1581613f01565b82525050565b5f602082019050613f2e5f830184613f0c565b92915050565b5f819050919050565b613f4681613f34565b82525050565b5f602082019050613f5f5f830184613f3d565b92915050565b5f819050919050565b5f613f88613f83613f7e84613cab565b613f65565b613cab565b9050919050565b5f613f9982613f6e565b9050919050565b5f613faa82613f8f565b9050919050565b613fba81613fa0565b82525050565b5f602082019050613fd35f830184613fb1565b92915050565b5f60208284031215613fee57613fed613c3b565b5b5f613ffb84828501613eaf565b91505092915050565b5f6020828403121561401957614018613c3b565b5b5f61402684828501613c59565b91505092915050565b5f5ffd5b5f5ffd5b5f5f83601f84011261404c5761404b613d03565b5b8235905067ffffffffffffffff8111156140695761406861402f565b5b60208301915083600182028301111561408557614084614033565b5b9250929050565b5f5f602083850312156140a2576140a1613c3b565b5b5f83013567ffffffffffffffff8111156140bf576140be613c3f565b5b6140cb85828601614037565b92509250509250929050565b6140e081613f34565b81146140ea575f5ffd5b50565b5f813590506140fb816140d7565b92915050565b5f5f6040838503121561411757614116613c3b565b5b5f61412485828601613c59565b9250506020614135858286016140ed565b9150509250929050565b6002811061414b575f5ffd5b50565b5f8135905061415c8161413f565b92915050565b5f5f5f5f5f5f60c0878903121561417c5761417b613c3b565b5b5f61418989828a01613c59565b965050602061419a89828a016140ed565b95505060406141ab89828a0161414e565b94505060606141bc89828a01613eaf565b93505060806141cd89828a01613c59565b92505060a06141de89828a01613eaf565b9150509295509295509295565b7f4e487b71000000000000000000000000000000000000000000000000000000005f52602160045260245ffd5b60028110614229576142286141eb565b5b50565b5f81905061423982614218565b919050565b5f6142488261422c565b9050919050565b6142588161423e565b82525050565b5f6020820190506142715f83018461424f565b92915050565b7f526964646c652049442063616e6e6f74206265207a65726f00000000000000005f82015250565b5f6142ab601883613b03565b91506142b682614277565b602082019050919050565b5f6020820190508181035f8301526142d88161429f565b9050919050565b7f4e6f74207468652061637469766520726964646c6520494400000000000000005f82015250565b5f614313601883613b03565b915061431e826142df565b602082019050919050565b5f6020820190508181035f83015261434081614307565b9050919050565b7f4d75737420656e746572207468652067616d65206669727374000000000000005f82015250565b5f61437b601983613b03565b915061438682614347565b602082019050919050565b5f6020820190508181035f8301526143a88161436f565b9050919050565b7f4e6f20636f6d6d697474656420677565737300000000000000000000000000005f82015250565b5f6143e3601283613b03565b91506143ee826143af565b602082019050919050565b5f6020820190508181035f830152614410816143d7565b9050919050565b7f416c72656164792072657665616c6564000000000000000000000000000000005f82015250565b5f61444b601083613b03565b915061445682614417565b602082019050919050565b5f6020820190508181035f8301526144788161443f565b9050919050565b7f52657665616c20746f6f206561726c79000000000000000000000000000000005f82015250565b5f6144b3601083613b03565b91506144be8261447f565b602082019050919050565b5f6020820190508181035f8301526144e0816144a7565b9050919050565b5f81519050919050565b5f81905092915050565b8281835e5f83830152505050565b5f614513826144e7565b61451d81856144f1565b935061452d8185602086016144fb565b80840191505092915050565b5f6145448284614509565b915081905092915050565b7f52657665616c20646f6573206e6f74206d6174636820636f6d6d6974000000005f82015250565b5f614583601c83613b03565b915061458e8261454f565b602082019050919050565b5f6020820190508181035f8301526145b081614577565b9050919050565b7f5769746864726177616c20616d6f756e74206d757374206265206772656174655f8201527f72207468616e207a65726f000000000000000000000000000000000000000000602082015250565b5f614611602b83613b03565b915061461c826145b7565b604082019050919050565b5f6020820190508181035f83015261463e81614605565b9050919050565b7f496e73756666696369656e742062616c616e63650000000000000000000000005f82015250565b5f614679601483613b03565b915061468482614645565b602082019050919050565b5f6020820190508181035f8301526146a68161466d565b9050919050565b5f6146b782613ba1565b91506146c283613ba1565b92508282039050818111156146da576146d9613baa565b5b92915050565b5f81905092915050565b50565b5f6146f85f836146e0565b9150614703826146ea565b5f82019050919050565b5f614717826146ed565b9150819050919050565b7f5769746864726177616c206661696c65640000000000000000000000000000005f82015250565b5f614755601183613b03565b915061476082614721565b602082019050919050565b5f6020820190508181035f83015261478281614749565b9050919050565b7f4f776e6572207769746864726177616c20616d6f756e74206d757374206265205f8201527f67726561746572207468616e207a65726f000000000000000000000000000000602082015250565b5f6147e3603183613b03565b91506147ee82614789565b604082019050919050565b5f6020820190508181035f830152614810816147d7565b9050919050565b7f496e73756666696369656e7420455448207072697a6520706f6f6c00000000005f82015250565b5f61484b601b83613b03565b915061485682614817565b602082019050919050565b5f6020820190508181035f8301526148788161483f565b9050919050565b7f4f776e6572207769746864726177616c206661696c65640000000000000000005f82015250565b5f6148b3601783613b03565b91506148be8261487f565b602082019050919050565b5f6020820190508181035f8301526148e0816148a7565b9050919050565b7f416c72656164792070617274696369706174656420696e2074686973207269645f8201527f646c650000000000000000000000000000000000000000000000000000000000602082015250565b5f614941602383613b03565b915061494c826148e7565b604082019050919050565b5f6020820190508181035f83015261496e81614935565b9050919050565b7f4e6f2061637469766520726964646c65000000000000000000000000000000005f82015250565b5f6149a9601083613b03565b91506149b482614975565b602082019050919050565b5f6020820190508181035f8301526149d68161499d565b9050919050565b7f456e7472792066656520746f6b656e206e6f74207365740000000000000000005f82015250565b5f614a11601783613b03565b9150614a1c826149dd565b602082019050919050565b5f6020820190508181035f830152614a3e81614a05565b9050919050565b5f81519050614a5381613c43565b92915050565b5f60208284031215614a6e57614a6d613c3b565b5b5f614a7b84828501614a45565b91505092915050565b7f456e74727920666565206d69736d617463682028464f54206e6f7420737570705f8201527f6f72746564290000000000000000000000000000000000000000000000000000602082015250565b5f614ade602683613b03565b9150614ae982614a84565b604082019050919050565b5f6020820190508181035f830152614b0b81614ad2565b9050919050565b7f416d6f756e74206d7573742062652067726561746572207468616e207a65726f5f82015250565b5f614b46602083613b03565b9150614b5182614b12565b602082019050919050565b5f6020820190508181035f830152614b7381614b3a565b9050919050565b7f43757272656e7420726964646c65207072697a65206973206e6f7420455243325f8201527f3000000000000000000000000000000000000000000000000000000000000000602082015250565b5f614bd4602183613b03565b9150614bdf82614b7a565b604082019050919050565b5f6020820190508181035f830152614c0181614bc8565b9050919050565b7f5072697a6520746f6b656e206e6f7420736574000000000000000000000000005f82015250565b5f614c3c601383613b03565b9150614c4782614c08565b602082019050919050565b5f6020820190508181035f830152614c6981614c30565b9050919050565b5f604082019050614c835f830185613c0a565b614c90602083018461424f565b9392505050565b7f4f776e657220746f6b656e207769746864726177616c20616d6f756e74206d755f8201527f73742062652067726561746572207468616e207a65726f000000000000000000602082015250565b5f614cf1603783613b03565b9150614cfc82614c97565b604082019050919050565b5f6020820190508181035f830152614d1e81614ce5565b9050919050565b7f496e73756666696369656e7420746f6b656e207072697a6520706f6f6c0000005f82015250565b5f614d59601d83613b03565b9150614d6482614d25565b602082019050919050565b5f6020820190508181035f830152614d8681614d4d565b9050919050565b7f526574727920746f6b656e206e6f7420736574000000000000000000000000005f82015250565b5f614dc1601383613b03565b9150614dcc82614d8d565b602082019050919050565b5f6020820190508181035f830152614dee81614db5565b9050919050565b7f526574727920636f7374206d7573742062652067726561746572207468616e205f8201527f7a65726f00000000000000000000000000000000000000000000000000000000602082015250565b5f614e4f602483613b03565b9150614e5a82614df5565b604082019050919050565b5f6020820190508181035f830152614e7c81614e43565b9050919050565b5f614e8d82613ba1565b91507fffffffffffffffffffffffffffffffffffffffffffffffffffffffffffffffff8203614ebf57614ebe613baa565b5b600182019050919050565b5f604082019050614edd5f830185613c0a565b614eea6020830184613c0a565b9392505050565b7f4465706f73697420616d6f756e74206d757374206265206772656174657220745f8201527f68616e207a65726f000000000000000000000000000000000000000000000000602082015250565b5f614f4b602883613b03565b9150614f5682614ef1565b604082019050919050565b5f6020820190508181035f830152614f7881614f3f565b9050919050565b7f416c726561647920636c61696d656400000000000000000000000000000000005f82015250565b5f614fb3600f83613b03565b9150614fbe82614f7f565b602082019050919050565b5f6020820190508181035f830152614fe081614fa7565b9050919050565b7f4d7573742072657665616c206775657373206265666f726520736f6c76696e675f82015250565b5f61501b602083613b03565b915061502682614fe7565b602082019050919050565b5f6020820190508181035f8301526150488161500f565b9050919050565b5f61505a83856144f1565b9350615067838584613dc3565b82840190509392505050565b5f61507f82848661504f565b91508190509392505050565b7f52657665616c656420677565737320646f6573206e6f74206d617463682070725f8201527f6f766964656420616e7377657200000000000000000000000000000000000000602082015250565b5f6150e5602d83613b03565b91506150f08261508b565b604082019050919050565b5f6020820190508181035f830152615112816150d9565b9050919050565b7f477565737320686173682063616e6e6f74206265207a65726f000000000000005f82015250565b5f61514d601983613b03565b915061515882615119565b602082019050919050565b5f6020820190508181035f83015261517a81615141565b9050919050565b7f4e6f207265747269657320617661696c61626c650000000000000000000000005f82015250565b5f6151b5601483613b03565b91506151c082615181565b602082019050919050565b5f6020820190508181035f8301526151e2816151a9565b9050919050565b5f6151f382613ba1565b91505f820361520557615204613baa565b5b600182039050919050565b5f6040820190506152235f830185613c0a565b6152306020830184613f0c565b9392505050565b7f526964646c65204944206d7573742062652067726561746572207468616e20635f8201527f757272656e740000000000000000000000000000000000000000000000000000602082015250565b5f615291602683613b03565b915061529c82615237565b604082019050919050565b5f6020820190508181035f8301526152be81615285565b9050919050565b7f5072697a6520616d6f756e74206d7573742062652067726561746572207468615f8201527f6e207a65726f0000000000000000000000000000000000000000000000000000602082015250565b5f61531f602683613b03565b915061532a826152c5565b604082019050919050565b5f6020820190508181035f83015261534c81615313565b9050919050565b7f5072697a6520746f6b656e20616464726573732063616e6e6f74206265207a655f8201527f726f20666f72204552433230207072697a650000000000000000000000000000602082015250565b5f6153ad603283613b03565b91506153b882615353565b604082019050919050565b5f6020820190508181035f8301526153da816153a1565b9050919050565b7f5072697a6520746f6b656e20686173206e6f20636f6e747261637420636f64655f82015250565b5f615415602083613b03565b9150615420826153e1565b602082019050919050565b5f6020820190508181035f83015261544281615409565b9050919050565b7f496e76616c6964204552432d323020746f6b656e3a20746f74616c537570706c5f8201527f792063616c6c206661696c656400000000000000000000000000000000000000602082015250565b5f6154a3602d83613b03565b91506154ae82615449565b604082019050919050565b5f6020820190508181035f8301526154d081615497565b9050919050565b7f5072697a6520746f6b656e2061646472657373206d757374206265207a65726f5f8201527f20666f7220455448207072697a65000000000000000000000000000000000000602082015250565b5f615531602e83613b03565b915061553c826154d7565b604082019050919050565b5f6020820190508181035f83015261555e81615525565b9050919050565b7f456e7472792066656520746f6b656e20616464726573732063616e6e6f7420625f8201527f65207a65726f20696620656e7472792066656520616d6f756e7420697320677260208201527f6561746572207468616e207a65726f0000000000000000000000000000000000604082015250565b5f6155e5604f83613b03565b91506155f082615565565b606082019050919050565b5f6020820190508181035f830152615612816155d9565b9050919050565b7f456e7472792066656520746f6b656e20686173206e6f20636f6e7472616374205f8201527f636f646500000000000000000000000000000000000000000000000000000000602082015250565b5f615673602483613b03565b915061567e82615619565b604082019050919050565b5f6020820190508181035f8301526156a081615667565b9050919050565b7f496e76616c6964204552432d323020746f6b656e20666f7220656e74727920665f8201527f65653a20746f74616c537570706c792063616c6c206661696c65640000000000602082015250565b5f615701603b83613b03565b915061570c826156a7565b604082019050919050565b5f6020820190508181035f83015261572e816156f5565b9050919050565b7f456e7472792066656520746f6b656e2061646472657373206d757374206265205f8201527f7a65726f20696620656e7472792066656520616d6f756e74206973207a65726f602082015250565b5f61578f604083613b03565b915061579a82615735565b604082019050919050565b5f6020820190508181035f8301526157bc81615783565b9050919050565b7f4d75737420776974686472617720455448207072697a6520706f6f6c206265665f8201527f6f7265206e657720726964646c65000000000000000000000000000000000000602082015250565b5f61581d602e83613b03565b9150615828826157c3565b604082019050919050565b5f6020820190508181035f83015261584a81615811565b9050919050565b7f4d75737420776974686472617720746f6b656e207072697a6520706f6f6c20625f8201527f65666f7265206e657720726964646c6500000000000000000000000000000000602082015250565b5f6158ab603083613b03565b91506158b682615851565b604082019050919050565b5f6020820190508181035f8301526158d88161589f565b9050919050565b5f60ff82169050919050565b6158f4816158df565b82525050565b5f60a08201905061590d5f830188613f3d565b61591a60208301876158eb565b6159276040830186613cdb565b6159346060830185613c0a565b6159416080830184613cdb565b9695505050505050565b5f60608201905061595e5f830186613cdb565b61596b6020830185613cdb565b6159786040830184613c0a565b949350505050565b5f6040820190506159935f830185613cdb565b6159a06020830184613c0a565b9392505050565b7f57696e6e657220616464726573732063616e6e6f74206265207a65726f0000005f82015250565b5f6159db601d83613b03565b91506159e6826159a7565b602082019050919050565b5f6020820190508181035f830152615a08816159cf565b9050919050565b7f496e73756666696369656e7420455448207072697a6520706f6f6c2062616c615f8201527f6e63650000000000000000000000000000000000000000000000000000000000602082015250565b5f615a69602383613b03565b9150615a7482615a0f565b604082019050919050565b5f6020820190508181035f830152615a9681615a5d565b9050919050565b7f496e73756666696369656e7420636f6e7472616374204554482062616c616e635f8201527f6500000000000000000000000000000000000000000000000000000000000000602082015250565b5f615af7602183613b03565b9150615b0282615a9d565b604082019050919050565b5f6020820190508181035f830152615b2481615aeb565b9050919050565b7f455448207472616e73666572206661696c6564000000000000000000000000005f82015250565b5f615b5f601383613b03565b9150615b6a82615b2b565b602082019050919050565b5f6020820190508181035f830152615b8c81615b53565b9050919050565b7f496e73756666696369656e74204552433230207072697a6520706f6f6c2062615f8201527f6c616e6365000000000000000000000000000000000000000000000000000000602082015250565b5f615bed602583613b03565b9150615bf882615b93565b604082019050919050565b5f6020820190508181035f830152615c1a81615be1565b905091905056fea2646970667358221220e006109255413d9d44ac6d7a33adf9f5d3955d85b281bfbebac879c1f5ce3e0764736f6c634300081e0033","linkReferences":{}},"methodIdentifiers":{"ENTRY_FEE()":"f6d361cc","RETRY_COST()":"57aa0ea2","balances(address)":"27e235e3","committedAt(uint256,address)":"c06a5fc5","committedGuesses(uint256,address)":"b7173e77","currentRiddleId()":"ecdc6c23","deposit()":"d0e30db0","enterGame(uint256)":"43d6582b","entryFeeToken()":"7b149763","ethPrizePool()":"95664a3d","fundTokenPrizePool(uint256)":"48b06e87","getPrizeToken()":"c7cd6959","hasClaimed(uint256,address)":"873f6f9e","hasParticipated(uint256,address)":"a34398a2","hasRevealed(uint256,address)":"16b5551d","isWinner(uint256,address)":"bdd415af","owner()":"8da5cb5b","ownerWithdraw(uint256)":"33f707d1","ownerWithdrawTokens(uint256)":"60972120","playerRetries(uint256,address)":"29c17990","prizeAmount()":"785fa627","prizeToken()":"d0ef024a","prizeType()":"fcdf8e89","purchaseRetry(uint256)":"7a11e941","renounceOwnership()":"715018a6","retryToken()":"219fc385","revealDelay()":"53236d74","revealGuess(uint256,string)":"12b5afc1","revealedGuessHash(uint256,address)":"188240cd","setRevealDelay(uint256)":"a68c25d8","setRiddle(uint256,bytes32,uint8,address,uint256,address)":"f9f82e9c","solveRiddleAndClaim(string)":"dc663b53","submitGuess(uint256,bytes32)":"e4d33ee3","tokenPrizePool()":"c310e242","transferOwnership(address)":"f2fde38b","winners(uint256,uint256)":"0efc8865","withdraw(uint256)":"2e1a7d4d"},"id":2}