{"abi":[{"type":"constructor","inputs":[{"name":"initialOwner","type":"address","internalType":"address"},{"name":"_retryTokenAddress","type":"address","internalType":"address"}],"stateMutability":"nonpayable"},{"type":"receive","stateMutability":"payable"},{"type":"function","name":"ENTRY_FEE","inputs":[],"outputs":[{"name":"","type":"uint256","internalType":"uint256"}],"stateMutability":"view"},{"type":"function","name":"MAX_RETRIES","inputs":[],"outputs":[{"name":"","type":"uint256","internalType":"uint256"}],"stateMutability":"view"},{"type":"function","name":"RETRY_COST","inputs":[],"outputs":[{"name":"","type":"uint256","internalType":"uint256"}],"stateMutability":"view"},{"type":"function","name":"balances","inputs":[{"name":"","type":"address","internalType":"address"}],"outputs":[{"name":"","type":"uint256","internalType":"uint256"}],"stateMutability":"view"},{"type":"function","name":"committedAt","inputs":[{"name":"","type":"uint256","internalType":"uint256"},{"name":"","type":"address","internalType":"address"}],"outputs":[{"name":"","type":"uint256","internalType":"uint256"}],"stateMutability":"view"},{"type":"function","name":"committedGuesses","inputs":[{"name":"","type":"uint256","internalType":"uint256"},{"name":"","type":"address","internalType":"address"}],"outputs":[{"name":"","type":"bytes32","internalType":"bytes32"}],"stateMutability":"view"},{"type":"function","name":"currentRiddleId","inputs":[],"outputs":[{"name":"","type":"uint256","internalType":"uint256"}],"stateMutability":"view"},{"type":"function","name":"deposit","inputs":[],"outputs":[],"stateMutability":"payable"},{"type":"function","name":"enterGame","inputs":[{"name":"_riddleId","type":"uint256","internalType":"uint256"}],"outputs":[],"stateMutability":"nonpayable"},{"type":"function","name":"entryFeeToken","inputs":[],"outputs":[{"name":"","type":"address","internalType":"contract IERC20"}],"stateMutability":"view"},{"type":"function","name":"ethPrizePool","inputs":[],"outputs":[{"name":"","type":"uint256","internalType":"uint256"}],"stateMutability":"view"},{"type":"function","name":"fundTokenPrizePool","inputs":[{"name":"_amount","type":"uint256","internalType":"uint256"}],"outputs":[],"stateMutability":"nonpayable"},{"type":"function","name":"getPrizeToken","inputs":[],"outputs":[{"name":"","type":"address","internalType":"address"}],"stateMutability":"view"},{"type":"function","name":"hasClaimed","inputs":[{"name":"","type":"uint256","internalType":"uint256"},{"name":"","type":"address","internalType":"address"}],"outputs":[{"name":"","type":"bool","internalType":"bool"}],"stateMutability":"view"},{"type":"function","name":"hasParticipated","inputs":[{"name":"","type":"uint256","internalType":"uint256"},{"name":"","type":"address","internalType":"address"}],"outputs":[{"name":"","type":"bool","internalType":"bool"}],"stateMutability":"view"},{"type":"function","name":"hasReceivedRemainder","inputs":[{"name":"","type":"uint256","internalType":"uint256"},{"name":"","type":"address","internalType":"address"}],"outputs":[{"name":"","type":"bool","internalType":"bool"}],"stateMutability":"view"},{"type":"function","name":"hasRevealed","inputs":[{"name":"","type":"uint256","internalType":"uint256"},{"name":"","type":"address","internalType":"address"}],"outputs":[{"name":"","type":"bool","internalType":"bool"}],"stateMutability":"view"},{"type":"function","name":"isPaidOut","inputs":[{"name":"","type":"uint256","internalType":"uint256"}],"outputs":[{"name":"","type":"bool","internalType":"bool"}],"stateMutability":"view"},{"type":"function","name":"isWinner","inputs":[{"name":"","type":"uint256","internalType":"uint256"},{"name":"","type":"address","internalType":"address"}],"outputs":[{"name":"","type":"bool","internalType":"bool"}],"stateMutability":"view"},{"type":"function","name":"owner","inputs":[],"outputs":[{"name":"","type":"address","internalType":"address"}],"stateMutability":"view"},{"type":"function","name":"ownerWithdraw","inputs":[{"name":"_amount","type":"uint256","internalType":"uint256"}],"outputs":[],"stateMutability":"nonpayable"},{"type":"function","name":"ownerWithdrawTokens","inputs":[{"name":"_amount","type":"uint256","internalType":"uint256"}],"outputs":[],"stateMutability":"nonpayable"},{"type":"function","name":"paidWinnersCount","inputs":[{"name":"","type":"uint256","internalType":"uint256"}],"outputs":[{"name":"","type":"uint256","internalType":"uint256"}],"stateMutability":"view"},{"type":"function","name":"payout","inputs":[{"name":"_riddleId","type":"uint256","internalType":"uint256"},{"name":"_winnersBatch","type":"address[]","internalType":"address[]"}],"outputs":[],"stateMutability":"nonpayable"},{"type":"function","name":"purchaseRetry","inputs":[{"name":"_riddleId","type":"uint256","internalType":"uint256"}],"outputs":[],"stateMutability":"nonpayable"},{"type":"function","name":"renounceOwnership","inputs":[],"outputs":[],"stateMutability":"nonpayable"},{"type":"function","name":"retries","inputs":[{"name":"","type":"address","internalType":"address"}],"outputs":[{"name":"","type":"uint256","internalType":"uint256"}],"stateMutability":"view"},{"type":"function","name":"retryToken","inputs":[],"outputs":[{"name":"","type":"address","internalType":"contract IERC20"}],"stateMutability":"view"},{"type":"function","name":"revealDelay","inputs":[],"outputs":[{"name":"","type":"uint256","internalType":"uint256"}],"stateMutability":"view"},{"type":"function","name":"revealGuess","inputs":[{"name":"_riddleId","type":"uint256","internalType":"uint256"},{"name":"_guess","type":"string","internalType":"string"}],"outputs":[],"stateMutability":"nonpayable"},{"type":"function","name":"revealedGuessHash","inputs":[{"name":"","type":"uint256","internalType":"uint256"},{"name":"","type":"address","internalType":"address"}],"outputs":[{"name":"","type":"bytes32","internalType":"bytes32"}],"stateMutability":"view"},{"type":"function","name":"riddleConfigs","inputs":[{"name":"","type":"uint256","internalType":"uint256"}],"outputs":[{"name":"prizeAmount","type":"uint256","internalType":"uint256"},{"name":"prizeType","type":"uint8","internalType":"enum Vaultis.PrizeType"},{"name":"prizeToken","type":"address","internalType":"contract IERC20"}],"stateMutability":"view"},{"type":"function","name":"setRevealDelay","inputs":[{"name":"_newRevealDelay","type":"uint256","internalType":"uint256"}],"outputs":[],"stateMutability":"nonpayable"},{"type":"function","name":"setRiddle","inputs":[{"name":"_riddleId","type":"uint256","internalType":"uint256"},{"name":"_answerHash","type":"bytes32","internalType":"bytes32"},{"name":"_prizeType","type":"uint8","internalType":"enum Vaultis.PrizeType"},{"name":"_prizeTokenAddress","type":"address","internalType":"address"},{"name":"_prizeAmount","type":"uint256","internalType":"uint256"},{"name":"_entryFeeTokenAddress","type":"address","internalType":"address"}],"outputs":[],"stateMutability":"nonpayable"},{"type":"function","name":"solveRiddleAndClaim","inputs":[{"name":"_answer","type":"string","internalType":"string"}],"outputs":[],"stateMutability":"nonpayable"},{"type":"function","name":"submitGuess","inputs":[{"name":"_riddleId","type":"uint256","internalType":"uint256"},{"name":"_guessHash","type":"bytes32","internalType":"bytes32"}],"outputs":[],"stateMutability":"nonpayable"},{"type":"function","name":"tokenPrizePool","inputs":[],"outputs":[{"name":"","type":"uint256","internalType":"uint256"}],"stateMutability":"view"},{"type":"function","name":"totalPrizeDistributed","inputs":[{"name":"","type":"uint256","internalType":"uint256"}],"outputs":[{"name":"","type":"uint256","internalType":"uint256"}],"stateMutability":"view"},{"type":"function","name":"totalWinnersCount","inputs":[{"name":"","type":"uint256","internalType":"uint256"}],"outputs":[{"name":"","type":"uint256","internalType":"uint256"}],"stateMutability":"view"},{"type":"function","name":"transferOwnership","inputs":[{"name":"newOwner","type":"address","internalType":"address"}],"outputs":[],"stateMutability":"nonpayable"},{"type":"function","name":"winners","inputs":[{"name":"","type":"uint256","internalType":"uint256"},{"name":"","type":"uint256","internalType":"uint256"}],"outputs":[{"name":"","type":"address","internalType":"address"}],"stateMutability":"view"},{"type":"function","name":"withdraw","inputs":[{"name":"_amount","type":"uint256","internalType":"uint256"}],"outputs":[],"stateMutability":"nonpayable"},{"type":"event","name":"Deposit","inputs":[{"name":"user","type":"address","indexed":true,"internalType":"address"},{"name":"amount","type":"uint256","indexed":false,"internalType":"uint256"}],"anonymous":false},{"type":"event","name":"EntryFeeCollected","inputs":[{"name":"player","type":"address","indexed":true,"internalType":"address"},{"name":"token","type":"address","indexed":true,"internalType":"address"},{"name":"amount","type":"uint256","indexed":false,"internalType":"uint256"},{"name":"riddleId","type":"uint256","indexed":true,"internalType":"uint256"}],"anonymous":false},{"type":"event","name":"EthReceived","inputs":[{"name":"sender","type":"address","indexed":true,"internalType":"address"},{"name":"amount","type":"uint256","indexed":false,"internalType":"uint256"}],"anonymous":false},{"type":"event","name":"GuessEvaluated","inputs":[{"name":"riddleId","type":"uint256","indexed":true,"internalType":"uint256"},{"name":"player","type":"address","indexed":true,"internalType":"address"},{"name":"timestamp","type":"uint256","indexed":false,"internalType":"uint256"},{"name":"isWinner","type":"bool","indexed":false,"internalType":"bool"}],"anonymous":false},{"type":"event","name":"GuessRevealed","inputs":[{"name":"player","type":"address","indexed":true,"internalType":"address"},{"name":"riddleId","type":"uint256","indexed":true,"internalType":"uint256"},{"name":"revealedHash","type":"bytes32","indexed":false,"internalType":"bytes32"}],"anonymous":false},{"type":"event","name":"GuessSubmitted","inputs":[{"name":"player","type":"address","indexed":true,"internalType":"address"},{"name":"riddleId","type":"uint256","indexed":true,"internalType":"uint256"},{"name":"guessHash","type":"bytes32","indexed":false,"internalType":"bytes32"}],"anonymous":false},{"type":"event","name":"OwnerWithdrawTokens","inputs":[{"name":"amount","type":"uint256","indexed":false,"internalType":"uint256"}],"anonymous":false},{"type":"event","name":"OwnerWithdrawal","inputs":[{"name":"owner","type":"address","indexed":true,"internalType":"address"},{"name":"amount","type":"uint256","indexed":false,"internalType":"uint256"}],"anonymous":false},{"type":"event","name":"OwnershipTransferred","inputs":[{"name":"previousOwner","type":"address","indexed":true,"internalType":"address"},{"name":"newOwner","type":"address","indexed":true,"internalType":"address"}],"anonymous":false},{"type":"event","name":"PayoutExecuted","inputs":[{"name":"riddleId","type":"uint256","indexed":true,"internalType":"uint256"},{"name":"winnerCount","type":"uint256","indexed":false,"internalType":"uint256"},{"name":"totalAmount","type":"uint256","indexed":false,"internalType":"uint256"},{"name":"prizeType","type":"uint8","indexed":false,"internalType":"enum Vaultis.PrizeType"}],"anonymous":false},{"type":"event","name":"PlayerEntered","inputs":[{"name":"player","type":"address","indexed":true,"internalType":"address"},{"name":"riddleId","type":"uint256","indexed":true,"internalType":"uint256"}],"anonymous":false},{"type":"event","name":"PrizeDistributed","inputs":[{"name":"winner","type":"address","indexed":true,"internalType":"address"},{"name":"amount","type":"uint256","indexed":false,"internalType":"uint256"},{"name":"prizeType","type":"uint8","indexed":false,"internalType":"enum Vaultis.PrizeType"}],"anonymous":false},{"type":"event","name":"PrizeFunded","inputs":[{"name":"funder","type":"address","indexed":true,"internalType":"address"},{"name":"amount","type":"uint256","indexed":false,"internalType":"uint256"},{"name":"prizeType","type":"uint8","indexed":false,"internalType":"enum Vaultis.PrizeType"}],"anonymous":false},{"type":"event","name":"RetryPurchased","inputs":[{"name":"player","type":"address","indexed":true,"internalType":"address"},{"name":"riddleId","type":"uint256","indexed":true,"internalType":"uint256"},{"name":"cost","type":"uint256","indexed":false,"internalType":"uint256"},{"name":"newRetryCount","type":"uint256","indexed":false,"internalType":"uint256"}],"anonymous":false},{"type":"event","name":"RiddleInitialized","inputs":[{"name":"riddleId","type":"uint256","indexed":true,"internalType":"uint256"},{"name":"answerHash","type":"bytes32","indexed":false,"internalType":"bytes32"},{"name":"prizeType","type":"uint8","indexed":false,"internalType":"uint8"},{"name":"prizeTokenAddress","type":"address","indexed":false,"internalType":"address"},{"name":"prizeAmount","type":"uint256","indexed":false,"internalType":"uint256"},{"name":"entryFeeTokenAddress","type":"address","indexed":false,"internalType":"address"}],"anonymous":false},{"type":"event","name":"WinnerFound","inputs":[{"name":"winner","type":"address","indexed":true,"internalType":"address"},{"name":"riddleId","type":"uint256","indexed":true,"internalType":"uint256"}],"anonymous":false},{"type":"event","name":"Withdrawal","inputs":[{"name":"user","type":"address","indexed":true,"internalType":"address"},{"name":"amount","type":"uint256","indexed":false,"internalType":"uint256"}],"anonymous":false},{"type":"error","name":"OwnableInvalidOwner","inputs":[{"name":"owner","type":"address","internalType":"address"}]},{"type":"error","name":"OwnableUnauthorizedAccount","inputs":[{"name":"account","type":"address","internalType":"address"}]},{"type":"error","name":"ReentrancyGuardReentrantCall","inputs":[]},{"type":"error","name":"SafeERC20FailedOperation","inputs":[{"name":"token","type":"address","internalType":"address"}]}],"bytecode":{"object":"0x6080806040523461019c5760408161360e803803809161001f828561024c565b83398101031261019c5761003e602061003783610283565b9201610283565b6001600160a01b03909116908115610239575f80546001600160a01b031981168417825560405193916001600160a01b03909116907f8be0079c531659141344cd1fd0a4f28419497f9722a3daafe3b4186f6b6457e09080a3600180556001600160a01b0381169182156101ec57503b156101a8576040516318160ddd60e01b8152602081600481855afa9081610175575b506101405760405162461bcd60e51b815260206004820152603760248201527f496e76616c6964204552432d323020746f6b656e20666f722072657472793a2060448201527f746f74616c537570706c792063616c6c206661696c65640000000000000000006064820152608490fd5b600680546001600160a01b0319908116909155610e106011556008805490911691909117905560405161337690816102988239f35b6020813d6020116101a0575b8161018e6020938361024c565b8101031261019c57516100d0565b5f80fd5b3d9150610181565b606460405162461bcd60e51b815260206004820152602060248201527f526574727920746f6b656e20686173206e6f20636f6e747261637420636f64656044820152fd5b62461bcd60e51b815260206004820152602260248201527f526574727920746f6b656e20616464726573732063616e6e6f74206265207a65604482015261726f60f01b6064820152608490fd5b631e4fbdf760e01b5f525f60045260245ffd5b601f909101601f19168101906001600160401b0382119082101761026f57604052565b634e487b7160e01b5f52604160045260245ffd5b51906001600160a01b038216820361019c5756fe608060405260043610156100ac575b3615610018575f80fd5b341561005b5761002a34600454612e69565b6004556040513481527f85177f287940f2f05425a4029951af0e047a7f9c4eaa9a6e6917bcd869f8669560203392a2005b60405162461bcd60e51b8152602060048201526024808201527f45544820616d6f756e74206d7573742062652067726561746572207468616e206044820152637a65726f60e01b6064820152608490fd5b5f3560e01c80630efc886514612c9557806312b5afc1146129a757806316b5551d1461295e578063188240cd1461291a578063219fc385146128f257806327e235e3146128ba5780632e1a7d4d1461275657806333f707d1146125cc57806343d6582b146122b457806346ebbdb01461229957806348b06e871461212157806353236d7414612104578063569eaf61146120d557806357aa0ea2146120b35780636097212014611f4d578063715018a614611ef65780637a11e94114611b875780637b14976314611b5f578063873f6f9e14611b165780638da5cb5b14611aef57806394c9d9bc14611aa657806395664a3d14611a89578063a34398a214611a40578063a68c25d814611a1f578063a6dbce24146119ce578063b7173e771461198a578063bdd415af14611941578063c06a5fc5146118fd578063c310e242146118e0578063c7cd6959146118a9578063c8e728f9146110a9578063d0e30db014610fef578063d56c52ed14610fc5578063dbbd324514610f8d578063dc663b5314610ce7578063e4d33ee314610996578063ecdc6c2314610979578063f2fde38b146108f4578063f6d361cc146108d2578063f7c7e144146108a8578063f9f82e9c146102ac5763fab160170361000e57346102a85760203660031901126102a8576004355f526018602052602060405f2054604051908152f35b5f80fd5b346102a85760c03660031901126102a85760043560243560443560028110156102a8576064356001600160a01b03811692908381036102a85760a4356001600160a01b0381169160843591908382036102a857610307612fd0565b610312881515612d85565b60035488111561085457610327831515612f55565b600186036107f1578615610791573b1561074d576040516318160ddd60e01b81526020816004818a5afa908161071e575b506103b85760405162461bcd60e51b815260206004820152602d60248201527f496e76616c6964204552432d323020746f6b656e3a20746f74616c537570706c60448201526c1e4818d85b1b0819985a5b1959609a1b6064820152608490fd5b821561069b573b1561064a576040516318160ddd60e01b8152602081600481865afa908161061b575b506104515760405162461bcd60e51b815260206004820152603b60248201527f496e76616c6964204552432d323020746f6b656e20666f7220656e747279206660448201527f65653a20746f74616c537570706c792063616c6c206661696c656400000000006064820152608490fd5b600680546001600160a01b031916831790556004546105bf57600554610561578560035582601255604051946060860186811067ffffffffffffffff82111761054d57604052818652602086019585875260016040820191838352895f52600760205260405f2090518155019651956002871015610539577f05227007ca99c4e41f51fb024dcb2065e16bd026db353ce7f322e5cdb4fb2e9d9760a09760ff9384835491610100600160a81b03905160081b169216906affffffffffffffffffffff60a81b1617179055604051958652166020850152604084015260608301526080820152a2005b634e487b7160e01b5f52602160045260245ffd5b634e487b7160e01b5f52604160045260245ffd5b60405162461bcd60e51b815260206004820152603060248201527f4d75737420776974686472617720746f6b656e207072697a6520706f6f6c206260448201526f65666f7265206e657720726964646c6560801b6064820152608490fd5b60405162461bcd60e51b815260206004820152602e60248201527f4d75737420776974686472617720455448207072697a6520706f6f6c2062656660448201526d6f7265206e657720726964646c6560901b6064820152608490fd5b6020813d602011610642575b8161063460209383612d0e565b810103126102a857516103e1565b3d9150610627565b60405162461bcd60e51b8152602060048201526024808201527f456e7472792066656520746f6b656e20686173206e6f20636f6e747261637420604482015263636f646560e01b6064820152608490fd5b60405162461bcd60e51b815260206004820152604f60248201527f456e7472792066656520746f6b656e20616464726573732063616e6e6f74206260448201527f65207a65726f20696620656e7472792066656520616d6f756e7420697320677260648201526e6561746572207468616e207a65726f60881b608482015260a490fd5b6020813d602011610745575b8161073760209383612d0e565b810103126102a85751610358565b3d915061072a565b606460405162461bcd60e51b815260206004820152602060248201527f5072697a6520746f6b656e20686173206e6f20636f6e747261637420636f64656044820152fd5b60405162461bcd60e51b815260206004820152603260248201527f5072697a6520746f6b656e20616464726573732063616e6e6f74206265207a65604482015271726f20666f72204552433230207072697a6560701b6064820152608490fd5b5085156103b85760405162461bcd60e51b815260206004820152602e60248201527f5072697a6520746f6b656e2061646472657373206d757374206265207a65726f60448201526d20666f7220455448207072697a6560901b6064820152608490fd5b60405162461bcd60e51b815260206004820152602660248201527f526964646c65204944206d7573742062652067726561746572207468616e20636044820152651d5c9c995b9d60d21b6064820152608490fd5b346102a85760203660031901126102a8576004355f526019602052602060405f2054604051908152f35b346102a8575f3660031901126102a8576020604051670de0b6b3a76400008152f35b346102a85760203660031901126102a85761090d612d62565b610915612fd0565b6001600160a01b03168015610966575f80546001600160a01b03198116831782556001600160a01b0316907f8be0079c531659141344cd1fd0a4f28419497f9722a3daafe3b4186f6b6457e09080a3005b631e4fbdf760e01b5f525f60045260245ffd5b346102a8575f3660031901126102a8576020600354604051908152f35b346102a85760403660031901126102a8576004356024356109b5612fb0565b6109c0821515612d85565b6109cd6003548314612dd1565b8015610ca2575f8281526009602090815260408083203384529091529020546109f89060ff16612e1d565b5f828152600d60209081526040808320338452909152902054610bc1575b6012548103610b89575f82815260146020908152604080832033845290915290205460ff1615610ad9575b60405142815260016020820152827f6dbad7911810fc45c016aff41534b7adcd5477454a9b5be0d995a93518cde67560403393a35b5f828152600d6020908152604080832033808552908352818420859055858452600e83528184208185528352928190204290555192835290917fc5009e6865ae04f58da43f80d7eb9718a2f25a7ccfeb22a8ca0031e77b86b50a9190a360018055005b815f52601360205260405f2080546801000000000000000081101561054d57610b0791600182018155612ce5565b81546001600160a01b0360039290921b91821b1916339182901b179091555f838152601460209081526040808320938352928152828220805460ff1916600117905584825260189052208054610b5c90612f33565b905581337fb5d93c368c4bd18876654db9fd5dcef5a3583ccde4d81659e7f309f36c8449055f80a3610a41565b6040514281525f6020820152827f6dbad7911810fc45c016aff41534b7adcd5477454a9b5be0d995a93518cde67560403393a3610a76565b335f52600b60205260405f205415610c6657335f52600b60205260405f2080548015610c52575f190190555f828152600d6020908152604080832033808552908352818420849055858452600e83528184208185528352818420849055858452600f83528184208185528352818420849055858452601083528184209084529091529020805460ff19169055610a16565b634e487b7160e01b5f52601160045260245ffd5b60405162461bcd60e51b81526020600482015260146024820152734e6f207265747269657320617661696c61626c6560601b6044820152606490fd5b60405162461bcd60e51b815260206004820152601960248201527f477565737320686173682063616e6e6f74206265207a65726f000000000000006044820152606490fd5b346102a85760203660031901126102a85760043567ffffffffffffffff81116102a857366023820112156102a857806004013567ffffffffffffffff81116102a85736602482840101116102a857610d3d612fb0565b60035491610d4c831515612eb2565b5f838152600960209081526040808320338452909152902054610d719060ff16612e1d565b5f838152600a6020908152604080832033845290915290205460ff16610f56575f83815260106020908152604080832033845290915290205460ff1615610f1257825f52600f60205260405f2060018060a01b0333165f5260205260405f205491610dfc602060405183819460248484019701873781015f838201520301601f198101835282612d0e565b51902003610eb7575f52600a60205260405f2060018060a01b0333165f5260205260405f20600160ff198254161790556003545f526007602052610e5c60405f20600181549101549060ff60018060a01b038360081c1692169033613033565b6003545f52601960205260405f20610e748154612f33565b9055600380545f908152600f6020908152604080832033808552908352818420849055935483526010825280832093835292905220805460ff1916905560018055005b60405162461bcd60e51b815260206004820152602d60248201527f52657665616c656420677565737320646f6573206e6f74206d6174636820707260448201526c37bb34b232b21030b739bbb2b960991b6064820152608490fd5b606460405162461bcd60e51b815260206004820152602060248201527f4d7573742072657665616c206775657373206265666f726520736f6c76696e676044820152fd5b60405162461bcd60e51b815260206004820152600f60248201526e105b1c9958591e4818db185a5b5959608a1b6044820152606490fd5b346102a85760203660031901126102a8576001600160a01b03610fae612d62565b165f52600b602052602060405f2054604051908152f35b346102a85760203660031901126102a8576004355f526015602052602060405f2054604051908152f35b5f3660031901126102a857611002612fb0565b341561105357335f52600260205260405f2061101f348254612e69565b90556040513481527fe1fffcc4923d04b559f4d29a8bfc6cda04eb5b0d3c460751c2402c5c5cc9109c60203392a260018055005b60405162461bcd60e51b815260206004820152602860248201527f4465706f73697420616d6f756e74206d7573742062652067726561746572207460448201526768616e207a65726f60c01b6064820152608490fd5b346102a85760403660031901126102a85760043560243567ffffffffffffffff81116102a857366023820112156102a85780600401359067ffffffffffffffff821161054d578160051b90604051926111056020840185612d0e565b835260246020840192820101903682116102a857602401915b81831061188957505050611130612fd0565b611138612fb0565b81156118385760035482116117e9578051156117a457815f52601760205260ff60405f20541661174f57815f52600760205260405f20915f925b825184101561122b5760018401808511610c52575b8351811015611220576001600160a01b036111a28686612f41565b51166001600160a01b036111b68387612f41565b5116146111c557600101611187565b60405162461bcd60e51b815260206004820152602d60248201527f4475706c69636174652077696e6e6572206164647265737320696e206261746360448201526c1a081b9bdd08185b1b1bddd959609a1b6064820152608490fd5b509260010192611172565b82825f52601860205260405f20549283156116fc57825484810694900480158015906116f3575b1561169a575f915f935f5b815181101561139a576001600160a01b036112788284612f41565b5116835f52601460205260405f2060018060a01b0382165f5260205260ff60405f20541680611371575b6112b0575b5060010161125d565b946112bd90969196612f33565b94849089151580611348575b80611329575b6112e8575b506112e190600192612e69565b95906112a7565b600186019150818611610c52575f8581526016602090815260408083206001600160a01b03909416835292905220805460ff191660011790556112e16112d4565b50845f526019602052896113418860405f2054612e69565b11156112cf565b50845f52601660205260405f2060018060a01b0382165f5260205260ff60405f205416156112c9565b50835f52600a60205260405f2060018060a01b0382165f5260205260ff60405f205416156112a2565b5092949094156116455760010160ff815416600281101561053957806115d05750836004541061156e575b5f92855f5b82518110156114e6576001600160a01b036113e58285612f41565b5116825f52600a60205260405f2060018060a01b0382165f5260205260ff60405f20541615611418575b506001016113ca565b825f97929752600a60205260405f2060018060a01b0382165f5260205260405f20600160ff19825416179055825f52601960205260405f2061145a8154612f33565b90558590835f52601660205260405f2060018060a01b0382165f5260205260ff60405f2054166114cd575b916114c16114c692600194865f52601560205260405f206114a7838254612e69565b905588549160ff878060a01b038460081c16931691613033565b612f33565b959061140f565b919250506001850190818611610c525788929190611485565b50807f05b3fb943ea68b7671b7ed75aaf73035d0a2b890f252f1fab94052394cd6db8e60608761152b8a60ff8954169060405193845260208401526040830190612d78565ba2805f52601960205260405f2054815f52601860205260405f205414611552575b60018055005b5f52601760205260405f20600160ff198254161790558061154c565b60405162461bcd60e51b815260206004820152603460248201527f496e73756666696369656e7420455448207072697a6520706f6f6c2062616c616044820152730dcc6ca40ccdee440e0c2f2deeae840c4c2e8c6d60631b6064820152608490fd5b6001036113c5578360055410156113c55760405162461bcd60e51b815260206004820152603660248201527f496e73756666696369656e74204552433230207072697a6520706f6f6c2062616044820152750d8c2dcc6ca40ccdee440e0c2f2deeae840c4c2e8c6d60531b6064820152608490fd5b60405162461bcd60e51b815260206004820152602760248201527f4e6f206e65772077696e6e65727320696e207468697320626174636820746f206044820152661c185e481bdd5d60ca1b6064820152608490fd5b60405162461bcd60e51b815260206004820152602b60248201527f5065722d77696e6e657220616d6f756e74206d7573742062652067726561746560448201526a72207468616e207a65726f60a81b6064820152608490fd5b50841515611252565b60405162461bcd60e51b815260206004820152602560248201527f4e6f2077696e6e657273207265676973746572656420666f72207468697320726044820152646964646c6560d81b6064820152608490fd5b60405162461bcd60e51b815260206004820152602760248201527f5061796f757420616c726561647920657865637574656420666f72207468697360448201526620726964646c6560c81b6064820152608490fd5b60405162461bcd60e51b815260206004820152601d60248201527f57696e6e6572732061727261792063616e6e6f7420626520656d7074790000006044820152606490fd5b60405162461bcd60e51b815260206004820152602160248201527f526964646c65204944206d7573742062652063757272656e74206f72207061736044820152601d60fa1b6064820152608490fd5b60405162461bcd60e51b815260206004820152602360248201527f526964646c65204944206d7573742062652067726561746572207468616e207a60448201526265726f60e81b6064820152608490fd5b82356001600160a01b03811681036102a85781526020928301920161111e565b346102a8575f3660031901126102a8576003545f526007602052602060018060a01b03600160405f20015460081c16604051908152f35b346102a8575f3660031901126102a8576020600554604051908152f35b346102a85760403660031901126102a857611916612d4c565b6004355f52600e60205260405f209060018060a01b03165f52602052602060405f2054604051908152f35b346102a85760403660031901126102a85761195a612d4c565b6004355f52601460205260405f209060018060a01b03165f52602052602060ff60405f2054166040519015158152f35b346102a85760403660031901126102a8576119a3612d4c565b6004355f52600d60205260405f209060018060a01b03165f52602052602060405f2054604051908152f35b346102a85760203660031901126102a8576004355f526007602052606060405f2060018154910154604051918252611a0c6020830160ff8316612d78565b60081c6001600160a01b03166040820152f35b346102a85760203660031901126102a857611a38612fd0565b600435601155005b346102a85760403660031901126102a857611a59612d4c565b6004355f52600960205260405f209060018060a01b03165f52602052602060ff60405f2054166040519015158152f35b346102a8575f3660031901126102a8576020600454604051908152f35b346102a85760403660031901126102a857611abf612d4c565b6004355f52601660205260405f209060018060a01b03165f52602052602060ff60405f2054166040519015158152f35b346102a8575f3660031901126102a8575f546040516001600160a01b039091168152602090f35b346102a85760403660031901126102a857611b2f612d4c565b6004355f52600a60205260405f209060018060a01b03165f52602052602060ff60405f2054166040519015158152f35b346102a8575f3660031901126102a8576006546040516001600160a01b039091168152602090f35b346102a85760203660031901126102a857600435611ba3612fb0565b611bb06003548214612dd1565b5f81815260096020908152604080832033845290915290205460ff1615611ea5576008546001600160a01b031615611e6a57335f52600b602052600360405f20541015611e2f57335f52600c6020528060405f205403611e0e575b6008546040516370a0823160e01b8152306004820152906001600160a01b0316602082602481845afa918215611dcd575f92611dd8575b50611c8690604051906323b872dd60e01b602083015233602483015230604483015267016345785d8a0000606483015260648252611c81608483612d0e565b6132e8565b6008546040516370a0823160e01b815230600482015290602090829060249082906001600160a01b03165afa908115611dcd575f91611d93575b5067016345785d8a000091611cd491612e76565b03611d3e57335f52600b60205260405f20611cef8154612f33565b9055335f52600b60205260405f20546040519067016345785d8a0000825260208201527f98afd9c8b4874dc0b797b810a6a8488429aea97e225fc6e70d948f77660fbee760403392a360018055005b60405162461bcd60e51b815260206004820152602760248201527f526574727920636f7374206d69736d617463682028464f54206e6f7420737570604482015266706f727465642960c81b6064820152608490fd5b90506020813d602011611dc5575b81611dae60209383612d0e565b810103126102a8575167016345785d8a0000611cc0565b3d9150611da1565b6040513d5f823e3d90fd5b9091506020813d602011611e06575b81611df460209383612d0e565b810103126102a8575190611c86611c42565b3d9150611de7565b335f52600b6020525f6040812055335f52600c6020528060405f2055611c0b565b60405162461bcd60e51b815260206004820152601360248201527213585e081c995d1c9a595cc81c995858da1959606a1b6044820152606490fd5b60405162461bcd60e51b815260206004820152601360248201527214995d1c9e481d1bdad95b881b9bdd081cd95d606a1b6044820152606490fd5b60405162461bcd60e51b8152602060048201526024808201527f4d75737420706172746963697061746520696e2074686520726964646c6520666044820152631a5c9cdd60e21b6064820152608490fd5b346102a8575f3660031901126102a857611f0e612fd0565b5f80546001600160a01b0319811682556001600160a01b03167f8be0079c531659141344cd1fd0a4f28419497f9722a3daafe3b4186f6b6457e08280a3005b346102a85760203660031901126102a857600435611f69612fd0565b611f71612fb0565b8015612048576005548181106120035781611ff67f560c2b6d9212838c63f631c64ebc9d7364da90f9af3fdec847c0725dd18330c8936020936003545f5260078552611fdb82600160405f200192611fd660018060a01b03855460081c161515612ef1565b612e76565b600555545f546001600160a01b039081169160081c16612ff6565b604051908152a160018055005b60405162461bcd60e51b815260206004820152601d60248201527f496e73756666696369656e7420746f6b656e207072697a6520706f6f6c0000006044820152606490fd5b60405162461bcd60e51b815260206004820152603760248201527f4f776e657220746f6b656e207769746864726177616c20616d6f756e74206d7560448201527f73742062652067726561746572207468616e207a65726f0000000000000000006064820152608490fd5b346102a8575f3660031901126102a857602060405167016345785d8a00008152f35b346102a85760203660031901126102a8576004355f526017602052602060ff60405f2054166040519015158152f35b346102a8575f3660031901126102a8576020601154604051908152f35b346102a85760203660031901126102a85760043561213d612fd0565b612145612fb0565b8015612255576003545f526007602052600160405f20015460ff8116600281101561053957600103612206576121be9060081c6001600160a01b031661218c811515612ef1565b6040516323b872dd60e01b60208201523360248201523060448201526064808201859052815290611c81608483612d0e565b6121ca81600554612e69565b600555604051908152600160208201527f4708e702157b1eb6cd00a772e6a623599ac7dc0bad76e8c624fdef050b434f0960403392a260018055005b60405162461bcd60e51b815260206004820152602160248201527f43757272656e7420726964646c65207072697a65206973206e6f7420455243326044820152600360fc1b6064820152608490fd5b606460405162461bcd60e51b815260206004820152602060248201527f416d6f756e74206d7573742062652067726561746572207468616e207a65726f6044820152fd5b346102a8575f3660031901126102a857602060405160038152f35b346102a85760203660031901126102a8576004356122d0612fb0565b5f81815260096020908152604080832033845290915290205460ff1661257b57612308600354612301818414612dd1565b1515612eb2565b335f52600c6020528060405f20540361255a575b6006546001600160a01b03168015612515576040516370a0823160e01b8152306004820152602081602481855afa908115611dcd575f916124e3575b5061239b6040516323b872dd60e01b6020820152336024820152306044820152670de0b6b3a7640000606482015260648152612395608482612d0e565b836132e8565b6040516370a0823160e01b815230600482015290602082602481865afa8015611dcd575f906124af575b6123cf9250612e76565b90670de0b6b3a7640000820361245b5782916040519081527f1f8e0e31739d887c754fcf7403fe1bdf6641ef33578b9d08631a7d5e6e9b8fb760203392a45f8181526009602090815260408083203380855292528220805460ff19166001179055907fc16481c9484122696a660b57df0bf6839645c6b620cb1704ac2437de13be92259080a360018055005b60405162461bcd60e51b815260206004820152602660248201527f456e74727920666565206d69736d617463682028464f54206e6f7420737570706044820152656f727465642960d01b6064820152608490fd5b506020823d6020116124db575b816124c960209383612d0e565b810103126102a8576123cf91516123c5565b3d91506124bc565b90506020813d60201161250d575b816124fe60209383612d0e565b810103126102a8575183612358565b3d91506124f1565b60405162461bcd60e51b815260206004820152601760248201527f456e7472792066656520746f6b656e206e6f74207365740000000000000000006044820152606490fd5b335f52600b6020525f6040812055335f52600c6020528060405f205561231c565b60405162461bcd60e51b815260206004820152602360248201527f416c72656164792070617274696369706174656420696e207468697320726964604482015262646c6560e81b6064820152608490fd5b346102a85760203660031901126102a8576004356125e8612fd0565b6125f0612fb0565b80156126f7576004548181106126b2578161260a91612e76565b6004555f8080808460018060a01b0382541662030d40f1612629612e83565b501561266d575f546040519182526001600160a01b0316907fa919fadcfa556a012bab31b15f596ea7ccd397adbf10e15f176db9055ab361c490602090a260018055005b60405162461bcd60e51b815260206004820152601760248201527f4f776e6572207769746864726177616c206661696c65640000000000000000006044820152606490fd5b60405162461bcd60e51b815260206004820152601b60248201527f496e73756666696369656e7420455448207072697a6520706f6f6c00000000006044820152606490fd5b60405162461bcd60e51b815260206004820152603160248201527f4f776e6572207769746864726177616c20616d6f756e74206d7573742062652060448201527067726561746572207468616e207a65726f60781b6064820152608490fd5b346102a85760203660031901126102a857600435612772612fb0565b801561286157335f5260026020528060405f20541061282557335f52600260205260405f206127a2828254612e76565b90555f80808084335af16127b4612e83565b50156127ec576040519081527f7fcf532c15f0a6db0bd6d0e038bea71d30d808c7d98cb3bf7268a95bf5081b6560203392a260018055005b60405162461bcd60e51b815260206004820152601160248201527015da5d1a191c985dd85b0819985a5b1959607a1b6044820152606490fd5b60405162461bcd60e51b8152602060048201526014602482015273496e73756666696369656e742062616c616e636560601b6044820152606490fd5b60405162461bcd60e51b815260206004820152602b60248201527f5769746864726177616c20616d6f756e74206d7573742062652067726561746560448201526a72207468616e207a65726f60a81b6064820152608490fd5b346102a85760203660031901126102a8576001600160a01b036128db612d62565b165f526002602052602060405f2054604051908152f35b346102a8575f3660031901126102a8576008546040516001600160a01b039091168152602090f35b346102a85760403660031901126102a857612933612d4c565b6004355f52600f60205260405f209060018060a01b03165f52602052602060405f2054604051908152f35b346102a85760403660031901126102a857612977612d4c565b6004355f52601060205260405f209060018060a01b03165f52602052602060ff60405f2054166040519015158152f35b346102a85760403660031901126102a85760043560243567ffffffffffffffff81116102a857366023820112156102a8578060040135906129e782612d30565b916129f56040519384612d0e565b808352602083019136602483830101116102a857815f92602460209301853784010152612a20612fb0565b612a2b831515612d85565b612a386003548414612dd1565b5f838152600960209081526040808320338452909152902054612a5d9060ff16612e1d565b5f838152600d6020908152604080832033845290915290205415612c5b575f83815260106020908152604080832033845290915290205460ff16612c23575f838152600e60209081526040808320338452909152902054601154612ac091612e69565b4210612beb57612aef6020604051809382820195518091875e81015f838201520301601f198101835282612d0e565b5190205f828152600d602090815260408083203384529091529020548103612ba6575f828152600f6020908152604080832033808552908352818420859055858452601083528184208185528352818420805460ff19166001179055858452600d83528184208185528352818420849055858452600e83528184208185528352818420939093555192835290917f59d3b853b3060eb254d2f04ecf2d2fba8ec34ae94835cd01eedead529314f5249190a360018055005b60405162461bcd60e51b815260206004820152601c60248201527f52657665616c20646f6573206e6f74206d6174636820636f6d6d6974000000006044820152606490fd5b60405162461bcd60e51b815260206004820152601060248201526f52657665616c20746f6f206561726c7960801b6044820152606490fd5b60405162461bcd60e51b815260206004820152601060248201526f105b1c9958591e481c995d99585b195960821b6044820152606490fd5b60405162461bcd60e51b81526020600482015260126024820152714e6f20636f6d6d697474656420677565737360701b6044820152606490fd5b346102a85760403660031901126102a8576024356004355f52601360205260405f2080548210156102a857602091612ccc91612ce5565b905460405160039290921b1c6001600160a01b03168152f35b8054821015612cfa575f5260205f2001905f90565b634e487b7160e01b5f52603260045260245ffd5b90601f8019910116810190811067ffffffffffffffff82111761054d57604052565b67ffffffffffffffff811161054d57601f01601f191660200190565b602435906001600160a01b03821682036102a857565b600435906001600160a01b03821682036102a857565b9060028210156105395752565b15612d8c57565b60405162461bcd60e51b815260206004820152601860248201527f526964646c652049442063616e6e6f74206265207a65726f00000000000000006044820152606490fd5b15612dd857565b60405162461bcd60e51b815260206004820152601860248201527f4e6f74207468652061637469766520726964646c6520494400000000000000006044820152606490fd5b15612e2457565b60405162461bcd60e51b815260206004820152601960248201527f4d75737420656e746572207468652067616d65206669727374000000000000006044820152606490fd5b91908201809211610c5257565b91908203918211610c5257565b3d15612ead573d90612e9482612d30565b91612ea26040519384612d0e565b82523d5f602084013e565b606090565b15612eb957565b60405162461bcd60e51b815260206004820152601060248201526f4e6f2061637469766520726964646c6560801b6044820152606490fd5b15612ef857565b60405162461bcd60e51b8152602060048201526013602482015272141c9a5e99481d1bdad95b881b9bdd081cd95d606a1b6044820152606490fd5b5f198114610c525760010190565b8051821015612cfa5760209160051b010190565b15612f5c57565b60405162461bcd60e51b815260206004820152602660248201527f5072697a6520616d6f756e74206d7573742062652067726561746572207468616044820152656e207a65726f60d01b6064820152608490fd5b600260015414612fc1576002600155565b633ee5aeb560e01b5f5260045ffd5b5f546001600160a01b03163303612fe357565b63118cdaa760e01b5f523360045260245ffd5b60405163a9059cbb60e01b60208201526001600160a01b03909216602483015260448083019390935291815261303191611c81606483612d0e565b565b6001600160a01b0381169391929184156132a357613052841515612f55565b600283101561053957826131ad57506004549083821061315c5783471061310d575f8085819493613084828496612e76565b6004555af1613091612e83565b50156130d2577fff43c2705b2225c1c9d9d58f088ab64d4fc767737dee523bed37f15fb0c6c3de916130cf6040925b83519283526020830190612d78565ba2565b60405162461bcd60e51b8152602060048201526013602482015272115512081d1c985b9cd9995c8819985a5b1959606a1b6044820152606490fd5b60405162461bcd60e51b815260206004820152602160248201527f496e73756666696369656e7420636f6e7472616374204554482062616c616e636044820152606560f81b6064820152608490fd5b60405162461bcd60e51b815260206004820152602360248201527f496e73756666696369656e7420455448207072697a6520706f6f6c2062616c616044820152626e636560e81b6064820152608490fd5b90600183146131e6575b50507fff43c2705b2225c1c9d9d58f088ab64d4fc767737dee523bed37f15fb0c6c3de916130cf6040926130c0565b9092906131fd6001600160a01b0385161515612ef1565b6005549282841061325057613246836130cf937fff43c2705b2225c1c9d9d58f088ab64d4fc767737dee523bed37f15fb0c6c3de9761323e83604099612e76565b600555612ff6565b92508193506131b7565b60405162461bcd60e51b815260206004820152602560248201527f496e73756666696369656e74204552433230207072697a6520706f6f6c2062616044820152646c616e636560d81b6064820152608490fd5b60405162461bcd60e51b815260206004820152601d60248201527f57696e6e657220616464726573732063616e6e6f74206265207a65726f0000006044820152606490fd5b905f602091828151910182855af115611dcd575f513d61333757506001600160a01b0381163b155b6133175750565b635274afe760e01b5f9081526001600160a01b0391909116600452602490fd5b6001141561331056fea264697066735822122087b9d6ad39d97bdbf6de0ef2792ad973624765fe607612c91b9e7a303c2feb5764736f6c634300081e0033","linkReferences":{}},"methodIdentifiers":{"ENTRY_FEE()":"f6d361cc","MAX_RETRIES()":"46ebbdb0","RETRY_COST()":"57aa0ea2","balances(address)":"27e235e3","committedAt(uint256,address)":"c06a5fc5","committedGuesses(uint256,address)":"b7173e77","currentRiddleId()":"ecdc6c23","deposit()":"d0e30db0","enterGame(uint256)":"43d6582b","entryFeeToken()":"7b149763","ethPrizePool()":"95664a3d","fundTokenPrizePool(uint256)":"48b06e87","getPrizeToken()":"c7cd6959","hasClaimed(uint256,address)":"873f6f9e","hasParticipated(uint256,address)":"a34398a2","hasReceivedRemainder(uint256,address)":"94c9d9bc","hasRevealed(uint256,address)":"16b5551d","isPaidOut(uint256)":"569eaf61","isWinner(uint256,address)":"bdd415af","owner()":"8da5cb5b","ownerWithdraw(uint256)":"33f707d1","ownerWithdrawTokens(uint256)":"60972120","paidWinnersCount(uint256)":"f7c7e144","payout(uint256,address[])":"c8e728f9","purchaseRetry(uint256)":"7a11e941","renounceOwnership()":"715018a6","retries(address)":"dbbd3245","retryToken()":"219fc385","revealDelay()":"53236d74","revealGuess(uint256,string)":"12b5afc1","revealedGuessHash(uint256,address)":"188240cd","riddleConfigs(uint256)":"a6dbce24","setRevealDelay(uint256)":"a68c25d8","setRiddle(uint256,bytes32,uint8,address,uint256,address)":"f9f82e9c","solveRiddleAndClaim(string)":"dc663b53","submitGuess(uint256,bytes32)":"e4d33ee3","tokenPrizePool()":"c310e242","totalPrizeDistributed(uint256)":"d56c52ed","totalWinnersCount(uint256)":"fab16017","transferOwnership(address)":"f2fde38b","winners(uint256,uint256)":"0efc8865","withdraw(uint256)":"2e1a7d4d"},"id":2}