{"abi":[{"type":"constructor","inputs":[{"name":"initialOwner","type":"address","internalType":"address"}],"stateMutability":"nonpayable"},{"type":"receive","stateMutability":"payable"},{"type":"function","name":"balances","inputs":[{"name":"","type":"address","internalType":"address"}],"outputs":[{"name":"","type":"uint256","internalType":"uint256"}],"stateMutability":"view"},{"type":"function","name":"currentRiddleId","inputs":[],"outputs":[{"name":"","type":"uint256","internalType":"uint256"}],"stateMutability":"view"},{"type":"function","name":"deposit","inputs":[],"outputs":[],"stateMutability":"payable"},{"type":"function","name":"enterGame","inputs":[{"name":"_riddleId","type":"uint256","internalType":"uint256"}],"outputs":[],"stateMutability":"nonpayable"},{"type":"function","name":"entryFeeAmount","inputs":[],"outputs":[{"name":"","type":"uint256","internalType":"uint256"}],"stateMutability":"view"},{"type":"function","name":"entryFeeToken","inputs":[],"outputs":[{"name":"","type":"address","internalType":"contract IERC20"}],"stateMutability":"view"},{"type":"function","name":"ethPrizePool","inputs":[],"outputs":[{"name":"","type":"uint256","internalType":"uint256"}],"stateMutability":"view"},{"type":"function","name":"fundTokenPrizePool","inputs":[{"name":"_amount","type":"uint256","internalType":"uint256"}],"outputs":[],"stateMutability":"nonpayable"},{"type":"function","name":"getPrizeToken","inputs":[],"outputs":[{"name":"","type":"address","internalType":"address"}],"stateMutability":"view"},{"type":"function","name":"hasClaimed","inputs":[{"name":"","type":"uint256","internalType":"uint256"},{"name":"","type":"address","internalType":"address"}],"outputs":[{"name":"","type":"bool","internalType":"bool"}],"stateMutability":"view"},{"type":"function","name":"hasParticipated","inputs":[{"name":"","type":"uint256","internalType":"uint256"},{"name":"","type":"address","internalType":"address"}],"outputs":[{"name":"","type":"bool","internalType":"bool"}],"stateMutability":"view"},{"type":"function","name":"owner","inputs":[],"outputs":[{"name":"","type":"address","internalType":"address"}],"stateMutability":"view"},{"type":"function","name":"ownerWithdraw","inputs":[{"name":"_amount","type":"uint256","internalType":"uint256"}],"outputs":[],"stateMutability":"nonpayable"},{"type":"function","name":"prizeAmount","inputs":[],"outputs":[{"name":"","type":"uint256","internalType":"uint256"}],"stateMutability":"view"},{"type":"function","name":"prizeToken","inputs":[],"outputs":[{"name":"","type":"address","internalType":"contract IERC20"}],"stateMutability":"view"},{"type":"function","name":"prizeType","inputs":[],"outputs":[{"name":"","type":"uint8","internalType":"enum Vaultis.PrizeType"}],"stateMutability":"view"},{"type":"function","name":"renounceOwnership","inputs":[],"outputs":[],"stateMutability":"nonpayable"},{"type":"function","name":"setRiddle","inputs":[{"name":"_riddleId","type":"uint256","internalType":"uint256"},{"name":"_answerHash","type":"bytes32","internalType":"bytes32"},{"name":"_prizeType","type":"uint8","internalType":"enum Vaultis.PrizeType"},{"name":"_prizeTokenAddress","type":"address","internalType":"address"},{"name":"_prizeAmount","type":"uint256","internalType":"uint256"},{"name":"_entryFeeAmount","type":"uint256","internalType":"uint256"},{"name":"_entryFeeTokenAddress","type":"address","internalType":"address"}],"outputs":[],"stateMutability":"nonpayable"},{"type":"function","name":"solveRiddleAndClaim","inputs":[{"name":"_answer","type":"string","internalType":"string"}],"outputs":[],"stateMutability":"nonpayable"},{"type":"function","name":"tokenPrizePool","inputs":[],"outputs":[{"name":"","type":"uint256","internalType":"uint256"}],"stateMutability":"view"},{"type":"function","name":"transferOwnership","inputs":[{"name":"newOwner","type":"address","internalType":"address"}],"outputs":[],"stateMutability":"nonpayable"},{"type":"function","name":"withdraw","inputs":[{"name":"_amount","type":"uint256","internalType":"uint256"}],"outputs":[],"stateMutability":"nonpayable"},{"type":"event","name":"Deposit","inputs":[{"name":"user","type":"address","indexed":true,"internalType":"address"},{"name":"amount","type":"uint256","indexed":false,"internalType":"uint256"}],"anonymous":false},{"type":"event","name":"EntryFeeCollected","inputs":[{"name":"player","type":"address","indexed":true,"internalType":"address"},{"name":"token","type":"address","indexed":true,"internalType":"address"},{"name":"amount","type":"uint256","indexed":false,"internalType":"uint256"},{"name":"riddleId","type":"uint256","indexed":true,"internalType":"uint256"}],"anonymous":false},{"type":"event","name":"EthReceived","inputs":[{"name":"sender","type":"address","indexed":true,"internalType":"address"},{"name":"amount","type":"uint256","indexed":false,"internalType":"uint256"}],"anonymous":false},{"type":"event","name":"OwnerWithdrawal","inputs":[{"name":"owner","type":"address","indexed":true,"internalType":"address"},{"name":"amount","type":"uint256","indexed":false,"internalType":"uint256"}],"anonymous":false},{"type":"event","name":"OwnershipTransferred","inputs":[{"name":"previousOwner","type":"address","indexed":true,"internalType":"address"},{"name":"newOwner","type":"address","indexed":true,"internalType":"address"}],"anonymous":false},{"type":"event","name":"PlayerEntered","inputs":[{"name":"player","type":"address","indexed":true,"internalType":"address"},{"name":"riddleId","type":"uint256","indexed":true,"internalType":"uint256"}],"anonymous":false},{"type":"event","name":"PrizeDistributed","inputs":[{"name":"winner","type":"address","indexed":true,"internalType":"address"},{"name":"amount","type":"uint256","indexed":false,"internalType":"uint256"},{"name":"prizeType","type":"uint8","indexed":false,"internalType":"enum Vaultis.PrizeType"}],"anonymous":false},{"type":"event","name":"PrizeFunded","inputs":[{"name":"funder","type":"address","indexed":true,"internalType":"address"},{"name":"amount","type":"uint256","indexed":false,"internalType":"uint256"},{"name":"prizeType","type":"uint8","indexed":false,"internalType":"enum Vaultis.PrizeType"}],"anonymous":false},{"type":"event","name":"RiddleSet","inputs":[{"name":"riddleId","type":"uint256","indexed":true,"internalType":"uint256"},{"name":"answerHash","type":"bytes32","indexed":false,"internalType":"bytes32"},{"name":"prizeType","type":"uint8","indexed":false,"internalType":"enum Vaultis.PrizeType"},{"name":"prizeTokenAddress","type":"address","indexed":false,"internalType":"address"},{"name":"prizeAmount","type":"uint256","indexed":false,"internalType":"uint256"},{"name":"entryFeeAmount","type":"uint256","indexed":false,"internalType":"uint256"},{"name":"entryFeeTokenAddress","type":"address","indexed":false,"internalType":"address"}],"anonymous":false},{"type":"event","name":"RiddleSet","inputs":[{"name":"riddleId","type":"uint256","indexed":true,"internalType":"uint256"},{"name":"prizeToken","type":"address","indexed":false,"internalType":"address"}],"anonymous":false},{"type":"event","name":"Withdrawal","inputs":[{"name":"user","type":"address","indexed":true,"internalType":"address"},{"name":"amount","type":"uint256","indexed":false,"internalType":"uint256"}],"anonymous":false},{"type":"error","name":"OwnableInvalidOwner","inputs":[{"name":"owner","type":"address","internalType":"address"}]},{"type":"error","name":"OwnableUnauthorizedAccount","inputs":[{"name":"account","type":"address","internalType":"address"}]},{"type":"error","name":"ReentrancyGuardReentrantCall","inputs":[]},{"type":"error","name":"SafeERC20FailedOperation","inputs":[{"name":"token","type":"address","internalType":"address"}]}],"bytecode":{"object":"0x608060405234801561000f575f5ffd5b50604051613e1d380380613e1d8339818101604052810190610031919061021e565b805f73ffffffffffffffffffffffffffffffffffffffff168173ffffffffffffffffffffffffffffffffffffffff16036100a2575f6040517f1e4fbdf70000000000000000000000000000000000000000000000000000000081526004016100999190610258565b60405180910390fd5b6100b1816100ff60201b60201c565b50600180819055505f60095f6101000a81548173ffffffffffffffffffffffffffffffffffffffff021916908373ffffffffffffffffffffffffffffffffffffffff16021790555050610271565b5f5f5f9054906101000a900473ffffffffffffffffffffffffffffffffffffffff169050815f5f6101000a81548173ffffffffffffffffffffffffffffffffffffffff021916908373ffffffffffffffffffffffffffffffffffffffff1602179055508173ffffffffffffffffffffffffffffffffffffffff168173ffffffffffffffffffffffffffffffffffffffff167f8be0079c531659141344cd1fd0a4f28419497f9722a3daafe3b4186f6b6457e060405160405180910390a35050565b5f5ffd5b5f73ffffffffffffffffffffffffffffffffffffffff82169050919050565b5f6101ed826101c4565b9050919050565b6101fd816101e3565b8114610207575f5ffd5b50565b5f81519050610218816101f4565b92915050565b5f60208284031215610233576102326101c0565b5b5f6102408482850161020a565b91505092915050565b610252816101e3565b82525050565b5f60208201905061026b5f830184610249565b92915050565b613b9f8061027e5f395ff3fe608060405260043610610138575f3560e01c806395664a3d116100aa578063d0e30db01161006e578063d0e30db0146104a3578063d0ef024a146104ad578063dc663b53146104d7578063ecdc6c23146104ff578063f2fde38b14610529578063fcdf8e8914610551576101e7565b806395664a3d146103bf578063a34398a2146103e9578063c310e24214610425578063c4e5feb61461044f578063c7cd695914610479576101e7565b806348b06e87116100fc57806348b06e87146102c7578063715018a6146102ef578063785fa627146103055780637b1497631461032f578063873f6f9e146103595780638da5cb5b14610395576101e7565b806327e235e3146101eb5780632e1a7d4d1461022757806333f707d11461024f5780633747002d1461027757806343d6582b1461029f576101e7565b366101e7575f341161017f576040517f08c379a0000000000000000000000000000000000000000000000000000000008152600401610176906123e6565b60405180910390fd5b3460045f828254610190919061243a565b925050819055503373ffffffffffffffffffffffffffffffffffffffff167f85177f287940f2f05425a4029951af0e047a7f9c4eaa9a6e6917bcd869f86695346040516101dd919061247c565b60405180910390a2005b5f5ffd5b3480156101f6575f5ffd5b50610211600480360381019061020c91906124f7565b61057b565b60405161021e919061247c565b60405180910390f35b348015610232575f5ffd5b5061024d6004803603810190610248919061254c565b610590565b005b34801561025a575f5ffd5b506102756004803603810190610270919061254c565b6107af565b005b348015610282575f5ffd5b5061029d600480360381019061029891906125cd565b610974565b005b3480156102aa575f5ffd5b506102c560048036038101906102c0919061254c565b610fd2565b005b3480156102d2575f5ffd5b506102ed60048036038101906102e8919061254c565b6114f0565b005b3480156102fa575f5ffd5b50610303611708565b005b348015610310575f5ffd5b5061031961171b565b604051610326919061247c565b60405180910390f35b34801561033a575f5ffd5b50610343611721565b60405161035091906126c5565b60405180910390f35b348015610364575f5ffd5b5061037f600480360381019061037a91906126de565b611746565b60405161038c9190612736565b60405180910390f35b3480156103a0575f5ffd5b506103a9611770565b6040516103b6919061275e565b60405180910390f35b3480156103ca575f5ffd5b506103d3611797565b6040516103e0919061247c565b60405180910390f35b3480156103f4575f5ffd5b5061040f600480360381019061040a91906126de565b61179d565b60405161041c9190612736565b60405180910390f35b348015610430575f5ffd5b506104396117c7565b604051610446919061247c565b60405180910390f35b34801561045a575f5ffd5b506104636117cd565b604051610470919061247c565b60405180910390f35b348015610484575f5ffd5b5061048d6117d3565b60405161049a919061275e565b60405180910390f35b6104ab6117fb565b005b3480156104b8575f5ffd5b506104c16118f0565b6040516104ce91906126c5565b60405180910390f35b3480156104e2575f5ffd5b506104fd60048036038101906104f891906127d8565b611915565b005b34801561050a575f5ffd5b50610513611b80565b604051610520919061247c565b60405180910390f35b348015610534575f5ffd5b5061054f600480360381019061054a91906124f7565b611b86565b005b34801561055c575f5ffd5b50610565611c0a565b6040516105729190612896565b60405180910390f35b6002602052805f5260405f205f915090505481565b610598611c1d565b5f81116105da576040517f08c379a00000000000000000000000000000000000000000000000000000000081526004016105d19061291f565b60405180910390fd5b8060025f3373ffffffffffffffffffffffffffffffffffffffff1673ffffffffffffffffffffffffffffffffffffffff1681526020019081526020015f2054101561065a576040517f08c379a000000000000000000000000000000000000000000000000000000000815260040161065190612987565b60405180910390fd5b8060025f3373ffffffffffffffffffffffffffffffffffffffff1673ffffffffffffffffffffffffffffffffffffffff1681526020019081526020015f205f8282546106a691906129a5565b925050819055505f3373ffffffffffffffffffffffffffffffffffffffff16826040516106d290612a05565b5f6040518083038185875af1925050503d805f811461070c576040519150601f19603f3d011682016040523d82523d5f602084013e610711565b606091505b5050905080610755576040517f08c379a000000000000000000000000000000000000000000000000000000000815260040161074c90612a63565b60405180910390fd5b3373ffffffffffffffffffffffffffffffffffffffff167f7fcf532c15f0a6db0bd6d0e038bea71d30d808c7d98cb3bf7268a95bf5081b658360405161079b919061247c565b60405180910390a2506107ac611c63565b50565b6107b7611c6c565b6107bf611c1d565b5f8111610801576040517f08c379a00000000000000000000000000000000000000000000000000000000081526004016107f890612af1565b60405180910390fd5b806004541015610846576040517f08c379a000000000000000000000000000000000000000000000000000000000815260040161083d90612b59565b60405180910390fd5b5f61084f611770565b73ffffffffffffffffffffffffffffffffffffffff168262030d409060405161087790612a05565b5f60405180830381858888f193505050503d805f81146108b2576040519150601f19603f3d011682016040523d82523d5f602084013e6108b7565b606091505b50509050806108fb576040517f08c379a00000000000000000000000000000000000000000000000000000000081526004016108f290612bc1565b60405180910390fd5b8160045f82825461090c91906129a5565b9250508190555061091b611770565b73ffffffffffffffffffffffffffffffffffffffff167fa919fadcfa556a012bab31b15f596ea7ccd397adbf10e15f176db9055ab361c483604051610960919061247c565b60405180910390a250610971611c63565b50565b61097c611c6c565b5f87116109be576040517f08c379a00000000000000000000000000000000000000000000000000000000081526004016109b590612c29565b60405180910390fd5b6003548711610a02576040517f08c379a00000000000000000000000000000000000000000000000000000000081526004016109f990612cb7565b60405180910390fd5b5f8311610a44576040517f08c379a0000000000000000000000000000000000000000000000000000000008152600401610a3b90612d45565b60405180910390fd5b600180811115610a5757610a56612823565b5b856001811115610a6a57610a69612823565b5b03610c23575f73ffffffffffffffffffffffffffffffffffffffff168473ffffffffffffffffffffffffffffffffffffffff1603610add576040517f08c379a0000000000000000000000000000000000000000000000000000000008152600401610ad490612dd3565b60405180910390fd5b5f8473ffffffffffffffffffffffffffffffffffffffff163b11610b36576040517f08c379a0000000000000000000000000000000000000000000000000000000008152600401610b2d90612e3b565b60405180910390fd5b8373ffffffffffffffffffffffffffffffffffffffff166318160ddd6040518163ffffffff1660e01b8152600401602060405180830381865afa925050508015610b9e57506040513d601f19601f82011682018060405250810190610b9b9190612e6d565b60015b610bdd576040517f08c379a0000000000000000000000000000000000000000000000000000000008152600401610bd490612f08565b60405180910390fd5b508360055f6101000a81548173ffffffffffffffffffffffffffffffffffffffff021916908373ffffffffffffffffffffffffffffffffffffffff160217905550610cd2565b5f73ffffffffffffffffffffffffffffffffffffffff168473ffffffffffffffffffffffffffffffffffffffff1614610c91576040517f08c379a0000000000000000000000000000000000000000000000000000000008152600401610c8890612f96565b60405180910390fd5b5f60055f6101000a81548173ffffffffffffffffffffffffffffffffffffffff021916908373ffffffffffffffffffffffffffffffffffffffff1602179055505b5f821115610e8e575f73ffffffffffffffffffffffffffffffffffffffff168173ffffffffffffffffffffffffffffffffffffffff1603610d48576040517f08c379a0000000000000000000000000000000000000000000000000000000008152600401610d3f9061304a565b60405180910390fd5b5f8173ffffffffffffffffffffffffffffffffffffffff163b11610da1576040517f08c379a0000000000000000000000000000000000000000000000000000000008152600401610d98906130d8565b60405180910390fd5b8073ffffffffffffffffffffffffffffffffffffffff166318160ddd6040518163ffffffff1660e01b8152600401602060405180830381865afa925050508015610e0957506040513d601f19601f82011682018060405250810190610e069190612e6d565b60015b610e48576040517f08c379a0000000000000000000000000000000000000000000000000000000008152600401610e3f90613166565b60405180910390fd5b508060095f6101000a81548173ffffffffffffffffffffffffffffffffffffffff021916908373ffffffffffffffffffffffffffffffffffffffff160217905550610f3d565b5f73ffffffffffffffffffffffffffffffffffffffff168173ffffffffffffffffffffffffffffffffffffffff1614610efc576040517f08c379a0000000000000000000000000000000000000000000000000000000008152600401610ef3906131f4565b60405180910390fd5b5f60095f6101000a81548173ffffffffffffffffffffffffffffffffffffffff021916908373ffffffffffffffffffffffffffffffffffffffff1602179055505b8660038190555085600c8190555084600960146101000a81548160ff02191690836001811115610f7057610f6f612823565b5b021790555082600781905550816008819055505f6004819055505f600681905550867f9ab198371be2d037260efae85c2a6244dff1858eb83676b1daeea6ea779c30ee85604051610fc1919061275e565b60405180910390a250505050505050565b610fda611c1d565b600a5f8281526020019081526020015f205f3373ffffffffffffffffffffffffffffffffffffffff1673ffffffffffffffffffffffffffffffffffffffff1681526020019081526020015f205f9054906101000a900460ff1615611073576040517f08c379a000000000000000000000000000000000000000000000000000000000815260040161106a90613282565b60405180910390fd5b60035481146110b7576040517f08c379a00000000000000000000000000000000000000000000000000000000081526004016110ae906132ea565b60405180910390fd5b5f600354116110fb576040517f08c379a00000000000000000000000000000000000000000000000000000000081526004016110f290613352565b60405180910390fd5b5f600854111561143d575f60095f9054906101000a900473ffffffffffffffffffffffffffffffffffffffff1690505f73ffffffffffffffffffffffffffffffffffffffff168173ffffffffffffffffffffffffffffffffffffffff1603611198576040517f08c379a000000000000000000000000000000000000000000000000000000000815260040161118f906133ba565b60405180910390fd5b5f8173ffffffffffffffffffffffffffffffffffffffff166370a08231306040518263ffffffff1660e01b81526004016111d2919061275e565b602060405180830381865afa1580156111ed573d5f5f3e3d5ffd5b505050506040513d601f19601f820116820180604052508101906112119190612e6d565b905061124233306008548573ffffffffffffffffffffffffffffffffffffffff16611cf3909392919063ffffffff16565b5f818373ffffffffffffffffffffffffffffffffffffffff166370a08231306040518263ffffffff1660e01b815260040161127d919061275e565b602060405180830381865afa158015611298573d5f5f3e3d5ffd5b505050506040513d601f19601f820116820180604052508101906112bc9190612e6d565b6112c691906129a5565b9050600854811461130c576040517f08c379a000000000000000000000000000000000000000000000000000000000815260040161130390613448565b60405180910390fd5b6008548261131a919061243a565b8373ffffffffffffffffffffffffffffffffffffffff166370a08231306040518263ffffffff1660e01b8152600401611353919061275e565b602060405180830381865afa15801561136e573d5f5f3e3d5ffd5b505050506040513d601f19601f820116820180604052508101906113929190612e6d565b10156113d3576040517f08c379a00000000000000000000000000000000000000000000000000000000081526004016113ca906134d6565b60405180910390fd5b838373ffffffffffffffffffffffffffffffffffffffff163373ffffffffffffffffffffffffffffffffffffffff167f1f8e0e31739d887c754fcf7403fe1bdf6641ef33578b9d08631a7d5e6e9b8fb784604051611431919061247c565b60405180910390a45050505b6001600a5f8381526020019081526020015f205f3373ffffffffffffffffffffffffffffffffffffffff1673ffffffffffffffffffffffffffffffffffffffff1681526020019081526020015f205f6101000a81548160ff021916908315150217905550803373ffffffffffffffffffffffffffffffffffffffff167fc16481c9484122696a660b57df0bf6839645c6b620cb1704ac2437de13be922560405160405180910390a36114ed611c63565b50565b6114f8611c6c565b611500611c1d565b5f8111611542576040517f08c379a00000000000000000000000000000000000000000000000000000000081526004016115399061353e565b60405180910390fd5b60018081111561155557611554612823565b5b600960149054906101000a900460ff16600181111561157757611576612823565b5b146115b7576040517f08c379a00000000000000000000000000000000000000000000000000000000081526004016115ae906135cc565b60405180910390fd5b5f73ffffffffffffffffffffffffffffffffffffffff1660055f9054906101000a900473ffffffffffffffffffffffffffffffffffffffff1673ffffffffffffffffffffffffffffffffffffffff1603611646576040517f08c379a000000000000000000000000000000000000000000000000000000000815260040161163d90613634565b60405180910390fd5b61169433308360055f9054906101000a900473ffffffffffffffffffffffffffffffffffffffff1673ffffffffffffffffffffffffffffffffffffffff16611cf3909392919063ffffffff16565b8060065f8282546116a5919061243a565b925050819055503373ffffffffffffffffffffffffffffffffffffffff167f4708e702157b1eb6cd00a772e6a623599ac7dc0bad76e8c624fdef050b434f098260016040516116f5929190613652565b60405180910390a2611705611c63565b50565b611710611c6c565b6117195f611d75565b565b60075481565b60095f9054906101000a900473ffffffffffffffffffffffffffffffffffffffff1681565b600b602052815f5260405f20602052805f5260405f205f915091509054906101000a900460ff1681565b5f5f5f9054906101000a900473ffffffffffffffffffffffffffffffffffffffff16905090565b60045481565b600a602052815f5260405f20602052805f5260405f205f915091509054906101000a900460ff1681565b60065481565b60085481565b5f60055f9054906101000a900473ffffffffffffffffffffffffffffffffffffffff16905090565b611803611c1d565b5f3411611845576040517f08c379a000000000000000000000000000000000000000000000000000000000815260040161183c906136e9565b60405180910390fd5b3460025f3373ffffffffffffffffffffffffffffffffffffffff1673ffffffffffffffffffffffffffffffffffffffff1681526020019081526020015f205f828254611891919061243a565b925050819055503373ffffffffffffffffffffffffffffffffffffffff167fe1fffcc4923d04b559f4d29a8bfc6cda04eb5b0d3c460751c2402c5c5cc9109c346040516118de919061247c565b60405180910390a26118ee611c63565b565b60055f9054906101000a900473ffffffffffffffffffffffffffffffffffffffff1681565b61191d611c1d565b5f60035411611961576040517f08c379a000000000000000000000000000000000000000000000000000000000815260040161195890613352565b60405180910390fd5b600a5f60035481526020019081526020015f205f3373ffffffffffffffffffffffffffffffffffffffff1673ffffffffffffffffffffffffffffffffffffffff1681526020019081526020015f205f9054906101000a900460ff166119fb576040517f08c379a00000000000000000000000000000000000000000000000000000000081526004016119f290613751565b60405180910390fd5b600b5f60035481526020019081526020015f205f3373ffffffffffffffffffffffffffffffffffffffff1673ffffffffffffffffffffffffffffffffffffffff1681526020019081526020015f205f9054906101000a900460ff1615611a96576040517f08c379a0000000000000000000000000000000000000000000000000000000008152600401611a8d906137b9565b60405180910390fd5b600c548282604051602001611aac929190613813565b6040516020818303038152906040528051906020012014611b02576040517f08c379a0000000000000000000000000000000000000000000000000000000008152600401611af990613875565b60405180910390fd5b6001600b5f60035481526020019081526020015f205f3373ffffffffffffffffffffffffffffffffffffffff1673ffffffffffffffffffffffffffffffffffffffff1681526020019081526020015f205f6101000a81548160ff021916908315150217905550611b7433600754611e36565b611b7c611c63565b5050565b60035481565b611b8e611c6c565b5f73ffffffffffffffffffffffffffffffffffffffff168173ffffffffffffffffffffffffffffffffffffffff1603611bfe575f6040517f1e4fbdf7000000000000000000000000000000000000000000000000000000008152600401611bf5919061275e565b60405180910390fd5b611c0781611d75565b50565b600960149054906101000a900460ff1681565b600260015403611c59576040517f3ee5aeb500000000000000000000000000000000000000000000000000000000815260040160405180910390fd5b6002600181905550565b60018081905550565b611c74612245565b73ffffffffffffffffffffffffffffffffffffffff16611c92611770565b73ffffffffffffffffffffffffffffffffffffffff1614611cf157611cb5612245565b6040517f118cdaa7000000000000000000000000000000000000000000000000000000008152600401611ce8919061275e565b60405180910390fd5b565b611d6f848573ffffffffffffffffffffffffffffffffffffffff166323b872dd868686604051602401611d2893929190613893565b604051602081830303815290604052915060e01b6020820180517bffffffffffffffffffffffffffffffffffffffffffffffffffffffff838183161783525050505061224c565b50505050565b5f5f5f9054906101000a900473ffffffffffffffffffffffffffffffffffffffff169050815f5f6101000a81548173ffffffffffffffffffffffffffffffffffffffff021916908373ffffffffffffffffffffffffffffffffffffffff1602179055508173ffffffffffffffffffffffffffffffffffffffff168173ffffffffffffffffffffffffffffffffffffffff167f8be0079c531659141344cd1fd0a4f28419497f9722a3daafe3b4186f6b6457e060405160405180910390a35050565b5f73ffffffffffffffffffffffffffffffffffffffff168273ffffffffffffffffffffffffffffffffffffffff1603611ea4576040517f08c379a0000000000000000000000000000000000000000000000000000000008152600401611e9b90613912565b60405180910390fd5b5f8111611ee6576040517f08c379a0000000000000000000000000000000000000000000000000000000008152600401611edd90612d45565b60405180910390fd5b5f6001811115611ef957611ef8612823565b5b600960149054906101000a900460ff166001811115611f1b57611f1a612823565b5b0361206e57806004541015611f65576040517f08c379a0000000000000000000000000000000000000000000000000000000008152600401611f5c906139a0565b60405180910390fd5b80471015611fa8576040517f08c379a0000000000000000000000000000000000000000000000000000000008152600401611f9f90613a2e565b60405180910390fd5b8060045f828254611fb991906129a5565b925050819055505f8273ffffffffffffffffffffffffffffffffffffffff1682604051611fe590612a05565b5f6040518083038185875af1925050503d805f811461201f576040519150601f19603f3d011682016040523d82523d5f602084013e612024565b606091505b5050905080612068576040517f08c379a000000000000000000000000000000000000000000000000000000000815260040161205f90613a96565b60405180910390fd5b506121e2565b60018081111561208157612080612823565b5b600960149054906101000a900460ff1660018111156120a3576120a2612823565b5b036121e1575f73ffffffffffffffffffffffffffffffffffffffff1660055f9054906101000a900473ffffffffffffffffffffffffffffffffffffffff1673ffffffffffffffffffffffffffffffffffffffff1603612137576040517f08c379a000000000000000000000000000000000000000000000000000000000815260040161212e90613634565b60405180910390fd5b80600654101561217c576040517f08c379a000000000000000000000000000000000000000000000000000000000815260040161217390613b24565b60405180910390fd5b8060065f82825461218d91906129a5565b925050819055506121e0828260055f9054906101000a900473ffffffffffffffffffffffffffffffffffffffff1673ffffffffffffffffffffffffffffffffffffffff166122e79092919063ffffffff16565b5b5b8173ffffffffffffffffffffffffffffffffffffffff167fff43c2705b2225c1c9d9d58f088ab64d4fc767737dee523bed37f15fb0c6c3de82600960149054906101000a900460ff16604051612239929190613652565b60405180910390a25050565b5f33905090565b5f5f60205f8451602086015f885af18061226b576040513d5f823e3d81fd5b3d92505f519150505f821461228457600181141561229f565b5f8473ffffffffffffffffffffffffffffffffffffffff163b145b156122e157836040517f5274afe70000000000000000000000000000000000000000000000000000000081526004016122d8919061275e565b60405180910390fd5b50505050565b612361838473ffffffffffffffffffffffffffffffffffffffff1663a9059cbb858560405160240161231a929190613b42565b604051602081830303815290604052915060e01b6020820180517bffffffffffffffffffffffffffffffffffffffffffffffffffffffff838183161783525050505061224c565b505050565b5f82825260208201905092915050565b7f45544820616d6f756e74206d7573742062652067726561746572207468616e205f8201527f7a65726f00000000000000000000000000000000000000000000000000000000602082015250565b5f6123d0602483612366565b91506123db82612376565b604082019050919050565b5f6020820190508181035f8301526123fd816123c4565b9050919050565b5f819050919050565b7f4e487b71000000000000000000000000000000000000000000000000000000005f52601160045260245ffd5b5f61244482612404565b915061244f83612404565b92508282019050808211156124675761246661240d565b5b92915050565b61247681612404565b82525050565b5f60208201905061248f5f83018461246d565b92915050565b5f5ffd5b5f5ffd5b5f73ffffffffffffffffffffffffffffffffffffffff82169050919050565b5f6124c68261249d565b9050919050565b6124d6816124bc565b81146124e0575f5ffd5b50565b5f813590506124f1816124cd565b92915050565b5f6020828403121561250c5761250b612495565b5b5f612519848285016124e3565b91505092915050565b61252b81612404565b8114612535575f5ffd5b50565b5f8135905061254681612522565b92915050565b5f6020828403121561256157612560612495565b5b5f61256e84828501612538565b91505092915050565b5f819050919050565b61258981612577565b8114612593575f5ffd5b50565b5f813590506125a481612580565b92915050565b600281106125b6575f5ffd5b50565b5f813590506125c7816125aa565b92915050565b5f5f5f5f5f5f5f60e0888a0312156125e8576125e7612495565b5b5f6125f58a828b01612538565b97505060206126068a828b01612596565b96505060406126178a828b016125b9565b95505060606126288a828b016124e3565b94505060806126398a828b01612538565b93505060a061264a8a828b01612538565b92505060c061265b8a828b016124e3565b91505092959891949750929550565b5f819050919050565b5f61268d6126886126838461249d565b61266a565b61249d565b9050919050565b5f61269e82612673565b9050919050565b5f6126af82612694565b9050919050565b6126bf816126a5565b82525050565b5f6020820190506126d85f8301846126b6565b92915050565b5f5f604083850312156126f4576126f3612495565b5b5f61270185828601612538565b9250506020612712858286016124e3565b9150509250929050565b5f8115159050919050565b6127308161271c565b82525050565b5f6020820190506127495f830184612727565b92915050565b612758816124bc565b82525050565b5f6020820190506127715f83018461274f565b92915050565b5f5ffd5b5f5ffd5b5f5ffd5b5f5f83601f84011261279857612797612777565b5b8235905067ffffffffffffffff8111156127b5576127b461277b565b5b6020830191508360018202830111156127d1576127d061277f565b5b9250929050565b5f5f602083850312156127ee576127ed612495565b5b5f83013567ffffffffffffffff81111561280b5761280a612499565b5b61281785828601612783565b92509250509250929050565b7f4e487b71000000000000000000000000000000000000000000000000000000005f52602160045260245ffd5b6002811061286157612860612823565b5b50565b5f81905061287182612850565b919050565b5f61288082612864565b9050919050565b61289081612876565b82525050565b5f6020820190506128a95f830184612887565b92915050565b7f5769746864726177616c20616d6f756e74206d757374206265206772656174655f8201527f72207468616e207a65726f000000000000000000000000000000000000000000602082015250565b5f612909602b83612366565b9150612914826128af565b604082019050919050565b5f6020820190508181035f830152612936816128fd565b9050919050565b7f496e73756666696369656e742062616c616e63650000000000000000000000005f82015250565b5f612971601483612366565b915061297c8261293d565b602082019050919050565b5f6020820190508181035f83015261299e81612965565b9050919050565b5f6129af82612404565b91506129ba83612404565b92508282039050818111156129d2576129d161240d565b5b92915050565b5f81905092915050565b50565b5f6129f05f836129d8565b91506129fb826129e2565b5f82019050919050565b5f612a0f826129e5565b9150819050919050565b7f5769746864726177616c206661696c65640000000000000000000000000000005f82015250565b5f612a4d601183612366565b9150612a5882612a19565b602082019050919050565b5f6020820190508181035f830152612a7a81612a41565b9050919050565b7f4f776e6572207769746864726177616c20616d6f756e74206d757374206265205f8201527f67726561746572207468616e207a65726f000000000000000000000000000000602082015250565b5f612adb603183612366565b9150612ae682612a81565b604082019050919050565b5f6020820190508181035f830152612b0881612acf565b9050919050565b7f496e73756666696369656e7420455448207072697a6520706f6f6c00000000005f82015250565b5f612b43601b83612366565b9150612b4e82612b0f565b602082019050919050565b5f6020820190508181035f830152612b7081612b37565b9050919050565b7f4f776e6572207769746864726177616c206661696c65640000000000000000005f82015250565b5f612bab601783612366565b9150612bb682612b77565b602082019050919050565b5f6020820190508181035f830152612bd881612b9f565b9050919050565b7f526964646c652049442063616e6e6f74206265207a65726f00000000000000005f82015250565b5f612c13601883612366565b9150612c1e82612bdf565b602082019050919050565b5f6020820190508181035f830152612c4081612c07565b9050919050565b7f526964646c65204944206d7573742062652067726561746572207468616e20635f8201527f757272656e740000000000000000000000000000000000000000000000000000602082015250565b5f612ca1602683612366565b9150612cac82612c47565b604082019050919050565b5f6020820190508181035f830152612cce81612c95565b9050919050565b7f5072697a6520616d6f756e74206d7573742062652067726561746572207468615f8201527f6e207a65726f0000000000000000000000000000000000000000000000000000602082015250565b5f612d2f602683612366565b9150612d3a82612cd5565b604082019050919050565b5f6020820190508181035f830152612d5c81612d23565b9050919050565b7f5072697a6520746f6b656e20616464726573732063616e6e6f74206265207a655f8201527f726f20666f72204552433230207072697a650000000000000000000000000000602082015250565b5f612dbd603283612366565b9150612dc882612d63565b604082019050919050565b5f6020820190508181035f830152612dea81612db1565b9050919050565b7f5072697a6520746f6b656e20686173206e6f20636f6e747261637420636f64655f82015250565b5f612e25602083612366565b9150612e3082612df1565b602082019050919050565b5f6020820190508181035f830152612e5281612e19565b9050919050565b5f81519050612e6781612522565b92915050565b5f60208284031215612e8257612e81612495565b5b5f612e8f84828501612e59565b91505092915050565b7f496e76616c6964204552432d323020746f6b656e3a20746f74616c537570706c5f8201527f792063616c6c206661696c656400000000000000000000000000000000000000602082015250565b5f612ef2602d83612366565b9150612efd82612e98565b604082019050919050565b5f6020820190508181035f830152612f1f81612ee6565b9050919050565b7f5072697a6520746f6b656e2061646472657373206d757374206265207a65726f5f8201527f20666f7220455448207072697a65000000000000000000000000000000000000602082015250565b5f612f80602e83612366565b9150612f8b82612f26565b604082019050919050565b5f6020820190508181035f830152612fad81612f74565b9050919050565b7f456e7472792066656520746f6b656e20616464726573732063616e6e6f7420625f8201527f65207a65726f20696620656e7472792066656520616d6f756e7420697320677260208201527f6561746572207468616e207a65726f0000000000000000000000000000000000604082015250565b5f613034604f83612366565b915061303f82612fb4565b606082019050919050565b5f6020820190508181035f83015261306181613028565b9050919050565b7f456e7472792066656520746f6b656e20686173206e6f20636f6e7472616374205f8201527f636f646500000000000000000000000000000000000000000000000000000000602082015250565b5f6130c2602483612366565b91506130cd82613068565b604082019050919050565b5f6020820190508181035f8301526130ef816130b6565b9050919050565b7f496e76616c6964204552432d323020746f6b656e20666f7220656e74727920665f8201527f65653a20746f74616c537570706c792063616c6c206661696c65640000000000602082015250565b5f613150603b83612366565b915061315b826130f6565b604082019050919050565b5f6020820190508181035f83015261317d81613144565b9050919050565b7f456e7472792066656520746f6b656e2061646472657373206d757374206265205f8201527f7a65726f20696620656e7472792066656520616d6f756e74206973207a65726f602082015250565b5f6131de604083612366565b91506131e982613184565b604082019050919050565b5f6020820190508181035f83015261320b816131d2565b9050919050565b7f416c72656164792070617274696369706174656420696e2074686973207269645f8201527f646c650000000000000000000000000000000000000000000000000000000000602082015250565b5f61326c602383612366565b915061327782613212565b604082019050919050565b5f6020820190508181035f83015261329981613260565b9050919050565b7f4e6f74207468652061637469766520726964646c6520494400000000000000005f82015250565b5f6132d4601883612366565b91506132df826132a0565b602082019050919050565b5f6020820190508181035f830152613301816132c8565b9050919050565b7f4e6f2061637469766520726964646c65000000000000000000000000000000005f82015250565b5f61333c601083612366565b915061334782613308565b602082019050919050565b5f6020820190508181035f83015261336981613330565b9050919050565b7f456e7472792066656520746f6b656e206e6f74207365740000000000000000005f82015250565b5f6133a4601783612366565b91506133af82613370565b602082019050919050565b5f6020820190508181035f8301526133d181613398565b9050919050565b7f456e74727920666565206d69736d617463682028464f54206e6f7420737570705f8201527f6f72746564290000000000000000000000000000000000000000000000000000602082015250565b5f613432602683612366565b915061343d826133d8565b604082019050919050565b5f6020820190508181035f83015261345f81613426565b9050919050565b7f4552433230207472616e73666572206661696c656420696e20656e74657247615f8201527f6d65000000000000000000000000000000000000000000000000000000000000602082015250565b5f6134c0602283612366565b91506134cb82613466565b604082019050919050565b5f6020820190508181035f8301526134ed816134b4565b9050919050565b7f416d6f756e74206d7573742062652067726561746572207468616e207a65726f5f82015250565b5f613528602083612366565b9150613533826134f4565b602082019050919050565b5f6020820190508181035f8301526135558161351c565b9050919050565b7f43757272656e7420726964646c65207072697a65206973206e6f7420455243325f8201527f3000000000000000000000000000000000000000000000000000000000000000602082015250565b5f6135b6602183612366565b91506135c18261355c565b604082019050919050565b5f6020820190508181035f8301526135e3816135aa565b9050919050565b7f5072697a6520746f6b656e206e6f7420736574000000000000000000000000005f82015250565b5f61361e601383612366565b9150613629826135ea565b602082019050919050565b5f6020820190508181035f83015261364b81613612565b9050919050565b5f6040820190506136655f83018561246d565b6136726020830184612887565b9392505050565b7f4465706f73697420616d6f756e74206d757374206265206772656174657220745f8201527f68616e207a65726f000000000000000000000000000000000000000000000000602082015250565b5f6136d3602883612366565b91506136de82613679565b604082019050919050565b5f6020820190508181035f830152613700816136c7565b9050919050565b7f4d75737420656e746572207468652067616d65206669727374000000000000005f82015250565b5f61373b601983612366565b915061374682613707565b602082019050919050565b5f6020820190508181035f8301526137688161372f565b9050919050565b7f416c726561647920636c61696d656400000000000000000000000000000000005f82015250565b5f6137a3600f83612366565b91506137ae8261376f565b602082019050919050565b5f6020820190508181035f8301526137d081613797565b9050919050565b5f81905092915050565b828183375f83830152505050565b5f6137fa83856137d7565b93506138078385846137e1565b82840190509392505050565b5f61381f8284866137ef565b91508190509392505050565b7f496e636f727265637420616e73776572000000000000000000000000000000005f82015250565b5f61385f601083612366565b915061386a8261382b565b602082019050919050565b5f6020820190508181035f83015261388c81613853565b9050919050565b5f6060820190506138a65f83018661274f565b6138b3602083018561274f565b6138c0604083018461246d565b949350505050565b7f57696e6e657220616464726573732063616e6e6f74206265207a65726f0000005f82015250565b5f6138fc601d83612366565b9150613907826138c8565b602082019050919050565b5f6020820190508181035f830152613929816138f0565b9050919050565b7f496e73756666696369656e7420455448207072697a6520706f6f6c2062616c615f8201527f6e63650000000000000000000000000000000000000000000000000000000000602082015250565b5f61398a602383612366565b915061399582613930565b604082019050919050565b5f6020820190508181035f8301526139b78161397e565b9050919050565b7f496e73756666696369656e7420636f6e7472616374204554482062616c616e635f8201527f6500000000000000000000000000000000000000000000000000000000000000602082015250565b5f613a18602183612366565b9150613a23826139be565b604082019050919050565b5f6020820190508181035f830152613a4581613a0c565b9050919050565b7f455448207472616e73666572206661696c6564000000000000000000000000005f82015250565b5f613a80601383612366565b9150613a8b82613a4c565b602082019050919050565b5f6020820190508181035f830152613aad81613a74565b9050919050565b7f496e73756666696369656e74204552433230207072697a6520706f6f6c2062615f8201527f6c616e6365000000000000000000000000000000000000000000000000000000602082015250565b5f613b0e602583612366565b9150613b1982613ab4565b604082019050919050565b5f6020820190508181035f830152613b3b81613b02565b9050919050565b5f604082019050613b555f83018561274f565b613b62602083018461246d565b939250505056fea26469706673582212202297ecbcfb182e3b985210d25eeedaab4da295dc64839caf0d91ff2ff1b1dd3664736f6c634300081e0033","linkReferences":{}},"methodIdentifiers":{"balances(address)":"27e235e3","currentRiddleId()":"ecdc6c23","deposit()":"d0e30db0","enterGame(uint256)":"43d6582b","entryFeeAmount()":"c4e5feb6","entryFeeToken()":"7b149763","ethPrizePool()":"95664a3d","fundTokenPrizePool(uint256)":"48b06e87","getPrizeToken()":"c7cd6959","hasClaimed(uint256,address)":"873f6f9e","hasParticipated(uint256,address)":"a34398a2","owner()":"8da5cb5b","ownerWithdraw(uint256)":"33f707d1","prizeAmount()":"785fa627","prizeToken()":"d0ef024a","prizeType()":"fcdf8e89","renounceOwnership()":"715018a6","setRiddle(uint256,bytes32,uint8,address,uint256,uint256,address)":"3747002d","solveRiddleAndClaim(string)":"dc663b53","tokenPrizePool()":"c310e242","transferOwnership(address)":"f2fde38b","withdraw(uint256)":"2e1a7d4d"},"id":1}