{"abi":[{"type":"constructor","inputs":[{"name":"initialOwner","type":"address","internalType":"address"}],"stateMutability":"nonpayable"},{"type":"receive","stateMutability":"payable"},{"type":"function","name":"ENTRY_FEE","inputs":[],"outputs":[{"name":"","type":"uint256","internalType":"uint256"}],"stateMutability":"view"},{"type":"function","name":"balances","inputs":[{"name":"","type":"address","internalType":"address"}],"outputs":[{"name":"","type":"uint256","internalType":"uint256"}],"stateMutability":"view"},{"type":"function","name":"committedAt","inputs":[{"name":"","type":"uint256","internalType":"uint256"},{"name":"","type":"address","internalType":"address"}],"outputs":[{"name":"","type":"uint256","internalType":"uint256"}],"stateMutability":"view"},{"type":"function","name":"committedGuesses","inputs":[{"name":"","type":"uint256","internalType":"uint256"},{"name":"","type":"address","internalType":"address"}],"outputs":[{"name":"","type":"bytes32","internalType":"bytes32"}],"stateMutability":"view"},{"type":"function","name":"currentRiddleId","inputs":[],"outputs":[{"name":"","type":"uint256","internalType":"uint256"}],"stateMutability":"view"},{"type":"function","name":"deposit","inputs":[],"outputs":[],"stateMutability":"payable"},{"type":"function","name":"enterGame","inputs":[{"name":"_riddleId","type":"uint256","internalType":"uint256"}],"outputs":[],"stateMutability":"nonpayable"},{"type":"function","name":"entryFeeToken","inputs":[],"outputs":[{"name":"","type":"address","internalType":"contract IERC20"}],"stateMutability":"view"},{"type":"function","name":"ethPrizePool","inputs":[],"outputs":[{"name":"","type":"uint256","internalType":"uint256"}],"stateMutability":"view"},{"type":"function","name":"fundTokenPrizePool","inputs":[{"name":"_amount","type":"uint256","internalType":"uint256"}],"outputs":[],"stateMutability":"nonpayable"},{"type":"function","name":"getPrizeToken","inputs":[],"outputs":[{"name":"","type":"address","internalType":"address"}],"stateMutability":"view"},{"type":"function","name":"hasClaimed","inputs":[{"name":"","type":"uint256","internalType":"uint256"},{"name":"","type":"address","internalType":"address"}],"outputs":[{"name":"","type":"bool","internalType":"bool"}],"stateMutability":"view"},{"type":"function","name":"hasParticipated","inputs":[{"name":"","type":"uint256","internalType":"uint256"},{"name":"","type":"address","internalType":"address"}],"outputs":[{"name":"","type":"bool","internalType":"bool"}],"stateMutability":"view"},{"type":"function","name":"hasRevealed","inputs":[{"name":"","type":"uint256","internalType":"uint256"},{"name":"","type":"address","internalType":"address"}],"outputs":[{"name":"","type":"bool","internalType":"bool"}],"stateMutability":"view"},{"type":"function","name":"owner","inputs":[],"outputs":[{"name":"","type":"address","internalType":"address"}],"stateMutability":"view"},{"type":"function","name":"ownerWithdraw","inputs":[{"name":"_amount","type":"uint256","internalType":"uint256"}],"outputs":[],"stateMutability":"nonpayable"},{"type":"function","name":"ownerWithdrawTokens","inputs":[{"name":"_amount","type":"uint256","internalType":"uint256"}],"outputs":[],"stateMutability":"nonpayable"},{"type":"function","name":"prizeAmount","inputs":[],"outputs":[{"name":"","type":"uint256","internalType":"uint256"}],"stateMutability":"view"},{"type":"function","name":"prizeToken","inputs":[],"outputs":[{"name":"","type":"address","internalType":"contract IERC20"}],"stateMutability":"view"},{"type":"function","name":"prizeType","inputs":[],"outputs":[{"name":"","type":"uint8","internalType":"enum Vaultis.PrizeType"}],"stateMutability":"view"},{"type":"function","name":"renounceOwnership","inputs":[],"outputs":[],"stateMutability":"nonpayable"},{"type":"function","name":"revealDelay","inputs":[],"outputs":[{"name":"","type":"uint256","internalType":"uint256"}],"stateMutability":"view"},{"type":"function","name":"revealGuess","inputs":[{"name":"_riddleId","type":"uint256","internalType":"uint256"},{"name":"_guess","type":"string","internalType":"string"}],"outputs":[],"stateMutability":"nonpayable"},{"type":"function","name":"revealedGuessHash","inputs":[{"name":"","type":"uint256","internalType":"uint256"},{"name":"","type":"address","internalType":"address"}],"outputs":[{"name":"","type":"bytes32","internalType":"bytes32"}],"stateMutability":"view"},{"type":"function","name":"setRevealDelay","inputs":[{"name":"_newRevealDelay","type":"uint256","internalType":"uint256"}],"outputs":[],"stateMutability":"nonpayable"},{"type":"function","name":"setRiddle","inputs":[{"name":"_riddleId","type":"uint256","internalType":"uint256"},{"name":"_answerHash","type":"bytes32","internalType":"bytes32"},{"name":"_prizeType","type":"uint8","internalType":"enum Vaultis.PrizeType"},{"name":"_prizeTokenAddress","type":"address","internalType":"address"},{"name":"_prizeAmount","type":"uint256","internalType":"uint256"},{"name":"_entryFeeTokenAddress","type":"address","internalType":"address"}],"outputs":[],"stateMutability":"nonpayable"},{"type":"function","name":"solveRiddleAndClaim","inputs":[{"name":"_answer","type":"string","internalType":"string"}],"outputs":[],"stateMutability":"nonpayable"},{"type":"function","name":"submitGuess","inputs":[{"name":"_riddleId","type":"uint256","internalType":"uint256"},{"name":"_guessHash","type":"bytes32","internalType":"bytes32"}],"outputs":[],"stateMutability":"nonpayable"},{"type":"function","name":"tokenPrizePool","inputs":[],"outputs":[{"name":"","type":"uint256","internalType":"uint256"}],"stateMutability":"view"},{"type":"function","name":"transferOwnership","inputs":[{"name":"newOwner","type":"address","internalType":"address"}],"outputs":[],"stateMutability":"nonpayable"},{"type":"function","name":"winners","inputs":[{"name":"","type":"uint256","internalType":"uint256"},{"name":"","type":"uint256","internalType":"uint256"}],"outputs":[{"name":"","type":"address","internalType":"address"}],"stateMutability":"view"},{"type":"function","name":"withdraw","inputs":[{"name":"_amount","type":"uint256","internalType":"uint256"}],"outputs":[],"stateMutability":"nonpayable"},{"type":"event","name":"Deposit","inputs":[{"name":"user","type":"address","indexed":true,"internalType":"address"},{"name":"amount","type":"uint256","indexed":false,"internalType":"uint256"}],"anonymous":false},{"type":"event","name":"EntryFeeCollected","inputs":[{"name":"player","type":"address","indexed":true,"internalType":"address"},{"name":"token","type":"address","indexed":true,"internalType":"address"},{"name":"amount","type":"uint256","indexed":false,"internalType":"uint256"},{"name":"riddleId","type":"uint256","indexed":true,"internalType":"uint256"}],"anonymous":false},{"type":"event","name":"EthReceived","inputs":[{"name":"sender","type":"address","indexed":true,"internalType":"address"},{"name":"amount","type":"uint256","indexed":false,"internalType":"uint256"}],"anonymous":false},{"type":"event","name":"GuessEvaluated","inputs":[{"name":"riddleId","type":"uint256","indexed":true,"internalType":"uint256"},{"name":"player","type":"address","indexed":true,"internalType":"address"},{"name":"timestamp","type":"uint256","indexed":false,"internalType":"uint256"},{"name":"isWinner","type":"bool","indexed":false,"internalType":"bool"}],"anonymous":false},{"type":"event","name":"GuessRevealed","inputs":[{"name":"player","type":"address","indexed":true,"internalType":"address"},{"name":"riddleId","type":"uint256","indexed":true,"internalType":"uint256"},{"name":"revealedHash","type":"bytes32","indexed":false,"internalType":"bytes32"}],"anonymous":false},{"type":"event","name":"GuessSubmitted","inputs":[{"name":"player","type":"address","indexed":true,"internalType":"address"},{"name":"riddleId","type":"uint256","indexed":true,"internalType":"uint256"},{"name":"guessHash","type":"bytes32","indexed":false,"internalType":"bytes32"}],"anonymous":false},{"type":"event","name":"OwnerWithdrawTokens","inputs":[{"name":"amount","type":"uint256","indexed":false,"internalType":"uint256"}],"anonymous":false},{"type":"event","name":"OwnerWithdrawal","inputs":[{"name":"owner","type":"address","indexed":true,"internalType":"address"},{"name":"amount","type":"uint256","indexed":false,"internalType":"uint256"}],"anonymous":false},{"type":"event","name":"OwnershipTransferred","inputs":[{"name":"previousOwner","type":"address","indexed":true,"internalType":"address"},{"name":"newOwner","type":"address","indexed":true,"internalType":"address"}],"anonymous":false},{"type":"event","name":"PlayerEntered","inputs":[{"name":"player","type":"address","indexed":true,"internalType":"address"},{"name":"riddleId","type":"uint256","indexed":true,"internalType":"uint256"}],"anonymous":false},{"type":"event","name":"PrizeDistributed","inputs":[{"name":"winner","type":"address","indexed":true,"internalType":"address"},{"name":"amount","type":"uint256","indexed":false,"internalType":"uint256"},{"name":"prizeType","type":"uint8","indexed":false,"internalType":"enum Vaultis.PrizeType"}],"anonymous":false},{"type":"event","name":"PrizeFunded","inputs":[{"name":"funder","type":"address","indexed":true,"internalType":"address"},{"name":"amount","type":"uint256","indexed":false,"internalType":"uint256"},{"name":"prizeType","type":"uint8","indexed":false,"internalType":"enum Vaultis.PrizeType"}],"anonymous":false},{"type":"event","name":"RiddleInitialized","inputs":[{"name":"riddleId","type":"uint256","indexed":true,"internalType":"uint256"},{"name":"answerHash","type":"bytes32","indexed":false,"internalType":"bytes32"},{"name":"prizeType","type":"uint8","indexed":false,"internalType":"uint8"},{"name":"prizeTokenAddress","type":"address","indexed":false,"internalType":"address"},{"name":"prizeAmount","type":"uint256","indexed":false,"internalType":"uint256"},{"name":"entryFeeTokenAddress","type":"address","indexed":false,"internalType":"address"}],"anonymous":false},{"type":"event","name":"WinnerFound","inputs":[{"name":"winner","type":"address","indexed":true,"internalType":"address"},{"name":"riddleId","type":"uint256","indexed":true,"internalType":"uint256"}],"anonymous":false},{"type":"event","name":"Withdrawal","inputs":[{"name":"user","type":"address","indexed":true,"internalType":"address"},{"name":"amount","type":"uint256","indexed":false,"internalType":"uint256"}],"anonymous":false},{"type":"error","name":"OwnableInvalidOwner","inputs":[{"name":"owner","type":"address","internalType":"address"}]},{"type":"error","name":"OwnableUnauthorizedAccount","inputs":[{"name":"account","type":"address","internalType":"address"}]},{"type":"error","name":"ReentrancyGuardReentrantCall","inputs":[]},{"type":"error","name":"SafeERC20FailedOperation","inputs":[{"name":"token","type":"address","internalType":"address"}]}],"bytecode":{"object":"0x608060405234801561000f575f5ffd5b5060405161564538038061564583398181016040528101906100319190610227565b805f73ffffffffffffffffffffffffffffffffffffffff168173ffffffffffffffffffffffffffffffffffffffff16036100a2575f6040517f1e4fbdf70000000000000000000000000000000000000000000000000000000081526004016100999190610261565b60405180910390fd5b6100b18161010860201b60201c565b50600180819055505f60085f6101000a81548173ffffffffffffffffffffffffffffffffffffffff021916908373ffffffffffffffffffffffffffffffffffffffff160217905550610e10600f819055505061027a565b5f5f5f9054906101000a900473ffffffffffffffffffffffffffffffffffffffff169050815f5f6101000a81548173ffffffffffffffffffffffffffffffffffffffff021916908373ffffffffffffffffffffffffffffffffffffffff1602179055508173ffffffffffffffffffffffffffffffffffffffff168173ffffffffffffffffffffffffffffffffffffffff167f8be0079c531659141344cd1fd0a4f28419497f9722a3daafe3b4186f6b6457e060405160405180910390a35050565b5f5ffd5b5f73ffffffffffffffffffffffffffffffffffffffff82169050919050565b5f6101f6826101cd565b9050919050565b610206816101ec565b8114610210575f5ffd5b50565b5f81519050610221816101fd565b92915050565b5f6020828403121561023c5761023b6101c9565b5b5f61024984828501610213565b91505092915050565b61025b816101ec565b82525050565b5f6020820190506102745f830184610252565b92915050565b6153be806102875f395ff3fe6080604052600436106101e6575f3560e01c806395664a3d11610101578063d0ef024a11610094578063f2fde38b11610063578063f2fde38b1461077b578063f6d361cc146107a3578063f9f82e9c146107cd578063fcdf8e89146107f557610295565b8063d0ef024a146106d7578063dc663b5314610701578063e4d33ee314610729578063ecdc6c231461075157610295565b8063c06a5fc5116100d0578063c06a5fc51461063d578063c310e24214610679578063c7cd6959146106a3578063d0e30db0146106cd57610295565b806395664a3d14610573578063a34398a21461059d578063a68c25d8146105d9578063b7173e771461060157610295565b806348b06e8711610179578063785fa62711610148578063785fa627146104b95780637b149763146104e3578063873f6f9e1461050d5780638da5cb5b1461054957610295565b806348b06e871461042957806353236d7414610451578063609721201461047b578063715018a6146104a357610295565b806327e235e3116101b557806327e235e3146103755780632e1a7d4d146103b157806333f707d1146103d957806343d6582b1461040157610295565b80630efc88651461029957806312b5afc1146102d557806316b5551d146102fd578063188240cd1461033957610295565b36610295575f341161022d576040517f08c379a0000000000000000000000000000000000000000000000000000000008152600401610224906134b0565b60405180910390fd5b3460045f82825461023e9190613504565b925050819055503373ffffffffffffffffffffffffffffffffffffffff167f85177f287940f2f05425a4029951af0e047a7f9c4eaa9a6e6917bcd869f866953460405161028b9190613546565b60405180910390a2005b5f5ffd5b3480156102a4575f5ffd5b506102bf60048036038101906102ba919061359a565b61081f565b6040516102cc9190613617565b60405180910390f35b3480156102e0575f5ffd5b506102fb60048036038101906102f6919061376c565b610867565b005b348015610308575f5ffd5b50610323600480360381019061031e91906137f0565b610dbf565b6040516103309190613848565b60405180910390f35b348015610344575f5ffd5b5061035f600480360381019061035a91906137f0565b610de9565b60405161036c9190613879565b60405180910390f35b348015610380575f5ffd5b5061039b60048036038101906103969190613892565b610e09565b6040516103a89190613546565b60405180910390f35b3480156103bc575f5ffd5b506103d760048036038101906103d291906138bd565b610e1e565b005b3480156103e4575f5ffd5b506103ff60048036038101906103fa91906138bd565b61103d565b005b34801561040c575f5ffd5b50610427600480360381019061042291906138bd565b611202565b005b348015610434575f5ffd5b5061044f600480360381019061044a91906138bd565b61166b565b005b34801561045c575f5ffd5b50610465611883565b6040516104729190613546565b60405180910390f35b348015610486575f5ffd5b506104a1600480360381019061049c91906138bd565b611889565b005b3480156104ae575f5ffd5b506104b7611a5c565b005b3480156104c4575f5ffd5b506104cd611a6f565b6040516104da9190613546565b60405180910390f35b3480156104ee575f5ffd5b506104f7611a75565b6040516105049190613943565b60405180910390f35b348015610518575f5ffd5b50610533600480360381019061052e91906137f0565b611a9a565b6040516105409190613848565b60405180910390f35b348015610554575f5ffd5b5061055d611ac4565b60405161056a9190613617565b60405180910390f35b34801561057e575f5ffd5b50610587611aeb565b6040516105949190613546565b60405180910390f35b3480156105a8575f5ffd5b506105c360048036038101906105be91906137f0565b611af1565b6040516105d09190613848565b60405180910390f35b3480156105e4575f5ffd5b506105ff60048036038101906105fa91906138bd565b611b1b565b005b34801561060c575f5ffd5b50610627600480360381019061062291906137f0565b611b2d565b6040516106349190613879565b60405180910390f35b348015610648575f5ffd5b50610663600480360381019061065e91906137f0565b611b4d565b6040516106709190613546565b60405180910390f35b348015610684575f5ffd5b5061068d611b6d565b60405161069a9190613546565b60405180910390f35b3480156106ae575f5ffd5b506106b7611b73565b6040516106c49190613617565b60405180910390f35b6106d5611b9b565b005b3480156106e2575f5ffd5b506106eb611c90565b6040516106f89190613943565b60405180910390f35b34801561070c575f5ffd5b50610727600480360381019061072291906139b9565b611cb5565b005b348015610734575f5ffd5b5061074f600480360381019061074a9190613a2e565b6120c0565b005b34801561075c575f5ffd5b5061076561254c565b6040516107729190613546565b60405180910390f35b348015610786575f5ffd5b506107a1600480360381019061079c9190613892565b612552565b005b3480156107ae575f5ffd5b506107b76125d6565b6040516107c49190613546565b60405180910390f35b3480156107d8575f5ffd5b506107f360048036038101906107ee9190613a8f565b6125e2565b005b348015610800575f5ffd5b50610809612cd4565b6040516108169190613b8b565b60405180910390f35b6011602052815f5260405f208181548110610838575f80fd5b905f5260205f20015f915091509054906101000a900473ffffffffffffffffffffffffffffffffffffffff1681565b61086f612ce7565b5f82116108b1576040517f08c379a00000000000000000000000000000000000000000000000000000000081526004016108a890613bee565b60405180910390fd5b60035482146108f5576040517f08c379a00000000000000000000000000000000000000000000000000000000081526004016108ec90613c56565b60405180910390fd5b60095f8381526020019081526020015f205f3373ffffffffffffffffffffffffffffffffffffffff1673ffffffffffffffffffffffffffffffffffffffff1681526020019081526020015f205f9054906101000a900460ff1661098d576040517f08c379a000000000000000000000000000000000000000000000000000000000815260040161098490613cbe565b60405180910390fd5b5f5f1b600b5f8481526020019081526020015f205f3373ffffffffffffffffffffffffffffffffffffffff1673ffffffffffffffffffffffffffffffffffffffff1681526020019081526020015f205403610a1d576040517f08c379a0000000000000000000000000000000000000000000000000000000008152600401610a1490613d26565b60405180910390fd5b600e5f8381526020019081526020015f205f3373ffffffffffffffffffffffffffffffffffffffff1673ffffffffffffffffffffffffffffffffffffffff1681526020019081526020015f205f9054906101000a900460ff1615610ab6576040517f08c379a0000000000000000000000000000000000000000000000000000000008152600401610aad90613d8e565b60405180910390fd5b600f54600c5f8481526020019081526020015f205f3373ffffffffffffffffffffffffffffffffffffffff1673ffffffffffffffffffffffffffffffffffffffff1681526020019081526020015f2054610b109190613504565b421015610b52576040517f08c379a0000000000000000000000000000000000000000000000000000000008152600401610b4990613df6565b60405180910390fd5b5f81604051602001610b649190613e66565b604051602081830303815290604052805190602001209050600b5f8481526020019081526020015f205f3373ffffffffffffffffffffffffffffffffffffffff1673ffffffffffffffffffffffffffffffffffffffff1681526020019081526020015f20548114610c0a576040517f08c379a0000000000000000000000000000000000000000000000000000000008152600401610c0190613ec6565b60405180910390fd5b80600d5f8581526020019081526020015f205f3373ffffffffffffffffffffffffffffffffffffffff1673ffffffffffffffffffffffffffffffffffffffff1681526020019081526020015f20819055506001600e5f8581526020019081526020015f205f3373ffffffffffffffffffffffffffffffffffffffff1673ffffffffffffffffffffffffffffffffffffffff1681526020019081526020015f205f6101000a81548160ff0219169083151502179055505f5f1b600b5f8581526020019081526020015f205f3373ffffffffffffffffffffffffffffffffffffffff1673ffffffffffffffffffffffffffffffffffffffff1681526020019081526020015f20819055505f600c5f8581526020019081526020015f205f3373ffffffffffffffffffffffffffffffffffffffff1673ffffffffffffffffffffffffffffffffffffffff1681526020019081526020015f2081905550823373ffffffffffffffffffffffffffffffffffffffff167f59d3b853b3060eb254d2f04ecf2d2fba8ec34ae94835cd01eedead529314f52483604051610daa9190613879565b60405180910390a350610dbb612d2d565b5050565b600e602052815f5260405f20602052805f5260405f205f915091509054906101000a900460ff1681565b600d602052815f5260405f20602052805f5260405f205f91509150505481565b6002602052805f5260405f205f915090505481565b610e26612ce7565b5f8111610e68576040517f08c379a0000000000000000000000000000000000000000000000000000000008152600401610e5f90613f54565b60405180910390fd5b8060025f3373ffffffffffffffffffffffffffffffffffffffff1673ffffffffffffffffffffffffffffffffffffffff1681526020019081526020015f20541015610ee8576040517f08c379a0000000000000000000000000000000000000000000000000000000008152600401610edf90613fbc565b60405180910390fd5b8060025f3373ffffffffffffffffffffffffffffffffffffffff1673ffffffffffffffffffffffffffffffffffffffff1681526020019081526020015f205f828254610f349190613fda565b925050819055505f3373ffffffffffffffffffffffffffffffffffffffff1682604051610f609061403a565b5f6040518083038185875af1925050503d805f8114610f9a576040519150601f19603f3d011682016040523d82523d5f602084013e610f9f565b606091505b5050905080610fe3576040517f08c379a0000000000000000000000000000000000000000000000000000000008152600401610fda90614098565b60405180910390fd5b3373ffffffffffffffffffffffffffffffffffffffff167f7fcf532c15f0a6db0bd6d0e038bea71d30d808c7d98cb3bf7268a95bf5081b65836040516110299190613546565b60405180910390a25061103a612d2d565b50565b611045612d36565b61104d612ce7565b5f811161108f576040517f08c379a000000000000000000000000000000000000000000000000000000000815260040161108690614126565b60405180910390fd5b8060045410156110d4576040517f08c379a00000000000000000000000000000000000000000000000000000000081526004016110cb9061418e565b60405180910390fd5b8060045f8282546110e59190613fda565b925050819055505f6110f5611ac4565b73ffffffffffffffffffffffffffffffffffffffff168262030d409060405161111d9061403a565b5f60405180830381858888f193505050503d805f8114611158576040519150601f19603f3d011682016040523d82523d5f602084013e61115d565b606091505b50509050806111a1576040517f08c379a0000000000000000000000000000000000000000000000000000000008152600401611198906141f6565b60405180910390fd5b6111a9611ac4565b73ffffffffffffffffffffffffffffffffffffffff167fa919fadcfa556a012bab31b15f596ea7ccd397adbf10e15f176db9055ab361c4836040516111ee9190613546565b60405180910390a2506111ff612d2d565b50565b61120a612ce7565b60095f8281526020019081526020015f205f3373ffffffffffffffffffffffffffffffffffffffff1673ffffffffffffffffffffffffffffffffffffffff1681526020019081526020015f205f9054906101000a900460ff16156112a3576040517f08c379a000000000000000000000000000000000000000000000000000000000815260040161129a90614284565b60405180910390fd5b60035481146112e7576040517f08c379a00000000000000000000000000000000000000000000000000000000081526004016112de90613c56565b60405180910390fd5b5f6003541161132b576040517f08c379a0000000000000000000000000000000000000000000000000000000008152600401611322906142ec565b60405180910390fd5b5f670de0b6b3a764000011156115b8575f60085f9054906101000a900473ffffffffffffffffffffffffffffffffffffffff1690505f73ffffffffffffffffffffffffffffffffffffffff168173ffffffffffffffffffffffffffffffffffffffff16036113ce576040517f08c379a00000000000000000000000000000000000000000000000000000000081526004016113c590614354565b60405180910390fd5b5f8173ffffffffffffffffffffffffffffffffffffffff166370a08231306040518263ffffffff1660e01b81526004016114089190613617565b602060405180830381865afa158015611423573d5f5f3e3d5ffd5b505050506040513d601f19601f820116820180604052508101906114479190614386565b905061147e3330670de0b6b3a76400008573ffffffffffffffffffffffffffffffffffffffff16612dbd909392919063ffffffff16565b5f818373ffffffffffffffffffffffffffffffffffffffff166370a08231306040518263ffffffff1660e01b81526004016114b99190613617565b602060405180830381865afa1580156114d4573d5f5f3e3d5ffd5b505050506040513d601f19601f820116820180604052508101906114f89190614386565b6115029190613fda565b9050670de0b6b3a7640000811461154e576040517f08c379a000000000000000000000000000000000000000000000000000000000815260040161154590614421565b60405180910390fd5b838373ffffffffffffffffffffffffffffffffffffffff163373ffffffffffffffffffffffffffffffffffffffff167f1f8e0e31739d887c754fcf7403fe1bdf6641ef33578b9d08631a7d5e6e9b8fb7846040516115ac9190613546565b60405180910390a45050505b600160095f8381526020019081526020015f205f3373ffffffffffffffffffffffffffffffffffffffff1673ffffffffffffffffffffffffffffffffffffffff1681526020019081526020015f205f6101000a81548160ff021916908315150217905550803373ffffffffffffffffffffffffffffffffffffffff167fc16481c9484122696a660b57df0bf6839645c6b620cb1704ac2437de13be922560405160405180910390a3611668612d2d565b50565b611673612d36565b61167b612ce7565b5f81116116bd576040517f08c379a00000000000000000000000000000000000000000000000000000000081526004016116b490614489565b60405180910390fd5b6001808111156116d0576116cf613b18565b5b600860149054906101000a900460ff1660018111156116f2576116f1613b18565b5b14611732576040517f08c379a000000000000000000000000000000000000000000000000000000000815260040161172990614517565b60405180910390fd5b5f73ffffffffffffffffffffffffffffffffffffffff1660055f9054906101000a900473ffffffffffffffffffffffffffffffffffffffff1673ffffffffffffffffffffffffffffffffffffffff16036117c1576040517f08c379a00000000000000000000000000000000000000000000000000000000081526004016117b89061457f565b60405180910390fd5b61180f33308360055f9054906101000a900473ffffffffffffffffffffffffffffffffffffffff1673ffffffffffffffffffffffffffffffffffffffff16612dbd909392919063ffffffff16565b8060065f8282546118209190613504565b925050819055503373ffffffffffffffffffffffffffffffffffffffff167f4708e702157b1eb6cd00a772e6a623599ac7dc0bad76e8c624fdef050b434f0982600160405161187092919061459d565b60405180910390a2611880612d2d565b50565b600f5481565b611891612d36565b611899612ce7565b5f81116118db576040517f08c379a00000000000000000000000000000000000000000000000000000000081526004016118d290614634565b60405180910390fd5b806006541015611920576040517f08c379a00000000000000000000000000000000000000000000000000000000081526004016119179061469c565b60405180910390fd5b5f73ffffffffffffffffffffffffffffffffffffffff1660055f9054906101000a900473ffffffffffffffffffffffffffffffffffffffff1673ffffffffffffffffffffffffffffffffffffffff16036119af576040517f08c379a00000000000000000000000000000000000000000000000000000000081526004016119a69061457f565b60405180910390fd5b8060065f8282546119c09190613fda565b92505081905550611a1a6119d2611ac4565b8260055f9054906101000a900473ffffffffffffffffffffffffffffffffffffffff1673ffffffffffffffffffffffffffffffffffffffff16612e3f9092919063ffffffff16565b7f560c2b6d9212838c63f631c64ebc9d7364da90f9af3fdec847c0725dd18330c881604051611a499190613546565b60405180910390a1611a59612d2d565b50565b611a64612d36565b611a6d5f612ebe565b565b60075481565b60085f9054906101000a900473ffffffffffffffffffffffffffffffffffffffff1681565b600a602052815f5260405f20602052805f5260405f205f915091509054906101000a900460ff1681565b5f5f5f9054906101000a900473ffffffffffffffffffffffffffffffffffffffff16905090565b60045481565b6009602052815f5260405f20602052805f5260405f205f915091509054906101000a900460ff1681565b611b23612d36565b80600f8190555050565b600b602052815f5260405f20602052805f5260405f205f91509150505481565b600c602052815f5260405f20602052805f5260405f205f91509150505481565b60065481565b5f60055f9054906101000a900473ffffffffffffffffffffffffffffffffffffffff16905090565b611ba3612ce7565b5f3411611be5576040517f08c379a0000000000000000000000000000000000000000000000000000000008152600401611bdc9061472a565b60405180910390fd5b3460025f3373ffffffffffffffffffffffffffffffffffffffff1673ffffffffffffffffffffffffffffffffffffffff1681526020019081526020015f205f828254611c319190613504565b925050819055503373ffffffffffffffffffffffffffffffffffffffff167fe1fffcc4923d04b559f4d29a8bfc6cda04eb5b0d3c460751c2402c5c5cc9109c34604051611c7e9190613546565b60405180910390a2611c8e612d2d565b565b60055f9054906101000a900473ffffffffffffffffffffffffffffffffffffffff1681565b611cbd612ce7565b5f60035411611d01576040517f08c379a0000000000000000000000000000000000000000000000000000000008152600401611cf8906142ec565b60405180910390fd5b60095f60035481526020019081526020015f205f3373ffffffffffffffffffffffffffffffffffffffff1673ffffffffffffffffffffffffffffffffffffffff1681526020019081526020015f205f9054906101000a900460ff16611d9b576040517f08c379a0000000000000000000000000000000000000000000000000000000008152600401611d9290613cbe565b60405180910390fd5b600a5f60035481526020019081526020015f205f3373ffffffffffffffffffffffffffffffffffffffff1673ffffffffffffffffffffffffffffffffffffffff1681526020019081526020015f205f9054906101000a900460ff1615611e36576040517f08c379a0000000000000000000000000000000000000000000000000000000008152600401611e2d90614792565b60405180910390fd5b600e5f60035481526020019081526020015f205f3373ffffffffffffffffffffffffffffffffffffffff1673ffffffffffffffffffffffffffffffffffffffff1681526020019081526020015f205f9054906101000a900460ff16611ed0576040517f08c379a0000000000000000000000000000000000000000000000000000000008152600401611ec7906147fa565b60405180910390fd5b8181604051602001611ee392919061483c565b60405160208183030381529060405280519060200120600d5f60035481526020019081526020015f205f3373ffffffffffffffffffffffffffffffffffffffff1673ffffffffffffffffffffffffffffffffffffffff1681526020019081526020015f205414611f88576040517f08c379a0000000000000000000000000000000000000000000000000000000008152600401611f7f906148c4565b60405180910390fd5b6001600a5f60035481526020019081526020015f205f3373ffffffffffffffffffffffffffffffffffffffff1673ffffffffffffffffffffffffffffffffffffffff1681526020019081526020015f205f6101000a81548160ff021916908315150217905550611ffa33600754612f7f565b5f5f1b600d5f60035481526020019081526020015f205f3373ffffffffffffffffffffffffffffffffffffffff1673ffffffffffffffffffffffffffffffffffffffff1681526020019081526020015f20819055505f600e5f60035481526020019081526020015f205f3373ffffffffffffffffffffffffffffffffffffffff1673ffffffffffffffffffffffffffffffffffffffff1681526020019081526020015f205f6101000a81548160ff0219169083151502179055506120bc612d2d565b5050565b6120c8612ce7565b5f821161210a576040517f08c379a000000000000000000000000000000000000000000000000000000000815260040161210190613bee565b60405180910390fd5b600354821461214e576040517f08c379a000000000000000000000000000000000000000000000000000000000815260040161214590613c56565b60405180910390fd5b5f5f1b8103612192576040517f08c379a00000000000000000000000000000000000000000000000000000000081526004016121899061492c565b60405180910390fd5b60095f8381526020019081526020015f205f3373ffffffffffffffffffffffffffffffffffffffff1673ffffffffffffffffffffffffffffffffffffffff1681526020019081526020015f205f9054906101000a900460ff1661222a576040517f08c379a000000000000000000000000000000000000000000000000000000000815260040161222190613cbe565b60405180910390fd5b60105481036123fd575f5f90505f5f90505b60115f8581526020019081526020015f20805490508110156122eb573373ffffffffffffffffffffffffffffffffffffffff1660115f8681526020019081526020015f2082815481106122925761229161494a565b5b905f5260205f20015f9054906101000a900473ffffffffffffffffffffffffffffffffffffffff1673ffffffffffffffffffffffffffffffffffffffff16036122de57600191506122eb565b808060010191505061223c565b50806123a55760115f8481526020019081526020015f2033908060018154018082558091505060019003905f5260205f20015f9091909190916101000a81548173ffffffffffffffffffffffffffffffffffffffff021916908373ffffffffffffffffffffffffffffffffffffffff160217905550823373ffffffffffffffffffffffffffffffffffffffff167fb5d93c368c4bd18876654db9fd5dcef5a3583ccde4d81659e7f309f36c84490560405160405180910390a35b3373ffffffffffffffffffffffffffffffffffffffff16837f6dbad7911810fc45c016aff41534b7adcd5477454a9b5be0d995a93518cde6754260016040516123ef929190614977565b60405180910390a35061244f565b3373ffffffffffffffffffffffffffffffffffffffff16827f6dbad7911810fc45c016aff41534b7adcd5477454a9b5be0d995a93518cde675425f604051612446929190614977565b60405180910390a35b80600b5f8481526020019081526020015f205f3373ffffffffffffffffffffffffffffffffffffffff1673ffffffffffffffffffffffffffffffffffffffff1681526020019081526020015f208190555042600c5f8481526020019081526020015f205f3373ffffffffffffffffffffffffffffffffffffffff1673ffffffffffffffffffffffffffffffffffffffff1681526020019081526020015f2081905550813373ffffffffffffffffffffffffffffffffffffffff167fc5009e6865ae04f58da43f80d7eb9718a2f25a7ccfeb22a8ca0031e77b86b50a836040516125389190613879565b60405180910390a3612548612d2d565b5050565b60035481565b61255a612d36565b5f73ffffffffffffffffffffffffffffffffffffffff168173ffffffffffffffffffffffffffffffffffffffff16036125ca575f6040517f1e4fbdf70000000000000000000000000000000000000000000000000000000081526004016125c19190613617565b60405180910390fd5b6125d381612ebe565b50565b670de0b6b3a764000081565b6125ea612d36565b5f861161262c576040517f08c379a000000000000000000000000000000000000000000000000000000000815260040161262390613bee565b60405180910390fd5b6003548611612670576040517f08c379a000000000000000000000000000000000000000000000000000000000815260040161266790614a0e565b60405180910390fd5b5f82116126b2576040517f08c379a00000000000000000000000000000000000000000000000000000000081526004016126a990614a9c565b60405180910390fd5b6001808111156126c5576126c4613b18565b5b8460018111156126d8576126d7613b18565b5b03612891575f73ffffffffffffffffffffffffffffffffffffffff168373ffffffffffffffffffffffffffffffffffffffff160361274b576040517f08c379a000000000000000000000000000000000000000000000000000000000815260040161274290614b2a565b60405180910390fd5b5f8373ffffffffffffffffffffffffffffffffffffffff163b116127a4576040517f08c379a000000000000000000000000000000000000000000000000000000000815260040161279b90614b92565b60405180910390fd5b8273ffffffffffffffffffffffffffffffffffffffff166318160ddd6040518163ffffffff1660e01b8152600401602060405180830381865afa92505050801561280c57506040513d601f19601f820116820180604052508101906128099190614386565b60015b61284b576040517f08c379a000000000000000000000000000000000000000000000000000000000815260040161284290614c20565b60405180910390fd5b508260055f6101000a81548173ffffffffffffffffffffffffffffffffffffffff021916908373ffffffffffffffffffffffffffffffffffffffff160217905550612940565b5f73ffffffffffffffffffffffffffffffffffffffff168373ffffffffffffffffffffffffffffffffffffffff16146128ff576040517f08c379a00000000000000000000000000000000000000000000000000000000081526004016128f690614cae565b60405180910390fd5b5f60055f6101000a81548173ffffffffffffffffffffffffffffffffffffffff021916908373ffffffffffffffffffffffffffffffffffffffff1602179055505b5f670de0b6b3a76400001115612b04575f73ffffffffffffffffffffffffffffffffffffffff168173ffffffffffffffffffffffffffffffffffffffff16036129be576040517f08c379a00000000000000000000000000000000000000000000000000000000081526004016129b590614d62565b60405180910390fd5b5f8173ffffffffffffffffffffffffffffffffffffffff163b11612a17576040517f08c379a0000000000000000000000000000000000000000000000000000000008152600401612a0e90614df0565b60405180910390fd5b8073ffffffffffffffffffffffffffffffffffffffff166318160ddd6040518163ffffffff1660e01b8152600401602060405180830381865afa925050508015612a7f57506040513d601f19601f82011682018060405250810190612a7c9190614386565b60015b612abe576040517f08c379a0000000000000000000000000000000000000000000000000000000008152600401612ab590614e7e565b60405180910390fd5b508060085f6101000a81548173ffffffffffffffffffffffffffffffffffffffff021916908373ffffffffffffffffffffffffffffffffffffffff160217905550612bb3565b5f73ffffffffffffffffffffffffffffffffffffffff168173ffffffffffffffffffffffffffffffffffffffff1614612b72576040517f08c379a0000000000000000000000000000000000000000000000000000000008152600401612b6990614f0c565b60405180910390fd5b5f60085f6101000a81548173ffffffffffffffffffffffffffffffffffffffff021916908373ffffffffffffffffffffffffffffffffffffffff1602179055505b5f60045414612bf7576040517f08c379a0000000000000000000000000000000000000000000000000000000008152600401612bee90614f9a565b60405180910390fd5b5f60065414612c3b576040517f08c379a0000000000000000000000000000000000000000000000000000000008152600401612c3290615028565b60405180910390fd5b856003819055508460108190555083600860146101000a81548160ff02191690836001811115612c6e57612c6d613b18565b5b021790555081600781905550857f05227007ca99c4e41f51fb024dcb2065e16bd026db353ce7f322e5cdb4fb2e9d86866001811115612cb057612caf613b18565b5b868686604051612cc4959493929190615061565b60405180910390a2505050505050565b600860149054906101000a900460ff1681565b600260015403612d23576040517f3ee5aeb500000000000000000000000000000000000000000000000000000000815260040160405180910390fd5b6002600181905550565b60018081905550565b612d3e61338e565b73ffffffffffffffffffffffffffffffffffffffff16612d5c611ac4565b73ffffffffffffffffffffffffffffffffffffffff1614612dbb57612d7f61338e565b6040517f118cdaa7000000000000000000000000000000000000000000000000000000008152600401612db29190613617565b60405180910390fd5b565b612e39848573ffffffffffffffffffffffffffffffffffffffff166323b872dd868686604051602401612df2939291906150b2565b604051602081830303815290604052915060e01b6020820180517bffffffffffffffffffffffffffffffffffffffffffffffffffffffff8381831617835250505050613395565b50505050565b612eb9838473ffffffffffffffffffffffffffffffffffffffff1663a9059cbb8585604051602401612e729291906150e7565b604051602081830303815290604052915060e01b6020820180517bffffffffffffffffffffffffffffffffffffffffffffffffffffffff8381831617835250505050613395565b505050565b5f5f5f9054906101000a900473ffffffffffffffffffffffffffffffffffffffff169050815f5f6101000a81548173ffffffffffffffffffffffffffffffffffffffff021916908373ffffffffffffffffffffffffffffffffffffffff1602179055508173ffffffffffffffffffffffffffffffffffffffff168173ffffffffffffffffffffffffffffffffffffffff167f8be0079c531659141344cd1fd0a4f28419497f9722a3daafe3b4186f6b6457e060405160405180910390a35050565b5f73ffffffffffffffffffffffffffffffffffffffff168273ffffffffffffffffffffffffffffffffffffffff1603612fed576040517f08c379a0000000000000000000000000000000000000000000000000000000008152600401612fe490615158565b60405180910390fd5b5f811161302f576040517f08c379a000000000000000000000000000000000000000000000000000000000815260040161302690614a9c565b60405180910390fd5b5f600181111561304257613041613b18565b5b600860149054906101000a900460ff16600181111561306457613063613b18565b5b036131b7578060045410156130ae576040517f08c379a00000000000000000000000000000000000000000000000000000000081526004016130a5906151e6565b60405180910390fd5b804710156130f1576040517f08c379a00000000000000000000000000000000000000000000000000000000081526004016130e890615274565b60405180910390fd5b8060045f8282546131029190613fda565b925050819055505f8273ffffffffffffffffffffffffffffffffffffffff168260405161312e9061403a565b5f6040518083038185875af1925050503d805f8114613168576040519150601f19603f3d011682016040523d82523d5f602084013e61316d565b606091505b50509050806131b1576040517f08c379a00000000000000000000000000000000000000000000000000000000081526004016131a8906152dc565b60405180910390fd5b5061332b565b6001808111156131ca576131c9613b18565b5b600860149054906101000a900460ff1660018111156131ec576131eb613b18565b5b0361332a575f73ffffffffffffffffffffffffffffffffffffffff1660055f9054906101000a900473ffffffffffffffffffffffffffffffffffffffff1673ffffffffffffffffffffffffffffffffffffffff1603613280576040517f08c379a00000000000000000000000000000000000000000000000000000000081526004016132779061457f565b60405180910390fd5b8060065410156132c5576040517f08c379a00000000000000000000000000000000000000000000000000000000081526004016132bc9061536a565b60405180910390fd5b8060065f8282546132d69190613fda565b92505081905550613329828260055f9054906101000a900473ffffffffffffffffffffffffffffffffffffffff1673ffffffffffffffffffffffffffffffffffffffff16612e3f9092919063ffffffff16565b5b5b8173ffffffffffffffffffffffffffffffffffffffff167fff43c2705b2225c1c9d9d58f088ab64d4fc767737dee523bed37f15fb0c6c3de82600860149054906101000a900460ff1660405161338292919061459d565b60405180910390a25050565b5f33905090565b5f5f60205f8451602086015f885af1806133b4576040513d5f823e3d81fd5b3d92505f519150505f82146133cd5760018114156133e8565b5f8473ffffffffffffffffffffffffffffffffffffffff163b145b1561342a57836040517f5274afe70000000000000000000000000000000000000000000000000000000081526004016134219190613617565b60405180910390fd5b50505050565b5f82825260208201905092915050565b7f45544820616d6f756e74206d7573742062652067726561746572207468616e205f8201527f7a65726f00000000000000000000000000000000000000000000000000000000602082015250565b5f61349a602483613430565b91506134a582613440565b604082019050919050565b5f6020820190508181035f8301526134c78161348e565b9050919050565b5f819050919050565b7f4e487b71000000000000000000000000000000000000000000000000000000005f52601160045260245ffd5b5f61350e826134ce565b9150613519836134ce565b9250828201905080821115613531576135306134d7565b5b92915050565b613540816134ce565b82525050565b5f6020820190506135595f830184613537565b92915050565b5f604051905090565b5f5ffd5b5f5ffd5b613579816134ce565b8114613583575f5ffd5b50565b5f8135905061359481613570565b92915050565b5f5f604083850312156135b0576135af613568565b5b5f6135bd85828601613586565b92505060206135ce85828601613586565b9150509250929050565b5f73ffffffffffffffffffffffffffffffffffffffff82169050919050565b5f613601826135d8565b9050919050565b613611816135f7565b82525050565b5f60208201905061362a5f830184613608565b92915050565b5f5ffd5b5f5ffd5b5f601f19601f8301169050919050565b7f4e487b71000000000000000000000000000000000000000000000000000000005f52604160045260245ffd5b61367e82613638565b810181811067ffffffffffffffff8211171561369d5761369c613648565b5b80604052505050565b5f6136af61355f565b90506136bb8282613675565b919050565b5f67ffffffffffffffff8211156136da576136d9613648565b5b6136e382613638565b9050602081019050919050565b828183375f83830152505050565b5f61371061370b846136c0565b6136a6565b90508281526020810184848401111561372c5761372b613634565b5b6137378482856136f0565b509392505050565b5f82601f83011261375357613752613630565b5b81356137638482602086016136fe565b91505092915050565b5f5f6040838503121561378257613781613568565b5b5f61378f85828601613586565b925050602083013567ffffffffffffffff8111156137b0576137af61356c565b5b6137bc8582860161373f565b9150509250929050565b6137cf816135f7565b81146137d9575f5ffd5b50565b5f813590506137ea816137c6565b92915050565b5f5f6040838503121561380657613805613568565b5b5f61381385828601613586565b9250506020613824858286016137dc565b9150509250929050565b5f8115159050919050565b6138428161382e565b82525050565b5f60208201905061385b5f830184613839565b92915050565b5f819050919050565b61387381613861565b82525050565b5f60208201905061388c5f83018461386a565b92915050565b5f602082840312156138a7576138a6613568565b5b5f6138b4848285016137dc565b91505092915050565b5f602082840312156138d2576138d1613568565b5b5f6138df84828501613586565b91505092915050565b5f819050919050565b5f61390b613906613901846135d8565b6138e8565b6135d8565b9050919050565b5f61391c826138f1565b9050919050565b5f61392d82613912565b9050919050565b61393d81613923565b82525050565b5f6020820190506139565f830184613934565b92915050565b5f5ffd5b5f5ffd5b5f5f83601f84011261397957613978613630565b5b8235905067ffffffffffffffff8111156139965761399561395c565b5b6020830191508360018202830111156139b2576139b1613960565b5b9250929050565b5f5f602083850312156139cf576139ce613568565b5b5f83013567ffffffffffffffff8111156139ec576139eb61356c565b5b6139f885828601613964565b92509250509250929050565b613a0d81613861565b8114613a17575f5ffd5b50565b5f81359050613a2881613a04565b92915050565b5f5f60408385031215613a4457613a43613568565b5b5f613a5185828601613586565b9250506020613a6285828601613a1a565b9150509250929050565b60028110613a78575f5ffd5b50565b5f81359050613a8981613a6c565b92915050565b5f5f5f5f5f5f60c08789031215613aa957613aa8613568565b5b5f613ab689828a01613586565b9650506020613ac789828a01613a1a565b9550506040613ad889828a01613a7b565b9450506060613ae989828a016137dc565b9350506080613afa89828a01613586565b92505060a0613b0b89828a016137dc565b9150509295509295509295565b7f4e487b71000000000000000000000000000000000000000000000000000000005f52602160045260245ffd5b60028110613b5657613b55613b18565b5b50565b5f819050613b6682613b45565b919050565b5f613b7582613b59565b9050919050565b613b8581613b6b565b82525050565b5f602082019050613b9e5f830184613b7c565b92915050565b7f526964646c652049442063616e6e6f74206265207a65726f00000000000000005f82015250565b5f613bd8601883613430565b9150613be382613ba4565b602082019050919050565b5f6020820190508181035f830152613c0581613bcc565b9050919050565b7f4e6f74207468652061637469766520726964646c6520494400000000000000005f82015250565b5f613c40601883613430565b9150613c4b82613c0c565b602082019050919050565b5f6020820190508181035f830152613c6d81613c34565b9050919050565b7f4d75737420656e746572207468652067616d65206669727374000000000000005f82015250565b5f613ca8601983613430565b9150613cb382613c74565b602082019050919050565b5f6020820190508181035f830152613cd581613c9c565b9050919050565b7f4e6f20636f6d6d697474656420677565737300000000000000000000000000005f82015250565b5f613d10601283613430565b9150613d1b82613cdc565b602082019050919050565b5f6020820190508181035f830152613d3d81613d04565b9050919050565b7f416c72656164792072657665616c6564000000000000000000000000000000005f82015250565b5f613d78601083613430565b9150613d8382613d44565b602082019050919050565b5f6020820190508181035f830152613da581613d6c565b9050919050565b7f52657665616c20746f6f206561726c79000000000000000000000000000000005f82015250565b5f613de0601083613430565b9150613deb82613dac565b602082019050919050565b5f6020820190508181035f830152613e0d81613dd4565b9050919050565b5f81519050919050565b5f81905092915050565b8281835e5f83830152505050565b5f613e4082613e14565b613e4a8185613e1e565b9350613e5a818560208601613e28565b80840191505092915050565b5f613e718284613e36565b915081905092915050565b7f52657665616c20646f6573206e6f74206d6174636820636f6d6d6974000000005f82015250565b5f613eb0601c83613430565b9150613ebb82613e7c565b602082019050919050565b5f6020820190508181035f830152613edd81613ea4565b9050919050565b7f5769746864726177616c20616d6f756e74206d757374206265206772656174655f8201527f72207468616e207a65726f000000000000000000000000000000000000000000602082015250565b5f613f3e602b83613430565b9150613f4982613ee4565b604082019050919050565b5f6020820190508181035f830152613f6b81613f32565b9050919050565b7f496e73756666696369656e742062616c616e63650000000000000000000000005f82015250565b5f613fa6601483613430565b9150613fb182613f72565b602082019050919050565b5f6020820190508181035f830152613fd381613f9a565b9050919050565b5f613fe4826134ce565b9150613fef836134ce565b9250828203905081811115614007576140066134d7565b5b92915050565b5f81905092915050565b50565b5f6140255f8361400d565b915061403082614017565b5f82019050919050565b5f6140448261401a565b9150819050919050565b7f5769746864726177616c206661696c65640000000000000000000000000000005f82015250565b5f614082601183613430565b915061408d8261404e565b602082019050919050565b5f6020820190508181035f8301526140af81614076565b9050919050565b7f4f776e6572207769746864726177616c20616d6f756e74206d757374206265205f8201527f67726561746572207468616e207a65726f000000000000000000000000000000602082015250565b5f614110603183613430565b915061411b826140b6565b604082019050919050565b5f6020820190508181035f83015261413d81614104565b9050919050565b7f496e73756666696369656e7420455448207072697a6520706f6f6c00000000005f82015250565b5f614178601b83613430565b915061418382614144565b602082019050919050565b5f6020820190508181035f8301526141a58161416c565b9050919050565b7f4f776e6572207769746864726177616c206661696c65640000000000000000005f82015250565b5f6141e0601783613430565b91506141eb826141ac565b602082019050919050565b5f6020820190508181035f83015261420d816141d4565b9050919050565b7f416c72656164792070617274696369706174656420696e2074686973207269645f8201527f646c650000000000000000000000000000000000000000000000000000000000602082015250565b5f61426e602383613430565b915061427982614214565b604082019050919050565b5f6020820190508181035f83015261429b81614262565b9050919050565b7f4e6f2061637469766520726964646c65000000000000000000000000000000005f82015250565b5f6142d6601083613430565b91506142e1826142a2565b602082019050919050565b5f6020820190508181035f830152614303816142ca565b9050919050565b7f456e7472792066656520746f6b656e206e6f74207365740000000000000000005f82015250565b5f61433e601783613430565b91506143498261430a565b602082019050919050565b5f6020820190508181035f83015261436b81614332565b9050919050565b5f8151905061438081613570565b92915050565b5f6020828403121561439b5761439a613568565b5b5f6143a884828501614372565b91505092915050565b7f456e74727920666565206d69736d617463682028464f54206e6f7420737570705f8201527f6f72746564290000000000000000000000000000000000000000000000000000602082015250565b5f61440b602683613430565b9150614416826143b1565b604082019050919050565b5f6020820190508181035f830152614438816143ff565b9050919050565b7f416d6f756e74206d7573742062652067726561746572207468616e207a65726f5f82015250565b5f614473602083613430565b915061447e8261443f565b602082019050919050565b5f6020820190508181035f8301526144a081614467565b9050919050565b7f43757272656e7420726964646c65207072697a65206973206e6f7420455243325f8201527f3000000000000000000000000000000000000000000000000000000000000000602082015250565b5f614501602183613430565b915061450c826144a7565b604082019050919050565b5f6020820190508181035f83015261452e816144f5565b9050919050565b7f5072697a6520746f6b656e206e6f7420736574000000000000000000000000005f82015250565b5f614569601383613430565b915061457482614535565b602082019050919050565b5f6020820190508181035f8301526145968161455d565b9050919050565b5f6040820190506145b05f830185613537565b6145bd6020830184613b7c565b9392505050565b7f4f776e657220746f6b656e207769746864726177616c20616d6f756e74206d755f8201527f73742062652067726561746572207468616e207a65726f000000000000000000602082015250565b5f61461e603783613430565b9150614629826145c4565b604082019050919050565b5f6020820190508181035f83015261464b81614612565b9050919050565b7f496e73756666696369656e7420746f6b656e207072697a6520706f6f6c0000005f82015250565b5f614686601d83613430565b915061469182614652565b602082019050919050565b5f6020820190508181035f8301526146b38161467a565b9050919050565b7f4465706f73697420616d6f756e74206d757374206265206772656174657220745f8201527f68616e207a65726f000000000000000000000000000000000000000000000000602082015250565b5f614714602883613430565b915061471f826146ba565b604082019050919050565b5f6020820190508181035f83015261474181614708565b9050919050565b7f416c726561647920636c61696d656400000000000000000000000000000000005f82015250565b5f61477c600f83613430565b915061478782614748565b602082019050919050565b5f6020820190508181035f8301526147a981614770565b9050919050565b7f4d7573742072657665616c206775657373206265666f726520736f6c76696e675f82015250565b5f6147e4602083613430565b91506147ef826147b0565b602082019050919050565b5f6020820190508181035f830152614811816147d8565b9050919050565b5f6148238385613e1e565b93506148308385846136f0565b82840190509392505050565b5f614848828486614818565b91508190509392505050565b7f52657665616c656420677565737320646f6573206e6f74206d617463682070725f8201527f6f766964656420616e7377657200000000000000000000000000000000000000602082015250565b5f6148ae602d83613430565b91506148b982614854565b604082019050919050565b5f6020820190508181035f8301526148db816148a2565b9050919050565b7f477565737320686173682063616e6e6f74206265207a65726f000000000000005f82015250565b5f614916601983613430565b9150614921826148e2565b602082019050919050565b5f6020820190508181035f8301526149438161490a565b9050919050565b7f4e487b71000000000000000000000000000000000000000000000000000000005f52603260045260245ffd5b5f60408201905061498a5f830185613537565b6149976020830184613839565b9392505050565b7f526964646c65204944206d7573742062652067726561746572207468616e20635f8201527f757272656e740000000000000000000000000000000000000000000000000000602082015250565b5f6149f8602683613430565b9150614a038261499e565b604082019050919050565b5f6020820190508181035f830152614a25816149ec565b9050919050565b7f5072697a6520616d6f756e74206d7573742062652067726561746572207468615f8201527f6e207a65726f0000000000000000000000000000000000000000000000000000602082015250565b5f614a86602683613430565b9150614a9182614a2c565b604082019050919050565b5f6020820190508181035f830152614ab381614a7a565b9050919050565b7f5072697a6520746f6b656e20616464726573732063616e6e6f74206265207a655f8201527f726f20666f72204552433230207072697a650000000000000000000000000000602082015250565b5f614b14603283613430565b9150614b1f82614aba565b604082019050919050565b5f6020820190508181035f830152614b4181614b08565b9050919050565b7f5072697a6520746f6b656e20686173206e6f20636f6e747261637420636f64655f82015250565b5f614b7c602083613430565b9150614b8782614b48565b602082019050919050565b5f6020820190508181035f830152614ba981614b70565b9050919050565b7f496e76616c6964204552432d323020746f6b656e3a20746f74616c537570706c5f8201527f792063616c6c206661696c656400000000000000000000000000000000000000602082015250565b5f614c0a602d83613430565b9150614c1582614bb0565b604082019050919050565b5f6020820190508181035f830152614c3781614bfe565b9050919050565b7f5072697a6520746f6b656e2061646472657373206d757374206265207a65726f5f8201527f20666f7220455448207072697a65000000000000000000000000000000000000602082015250565b5f614c98602e83613430565b9150614ca382614c3e565b604082019050919050565b5f6020820190508181035f830152614cc581614c8c565b9050919050565b7f456e7472792066656520746f6b656e20616464726573732063616e6e6f7420625f8201527f65207a65726f20696620656e7472792066656520616d6f756e7420697320677260208201527f6561746572207468616e207a65726f0000000000000000000000000000000000604082015250565b5f614d4c604f83613430565b9150614d5782614ccc565b606082019050919050565b5f6020820190508181035f830152614d7981614d40565b9050919050565b7f456e7472792066656520746f6b656e20686173206e6f20636f6e7472616374205f8201527f636f646500000000000000000000000000000000000000000000000000000000602082015250565b5f614dda602483613430565b9150614de582614d80565b604082019050919050565b5f6020820190508181035f830152614e0781614dce565b9050919050565b7f496e76616c6964204552432d323020746f6b656e20666f7220656e74727920665f8201527f65653a20746f74616c537570706c792063616c6c206661696c65640000000000602082015250565b5f614e68603b83613430565b9150614e7382614e0e565b604082019050919050565b5f6020820190508181035f830152614e9581614e5c565b9050919050565b7f456e7472792066656520746f6b656e2061646472657373206d757374206265205f8201527f7a65726f20696620656e7472792066656520616d6f756e74206973207a65726f602082015250565b5f614ef6604083613430565b9150614f0182614e9c565b604082019050919050565b5f6020820190508181035f830152614f2381614eea565b9050919050565b7f4d75737420776974686472617720455448207072697a6520706f6f6c206265665f8201527f6f7265206e657720726964646c65000000000000000000000000000000000000602082015250565b5f614f84602e83613430565b9150614f8f82614f2a565b604082019050919050565b5f6020820190508181035f830152614fb181614f78565b9050919050565b7f4d75737420776974686472617720746f6b656e207072697a6520706f6f6c20625f8201527f65666f7265206e657720726964646c6500000000000000000000000000000000602082015250565b5f615012603083613430565b915061501d82614fb8565b604082019050919050565b5f6020820190508181035f83015261503f81615006565b9050919050565b5f60ff82169050919050565b61505b81615046565b82525050565b5f60a0820190506150745f83018861386a565b6150816020830187615052565b61508e6040830186613608565b61509b6060830185613537565b6150a86080830184613608565b9695505050505050565b5f6060820190506150c55f830186613608565b6150d26020830185613608565b6150df6040830184613537565b949350505050565b5f6040820190506150fa5f830185613608565b6151076020830184613537565b9392505050565b7f57696e6e657220616464726573732063616e6e6f74206265207a65726f0000005f82015250565b5f615142601d83613430565b915061514d8261510e565b602082019050919050565b5f6020820190508181035f83015261516f81615136565b9050919050565b7f496e73756666696369656e7420455448207072697a6520706f6f6c2062616c615f8201527f6e63650000000000000000000000000000000000000000000000000000000000602082015250565b5f6151d0602383613430565b91506151db82615176565b604082019050919050565b5f6020820190508181035f8301526151fd816151c4565b9050919050565b7f496e73756666696369656e7420636f6e7472616374204554482062616c616e635f8201527f6500000000000000000000000000000000000000000000000000000000000000602082015250565b5f61525e602183613430565b915061526982615204565b604082019050919050565b5f6020820190508181035f83015261528b81615252565b9050919050565b7f455448207472616e73666572206661696c6564000000000000000000000000005f82015250565b5f6152c6601383613430565b91506152d182615292565b602082019050919050565b5f6020820190508181035f8301526152f3816152ba565b9050919050565b7f496e73756666696369656e74204552433230207072697a6520706f6f6c2062615f8201527f6c616e6365000000000000000000000000000000000000000000000000000000602082015250565b5f615354602583613430565b915061535f826152fa565b604082019050919050565b5f6020820190508181035f83015261538181615348565b905091905056fea26469706673582212208b5a22ce3cb0c539dfab875d24b7fd314b43118011d85de1a6469893732467b164736f6c634300081e0033","linkReferences":{}},"methodIdentifiers":{"ENTRY_FEE()":"f6d361cc","balances(address)":"27e235e3","committedAt(uint256,address)":"c06a5fc5","committedGuesses(uint256,address)":"b7173e77","currentRiddleId()":"ecdc6c23","deposit()":"d0e30db0","enterGame(uint256)":"43d6582b","entryFeeToken()":"7b149763","ethPrizePool()":"95664a3d","fundTokenPrizePool(uint256)":"48b06e87","getPrizeToken()":"c7cd6959","hasClaimed(uint256,address)":"873f6f9e","hasParticipated(uint256,address)":"a34398a2","hasRevealed(uint256,address)":"16b5551d","owner()":"8da5cb5b","ownerWithdraw(uint256)":"33f707d1","ownerWithdrawTokens(uint256)":"60972120","prizeAmount()":"785fa627","prizeToken()":"d0ef024a","prizeType()":"fcdf8e89","renounceOwnership()":"715018a6","revealDelay()":"53236d74","revealGuess(uint256,string)":"12b5afc1","revealedGuessHash(uint256,address)":"188240cd","setRevealDelay(uint256)":"a68c25d8","setRiddle(uint256,bytes32,uint8,address,uint256,address)":"f9f82e9c","solveRiddleAndClaim(string)":"dc663b53","submitGuess(uint256,bytes32)":"e4d33ee3","tokenPrizePool()":"c310e242","transferOwnership(address)":"f2fde38b","winners(uint256,uint256)":"0efc8865","withdraw(uint256)":"2e1a7d4d"},"id":4}