{"abi":[{"type":"constructor","inputs":[{"name":"initialOwner","type":"address","internalType":"address"},{"name":"_retryTokenAddress","type":"address","internalType":"address"}],"stateMutability":"nonpayable"},{"type":"receive","stateMutability":"payable"},{"type":"function","name":"ENTRY_FEE","inputs":[],"outputs":[{"name":"","type":"uint256","internalType":"uint256"}],"stateMutability":"view"},{"type":"function","name":"MAX_RETRIES","inputs":[],"outputs":[{"name":"","type":"uint256","internalType":"uint256"}],"stateMutability":"view"},{"type":"function","name":"RETRY_COST","inputs":[],"outputs":[{"name":"","type":"uint256","internalType":"uint256"}],"stateMutability":"view"},{"type":"function","name":"balances","inputs":[{"name":"","type":"address","internalType":"address"}],"outputs":[{"name":"","type":"uint256","internalType":"uint256"}],"stateMutability":"view"},{"type":"function","name":"committedAt","inputs":[{"name":"","type":"uint256","internalType":"uint256"},{"name":"","type":"address","internalType":"address"}],"outputs":[{"name":"","type":"uint256","internalType":"uint256"}],"stateMutability":"view"},{"type":"function","name":"committedGuesses","inputs":[{"name":"","type":"uint256","internalType":"uint256"},{"name":"","type":"address","internalType":"address"}],"outputs":[{"name":"","type":"bytes32","internalType":"bytes32"}],"stateMutability":"view"},{"type":"function","name":"currentRiddleId","inputs":[],"outputs":[{"name":"","type":"uint256","internalType":"uint256"}],"stateMutability":"view"},{"type":"function","name":"deposit","inputs":[],"outputs":[],"stateMutability":"payable"},{"type":"function","name":"enterGame","inputs":[{"name":"_riddleId","type":"uint256","internalType":"uint256"}],"outputs":[],"stateMutability":"nonpayable"},{"type":"function","name":"entryFeeToken","inputs":[],"outputs":[{"name":"","type":"address","internalType":"contract IERC20"}],"stateMutability":"view"},{"type":"function","name":"ethPrizePool","inputs":[],"outputs":[{"name":"","type":"uint256","internalType":"uint256"}],"stateMutability":"view"},{"type":"function","name":"fundTokenPrizePool","inputs":[{"name":"_amount","type":"uint256","internalType":"uint256"}],"outputs":[],"stateMutability":"nonpayable"},{"type":"function","name":"getPrizeToken","inputs":[],"outputs":[{"name":"","type":"address","internalType":"address"}],"stateMutability":"view"},{"type":"function","name":"hasClaimed","inputs":[{"name":"","type":"uint256","internalType":"uint256"},{"name":"","type":"address","internalType":"address"}],"outputs":[{"name":"","type":"bool","internalType":"bool"}],"stateMutability":"view"},{"type":"function","name":"hasParticipated","inputs":[{"name":"","type":"uint256","internalType":"uint256"},{"name":"","type":"address","internalType":"address"}],"outputs":[{"name":"","type":"bool","internalType":"bool"}],"stateMutability":"view"},{"type":"function","name":"hasRevealed","inputs":[{"name":"","type":"uint256","internalType":"uint256"},{"name":"","type":"address","internalType":"address"}],"outputs":[{"name":"","type":"bool","internalType":"bool"}],"stateMutability":"view"},{"type":"function","name":"isWinner","inputs":[{"name":"","type":"uint256","internalType":"uint256"},{"name":"","type":"address","internalType":"address"}],"outputs":[{"name":"","type":"bool","internalType":"bool"}],"stateMutability":"view"},{"type":"function","name":"owner","inputs":[],"outputs":[{"name":"","type":"address","internalType":"address"}],"stateMutability":"view"},{"type":"function","name":"ownerWithdraw","inputs":[{"name":"_amount","type":"uint256","internalType":"uint256"}],"outputs":[],"stateMutability":"nonpayable"},{"type":"function","name":"ownerWithdrawTokens","inputs":[{"name":"_amount","type":"uint256","internalType":"uint256"}],"outputs":[],"stateMutability":"nonpayable"},{"type":"function","name":"playerRetries","inputs":[{"name":"","type":"uint256","internalType":"uint256"},{"name":"","type":"address","internalType":"address"}],"outputs":[{"name":"","type":"uint256","internalType":"uint256"}],"stateMutability":"view"},{"type":"function","name":"prizeAmount","inputs":[],"outputs":[{"name":"","type":"uint256","internalType":"uint256"}],"stateMutability":"view"},{"type":"function","name":"prizeToken","inputs":[],"outputs":[{"name":"","type":"address","internalType":"contract IERC20"}],"stateMutability":"view"},{"type":"function","name":"prizeType","inputs":[],"outputs":[{"name":"","type":"uint8","internalType":"enum Vaultis.PrizeType"}],"stateMutability":"view"},{"type":"function","name":"purchaseRetry","inputs":[{"name":"_riddleId","type":"uint256","internalType":"uint256"}],"outputs":[],"stateMutability":"nonpayable"},{"type":"function","name":"renounceOwnership","inputs":[],"outputs":[],"stateMutability":"nonpayable"},{"type":"function","name":"retryToken","inputs":[],"outputs":[{"name":"","type":"address","internalType":"contract IERC20"}],"stateMutability":"view"},{"type":"function","name":"revealDelay","inputs":[],"outputs":[{"name":"","type":"uint256","internalType":"uint256"}],"stateMutability":"view"},{"type":"function","name":"revealGuess","inputs":[{"name":"_riddleId","type":"uint256","internalType":"uint256"},{"name":"_guess","type":"string","internalType":"string"}],"outputs":[],"stateMutability":"nonpayable"},{"type":"function","name":"revealedGuessHash","inputs":[{"name":"","type":"uint256","internalType":"uint256"},{"name":"","type":"address","internalType":"address"}],"outputs":[{"name":"","type":"bytes32","internalType":"bytes32"}],"stateMutability":"view"},{"type":"function","name":"setRevealDelay","inputs":[{"name":"_newRevealDelay","type":"uint256","internalType":"uint256"}],"outputs":[],"stateMutability":"nonpayable"},{"type":"function","name":"setRiddle","inputs":[{"name":"_riddleId","type":"uint256","internalType":"uint256"},{"name":"_answerHash","type":"bytes32","internalType":"bytes32"},{"name":"_prizeType","type":"uint8","internalType":"enum Vaultis.PrizeType"},{"name":"_prizeTokenAddress","type":"address","internalType":"address"},{"name":"_prizeAmount","type":"uint256","internalType":"uint256"},{"name":"_entryFeeTokenAddress","type":"address","internalType":"address"}],"outputs":[],"stateMutability":"nonpayable"},{"type":"function","name":"solveRiddleAndClaim","inputs":[{"name":"_answer","type":"string","internalType":"string"}],"outputs":[],"stateMutability":"nonpayable"},{"type":"function","name":"submitGuess","inputs":[{"name":"_riddleId","type":"uint256","internalType":"uint256"},{"name":"_guessHash","type":"bytes32","internalType":"bytes32"}],"outputs":[],"stateMutability":"nonpayable"},{"type":"function","name":"tokenPrizePool","inputs":[],"outputs":[{"name":"","type":"uint256","internalType":"uint256"}],"stateMutability":"view"},{"type":"function","name":"transferOwnership","inputs":[{"name":"newOwner","type":"address","internalType":"address"}],"outputs":[],"stateMutability":"nonpayable"},{"type":"function","name":"winners","inputs":[{"name":"","type":"uint256","internalType":"uint256"},{"name":"","type":"uint256","internalType":"uint256"}],"outputs":[{"name":"","type":"address","internalType":"address"}],"stateMutability":"view"},{"type":"function","name":"withdraw","inputs":[{"name":"_amount","type":"uint256","internalType":"uint256"}],"outputs":[],"stateMutability":"nonpayable"},{"type":"event","name":"Deposit","inputs":[{"name":"user","type":"address","indexed":true,"internalType":"address"},{"name":"amount","type":"uint256","indexed":false,"internalType":"uint256"}],"anonymous":false},{"type":"event","name":"EntryFeeCollected","inputs":[{"name":"player","type":"address","indexed":true,"internalType":"address"},{"name":"token","type":"address","indexed":true,"internalType":"address"},{"name":"amount","type":"uint256","indexed":false,"internalType":"uint256"},{"name":"riddleId","type":"uint256","indexed":true,"internalType":"uint256"}],"anonymous":false},{"type":"event","name":"EthReceived","inputs":[{"name":"sender","type":"address","indexed":true,"internalType":"address"},{"name":"amount","type":"uint256","indexed":false,"internalType":"uint256"}],"anonymous":false},{"type":"event","name":"GuessEvaluated","inputs":[{"name":"riddleId","type":"uint256","indexed":true,"internalType":"uint256"},{"name":"player","type":"address","indexed":true,"internalType":"address"},{"name":"timestamp","type":"uint256","indexed":false,"internalType":"uint256"},{"name":"isWinner","type":"bool","indexed":false,"internalType":"bool"}],"anonymous":false},{"type":"event","name":"GuessRevealed","inputs":[{"name":"player","type":"address","indexed":true,"internalType":"address"},{"name":"riddleId","type":"uint256","indexed":true,"internalType":"uint256"},{"name":"revealedHash","type":"bytes32","indexed":false,"internalType":"bytes32"}],"anonymous":false},{"type":"event","name":"GuessSubmitted","inputs":[{"name":"player","type":"address","indexed":true,"internalType":"address"},{"name":"riddleId","type":"uint256","indexed":true,"internalType":"uint256"},{"name":"guessHash","type":"bytes32","indexed":false,"internalType":"bytes32"}],"anonymous":false},{"type":"event","name":"OwnerWithdrawTokens","inputs":[{"name":"amount","type":"uint256","indexed":false,"internalType":"uint256"}],"anonymous":false},{"type":"event","name":"OwnerWithdrawal","inputs":[{"name":"owner","type":"address","indexed":true,"internalType":"address"},{"name":"amount","type":"uint256","indexed":false,"internalType":"uint256"}],"anonymous":false},{"type":"event","name":"OwnershipTransferred","inputs":[{"name":"previousOwner","type":"address","indexed":true,"internalType":"address"},{"name":"newOwner","type":"address","indexed":true,"internalType":"address"}],"anonymous":false},{"type":"event","name":"PlayerEntered","inputs":[{"name":"player","type":"address","indexed":true,"internalType":"address"},{"name":"riddleId","type":"uint256","indexed":true,"internalType":"uint256"}],"anonymous":false},{"type":"event","name":"PrizeDistributed","inputs":[{"name":"winner","type":"address","indexed":true,"internalType":"address"},{"name":"amount","type":"uint256","indexed":false,"internalType":"uint256"},{"name":"prizeType","type":"uint8","indexed":false,"internalType":"enum Vaultis.PrizeType"}],"anonymous":false},{"type":"event","name":"PrizeFunded","inputs":[{"name":"funder","type":"address","indexed":true,"internalType":"address"},{"name":"amount","type":"uint256","indexed":false,"internalType":"uint256"},{"name":"prizeType","type":"uint8","indexed":false,"internalType":"enum Vaultis.PrizeType"}],"anonymous":false},{"type":"event","name":"RetryPurchased","inputs":[{"name":"player","type":"address","indexed":true,"internalType":"address"},{"name":"riddleId","type":"uint256","indexed":true,"internalType":"uint256"},{"name":"cost","type":"uint256","indexed":false,"internalType":"uint256"},{"name":"newRetryCount","type":"uint256","indexed":false,"internalType":"uint256"}],"anonymous":false},{"type":"event","name":"RiddleInitialized","inputs":[{"name":"riddleId","type":"uint256","indexed":true,"internalType":"uint256"},{"name":"answerHash","type":"bytes32","indexed":false,"internalType":"bytes32"},{"name":"prizeType","type":"uint8","indexed":false,"internalType":"uint8"},{"name":"prizeTokenAddress","type":"address","indexed":false,"internalType":"address"},{"name":"prizeAmount","type":"uint256","indexed":false,"internalType":"uint256"},{"name":"entryFeeTokenAddress","type":"address","indexed":false,"internalType":"address"}],"anonymous":false},{"type":"event","name":"WinnerFound","inputs":[{"name":"winner","type":"address","indexed":true,"internalType":"address"},{"name":"riddleId","type":"uint256","indexed":true,"internalType":"uint256"}],"anonymous":false},{"type":"event","name":"Withdrawal","inputs":[{"name":"user","type":"address","indexed":true,"internalType":"address"},{"name":"amount","type":"uint256","indexed":false,"internalType":"uint256"}],"anonymous":false},{"type":"error","name":"OwnableInvalidOwner","inputs":[{"name":"owner","type":"address","internalType":"address"}]},{"type":"error","name":"OwnableUnauthorizedAccount","inputs":[{"name":"account","type":"address","internalType":"address"}]},{"type":"error","name":"ReentrancyGuardReentrantCall","inputs":[]},{"type":"error","name":"SafeERC20FailedOperation","inputs":[{"name":"token","type":"address","internalType":"address"}]}],"bytecode":{"object":"0x608060405234801561000f575f5ffd5b50604051616412380380616412833981810160405281019061003191906103d7565b815f73ffffffffffffffffffffffffffffffffffffffff168173ffffffffffffffffffffffffffffffffffffffff16036100a2575f6040517f1e4fbdf70000000000000000000000000000000000000000000000000000000081526004016100999190610424565b60405180910390fd5b6100b1816102b860201b60201c565b50600180819055505f73ffffffffffffffffffffffffffffffffffffffff168173ffffffffffffffffffffffffffffffffffffffff1603610127576040517f08c379a000000000000000000000000000000000000000000000000000000000815260040161011e906104bd565b60405180910390fd5b5f8173ffffffffffffffffffffffffffffffffffffffff163b11610180576040517f08c379a000000000000000000000000000000000000000000000000000000000815260040161017790610525565b60405180910390fd5b8073ffffffffffffffffffffffffffffffffffffffff166318160ddd6040518163ffffffff1660e01b8152600401602060405180830381865afa9250505080156101e857506040513d601f19601f820116820180604052508101906101e59190610576565b60015b610227576040517f08c379a000000000000000000000000000000000000000000000000000000000815260040161021e90610611565b60405180910390fd5b505f60085f6101000a81548173ffffffffffffffffffffffffffffffffffffffff021916908373ffffffffffffffffffffffffffffffffffffffff160217905550610e106011819055508060095f6101000a81548173ffffffffffffffffffffffffffffffffffffffff021916908373ffffffffffffffffffffffffffffffffffffffff160217905550505061062f565b5f5f5f9054906101000a900473ffffffffffffffffffffffffffffffffffffffff169050815f5f6101000a81548173ffffffffffffffffffffffffffffffffffffffff021916908373ffffffffffffffffffffffffffffffffffffffff1602179055508173ffffffffffffffffffffffffffffffffffffffff168173ffffffffffffffffffffffffffffffffffffffff167f8be0079c531659141344cd1fd0a4f28419497f9722a3daafe3b4186f6b6457e060405160405180910390a35050565b5f5ffd5b5f73ffffffffffffffffffffffffffffffffffffffff82169050919050565b5f6103a68261037d565b9050919050565b6103b68161039c565b81146103c0575f5ffd5b50565b5f815190506103d1816103ad565b92915050565b5f5f604083850312156103ed576103ec610379565b5b5f6103fa858286016103c3565b925050602061040b858286016103c3565b9150509250929050565b61041e8161039c565b82525050565b5f6020820190506104375f830184610415565b92915050565b5f82825260208201905092915050565b7f526574727920746f6b656e20616464726573732063616e6e6f74206265207a655f8201527f726f000000000000000000000000000000000000000000000000000000000000602082015250565b5f6104a760228361043d565b91506104b28261044d565b604082019050919050565b5f6020820190508181035f8301526104d48161049b565b9050919050565b7f526574727920746f6b656e20686173206e6f20636f6e747261637420636f64655f82015250565b5f61050f60208361043d565b915061051a826104db565b602082019050919050565b5f6020820190508181035f83015261053c81610503565b9050919050565b5f819050919050565b61055581610543565b811461055f575f5ffd5b50565b5f815190506105708161054c565b92915050565b5f6020828403121561058b5761058a610379565b5b5f61059884828501610562565b91505092915050565b7f496e76616c6964204552432d323020746f6b656e20666f722072657472793a205f8201527f746f74616c537570706c792063616c6c206661696c6564000000000000000000602082015250565b5f6105fb60378361043d565b9150610606826105a1565b604082019050919050565b5f6020820190508181035f830152610628816105ef565b9050919050565b615dd68061063c5f395ff3fe608060405260043610610228575f3560e01c8063873f6f9e11610122578063c7cd6959116100aa578063ecdc6c231161006e578063ecdc6c23146108b1578063f2fde38b146108db578063f6d361cc14610903578063f9f82e9c1461092d578063fcdf8e8914610955576102d7565b8063c7cd695914610803578063d0e30db01461082d578063d0ef024a14610837578063dc663b5314610861578063e4d33ee314610889576102d7565b8063a68c25d8116100f1578063a68c25d8146106fd578063b7173e7714610725578063bdd415af14610761578063c06a5fc51461079d578063c310e242146107d9576102d7565b8063873f6f9e146106315780638da5cb5b1461066d57806395664a3d14610697578063a34398a2146106c1576102d7565b806343d6582b116101b057806360972120116101745780636097212014610577578063715018a61461059f578063785fa627146105b55780637a11e941146105df5780637b14976314610607576102d7565b806343d6582b146104a957806346ebbdb0146104d157806348b06e87146104fb57806353236d741461052357806357aa0ea21461054d576102d7565b8063219fc385116101f7578063219fc385146103b757806327e235e3146103e157806329c179901461041d5780632e1a7d4d1461045957806333f707d114610481576102d7565b80630efc8865146102db57806312b5afc11461031757806316b5551d1461033f578063188240cd1461037b576102d7565b366102d7575f341161026f576040517f08c379a000000000000000000000000000000000000000000000000000000000815260040161026690613c9a565b60405180910390fd5b3460045f8282546102809190613cee565b925050819055503373ffffffffffffffffffffffffffffffffffffffff167f85177f287940f2f05425a4029951af0e047a7f9c4eaa9a6e6917bcd869f86695346040516102cd9190613d30565b60405180910390a2005b5f5ffd5b3480156102e6575f5ffd5b5061030160048036038101906102fc9190613d84565b61097f565b60405161030e9190613e01565b60405180910390f35b348015610322575f5ffd5b5061033d60048036038101906103389190613f56565b6109c7565b005b34801561034a575f5ffd5b5061036560048036038101906103609190613fda565b610f1f565b6040516103729190614032565b60405180910390f35b348015610386575f5ffd5b506103a1600480360381019061039c9190613fda565b610f49565b6040516103ae9190614063565b60405180910390f35b3480156103c2575f5ffd5b506103cb610f69565b6040516103d891906140d7565b60405180910390f35b3480156103ec575f5ffd5b50610407600480360381019061040291906140f0565b610f8e565b6040516104149190613d30565b60405180910390f35b348015610428575f5ffd5b50610443600480360381019061043e9190613fda565b610fa3565b6040516104509190613d30565b60405180910390f35b348015610464575f5ffd5b5061047f600480360381019061047a919061411b565b610fc3565b005b34801561048c575f5ffd5b506104a760048036038101906104a2919061411b565b6111e2565b005b3480156104b4575f5ffd5b506104cf60048036038101906104ca919061411b565b6113a7565b005b3480156104dc575f5ffd5b506104e5611810565b6040516104f29190613d30565b60405180910390f35b348015610506575f5ffd5b50610521600480360381019061051c919061411b565b611815565b005b34801561052e575f5ffd5b50610537611a2d565b6040516105449190613d30565b60405180910390f35b348015610558575f5ffd5b50610561611a33565b60405161056e9190613d30565b60405180910390f35b348015610582575f5ffd5b5061059d6004803603810190610598919061411b565b611a3f565b005b3480156105aa575f5ffd5b506105b3611c12565b005b3480156105c0575f5ffd5b506105c9611c25565b6040516105d69190613d30565b60405180910390f35b3480156105ea575f5ffd5b506106056004803603810190610600919061411b565b611c2b565b005b348015610612575f5ffd5b5061061b611f94565b60405161062891906140d7565b60405180910390f35b34801561063c575f5ffd5b5061065760048036038101906106529190613fda565b611fb9565b6040516106649190614032565b60405180910390f35b348015610678575f5ffd5b50610681611fe3565b60405161068e9190613e01565b60405180910390f35b3480156106a2575f5ffd5b506106ab61200a565b6040516106b89190613d30565b60405180910390f35b3480156106cc575f5ffd5b506106e760048036038101906106e29190613fda565b612010565b6040516106f49190614032565b60405180910390f35b348015610708575f5ffd5b50610723600480360381019061071e919061411b565b61203a565b005b348015610730575f5ffd5b5061074b60048036038101906107469190613fda565b61204c565b6040516107589190614063565b60405180910390f35b34801561076c575f5ffd5b5061078760048036038101906107829190613fda565b61206c565b6040516107949190614032565b60405180910390f35b3480156107a8575f5ffd5b506107c360048036038101906107be9190613fda565b612096565b6040516107d09190613d30565b60405180910390f35b3480156107e4575f5ffd5b506107ed6120b6565b6040516107fa9190613d30565b60405180910390f35b34801561080e575f5ffd5b506108176120bc565b6040516108249190613e01565b60405180910390f35b6108356120e4565b005b348015610842575f5ffd5b5061084b6121d9565b60405161085891906140d7565b60405180910390f35b34801561086c575f5ffd5b50610887600480360381019061088291906141a3565b6121fe565b005b348015610894575f5ffd5b506108af60048036038101906108aa9190614218565b612609565b005b3480156108bc575f5ffd5b506108c5612d36565b6040516108d29190613d30565b60405180910390f35b3480156108e6575f5ffd5b5061090160048036038101906108fc91906140f0565b612d3c565b005b34801561090e575f5ffd5b50610917612dc0565b6040516109249190613d30565b60405180910390f35b348015610938575f5ffd5b50610953600480360381019061094e9190614279565b612dcc565b005b348015610960575f5ffd5b506109696134be565b6040516109769190614375565b60405180910390f35b6013602052815f5260405f208181548110610998575f80fd5b905f5260205f20015f915091509054906101000a900473ffffffffffffffffffffffffffffffffffffffff1681565b6109cf6134d1565b5f8211610a11576040517f08c379a0000000000000000000000000000000000000000000000000000000008152600401610a08906143d8565b60405180910390fd5b6003548214610a55576040517f08c379a0000000000000000000000000000000000000000000000000000000008152600401610a4c90614440565b60405180910390fd5b600a5f8381526020019081526020015f205f3373ffffffffffffffffffffffffffffffffffffffff1673ffffffffffffffffffffffffffffffffffffffff1681526020019081526020015f205f9054906101000a900460ff16610aed576040517f08c379a0000000000000000000000000000000000000000000000000000000008152600401610ae4906144a8565b60405180910390fd5b5f5f1b600d5f8481526020019081526020015f205f3373ffffffffffffffffffffffffffffffffffffffff1673ffffffffffffffffffffffffffffffffffffffff1681526020019081526020015f205403610b7d576040517f08c379a0000000000000000000000000000000000000000000000000000000008152600401610b7490614510565b60405180910390fd5b60105f8381526020019081526020015f205f3373ffffffffffffffffffffffffffffffffffffffff1673ffffffffffffffffffffffffffffffffffffffff1681526020019081526020015f205f9054906101000a900460ff1615610c16576040517f08c379a0000000000000000000000000000000000000000000000000000000008152600401610c0d90614578565b60405180910390fd5b601154600e5f8481526020019081526020015f205f3373ffffffffffffffffffffffffffffffffffffffff1673ffffffffffffffffffffffffffffffffffffffff1681526020019081526020015f2054610c709190613cee565b421015610cb2576040517f08c379a0000000000000000000000000000000000000000000000000000000008152600401610ca9906145e0565b60405180910390fd5b5f81604051602001610cc49190614650565b604051602081830303815290604052805190602001209050600d5f8481526020019081526020015f205f3373ffffffffffffffffffffffffffffffffffffffff1673ffffffffffffffffffffffffffffffffffffffff1681526020019081526020015f20548114610d6a576040517f08c379a0000000000000000000000000000000000000000000000000000000008152600401610d61906146b0565b60405180910390fd5b80600f5f8581526020019081526020015f205f3373ffffffffffffffffffffffffffffffffffffffff1673ffffffffffffffffffffffffffffffffffffffff1681526020019081526020015f2081905550600160105f8581526020019081526020015f205f3373ffffffffffffffffffffffffffffffffffffffff1673ffffffffffffffffffffffffffffffffffffffff1681526020019081526020015f205f6101000a81548160ff0219169083151502179055505f5f1b600d5f8581526020019081526020015f205f3373ffffffffffffffffffffffffffffffffffffffff1673ffffffffffffffffffffffffffffffffffffffff1681526020019081526020015f20819055505f600e5f8581526020019081526020015f205f3373ffffffffffffffffffffffffffffffffffffffff1673ffffffffffffffffffffffffffffffffffffffff1681526020019081526020015f2081905550823373ffffffffffffffffffffffffffffffffffffffff167f59d3b853b3060eb254d2f04ecf2d2fba8ec34ae94835cd01eedead529314f52483604051610f0a9190614063565b60405180910390a350610f1b613517565b5050565b6010602052815f5260405f20602052805f5260405f205f915091509054906101000a900460ff1681565b600f602052815f5260405f20602052805f5260405f205f91509150505481565b60095f9054906101000a900473ffffffffffffffffffffffffffffffffffffffff1681565b6002602052805f5260405f205f915090505481565b600c602052815f5260405f20602052805f5260405f205f91509150505481565b610fcb6134d1565b5f811161100d576040517f08c379a00000000000000000000000000000000000000000000000000000000081526004016110049061473e565b60405180910390fd5b8060025f3373ffffffffffffffffffffffffffffffffffffffff1673ffffffffffffffffffffffffffffffffffffffff1681526020019081526020015f2054101561108d576040517f08c379a0000000000000000000000000000000000000000000000000000000008152600401611084906147a6565b60405180910390fd5b8060025f3373ffffffffffffffffffffffffffffffffffffffff1673ffffffffffffffffffffffffffffffffffffffff1681526020019081526020015f205f8282546110d991906147c4565b925050819055505f3373ffffffffffffffffffffffffffffffffffffffff168260405161110590614824565b5f6040518083038185875af1925050503d805f811461113f576040519150601f19603f3d011682016040523d82523d5f602084013e611144565b606091505b5050905080611188576040517f08c379a000000000000000000000000000000000000000000000000000000000815260040161117f90614882565b60405180910390fd5b3373ffffffffffffffffffffffffffffffffffffffff167f7fcf532c15f0a6db0bd6d0e038bea71d30d808c7d98cb3bf7268a95bf5081b65836040516111ce9190613d30565b60405180910390a2506111df613517565b50565b6111ea613520565b6111f26134d1565b5f8111611234576040517f08c379a000000000000000000000000000000000000000000000000000000000815260040161122b90614910565b60405180910390fd5b806004541015611279576040517f08c379a000000000000000000000000000000000000000000000000000000000815260040161127090614978565b60405180910390fd5b8060045f82825461128a91906147c4565b925050819055505f61129a611fe3565b73ffffffffffffffffffffffffffffffffffffffff168262030d40906040516112c290614824565b5f60405180830381858888f193505050503d805f81146112fd576040519150601f19603f3d011682016040523d82523d5f602084013e611302565b606091505b5050905080611346576040517f08c379a000000000000000000000000000000000000000000000000000000000815260040161133d906149e0565b60405180910390fd5b61134e611fe3565b73ffffffffffffffffffffffffffffffffffffffff167fa919fadcfa556a012bab31b15f596ea7ccd397adbf10e15f176db9055ab361c4836040516113939190613d30565b60405180910390a2506113a4613517565b50565b6113af6134d1565b600a5f8281526020019081526020015f205f3373ffffffffffffffffffffffffffffffffffffffff1673ffffffffffffffffffffffffffffffffffffffff1681526020019081526020015f205f9054906101000a900460ff1615611448576040517f08c379a000000000000000000000000000000000000000000000000000000000815260040161143f90614a6e565b60405180910390fd5b600354811461148c576040517f08c379a000000000000000000000000000000000000000000000000000000000815260040161148390614440565b60405180910390fd5b5f600354116114d0576040517f08c379a00000000000000000000000000000000000000000000000000000000081526004016114c790614ad6565b60405180910390fd5b5f670de0b6b3a7640000111561175d575f60085f9054906101000a900473ffffffffffffffffffffffffffffffffffffffff1690505f73ffffffffffffffffffffffffffffffffffffffff168173ffffffffffffffffffffffffffffffffffffffff1603611573576040517f08c379a000000000000000000000000000000000000000000000000000000000815260040161156a90614b3e565b60405180910390fd5b5f8173ffffffffffffffffffffffffffffffffffffffff166370a08231306040518263ffffffff1660e01b81526004016115ad9190613e01565b602060405180830381865afa1580156115c8573d5f5f3e3d5ffd5b505050506040513d601f19601f820116820180604052508101906115ec9190614b70565b90506116233330670de0b6b3a76400008573ffffffffffffffffffffffffffffffffffffffff166135a7909392919063ffffffff16565b5f818373ffffffffffffffffffffffffffffffffffffffff166370a08231306040518263ffffffff1660e01b815260040161165e9190613e01565b602060405180830381865afa158015611679573d5f5f3e3d5ffd5b505050506040513d601f19601f8201168201806040525081019061169d9190614b70565b6116a791906147c4565b9050670de0b6b3a764000081146116f3576040517f08c379a00000000000000000000000000000000000000000000000000000000081526004016116ea90614c0b565b60405180910390fd5b838373ffffffffffffffffffffffffffffffffffffffff163373ffffffffffffffffffffffffffffffffffffffff167f1f8e0e31739d887c754fcf7403fe1bdf6641ef33578b9d08631a7d5e6e9b8fb7846040516117519190613d30565b60405180910390a45050505b6001600a5f8381526020019081526020015f205f3373ffffffffffffffffffffffffffffffffffffffff1673ffffffffffffffffffffffffffffffffffffffff1681526020019081526020015f205f6101000a81548160ff021916908315150217905550803373ffffffffffffffffffffffffffffffffffffffff167fc16481c9484122696a660b57df0bf6839645c6b620cb1704ac2437de13be922560405160405180910390a361180d613517565b50565b600381565b61181d613520565b6118256134d1565b5f8111611867576040517f08c379a000000000000000000000000000000000000000000000000000000000815260040161185e90614c73565b60405180910390fd5b60018081111561187a57611879614302565b5b600960149054906101000a900460ff16600181111561189c5761189b614302565b5b146118dc576040517f08c379a00000000000000000000000000000000000000000000000000000000081526004016118d390614d01565b60405180910390fd5b5f73ffffffffffffffffffffffffffffffffffffffff1660055f9054906101000a900473ffffffffffffffffffffffffffffffffffffffff1673ffffffffffffffffffffffffffffffffffffffff160361196b576040517f08c379a000000000000000000000000000000000000000000000000000000000815260040161196290614d69565b60405180910390fd5b6119b933308360055f9054906101000a900473ffffffffffffffffffffffffffffffffffffffff1673ffffffffffffffffffffffffffffffffffffffff166135a7909392919063ffffffff16565b8060065f8282546119ca9190613cee565b925050819055503373ffffffffffffffffffffffffffffffffffffffff167f4708e702157b1eb6cd00a772e6a623599ac7dc0bad76e8c624fdef050b434f09826001604051611a1a929190614d87565b60405180910390a2611a2a613517565b50565b60115481565b67016345785d8a000081565b611a47613520565b611a4f6134d1565b5f8111611a91576040517f08c379a0000000000000000000000000000000000000000000000000000000008152600401611a8890614e1e565b60405180910390fd5b806006541015611ad6576040517f08c379a0000000000000000000000000000000000000000000000000000000008152600401611acd90614e86565b60405180910390fd5b5f73ffffffffffffffffffffffffffffffffffffffff1660055f9054906101000a900473ffffffffffffffffffffffffffffffffffffffff1673ffffffffffffffffffffffffffffffffffffffff1603611b65576040517f08c379a0000000000000000000000000000000000000000000000000000000008152600401611b5c90614d69565b60405180910390fd5b8060065f828254611b7691906147c4565b92505081905550611bd0611b88611fe3565b8260055f9054906101000a900473ffffffffffffffffffffffffffffffffffffffff1673ffffffffffffffffffffffffffffffffffffffff166136299092919063ffffffff16565b7f560c2b6d9212838c63f631c64ebc9d7364da90f9af3fdec847c0725dd18330c881604051611bff9190613d30565b60405180910390a1611c0f613517565b50565b611c1a613520565b611c235f6136a8565b565b60075481565b611c336134d1565b6003548114611c77576040517f08c379a0000000000000000000000000000000000000000000000000000000008152600401611c6e90614440565b60405180910390fd5b600a5f8281526020019081526020015f205f3373ffffffffffffffffffffffffffffffffffffffff1673ffffffffffffffffffffffffffffffffffffffff1681526020019081526020015f205f9054906101000a900460ff16611d0f576040517f08c379a0000000000000000000000000000000000000000000000000000000008152600401611d0690614f14565b60405180910390fd5b5f73ffffffffffffffffffffffffffffffffffffffff1660095f9054906101000a900473ffffffffffffffffffffffffffffffffffffffff1673ffffffffffffffffffffffffffffffffffffffff1603611d9e576040517f08c379a0000000000000000000000000000000000000000000000000000000008152600401611d9590614f7c565b60405180910390fd5b6003600c5f8381526020019081526020015f205f3373ffffffffffffffffffffffffffffffffffffffff1673ffffffffffffffffffffffffffffffffffffffff1681526020019081526020015f205410611e2d576040517f08c379a0000000000000000000000000000000000000000000000000000000008152600401611e2490614fe4565b60405180910390fd5b611e83333067016345785d8a000060095f9054906101000a900473ffffffffffffffffffffffffffffffffffffffff1673ffffffffffffffffffffffffffffffffffffffff166135a7909392919063ffffffff16565b600c5f8281526020019081526020015f205f3373ffffffffffffffffffffffffffffffffffffffff1673ffffffffffffffffffffffffffffffffffffffff1681526020019081526020015f205f815480929190611edf90615002565b9190505550803373ffffffffffffffffffffffffffffffffffffffff167f98afd9c8b4874dc0b797b810a6a8488429aea97e225fc6e70d948f77660fbee767016345785d8a0000600c5f8681526020019081526020015f205f3373ffffffffffffffffffffffffffffffffffffffff1673ffffffffffffffffffffffffffffffffffffffff1681526020019081526020015f2054604051611f81929190615049565b60405180910390a3611f91613517565b50565b60085f9054906101000a900473ffffffffffffffffffffffffffffffffffffffff1681565b600b602052815f5260405f20602052805f5260405f205f915091509054906101000a900460ff1681565b5f5f5f9054906101000a900473ffffffffffffffffffffffffffffffffffffffff16905090565b60045481565b600a602052815f5260405f20602052805f5260405f205f915091509054906101000a900460ff1681565b612042613520565b8060118190555050565b600d602052815f5260405f20602052805f5260405f205f91509150505481565b6014602052815f5260405f20602052805f5260405f205f915091509054906101000a900460ff1681565b600e602052815f5260405f20602052805f5260405f205f91509150505481565b60065481565b5f60055f9054906101000a900473ffffffffffffffffffffffffffffffffffffffff16905090565b6120ec6134d1565b5f341161212e576040517f08c379a0000000000000000000000000000000000000000000000000000000008152600401612125906150e0565b60405180910390fd5b3460025f3373ffffffffffffffffffffffffffffffffffffffff1673ffffffffffffffffffffffffffffffffffffffff1681526020019081526020015f205f82825461217a9190613cee565b925050819055503373ffffffffffffffffffffffffffffffffffffffff167fe1fffcc4923d04b559f4d29a8bfc6cda04eb5b0d3c460751c2402c5c5cc9109c346040516121c79190613d30565b60405180910390a26121d7613517565b565b60055f9054906101000a900473ffffffffffffffffffffffffffffffffffffffff1681565b6122066134d1565b5f6003541161224a576040517f08c379a000000000000000000000000000000000000000000000000000000000815260040161224190614ad6565b60405180910390fd5b600a5f60035481526020019081526020015f205f3373ffffffffffffffffffffffffffffffffffffffff1673ffffffffffffffffffffffffffffffffffffffff1681526020019081526020015f205f9054906101000a900460ff166122e4576040517f08c379a00000000000000000000000000000000000000000000000000000000081526004016122db906144a8565b60405180910390fd5b600b5f60035481526020019081526020015f205f3373ffffffffffffffffffffffffffffffffffffffff1673ffffffffffffffffffffffffffffffffffffffff1681526020019081526020015f205f9054906101000a900460ff161561237f576040517f08c379a000000000000000000000000000000000000000000000000000000000815260040161237690615148565b60405180910390fd5b60105f60035481526020019081526020015f205f3373ffffffffffffffffffffffffffffffffffffffff1673ffffffffffffffffffffffffffffffffffffffff1681526020019081526020015f205f9054906101000a900460ff16612419576040517f08c379a0000000000000000000000000000000000000000000000000000000008152600401612410906151b0565b60405180910390fd5b818160405160200161242c9291906151f2565b60405160208183030381529060405280519060200120600f5f60035481526020019081526020015f205f3373ffffffffffffffffffffffffffffffffffffffff1673ffffffffffffffffffffffffffffffffffffffff1681526020019081526020015f2054146124d1576040517f08c379a00000000000000000000000000000000000000000000000000000000081526004016124c89061527a565b60405180910390fd5b6001600b5f60035481526020019081526020015f205f3373ffffffffffffffffffffffffffffffffffffffff1673ffffffffffffffffffffffffffffffffffffffff1681526020019081526020015f205f6101000a81548160ff02191690831515021790555061254333600754613769565b5f5f1b600f5f60035481526020019081526020015f205f3373ffffffffffffffffffffffffffffffffffffffff1673ffffffffffffffffffffffffffffffffffffffff1681526020019081526020015f20819055505f60105f60035481526020019081526020015f205f3373ffffffffffffffffffffffffffffffffffffffff1673ffffffffffffffffffffffffffffffffffffffff1681526020019081526020015f205f6101000a81548160ff021916908315150217905550612605613517565b5050565b6126116134d1565b5f8211612653576040517f08c379a000000000000000000000000000000000000000000000000000000000815260040161264a906143d8565b60405180910390fd5b6003548214612697576040517f08c379a000000000000000000000000000000000000000000000000000000000815260040161268e90614440565b60405180910390fd5b5f5f1b81036126db576040517f08c379a00000000000000000000000000000000000000000000000000000000081526004016126d2906152e2565b60405180910390fd5b600a5f8381526020019081526020015f205f3373ffffffffffffffffffffffffffffffffffffffff1673ffffffffffffffffffffffffffffffffffffffff1681526020019081526020015f205f9054906101000a900460ff16612773576040517f08c379a000000000000000000000000000000000000000000000000000000000815260040161276a906144a8565b60405180910390fd5b5f5f1b600d5f8481526020019081526020015f205f3373ffffffffffffffffffffffffffffffffffffffff1673ffffffffffffffffffffffffffffffffffffffff1681526020019081526020015f205414612a12575f600c5f8481526020019081526020015f205f3373ffffffffffffffffffffffffffffffffffffffff1673ffffffffffffffffffffffffffffffffffffffff1681526020019081526020015f205411612856576040517f08c379a000000000000000000000000000000000000000000000000000000000815260040161284d9061534a565b60405180910390fd5b600c5f8381526020019081526020015f205f3373ffffffffffffffffffffffffffffffffffffffff1673ffffffffffffffffffffffffffffffffffffffff1681526020019081526020015f205f8154809291906128b290615368565b91905055505f5f1b600d5f8481526020019081526020015f205f3373ffffffffffffffffffffffffffffffffffffffff1673ffffffffffffffffffffffffffffffffffffffff1681526020019081526020015f20819055505f600e5f8481526020019081526020015f205f3373ffffffffffffffffffffffffffffffffffffffff1673ffffffffffffffffffffffffffffffffffffffff1681526020019081526020015f20819055505f5f1b600f5f8481526020019081526020015f205f3373ffffffffffffffffffffffffffffffffffffffff1673ffffffffffffffffffffffffffffffffffffffff1681526020019081526020015f20819055505f60105f8481526020019081526020015f205f3373ffffffffffffffffffffffffffffffffffffffff1673ffffffffffffffffffffffffffffffffffffffff1681526020019081526020015f205f6101000a81548160ff0219169083151502179055505b6012548103612be75760145f8381526020019081526020015f205f3373ffffffffffffffffffffffffffffffffffffffff1673ffffffffffffffffffffffffffffffffffffffff1681526020019081526020015f205f9054906101000a900460ff16612b905760135f8381526020019081526020015f2033908060018154018082558091505060019003905f5260205f20015f9091909190916101000a81548173ffffffffffffffffffffffffffffffffffffffff021916908373ffffffffffffffffffffffffffffffffffffffff160217905550600160145f8481526020019081526020015f205f3373ffffffffffffffffffffffffffffffffffffffff1673ffffffffffffffffffffffffffffffffffffffff1681526020019081526020015f205f6101000a81548160ff021916908315150217905550813373ffffffffffffffffffffffffffffffffffffffff167fb5d93c368c4bd18876654db9fd5dcef5a3583ccde4d81659e7f309f36c84490560405160405180910390a35b3373ffffffffffffffffffffffffffffffffffffffff16827f6dbad7911810fc45c016aff41534b7adcd5477454a9b5be0d995a93518cde675426001604051612bda92919061538f565b60405180910390a3612c39565b3373ffffffffffffffffffffffffffffffffffffffff16827f6dbad7911810fc45c016aff41534b7adcd5477454a9b5be0d995a93518cde675425f604051612c3092919061538f565b60405180910390a35b80600d5f8481526020019081526020015f205f3373ffffffffffffffffffffffffffffffffffffffff1673ffffffffffffffffffffffffffffffffffffffff1681526020019081526020015f208190555042600e5f8481526020019081526020015f205f3373ffffffffffffffffffffffffffffffffffffffff1673ffffffffffffffffffffffffffffffffffffffff1681526020019081526020015f2081905550813373ffffffffffffffffffffffffffffffffffffffff167fc5009e6865ae04f58da43f80d7eb9718a2f25a7ccfeb22a8ca0031e77b86b50a83604051612d229190614063565b60405180910390a3612d32613517565b5050565b60035481565b612d44613520565b5f73ffffffffffffffffffffffffffffffffffffffff168173ffffffffffffffffffffffffffffffffffffffff1603612db4575f6040517f1e4fbdf7000000000000000000000000000000000000000000000000000000008152600401612dab9190613e01565b60405180910390fd5b612dbd816136a8565b50565b670de0b6b3a764000081565b612dd4613520565b5f8611612e16576040517f08c379a0000000000000000000000000000000000000000000000000000000008152600401612e0d906143d8565b60405180910390fd5b6003548611612e5a576040517f08c379a0000000000000000000000000000000000000000000000000000000008152600401612e5190615426565b60405180910390fd5b5f8211612e9c576040517f08c379a0000000000000000000000000000000000000000000000000000000008152600401612e93906154b4565b60405180910390fd5b600180811115612eaf57612eae614302565b5b846001811115612ec257612ec1614302565b5b0361307b575f73ffffffffffffffffffffffffffffffffffffffff168373ffffffffffffffffffffffffffffffffffffffff1603612f35576040517f08c379a0000000000000000000000000000000000000000000000000000000008152600401612f2c90615542565b60405180910390fd5b5f8373ffffffffffffffffffffffffffffffffffffffff163b11612f8e576040517f08c379a0000000000000000000000000000000000000000000000000000000008152600401612f85906155aa565b60405180910390fd5b8273ffffffffffffffffffffffffffffffffffffffff166318160ddd6040518163ffffffff1660e01b8152600401602060405180830381865afa925050508015612ff657506040513d601f19601f82011682018060405250810190612ff39190614b70565b60015b613035576040517f08c379a000000000000000000000000000000000000000000000000000000000815260040161302c90615638565b60405180910390fd5b508260055f6101000a81548173ffffffffffffffffffffffffffffffffffffffff021916908373ffffffffffffffffffffffffffffffffffffffff16021790555061312a565b5f73ffffffffffffffffffffffffffffffffffffffff168373ffffffffffffffffffffffffffffffffffffffff16146130e9576040517f08c379a00000000000000000000000000000000000000000000000000000000081526004016130e0906156c6565b60405180910390fd5b5f60055f6101000a81548173ffffffffffffffffffffffffffffffffffffffff021916908373ffffffffffffffffffffffffffffffffffffffff1602179055505b5f670de0b6b3a764000011156132ee575f73ffffffffffffffffffffffffffffffffffffffff168173ffffffffffffffffffffffffffffffffffffffff16036131a8576040517f08c379a000000000000000000000000000000000000000000000000000000000815260040161319f9061577a565b60405180910390fd5b5f8173ffffffffffffffffffffffffffffffffffffffff163b11613201576040517f08c379a00000000000000000000000000000000000000000000000000000000081526004016131f890615808565b60405180910390fd5b8073ffffffffffffffffffffffffffffffffffffffff166318160ddd6040518163ffffffff1660e01b8152600401602060405180830381865afa92505050801561326957506040513d601f19601f820116820180604052508101906132669190614b70565b60015b6132a8576040517f08c379a000000000000000000000000000000000000000000000000000000000815260040161329f90615896565b60405180910390fd5b508060085f6101000a81548173ffffffffffffffffffffffffffffffffffffffff021916908373ffffffffffffffffffffffffffffffffffffffff16021790555061339d565b5f73ffffffffffffffffffffffffffffffffffffffff168173ffffffffffffffffffffffffffffffffffffffff161461335c576040517f08c379a000000000000000000000000000000000000000000000000000000000815260040161335390615924565b60405180910390fd5b5f60085f6101000a81548173ffffffffffffffffffffffffffffffffffffffff021916908373ffffffffffffffffffffffffffffffffffffffff1602179055505b5f600454146133e1576040517f08c379a00000000000000000000000000000000000000000000000000000000081526004016133d8906159b2565b60405180910390fd5b5f60065414613425576040517f08c379a000000000000000000000000000000000000000000000000000000000815260040161341c90615a40565b60405180910390fd5b856003819055508460128190555083600960146101000a81548160ff0219169083600181111561345857613457614302565b5b021790555081600781905550857f05227007ca99c4e41f51fb024dcb2065e16bd026db353ce7f322e5cdb4fb2e9d8686600181111561349a57613499614302565b5b8686866040516134ae959493929190615a79565b60405180910390a2505050505050565b600960149054906101000a900460ff1681565b60026001540361350d576040517f3ee5aeb500000000000000000000000000000000000000000000000000000000815260040160405180910390fd5b6002600181905550565b60018081905550565b613528613b78565b73ffffffffffffffffffffffffffffffffffffffff16613546611fe3565b73ffffffffffffffffffffffffffffffffffffffff16146135a557613569613b78565b6040517f118cdaa700000000000000000000000000000000000000000000000000000000815260040161359c9190613e01565b60405180910390fd5b565b613623848573ffffffffffffffffffffffffffffffffffffffff166323b872dd8686866040516024016135dc93929190615aca565b604051602081830303815290604052915060e01b6020820180517bffffffffffffffffffffffffffffffffffffffffffffffffffffffff8381831617835250505050613b7f565b50505050565b6136a3838473ffffffffffffffffffffffffffffffffffffffff1663a9059cbb858560405160240161365c929190615aff565b604051602081830303815290604052915060e01b6020820180517bffffffffffffffffffffffffffffffffffffffffffffffffffffffff8381831617835250505050613b7f565b505050565b5f5f5f9054906101000a900473ffffffffffffffffffffffffffffffffffffffff169050815f5f6101000a81548173ffffffffffffffffffffffffffffffffffffffff021916908373ffffffffffffffffffffffffffffffffffffffff1602179055508173ffffffffffffffffffffffffffffffffffffffff168173ffffffffffffffffffffffffffffffffffffffff167f8be0079c531659141344cd1fd0a4f28419497f9722a3daafe3b4186f6b6457e060405160405180910390a35050565b5f73ffffffffffffffffffffffffffffffffffffffff168273ffffffffffffffffffffffffffffffffffffffff16036137d7576040517f08c379a00000000000000000000000000000000000000000000000000000000081526004016137ce90615b70565b60405180910390fd5b5f8111613819576040517f08c379a0000000000000000000000000000000000000000000000000000000008152600401613810906154b4565b60405180910390fd5b5f600181111561382c5761382b614302565b5b600960149054906101000a900460ff16600181111561384e5761384d614302565b5b036139a157806004541015613898576040517f08c379a000000000000000000000000000000000000000000000000000000000815260040161388f90615bfe565b60405180910390fd5b804710156138db576040517f08c379a00000000000000000000000000000000000000000000000000000000081526004016138d290615c8c565b60405180910390fd5b8060045f8282546138ec91906147c4565b925050819055505f8273ffffffffffffffffffffffffffffffffffffffff168260405161391890614824565b5f6040518083038185875af1925050503d805f8114613952576040519150601f19603f3d011682016040523d82523d5f602084013e613957565b606091505b505090508061399b576040517f08c379a000000000000000000000000000000000000000000000000000000000815260040161399290615cf4565b60405180910390fd5b50613b15565b6001808111156139b4576139b3614302565b5b600960149054906101000a900460ff1660018111156139d6576139d5614302565b5b03613b14575f73ffffffffffffffffffffffffffffffffffffffff1660055f9054906101000a900473ffffffffffffffffffffffffffffffffffffffff1673ffffffffffffffffffffffffffffffffffffffff1603613a6a576040517f08c379a0000000000000000000000000000000000000000000000000000000008152600401613a6190614d69565b60405180910390fd5b806006541015613aaf576040517f08c379a0000000000000000000000000000000000000000000000000000000008152600401613aa690615d82565b60405180910390fd5b8060065f828254613ac091906147c4565b92505081905550613b13828260055f9054906101000a900473ffffffffffffffffffffffffffffffffffffffff1673ffffffffffffffffffffffffffffffffffffffff166136299092919063ffffffff16565b5b5b8173ffffffffffffffffffffffffffffffffffffffff167fff43c2705b2225c1c9d9d58f088ab64d4fc767737dee523bed37f15fb0c6c3de82600960149054906101000a900460ff16604051613b6c929190614d87565b60405180910390a25050565b5f33905090565b5f5f60205f8451602086015f885af180613b9e576040513d5f823e3d81fd5b3d92505f519150505f8214613bb7576001811415613bd2565b5f8473ffffffffffffffffffffffffffffffffffffffff163b145b15613c1457836040517f5274afe7000000000000000000000000000000000000000000000000000000008152600401613c0b9190613e01565b60405180910390fd5b50505050565b5f82825260208201905092915050565b7f45544820616d6f756e74206d7573742062652067726561746572207468616e205f8201527f7a65726f00000000000000000000000000000000000000000000000000000000602082015250565b5f613c84602483613c1a565b9150613c8f82613c2a565b604082019050919050565b5f6020820190508181035f830152613cb181613c78565b9050919050565b5f819050919050565b7f4e487b71000000000000000000000000000000000000000000000000000000005f52601160045260245ffd5b5f613cf882613cb8565b9150613d0383613cb8565b9250828201905080821115613d1b57613d1a613cc1565b5b92915050565b613d2a81613cb8565b82525050565b5f602082019050613d435f830184613d21565b92915050565b5f604051905090565b5f5ffd5b5f5ffd5b613d6381613cb8565b8114613d6d575f5ffd5b50565b5f81359050613d7e81613d5a565b92915050565b5f5f60408385031215613d9a57613d99613d52565b5b5f613da785828601613d70565b9250506020613db885828601613d70565b9150509250929050565b5f73ffffffffffffffffffffffffffffffffffffffff82169050919050565b5f613deb82613dc2565b9050919050565b613dfb81613de1565b82525050565b5f602082019050613e145f830184613df2565b92915050565b5f5ffd5b5f5ffd5b5f601f19601f8301169050919050565b7f4e487b71000000000000000000000000000000000000000000000000000000005f52604160045260245ffd5b613e6882613e22565b810181811067ffffffffffffffff82111715613e8757613e86613e32565b5b80604052505050565b5f613e99613d49565b9050613ea58282613e5f565b919050565b5f67ffffffffffffffff821115613ec457613ec3613e32565b5b613ecd82613e22565b9050602081019050919050565b828183375f83830152505050565b5f613efa613ef584613eaa565b613e90565b905082815260208101848484011115613f1657613f15613e1e565b5b613f21848285613eda565b509392505050565b5f82601f830112613f3d57613f3c613e1a565b5b8135613f4d848260208601613ee8565b91505092915050565b5f5f60408385031215613f6c57613f6b613d52565b5b5f613f7985828601613d70565b925050602083013567ffffffffffffffff811115613f9a57613f99613d56565b5b613fa685828601613f29565b9150509250929050565b613fb981613de1565b8114613fc3575f5ffd5b50565b5f81359050613fd481613fb0565b92915050565b5f5f60408385031215613ff057613fef613d52565b5b5f613ffd85828601613d70565b925050602061400e85828601613fc6565b9150509250929050565b5f8115159050919050565b61402c81614018565b82525050565b5f6020820190506140455f830184614023565b92915050565b5f819050919050565b61405d8161404b565b82525050565b5f6020820190506140765f830184614054565b92915050565b5f819050919050565b5f61409f61409a61409584613dc2565b61407c565b613dc2565b9050919050565b5f6140b082614085565b9050919050565b5f6140c1826140a6565b9050919050565b6140d1816140b7565b82525050565b5f6020820190506140ea5f8301846140c8565b92915050565b5f6020828403121561410557614104613d52565b5b5f61411284828501613fc6565b91505092915050565b5f602082840312156141305761412f613d52565b5b5f61413d84828501613d70565b91505092915050565b5f5ffd5b5f5ffd5b5f5f83601f84011261416357614162613e1a565b5b8235905067ffffffffffffffff8111156141805761417f614146565b5b60208301915083600182028301111561419c5761419b61414a565b5b9250929050565b5f5f602083850312156141b9576141b8613d52565b5b5f83013567ffffffffffffffff8111156141d6576141d5613d56565b5b6141e28582860161414e565b92509250509250929050565b6141f78161404b565b8114614201575f5ffd5b50565b5f81359050614212816141ee565b92915050565b5f5f6040838503121561422e5761422d613d52565b5b5f61423b85828601613d70565b925050602061424c85828601614204565b9150509250929050565b60028110614262575f5ffd5b50565b5f8135905061427381614256565b92915050565b5f5f5f5f5f5f60c0878903121561429357614292613d52565b5b5f6142a089828a01613d70565b96505060206142b189828a01614204565b95505060406142c289828a01614265565b94505060606142d389828a01613fc6565b93505060806142e489828a01613d70565b92505060a06142f589828a01613fc6565b9150509295509295509295565b7f4e487b71000000000000000000000000000000000000000000000000000000005f52602160045260245ffd5b600281106143405761433f614302565b5b50565b5f8190506143508261432f565b919050565b5f61435f82614343565b9050919050565b61436f81614355565b82525050565b5f6020820190506143885f830184614366565b92915050565b7f526964646c652049442063616e6e6f74206265207a65726f00000000000000005f82015250565b5f6143c2601883613c1a565b91506143cd8261438e565b602082019050919050565b5f6020820190508181035f8301526143ef816143b6565b9050919050565b7f4e6f74207468652061637469766520726964646c6520494400000000000000005f82015250565b5f61442a601883613c1a565b9150614435826143f6565b602082019050919050565b5f6020820190508181035f8301526144578161441e565b9050919050565b7f4d75737420656e746572207468652067616d65206669727374000000000000005f82015250565b5f614492601983613c1a565b915061449d8261445e565b602082019050919050565b5f6020820190508181035f8301526144bf81614486565b9050919050565b7f4e6f20636f6d6d697474656420677565737300000000000000000000000000005f82015250565b5f6144fa601283613c1a565b9150614505826144c6565b602082019050919050565b5f6020820190508181035f830152614527816144ee565b9050919050565b7f416c72656164792072657665616c6564000000000000000000000000000000005f82015250565b5f614562601083613c1a565b915061456d8261452e565b602082019050919050565b5f6020820190508181035f83015261458f81614556565b9050919050565b7f52657665616c20746f6f206561726c79000000000000000000000000000000005f82015250565b5f6145ca601083613c1a565b91506145d582614596565b602082019050919050565b5f6020820190508181035f8301526145f7816145be565b9050919050565b5f81519050919050565b5f81905092915050565b8281835e5f83830152505050565b5f61462a826145fe565b6146348185614608565b9350614644818560208601614612565b80840191505092915050565b5f61465b8284614620565b915081905092915050565b7f52657665616c20646f6573206e6f74206d6174636820636f6d6d6974000000005f82015250565b5f61469a601c83613c1a565b91506146a582614666565b602082019050919050565b5f6020820190508181035f8301526146c78161468e565b9050919050565b7f5769746864726177616c20616d6f756e74206d757374206265206772656174655f8201527f72207468616e207a65726f000000000000000000000000000000000000000000602082015250565b5f614728602b83613c1a565b9150614733826146ce565b604082019050919050565b5f6020820190508181035f8301526147558161471c565b9050919050565b7f496e73756666696369656e742062616c616e63650000000000000000000000005f82015250565b5f614790601483613c1a565b915061479b8261475c565b602082019050919050565b5f6020820190508181035f8301526147bd81614784565b9050919050565b5f6147ce82613cb8565b91506147d983613cb8565b92508282039050818111156147f1576147f0613cc1565b5b92915050565b5f81905092915050565b50565b5f61480f5f836147f7565b915061481a82614801565b5f82019050919050565b5f61482e82614804565b9150819050919050565b7f5769746864726177616c206661696c65640000000000000000000000000000005f82015250565b5f61486c601183613c1a565b915061487782614838565b602082019050919050565b5f6020820190508181035f83015261489981614860565b9050919050565b7f4f776e6572207769746864726177616c20616d6f756e74206d757374206265205f8201527f67726561746572207468616e207a65726f000000000000000000000000000000602082015250565b5f6148fa603183613c1a565b9150614905826148a0565b604082019050919050565b5f6020820190508181035f830152614927816148ee565b9050919050565b7f496e73756666696369656e7420455448207072697a6520706f6f6c00000000005f82015250565b5f614962601b83613c1a565b915061496d8261492e565b602082019050919050565b5f6020820190508181035f83015261498f81614956565b9050919050565b7f4f776e6572207769746864726177616c206661696c65640000000000000000005f82015250565b5f6149ca601783613c1a565b91506149d582614996565b602082019050919050565b5f6020820190508181035f8301526149f7816149be565b9050919050565b7f416c72656164792070617274696369706174656420696e2074686973207269645f8201527f646c650000000000000000000000000000000000000000000000000000000000602082015250565b5f614a58602383613c1a565b9150614a63826149fe565b604082019050919050565b5f6020820190508181035f830152614a8581614a4c565b9050919050565b7f4e6f2061637469766520726964646c65000000000000000000000000000000005f82015250565b5f614ac0601083613c1a565b9150614acb82614a8c565b602082019050919050565b5f6020820190508181035f830152614aed81614ab4565b9050919050565b7f456e7472792066656520746f6b656e206e6f74207365740000000000000000005f82015250565b5f614b28601783613c1a565b9150614b3382614af4565b602082019050919050565b5f6020820190508181035f830152614b5581614b1c565b9050919050565b5f81519050614b6a81613d5a565b92915050565b5f60208284031215614b8557614b84613d52565b5b5f614b9284828501614b5c565b91505092915050565b7f456e74727920666565206d69736d617463682028464f54206e6f7420737570705f8201527f6f72746564290000000000000000000000000000000000000000000000000000602082015250565b5f614bf5602683613c1a565b9150614c0082614b9b565b604082019050919050565b5f6020820190508181035f830152614c2281614be9565b9050919050565b7f416d6f756e74206d7573742062652067726561746572207468616e207a65726f5f82015250565b5f614c5d602083613c1a565b9150614c6882614c29565b602082019050919050565b5f6020820190508181035f830152614c8a81614c51565b9050919050565b7f43757272656e7420726964646c65207072697a65206973206e6f7420455243325f8201527f3000000000000000000000000000000000000000000000000000000000000000602082015250565b5f614ceb602183613c1a565b9150614cf682614c91565b604082019050919050565b5f6020820190508181035f830152614d1881614cdf565b9050919050565b7f5072697a6520746f6b656e206e6f7420736574000000000000000000000000005f82015250565b5f614d53601383613c1a565b9150614d5e82614d1f565b602082019050919050565b5f6020820190508181035f830152614d8081614d47565b9050919050565b5f604082019050614d9a5f830185613d21565b614da76020830184614366565b9392505050565b7f4f776e657220746f6b656e207769746864726177616c20616d6f756e74206d755f8201527f73742062652067726561746572207468616e207a65726f000000000000000000602082015250565b5f614e08603783613c1a565b9150614e1382614dae565b604082019050919050565b5f6020820190508181035f830152614e3581614dfc565b9050919050565b7f496e73756666696369656e7420746f6b656e207072697a6520706f6f6c0000005f82015250565b5f614e70601d83613c1a565b9150614e7b82614e3c565b602082019050919050565b5f6020820190508181035f830152614e9d81614e64565b9050919050565b7f4d75737420706172746963697061746520696e2074686520726964646c6520665f8201527f6972737400000000000000000000000000000000000000000000000000000000602082015250565b5f614efe602483613c1a565b9150614f0982614ea4565b604082019050919050565b5f6020820190508181035f830152614f2b81614ef2565b9050919050565b7f526574727920746f6b656e206e6f7420736574000000000000000000000000005f82015250565b5f614f66601383613c1a565b9150614f7182614f32565b602082019050919050565b5f6020820190508181035f830152614f9381614f5a565b9050919050565b7f4d617820726574726965732072656163686564000000000000000000000000005f82015250565b5f614fce601383613c1a565b9150614fd982614f9a565b602082019050919050565b5f6020820190508181035f830152614ffb81614fc2565b9050919050565b5f61500c82613cb8565b91507fffffffffffffffffffffffffffffffffffffffffffffffffffffffffffffffff820361503e5761503d613cc1565b5b600182019050919050565b5f60408201905061505c5f830185613d21565b6150696020830184613d21565b9392505050565b7f4465706f73697420616d6f756e74206d757374206265206772656174657220745f8201527f68616e207a65726f000000000000000000000000000000000000000000000000602082015250565b5f6150ca602883613c1a565b91506150d582615070565b604082019050919050565b5f6020820190508181035f8301526150f7816150be565b9050919050565b7f416c726561647920636c61696d656400000000000000000000000000000000005f82015250565b5f615132600f83613c1a565b915061513d826150fe565b602082019050919050565b5f6020820190508181035f83015261515f81615126565b9050919050565b7f4d7573742072657665616c206775657373206265666f726520736f6c76696e675f82015250565b5f61519a602083613c1a565b91506151a582615166565b602082019050919050565b5f6020820190508181035f8301526151c78161518e565b9050919050565b5f6151d98385614608565b93506151e6838584613eda565b82840190509392505050565b5f6151fe8284866151ce565b91508190509392505050565b7f52657665616c656420677565737320646f6573206e6f74206d617463682070725f8201527f6f766964656420616e7377657200000000000000000000000000000000000000602082015250565b5f615264602d83613c1a565b915061526f8261520a565b604082019050919050565b5f6020820190508181035f83015261529181615258565b9050919050565b7f477565737320686173682063616e6e6f74206265207a65726f000000000000005f82015250565b5f6152cc601983613c1a565b91506152d782615298565b602082019050919050565b5f6020820190508181035f8301526152f9816152c0565b9050919050565b7f4e6f207265747269657320617661696c61626c650000000000000000000000005f82015250565b5f615334601483613c1a565b915061533f82615300565b602082019050919050565b5f6020820190508181035f83015261536181615328565b9050919050565b5f61537282613cb8565b91505f820361538457615383613cc1565b5b600182039050919050565b5f6040820190506153a25f830185613d21565b6153af6020830184614023565b9392505050565b7f526964646c65204944206d7573742062652067726561746572207468616e20635f8201527f757272656e740000000000000000000000000000000000000000000000000000602082015250565b5f615410602683613c1a565b915061541b826153b6565b604082019050919050565b5f6020820190508181035f83015261543d81615404565b9050919050565b7f5072697a6520616d6f756e74206d7573742062652067726561746572207468615f8201527f6e207a65726f0000000000000000000000000000000000000000000000000000602082015250565b5f61549e602683613c1a565b91506154a982615444565b604082019050919050565b5f6020820190508181035f8301526154cb81615492565b9050919050565b7f5072697a6520746f6b656e20616464726573732063616e6e6f74206265207a655f8201527f726f20666f72204552433230207072697a650000000000000000000000000000602082015250565b5f61552c603283613c1a565b9150615537826154d2565b604082019050919050565b5f6020820190508181035f83015261555981615520565b9050919050565b7f5072697a6520746f6b656e20686173206e6f20636f6e747261637420636f64655f82015250565b5f615594602083613c1a565b915061559f82615560565b602082019050919050565b5f6020820190508181035f8301526155c181615588565b9050919050565b7f496e76616c6964204552432d323020746f6b656e3a20746f74616c537570706c5f8201527f792063616c6c206661696c656400000000000000000000000000000000000000602082015250565b5f615622602d83613c1a565b915061562d826155c8565b604082019050919050565b5f6020820190508181035f83015261564f81615616565b9050919050565b7f5072697a6520746f6b656e2061646472657373206d757374206265207a65726f5f8201527f20666f7220455448207072697a65000000000000000000000000000000000000602082015250565b5f6156b0602e83613c1a565b91506156bb82615656565b604082019050919050565b5f6020820190508181035f8301526156dd816156a4565b9050919050565b7f456e7472792066656520746f6b656e20616464726573732063616e6e6f7420625f8201527f65207a65726f20696620656e7472792066656520616d6f756e7420697320677260208201527f6561746572207468616e207a65726f0000000000000000000000000000000000604082015250565b5f615764604f83613c1a565b915061576f826156e4565b606082019050919050565b5f6020820190508181035f83015261579181615758565b9050919050565b7f456e7472792066656520746f6b656e20686173206e6f20636f6e7472616374205f8201527f636f646500000000000000000000000000000000000000000000000000000000602082015250565b5f6157f2602483613c1a565b91506157fd82615798565b604082019050919050565b5f6020820190508181035f83015261581f816157e6565b9050919050565b7f496e76616c6964204552432d323020746f6b656e20666f7220656e74727920665f8201527f65653a20746f74616c537570706c792063616c6c206661696c65640000000000602082015250565b5f615880603b83613c1a565b915061588b82615826565b604082019050919050565b5f6020820190508181035f8301526158ad81615874565b9050919050565b7f456e7472792066656520746f6b656e2061646472657373206d757374206265205f8201527f7a65726f20696620656e7472792066656520616d6f756e74206973207a65726f602082015250565b5f61590e604083613c1a565b9150615919826158b4565b604082019050919050565b5f6020820190508181035f83015261593b81615902565b9050919050565b7f4d75737420776974686472617720455448207072697a6520706f6f6c206265665f8201527f6f7265206e657720726964646c65000000000000000000000000000000000000602082015250565b5f61599c602e83613c1a565b91506159a782615942565b604082019050919050565b5f6020820190508181035f8301526159c981615990565b9050919050565b7f4d75737420776974686472617720746f6b656e207072697a6520706f6f6c20625f8201527f65666f7265206e657720726964646c6500000000000000000000000000000000602082015250565b5f615a2a603083613c1a565b9150615a35826159d0565b604082019050919050565b5f6020820190508181035f830152615a5781615a1e565b9050919050565b5f60ff82169050919050565b615a7381615a5e565b82525050565b5f60a082019050615a8c5f830188614054565b615a996020830187615a6a565b615aa66040830186613df2565b615ab36060830185613d21565b615ac06080830184613df2565b9695505050505050565b5f606082019050615add5f830186613df2565b615aea6020830185613df2565b615af76040830184613d21565b949350505050565b5f604082019050615b125f830185613df2565b615b1f6020830184613d21565b9392505050565b7f57696e6e657220616464726573732063616e6e6f74206265207a65726f0000005f82015250565b5f615b5a601d83613c1a565b9150615b6582615b26565b602082019050919050565b5f6020820190508181035f830152615b8781615b4e565b9050919050565b7f496e73756666696369656e7420455448207072697a6520706f6f6c2062616c615f8201527f6e63650000000000000000000000000000000000000000000000000000000000602082015250565b5f615be8602383613c1a565b9150615bf382615b8e565b604082019050919050565b5f6020820190508181035f830152615c1581615bdc565b9050919050565b7f496e73756666696369656e7420636f6e7472616374204554482062616c616e635f8201527f6500000000000000000000000000000000000000000000000000000000000000602082015250565b5f615c76602183613c1a565b9150615c8182615c1c565b604082019050919050565b5f6020820190508181035f830152615ca381615c6a565b9050919050565b7f455448207472616e73666572206661696c6564000000000000000000000000005f82015250565b5f615cde601383613c1a565b9150615ce982615caa565b602082019050919050565b5f6020820190508181035f830152615d0b81615cd2565b9050919050565b7f496e73756666696369656e74204552433230207072697a6520706f6f6c2062615f8201527f6c616e6365000000000000000000000000000000000000000000000000000000602082015250565b5f615d6c602583613c1a565b9150615d7782615d12565b604082019050919050565b5f6020820190508181035f830152615d9981615d60565b905091905056fea2646970667358221220f949057913cae5df90cc01c80a2fdd2a580c631b6fd8ebadb9d8a75bf1c86d5a64736f6c634300081e0033","linkReferences":{}},"methodIdentifiers":{"ENTRY_FEE()":"f6d361cc","MAX_RETRIES()":"46ebbdb0","RETRY_COST()":"57aa0ea2","balances(address)":"27e235e3","committedAt(uint256,address)":"c06a5fc5","committedGuesses(uint256,address)":"b7173e77","currentRiddleId()":"ecdc6c23","deposit()":"d0e30db0","enterGame(uint256)":"43d6582b","entryFeeToken()":"7b149763","ethPrizePool()":"95664a3d","fundTokenPrizePool(uint256)":"48b06e87","getPrizeToken()":"c7cd6959","hasClaimed(uint256,address)":"873f6f9e","hasParticipated(uint256,address)":"a34398a2","hasRevealed(uint256,address)":"16b5551d","isWinner(uint256,address)":"bdd415af","owner()":"8da5cb5b","ownerWithdraw(uint256)":"33f707d1","ownerWithdrawTokens(uint256)":"60972120","playerRetries(uint256,address)":"29c17990","prizeAmount()":"785fa627","prizeToken()":"d0ef024a","prizeType()":"fcdf8e89","purchaseRetry(uint256)":"7a11e941","renounceOwnership()":"715018a6","retryToken()":"219fc385","revealDelay()":"53236d74","revealGuess(uint256,string)":"12b5afc1","revealedGuessHash(uint256,address)":"188240cd","setRevealDelay(uint256)":"a68c25d8","setRiddle(uint256,bytes32,uint8,address,uint256,address)":"f9f82e9c","solveRiddleAndClaim(string)":"dc663b53","submitGuess(uint256,bytes32)":"e4d33ee3","tokenPrizePool()":"c310e242","transferOwnership(address)":"f2fde38b","winners(uint256,uint256)":"0efc8865","withdraw(uint256)":"2e1a7d4d"},"id":2}