{"abi":[{"type":"constructor","inputs":[{"name":"initialOwner","type":"address","internalType":"address"}],"stateMutability":"nonpayable"},{"type":"receive","stateMutability":"payable"},{"type":"function","name":"ENTRY_FEE","inputs":[],"outputs":[{"name":"","type":"uint256","internalType":"uint256"}],"stateMutability":"view"},{"type":"function","name":"balances","inputs":[{"name":"","type":"address","internalType":"address"}],"outputs":[{"name":"","type":"uint256","internalType":"uint256"}],"stateMutability":"view"},{"type":"function","name":"currentRiddleId","inputs":[],"outputs":[{"name":"","type":"uint256","internalType":"uint256"}],"stateMutability":"view"},{"type":"function","name":"deposit","inputs":[],"outputs":[],"stateMutability":"payable"},{"type":"function","name":"enterGame","inputs":[{"name":"_riddleId","type":"uint256","internalType":"uint256"}],"outputs":[],"stateMutability":"nonpayable"},{"type":"function","name":"entryFeeToken","inputs":[],"outputs":[{"name":"","type":"address","internalType":"contract IERC20"}],"stateMutability":"view"},{"type":"function","name":"ethPrizePool","inputs":[],"outputs":[{"name":"","type":"uint256","internalType":"uint256"}],"stateMutability":"view"},{"type":"function","name":"fundTokenPrizePool","inputs":[{"name":"_amount","type":"uint256","internalType":"uint256"}],"outputs":[],"stateMutability":"nonpayable"},{"type":"function","name":"getPrizeToken","inputs":[],"outputs":[{"name":"","type":"address","internalType":"address"}],"stateMutability":"view"},{"type":"function","name":"hasClaimed","inputs":[{"name":"","type":"uint256","internalType":"uint256"},{"name":"","type":"address","internalType":"address"}],"outputs":[{"name":"","type":"bool","internalType":"bool"}],"stateMutability":"view"},{"type":"function","name":"hasParticipated","inputs":[{"name":"","type":"uint256","internalType":"uint256"},{"name":"","type":"address","internalType":"address"}],"outputs":[{"name":"","type":"bool","internalType":"bool"}],"stateMutability":"view"},{"type":"function","name":"owner","inputs":[],"outputs":[{"name":"","type":"address","internalType":"address"}],"stateMutability":"view"},{"type":"function","name":"ownerWithdraw","inputs":[{"name":"_amount","type":"uint256","internalType":"uint256"}],"outputs":[],"stateMutability":"nonpayable"},{"type":"function","name":"ownerWithdrawTokens","inputs":[{"name":"_amount","type":"uint256","internalType":"uint256"}],"outputs":[],"stateMutability":"nonpayable"},{"type":"function","name":"prizeAmount","inputs":[],"outputs":[{"name":"","type":"uint256","internalType":"uint256"}],"stateMutability":"view"},{"type":"function","name":"prizeToken","inputs":[],"outputs":[{"name":"","type":"address","internalType":"contract IERC20"}],"stateMutability":"view"},{"type":"function","name":"prizeType","inputs":[],"outputs":[{"name":"","type":"uint8","internalType":"enum Vaultis.PrizeType"}],"stateMutability":"view"},{"type":"function","name":"renounceOwnership","inputs":[],"outputs":[],"stateMutability":"nonpayable"},{"type":"function","name":"setRiddle","inputs":[{"name":"_riddleId","type":"uint256","internalType":"uint256"},{"name":"_answerHash","type":"bytes32","internalType":"bytes32"},{"name":"_prizeType","type":"uint8","internalType":"enum Vaultis.PrizeType"},{"name":"_prizeTokenAddress","type":"address","internalType":"address"},{"name":"_prizeAmount","type":"uint256","internalType":"uint256"},{"name":"_entryFeeTokenAddress","type":"address","internalType":"address"}],"outputs":[],"stateMutability":"nonpayable"},{"type":"function","name":"solveRiddleAndClaim","inputs":[{"name":"_answer","type":"string","internalType":"string"}],"outputs":[],"stateMutability":"nonpayable"},{"type":"function","name":"tokenPrizePool","inputs":[],"outputs":[{"name":"","type":"uint256","internalType":"uint256"}],"stateMutability":"view"},{"type":"function","name":"transferOwnership","inputs":[{"name":"newOwner","type":"address","internalType":"address"}],"outputs":[],"stateMutability":"nonpayable"},{"type":"function","name":"withdraw","inputs":[{"name":"_amount","type":"uint256","internalType":"uint256"}],"outputs":[],"stateMutability":"nonpayable"},{"type":"event","name":"Deposit","inputs":[{"name":"user","type":"address","indexed":true,"internalType":"address"},{"name":"amount","type":"uint256","indexed":false,"internalType":"uint256"}],"anonymous":false},{"type":"event","name":"EntryFeeCollected","inputs":[{"name":"player","type":"address","indexed":true,"internalType":"address"},{"name":"token","type":"address","indexed":true,"internalType":"address"},{"name":"amount","type":"uint256","indexed":false,"internalType":"uint256"},{"name":"riddleId","type":"uint256","indexed":true,"internalType":"uint256"}],"anonymous":false},{"type":"event","name":"EthReceived","inputs":[{"name":"sender","type":"address","indexed":true,"internalType":"address"},{"name":"amount","type":"uint256","indexed":false,"internalType":"uint256"}],"anonymous":false},{"type":"event","name":"OwnerWithdrawTokens","inputs":[{"name":"amount","type":"uint256","indexed":false,"internalType":"uint256"}],"anonymous":false},{"type":"event","name":"OwnerWithdrawal","inputs":[{"name":"owner","type":"address","indexed":true,"internalType":"address"},{"name":"amount","type":"uint256","indexed":false,"internalType":"uint256"}],"anonymous":false},{"type":"event","name":"OwnershipTransferred","inputs":[{"name":"previousOwner","type":"address","indexed":true,"internalType":"address"},{"name":"newOwner","type":"address","indexed":true,"internalType":"address"}],"anonymous":false},{"type":"event","name":"PlayerEntered","inputs":[{"name":"player","type":"address","indexed":true,"internalType":"address"},{"name":"riddleId","type":"uint256","indexed":true,"internalType":"uint256"}],"anonymous":false},{"type":"event","name":"PrizeDistributed","inputs":[{"name":"winner","type":"address","indexed":true,"internalType":"address"},{"name":"amount","type":"uint256","indexed":false,"internalType":"uint256"},{"name":"prizeType","type":"uint8","indexed":false,"internalType":"enum Vaultis.PrizeType"}],"anonymous":false},{"type":"event","name":"PrizeFunded","inputs":[{"name":"funder","type":"address","indexed":true,"internalType":"address"},{"name":"amount","type":"uint256","indexed":false,"internalType":"uint256"},{"name":"prizeType","type":"uint8","indexed":false,"internalType":"enum Vaultis.PrizeType"}],"anonymous":false},{"type":"event","name":"RiddleInitialized","inputs":[{"name":"riddleId","type":"uint256","indexed":true,"internalType":"uint256"},{"name":"answerHash","type":"bytes32","indexed":false,"internalType":"bytes32"},{"name":"prizeType","type":"uint8","indexed":false,"internalType":"uint8"},{"name":"prizeTokenAddress","type":"address","indexed":false,"internalType":"address"},{"name":"prizeAmount","type":"uint256","indexed":false,"internalType":"uint256"},{"name":"entryFeeTokenAddress","type":"address","indexed":false,"internalType":"address"}],"anonymous":false},{"type":"event","name":"Withdrawal","inputs":[{"name":"user","type":"address","indexed":true,"internalType":"address"},{"name":"amount","type":"uint256","indexed":false,"internalType":"uint256"}],"anonymous":false},{"type":"error","name":"OwnableInvalidOwner","inputs":[{"name":"owner","type":"address","internalType":"address"}]},{"type":"error","name":"OwnableUnauthorizedAccount","inputs":[{"name":"account","type":"address","internalType":"address"}]},{"type":"error","name":"ReentrancyGuardReentrantCall","inputs":[]},{"type":"error","name":"SafeERC20FailedOperation","inputs":[{"name":"token","type":"address","internalType":"address"}]}],"bytecode":{"object":"0x608060405234801561000f575f5ffd5b5060405161420b38038061420b8339818101604052810190610031919061021e565b805f73ffffffffffffffffffffffffffffffffffffffff168173ffffffffffffffffffffffffffffffffffffffff16036100a2575f6040517f1e4fbdf70000000000000000000000000000000000000000000000000000000081526004016100999190610258565b60405180910390fd5b6100b1816100ff60201b60201c565b50600180819055505f60085f6101000a81548173ffffffffffffffffffffffffffffffffffffffff021916908373ffffffffffffffffffffffffffffffffffffffff16021790555050610271565b5f5f5f9054906101000a900473ffffffffffffffffffffffffffffffffffffffff169050815f5f6101000a81548173ffffffffffffffffffffffffffffffffffffffff021916908373ffffffffffffffffffffffffffffffffffffffff1602179055508173ffffffffffffffffffffffffffffffffffffffff168173ffffffffffffffffffffffffffffffffffffffff167f8be0079c531659141344cd1fd0a4f28419497f9722a3daafe3b4186f6b6457e060405160405180910390a35050565b5f5ffd5b5f73ffffffffffffffffffffffffffffffffffffffff82169050919050565b5f6101ed826101c4565b9050919050565b6101fd816101e3565b8114610207575f5ffd5b50565b5f81519050610218816101f4565b92915050565b5f60208284031215610233576102326101c0565b5b5f6102408482850161020a565b91505092915050565b610252816101e3565b82525050565b5f60208201905061026b5f830184610249565b92915050565b613f8d8061027e5f395ff3fe608060405260043610610143575f3560e01c806395664a3d116100b5578063dc663b531161006e578063dc663b53146104b8578063ecdc6c23146104e0578063f2fde38b1461050a578063f6d361cc14610532578063f9f82e9c1461055c578063fcdf8e8914610584576101f2565b806395664a3d146103ca578063a34398a2146103f4578063c310e24214610430578063c7cd69591461045a578063d0e30db014610484578063d0ef024a1461048e576101f2565b8063609721201161010757806360972120146102d2578063715018a6146102fa578063785fa627146103105780637b1497631461033a578063873f6f9e146103645780638da5cb5b146103a0576101f2565b806327e235e3146101f65780632e1a7d4d1461023257806333f707d11461025a57806343d6582b1461028257806348b06e87146102aa576101f2565b366101f2575f341161018a576040517f08c379a0000000000000000000000000000000000000000000000000000000008152600401610181906125d1565b60405180910390fd5b3460045f82825461019b9190612625565b925050819055503373ffffffffffffffffffffffffffffffffffffffff167f85177f287940f2f05425a4029951af0e047a7f9c4eaa9a6e6917bcd869f86695346040516101e89190612667565b60405180910390a2005b5f5ffd5b348015610201575f5ffd5b5061021c600480360381019061021791906126e2565b6105ae565b6040516102299190612667565b60405180910390f35b34801561023d575f5ffd5b5061025860048036038101906102539190612737565b6105c3565b005b348015610265575f5ffd5b50610280600480360381019061027b9190612737565b6107e2565b005b34801561028d575f5ffd5b506102a860048036038101906102a39190612737565b6109a7565b005b3480156102b5575f5ffd5b506102d060048036038101906102cb9190612737565b610e10565b005b3480156102dd575f5ffd5b506102f860048036038101906102f39190612737565b611028565b005b348015610305575f5ffd5b5061030e6111fb565b005b34801561031b575f5ffd5b5061032461120e565b6040516103319190612667565b60405180910390f35b348015610345575f5ffd5b5061034e611214565b60405161035b91906127bd565b60405180910390f35b34801561036f575f5ffd5b5061038a600480360381019061038591906127d6565b611239565b604051610397919061282e565b60405180910390f35b3480156103ab575f5ffd5b506103b4611263565b6040516103c19190612856565b60405180910390f35b3480156103d5575f5ffd5b506103de61128a565b6040516103eb9190612667565b60405180910390f35b3480156103ff575f5ffd5b5061041a600480360381019061041591906127d6565b611290565b604051610427919061282e565b60405180910390f35b34801561043b575f5ffd5b506104446112ba565b6040516104519190612667565b60405180910390f35b348015610465575f5ffd5b5061046e6112c0565b60405161047b9190612856565b60405180910390f35b61048c6112e8565b005b348015610499575f5ffd5b506104a26113dd565b6040516104af91906127bd565b60405180910390f35b3480156104c3575f5ffd5b506104de60048036038101906104d991906128d0565b611402565b005b3480156104eb575f5ffd5b506104f461166d565b6040516105019190612667565b60405180910390f35b348015610515575f5ffd5b50610530600480360381019061052b91906126e2565b611673565b005b34801561053d575f5ffd5b506105466116f7565b6040516105539190612667565b60405180910390f35b348015610567575f5ffd5b50610582600480360381019061057d9190612971565b611703565b005b34801561058f575f5ffd5b50610598611df5565b6040516105a59190612a6d565b60405180910390f35b6002602052805f5260405f205f915090505481565b6105cb611e08565b5f811161060d576040517f08c379a000000000000000000000000000000000000000000000000000000000815260040161060490612af6565b60405180910390fd5b8060025f3373ffffffffffffffffffffffffffffffffffffffff1673ffffffffffffffffffffffffffffffffffffffff1681526020019081526020015f2054101561068d576040517f08c379a000000000000000000000000000000000000000000000000000000000815260040161068490612b5e565b60405180910390fd5b8060025f3373ffffffffffffffffffffffffffffffffffffffff1673ffffffffffffffffffffffffffffffffffffffff1681526020019081526020015f205f8282546106d99190612b7c565b925050819055505f3373ffffffffffffffffffffffffffffffffffffffff168260405161070590612bdc565b5f6040518083038185875af1925050503d805f811461073f576040519150601f19603f3d011682016040523d82523d5f602084013e610744565b606091505b5050905080610788576040517f08c379a000000000000000000000000000000000000000000000000000000000815260040161077f90612c3a565b60405180910390fd5b3373ffffffffffffffffffffffffffffffffffffffff167f7fcf532c15f0a6db0bd6d0e038bea71d30d808c7d98cb3bf7268a95bf5081b65836040516107ce9190612667565b60405180910390a2506107df611e4e565b50565b6107ea611e57565b6107f2611e08565b5f8111610834576040517f08c379a000000000000000000000000000000000000000000000000000000000815260040161082b90612cc8565b60405180910390fd5b806004541015610879576040517f08c379a000000000000000000000000000000000000000000000000000000000815260040161087090612d30565b60405180910390fd5b8060045f82825461088a9190612b7c565b925050819055505f61089a611263565b73ffffffffffffffffffffffffffffffffffffffff168262030d40906040516108c290612bdc565b5f60405180830381858888f193505050503d805f81146108fd576040519150601f19603f3d011682016040523d82523d5f602084013e610902565b606091505b5050905080610946576040517f08c379a000000000000000000000000000000000000000000000000000000000815260040161093d90612d98565b60405180910390fd5b61094e611263565b73ffffffffffffffffffffffffffffffffffffffff167fa919fadcfa556a012bab31b15f596ea7ccd397adbf10e15f176db9055ab361c4836040516109939190612667565b60405180910390a2506109a4611e4e565b50565b6109af611e08565b60095f8281526020019081526020015f205f3373ffffffffffffffffffffffffffffffffffffffff1673ffffffffffffffffffffffffffffffffffffffff1681526020019081526020015f205f9054906101000a900460ff1615610a48576040517f08c379a0000000000000000000000000000000000000000000000000000000008152600401610a3f90612e26565b60405180910390fd5b6003548114610a8c576040517f08c379a0000000000000000000000000000000000000000000000000000000008152600401610a8390612e8e565b60405180910390fd5b5f60035411610ad0576040517f08c379a0000000000000000000000000000000000000000000000000000000008152600401610ac790612ef6565b60405180910390fd5b5f670de0b6b3a76400001115610d5d575f60085f9054906101000a900473ffffffffffffffffffffffffffffffffffffffff1690505f73ffffffffffffffffffffffffffffffffffffffff168173ffffffffffffffffffffffffffffffffffffffff1603610b73576040517f08c379a0000000000000000000000000000000000000000000000000000000008152600401610b6a90612f5e565b60405180910390fd5b5f8173ffffffffffffffffffffffffffffffffffffffff166370a08231306040518263ffffffff1660e01b8152600401610bad9190612856565b602060405180830381865afa158015610bc8573d5f5f3e3d5ffd5b505050506040513d601f19601f82011682018060405250810190610bec9190612f90565b9050610c233330670de0b6b3a76400008573ffffffffffffffffffffffffffffffffffffffff16611ede909392919063ffffffff16565b5f818373ffffffffffffffffffffffffffffffffffffffff166370a08231306040518263ffffffff1660e01b8152600401610c5e9190612856565b602060405180830381865afa158015610c79573d5f5f3e3d5ffd5b505050506040513d601f19601f82011682018060405250810190610c9d9190612f90565b610ca79190612b7c565b9050670de0b6b3a76400008114610cf3576040517f08c379a0000000000000000000000000000000000000000000000000000000008152600401610cea9061302b565b60405180910390fd5b838373ffffffffffffffffffffffffffffffffffffffff163373ffffffffffffffffffffffffffffffffffffffff167f1f8e0e31739d887c754fcf7403fe1bdf6641ef33578b9d08631a7d5e6e9b8fb784604051610d519190612667565b60405180910390a45050505b600160095f8381526020019081526020015f205f3373ffffffffffffffffffffffffffffffffffffffff1673ffffffffffffffffffffffffffffffffffffffff1681526020019081526020015f205f6101000a81548160ff021916908315150217905550803373ffffffffffffffffffffffffffffffffffffffff167fc16481c9484122696a660b57df0bf6839645c6b620cb1704ac2437de13be922560405160405180910390a3610e0d611e4e565b50565b610e18611e57565b610e20611e08565b5f8111610e62576040517f08c379a0000000000000000000000000000000000000000000000000000000008152600401610e5990613093565b60405180910390fd5b600180811115610e7557610e746129fa565b5b600860149054906101000a900460ff166001811115610e9757610e966129fa565b5b14610ed7576040517f08c379a0000000000000000000000000000000000000000000000000000000008152600401610ece90613121565b60405180910390fd5b5f73ffffffffffffffffffffffffffffffffffffffff1660055f9054906101000a900473ffffffffffffffffffffffffffffffffffffffff1673ffffffffffffffffffffffffffffffffffffffff1603610f66576040517f08c379a0000000000000000000000000000000000000000000000000000000008152600401610f5d90613189565b60405180910390fd5b610fb433308360055f9054906101000a900473ffffffffffffffffffffffffffffffffffffffff1673ffffffffffffffffffffffffffffffffffffffff16611ede909392919063ffffffff16565b8060065f828254610fc59190612625565b925050819055503373ffffffffffffffffffffffffffffffffffffffff167f4708e702157b1eb6cd00a772e6a623599ac7dc0bad76e8c624fdef050b434f098260016040516110159291906131a7565b60405180910390a2611025611e4e565b50565b611030611e57565b611038611e08565b5f811161107a576040517f08c379a00000000000000000000000000000000000000000000000000000000081526004016110719061323e565b60405180910390fd5b8060065410156110bf576040517f08c379a00000000000000000000000000000000000000000000000000000000081526004016110b6906132a6565b60405180910390fd5b5f73ffffffffffffffffffffffffffffffffffffffff1660055f9054906101000a900473ffffffffffffffffffffffffffffffffffffffff1673ffffffffffffffffffffffffffffffffffffffff160361114e576040517f08c379a000000000000000000000000000000000000000000000000000000000815260040161114590613189565b60405180910390fd5b8060065f82825461115f9190612b7c565b925050819055506111b9611171611263565b8260055f9054906101000a900473ffffffffffffffffffffffffffffffffffffffff1673ffffffffffffffffffffffffffffffffffffffff16611f609092919063ffffffff16565b7f560c2b6d9212838c63f631c64ebc9d7364da90f9af3fdec847c0725dd18330c8816040516111e89190612667565b60405180910390a16111f8611e4e565b50565b611203611e57565b61120c5f611fdf565b565b60075481565b60085f9054906101000a900473ffffffffffffffffffffffffffffffffffffffff1681565b600a602052815f5260405f20602052805f5260405f205f915091509054906101000a900460ff1681565b5f5f5f9054906101000a900473ffffffffffffffffffffffffffffffffffffffff16905090565b60045481565b6009602052815f5260405f20602052805f5260405f205f915091509054906101000a900460ff1681565b60065481565b5f60055f9054906101000a900473ffffffffffffffffffffffffffffffffffffffff16905090565b6112f0611e08565b5f3411611332576040517f08c379a000000000000000000000000000000000000000000000000000000000815260040161132990613334565b60405180910390fd5b3460025f3373ffffffffffffffffffffffffffffffffffffffff1673ffffffffffffffffffffffffffffffffffffffff1681526020019081526020015f205f82825461137e9190612625565b925050819055503373ffffffffffffffffffffffffffffffffffffffff167fe1fffcc4923d04b559f4d29a8bfc6cda04eb5b0d3c460751c2402c5c5cc9109c346040516113cb9190612667565b60405180910390a26113db611e4e565b565b60055f9054906101000a900473ffffffffffffffffffffffffffffffffffffffff1681565b61140a611e08565b5f6003541161144e576040517f08c379a000000000000000000000000000000000000000000000000000000000815260040161144590612ef6565b60405180910390fd5b60095f60035481526020019081526020015f205f3373ffffffffffffffffffffffffffffffffffffffff1673ffffffffffffffffffffffffffffffffffffffff1681526020019081526020015f205f9054906101000a900460ff166114e8576040517f08c379a00000000000000000000000000000000000000000000000000000000081526004016114df9061339c565b60405180910390fd5b600a5f60035481526020019081526020015f205f3373ffffffffffffffffffffffffffffffffffffffff1673ffffffffffffffffffffffffffffffffffffffff1681526020019081526020015f205f9054906101000a900460ff1615611583576040517f08c379a000000000000000000000000000000000000000000000000000000000815260040161157a90613404565b60405180910390fd5b600b54828260405160200161159992919061346c565b60405160208183030381529060405280519060200120146115ef576040517f08c379a00000000000000000000000000000000000000000000000000000000081526004016115e6906134d8565b60405180910390fd5b6001600a5f60035481526020019081526020015f205f3373ffffffffffffffffffffffffffffffffffffffff1673ffffffffffffffffffffffffffffffffffffffff1681526020019081526020015f205f6101000a81548160ff021916908315150217905550611661336007546120a0565b611669611e4e565b5050565b60035481565b61167b611e57565b5f73ffffffffffffffffffffffffffffffffffffffff168173ffffffffffffffffffffffffffffffffffffffff16036116eb575f6040517f1e4fbdf70000000000000000000000000000000000000000000000000000000081526004016116e29190612856565b60405180910390fd5b6116f481611fdf565b50565b670de0b6b3a764000081565b61170b611e57565b5f861161174d576040517f08c379a000000000000000000000000000000000000000000000000000000000815260040161174490613540565b60405180910390fd5b6003548611611791576040517f08c379a0000000000000000000000000000000000000000000000000000000008152600401611788906135ce565b60405180910390fd5b5f82116117d3576040517f08c379a00000000000000000000000000000000000000000000000000000000081526004016117ca9061365c565b60405180910390fd5b6001808111156117e6576117e56129fa565b5b8460018111156117f9576117f86129fa565b5b036119b2575f73ffffffffffffffffffffffffffffffffffffffff168373ffffffffffffffffffffffffffffffffffffffff160361186c576040517f08c379a0000000000000000000000000000000000000000000000000000000008152600401611863906136ea565b60405180910390fd5b5f8373ffffffffffffffffffffffffffffffffffffffff163b116118c5576040517f08c379a00000000000000000000000000000000000000000000000000000000081526004016118bc90613752565b60405180910390fd5b8273ffffffffffffffffffffffffffffffffffffffff166318160ddd6040518163ffffffff1660e01b8152600401602060405180830381865afa92505050801561192d57506040513d601f19601f8201168201806040525081019061192a9190612f90565b60015b61196c576040517f08c379a0000000000000000000000000000000000000000000000000000000008152600401611963906137e0565b60405180910390fd5b508260055f6101000a81548173ffffffffffffffffffffffffffffffffffffffff021916908373ffffffffffffffffffffffffffffffffffffffff160217905550611a61565b5f73ffffffffffffffffffffffffffffffffffffffff168373ffffffffffffffffffffffffffffffffffffffff1614611a20576040517f08c379a0000000000000000000000000000000000000000000000000000000008152600401611a179061386e565b60405180910390fd5b5f60055f6101000a81548173ffffffffffffffffffffffffffffffffffffffff021916908373ffffffffffffffffffffffffffffffffffffffff1602179055505b5f670de0b6b3a76400001115611c25575f73ffffffffffffffffffffffffffffffffffffffff168173ffffffffffffffffffffffffffffffffffffffff1603611adf576040517f08c379a0000000000000000000000000000000000000000000000000000000008152600401611ad690613922565b60405180910390fd5b5f8173ffffffffffffffffffffffffffffffffffffffff163b11611b38576040517f08c379a0000000000000000000000000000000000000000000000000000000008152600401611b2f906139b0565b60405180910390fd5b8073ffffffffffffffffffffffffffffffffffffffff166318160ddd6040518163ffffffff1660e01b8152600401602060405180830381865afa925050508015611ba057506040513d601f19601f82011682018060405250810190611b9d9190612f90565b60015b611bdf576040517f08c379a0000000000000000000000000000000000000000000000000000000008152600401611bd690613a3e565b60405180910390fd5b508060085f6101000a81548173ffffffffffffffffffffffffffffffffffffffff021916908373ffffffffffffffffffffffffffffffffffffffff160217905550611cd4565b5f73ffffffffffffffffffffffffffffffffffffffff168173ffffffffffffffffffffffffffffffffffffffff1614611c93576040517f08c379a0000000000000000000000000000000000000000000000000000000008152600401611c8a90613acc565b60405180910390fd5b5f60085f6101000a81548173ffffffffffffffffffffffffffffffffffffffff021916908373ffffffffffffffffffffffffffffffffffffffff1602179055505b5f60045414611d18576040517f08c379a0000000000000000000000000000000000000000000000000000000008152600401611d0f90613b5a565b60405180910390fd5b5f60065414611d5c576040517f08c379a0000000000000000000000000000000000000000000000000000000008152600401611d5390613be8565b60405180910390fd5b8560038190555084600b8190555083600860146101000a81548160ff02191690836001811115611d8f57611d8e6129fa565b5b021790555081600781905550857f05227007ca99c4e41f51fb024dcb2065e16bd026db353ce7f322e5cdb4fb2e9d86866001811115611dd157611dd06129fa565b5b868686604051611de5959493929190613c30565b60405180910390a2505050505050565b600860149054906101000a900460ff1681565b600260015403611e44576040517f3ee5aeb500000000000000000000000000000000000000000000000000000000815260040160405180910390fd5b6002600181905550565b60018081905550565b611e5f6124af565b73ffffffffffffffffffffffffffffffffffffffff16611e7d611263565b73ffffffffffffffffffffffffffffffffffffffff1614611edc57611ea06124af565b6040517f118cdaa7000000000000000000000000000000000000000000000000000000008152600401611ed39190612856565b60405180910390fd5b565b611f5a848573ffffffffffffffffffffffffffffffffffffffff166323b872dd868686604051602401611f1393929190613c81565b604051602081830303815290604052915060e01b6020820180517bffffffffffffffffffffffffffffffffffffffffffffffffffffffff83818316178352505050506124b6565b50505050565b611fda838473ffffffffffffffffffffffffffffffffffffffff1663a9059cbb8585604051602401611f93929190613cb6565b604051602081830303815290604052915060e01b6020820180517bffffffffffffffffffffffffffffffffffffffffffffffffffffffff83818316178352505050506124b6565b505050565b5f5f5f9054906101000a900473ffffffffffffffffffffffffffffffffffffffff169050815f5f6101000a81548173ffffffffffffffffffffffffffffffffffffffff021916908373ffffffffffffffffffffffffffffffffffffffff1602179055508173ffffffffffffffffffffffffffffffffffffffff168173ffffffffffffffffffffffffffffffffffffffff167f8be0079c531659141344cd1fd0a4f28419497f9722a3daafe3b4186f6b6457e060405160405180910390a35050565b5f73ffffffffffffffffffffffffffffffffffffffff168273ffffffffffffffffffffffffffffffffffffffff160361210e576040517f08c379a000000000000000000000000000000000000000000000000000000000815260040161210590613d27565b60405180910390fd5b5f8111612150576040517f08c379a00000000000000000000000000000000000000000000000000000000081526004016121479061365c565b60405180910390fd5b5f6001811115612163576121626129fa565b5b600860149054906101000a900460ff166001811115612185576121846129fa565b5b036122d8578060045410156121cf576040517f08c379a00000000000000000000000000000000000000000000000000000000081526004016121c690613db5565b60405180910390fd5b80471015612212576040517f08c379a000000000000000000000000000000000000000000000000000000000815260040161220990613e43565b60405180910390fd5b8060045f8282546122239190612b7c565b925050819055505f8273ffffffffffffffffffffffffffffffffffffffff168260405161224f90612bdc565b5f6040518083038185875af1925050503d805f8114612289576040519150601f19603f3d011682016040523d82523d5f602084013e61228e565b606091505b50509050806122d2576040517f08c379a00000000000000000000000000000000000000000000000000000000081526004016122c990613eab565b60405180910390fd5b5061244c565b6001808111156122eb576122ea6129fa565b5b600860149054906101000a900460ff16600181111561230d5761230c6129fa565b5b0361244b575f73ffffffffffffffffffffffffffffffffffffffff1660055f9054906101000a900473ffffffffffffffffffffffffffffffffffffffff1673ffffffffffffffffffffffffffffffffffffffff16036123a1576040517f08c379a000000000000000000000000000000000000000000000000000000000815260040161239890613189565b60405180910390fd5b8060065410156123e6576040517f08c379a00000000000000000000000000000000000000000000000000000000081526004016123dd90613f39565b60405180910390fd5b8060065f8282546123f79190612b7c565b9250508190555061244a828260055f9054906101000a900473ffffffffffffffffffffffffffffffffffffffff1673ffffffffffffffffffffffffffffffffffffffff16611f609092919063ffffffff16565b5b5b8173ffffffffffffffffffffffffffffffffffffffff167fff43c2705b2225c1c9d9d58f088ab64d4fc767737dee523bed37f15fb0c6c3de82600860149054906101000a900460ff166040516124a39291906131a7565b60405180910390a25050565b5f33905090565b5f5f60205f8451602086015f885af1806124d5576040513d5f823e3d81fd5b3d92505f519150505f82146124ee576001811415612509565b5f8473ffffffffffffffffffffffffffffffffffffffff163b145b1561254b57836040517f5274afe70000000000000000000000000000000000000000000000000000000081526004016125429190612856565b60405180910390fd5b50505050565b5f82825260208201905092915050565b7f45544820616d6f756e74206d7573742062652067726561746572207468616e205f8201527f7a65726f00000000000000000000000000000000000000000000000000000000602082015250565b5f6125bb602483612551565b91506125c682612561565b604082019050919050565b5f6020820190508181035f8301526125e8816125af565b9050919050565b5f819050919050565b7f4e487b71000000000000000000000000000000000000000000000000000000005f52601160045260245ffd5b5f61262f826125ef565b915061263a836125ef565b9250828201905080821115612652576126516125f8565b5b92915050565b612661816125ef565b82525050565b5f60208201905061267a5f830184612658565b92915050565b5f5ffd5b5f5ffd5b5f73ffffffffffffffffffffffffffffffffffffffff82169050919050565b5f6126b182612688565b9050919050565b6126c1816126a7565b81146126cb575f5ffd5b50565b5f813590506126dc816126b8565b92915050565b5f602082840312156126f7576126f6612680565b5b5f612704848285016126ce565b91505092915050565b612716816125ef565b8114612720575f5ffd5b50565b5f813590506127318161270d565b92915050565b5f6020828403121561274c5761274b612680565b5b5f61275984828501612723565b91505092915050565b5f819050919050565b5f61278561278061277b84612688565b612762565b612688565b9050919050565b5f6127968261276b565b9050919050565b5f6127a78261278c565b9050919050565b6127b78161279d565b82525050565b5f6020820190506127d05f8301846127ae565b92915050565b5f5f604083850312156127ec576127eb612680565b5b5f6127f985828601612723565b925050602061280a858286016126ce565b9150509250929050565b5f8115159050919050565b61282881612814565b82525050565b5f6020820190506128415f83018461281f565b92915050565b612850816126a7565b82525050565b5f6020820190506128695f830184612847565b92915050565b5f5ffd5b5f5ffd5b5f5ffd5b5f5f83601f8401126128905761288f61286f565b5b8235905067ffffffffffffffff8111156128ad576128ac612873565b5b6020830191508360018202830111156128c9576128c8612877565b5b9250929050565b5f5f602083850312156128e6576128e5612680565b5b5f83013567ffffffffffffffff81111561290357612902612684565b5b61290f8582860161287b565b92509250509250929050565b5f819050919050565b61292d8161291b565b8114612937575f5ffd5b50565b5f8135905061294881612924565b92915050565b6002811061295a575f5ffd5b50565b5f8135905061296b8161294e565b92915050565b5f5f5f5f5f5f60c0878903121561298b5761298a612680565b5b5f61299889828a01612723565b96505060206129a989828a0161293a565b95505060406129ba89828a0161295d565b94505060606129cb89828a016126ce565b93505060806129dc89828a01612723565b92505060a06129ed89828a016126ce565b9150509295509295509295565b7f4e487b71000000000000000000000000000000000000000000000000000000005f52602160045260245ffd5b60028110612a3857612a376129fa565b5b50565b5f819050612a4882612a27565b919050565b5f612a5782612a3b565b9050919050565b612a6781612a4d565b82525050565b5f602082019050612a805f830184612a5e565b92915050565b7f5769746864726177616c20616d6f756e74206d757374206265206772656174655f8201527f72207468616e207a65726f000000000000000000000000000000000000000000602082015250565b5f612ae0602b83612551565b9150612aeb82612a86565b604082019050919050565b5f6020820190508181035f830152612b0d81612ad4565b9050919050565b7f496e73756666696369656e742062616c616e63650000000000000000000000005f82015250565b5f612b48601483612551565b9150612b5382612b14565b602082019050919050565b5f6020820190508181035f830152612b7581612b3c565b9050919050565b5f612b86826125ef565b9150612b91836125ef565b9250828203905081811115612ba957612ba86125f8565b5b92915050565b5f81905092915050565b50565b5f612bc75f83612baf565b9150612bd282612bb9565b5f82019050919050565b5f612be682612bbc565b9150819050919050565b7f5769746864726177616c206661696c65640000000000000000000000000000005f82015250565b5f612c24601183612551565b9150612c2f82612bf0565b602082019050919050565b5f6020820190508181035f830152612c5181612c18565b9050919050565b7f4f776e6572207769746864726177616c20616d6f756e74206d757374206265205f8201527f67726561746572207468616e207a65726f000000000000000000000000000000602082015250565b5f612cb2603183612551565b9150612cbd82612c58565b604082019050919050565b5f6020820190508181035f830152612cdf81612ca6565b9050919050565b7f496e73756666696369656e7420455448207072697a6520706f6f6c00000000005f82015250565b5f612d1a601b83612551565b9150612d2582612ce6565b602082019050919050565b5f6020820190508181035f830152612d4781612d0e565b9050919050565b7f4f776e6572207769746864726177616c206661696c65640000000000000000005f82015250565b5f612d82601783612551565b9150612d8d82612d4e565b602082019050919050565b5f6020820190508181035f830152612daf81612d76565b9050919050565b7f416c72656164792070617274696369706174656420696e2074686973207269645f8201527f646c650000000000000000000000000000000000000000000000000000000000602082015250565b5f612e10602383612551565b9150612e1b82612db6565b604082019050919050565b5f6020820190508181035f830152612e3d81612e04565b9050919050565b7f4e6f74207468652061637469766520726964646c6520494400000000000000005f82015250565b5f612e78601883612551565b9150612e8382612e44565b602082019050919050565b5f6020820190508181035f830152612ea581612e6c565b9050919050565b7f4e6f2061637469766520726964646c65000000000000000000000000000000005f82015250565b5f612ee0601083612551565b9150612eeb82612eac565b602082019050919050565b5f6020820190508181035f830152612f0d81612ed4565b9050919050565b7f456e7472792066656520746f6b656e206e6f74207365740000000000000000005f82015250565b5f612f48601783612551565b9150612f5382612f14565b602082019050919050565b5f6020820190508181035f830152612f7581612f3c565b9050919050565b5f81519050612f8a8161270d565b92915050565b5f60208284031215612fa557612fa4612680565b5b5f612fb284828501612f7c565b91505092915050565b7f456e74727920666565206d69736d617463682028464f54206e6f7420737570705f8201527f6f72746564290000000000000000000000000000000000000000000000000000602082015250565b5f613015602683612551565b915061302082612fbb565b604082019050919050565b5f6020820190508181035f83015261304281613009565b9050919050565b7f416d6f756e74206d7573742062652067726561746572207468616e207a65726f5f82015250565b5f61307d602083612551565b915061308882613049565b602082019050919050565b5f6020820190508181035f8301526130aa81613071565b9050919050565b7f43757272656e7420726964646c65207072697a65206973206e6f7420455243325f8201527f3000000000000000000000000000000000000000000000000000000000000000602082015250565b5f61310b602183612551565b9150613116826130b1565b604082019050919050565b5f6020820190508181035f830152613138816130ff565b9050919050565b7f5072697a6520746f6b656e206e6f7420736574000000000000000000000000005f82015250565b5f613173601383612551565b915061317e8261313f565b602082019050919050565b5f6020820190508181035f8301526131a081613167565b9050919050565b5f6040820190506131ba5f830185612658565b6131c76020830184612a5e565b9392505050565b7f4f776e657220746f6b656e207769746864726177616c20616d6f756e74206d755f8201527f73742062652067726561746572207468616e207a65726f000000000000000000602082015250565b5f613228603783612551565b9150613233826131ce565b604082019050919050565b5f6020820190508181035f8301526132558161321c565b9050919050565b7f496e73756666696369656e7420746f6b656e207072697a6520706f6f6c0000005f82015250565b5f613290601d83612551565b915061329b8261325c565b602082019050919050565b5f6020820190508181035f8301526132bd81613284565b9050919050565b7f4465706f73697420616d6f756e74206d757374206265206772656174657220745f8201527f68616e207a65726f000000000000000000000000000000000000000000000000602082015250565b5f61331e602883612551565b9150613329826132c4565b604082019050919050565b5f6020820190508181035f83015261334b81613312565b9050919050565b7f4d75737420656e746572207468652067616d65206669727374000000000000005f82015250565b5f613386601983612551565b915061339182613352565b602082019050919050565b5f6020820190508181035f8301526133b38161337a565b9050919050565b7f416c726561647920636c61696d656400000000000000000000000000000000005f82015250565b5f6133ee600f83612551565b91506133f9826133ba565b602082019050919050565b5f6020820190508181035f83015261341b816133e2565b9050919050565b828183375f83830152505050565b5f601f19601f8301169050919050565b5f61344b8385612551565b9350613458838584613422565b61346183613430565b840190509392505050565b5f6020820190508181035f830152613485818486613440565b90509392505050565b7f496e636f727265637420616e73776572000000000000000000000000000000005f82015250565b5f6134c2601083612551565b91506134cd8261348e565b602082019050919050565b5f6020820190508181035f8301526134ef816134b6565b9050919050565b7f526964646c652049442063616e6e6f74206265207a65726f00000000000000005f82015250565b5f61352a601883612551565b9150613535826134f6565b602082019050919050565b5f6020820190508181035f8301526135578161351e565b9050919050565b7f526964646c65204944206d7573742062652067726561746572207468616e20635f8201527f757272656e740000000000000000000000000000000000000000000000000000602082015250565b5f6135b8602683612551565b91506135c38261355e565b604082019050919050565b5f6020820190508181035f8301526135e5816135ac565b9050919050565b7f5072697a6520616d6f756e74206d7573742062652067726561746572207468615f8201527f6e207a65726f0000000000000000000000000000000000000000000000000000602082015250565b5f613646602683612551565b9150613651826135ec565b604082019050919050565b5f6020820190508181035f8301526136738161363a565b9050919050565b7f5072697a6520746f6b656e20616464726573732063616e6e6f74206265207a655f8201527f726f20666f72204552433230207072697a650000000000000000000000000000602082015250565b5f6136d4603283612551565b91506136df8261367a565b604082019050919050565b5f6020820190508181035f830152613701816136c8565b9050919050565b7f5072697a6520746f6b656e20686173206e6f20636f6e747261637420636f64655f82015250565b5f61373c602083612551565b915061374782613708565b602082019050919050565b5f6020820190508181035f83015261376981613730565b9050919050565b7f496e76616c6964204552432d323020746f6b656e3a20746f74616c537570706c5f8201527f792063616c6c206661696c656400000000000000000000000000000000000000602082015250565b5f6137ca602d83612551565b91506137d582613770565b604082019050919050565b5f6020820190508181035f8301526137f7816137be565b9050919050565b7f5072697a6520746f6b656e2061646472657373206d757374206265207a65726f5f8201527f20666f7220455448207072697a65000000000000000000000000000000000000602082015250565b5f613858602e83612551565b9150613863826137fe565b604082019050919050565b5f6020820190508181035f8301526138858161384c565b9050919050565b7f456e7472792066656520746f6b656e20616464726573732063616e6e6f7420625f8201527f65207a65726f20696620656e7472792066656520616d6f756e7420697320677260208201527f6561746572207468616e207a65726f0000000000000000000000000000000000604082015250565b5f61390c604f83612551565b91506139178261388c565b606082019050919050565b5f6020820190508181035f83015261393981613900565b9050919050565b7f456e7472792066656520746f6b656e20686173206e6f20636f6e7472616374205f8201527f636f646500000000000000000000000000000000000000000000000000000000602082015250565b5f61399a602483612551565b91506139a582613940565b604082019050919050565b5f6020820190508181035f8301526139c78161398e565b9050919050565b7f496e76616c6964204552432d323020746f6b656e20666f7220656e74727920665f8201527f65653a20746f74616c537570706c792063616c6c206661696c65640000000000602082015250565b5f613a28603b83612551565b9150613a33826139ce565b604082019050919050565b5f6020820190508181035f830152613a5581613a1c565b9050919050565b7f456e7472792066656520746f6b656e2061646472657373206d757374206265205f8201527f7a65726f20696620656e7472792066656520616d6f756e74206973207a65726f602082015250565b5f613ab6604083612551565b9150613ac182613a5c565b604082019050919050565b5f6020820190508181035f830152613ae381613aaa565b9050919050565b7f4d75737420776974686472617720455448207072697a6520706f6f6c206265665f8201527f6f7265206e657720726964646c65000000000000000000000000000000000000602082015250565b5f613b44602e83612551565b9150613b4f82613aea565b604082019050919050565b5f6020820190508181035f830152613b7181613b38565b9050919050565b7f4d75737420776974686472617720746f6b656e207072697a6520706f6f6c20625f8201527f65666f7265206e657720726964646c6500000000000000000000000000000000602082015250565b5f613bd2603083612551565b9150613bdd82613b78565b604082019050919050565b5f6020820190508181035f830152613bff81613bc6565b9050919050565b613c0f8161291b565b82525050565b5f60ff82169050919050565b613c2a81613c15565b82525050565b5f60a082019050613c435f830188613c06565b613c506020830187613c21565b613c5d6040830186612847565b613c6a6060830185612658565b613c776080830184612847565b9695505050505050565b5f606082019050613c945f830186612847565b613ca16020830185612847565b613cae6040830184612658565b949350505050565b5f604082019050613cc95f830185612847565b613cd66020830184612658565b9392505050565b7f57696e6e657220616464726573732063616e6e6f74206265207a65726f0000005f82015250565b5f613d11601d83612551565b9150613d1c82613cdd565b602082019050919050565b5f6020820190508181035f830152613d3e81613d05565b9050919050565b7f496e73756666696369656e7420455448207072697a6520706f6f6c2062616c615f8201527f6e63650000000000000000000000000000000000000000000000000000000000602082015250565b5f613d9f602383612551565b9150613daa82613d45565b604082019050919050565b5f6020820190508181035f830152613dcc81613d93565b9050919050565b7f496e73756666696369656e7420636f6e7472616374204554482062616c616e635f8201527f6500000000000000000000000000000000000000000000000000000000000000602082015250565b5f613e2d602183612551565b9150613e3882613dd3565b604082019050919050565b5f6020820190508181035f830152613e5a81613e21565b9050919050565b7f455448207472616e73666572206661696c6564000000000000000000000000005f82015250565b5f613e95601383612551565b9150613ea082613e61565b602082019050919050565b5f6020820190508181035f830152613ec281613e89565b9050919050565b7f496e73756666696369656e74204552433230207072697a6520706f6f6c2062615f8201527f6c616e6365000000000000000000000000000000000000000000000000000000602082015250565b5f613f23602583612551565b9150613f2e82613ec9565b604082019050919050565b5f6020820190508181035f830152613f5081613f17565b905091905056fea26469706673582212206e26347f67256cf649a900a0188368a8ba68871581b93c67a1f0bbfa92cd1a2664736f6c634300081e0033","linkReferences":{}},"methodIdentifiers":{"ENTRY_FEE()":"f6d361cc","balances(address)":"27e235e3","currentRiddleId()":"ecdc6c23","deposit()":"d0e30db0","enterGame(uint256)":"43d6582b","entryFeeToken()":"7b149763","ethPrizePool()":"95664a3d","fundTokenPrizePool(uint256)":"48b06e87","getPrizeToken()":"c7cd6959","hasClaimed(uint256,address)":"873f6f9e","hasParticipated(uint256,address)":"a34398a2","owner()":"8da5cb5b","ownerWithdraw(uint256)":"33f707d1","ownerWithdrawTokens(uint256)":"60972120","prizeAmount()":"785fa627","prizeToken()":"d0ef024a","prizeType()":"fcdf8e89","renounceOwnership()":"715018a6","setRiddle(uint256,bytes32,uint8,address,uint256,address)":"f9f82e9c","solveRiddleAndClaim(string)":"dc663b53","tokenPrizePool()":"c310e242","transferOwnership(address)":"f2fde38b","withdraw(uint256)":"2e1a7d4d"},"id":2}