{"abi":[{"type":"constructor","inputs":[{"name":"initialOwner","type":"address","internalType":"address"},{"name":"_retryTokenAddress","type":"address","internalType":"address"}],"stateMutability":"nonpayable"},{"type":"receive","stateMutability":"payable"},{"type":"function","name":"ENTRY_FEE","inputs":[],"outputs":[{"name":"","type":"uint256","internalType":"uint256"}],"stateMutability":"view"},{"type":"function","name":"MAX_RETRIES","inputs":[],"outputs":[{"name":"","type":"uint256","internalType":"uint256"}],"stateMutability":"view"},{"type":"function","name":"RETRY_COST","inputs":[],"outputs":[{"name":"","type":"uint256","internalType":"uint256"}],"stateMutability":"view"},{"type":"function","name":"balances","inputs":[{"name":"","type":"address","internalType":"address"}],"outputs":[{"name":"","type":"uint256","internalType":"uint256"}],"stateMutability":"view"},{"type":"function","name":"committedAt","inputs":[{"name":"","type":"uint256","internalType":"uint256"},{"name":"","type":"address","internalType":"address"}],"outputs":[{"name":"","type":"uint256","internalType":"uint256"}],"stateMutability":"view"},{"type":"function","name":"committedGuesses","inputs":[{"name":"","type":"uint256","internalType":"uint256"},{"name":"","type":"address","internalType":"address"}],"outputs":[{"name":"","type":"bytes32","internalType":"bytes32"}],"stateMutability":"view"},{"type":"function","name":"currentRiddleId","inputs":[],"outputs":[{"name":"","type":"uint256","internalType":"uint256"}],"stateMutability":"view"},{"type":"function","name":"deposit","inputs":[],"outputs":[],"stateMutability":"payable"},{"type":"function","name":"enterGame","inputs":[{"name":"_riddleId","type":"uint256","internalType":"uint256"}],"outputs":[],"stateMutability":"nonpayable"},{"type":"function","name":"entryFeeToken","inputs":[],"outputs":[{"name":"","type":"address","internalType":"contract IERC20"}],"stateMutability":"view"},{"type":"function","name":"ethPrizePool","inputs":[],"outputs":[{"name":"","type":"uint256","internalType":"uint256"}],"stateMutability":"view"},{"type":"function","name":"fundTokenPrizePool","inputs":[{"name":"_amount","type":"uint256","internalType":"uint256"}],"outputs":[],"stateMutability":"nonpayable"},{"type":"function","name":"getPrizeToken","inputs":[],"outputs":[{"name":"","type":"address","internalType":"address"}],"stateMutability":"view"},{"type":"function","name":"hasClaimed","inputs":[{"name":"","type":"uint256","internalType":"uint256"},{"name":"","type":"address","internalType":"address"}],"outputs":[{"name":"","type":"bool","internalType":"bool"}],"stateMutability":"view"},{"type":"function","name":"hasParticipated","inputs":[{"name":"","type":"uint256","internalType":"uint256"},{"name":"","type":"address","internalType":"address"}],"outputs":[{"name":"","type":"bool","internalType":"bool"}],"stateMutability":"view"},{"type":"function","name":"hasReceivedRemainder","inputs":[{"name":"","type":"uint256","internalType":"uint256"},{"name":"","type":"address","internalType":"address"}],"outputs":[{"name":"","type":"bool","internalType":"bool"}],"stateMutability":"view"},{"type":"function","name":"hasRevealed","inputs":[{"name":"","type":"uint256","internalType":"uint256"},{"name":"","type":"address","internalType":"address"}],"outputs":[{"name":"","type":"bool","internalType":"bool"}],"stateMutability":"view"},{"type":"function","name":"isPaidOut","inputs":[{"name":"","type":"uint256","internalType":"uint256"}],"outputs":[{"name":"","type":"bool","internalType":"bool"}],"stateMutability":"view"},{"type":"function","name":"isWinner","inputs":[{"name":"","type":"uint256","internalType":"uint256"},{"name":"","type":"address","internalType":"address"}],"outputs":[{"name":"","type":"bool","internalType":"bool"}],"stateMutability":"view"},{"type":"function","name":"owner","inputs":[],"outputs":[{"name":"","type":"address","internalType":"address"}],"stateMutability":"view"},{"type":"function","name":"ownerWithdraw","inputs":[{"name":"_amount","type":"uint256","internalType":"uint256"}],"outputs":[],"stateMutability":"nonpayable"},{"type":"function","name":"ownerWithdrawTokens","inputs":[{"name":"_amount","type":"uint256","internalType":"uint256"}],"outputs":[],"stateMutability":"nonpayable"},{"type":"function","name":"payout","inputs":[{"name":"_riddleId","type":"uint256","internalType":"uint256"},{"name":"_winners","type":"address[]","internalType":"address[]"}],"outputs":[],"stateMutability":"nonpayable"},{"type":"function","name":"purchaseRetry","inputs":[{"name":"_riddleId","type":"uint256","internalType":"uint256"}],"outputs":[],"stateMutability":"nonpayable"},{"type":"function","name":"renounceOwnership","inputs":[],"outputs":[],"stateMutability":"nonpayable"},{"type":"function","name":"retries","inputs":[{"name":"","type":"address","internalType":"address"}],"outputs":[{"name":"","type":"uint256","internalType":"uint256"}],"stateMutability":"view"},{"type":"function","name":"retryToken","inputs":[],"outputs":[{"name":"","type":"address","internalType":"contract IERC20"}],"stateMutability":"view"},{"type":"function","name":"revealDelay","inputs":[],"outputs":[{"name":"","type":"uint256","internalType":"uint256"}],"stateMutability":"view"},{"type":"function","name":"revealGuess","inputs":[{"name":"_riddleId","type":"uint256","internalType":"uint256"},{"name":"_guess","type":"string","internalType":"string"}],"outputs":[],"stateMutability":"nonpayable"},{"type":"function","name":"revealedGuessHash","inputs":[{"name":"","type":"uint256","internalType":"uint256"},{"name":"","type":"address","internalType":"address"}],"outputs":[{"name":"","type":"bytes32","internalType":"bytes32"}],"stateMutability":"view"},{"type":"function","name":"riddleConfigs","inputs":[{"name":"","type":"uint256","internalType":"uint256"}],"outputs":[{"name":"prizeAmount","type":"uint256","internalType":"uint256"},{"name":"prizeType","type":"uint8","internalType":"enum Vaultis.PrizeType"},{"name":"prizeToken","type":"address","internalType":"contract IERC20"}],"stateMutability":"view"},{"type":"function","name":"setRevealDelay","inputs":[{"name":"_newRevealDelay","type":"uint256","internalType":"uint256"}],"outputs":[],"stateMutability":"nonpayable"},{"type":"function","name":"setRiddle","inputs":[{"name":"_riddleId","type":"uint256","internalType":"uint256"},{"name":"_answerHash","type":"bytes32","internalType":"bytes32"},{"name":"_prizeType","type":"uint8","internalType":"enum Vaultis.PrizeType"},{"name":"_prizeTokenAddress","type":"address","internalType":"address"},{"name":"_prizeAmount","type":"uint256","internalType":"uint256"},{"name":"_entryFeeTokenAddress","type":"address","internalType":"address"}],"outputs":[],"stateMutability":"nonpayable"},{"type":"function","name":"solveRiddleAndClaim","inputs":[{"name":"_answer","type":"string","internalType":"string"}],"outputs":[],"stateMutability":"nonpayable"},{"type":"function","name":"submitGuess","inputs":[{"name":"_riddleId","type":"uint256","internalType":"uint256"},{"name":"_guessHash","type":"bytes32","internalType":"bytes32"}],"outputs":[],"stateMutability":"nonpayable"},{"type":"function","name":"tokenPrizePool","inputs":[],"outputs":[{"name":"","type":"uint256","internalType":"uint256"}],"stateMutability":"view"},{"type":"function","name":"totalPrizeDistributed","inputs":[{"name":"","type":"uint256","internalType":"uint256"}],"outputs":[{"name":"","type":"uint256","internalType":"uint256"}],"stateMutability":"view"},{"type":"function","name":"transferOwnership","inputs":[{"name":"newOwner","type":"address","internalType":"address"}],"outputs":[],"stateMutability":"nonpayable"},{"type":"function","name":"winners","inputs":[{"name":"","type":"uint256","internalType":"uint256"},{"name":"","type":"uint256","internalType":"uint256"}],"outputs":[{"name":"","type":"address","internalType":"address"}],"stateMutability":"view"},{"type":"function","name":"withdraw","inputs":[{"name":"_amount","type":"uint256","internalType":"uint256"}],"outputs":[],"stateMutability":"nonpayable"},{"type":"event","name":"Deposit","inputs":[{"name":"user","type":"address","indexed":true,"internalType":"address"},{"name":"amount","type":"uint256","indexed":false,"internalType":"uint256"}],"anonymous":false},{"type":"event","name":"EntryFeeCollected","inputs":[{"name":"player","type":"address","indexed":true,"internalType":"address"},{"name":"token","type":"address","indexed":true,"internalType":"address"},{"name":"amount","type":"uint256","indexed":false,"internalType":"uint256"},{"name":"riddleId","type":"uint256","indexed":true,"internalType":"uint256"}],"anonymous":false},{"type":"event","name":"EthReceived","inputs":[{"name":"sender","type":"address","indexed":true,"internalType":"address"},{"name":"amount","type":"uint256","indexed":false,"internalType":"uint256"}],"anonymous":false},{"type":"event","name":"GuessEvaluated","inputs":[{"name":"riddleId","type":"uint256","indexed":true,"internalType":"uint256"},{"name":"player","type":"address","indexed":true,"internalType":"address"},{"name":"timestamp","type":"uint256","indexed":false,"internalType":"uint256"},{"name":"isWinner","type":"bool","indexed":false,"internalType":"bool"}],"anonymous":false},{"type":"event","name":"GuessRevealed","inputs":[{"name":"player","type":"address","indexed":true,"internalType":"address"},{"name":"riddleId","type":"uint256","indexed":true,"internalType":"uint256"},{"name":"revealedHash","type":"bytes32","indexed":false,"internalType":"bytes32"}],"anonymous":false},{"type":"event","name":"GuessSubmitted","inputs":[{"name":"player","type":"address","indexed":true,"internalType":"address"},{"name":"riddleId","type":"uint256","indexed":true,"internalType":"uint256"},{"name":"guessHash","type":"bytes32","indexed":false,"internalType":"bytes32"}],"anonymous":false},{"type":"event","name":"OwnerWithdrawTokens","inputs":[{"name":"amount","type":"uint256","indexed":false,"internalType":"uint256"}],"anonymous":false},{"type":"event","name":"OwnerWithdrawal","inputs":[{"name":"owner","type":"address","indexed":true,"internalType":"address"},{"name":"amount","type":"uint256","indexed":false,"internalType":"uint256"}],"anonymous":false},{"type":"event","name":"OwnershipTransferred","inputs":[{"name":"previousOwner","type":"address","indexed":true,"internalType":"address"},{"name":"newOwner","type":"address","indexed":true,"internalType":"address"}],"anonymous":false},{"type":"event","name":"PayoutExecuted","inputs":[{"name":"riddleId","type":"uint256","indexed":true,"internalType":"uint256"},{"name":"winnerCount","type":"uint256","indexed":false,"internalType":"uint256"},{"name":"totalAmount","type":"uint256","indexed":false,"internalType":"uint256"},{"name":"prizeType","type":"uint8","indexed":false,"internalType":"enum Vaultis.PrizeType"}],"anonymous":false},{"type":"event","name":"PlayerEntered","inputs":[{"name":"player","type":"address","indexed":true,"internalType":"address"},{"name":"riddleId","type":"uint256","indexed":true,"internalType":"uint256"}],"anonymous":false},{"type":"event","name":"PrizeDistributed","inputs":[{"name":"winner","type":"address","indexed":true,"internalType":"address"},{"name":"amount","type":"uint256","indexed":false,"internalType":"uint256"},{"name":"prizeType","type":"uint8","indexed":false,"internalType":"enum Vaultis.PrizeType"}],"anonymous":false},{"type":"event","name":"PrizeFunded","inputs":[{"name":"funder","type":"address","indexed":true,"internalType":"address"},{"name":"amount","type":"uint256","indexed":false,"internalType":"uint256"},{"name":"prizeType","type":"uint8","indexed":false,"internalType":"enum Vaultis.PrizeType"}],"anonymous":false},{"type":"event","name":"RetryPurchased","inputs":[{"name":"player","type":"address","indexed":true,"internalType":"address"},{"name":"riddleId","type":"uint256","indexed":true,"internalType":"uint256"},{"name":"cost","type":"uint256","indexed":false,"internalType":"uint256"},{"name":"newRetryCount","type":"uint256","indexed":false,"internalType":"uint256"}],"anonymous":false},{"type":"event","name":"RiddleInitialized","inputs":[{"name":"riddleId","type":"uint256","indexed":true,"internalType":"uint256"},{"name":"answerHash","type":"bytes32","indexed":false,"internalType":"bytes32"},{"name":"prizeType","type":"uint8","indexed":false,"internalType":"uint8"},{"name":"prizeTokenAddress","type":"address","indexed":false,"internalType":"address"},{"name":"prizeAmount","type":"uint256","indexed":false,"internalType":"uint256"},{"name":"entryFeeTokenAddress","type":"address","indexed":false,"internalType":"address"}],"anonymous":false},{"type":"event","name":"WinnerFound","inputs":[{"name":"winner","type":"address","indexed":true,"internalType":"address"},{"name":"riddleId","type":"uint256","indexed":true,"internalType":"uint256"}],"anonymous":false},{"type":"event","name":"Withdrawal","inputs":[{"name":"user","type":"address","indexed":true,"internalType":"address"},{"name":"amount","type":"uint256","indexed":false,"internalType":"uint256"}],"anonymous":false},{"type":"error","name":"OwnableInvalidOwner","inputs":[{"name":"owner","type":"address","internalType":"address"}]},{"type":"error","name":"OwnableUnauthorizedAccount","inputs":[{"name":"account","type":"address","internalType":"address"}]},{"type":"error","name":"ReentrancyGuardReentrantCall","inputs":[]},{"type":"error","name":"SafeERC20FailedOperation","inputs":[{"name":"token","type":"address","internalType":"address"}]}],"bytecode":{"object":"0x6080806040523461019c57604081613536803803809161001f828561024c565b83398101031261019c5761003e602061003783610283565b9201610283565b6001600160a01b03909116908115610239575f80546001600160a01b031981168417825560405193916001600160a01b03909116907f8be0079c531659141344cd1fd0a4f28419497f9722a3daafe3b4186f6b6457e09080a3600180556001600160a01b0381169182156101ec57503b156101a8576040516318160ddd60e01b8152602081600481855afa9081610175575b506101405760405162461bcd60e51b815260206004820152603760248201527f496e76616c6964204552432d323020746f6b656e20666f722072657472793a2060448201527f746f74616c537570706c792063616c6c206661696c65640000000000000000006064820152608490fd5b600680546001600160a01b0319908116909155610e106011556008805490911691909117905560405161329e90816102988239f35b6020813d6020116101a0575b8161018e6020938361024c565b8101031261019c57516100d0565b5f80fd5b3d9150610181565b606460405162461bcd60e51b815260206004820152602060248201527f526574727920746f6b656e20686173206e6f20636f6e747261637420636f64656044820152fd5b62461bcd60e51b815260206004820152602260248201527f526574727920746f6b656e20616464726573732063616e6e6f74206265207a65604482015261726f60f01b6064820152608490fd5b631e4fbdf760e01b5f525f60045260245ffd5b601f909101601f19168101906001600160401b0382119082101761026f57604052565b634e487b7160e01b5f52604160045260245ffd5b51906001600160a01b038216820361019c5756fe608060405260043610156100ac575b3615610018575f80fd5b341561005b5761002a34600454612d91565b6004556040513481527f85177f287940f2f05425a4029951af0e047a7f9c4eaa9a6e6917bcd869f8669560203392a2005b60405162461bcd60e51b8152602060048201526024808201527f45544820616d6f756e74206d7573742062652067726561746572207468616e206044820152637a65726f60e01b6064820152608490fd5b5f3560e01c80630efc886514612bbd57806312b5afc1146128cf57806316b5551d14612886578063188240cd14612842578063219fc3851461281a57806327e235e3146127e25780632e1a7d4d1461267e57806333f707d1146124f457806343d6582b146121dc57806346ebbdb0146121c157806348b06e871461204957806353236d741461202c578063569eaf6114611ffd57806357aa0ea214611fdb5780636097212014611e75578063715018a614611e1e5780637a11e94114611aaf5780637b14976314611a87578063873f6f9e14611a3e5780638da5cb5b14611a1757806394c9d9bc146119ce57806395664a3d146119b1578063a34398a214611968578063a68c25d814611947578063a6dbce24146118f6578063b7173e77146118b2578063bdd415af14611869578063c06a5fc514611825578063c310e24214611808578063c7cd6959146117d1578063c8e728f914611010578063d0e30db014610f56578063d56c52ed14610f2c578063dbbd324514610ef4578063dc663b5314610c68578063e4d33ee31461092c578063ecdc6c231461090f578063f2fde38b1461088a578063f6d361cc146108685763f9f82e9c0361000e57346105fe5760c03660031901126105fe5760043560243560443560028110156105fe576064356001600160a01b03811692908381036105fe5760a4356001600160a01b0381169160843591908382036105fe576102c3612ef8565b6102ce881515612cad565b600354881115610814576102e3831515612e7d565b600186036107b1578615610751573b1561070d576040516318160ddd60e01b81526020816004818a5afa90816106de575b506103745760405162461bcd60e51b815260206004820152602d60248201527f496e76616c6964204552432d323020746f6b656e3a20746f74616c537570706c60448201526c1e4818d85b1b0819985a5b1959609a1b6064820152608490fd5b821561065b573b1561060a576040516318160ddd60e01b8152602081600481865afa90816105d7575b5061040d5760405162461bcd60e51b815260206004820152603b60248201527f496e76616c6964204552432d323020746f6b656e20666f7220656e747279206660448201527f65653a20746f74616c537570706c792063616c6c206661696c656400000000006064820152608490fd5b600680546001600160a01b0319168317905560045461057b5760055461051d578560035582601255604051946060860186811067ffffffffffffffff82111761050957604052818652602086019585875260016040820191838352895f52600760205260405f20905181550196519560028710156104f5577f05227007ca99c4e41f51fb024dcb2065e16bd026db353ce7f322e5cdb4fb2e9d9760a09760ff9384835491610100600160a81b03905160081b169216906affffffffffffffffffffff60a81b1617179055604051958652166020850152604084015260608301526080820152a2005b634e487b7160e01b5f52602160045260245ffd5b634e487b7160e01b5f52604160045260245ffd5b60405162461bcd60e51b815260206004820152603060248201527f4d75737420776974686472617720746f6b656e207072697a6520706f6f6c206260448201526f65666f7265206e657720726964646c6560801b6064820152608490fd5b60405162461bcd60e51b815260206004820152602e60248201527f4d75737420776974686472617720455448207072697a6520706f6f6c2062656660448201526d6f7265206e657720726964646c6560901b6064820152608490fd5b6020813d602011610602575b816105f060209383612c36565b810103126105fe575161039d565b5f80fd5b3d91506105e3565b60405162461bcd60e51b8152602060048201526024808201527f456e7472792066656520746f6b656e20686173206e6f20636f6e747261637420604482015263636f646560e01b6064820152608490fd5b60405162461bcd60e51b815260206004820152604f60248201527f456e7472792066656520746f6b656e20616464726573732063616e6e6f74206260448201527f65207a65726f20696620656e7472792066656520616d6f756e7420697320677260648201526e6561746572207468616e207a65726f60881b608482015260a490fd5b6020813d602011610705575b816106f760209383612c36565b810103126105fe5751610314565b3d91506106ea565b606460405162461bcd60e51b815260206004820152602060248201527f5072697a6520746f6b656e20686173206e6f20636f6e747261637420636f64656044820152fd5b60405162461bcd60e51b815260206004820152603260248201527f5072697a6520746f6b656e20616464726573732063616e6e6f74206265207a65604482015271726f20666f72204552433230207072697a6560701b6064820152608490fd5b5085156103745760405162461bcd60e51b815260206004820152602e60248201527f5072697a6520746f6b656e2061646472657373206d757374206265207a65726f60448201526d20666f7220455448207072697a6560901b6064820152608490fd5b60405162461bcd60e51b815260206004820152602660248201527f526964646c65204944206d7573742062652067726561746572207468616e20636044820152651d5c9c995b9d60d21b6064820152608490fd5b346105fe575f3660031901126105fe576020604051670de0b6b3a76400008152f35b346105fe5760203660031901126105fe576108a3612c8a565b6108ab612ef8565b6001600160a01b031680156108fc575f80546001600160a01b03198116831782556001600160a01b0316907f8be0079c531659141344cd1fd0a4f28419497f9722a3daafe3b4186f6b6457e09080a3005b631e4fbdf760e01b5f525f60045260245ffd5b346105fe575f3660031901126105fe576020600354604051908152f35b346105fe5760403660031901126105fe5760043560243561094b612ed8565b610956821515612cad565b6109636003548314612cf9565b8015610c23575f82815260096020908152604080832033845290915290205461098e9060ff16612d45565b5f828152600d60209081526040808320338452909152902054610b42575b6012548103610b0a575f82815260146020908152604080832033845290915290205460ff1615610a6f575b60405142815260016020820152827f6dbad7911810fc45c016aff41534b7adcd5477454a9b5be0d995a93518cde67560403393a35b5f828152600d6020908152604080832033808552908352818420859055858452600e83528184208185528352928190204290555192835290917fc5009e6865ae04f58da43f80d7eb9718a2f25a7ccfeb22a8ca0031e77b86b50a9190a360018055005b815f52601360205260405f2080546801000000000000000081101561050957610a9d91600182018155612c0d565b81546001600160a01b0360039290921b91821b1916339182901b179091555f8381526014602090815260408083208484529091528120805460ff191660011790558391907fb5d93c368c4bd18876654db9fd5dcef5a3583ccde4d81659e7f309f36c8449059080a36109d7565b6040514281525f6020820152827f6dbad7911810fc45c016aff41534b7adcd5477454a9b5be0d995a93518cde67560403393a3610a0c565b335f52600b60205260405f205415610be757335f52600b60205260405f2080548015610bd3575f190190555f828152600d6020908152604080832033808552908352818420849055858452600e83528184208185528352818420849055858452600f83528184208185528352818420849055858452601083528184209084529091529020805460ff191690556109ac565b634e487b7160e01b5f52601160045260245ffd5b60405162461bcd60e51b81526020600482015260146024820152734e6f207265747269657320617661696c61626c6560601b6044820152606490fd5b60405162461bcd60e51b815260206004820152601960248201527f477565737320686173682063616e6e6f74206265207a65726f000000000000006044820152606490fd5b346105fe5760203660031901126105fe5760043567ffffffffffffffff81116105fe57366023820112156105fe57806004013567ffffffffffffffff81116105fe5736602482840101116105fe57610cbe612ed8565b60035491610ccd831515612dda565b5f838152600960209081526040808320338452909152902054610cf29060ff16612d45565b5f838152600a6020908152604080832033845290915290205460ff16610ebd575f83815260106020908152604080832033845290915290205460ff1615610e7957825f52600f60205260405f2060018060a01b0333165f5260205260405f205491610d7d602060405183819460248484019701873781015f838201520301601f198101835282612c36565b51902003610e1e575f52600a60205260405f2060018060a01b0333165f5260205260405f20600160ff198254161790556003545f526007602052610ddd60405f20600181549101549060ff60018060a01b038360081c1692169033612f5b565b600380545f908152600f6020908152604080832033808552908352818420849055935483526010825280832093835292905220805460ff1916905560018055005b60405162461bcd60e51b815260206004820152602d60248201527f52657665616c656420677565737320646f6573206e6f74206d6174636820707260448201526c37bb34b232b21030b739bbb2b960991b6064820152608490fd5b606460405162461bcd60e51b815260206004820152602060248201527f4d7573742072657665616c206775657373206265666f726520736f6c76696e676044820152fd5b60405162461bcd60e51b815260206004820152600f60248201526e105b1c9958591e4818db185a5b5959608a1b6044820152606490fd5b346105fe5760203660031901126105fe576001600160a01b03610f15612c8a565b165f52600b602052602060405f2054604051908152f35b346105fe5760203660031901126105fe576004355f526015602052602060405f2054604051908152f35b5f3660031901126105fe57610f69612ed8565b3415610fba57335f52600260205260405f20610f86348254612d91565b90556040513481527fe1fffcc4923d04b559f4d29a8bfc6cda04eb5b0d3c460751c2402c5c5cc9109c60203392a260018055005b60405162461bcd60e51b815260206004820152602860248201527f4465706f73697420616d6f756e74206d7573742062652067726561746572207460448201526768616e207a65726f60c01b6064820152608490fd5b346105fe5760403660031901126105fe5760043560243567ffffffffffffffff81116105fe57366023820112156105fe5780600401359067ffffffffffffffff8211610509578160051b906040519261106c6020840185612c36565b835260246020840192820101903682116105fe57602401915b8183106117b157505050611097612ef8565b61109f612ed8565b815f52601760205260ff60405f20541661175c57811561170b5760035482116116bc57805115611677575f915b815183101561117e5760018301808411610bd3575b8251811015611173576001600160a01b036110fc8585612e69565b51166001600160a01b036111108386612e69565b51161461111f576001016110e1565b60405162461bcd60e51b815260206004820152602660248201527f4475706c69636174652077696e6e657220616464726573736573206e6f7420616044820152651b1b1bddd95960d21b6064820152608490fd5b5091600101916110cc565b90815f52600760205260405f2090815490811561163257835f52601360205260405f20549384156115df5784830480159584068615876115d6575b1561157d575f945f5b8551811015611223575f858152600a602052604090206001600160a01b036111ea8389612e69565b511660018060a01b03165f5260205260ff60405f2054161561120f575b6001016111c2565b9561121b600191612e5b565b969050611207565b50859394878986156115385786860296868804141715610bd357858415159384611517575b5083611501575b506001019260ff84541660028110156104f5578061149257508560045410611436575b5f935f925f5b8982518210156113d357506001600160a01b036112958284612e69565b51168a5f52600a60205260405f2060018060a01b0382165f5260205260ff60405f205416156112c8575b50600101611278565b5f8b8152600a602090815260408083206001600160a01b03851684529091529020805460ff1916600117905590969088908b88806113cb575b806113a2575b611354575b61134d9260019492611348925f52601560205260405f2061132e838254612d91565b905587549160ff878060a01b038460081c16931691612f5b565b612e5b565b96906112bf565b965061134d91509161134860019361136c888d612d91565b90895f52601660205260405f20868060a01b0382165f5260205260405f208660ff1982541617905585999250929450925061130c565b505f52601660205260405f2060018060a01b0382165f526020528b60ff60405f20541615611307565b508715611301565b807f05b3fb943ea68b7671b7ed75aaf73035d0a2b890f252f1fab94052394cd6db8e60608a6114178e60ff8a54169060405193845260208401526040830190612ca0565ba25f52601760205260405f20600160ff19825416179055600180555f80f35b60405162461bcd60e51b815260206004820152602e60248201527f496e73756666696369656e7420455448207072697a6520706f6f6c2062616c6160448201526d1b98d948199bdc881c185e5bdd5d60921b6064820152608490fd5b600103611272578560055410156112725760405162461bcd60e51b815260206004820152603060248201527f496e73756666696369656e74204552433230207072697a6520706f6f6c20626160448201526f1b185b98d948199bdc881c185e5bdd5d60821b6064820152608490fd5b60019196508461151091612d91565b959061124f565b909350875f5260156020526115308460405f2054612d91565b109288611248565b60405162461bcd60e51b815260206004820152601960248201527f4e6f206e65772077696e6e65727320746f20706179206f7574000000000000006044820152606490fd5b60405162461bcd60e51b815260206004820152602b60248201527f5065722d77696e6e657220616d6f756e74206d7573742062652067726561746560448201526a72207468616e207a65726f60a81b6064820152608490fd5b508015156111b9565b60405162461bcd60e51b815260206004820152602560248201527f4e6f2077696e6e657273207265676973746572656420666f72207468697320726044820152646964646c6560d81b6064820152608490fd5b60405162461bcd60e51b815260206004820152601b60248201527f526964646c65207072697a6520616d6f756e74206e6f742073657400000000006044820152606490fd5b60405162461bcd60e51b815260206004820152601d60248201527f57696e6e6572732061727261792063616e6e6f7420626520656d7074790000006044820152606490fd5b60405162461bcd60e51b815260206004820152602160248201527f526964646c65204944206d7573742062652063757272656e74206f72207061736044820152601d60fa1b6064820152608490fd5b60405162461bcd60e51b815260206004820152602360248201527f526964646c65204944206d7573742062652067726561746572207468616e207a60448201526265726f60e81b6064820152608490fd5b60405162461bcd60e51b815260206004820152602760248201527f5061796f757420616c726561647920657865637574656420666f72207468697360448201526620726964646c6560c81b6064820152608490fd5b82356001600160a01b03811681036105fe57815260209283019201611085565b346105fe575f3660031901126105fe576003545f526007602052602060018060a01b03600160405f20015460081c16604051908152f35b346105fe575f3660031901126105fe576020600554604051908152f35b346105fe5760403660031901126105fe5761183e612c74565b6004355f52600e60205260405f209060018060a01b03165f52602052602060405f2054604051908152f35b346105fe5760403660031901126105fe57611882612c74565b6004355f52601460205260405f209060018060a01b03165f52602052602060ff60405f2054166040519015158152f35b346105fe5760403660031901126105fe576118cb612c74565b6004355f52600d60205260405f209060018060a01b03165f52602052602060405f2054604051908152f35b346105fe5760203660031901126105fe576004355f526007602052606060405f20600181549101546040519182526119346020830160ff8316612ca0565b60081c6001600160a01b03166040820152f35b346105fe5760203660031901126105fe57611960612ef8565b600435601155005b346105fe5760403660031901126105fe57611981612c74565b6004355f52600960205260405f209060018060a01b03165f52602052602060ff60405f2054166040519015158152f35b346105fe575f3660031901126105fe576020600454604051908152f35b346105fe5760403660031901126105fe576119e7612c74565b6004355f52601660205260405f209060018060a01b03165f52602052602060ff60405f2054166040519015158152f35b346105fe575f3660031901126105fe575f546040516001600160a01b039091168152602090f35b346105fe5760403660031901126105fe57611a57612c74565b6004355f52600a60205260405f209060018060a01b03165f52602052602060ff60405f2054166040519015158152f35b346105fe575f3660031901126105fe576006546040516001600160a01b039091168152602090f35b346105fe5760203660031901126105fe57600435611acb612ed8565b611ad86003548214612cf9565b5f81815260096020908152604080832033845290915290205460ff1615611dcd576008546001600160a01b031615611d9257335f52600b602052600360405f20541015611d5757335f52600c6020528060405f205403611d36575b6008546040516370a0823160e01b8152306004820152906001600160a01b0316602082602481845afa918215611cf5575f92611d00575b50611bae90604051906323b872dd60e01b602083015233602483015230604483015267016345785d8a0000606483015260648252611ba9608483612c36565b613210565b6008546040516370a0823160e01b815230600482015290602090829060249082906001600160a01b03165afa908115611cf5575f91611cbb575b5067016345785d8a000091611bfc91612d9e565b03611c6657335f52600b60205260405f20611c178154612e5b565b9055335f52600b60205260405f20546040519067016345785d8a0000825260208201527f98afd9c8b4874dc0b797b810a6a8488429aea97e225fc6e70d948f77660fbee760403392a360018055005b60405162461bcd60e51b815260206004820152602760248201527f526574727920636f7374206d69736d617463682028464f54206e6f7420737570604482015266706f727465642960c81b6064820152608490fd5b90506020813d602011611ced575b81611cd660209383612c36565b810103126105fe575167016345785d8a0000611be8565b3d9150611cc9565b6040513d5f823e3d90fd5b9091506020813d602011611d2e575b81611d1c60209383612c36565b810103126105fe575190611bae611b6a565b3d9150611d0f565b335f52600b6020525f6040812055335f52600c6020528060405f2055611b33565b60405162461bcd60e51b815260206004820152601360248201527213585e081c995d1c9a595cc81c995858da1959606a1b6044820152606490fd5b60405162461bcd60e51b815260206004820152601360248201527214995d1c9e481d1bdad95b881b9bdd081cd95d606a1b6044820152606490fd5b60405162461bcd60e51b8152602060048201526024808201527f4d75737420706172746963697061746520696e2074686520726964646c6520666044820152631a5c9cdd60e21b6064820152608490fd5b346105fe575f3660031901126105fe57611e36612ef8565b5f80546001600160a01b0319811682556001600160a01b03167f8be0079c531659141344cd1fd0a4f28419497f9722a3daafe3b4186f6b6457e08280a3005b346105fe5760203660031901126105fe57600435611e91612ef8565b611e99612ed8565b8015611f7057600554818110611f2b5781611f1e7f560c2b6d9212838c63f631c64ebc9d7364da90f9af3fdec847c0725dd18330c8936020936003545f5260078552611f0382600160405f200192611efe60018060a01b03855460081c161515612e19565b612d9e565b600555545f546001600160a01b039081169160081c16612f1e565b604051908152a160018055005b60405162461bcd60e51b815260206004820152601d60248201527f496e73756666696369656e7420746f6b656e207072697a6520706f6f6c0000006044820152606490fd5b60405162461bcd60e51b815260206004820152603760248201527f4f776e657220746f6b656e207769746864726177616c20616d6f756e74206d7560448201527f73742062652067726561746572207468616e207a65726f0000000000000000006064820152608490fd5b346105fe575f3660031901126105fe57602060405167016345785d8a00008152f35b346105fe5760203660031901126105fe576004355f526017602052602060ff60405f2054166040519015158152f35b346105fe575f3660031901126105fe576020601154604051908152f35b346105fe5760203660031901126105fe57600435612065612ef8565b61206d612ed8565b801561217d576003545f526007602052600160405f20015460ff811660028110156104f55760010361212e576120e69060081c6001600160a01b03166120b4811515612e19565b6040516323b872dd60e01b60208201523360248201523060448201526064808201859052815290611ba9608483612c36565b6120f281600554612d91565b600555604051908152600160208201527f4708e702157b1eb6cd00a772e6a623599ac7dc0bad76e8c624fdef050b434f0960403392a260018055005b60405162461bcd60e51b815260206004820152602160248201527f43757272656e7420726964646c65207072697a65206973206e6f7420455243326044820152600360fc1b6064820152608490fd5b606460405162461bcd60e51b815260206004820152602060248201527f416d6f756e74206d7573742062652067726561746572207468616e207a65726f6044820152fd5b346105fe575f3660031901126105fe57602060405160038152f35b346105fe5760203660031901126105fe576004356121f8612ed8565b5f81815260096020908152604080832033845290915290205460ff166124a357612230600354612229818414612cf9565b1515612dda565b335f52600c6020528060405f205403612482575b6006546001600160a01b0316801561243d576040516370a0823160e01b8152306004820152602081602481855afa908115611cf5575f9161240b575b506122c36040516323b872dd60e01b6020820152336024820152306044820152670de0b6b3a76400006064820152606481526122bd608482612c36565b83613210565b6040516370a0823160e01b815230600482015290602082602481865afa8015611cf5575f906123d7575b6122f79250612d9e565b90670de0b6b3a764000082036123835782916040519081527f1f8e0e31739d887c754fcf7403fe1bdf6641ef33578b9d08631a7d5e6e9b8fb760203392a45f8181526009602090815260408083203380855292528220805460ff19166001179055907fc16481c9484122696a660b57df0bf6839645c6b620cb1704ac2437de13be92259080a360018055005b60405162461bcd60e51b815260206004820152602660248201527f456e74727920666565206d69736d617463682028464f54206e6f7420737570706044820152656f727465642960d01b6064820152608490fd5b506020823d602011612403575b816123f160209383612c36565b810103126105fe576122f791516122ed565b3d91506123e4565b90506020813d602011612435575b8161242660209383612c36565b810103126105fe575183612280565b3d9150612419565b60405162461bcd60e51b815260206004820152601760248201527f456e7472792066656520746f6b656e206e6f74207365740000000000000000006044820152606490fd5b335f52600b6020525f6040812055335f52600c6020528060405f2055612244565b60405162461bcd60e51b815260206004820152602360248201527f416c72656164792070617274696369706174656420696e207468697320726964604482015262646c6560e81b6064820152608490fd5b346105fe5760203660031901126105fe57600435612510612ef8565b612518612ed8565b801561261f576004548181106125da578161253291612d9e565b6004555f8080808460018060a01b0382541662030d40f1612551612dab565b5015612595575f546040519182526001600160a01b0316907fa919fadcfa556a012bab31b15f596ea7ccd397adbf10e15f176db9055ab361c490602090a260018055005b60405162461bcd60e51b815260206004820152601760248201527f4f776e6572207769746864726177616c206661696c65640000000000000000006044820152606490fd5b60405162461bcd60e51b815260206004820152601b60248201527f496e73756666696369656e7420455448207072697a6520706f6f6c00000000006044820152606490fd5b60405162461bcd60e51b815260206004820152603160248201527f4f776e6572207769746864726177616c20616d6f756e74206d7573742062652060448201527067726561746572207468616e207a65726f60781b6064820152608490fd5b346105fe5760203660031901126105fe5760043561269a612ed8565b801561278957335f5260026020528060405f20541061274d57335f52600260205260405f206126ca828254612d9e565b90555f80808084335af16126dc612dab565b5015612714576040519081527f7fcf532c15f0a6db0bd6d0e038bea71d30d808c7d98cb3bf7268a95bf5081b6560203392a260018055005b60405162461bcd60e51b815260206004820152601160248201527015da5d1a191c985dd85b0819985a5b1959607a1b6044820152606490fd5b60405162461bcd60e51b8152602060048201526014602482015273496e73756666696369656e742062616c616e636560601b6044820152606490fd5b60405162461bcd60e51b815260206004820152602b60248201527f5769746864726177616c20616d6f756e74206d7573742062652067726561746560448201526a72207468616e207a65726f60a81b6064820152608490fd5b346105fe5760203660031901126105fe576001600160a01b03612803612c8a565b165f526002602052602060405f2054604051908152f35b346105fe575f3660031901126105fe576008546040516001600160a01b039091168152602090f35b346105fe5760403660031901126105fe5761285b612c74565b6004355f52600f60205260405f209060018060a01b03165f52602052602060405f2054604051908152f35b346105fe5760403660031901126105fe5761289f612c74565b6004355f52601060205260405f209060018060a01b03165f52602052602060ff60405f2054166040519015158152f35b346105fe5760403660031901126105fe5760043560243567ffffffffffffffff81116105fe57366023820112156105fe5780600401359061290f82612c58565b9161291d6040519384612c36565b808352602083019136602483830101116105fe57815f92602460209301853784010152612948612ed8565b612953831515612cad565b6129606003548414612cf9565b5f8381526009602090815260408083203384529091529020546129859060ff16612d45565b5f838152600d6020908152604080832033845290915290205415612b83575f83815260106020908152604080832033845290915290205460ff16612b4b575f838152600e602090815260408083203384529091529020546011546129e891612d91565b4210612b1357612a176020604051809382820195518091875e81015f838201520301601f198101835282612c36565b5190205f828152600d602090815260408083203384529091529020548103612ace575f828152600f6020908152604080832033808552908352818420859055858452601083528184208185528352818420805460ff19166001179055858452600d83528184208185528352818420849055858452600e83528184208185528352818420939093555192835290917f59d3b853b3060eb254d2f04ecf2d2fba8ec34ae94835cd01eedead529314f5249190a360018055005b60405162461bcd60e51b815260206004820152601c60248201527f52657665616c20646f6573206e6f74206d6174636820636f6d6d6974000000006044820152606490fd5b60405162461bcd60e51b815260206004820152601060248201526f52657665616c20746f6f206561726c7960801b6044820152606490fd5b60405162461bcd60e51b815260206004820152601060248201526f105b1c9958591e481c995d99585b195960821b6044820152606490fd5b60405162461bcd60e51b81526020600482015260126024820152714e6f20636f6d6d697474656420677565737360701b6044820152606490fd5b346105fe5760403660031901126105fe576024356004355f52601360205260405f2080548210156105fe57602091612bf491612c0d565b905460405160039290921b1c6001600160a01b03168152f35b8054821015612c22575f5260205f2001905f90565b634e487b7160e01b5f52603260045260245ffd5b90601f8019910116810190811067ffffffffffffffff82111761050957604052565b67ffffffffffffffff811161050957601f01601f191660200190565b602435906001600160a01b03821682036105fe57565b600435906001600160a01b03821682036105fe57565b9060028210156104f55752565b15612cb457565b60405162461bcd60e51b815260206004820152601860248201527f526964646c652049442063616e6e6f74206265207a65726f00000000000000006044820152606490fd5b15612d0057565b60405162461bcd60e51b815260206004820152601860248201527f4e6f74207468652061637469766520726964646c6520494400000000000000006044820152606490fd5b15612d4c57565b60405162461bcd60e51b815260206004820152601960248201527f4d75737420656e746572207468652067616d65206669727374000000000000006044820152606490fd5b91908201809211610bd357565b91908203918211610bd357565b3d15612dd5573d90612dbc82612c58565b91612dca6040519384612c36565b82523d5f602084013e565b606090565b15612de157565b60405162461bcd60e51b815260206004820152601060248201526f4e6f2061637469766520726964646c6560801b6044820152606490fd5b15612e2057565b60405162461bcd60e51b8152602060048201526013602482015272141c9a5e99481d1bdad95b881b9bdd081cd95d606a1b6044820152606490fd5b5f198114610bd35760010190565b8051821015612c225760209160051b010190565b15612e8457565b60405162461bcd60e51b815260206004820152602660248201527f5072697a6520616d6f756e74206d7573742062652067726561746572207468616044820152656e207a65726f60d01b6064820152608490fd5b600260015414612ee9576002600155565b633ee5aeb560e01b5f5260045ffd5b5f546001600160a01b03163303612f0b57565b63118cdaa760e01b5f523360045260245ffd5b60405163a9059cbb60e01b60208201526001600160a01b039092166024830152604480830193909352918152612f5991611ba9606483612c36565b565b6001600160a01b0381169391929184156131cb57612f7a841515612e7d565b60028310156104f557826130d557506004549083821061308457834710613035575f8085819493612fac828496612d9e565b6004555af1612fb9612dab565b5015612ffa577fff43c2705b2225c1c9d9d58f088ab64d4fc767737dee523bed37f15fb0c6c3de91612ff76040925b83519283526020830190612ca0565ba2565b60405162461bcd60e51b8152602060048201526013602482015272115512081d1c985b9cd9995c8819985a5b1959606a1b6044820152606490fd5b60405162461bcd60e51b815260206004820152602160248201527f496e73756666696369656e7420636f6e7472616374204554482062616c616e636044820152606560f81b6064820152608490fd5b60405162461bcd60e51b815260206004820152602360248201527f496e73756666696369656e7420455448207072697a6520706f6f6c2062616c616044820152626e636560e81b6064820152608490fd5b906001831461310e575b50507fff43c2705b2225c1c9d9d58f088ab64d4fc767737dee523bed37f15fb0c6c3de91612ff7604092612fe8565b9092906131256001600160a01b0385161515612e19565b600554928284106131785761316e83612ff7937fff43c2705b2225c1c9d9d58f088ab64d4fc767737dee523bed37f15fb0c6c3de9761316683604099612d9e565b600555612f1e565b92508193506130df565b60405162461bcd60e51b815260206004820152602560248201527f496e73756666696369656e74204552433230207072697a6520706f6f6c2062616044820152646c616e636560d81b6064820152608490fd5b60405162461bcd60e51b815260206004820152601d60248201527f57696e6e657220616464726573732063616e6e6f74206265207a65726f0000006044820152606490fd5b905f602091828151910182855af115611cf5575f513d61325f57506001600160a01b0381163b155b61323f5750565b635274afe760e01b5f9081526001600160a01b0391909116600452602490fd5b6001141561323856fea26469706673582212206f960861298f87ff418658501b200c88f7bdb9bfa448341e96609e85fb612cab64736f6c634300081e0033","linkReferences":{}},"methodIdentifiers":{"ENTRY_FEE()":"f6d361cc","MAX_RETRIES()":"46ebbdb0","RETRY_COST()":"57aa0ea2","balances(address)":"27e235e3","committedAt(uint256,address)":"c06a5fc5","committedGuesses(uint256,address)":"b7173e77","currentRiddleId()":"ecdc6c23","deposit()":"d0e30db0","enterGame(uint256)":"43d6582b","entryFeeToken()":"7b149763","ethPrizePool()":"95664a3d","fundTokenPrizePool(uint256)":"48b06e87","getPrizeToken()":"c7cd6959","hasClaimed(uint256,address)":"873f6f9e","hasParticipated(uint256,address)":"a34398a2","hasReceivedRemainder(uint256,address)":"94c9d9bc","hasRevealed(uint256,address)":"16b5551d","isPaidOut(uint256)":"569eaf61","isWinner(uint256,address)":"bdd415af","owner()":"8da5cb5b","ownerWithdraw(uint256)":"33f707d1","ownerWithdrawTokens(uint256)":"60972120","payout(uint256,address[])":"c8e728f9","purchaseRetry(uint256)":"7a11e941","renounceOwnership()":"715018a6","retries(address)":"dbbd3245","retryToken()":"219fc385","revealDelay()":"53236d74","revealGuess(uint256,string)":"12b5afc1","revealedGuessHash(uint256,address)":"188240cd","riddleConfigs(uint256)":"a6dbce24","setRevealDelay(uint256)":"a68c25d8","setRiddle(uint256,bytes32,uint8,address,uint256,address)":"f9f82e9c","solveRiddleAndClaim(string)":"dc663b53","submitGuess(uint256,bytes32)":"e4d33ee3","tokenPrizePool()":"c310e242","totalPrizeDistributed(uint256)":"d56c52ed","transferOwnership(address)":"f2fde38b","winners(uint256,uint256)":"0efc8865","withdraw(uint256)":"2e1a7d4d"},"id":4}