{"abi":[{"type":"constructor","inputs":[{"name":"initialOwner","type":"address","internalType":"address"}],"stateMutability":"nonpayable"},{"type":"receive","stateMutability":"payable"},{"type":"function","name":"balances","inputs":[{"name":"","type":"address","internalType":"address"}],"outputs":[{"name":"","type":"uint256","internalType":"uint256"}],"stateMutability":"view"},{"type":"function","name":"currentRiddleId","inputs":[],"outputs":[{"name":"","type":"uint256","internalType":"uint256"}],"stateMutability":"view"},{"type":"function","name":"deposit","inputs":[],"outputs":[],"stateMutability":"payable"},{"type":"function","name":"enterGame","inputs":[{"name":"_riddleId","type":"uint256","internalType":"uint256"}],"outputs":[],"stateMutability":"nonpayable"},{"type":"function","name":"ethPrizePool","inputs":[],"outputs":[{"name":"","type":"uint256","internalType":"uint256"}],"stateMutability":"view"},{"type":"function","name":"fundTokenPrizePool","inputs":[{"name":"_amount","type":"uint256","internalType":"uint256"}],"outputs":[],"stateMutability":"nonpayable"},{"type":"function","name":"getPrizeToken","inputs":[],"outputs":[{"name":"","type":"address","internalType":"address"}],"stateMutability":"view"},{"type":"function","name":"hasParticipated","inputs":[{"name":"","type":"uint256","internalType":"uint256"},{"name":"","type":"address","internalType":"address"}],"outputs":[{"name":"","type":"bool","internalType":"bool"}],"stateMutability":"view"},{"type":"function","name":"owner","inputs":[],"outputs":[{"name":"","type":"address","internalType":"address"}],"stateMutability":"view"},{"type":"function","name":"ownerWithdraw","inputs":[{"name":"_amount","type":"uint256","internalType":"uint256"}],"outputs":[],"stateMutability":"nonpayable"},{"type":"function","name":"prizeAmount","inputs":[],"outputs":[{"name":"","type":"uint256","internalType":"uint256"}],"stateMutability":"view"},{"type":"function","name":"prizeToken","inputs":[],"outputs":[{"name":"","type":"address","internalType":"contract IERC20"}],"stateMutability":"view"},{"type":"function","name":"prizeType","inputs":[],"outputs":[{"name":"","type":"uint8","internalType":"enum Vaultis.PrizeType"}],"stateMutability":"view"},{"type":"function","name":"renounceOwnership","inputs":[],"outputs":[],"stateMutability":"nonpayable"},{"type":"function","name":"setRiddle","inputs":[{"name":"_riddleId","type":"uint256","internalType":"uint256"},{"name":"_answerHash","type":"bytes32","internalType":"bytes32"},{"name":"_prizeType","type":"uint8","internalType":"enum Vaultis.PrizeType"},{"name":"_prizeTokenAddress","type":"address","internalType":"address"},{"name":"_prizeAmount","type":"uint256","internalType":"uint256"}],"outputs":[],"stateMutability":"nonpayable"},{"type":"function","name":"solveRiddleAndClaim","inputs":[{"name":"_answer","type":"string","internalType":"string"}],"outputs":[],"stateMutability":"nonpayable"},{"type":"function","name":"tokenPrizePool","inputs":[],"outputs":[{"name":"","type":"uint256","internalType":"uint256"}],"stateMutability":"view"},{"type":"function","name":"transferOwnership","inputs":[{"name":"newOwner","type":"address","internalType":"address"}],"outputs":[],"stateMutability":"nonpayable"},{"type":"function","name":"withdraw","inputs":[{"name":"_amount","type":"uint256","internalType":"uint256"}],"outputs":[],"stateMutability":"nonpayable"},{"type":"event","name":"Deposit","inputs":[{"name":"user","type":"address","indexed":true,"internalType":"address"},{"name":"amount","type":"uint256","indexed":false,"internalType":"uint256"}],"anonymous":false},{"type":"event","name":"EthReceived","inputs":[{"name":"sender","type":"address","indexed":true,"internalType":"address"},{"name":"amount","type":"uint256","indexed":false,"internalType":"uint256"}],"anonymous":false},{"type":"event","name":"OwnerWithdrawal","inputs":[{"name":"owner","type":"address","indexed":true,"internalType":"address"},{"name":"amount","type":"uint256","indexed":false,"internalType":"uint256"}],"anonymous":false},{"type":"event","name":"OwnershipTransferred","inputs":[{"name":"previousOwner","type":"address","indexed":true,"internalType":"address"},{"name":"newOwner","type":"address","indexed":true,"internalType":"address"}],"anonymous":false},{"type":"event","name":"PrizeDistributed","inputs":[{"name":"winner","type":"address","indexed":true,"internalType":"address"},{"name":"amount","type":"uint256","indexed":false,"internalType":"uint256"},{"name":"prizeType","type":"uint8","indexed":false,"internalType":"enum Vaultis.PrizeType"}],"anonymous":false},{"type":"event","name":"PrizeFunded","inputs":[{"name":"funder","type":"address","indexed":true,"internalType":"address"},{"name":"amount","type":"uint256","indexed":false,"internalType":"uint256"},{"name":"prizeType","type":"uint8","indexed":false,"internalType":"enum Vaultis.PrizeType"}],"anonymous":false},{"type":"event","name":"RiddleSet","inputs":[{"name":"riddleId","type":"uint256","indexed":true,"internalType":"uint256"},{"name":"answerHash","type":"bytes32","indexed":false,"internalType":"bytes32"},{"name":"prizeType","type":"uint8","indexed":false,"internalType":"enum Vaultis.PrizeType"},{"name":"prizeTokenAddress","type":"address","indexed":false,"internalType":"address"},{"name":"prizeAmount","type":"uint256","indexed":false,"internalType":"uint256"}],"anonymous":false},{"type":"event","name":"Withdrawal","inputs":[{"name":"user","type":"address","indexed":true,"internalType":"address"},{"name":"amount","type":"uint256","indexed":false,"internalType":"uint256"}],"anonymous":false},{"type":"error","name":"OwnableInvalidOwner","inputs":[{"name":"owner","type":"address","internalType":"address"}]},{"type":"error","name":"OwnableUnauthorizedAccount","inputs":[{"name":"account","type":"address","internalType":"address"}]},{"type":"error","name":"ReentrancyGuardReentrantCall","inputs":[]},{"type":"error","name":"SafeERC20FailedOperation","inputs":[{"name":"token","type":"address","internalType":"address"}]}],"bytecode":{"object":"0x608060405234801561000f575f5ffd5b506040516132a43803806132a4833981810160405281019061003191906101de565b805f73ffffffffffffffffffffffffffffffffffffffff168173ffffffffffffffffffffffffffffffffffffffff16036100a2575f6040517f1e4fbdf70000000000000000000000000000000000000000000000000000000081526004016100999190610218565b60405180910390fd5b6100b1816100bf60201b60201c565b506001808190555050610231565b5f5f5f9054906101000a900473ffffffffffffffffffffffffffffffffffffffff169050815f5f6101000a81548173ffffffffffffffffffffffffffffffffffffffff021916908373ffffffffffffffffffffffffffffffffffffffff1602179055508173ffffffffffffffffffffffffffffffffffffffff168173ffffffffffffffffffffffffffffffffffffffff167f8be0079c531659141344cd1fd0a4f28419497f9722a3daafe3b4186f6b6457e060405160405180910390a35050565b5f5ffd5b5f73ffffffffffffffffffffffffffffffffffffffff82169050919050565b5f6101ad82610184565b9050919050565b6101bd816101a3565b81146101c7575f5ffd5b50565b5f815190506101d8816101b4565b92915050565b5f602082840312156101f3576101f2610180565b5b5f610200848285016101ca565b91505092915050565b610212816101a3565b82525050565b5f60208201905061022b5f830184610209565b92915050565b6130668061023e5f395ff3fe608060405260043610610117575f3560e01c8063a34398a21161009f578063dc663b5311610063578063dc663b53146103fe578063ec8a7ee714610426578063ecdc6c231461044e578063f2fde38b14610478578063fcdf8e89146104a0576101c6565b8063a34398a21461033a578063c310e24214610376578063c7cd6959146103a0578063d0e30db0146103ca578063d0ef024a146103d4576101c6565b806348b06e87116100e657806348b06e871461027e578063715018a6146102a6578063785fa627146102bc5780638da5cb5b146102e657806395664a3d14610310576101c6565b806327e235e3146101ca5780632e1a7d4d1461020657806333f707d11461022e57806343d6582b14610256576101c6565b366101c6575f341161015e576040517f08c379a000000000000000000000000000000000000000000000000000000000815260040161015590611d33565b60405180910390fd5b3460045f82825461016f9190611d87565b925050819055503373ffffffffffffffffffffffffffffffffffffffff167f85177f287940f2f05425a4029951af0e047a7f9c4eaa9a6e6917bcd869f86695346040516101bc9190611dc9565b60405180910390a2005b5f5ffd5b3480156101d5575f5ffd5b506101f060048036038101906101eb9190611e44565b6104ca565b6040516101fd9190611dc9565b60405180910390f35b348015610211575f5ffd5b5061022c60048036038101906102279190611e99565b6104df565b005b348015610239575f5ffd5b50610254600480360381019061024f9190611e99565b6106fe565b005b348015610261575f5ffd5b5061027c60048036038101906102779190611e99565b6108a9565b005b348015610289575f5ffd5b506102a4600480360381019061029f9190611e99565b610a41565b005b3480156102b1575f5ffd5b506102ba610c58565b005b3480156102c7575f5ffd5b506102d0610c6b565b6040516102dd9190611dc9565b60405180910390f35b3480156102f1575f5ffd5b506102fa610c71565b6040516103079190611ed3565b60405180910390f35b34801561031b575f5ffd5b50610324610c98565b6040516103319190611dc9565b60405180910390f35b348015610345575f5ffd5b50610360600480360381019061035b9190611eec565b610c9e565b60405161036d9190611f44565b60405180910390f35b348015610381575f5ffd5b5061038a610cc8565b6040516103979190611dc9565b60405180910390f35b3480156103ab575f5ffd5b506103b4610cce565b6040516103c19190611ed3565b60405180910390f35b6103d2610cf6565b005b3480156103df575f5ffd5b506103e8610eec565b6040516103f59190611fb8565b60405180910390f35b348015610409575f5ffd5b50610424600480360381019061041f9190612032565b610f11565b005b348015610431575f5ffd5b5061044c600480360381019061044791906120d3565b6110e2565b005b348015610459575f5ffd5b506104626114d1565b60405161046f9190611dc9565b60405180910390f35b348015610483575f5ffd5b5061049e60048036038101906104999190611e44565b6114d7565b005b3480156104ab575f5ffd5b506104b461155b565b6040516104c191906121bd565b60405180910390f35b6002602052805f5260405f205f915090505481565b6104e761156d565b5f8111610529576040517f08c379a000000000000000000000000000000000000000000000000000000000815260040161052090612246565b60405180910390fd5b8060025f3373ffffffffffffffffffffffffffffffffffffffff1673ffffffffffffffffffffffffffffffffffffffff1681526020019081526020015f205410156105a9576040517f08c379a00000000000000000000000000000000000000000000000000000000081526004016105a0906122ae565b60405180910390fd5b8060025f3373ffffffffffffffffffffffffffffffffffffffff1673ffffffffffffffffffffffffffffffffffffffff1681526020019081526020015f205f8282546105f591906122cc565b925050819055505f3373ffffffffffffffffffffffffffffffffffffffff16826040516106219061232c565b5f6040518083038185875af1925050503d805f811461065b576040519150601f19603f3d011682016040523d82523d5f602084013e610660565b606091505b50509050806106a4576040517f08c379a000000000000000000000000000000000000000000000000000000000815260040161069b9061238a565b60405180910390fd5b3373ffffffffffffffffffffffffffffffffffffffff167f7fcf532c15f0a6db0bd6d0e038bea71d30d808c7d98cb3bf7268a95bf5081b65836040516106ea9190611dc9565b60405180910390a2506106fb6115b3565b50565b6107066115bc565b61070e61156d565b5f8111610750576040517f08c379a000000000000000000000000000000000000000000000000000000000815260040161074790612418565b60405180910390fd5b80471015610793576040517f08c379a000000000000000000000000000000000000000000000000000000000815260040161078a90612480565b60405180910390fd5b5f61079c610c71565b73ffffffffffffffffffffffffffffffffffffffff168262030d40906040516107c49061232c565b5f60405180830381858888f193505050503d805f81146107ff576040519150601f19603f3d011682016040523d82523d5f602084013e610804565b606091505b5050905080610848576040517f08c379a000000000000000000000000000000000000000000000000000000000815260040161083f906124e8565b60405180910390fd5b610850610c71565b73ffffffffffffffffffffffffffffffffffffffff167fa919fadcfa556a012bab31b15f596ea7ccd397adbf10e15f176db9055ab361c4836040516108959190611dc9565b60405180910390a2506108a66115b3565b50565b6108b161156d565b60035481146108f5576040517f08c379a00000000000000000000000000000000000000000000000000000000081526004016108ec90612550565b60405180910390fd5b5f60035411610939576040517f08c379a0000000000000000000000000000000000000000000000000000000008152600401610930906125b8565b60405180910390fd5b60095f8281526020019081526020015f205f3373ffffffffffffffffffffffffffffffffffffffff1673ffffffffffffffffffffffffffffffffffffffff1681526020019081526020015f205f9054906101000a900460ff16156109d2576040517f08c379a00000000000000000000000000000000000000000000000000000000081526004016109c990612646565b60405180910390fd5b600160095f8381526020019081526020015f205f3373ffffffffffffffffffffffffffffffffffffffff1673ffffffffffffffffffffffffffffffffffffffff1681526020019081526020015f205f6101000a81548160ff021916908315150217905550610a3e6115b3565b50565b610a496115bc565b610a5161156d565b5f8111610a93576040517f08c379a0000000000000000000000000000000000000000000000000000000008152600401610a8a906126ae565b60405180910390fd5b600180811115610aa657610aa561214a565b5b60085f9054906101000a900460ff166001811115610ac757610ac661214a565b5b14610b07576040517f08c379a0000000000000000000000000000000000000000000000000000000008152600401610afe9061273c565b60405180910390fd5b5f73ffffffffffffffffffffffffffffffffffffffff1660055f9054906101000a900473ffffffffffffffffffffffffffffffffffffffff1673ffffffffffffffffffffffffffffffffffffffff1603610b96576040517f08c379a0000000000000000000000000000000000000000000000000000000008152600401610b8d906127a4565b60405180910390fd5b610be433308360055f9054906101000a900473ffffffffffffffffffffffffffffffffffffffff1673ffffffffffffffffffffffffffffffffffffffff16611643909392919063ffffffff16565b8060065f828254610bf59190611d87565b925050819055503373ffffffffffffffffffffffffffffffffffffffff167f4708e702157b1eb6cd00a772e6a623599ac7dc0bad76e8c624fdef050b434f09826001604051610c459291906127c2565b60405180910390a2610c556115b3565b50565b610c606115bc565b610c695f6116c5565b565b60075481565b5f5f5f9054906101000a900473ffffffffffffffffffffffffffffffffffffffff16905090565b60045481565b6009602052815f5260405f20602052805f5260405f205f915091509054906101000a900460ff1681565b60065481565b5f60055f9054906101000a900473ffffffffffffffffffffffffffffffffffffffff16905090565b610cfe61156d565b5f3411610d40576040517f08c379a0000000000000000000000000000000000000000000000000000000008152600401610d3790612859565b60405180910390fd5b60095f60035481526020019081526020015f205f3373ffffffffffffffffffffffffffffffffffffffff1673ffffffffffffffffffffffffffffffffffffffff1681526020019081526020015f205f9054906101000a900460ff1615610ddb576040517f08c379a0000000000000000000000000000000000000000000000000000000008152600401610dd290612646565b60405180910390fd5b3460025f3373ffffffffffffffffffffffffffffffffffffffff1673ffffffffffffffffffffffffffffffffffffffff1681526020019081526020015f205f828254610e279190611d87565b92505081905550600160095f60035481526020019081526020015f205f3373ffffffffffffffffffffffffffffffffffffffff1673ffffffffffffffffffffffffffffffffffffffff1681526020019081526020015f205f6101000a81548160ff0219169083151502179055503373ffffffffffffffffffffffffffffffffffffffff167fe1fffcc4923d04b559f4d29a8bfc6cda04eb5b0d3c460751c2402c5c5cc9109c34604051610eda9190611dc9565b60405180910390a2610eea6115b3565b565b60055f9054906101000a900473ffffffffffffffffffffffffffffffffffffffff1681565b610f1961156d565b5f60035411610f5d576040517f08c379a0000000000000000000000000000000000000000000000000000000008152600401610f54906125b8565b60405180910390fd5b60095f60035481526020019081526020015f205f3373ffffffffffffffffffffffffffffffffffffffff1673ffffffffffffffffffffffffffffffffffffffff1681526020019081526020015f205f9054906101000a900460ff1615610ff8576040517f08c379a0000000000000000000000000000000000000000000000000000000008152600401610fef90612646565b60405180910390fd5b600a54828260405160200161100e9291906128b3565b6040516020818303038152906040528051906020012014611064576040517f08c379a000000000000000000000000000000000000000000000000000000000815260040161105b90612915565b60405180910390fd5b600160095f60035481526020019081526020015f205f3373ffffffffffffffffffffffffffffffffffffffff1673ffffffffffffffffffffffffffffffffffffffff1681526020019081526020015f205f6101000a81548160ff0219169083151502179055506110d633600754611786565b6110de6115b3565b5050565b6110ea6115bc565b5f851161112c576040517f08c379a00000000000000000000000000000000000000000000000000000000081526004016111239061297d565b60405180910390fd5b6003548511611170576040517f08c379a000000000000000000000000000000000000000000000000000000000815260040161116790612a0b565b60405180910390fd5b5f81116111b2576040517f08c379a00000000000000000000000000000000000000000000000000000000081526004016111a990612a99565b60405180910390fd5b6001808111156111c5576111c461214a565b5b8360018111156111d8576111d761214a565b5b03611391575f73ffffffffffffffffffffffffffffffffffffffff168273ffffffffffffffffffffffffffffffffffffffff160361124b576040517f08c379a000000000000000000000000000000000000000000000000000000000815260040161124290612b27565b60405180910390fd5b5f8273ffffffffffffffffffffffffffffffffffffffff163b116112a4576040517f08c379a000000000000000000000000000000000000000000000000000000000815260040161129b90612b8f565b60405180910390fd5b8173ffffffffffffffffffffffffffffffffffffffff166318160ddd6040518163ffffffff1660e01b8152600401602060405180830381865afa92505050801561130c57506040513d601f19601f820116820180604052508101906113099190612bc1565b60015b61134b576040517f08c379a000000000000000000000000000000000000000000000000000000000815260040161134290612c5c565b60405180910390fd5b508160055f6101000a81548173ffffffffffffffffffffffffffffffffffffffff021916908373ffffffffffffffffffffffffffffffffffffffff160217905550611440565b5f73ffffffffffffffffffffffffffffffffffffffff168273ffffffffffffffffffffffffffffffffffffffff16146113ff576040517f08c379a00000000000000000000000000000000000000000000000000000000081526004016113f690612cea565b60405180910390fd5b5f60055f6101000a81548173ffffffffffffffffffffffffffffffffffffffff021916908373ffffffffffffffffffffffffffffffffffffffff1602179055505b8460038190555083600a819055508260085f6101000a81548160ff021916908360018111156114725761147161214a565b5b0217905550806007819055505f6004819055505f600681905550847f561736c7b0f78dbf7fff40b2f20427c4c56eb12ae7e94a8dac6a3a7925ae37fd858585856040516114c29493929190612d17565b60405180910390a25050505050565b60035481565b6114df6115bc565b5f73ffffffffffffffffffffffffffffffffffffffff168173ffffffffffffffffffffffffffffffffffffffff160361154f575f6040517f1e4fbdf70000000000000000000000000000000000000000000000000000000081526004016115469190611ed3565b60405180910390fd5b611558816116c5565b50565b60085f9054906101000a900460ff1681565b6002600154036115a9576040517f3ee5aeb500000000000000000000000000000000000000000000000000000000815260040160405180910390fd5b6002600181905550565b60018081905550565b6115c4611b92565b73ffffffffffffffffffffffffffffffffffffffff166115e2610c71565b73ffffffffffffffffffffffffffffffffffffffff161461164157611605611b92565b6040517f118cdaa70000000000000000000000000000000000000000000000000000000081526004016116389190611ed3565b60405180910390fd5b565b6116bf848573ffffffffffffffffffffffffffffffffffffffff166323b872dd86868660405160240161167893929190612d5a565b604051602081830303815290604052915060e01b6020820180517bffffffffffffffffffffffffffffffffffffffffffffffffffffffff8381831617835250505050611b99565b50505050565b5f5f5f9054906101000a900473ffffffffffffffffffffffffffffffffffffffff169050815f5f6101000a81548173ffffffffffffffffffffffffffffffffffffffff021916908373ffffffffffffffffffffffffffffffffffffffff1602179055508173ffffffffffffffffffffffffffffffffffffffff168173ffffffffffffffffffffffffffffffffffffffff167f8be0079c531659141344cd1fd0a4f28419497f9722a3daafe3b4186f6b6457e060405160405180910390a35050565b5f73ffffffffffffffffffffffffffffffffffffffff168273ffffffffffffffffffffffffffffffffffffffff16036117f4576040517f08c379a00000000000000000000000000000000000000000000000000000000081526004016117eb90612dd9565b60405180910390fd5b5f8111611836576040517f08c379a000000000000000000000000000000000000000000000000000000000815260040161182d90612a99565b60405180910390fd5b5f60018111156118495761184861214a565b5b60085f9054906101000a900460ff16600181111561186a5761186961214a565b5b036119bd578060045410156118b4576040517f08c379a00000000000000000000000000000000000000000000000000000000081526004016118ab90612e67565b60405180910390fd5b804710156118f7576040517f08c379a00000000000000000000000000000000000000000000000000000000081526004016118ee90612ef5565b60405180910390fd5b8060045f82825461190891906122cc565b925050819055505f8273ffffffffffffffffffffffffffffffffffffffff16826040516119349061232c565b5f6040518083038185875af1925050503d805f811461196e576040519150601f19603f3d011682016040523d82523d5f602084013e611973565b606091505b50509050806119b7576040517f08c379a00000000000000000000000000000000000000000000000000000000081526004016119ae90612f5d565b60405180910390fd5b50611b30565b6001808111156119d0576119cf61214a565b5b60085f9054906101000a900460ff1660018111156119f1576119f061214a565b5b03611b2f575f73ffffffffffffffffffffffffffffffffffffffff1660055f9054906101000a900473ffffffffffffffffffffffffffffffffffffffff1673ffffffffffffffffffffffffffffffffffffffff1603611a85576040517f08c379a0000000000000000000000000000000000000000000000000000000008152600401611a7c906127a4565b60405180910390fd5b806006541015611aca576040517f08c379a0000000000000000000000000000000000000000000000000000000008152600401611ac190612feb565b60405180910390fd5b8060065f828254611adb91906122cc565b92505081905550611b2e828260055f9054906101000a900473ffffffffffffffffffffffffffffffffffffffff1673ffffffffffffffffffffffffffffffffffffffff16611c349092919063ffffffff16565b5b5b8173ffffffffffffffffffffffffffffffffffffffff167fff43c2705b2225c1c9d9d58f088ab64d4fc767737dee523bed37f15fb0c6c3de8260085f9054906101000a900460ff16604051611b869291906127c2565b60405180910390a25050565b5f33905090565b5f5f60205f8451602086015f885af180611bb8576040513d5f823e3d81fd5b3d92505f519150505f8214611bd1576001811415611bec565b5f8473ffffffffffffffffffffffffffffffffffffffff163b145b15611c2e57836040517f5274afe7000000000000000000000000000000000000000000000000000000008152600401611c259190611ed3565b60405180910390fd5b50505050565b611cae838473ffffffffffffffffffffffffffffffffffffffff1663a9059cbb8585604051602401611c67929190613009565b604051602081830303815290604052915060e01b6020820180517bffffffffffffffffffffffffffffffffffffffffffffffffffffffff8381831617835250505050611b99565b505050565b5f82825260208201905092915050565b7f45544820616d6f756e74206d7573742062652067726561746572207468616e205f8201527f7a65726f00000000000000000000000000000000000000000000000000000000602082015250565b5f611d1d602483611cb3565b9150611d2882611cc3565b604082019050919050565b5f6020820190508181035f830152611d4a81611d11565b9050919050565b5f819050919050565b7f4e487b71000000000000000000000000000000000000000000000000000000005f52601160045260245ffd5b5f611d9182611d51565b9150611d9c83611d51565b9250828201905080821115611db457611db3611d5a565b5b92915050565b611dc381611d51565b82525050565b5f602082019050611ddc5f830184611dba565b92915050565b5f5ffd5b5f5ffd5b5f73ffffffffffffffffffffffffffffffffffffffff82169050919050565b5f611e1382611dea565b9050919050565b611e2381611e09565b8114611e2d575f5ffd5b50565b5f81359050611e3e81611e1a565b92915050565b5f60208284031215611e5957611e58611de2565b5b5f611e6684828501611e30565b91505092915050565b611e7881611d51565b8114611e82575f5ffd5b50565b5f81359050611e9381611e6f565b92915050565b5f60208284031215611eae57611ead611de2565b5b5f611ebb84828501611e85565b91505092915050565b611ecd81611e09565b82525050565b5f602082019050611ee65f830184611ec4565b92915050565b5f5f60408385031215611f0257611f01611de2565b5b5f611f0f85828601611e85565b9250506020611f2085828601611e30565b9150509250929050565b5f8115159050919050565b611f3e81611f2a565b82525050565b5f602082019050611f575f830184611f35565b92915050565b5f819050919050565b5f611f80611f7b611f7684611dea565b611f5d565b611dea565b9050919050565b5f611f9182611f66565b9050919050565b5f611fa282611f87565b9050919050565b611fb281611f98565b82525050565b5f602082019050611fcb5f830184611fa9565b92915050565b5f5ffd5b5f5ffd5b5f5ffd5b5f5f83601f840112611ff257611ff1611fd1565b5b8235905067ffffffffffffffff81111561200f5761200e611fd5565b5b60208301915083600182028301111561202b5761202a611fd9565b5b9250929050565b5f5f6020838503121561204857612047611de2565b5b5f83013567ffffffffffffffff81111561206557612064611de6565b5b61207185828601611fdd565b92509250509250929050565b5f819050919050565b61208f8161207d565b8114612099575f5ffd5b50565b5f813590506120aa81612086565b92915050565b600281106120bc575f5ffd5b50565b5f813590506120cd816120b0565b92915050565b5f5f5f5f5f60a086880312156120ec576120eb611de2565b5b5f6120f988828901611e85565b955050602061210a8882890161209c565b945050604061211b888289016120bf565b935050606061212c88828901611e30565b925050608061213d88828901611e85565b9150509295509295909350565b7f4e487b71000000000000000000000000000000000000000000000000000000005f52602160045260245ffd5b600281106121885761218761214a565b5b50565b5f81905061219882612177565b919050565b5f6121a78261218b565b9050919050565b6121b78161219d565b82525050565b5f6020820190506121d05f8301846121ae565b92915050565b7f5769746864726177616c20616d6f756e74206d757374206265206772656174655f8201527f72207468616e207a65726f000000000000000000000000000000000000000000602082015250565b5f612230602b83611cb3565b915061223b826121d6565b604082019050919050565b5f6020820190508181035f83015261225d81612224565b9050919050565b7f496e73756666696369656e742062616c616e63650000000000000000000000005f82015250565b5f612298601483611cb3565b91506122a382612264565b602082019050919050565b5f6020820190508181035f8301526122c58161228c565b9050919050565b5f6122d682611d51565b91506122e183611d51565b92508282039050818111156122f9576122f8611d5a565b5b92915050565b5f81905092915050565b50565b5f6123175f836122ff565b915061232282612309565b5f82019050919050565b5f6123368261230c565b9150819050919050565b7f5769746864726177616c206661696c65640000000000000000000000000000005f82015250565b5f612374601183611cb3565b915061237f82612340565b602082019050919050565b5f6020820190508181035f8301526123a181612368565b9050919050565b7f4f776e6572207769746864726177616c20616d6f756e74206d757374206265205f8201527f67726561746572207468616e207a65726f000000000000000000000000000000602082015250565b5f612402603183611cb3565b915061240d826123a8565b604082019050919050565b5f6020820190508181035f83015261242f816123f6565b9050919050565b7f496e73756666696369656e7420636f6e74726163742062616c616e63650000005f82015250565b5f61246a601d83611cb3565b915061247582612436565b602082019050919050565b5f6020820190508181035f8301526124978161245e565b9050919050565b7f4f776e6572207769746864726177616c206661696c65640000000000000000005f82015250565b5f6124d2601783611cb3565b91506124dd8261249e565b602082019050919050565b5f6020820190508181035f8301526124ff816124c6565b9050919050565b7f4e6f74207468652061637469766520726964646c6520494400000000000000005f82015250565b5f61253a601883611cb3565b915061254582612506565b602082019050919050565b5f6020820190508181035f8301526125678161252e565b9050919050565b7f4e6f2061637469766520726964646c65000000000000000000000000000000005f82015250565b5f6125a2601083611cb3565b91506125ad8261256e565b602082019050919050565b5f6020820190508181035f8301526125cf81612596565b9050919050565b7f416c72656164792070617274696369706174656420696e2074686973207269645f8201527f646c650000000000000000000000000000000000000000000000000000000000602082015250565b5f612630602383611cb3565b915061263b826125d6565b604082019050919050565b5f6020820190508181035f83015261265d81612624565b9050919050565b7f416d6f756e74206d7573742062652067726561746572207468616e207a65726f5f82015250565b5f612698602083611cb3565b91506126a382612664565b602082019050919050565b5f6020820190508181035f8301526126c58161268c565b9050919050565b7f43757272656e7420726964646c65207072697a65206973206e6f7420455243325f8201527f3000000000000000000000000000000000000000000000000000000000000000602082015250565b5f612726602183611cb3565b9150612731826126cc565b604082019050919050565b5f6020820190508181035f8301526127538161271a565b9050919050565b7f5072697a6520746f6b656e206e6f7420736574000000000000000000000000005f82015250565b5f61278e601383611cb3565b91506127998261275a565b602082019050919050565b5f6020820190508181035f8301526127bb81612782565b9050919050565b5f6040820190506127d55f830185611dba565b6127e260208301846121ae565b9392505050565b7f4465706f73697420616d6f756e74206d757374206265206772656174657220745f8201527f68616e207a65726f000000000000000000000000000000000000000000000000602082015250565b5f612843602883611cb3565b915061284e826127e9565b604082019050919050565b5f6020820190508181035f83015261287081612837565b9050919050565b5f81905092915050565b828183375f83830152505050565b5f61289a8385612877565b93506128a7838584612881565b82840190509392505050565b5f6128bf82848661288f565b91508190509392505050565b7f496e636f727265637420616e73776572000000000000000000000000000000005f82015250565b5f6128ff601083611cb3565b915061290a826128cb565b602082019050919050565b5f6020820190508181035f83015261292c816128f3565b9050919050565b7f526964646c652049442063616e6e6f74206265207a65726f00000000000000005f82015250565b5f612967601883611cb3565b915061297282612933565b602082019050919050565b5f6020820190508181035f8301526129948161295b565b9050919050565b7f526964646c65204944206d7573742062652067726561746572207468616e20635f8201527f757272656e740000000000000000000000000000000000000000000000000000602082015250565b5f6129f5602683611cb3565b9150612a008261299b565b604082019050919050565b5f6020820190508181035f830152612a22816129e9565b9050919050565b7f5072697a6520616d6f756e74206d7573742062652067726561746572207468615f8201527f6e207a65726f0000000000000000000000000000000000000000000000000000602082015250565b5f612a83602683611cb3565b9150612a8e82612a29565b604082019050919050565b5f6020820190508181035f830152612ab081612a77565b9050919050565b7f5072697a6520746f6b656e20616464726573732063616e6e6f74206265207a655f8201527f726f20666f72204552433230207072697a650000000000000000000000000000602082015250565b5f612b11603283611cb3565b9150612b1c82612ab7565b604082019050919050565b5f6020820190508181035f830152612b3e81612b05565b9050919050565b7f5072697a6520746f6b656e20686173206e6f20636f6e747261637420636f64655f82015250565b5f612b79602083611cb3565b9150612b8482612b45565b602082019050919050565b5f6020820190508181035f830152612ba681612b6d565b9050919050565b5f81519050612bbb81611e6f565b92915050565b5f60208284031215612bd657612bd5611de2565b5b5f612be384828501612bad565b91505092915050565b7f496e76616c6964204552432d323020746f6b656e3a20746f74616c537570706c5f8201527f792063616c6c206661696c656400000000000000000000000000000000000000602082015250565b5f612c46602d83611cb3565b9150612c5182612bec565b604082019050919050565b5f6020820190508181035f830152612c7381612c3a565b9050919050565b7f5072697a6520746f6b656e2061646472657373206d757374206265207a65726f5f8201527f20666f7220455448207072697a65000000000000000000000000000000000000602082015250565b5f612cd4602e83611cb3565b9150612cdf82612c7a565b604082019050919050565b5f6020820190508181035f830152612d0181612cc8565b9050919050565b612d118161207d565b82525050565b5f608082019050612d2a5f830187612d08565b612d3760208301866121ae565b612d446040830185611ec4565b612d516060830184611dba565b95945050505050565b5f606082019050612d6d5f830186611ec4565b612d7a6020830185611ec4565b612d876040830184611dba565b949350505050565b7f57696e6e657220616464726573732063616e6e6f74206265207a65726f0000005f82015250565b5f612dc3601d83611cb3565b9150612dce82612d8f565b602082019050919050565b5f6020820190508181035f830152612df081612db7565b9050919050565b7f496e73756666696369656e7420455448207072697a6520706f6f6c2062616c615f8201527f6e63650000000000000000000000000000000000000000000000000000000000602082015250565b5f612e51602383611cb3565b9150612e5c82612df7565b604082019050919050565b5f6020820190508181035f830152612e7e81612e45565b9050919050565b7f496e73756666696369656e7420636f6e7472616374204554482062616c616e635f8201527f6500000000000000000000000000000000000000000000000000000000000000602082015250565b5f612edf602183611cb3565b9150612eea82612e85565b604082019050919050565b5f6020820190508181035f830152612f0c81612ed3565b9050919050565b7f455448207472616e73666572206661696c6564000000000000000000000000005f82015250565b5f612f47601383611cb3565b9150612f5282612f13565b602082019050919050565b5f6020820190508181035f830152612f7481612f3b565b9050919050565b7f496e73756666696369656e74204552433230207072697a6520706f6f6c2062615f8201527f6c616e6365000000000000000000000000000000000000000000000000000000602082015250565b5f612fd5602583611cb3565b9150612fe082612f7b565b604082019050919050565b5f6020820190508181035f83015261300281612fc9565b9050919050565b5f60408201905061301c5f830185611ec4565b6130296020830184611dba565b939250505056fea2646970667358221220ffbd8e75989b4b8740c887311efe0c262abcbe8ec21d95fc19df054b70b3502a64736f6c634300081e0033","linkReferences":{}},"methodIdentifiers":{"balances(address)":"27e235e3","currentRiddleId()":"ecdc6c23","deposit()":"d0e30db0","enterGame(uint256)":"43d6582b","ethPrizePool()":"95664a3d","fundTokenPrizePool(uint256)":"48b06e87","getPrizeToken()":"c7cd6959","hasParticipated(uint256,address)":"a34398a2","owner()":"8da5cb5b","ownerWithdraw(uint256)":"33f707d1","prizeAmount()":"785fa627","prizeToken()":"d0ef024a","prizeType()":"fcdf8e89","renounceOwnership()":"715018a6","setRiddle(uint256,bytes32,uint8,address,uint256)":"ec8a7ee7","solveRiddleAndClaim(string)":"dc663b53","tokenPrizePool()":"c310e242","transferOwnership(address)":"f2fde38b","withdraw(uint256)":"2e1a7d4d"},"id":1}