{"abi":[{"type":"constructor","inputs":[{"name":"initialOwner","type":"address","internalType":"address"},{"name":"_retryTokenAddress","type":"address","internalType":"address"}],"stateMutability":"nonpayable"},{"type":"receive","stateMutability":"payable"},{"type":"function","name":"ENTRY_FEE","inputs":[],"outputs":[{"name":"","type":"uint256","internalType":"uint256"}],"stateMutability":"view"},{"type":"function","name":"MAX_RETRIES","inputs":[],"outputs":[{"name":"","type":"uint256","internalType":"uint256"}],"stateMutability":"view"},{"type":"function","name":"RETRY_COST","inputs":[],"outputs":[{"name":"","type":"uint256","internalType":"uint256"}],"stateMutability":"view"},{"type":"function","name":"balances","inputs":[{"name":"","type":"address","internalType":"address"}],"outputs":[{"name":"","type":"uint256","internalType":"uint256"}],"stateMutability":"view"},{"type":"function","name":"committedAt","inputs":[{"name":"","type":"uint256","internalType":"uint256"},{"name":"","type":"address","internalType":"address"}],"outputs":[{"name":"","type":"uint256","internalType":"uint256"}],"stateMutability":"view"},{"type":"function","name":"committedGuesses","inputs":[{"name":"","type":"uint256","internalType":"uint256"},{"name":"","type":"address","internalType":"address"}],"outputs":[{"name":"","type":"bytes32","internalType":"bytes32"}],"stateMutability":"view"},{"type":"function","name":"currentRiddleId","inputs":[],"outputs":[{"name":"","type":"uint256","internalType":"uint256"}],"stateMutability":"view"},{"type":"function","name":"deposit","inputs":[],"outputs":[],"stateMutability":"payable"},{"type":"function","name":"enterGame","inputs":[{"name":"_riddleId","type":"uint256","internalType":"uint256"}],"outputs":[],"stateMutability":"nonpayable"},{"type":"function","name":"entryFeeToken","inputs":[],"outputs":[{"name":"","type":"address","internalType":"contract IERC20"}],"stateMutability":"view"},{"type":"function","name":"ethPrizePool","inputs":[],"outputs":[{"name":"","type":"uint256","internalType":"uint256"}],"stateMutability":"view"},{"type":"function","name":"fundTokenPrizePool","inputs":[{"name":"_amount","type":"uint256","internalType":"uint256"}],"outputs":[],"stateMutability":"nonpayable"},{"type":"function","name":"getCurrentPrizePool","inputs":[],"outputs":[{"name":"","type":"uint256","internalType":"uint256"}],"stateMutability":"view"},{"type":"function","name":"getPrizeToken","inputs":[],"outputs":[{"name":"","type":"address","internalType":"address"}],"stateMutability":"view"},{"type":"function","name":"getRetryCount","inputs":[{"name":"player","type":"address","internalType":"address"}],"outputs":[{"name":"","type":"uint256","internalType":"uint256"}],"stateMutability":"view"},{"type":"function","name":"getWinnerList","inputs":[{"name":"_riddleId","type":"uint256","internalType":"uint256"}],"outputs":[{"name":"","type":"address[]","internalType":"address[]"}],"stateMutability":"view"},{"type":"function","name":"hasClaimed","inputs":[{"name":"","type":"uint256","internalType":"uint256"},{"name":"","type":"address","internalType":"address"}],"outputs":[{"name":"","type":"bool","internalType":"bool"}],"stateMutability":"view"},{"type":"function","name":"hasParticipated","inputs":[{"name":"","type":"uint256","internalType":"uint256"},{"name":"","type":"address","internalType":"address"}],"outputs":[{"name":"","type":"bool","internalType":"bool"}],"stateMutability":"view"},{"type":"function","name":"hasPlayerEntered","inputs":[{"name":"player","type":"address","internalType":"address"}],"outputs":[{"name":"","type":"bool","internalType":"bool"}],"stateMutability":"view"},{"type":"function","name":"hasReceivedRemainder","inputs":[{"name":"","type":"uint256","internalType":"uint256"},{"name":"","type":"address","internalType":"address"}],"outputs":[{"name":"","type":"bool","internalType":"bool"}],"stateMutability":"view"},{"type":"function","name":"hasRevealed","inputs":[{"name":"","type":"uint256","internalType":"uint256"},{"name":"","type":"address","internalType":"address"}],"outputs":[{"name":"","type":"bool","internalType":"bool"}],"stateMutability":"view"},{"type":"function","name":"isPaidOut","inputs":[{"name":"","type":"uint256","internalType":"uint256"}],"outputs":[{"name":"","type":"bool","internalType":"bool"}],"stateMutability":"view"},{"type":"function","name":"isWinner","inputs":[{"name":"","type":"uint256","internalType":"uint256"},{"name":"","type":"address","internalType":"address"}],"outputs":[{"name":"","type":"bool","internalType":"bool"}],"stateMutability":"view"},{"type":"function","name":"owner","inputs":[],"outputs":[{"name":"","type":"address","internalType":"address"}],"stateMutability":"view"},{"type":"function","name":"ownerWithdraw","inputs":[{"name":"_amount","type":"uint256","internalType":"uint256"}],"outputs":[],"stateMutability":"nonpayable"},{"type":"function","name":"ownerWithdrawTokens","inputs":[{"name":"_amount","type":"uint256","internalType":"uint256"}],"outputs":[],"stateMutability":"nonpayable"},{"type":"function","name":"paidWinnersCount","inputs":[{"name":"","type":"uint256","internalType":"uint256"}],"outputs":[{"name":"","type":"uint256","internalType":"uint256"}],"stateMutability":"view"},{"type":"function","name":"payout","inputs":[{"name":"_riddleId","type":"uint256","internalType":"uint256"},{"name":"_winnersBatch","type":"address[]","internalType":"address[]"}],"outputs":[],"stateMutability":"nonpayable"},{"type":"function","name":"purchaseRetry","inputs":[{"name":"_riddleId","type":"uint256","internalType":"uint256"}],"outputs":[],"stateMutability":"nonpayable"},{"type":"function","name":"renounceOwnership","inputs":[],"outputs":[],"stateMutability":"nonpayable"},{"type":"function","name":"retries","inputs":[{"name":"","type":"address","internalType":"address"}],"outputs":[{"name":"","type":"uint256","internalType":"uint256"}],"stateMutability":"view"},{"type":"function","name":"retryToken","inputs":[],"outputs":[{"name":"","type":"address","internalType":"contract IERC20"}],"stateMutability":"view"},{"type":"function","name":"revealDelay","inputs":[],"outputs":[{"name":"","type":"uint256","internalType":"uint256"}],"stateMutability":"view"},{"type":"function","name":"revealGuess","inputs":[{"name":"_riddleId","type":"uint256","internalType":"uint256"},{"name":"_guess","type":"string","internalType":"string"}],"outputs":[],"stateMutability":"nonpayable"},{"type":"function","name":"revealedGuessHash","inputs":[{"name":"","type":"uint256","internalType":"uint256"},{"name":"","type":"address","internalType":"address"}],"outputs":[{"name":"","type":"bytes32","internalType":"bytes32"}],"stateMutability":"view"},{"type":"function","name":"riddleConfigs","inputs":[{"name":"","type":"uint256","internalType":"uint256"}],"outputs":[{"name":"prizeAmount","type":"uint256","internalType":"uint256"},{"name":"prizeType","type":"uint8","internalType":"enum Vaultis.PrizeType"},{"name":"prizeToken","type":"address","internalType":"contract IERC20"}],"stateMutability":"view"},{"type":"function","name":"setRevealDelay","inputs":[{"name":"_newRevealDelay","type":"uint256","internalType":"uint256"}],"outputs":[],"stateMutability":"nonpayable"},{"type":"function","name":"setRiddle","inputs":[{"name":"_riddleId","type":"uint256","internalType":"uint256"},{"name":"_answerHash","type":"bytes32","internalType":"bytes32"},{"name":"_prizeType","type":"uint8","internalType":"enum Vaultis.PrizeType"},{"name":"_prizeTokenAddress","type":"address","internalType":"address"},{"name":"_prizeAmount","type":"uint256","internalType":"uint256"},{"name":"_entryFeeTokenAddress","type":"address","internalType":"address"}],"outputs":[],"stateMutability":"nonpayable"},{"type":"function","name":"solveRiddleAndClaim","inputs":[{"name":"_answer","type":"string","internalType":"string"}],"outputs":[],"stateMutability":"nonpayable"},{"type":"function","name":"submitGuess","inputs":[{"name":"_riddleId","type":"uint256","internalType":"uint256"},{"name":"_guessHash","type":"bytes32","internalType":"bytes32"}],"outputs":[],"stateMutability":"nonpayable"},{"type":"function","name":"tokenPrizePool","inputs":[],"outputs":[{"name":"","type":"uint256","internalType":"uint256"}],"stateMutability":"view"},{"type":"function","name":"totalPrizeDistributed","inputs":[{"name":"","type":"uint256","internalType":"uint256"}],"outputs":[{"name":"","type":"uint256","internalType":"uint256"}],"stateMutability":"view"},{"type":"function","name":"totalWinnersCount","inputs":[{"name":"","type":"uint256","internalType":"uint256"}],"outputs":[{"name":"","type":"uint256","internalType":"uint256"}],"stateMutability":"view"},{"type":"function","name":"transferOwnership","inputs":[{"name":"newOwner","type":"address","internalType":"address"}],"outputs":[],"stateMutability":"nonpayable"},{"type":"function","name":"winners","inputs":[{"name":"","type":"uint256","internalType":"uint256"},{"name":"","type":"uint256","internalType":"uint256"}],"outputs":[{"name":"","type":"address","internalType":"address"}],"stateMutability":"view"},{"type":"function","name":"withdraw","inputs":[{"name":"_amount","type":"uint256","internalType":"uint256"}],"outputs":[],"stateMutability":"nonpayable"},{"type":"event","name":"Deposit","inputs":[{"name":"user","type":"address","indexed":true,"internalType":"address"},{"name":"amount","type":"uint256","indexed":false,"internalType":"uint256"}],"anonymous":false},{"type":"event","name":"EntryFeeCollected","inputs":[{"name":"player","type":"address","indexed":true,"internalType":"address"},{"name":"token","type":"address","indexed":true,"internalType":"address"},{"name":"amount","type":"uint256","indexed":false,"internalType":"uint256"},{"name":"riddleId","type":"uint256","indexed":true,"internalType":"uint256"}],"anonymous":false},{"type":"event","name":"EthReceived","inputs":[{"name":"sender","type":"address","indexed":true,"internalType":"address"},{"name":"amount","type":"uint256","indexed":false,"internalType":"uint256"}],"anonymous":false},{"type":"event","name":"GuessEvaluated","inputs":[{"name":"riddleId","type":"uint256","indexed":true,"internalType":"uint256"},{"name":"player","type":"address","indexed":true,"internalType":"address"},{"name":"timestamp","type":"uint256","indexed":false,"internalType":"uint256"},{"name":"isWinner","type":"bool","indexed":false,"internalType":"bool"}],"anonymous":false},{"type":"event","name":"GuessRevealed","inputs":[{"name":"player","type":"address","indexed":true,"internalType":"address"},{"name":"riddleId","type":"uint256","indexed":true,"internalType":"uint256"},{"name":"revealedHash","type":"bytes32","indexed":false,"internalType":"bytes32"}],"anonymous":false},{"type":"event","name":"GuessSubmitted","inputs":[{"name":"player","type":"address","indexed":true,"internalType":"address"},{"name":"riddleId","type":"uint256","indexed":true,"internalType":"uint256"},{"name":"guessHash","type":"bytes32","indexed":false,"internalType":"bytes32"}],"anonymous":false},{"type":"event","name":"OwnerWithdrawTokens","inputs":[{"name":"amount","type":"uint256","indexed":false,"internalType":"uint256"}],"anonymous":false},{"type":"event","name":"OwnerWithdrawal","inputs":[{"name":"owner","type":"address","indexed":true,"internalType":"address"},{"name":"amount","type":"uint256","indexed":false,"internalType":"uint256"}],"anonymous":false},{"type":"event","name":"OwnershipTransferred","inputs":[{"name":"previousOwner","type":"address","indexed":true,"internalType":"address"},{"name":"newOwner","type":"address","indexed":true,"internalType":"address"}],"anonymous":false},{"type":"event","name":"PayoutExecuted","inputs":[{"name":"riddleId","type":"uint256","indexed":true,"internalType":"uint256"},{"name":"winners","type":"address[]","indexed":false,"internalType":"address[]"},{"name":"totalAmount","type":"uint256","indexed":false,"internalType":"uint256"}],"anonymous":false},{"type":"event","name":"PlayerEntered","inputs":[{"name":"player","type":"address","indexed":true,"internalType":"address"},{"name":"riddleId","type":"uint256","indexed":true,"internalType":"uint256"}],"anonymous":false},{"type":"event","name":"PrizeDistributed","inputs":[{"name":"winner","type":"address","indexed":true,"internalType":"address"},{"name":"amount","type":"uint256","indexed":false,"internalType":"uint256"},{"name":"prizeType","type":"uint8","indexed":false,"internalType":"enum Vaultis.PrizeType"}],"anonymous":false},{"type":"event","name":"PrizeFunded","inputs":[{"name":"funder","type":"address","indexed":true,"internalType":"address"},{"name":"amount","type":"uint256","indexed":false,"internalType":"uint256"},{"name":"prizeType","type":"uint8","indexed":false,"internalType":"enum Vaultis.PrizeType"}],"anonymous":false},{"type":"event","name":"RetryPurchased","inputs":[{"name":"player","type":"address","indexed":true,"internalType":"address"},{"name":"riddleId","type":"uint256","indexed":true,"internalType":"uint256"},{"name":"cost","type":"uint256","indexed":false,"internalType":"uint256"},{"name":"newRetryCount","type":"uint256","indexed":false,"internalType":"uint256"}],"anonymous":false},{"type":"event","name":"RiddleInitialized","inputs":[{"name":"riddleId","type":"uint256","indexed":true,"internalType":"uint256"},{"name":"answerHash","type":"bytes32","indexed":false,"internalType":"bytes32"},{"name":"prizeType","type":"uint8","indexed":false,"internalType":"uint8"},{"name":"prizeTokenAddress","type":"address","indexed":false,"internalType":"address"},{"name":"prizeAmount","type":"uint256","indexed":false,"internalType":"uint256"},{"name":"entryFeeTokenAddress","type":"address","indexed":false,"internalType":"address"}],"anonymous":false},{"type":"event","name":"WinnerFound","inputs":[{"name":"winner","type":"address","indexed":true,"internalType":"address"},{"name":"riddleId","type":"uint256","indexed":true,"internalType":"uint256"}],"anonymous":false},{"type":"event","name":"Withdrawal","inputs":[{"name":"user","type":"address","indexed":true,"internalType":"address"},{"name":"amount","type":"uint256","indexed":false,"internalType":"uint256"}],"anonymous":false},{"type":"error","name":"OwnableInvalidOwner","inputs":[{"name":"owner","type":"address","internalType":"address"}]},{"type":"error","name":"OwnableUnauthorizedAccount","inputs":[{"name":"account","type":"address","internalType":"address"}]},{"type":"error","name":"ReentrancyGuardReentrantCall","inputs":[]},{"type":"error","name":"SafeERC20FailedOperation","inputs":[{"name":"token","type":"address","internalType":"address"}]}],"bytecode":{"object":"0x608060405234801561000f575f5ffd5b50604051613f4b380380613f4b83398101604081905261002e91610294565b816001600160a01b03811661005d57604051631e4fbdf760e01b81525f60048201526024015b60405180910390fd5b6100668161022a565b50600180556001600160a01b0381166100cc5760405162461bcd60e51b815260206004820152602260248201527f526574727920746f6b656e20616464726573732063616e6e6f74206265207a65604482015261726f60f01b6064820152608401610054565b5f816001600160a01b03163b116101255760405162461bcd60e51b815260206004820181905260248201527f526574727920746f6b656e20686173206e6f20636f6e747261637420636f64656044820152606401610054565b806001600160a01b03166318160ddd6040518163ffffffff1660e01b8152600401602060405180830381865afa92505050801561017f575060408051601f3d908101601f1916820190925261017c918101906102c5565b60015b6101f15760405162461bcd60e51b815260206004820152603760248201527f496e76616c6964204552432d323020746f6b656e20666f722072657472793a2060448201527f746f74616c537570706c792063616c6c206661696c65640000000000000000006064820152608401610054565b50600680546001600160a01b0319908116909155610e10601155600880549091166001600160a01b0392909216919091179055506102dc565b5f80546001600160a01b038381166001600160a01b0319831681178455604051919092169283917f8be0079c531659141344cd1fd0a4f28419497f9722a3daafe3b4186f6b6457e09190a35050565b80516001600160a01b038116811461028f575f5ffd5b919050565b5f5f604083850312156102a5575f5ffd5b6102ae83610279565b91506102bc60208401610279565b90509250929050565b5f602082840312156102d5575f5ffd5b5051919050565b613c62806102e95f395ff3fe60806040526004361061020f575f3560e01c80630b0705c8146102c55780630efc8865146102fa57806312b5afc11461032657806316b5551d14610347578063188240cd14610390578063219fc385146103d457806327e235e3146103f35780632e1a7d4d1461041e57806333f707d11461043d57806343d6582b1461045c57806346ebbdb01461047b57806348b06e871461048f57806353236d74146104ae57806355e93ede146104c3578063569eaf61146104d757806357aa0ea2146105055780636097212014610520578063680719bb1461053f578063715018a6146105845780637a11e941146105985780637b149763146105b7578063873f6f9e146105d65780638da5cb5b1461060f57806394c9d9bc1461062357806395664a3d1461065c57806398e1854914610671578063a34398a2146106a5578063a68c25d8146106de578063a6dbce24146106fd578063b7173e7714610751578063bdd415af14610787578063c06a5fc5146107c0578063c310e242146107f6578063c7cd69591461080b578063c8e728f91461083e578063d0e30db01461085d578063d56c52ed14610865578063dbbd324514610890578063dc663b53146108bb578063e4d33ee3146108da578063ecdc6c23146108f9578063f2fde38b1461090e578063f6d361cc1461092d578063f7c7e14414610948578063f9f82e9c14610973578063fab1601714610992575f5ffd5b366102c1575f34116102745760405162461bcd60e51b8152602060048201526024808201527f45544820616d6f756e74206d7573742062652067726561746572207468616e206044820152637a65726f60e01b60648201526084015b60405180910390fd5b3460045f82825461028591906135b5565b909155505060405134815233907f85177f287940f2f05425a4029951af0e047a7f9c4eaa9a6e6917bcd869f866959060200160405180910390a2005b5f5ffd5b3480156102d0575f5ffd5b506102e46102df3660046135ce565b6109bd565b6040516102f19190613628565b60405180910390f35b348015610305575f5ffd5b50610319610314366004613641565b610a26565b6040516102f19190613661565b348015610331575f5ffd5b506103456103403660046136b9565b610a5a565b005b348015610352575f5ffd5b50610380610361366004613770565b601060209081525f928352604080842090915290825290205460ff1681565b60405190151581526020016102f1565b34801561039b575f5ffd5b506103c66103aa366004613770565b600f60209081525f928352604080842090915290825290205481565b6040519081526020016102f1565b3480156103df575f5ffd5b50600854610319906001600160a01b031681565b3480156103fe575f5ffd5b506103c661040d36600461379a565b60026020525f908152604090205481565b348015610429575f5ffd5b506103456104383660046135ce565b610d2c565b348015610448575f5ffd5b506103456104573660046135ce565b610edb565b348015610467575f5ffd5b506103456104763660046135ce565b6110a3565b348015610486575f5ffd5b506103c6600381565b34801561049a575f5ffd5b506103456104a93660046135ce565b6113f8565b3480156104b9575f5ffd5b506103c660115481565b3480156104ce575f5ffd5b506103c6611570565b3480156104e2575f5ffd5b506103806104f13660046135ce565b60176020525f908152604090205460ff1681565b348015610510575f5ffd5b506103c667016345785d8a000081565b34801561052b575f5ffd5b5061034561053a3660046135ce565b6115d4565b34801561054a575f5ffd5b5061038061055936600461379a565b6003545f9081526009602090815260408083206001600160a01b039094168352929052205460ff1690565b34801561058f575f5ffd5b5061034561175d565b3480156105a3575f5ffd5b506103456105b23660046135ce565b611770565b3480156105c2575f5ffd5b50600654610319906001600160a01b031681565b3480156105e1575f5ffd5b506103806105f0366004613770565b600a60209081525f928352604080842090915290825290205460ff1681565b34801561061a575f5ffd5b50610319611ad7565b34801561062e575f5ffd5b5061038061063d366004613770565b601660209081525f928352604080842090915290825290205460ff1681565b348015610667575f5ffd5b506103c660045481565b34801561067c575f5ffd5b506103c661068b36600461379a565b6001600160a01b03165f908152600b602052604090205490565b3480156106b0575f5ffd5b506103806106bf366004613770565b600960209081525f928352604080842090915290825290205460ff1681565b3480156106e9575f5ffd5b506103456106f83660046135ce565b611ae5565b348015610708575f5ffd5b506107426107173660046135ce565b60076020525f90815260409020805460019091015460ff81169061010090046001600160a01b031683565b6040516102f1939291906137e7565b34801561075c575f5ffd5b506103c661076b366004613770565b600d60209081525f928352604080842090915290825290205481565b348015610792575f5ffd5b506103806107a1366004613770565b601460209081525f928352604080842090915290825290205460ff1681565b3480156107cb575f5ffd5b506103c66107da366004613770565b600e60209081525f928352604080842090915290825290205481565b348015610801575f5ffd5b506103c660055481565b348015610816575f5ffd5b506003545f9081526007602052604090206001015461010090046001600160a01b0316610319565b348015610849575f5ffd5b50610345610858366004613814565b611af2565b6103456122e0565b348015610870575f5ffd5b506103c661087f3660046135ce565b60156020525f908152604090205481565b34801561089b575f5ffd5b506103c66108aa36600461379a565b600b6020525f908152604090205481565b3480156108c6575f5ffd5b506103456108d53660046138cd565b6123a9565b3480156108e5575f5ffd5b506103456108f4366004613641565b61269f565b348015610904575f5ffd5b506103c660035481565b348015610919575f5ffd5b5061034561092836600461379a565b612a4c565b348015610938575f5ffd5b506103c6670de0b6b3a764000081565b348015610953575f5ffd5b506103c66109623660046135ce565b60196020525f908152604090205481565b34801561097e575f5ffd5b5061034561098d366004613939565b612a86565b34801561099d575f5ffd5b506103c66109ac3660046135ce565b60186020525f908152604090205481565b5f81815260136020908152604091829020805483518184028101840190945280845260609392830182828015610a1a57602002820191905f5260205f20905b81546001600160a01b031681526001909101906020018083116109fc575b50505050509050919050565b6013602052815f5260405f208181548110610a3f575f80fd5b5f918252602090912001546001600160a01b03169150829050565b610a6261310e565b5f8211610a815760405162461bcd60e51b815260040161026b90613999565b6003548214610aa25760405162461bcd60e51b815260040161026b906139cb565b5f82815260096020908152604080832033845290915290205460ff16610ada5760405162461bcd60e51b815260040161026b906139fd565b5f828152600d60209081526040808320338452909152902054610b345760405162461bcd60e51b81526020600482015260126024820152714e6f20636f6d6d697474656420677565737360701b604482015260640161026b565b5f82815260106020908152604080832033845290915290205460ff1615610b905760405162461bcd60e51b815260206004820152601060248201526f105b1c9958591e481c995d99585b195960821b604482015260640161026b565b6011545f838152600e60209081526040808320338452909152902054610bb691906135b5565b421015610bf85760405162461bcd60e51b815260206004820152601060248201526f52657665616c20746f6f206561726c7960801b604482015260640161026b565b5f81604051602001610c0a9190613a30565b60408051601f1981840301815291815281516020928301205f868152600d84528281203382529093529120549091508114610c865760405162461bcd60e51b815260206004820152601c60248201527b14995d99585b08191bd95cc81b9bdd081b585d18da0818dbdb5b5a5d60221b604482015260640161026b565b5f838152600f6020908152604080832033808552908352818420859055868452601083528184208185528352818420805460ff19166001179055868452600d83528184208185528352818420849055868452600e8352818420818552835281842093909355518381528592917f59d3b853b3060eb254d2f04ecf2d2fba8ec34ae94835cd01eedead529314f52491015b60405180910390a350610d2860018055565b5050565b610d3461310e565b5f8111610d975760405162461bcd60e51b815260206004820152602b60248201527f5769746864726177616c20616d6f756e74206d7573742062652067726561746560448201526a72207468616e207a65726f60a81b606482015260840161026b565b335f90815260026020526040902054811115610dec5760405162461bcd60e51b8152602060048201526014602482015273496e73756666696369656e742062616c616e636560601b604482015260640161026b565b335f9081526002602052604081208054839290610e0a908490613a46565b90915550506040515f90339083908381818185875af1925050503d805f8114610e4e576040519150601f19603f3d011682016040523d82523d5f602084013e610e53565b606091505b5050905080610e985760405162461bcd60e51b815260206004820152601160248201527015da5d1a191c985dd85b0819985a5b1959607a1b604482015260640161026b565b60405182815233907f7fcf532c15f0a6db0bd6d0e038bea71d30d808c7d98cb3bf7268a95bf5081b65906020015b60405180910390a250610ed860018055565b50565b610ee3613138565b610eeb61310e565b5f8111610f545760405162461bcd60e51b815260206004820152603160248201527f4f776e6572207769746864726177616c20616d6f756e74206d7573742062652060448201527067726561746572207468616e207a65726f60781b606482015260840161026b565b806004541015610fa45760405162461bcd60e51b815260206004820152601b60248201527a125b9cdd59999a58da595b9d08115512081c1c9a5e99481c1bdbdb602a1b604482015260640161026b565b8060045f828254610fb59190613a46565b909155505f9050610fc4611ad7565b6001600160a01b03168262030d40906040515f60405180830381858888f193505050503d805f8114611011576040519150601f19603f3d011682016040523d82523d5f602084013e611016565b606091505b50509050806110615760405162461bcd60e51b815260206004820152601760248201527613dddb995c881dda5d1a191c985dd85b0819985a5b1959604a1b604482015260640161026b565b611069611ad7565b6001600160a01b03167fa919fadcfa556a012bab31b15f596ea7ccd397adbf10e15f176db9055ab361c483604051610ec691815260200190565b6110ab61310e565b5f81815260096020908152604080832033845290915290205460ff16156111205760405162461bcd60e51b815260206004820152602360248201527f416c72656164792070617274696369706174656420696e207468697320726964604482015262646c6560e81b606482015260840161026b565b60035481146111415760405162461bcd60e51b815260040161026b906139cb565b5f600354116111625760405162461bcd60e51b815260040161026b90613a59565b335f908152600c6020526040902054811461119657335f908152600b60209081526040808320839055600c90915290208190555b6006546001600160a01b0316806111e95760405162461bcd60e51b8152602060048201526017602482015276115b9d1c9e48199959481d1bdad95b881b9bdd081cd95d604a1b604482015260640161026b565b6040516370a0823160e01b81525f906001600160a01b038316906370a0823190611217903090600401613661565b602060405180830381865afa158015611232573d5f5f3e3d5ffd5b505050506040513d601f19601f820116820180604052508101906112569190613a83565b90506112756001600160a01b0383163330670de0b6b3a764000061316a565b5f81836001600160a01b03166370a08231306040518263ffffffff1660e01b81526004016112a39190613661565b602060405180830381865afa1580156112be573d5f5f3e3d5ffd5b505050506040513d601f19601f820116820180604052508101906112e29190613a83565b6112ec9190613a46565b9050670de0b6b3a764000081146113545760405162461bcd60e51b815260206004820152602660248201527f456e74727920666565206d69736d617463682028464f54206e6f7420737570706044820152656f727465642960d01b606482015260840161026b565b83836001600160a01b0316336001600160a01b03167f1f8e0e31739d887c754fcf7403fe1bdf6641ef33578b9d08631a7d5e6e9b8fb78460405161139a91815260200190565b60405180910390a45050505f818152600960209081526040808320338085529252808320805460ff191660011790555183927fc16481c9484122696a660b57df0bf6839645c6b620cb1704ac2437de13be922591a3610ed860018055565b611400613138565b61140861310e565b5f81116114575760405162461bcd60e51b815260206004820181905260248201527f416d6f756e74206d7573742062652067726561746572207468616e207a65726f604482015260640161026b565b6003545f90815260076020526040902060018082015460ff1681811115611480576114806137b3565b146114d75760405162461bcd60e51b815260206004820152602160248201527f43757272656e7420726964646c65207072697a65206973206e6f7420455243326044820152600360fc1b606482015260840161026b565b600181015461010090046001600160a01b03166115065760405162461bcd60e51b815260040161026b90613a9a565b60018101546115259061010090046001600160a01b031633308561316a565b8160055f82825461153691906135b5565b909155505060405133907f4708e702157b1eb6cd00a772e6a623599ac7dc0bad76e8c624fdef050b434f0990610ec6908590600190613ac7565b6003545f9081526007602052604081208160018083015460ff169081111561159a5761159a6137b3565b036115a757505060045490565b60018181015460ff16818111156115c0576115c06137b3565b036115cd57505060055490565b5f91505090565b6115dc613138565b6115e461310e565b5f81116116535760405162461bcd60e51b815260206004820152603760248201527f4f776e657220746f6b656e207769746864726177616c20616d6f756e74206d7560448201527673742062652067726561746572207468616e207a65726f60481b606482015260840161026b565b8060055410156116a55760405162461bcd60e51b815260206004820152601d60248201527f496e73756666696369656e7420746f6b656e207072697a6520706f6f6c000000604482015260640161026b565b6003545f908152600760205260409020600181015461010090046001600160a01b03166116e45760405162461bcd60e51b815260040161026b90613a9a565b8160055f8282546116f59190613a46565b909155506117209050611706611ad7565b600183015461010090046001600160a01b031690846131d7565b6040518281527f560c2b6d9212838c63f631c64ebc9d7364da90f9af3fdec847c0725dd18330c89060200160405180910390a150610ed860018055565b611765613138565b61176e5f61320d565b565b61177861310e565b60035481146117995760405162461bcd60e51b815260040161026b906139cb565b5f81815260096020908152604080832033845290915290205460ff1661180d5760405162461bcd60e51b8152602060048201526024808201527f4d75737420706172746963697061746520696e2074686520726964646c6520666044820152631a5c9cdd60e21b606482015260840161026b565b6008546001600160a01b031661185b5760405162461bcd60e51b815260206004820152601360248201527214995d1c9e481d1bdad95b881b9bdd081cd95d606a1b604482015260640161026b565b335f908152600b60205260409020546003116118af5760405162461bcd60e51b815260206004820152601360248201527213585e081c995d1c9a595cc81c995858da1959606a1b604482015260640161026b565b335f908152600c602052604090205481146118e357335f908152600b60209081526040808320839055600c90915290208190555b6008546040516370a0823160e01b81525f916001600160a01b0316906370a0823190611913903090600401613661565b602060405180830381865afa15801561192e573d5f5f3e3d5ffd5b505050506040513d601f19601f820116820180604052508101906119529190613a83565b600854909150611975906001600160a01b0316333067016345785d8a000061316a565b6008546040516370a0823160e01b81525f9183916001600160a01b03909116906370a08231906119a9903090600401613661565b602060405180830381865afa1580156119c4573d5f5f3e3d5ffd5b505050506040513d601f19601f820116820180604052508101906119e89190613a83565b6119f29190613a46565b905067016345785d8a00008114611a5b5760405162461bcd60e51b815260206004820152602760248201527f526574727920636f7374206d69736d617463682028464f54206e6f7420737570604482015266706f727465642960c81b606482015260840161026b565b335f908152600b60205260408120805491611a7583613adb565b9091555050335f818152600b602090815260409182902054825167016345785d8a00008152918201528592917f98afd9c8b4874dc0b797b810a6a8488429aea97e225fc6e70d948f77660fbee7910160405180910390a35050610ed860018055565b5f546001600160a01b031690565b611aed613138565b601155565b611afa613138565b611b0261310e565b5f8211611b5d5760405162461bcd60e51b815260206004820152602360248201527f526964646c65204944206d7573742062652067726561746572207468616e207a60448201526265726f60e81b606482015260840161026b565b600354821115611bb95760405162461bcd60e51b815260206004820152602160248201527f526964646c65204944206d7573742062652063757272656e74206f72207061736044820152601d60fa1b606482015260840161026b565b5f815111611c095760405162461bcd60e51b815260206004820152601d60248201527f57696e6e6572732061727261792063616e6e6f7420626520656d707479000000604482015260640161026b565b5f8281526017602052604090205460ff1615611c775760405162461bcd60e51b815260206004820152602760248201527f5061796f757420616c726561647920657865637574656420666f72207468697360448201526620726964646c6560c81b606482015260840161026b565b5f828152600760205260408120905b8251811015611d61575f611c9b8260016135b5565b90505b8351811015611d5857838181518110611cb957611cb9613af3565b60200260200101516001600160a01b0316848381518110611cdc57611cdc613af3565b60200260200101516001600160a01b031603611d505760405162461bcd60e51b815260206004820152602d60248201527f4475706c69636174652077696e6e6572206164647265737320696e206261746360448201526c1a081b9bdd08185b1b1bddd959609a1b606482015260840161026b565b600101611c9e565b50600101611c86565b505f8381526018602052604090205480611dcb5760405162461bcd60e51b815260206004820152602560248201527f4e6f2077696e6e657273207265676973746572656420666f72207468697320726044820152646964646c6560d81b606482015260840161026b565b81545f90611dda908390613b1b565b90505f82845f0154611dec9190613b2e565b90505f821180611dfb57505f81115b611e5b5760405162461bcd60e51b815260206004820152602b60248201527f5065722d77696e6e657220616d6f756e74206d7573742062652067726561746560448201526a72207468616e207a65726f60a81b606482015260840161026b565b5f80805b8751811015611f9c575f888281518110611e7b57611e7b613af3565b6020908102919091018101515f8c81526014835260408082206001600160a01b0384168352909352919091205490915060ff168015611edc57505f8a8152600a602090815260408083206001600160a01b038516845290915290205460ff16155b15611f935783611eeb81613adb565b94508690508515801590611f2157505f8b81526016602090815260408083206001600160a01b038616845290915290205460ff16155b8015611f4657505f8b8152601960205260409020548690611f439087906135b5565b11155b15611f8557611f566001826135b5565b5f8c81526016602090815260408083206001600160a01b03871684529091529020805460ff1916600117905590505b611f8f81856135b5565b9350505b50600101611e5f565b505f8211611ffc5760405162461bcd60e51b815260206004820152602760248201527f4e6f206e65772077696e6e65727320696e207468697320626174636820746f206044820152661c185e481bdd5d60ca1b606482015260840161026b565b5f60018088015460ff1690811115612016576120166137b3565b0361207c578060045410156120775760405162461bcd60e51b815260206004820152603460248201525f516020613c0d5f395f51905f526044820152730dcc6ca40ccdee440e0c2f2deeae840c4c2e8c6d60631b606482015260840161026b565b6120f8565b60018681015460ff1681811115612095576120956137b3565b036120f8578060055410156120f85760405162461bcd60e51b815260206004820152603660248201525f516020613bed5f395f51905f526044820152750d8c2dcc6ca40ccdee440e0c2f2deeae840c4c2e8c6d60531b606482015260840161026b565b5f805b885181101561225d575f89828151811061211757612117613af3565b6020908102919091018101515f8d81526014835260408082206001600160a01b0384168352909352919091205490915060ff16801561217857505f8b8152600a602090815260408083206001600160a01b038516845290915290205460ff16155b15612254575f8b8152600a602090815260408083206001600160a01b03851684528252808320805460ff191660011790558d8352601990915281208054916121bf83613adb565b90915550505f8b81526016602090815260408083206001600160a01b0385168452909152902054879060ff16156121fe576121fb6001826135b5565b90505b5f8c8152601560205260408120805483929061221b9084906135b5565b909155505060018a0154612245908390839060ff81169061010090046001600160a01b031661325c565b8361224f81613adb565b945050505b506001016120fb565b50887f71bff4125b8839ee2141d2a57795388253eea7ed158075d305576a2fb63647e28984604051612290929190613b41565b60405180910390a25f89815260186020908152604080832054601990925290912054036122d0575f898152601760205260409020805460ff191660011790555b50505050505050610d2860018055565b6122e861310e565b5f34116123485760405162461bcd60e51b815260206004820152602860248201527f4465706f73697420616d6f756e74206d7573742062652067726561746572207460448201526768616e207a65726f60c01b606482015260840161026b565b335f90815260026020526040812080543492906123669084906135b5565b909155505060405134815233907fe1fffcc4923d04b559f4d29a8bfc6cda04eb5b0d3c460751c2402c5c5cc9109c9060200160405180910390a261176e60018055565b6123b161310e565b5f600354116123d25760405162461bcd60e51b815260040161026b90613a59565b6003545f90815260096020908152604080832033845290915290205460ff1661240d5760405162461bcd60e51b815260040161026b906139fd565b6003545f908152600a6020908152604080832033845290915290205460ff161561246b5760405162461bcd60e51b815260206004820152600f60248201526e105b1c9958591e4818db185a5b5959608a1b604482015260640161026b565b6003545f90815260106020908152604080832033845290915290205460ff166124d65760405162461bcd60e51b815260206004820181905260248201527f4d7573742072657665616c206775657373206265666f726520736f6c76696e67604482015260640161026b565b6003545f90815260146020908152604080832033845290915290205460ff166125585760405162461bcd60e51b815260206004820152602e60248201527f4e6f74206120726567697374657265642077696e6e657220666f72207468652060448201526d63757272656e7420726964646c6560901b606482015260840161026b565b818160405160200161256b929190613b62565b60408051601f1981840301815291815281516020928301206003545f908152600f8452828120338252909352912054146125fd5760405162461bcd60e51b815260206004820152602d60248201527f52657665616c656420677565737320646f6573206e6f74206d6174636820707260448201526c37bb34b232b21030b739bbb2b960991b606482015260840161026b565b600380545f908152600a6020908152604080832033808552908352818420805460ff19166001908117909155945484526007909252909120805492810154909261265a929160ff81169061010090046001600160a01b031661325c565b50600380545f908152600f6020908152604080832033808552908352818420849055935483526010825280832093835292905220805460ff19169055610d2860018055565b6126a761310e565b5f82116126c65760405162461bcd60e51b815260040161026b90613999565b60035482146126e75760405162461bcd60e51b815260040161026b906139cb565b806127305760405162461bcd60e51b8152602060048201526019602482015278477565737320686173682063616e6e6f74206265207a65726f60381b604482015260640161026b565b5f82815260096020908152604080832033845290915290205460ff166127b55760405162461bcd60e51b815260206004820152603460248201527f5661756c7469733a20506c6179657220686173206e6f7420706172746963697060448201527330ba32b21034b7103a3434b9903934b23236329760611b606482015260840161026b565b5f828152600d602090815260408083203384529091529020546012549015159082036128c2575f83815260146020908152604080832033845290915290205460ff16612893575f8381526013602090815260408083208054600181810183559185528385200180546001600160a01b03191633908117909155878552601484528285209085528352818420805460ff191690911790558583526018909152812080549161286183613adb565b9091555050604051839033907fb5d93c368c4bd18876654db9fd5dcef5a3583ccde4d81659e7f309f36c844905905f90a35b6040805142815260016020820152339185915f516020613bcd5f395f51905f52910160405180910390a36129ea565b604080514281525f6020820152339185915f516020613bcd5f395f51905f52910160405180910390a380156129ea57335f908152600b60205260409020546129695760405162461bcd60e51b815260206004820152603460248201527f5661756c7469733a204e6f207265747269657320617661696c61626c6520746f6044820152731039bab136b4ba1030903732bb9033bab2b9b99760611b606482015260840161026b565b335f908152600b6020526040812080549161298383613b71565b90915550505f838152600d6020908152604080832033808552908352818420849055868452600e83528184208185528352818420849055868452600f83528184208185528352818420849055868452601083528184209084529091529020805460ff191690555b5f838152600d6020908152604080832033808552908352818420869055868452600e8352818420818552835292819020429055518481528592917fc5009e6865ae04f58da43f80d7eb9718a2f25a7ccfeb22a8ca0031e77b86b50a9101610d16565b612a54613138565b6001600160a01b038116612a7d575f604051631e4fbdf760e01b815260040161026b9190613661565b610ed88161320d565b612a8e613138565b5f8611612aad5760405162461bcd60e51b815260040161026b90613999565b6003548611612b0d5760405162461bcd60e51b815260206004820152602660248201527f526964646c65204944206d7573742062652067726561746572207468616e20636044820152651d5c9c995b9d60d21b606482015260840161026b565b5f8211612b2c5760405162461bcd60e51b815260040161026b90613b86565b6001846001811115612b4057612b406137b3565b03612cd1576001600160a01b038316612bb65760405162461bcd60e51b815260206004820152603260248201527f5072697a6520746f6b656e20616464726573732063616e6e6f74206265207a65604482015271726f20666f72204552433230207072697a6560701b606482015260840161026b565b5f836001600160a01b03163b11612c0f5760405162461bcd60e51b815260206004820181905260248201527f5072697a6520746f6b656e20686173206e6f20636f6e747261637420636f6465604482015260640161026b565b826001600160a01b03166318160ddd6040518163ffffffff1660e01b8152600401602060405180830381865afa925050508015612c69575060408051601f3d908101601f19168201909252612c6691810190613a83565b60015b612ccb5760405162461bcd60e51b815260206004820152602d60248201527f496e76616c6964204552432d323020746f6b656e3a20746f74616c537570706c60448201526c1e4818d85b1b0819985a5b1959609a1b606482015260840161026b565b50612d3f565b6001600160a01b03831615612d3f5760405162461bcd60e51b815260206004820152602e60248201527f5072697a6520746f6b656e2061646472657373206d757374206265207a65726f60448201526d20666f7220455448207072697a6560901b606482015260840161026b565b6001600160a01b038116612dd35760405162461bcd60e51b815260206004820152604f60248201527f456e7472792066656520746f6b656e20616464726573732063616e6e6f74206260448201527f65207a65726f20696620656e7472792066656520616d6f756e7420697320677260648201526e6561746572207468616e207a65726f60881b608482015260a40161026b565b5f816001600160a01b03163b11612e385760405162461bcd60e51b8152602060048201526024808201527f456e7472792066656520746f6b656e20686173206e6f20636f6e747261637420604482015263636f646560e01b606482015260840161026b565b806001600160a01b03166318160ddd6040518163ffffffff1660e01b8152600401602060405180830381865afa925050508015612e92575060408051601f3d908101601f19168201909252612e8f91810190613a83565b60015b612f025760405162461bcd60e51b815260206004820152603b60248201527f496e76616c6964204552432d323020746f6b656e20666f7220656e747279206660448201527a19594e881d1bdd185b14dd5c1c1b1e4818d85b1b0819985a5b1959602a1b606482015260840161026b565b50600680546001600160a01b0319166001600160a01b03831617905560045415612f855760405162461bcd60e51b815260206004820152602e60248201527f4d75737420776974686472617720455448207072697a6520706f6f6c2062656660448201526d6f7265206e657720726964646c6560901b606482015260840161026b565b60055415612fee5760405162461bcd60e51b815260206004820152603060248201527f4d75737420776974686472617720746f6b656e207072697a6520706f6f6c206260448201526f65666f7265206e657720726964646c6560801b606482015260840161026b565b6003869055601285905560408051606081019091528281526020810185600181111561301c5761301c6137b3565b81526001600160a01b0385166020918201525f8881526007825260409020825181559082015160018083018054909160ff19909116908381811115613063576130636137b3565b021790555060408201518160010160016101000a8154816001600160a01b0302191690836001600160a01b03160217905550905050857f05227007ca99c4e41f51fb024dcb2065e16bd026db353ce7f322e5cdb4fb2e9d868660018111156130cd576130cd6137b3565b6040805192835260ff9190911660208301526001600160a01b03878116838301526060830187905285166080830152519081900360a00190a2505050505050565b60026001540361313157604051633ee5aeb560e01b815260040160405180910390fd5b6002600155565b33613141611ad7565b6001600160a01b03161461176e573360405163118cdaa760e01b815260040161026b9190613661565b6040516001600160a01b0384811660248301528381166044830152606482018390526131d19186918216906323b872dd906084015b604051602081830303815290604052915060e01b6020820180516001600160e01b03838183161783525050505061353e565b50505050565b6040516001600160a01b0383811660248301526044820183905261320891859182169063a9059cbb9060640161319f565b505050565b5f80546001600160a01b038381166001600160a01b0319831681178455604051919092169283917f8be0079c531659141344cd1fd0a4f28419497f9722a3daafe3b4186f6b6457e09190a35050565b6001600160a01b0384166132b25760405162461bcd60e51b815260206004820152601d60248201527f57696e6e657220616464726573732063616e6e6f74206265207a65726f000000604482015260640161026b565b5f83116132d15760405162461bcd60e51b815260040161026b90613b86565b5f8260018111156132e4576132e46137b3565b0361343e578260045410156133345760405162461bcd60e51b815260206004820152602360248201525f516020613c0d5f395f51905f526044820152626e636560e81b606482015260840161026b565b8247101561338e5760405162461bcd60e51b815260206004820152602160248201527f496e73756666696369656e7420636f6e7472616374204554482062616c616e636044820152606560f81b606482015260840161026b565b8260045f82825461339f9190613a46565b90915550506040515f906001600160a01b0386169085908381818185875af1925050503d805f81146133ec576040519150601f19603f3d011682016040523d82523d5f602084013e6133f1565b606091505b50509050806134385760405162461bcd60e51b8152602060048201526013602482015272115512081d1c985b9cd9995c8819985a5b1959606a1b604482015260640161026b565b506134f5565b6001826001811115613452576134526137b3565b036134f5576001600160a01b03811661347d5760405162461bcd60e51b815260040161026b90613a9a565b8260055410156134ca5760405162461bcd60e51b815260206004820152602560248201525f516020613bed5f395f51905f526044820152646c616e636560d81b606482015260840161026b565b8260055f8282546134db9190613a46565b909155506134f590506001600160a01b03821685856131d7565b836001600160a01b03167fff43c2705b2225c1c9d9d58f088ab64d4fc767737dee523bed37f15fb0c6c3de8484604051613530929190613ac7565b60405180910390a250505050565b5f5f60205f8451602086015f885af18061355d576040513d5f823e3d81fd5b50505f513d91508115613574578060011415613581565b6001600160a01b0384163b155b156131d15783604051635274afe760e01b815260040161026b9190613661565b634e487b7160e01b5f52601160045260245ffd5b808201808211156135c8576135c86135a1565b92915050565b5f602082840312156135de575f5ffd5b5035919050565b5f8151808452602084019350602083015f5b8281101561361e5781516001600160a01b03168652602095860195909101906001016135f7565b5093949350505050565b602081525f61363a60208301846135e5565b9392505050565b5f5f60408385031215613652575f5ffd5b50508035926020909101359150565b6001600160a01b0391909116815260200190565b634e487b7160e01b5f52604160045260245ffd5b604051601f8201601f191681016001600160401b03811182821017156136b1576136b1613675565b604052919050565b5f5f604083850312156136ca575f5ffd5b8235915060208301356001600160401b038111156136e6575f5ffd5b8301601f810185136136f6575f5ffd5b80356001600160401b0381111561370f5761370f613675565b613722601f8201601f1916602001613689565b818152866020838501011115613736575f5ffd5b816020840160208301375f602083830101528093505050509250929050565b80356001600160a01b038116811461376b575f5ffd5b919050565b5f5f60408385031215613781575f5ffd5b8235915061379160208401613755565b90509250929050565b5f602082840312156137aa575f5ffd5b61363a82613755565b634e487b7160e01b5f52602160045260245ffd5b600281106137e357634e487b7160e01b5f52602160045260245ffd5b9052565b838152606081016137fb60208301856137c7565b6001600160a01b03929092166040919091015292915050565b5f5f60408385031215613825575f5ffd5b8235915060208301356001600160401b03811115613841575f5ffd5b8301601f81018513613851575f5ffd5b80356001600160401b0381111561386a5761386a613675565b8060051b61387a60208201613689565b91825260208184018101929081019088841115613895575f5ffd5b6020850194505b838510156138be576138ad85613755565b82526020948501949091019061389c565b80955050505050509250929050565b5f5f602083850312156138de575f5ffd5b82356001600160401b038111156138f3575f5ffd5b8301601f81018513613903575f5ffd5b80356001600160401b03811115613918575f5ffd5b856020828401011115613929575f5ffd5b6020919091019590945092505050565b5f5f5f5f5f5f60c0878903121561394e575f5ffd5b863595506020870135945060408701356002811061396a575f5ffd5b935061397860608801613755565b92506080870135915061398d60a08801613755565b90509295509295509295565b602080825260189082015277526964646c652049442063616e6e6f74206265207a65726f60401b604082015260600190565b602080825260189082015277139bdd081d1a19481858dd1a5d99481c9a59191b1948125160421b604082015260600190565b602080825260199082015278135d5cdd08195b9d195c881d1a194819d85b5948199a5c9cdd603a1b604082015260600190565b5f82518060208501845e5f920191825250919050565b818103818111156135c8576135c86135a1565b60208082526010908201526f4e6f2061637469766520726964646c6560801b604082015260600190565b5f60208284031215613a93575f5ffd5b5051919050565b602080825260139082015272141c9a5e99481d1bdad95b881b9bdd081cd95d606a1b604082015260600190565b8281526040810161363a60208301846137c7565b5f60018201613aec57613aec6135a1565b5060010190565b634e487b7160e01b5f52603260045260245ffd5b634e487b7160e01b5f52601260045260245ffd5b5f82613b2957613b29613b07565b500490565b5f82613b3c57613b3c613b07565b500690565b604081525f613b5360408301856135e5565b90508260208301529392505050565b818382375f9101908152919050565b5f81613b7f57613b7f6135a1565b505f190190565b60208082526026908201527f5072697a6520616d6f756e74206d7573742062652067726561746572207468616040820152656e207a65726f60d01b60608201526080019056fe6dbad7911810fc45c016aff41534b7adcd5477454a9b5be0d995a93518cde675496e73756666696369656e74204552433230207072697a6520706f6f6c206261496e73756666696369656e7420455448207072697a6520706f6f6c2062616c61a26469706673582212200c5e69ecd7447f0d3106d06e7bf0085d638bf77b050f73749dc622b7b983478064736f6c634300081e0033","linkReferences":{}},"methodIdentifiers":{"ENTRY_FEE()":"f6d361cc","MAX_RETRIES()":"46ebbdb0","RETRY_COST()":"57aa0ea2","balances(address)":"27e235e3","committedAt(uint256,address)":"c06a5fc5","committedGuesses(uint256,address)":"b7173e77","currentRiddleId()":"ecdc6c23","deposit()":"d0e30db0","enterGame(uint256)":"43d6582b","entryFeeToken()":"7b149763","ethPrizePool()":"95664a3d","fundTokenPrizePool(uint256)":"48b06e87","getCurrentPrizePool()":"55e93ede","getPrizeToken()":"c7cd6959","getRetryCount(address)":"98e18549","getWinnerList(uint256)":"0b0705c8","hasClaimed(uint256,address)":"873f6f9e","hasParticipated(uint256,address)":"a34398a2","hasPlayerEntered(address)":"680719bb","hasReceivedRemainder(uint256,address)":"94c9d9bc","hasRevealed(uint256,address)":"16b5551d","isPaidOut(uint256)":"569eaf61","isWinner(uint256,address)":"bdd415af","owner()":"8da5cb5b","ownerWithdraw(uint256)":"33f707d1","ownerWithdrawTokens(uint256)":"60972120","paidWinnersCount(uint256)":"f7c7e144","payout(uint256,address[])":"c8e728f9","purchaseRetry(uint256)":"7a11e941","renounceOwnership()":"715018a6","retries(address)":"dbbd3245","retryToken()":"219fc385","revealDelay()":"53236d74","revealGuess(uint256,string)":"12b5afc1","revealedGuessHash(uint256,address)":"188240cd","riddleConfigs(uint256)":"a6dbce24","setRevealDelay(uint256)":"a68c25d8","setRiddle(uint256,bytes32,uint8,address,uint256,address)":"f9f82e9c","solveRiddleAndClaim(string)":"dc663b53","submitGuess(uint256,bytes32)":"e4d33ee3","tokenPrizePool()":"c310e242","totalPrizeDistributed(uint256)":"d56c52ed","totalWinnersCount(uint256)":"fab16017","transferOwnership(address)":"f2fde38b","winners(uint256,uint256)":"0efc8865","withdraw(uint256)":"2e1a7d4d"},"id":4}